{"abi":[{"inputs":[{"internalType":"address","name":"sender","type":"address"},{"internalType":"string","name":"n","type":"string"}],"stateMutability":"nonpayable","type":"constructor"},{"inputs":[{"internalType":"string","name":"partyName","type":"string"},{"internalType":"string","name":"leaderName","type":"string"},{"internalType":"uint256","name":"membersCount","type":"uint256"},{"internalType":"string","name":"region","type":"string"}],"name":"addParty","outputs":[],"stateMutability":"nonpayable","type":"function"},{"inputs":[{"internalType":"uint256","name":"aadhaar","type":"uint256"},{"internalType":"uint256","name":"partyIndex","type":"uint256"}],"name":"castVote","outputs":[],"stateMutability":"nonpayable","type":"function"},{"inputs":[],"name":"endElection","outputs":[],"stateMutability":"nonpayable","type":"function"},{"inputs":[],"name":"getParties","outputs":[{"components":[{"internalType":"string","name":"name","type":"string"},{"internalType":"string","name":"leaderName","type":"string"},{"internalType":"uint256","name":"membersCount","type":"uint256"},{"internalType":"string","name":"region","type":"string"}],"internalType":"struct Election.Party[]","name":"","type":"tuple[]"}],"stateMutability":"view","type":"function"},{"inputs":[{"internalType":"uint256","name":"partyIndex","type":"uint256"}],"name":"getPartyDetails","outputs":[{"components":[{"internalType":"string","name":"name","type":"string"},{"internalType":"string","name":"leaderName","type":"string"},{"internalType":"uint256","name":"membersCount","type":"uint256"},{"internalType":"string","name":"region","type":"string"}],"internalType":"struct Election.Party","name":"","type":"tuple"}],"stateMutability":"view","type":"function"},{"inputs":[],"name":"getResults","outputs":[{"internalType":"uint256[]","name":"","type":"uint256[]"}],"stateMutability":"view","type":"function"},{"inputs":[],"name":"manager","outputs":[{"internalType":"address","name":"","type":"address"}],"stateMutability":"view","type":"function"},{"inputs":[],"name":"name","outputs":[{"internalType":"string","name":"","type":"string"}],"stateMutability":"view","type":"function"},{"inputs":[],"name":"startElection","outputs":[],"stateMutability":"nonpayable","type":"function"},{"inputs":[],"name":"totalVotes","outputs":[{"internalType":"uint256","name":"","type":"uint256"}],"stateMutability":"view","type":"function"}],"devdoc":{"kind":"dev","methods":{},"version":1},"evm":{"assembly":"    /* \"Election.sol\":685:2769  contract Election{\r... */\n  mstore(0x40, 0x80)\n    /* \"Election.sol\":985:1166  constructor(address sender, string memory n){\r... */\n  callvalue\n  dup1\n  iszero\n  tag_1\n  jumpi\n  0x00\n  dup1\n  revert\ntag_1:\n  pop\n  mload(0x40)\n  sub(codesize, bytecodeSize)\n  dup1\n  bytecodeSize\n  dup4\n  codecopy\n  dup2\n  dup2\n  add\n  0x40\n  mstore\n  dup2\n  add\n  swap1\n  tag_2\n  swap2\n  swap1\n  tag_3\n  jump\t// in\ntag_2:\n    /* \"Election.sol\":1050:1056  sender */\n  dup2\n    /* \"Election.sol\":1040:1047  manager */\n  0x02\n  0x00\n    /* \"Election.sol\":1040:1056  manager = sender */\n  0x0100\n  exp\n  dup2\n  sload\n  dup2\n  0xffffffffffffffffffffffffffffffffffffffff\n  mul\n  not\n  and\n  swap1\n  dup4\n  0xffffffffffffffffffffffffffffffffffffffff\n  and\n  mul\n  or\n  swap1\n  sstore\n  pop\n    /* \"Election.sol\":1081:1086  false */\n  0x00\n    /* \"Election.sol\":1067:1078  isCompleted */\n  0x04\n  0x00\n    /* \"Election.sol\":1067:1086  isCompleted = false */\n  0x0100\n  exp\n  dup2\n  sload\n  dup2\n  0xff\n  mul\n  not\n  and\n  swap1\n  dup4\n  iszero\n  iszero\n  mul\n  or\n  swap1\n  sstore\n  pop\n    /* \"Election.sol\":1110:1111  0 */\n  0x00\n    /* \"Election.sol\":1097:1107  totalVotes */\n  dup1\n    /* \"Election.sol\":1097:1111  totalVotes = 0 */\n  dup2\n  swap1\n  sstore\n  pop\n    /* \"Election.sol\":1134:1139  false */\n  0x00\n    /* \"Election.sol\":1122:1131  isStarted */\n  0x04\n  0x01\n    /* \"Election.sol\":1122:1139  isStarted = false */\n  0x0100\n  exp\n  dup2\n  sload\n  dup2\n  0xff\n  mul\n  not\n  and\n  swap1\n  dup4\n  iszero\n  iszero\n  mul\n  or\n  swap1\n  sstore\n  pop\n    /* \"Election.sol\":1157:1158  n */\n  dup1\n    /* \"Election.sol\":1150:1154  name */\n  0x01\n    /* \"Election.sol\":1150:1158  name = n */\n  swap1\n  dup1\n  mload\n  swap1\n  0x20\n  add\n  swap1\n  tag_6\n  swap3\n  swap2\n  swap1\n  tag_7\n  jump\t// in\ntag_6:\n  pop\n    /* \"Election.sol\":985:1166  constructor(address sender, string memory n){\r... */\n  pop\n  pop\n    /* \"Election.sol\":685:2769  contract Election{\r... */\n  jump(tag_8)\ntag_7:\n  dup3\n  dup1\n  sload\n  tag_9\n  swap1\n  tag_10\n  jump\t// in\ntag_9:\n  swap1\n  0x00\n  mstore\n  keccak256(0x00, 0x20)\n  swap1\n  0x1f\n  add\n  0x20\n  swap1\n  div\n  dup2\n  add\n  swap3\n  dup3\n  tag_12\n  jumpi\n  0x00\n  dup6\n  sstore\n  jump(tag_11)\ntag_12:\n  dup3\n  0x1f\n  lt\n  tag_13\n  jumpi\n  dup1\n  mload\n  not(0xff)\n  and\n  dup4\n  dup1\n  add\n  or\n  dup6\n  sstore\n  jump(tag_11)\ntag_13:\n  dup3\n  dup1\n  add\n  0x01\n  add\n  dup6\n  sstore\n  dup3\n  iszero\n  tag_11\n  jumpi\n  swap2\n  dup3\n  add\ntag_14:\n  dup3\n  dup2\n  gt\n  iszero\n  tag_15\n  jumpi\n  dup3\n  mload\n  dup3\n  sstore\n  swap2\n  0x20\n  add\n  swap2\n  swap1\n  0x01\n  add\n  swap1\n  jump(tag_14)\ntag_15:\ntag_11:\n  pop\n  swap1\n  pop\n  tag_16\n  swap2\n  swap1\n  tag_17\n  jump\t// in\ntag_16:\n  pop\n  swap1\n  jump\t// out\ntag_17:\ntag_18:\n  dup1\n  dup3\n  gt\n  iszero\n  tag_19\n  jumpi\n  0x00\n  dup2\n  0x00\n  swap1\n  sstore\n  pop\n  0x01\n  add\n  jump(tag_18)\ntag_19:\n  pop\n  swap1\n  jump\t// out\n    /* \"#utility.yul\":7:361   */\ntag_21:\n  0x00\n    /* \"#utility.yul\":121:187   */\n  tag_23\n    /* \"#utility.yul\":137:186   */\n  tag_24\n    /* \"#utility.yul\":179:185   */\n  dup5\n    /* \"#utility.yul\":137:186   */\n  tag_25\n  jump\t// in\ntag_24:\n    /* \"#utility.yul\":121:187   */\n  tag_26\n  jump\t// in\ntag_23:\n    /* \"#utility.yul\":112:187   */\n  swap1\n  pop\n    /* \"#utility.yul\":210:216   */\n  dup3\n    /* \"#utility.yul\":203:208   */\n  dup2\n    /* \"#utility.yul\":196:217   */\n  mstore\n    /* \"#utility.yul\":248:252   */\n  0x20\n    /* \"#utility.yul\":241:246   */\n  dup2\n    /* \"#utility.yul\":237:253   */\n  add\n    /* \"#utility.yul\":286:289   */\n  dup5\n    /* \"#utility.yul\":277:283   */\n  dup5\n    /* \"#utility.yul\":272:275   */\n  dup5\n    /* \"#utility.yul\":268:284   */\n  add\n    /* \"#utility.yul\":265:290   */\n  gt\n    /* \"#utility.yul\":262:264   */\n  iszero\n  tag_27\n  jumpi\n    /* \"#utility.yul\":303:304   */\n  0x00\n    /* \"#utility.yul\":300:301   */\n  dup1\n    /* \"#utility.yul\":293:305   */\n  revert\n    /* \"#utility.yul\":262:264   */\ntag_27:\n    /* \"#utility.yul\":316:355   */\n  tag_28\n    /* \"#utility.yul\":348:354   */\n  dup5\n    /* \"#utility.yul\":343:346   */\n  dup3\n    /* \"#utility.yul\":338:341   */\n  dup6\n    /* \"#utility.yul\":316:355   */\n  tag_29\n  jump\t// in\ntag_28:\n    /* \"#utility.yul\":102:361   */\n  pop\n  swap4\n  swap3\n  pop\n  pop\n  pop\n  jump\t// out\n    /* \"#utility.yul\":367:510   */\ntag_30:\n  0x00\n    /* \"#utility.yul\":455:461   */\n  dup2\n    /* \"#utility.yul\":449:462   */\n  mload\n    /* \"#utility.yul\":440:462   */\n  swap1\n  pop\n    /* \"#utility.yul\":471:504   */\n  tag_32\n    /* \"#utility.yul\":498:503   */\n  dup2\n    /* \"#utility.yul\":471:504   */\n  tag_33\n  jump\t// in\ntag_32:\n    /* \"#utility.yul\":430:510   */\n  swap3\n  swap2\n  pop\n  pop\n  jump\t// out\n    /* \"#utility.yul\":530:818   */\ntag_34:\n  0x00\n    /* \"#utility.yul\":646:649   */\n  dup3\n    /* \"#utility.yul\":639:643   */\n  0x1f\n    /* \"#utility.yul\":631:637   */\n  dup4\n    /* \"#utility.yul\":627:644   */\n  add\n    /* \"#utility.yul\":623:650   */\n  slt\n    /* \"#utility.yul\":613:615   */\n  tag_36\n  jumpi\n    /* \"#utility.yul\":664:665   */\n  0x00\n    /* \"#utility.yul\":661:662   */\n  dup1\n    /* \"#utility.yul\":654:666   */\n  revert\n    /* \"#utility.yul\":613:615   */\ntag_36:\n    /* \"#utility.yul\":697:703   */\n  dup2\n    /* \"#utility.yul\":691:704   */\n  mload\n    /* \"#utility.yul\":722:812   */\n  tag_37\n    /* \"#utility.yul\":808:811   */\n  dup5\n    /* \"#utility.yul\":800:806   */\n  dup3\n    /* \"#utility.yul\":793:797   */\n  0x20\n    /* \"#utility.yul\":785:791   */\n  dup7\n    /* \"#utility.yul\":781:798   */\n  add\n    /* \"#utility.yul\":722:812   */\n  tag_21\n  jump\t// in\ntag_37:\n    /* \"#utility.yul\":713:812   */\n  swap2\n  pop\n    /* \"#utility.yul\":603:818   */\n  pop\n  swap3\n  swap2\n  pop\n  pop\n  jump\t// out\n    /* \"#utility.yul\":824:1370   */\ntag_3:\n  0x00\n  dup1\n    /* \"#utility.yul\":970:972   */\n  0x40\n    /* \"#utility.yul\":958:967   */\n  dup4\n    /* \"#utility.yul\":949:956   */\n  dup6\n    /* \"#utility.yul\":945:968   */\n  sub\n    /* \"#utility.yul\":941:973   */\n  slt\n    /* \"#utility.yul\":938:940   */\n  iszero\n  tag_39\n  jumpi\n    /* \"#utility.yul\":986:987   */\n  0x00\n    /* \"#utility.yul\":983:984   */\n  dup1\n    /* \"#utility.yul\":976:988   */\n  revert\n    /* \"#utility.yul\":938:940   */\ntag_39:\n    /* \"#utility.yul\":1029:1030   */\n  0x00\n    /* \"#utility.yul\":1054:1118   */\n  tag_40\n    /* \"#utility.yul\":1110:1117   */\n  dup6\n    /* \"#utility.yul\":1101:1107   */\n  dup3\n    /* \"#utility.yul\":1090:1099   */\n  dup7\n    /* \"#utility.yul\":1086:1108   */\n  add\n    /* \"#utility.yul\":1054:1118   */\n  tag_30\n  jump\t// in\ntag_40:\n    /* \"#utility.yul\":1044:1118   */\n  swap3\n  pop\n    /* \"#utility.yul\":1000:1128   */\n  pop\n    /* \"#utility.yul\":1188:1190   */\n  0x20\n    /* \"#utility.yul\":1177:1186   */\n  dup4\n    /* \"#utility.yul\":1173:1191   */\n  add\n    /* \"#utility.yul\":1167:1192   */\n  mload\n    /* \"#utility.yul\":1219:1237   */\n  0xffffffffffffffff\n    /* \"#utility.yul\":1211:1217   */\n  dup2\n    /* \"#utility.yul\":1208:1238   */\n  gt\n    /* \"#utility.yul\":1205:1207   */\n  iszero\n  tag_41\n  jumpi\n    /* \"#utility.yul\":1251:1252   */\n  0x00\n    /* \"#utility.yul\":1248:1249   */\n  dup1\n    /* \"#utility.yul\":1241:1253   */\n  revert\n    /* \"#utility.yul\":1205:1207   */\ntag_41:\n    /* \"#utility.yul\":1279:1353   */\n  tag_42\n    /* \"#utility.yul\":1345:1352   */\n  dup6\n    /* \"#utility.yul\":1336:1342   */\n  dup3\n    /* \"#utility.yul\":1325:1334   */\n  dup7\n    /* \"#utility.yul\":1321:1343   */\n  add\n    /* \"#utility.yul\":1279:1353   */\n  tag_34\n  jump\t// in\ntag_42:\n    /* \"#utility.yul\":1269:1353   */\n  swap2\n  pop\n    /* \"#utility.yul\":1138:1363   */\n  pop\n    /* \"#utility.yul\":928:1370   */\n  swap3\n  pop\n  swap3\n  swap1\n  pop\n  jump\t// out\n    /* \"#utility.yul\":1376:1505   */\ntag_26:\n  0x00\n    /* \"#utility.yul\":1437:1457   */\n  tag_44\n  tag_45\n  jump\t// in\ntag_44:\n    /* \"#utility.yul\":1427:1457   */\n  swap1\n  pop\n    /* \"#utility.yul\":1466:1499   */\n  tag_46\n    /* \"#utility.yul\":1494:1498   */\n  dup3\n    /* \"#utility.yul\":1486:1492   */\n  dup3\n    /* \"#utility.yul\":1466:1499   */\n  tag_47\n  jump\t// in\ntag_46:\n    /* \"#utility.yul\":1417:1505   */\n  swap2\n  swap1\n  pop\n  jump\t// out\n    /* \"#utility.yul\":1511:1586   */\ntag_45:\n  0x00\n    /* \"#utility.yul\":1577:1579   */\n  0x40\n    /* \"#utility.yul\":1571:1580   */\n  mload\n    /* \"#utility.yul\":1561:1580   */\n  swap1\n  pop\n    /* \"#utility.yul\":1551:1586   */\n  swap1\n  jump\t// out\n    /* \"#utility.yul\":1592:1900   */\ntag_25:\n  0x00\n    /* \"#utility.yul\":1744:1762   */\n  0xffffffffffffffff\n    /* \"#utility.yul\":1736:1742   */\n  dup3\n    /* \"#utility.yul\":1733:1763   */\n  gt\n    /* \"#utility.yul\":1730:1732   */\n  iszero\n  tag_50\n  jumpi\n    /* \"#utility.yul\":1766:1784   */\n  tag_51\n  tag_52\n  jump\t// in\ntag_51:\n    /* \"#utility.yul\":1730:1732   */\ntag_50:\n    /* \"#utility.yul\":1804:1833   */\n  tag_53\n    /* \"#utility.yul\":1826:1832   */\n  dup3\n    /* \"#utility.yul\":1804:1833   */\n  tag_54\n  jump\t// in\ntag_53:\n    /* \"#utility.yul\":1796:1833   */\n  swap1\n  pop\n    /* \"#utility.yul\":1888:1892   */\n  0x20\n    /* \"#utility.yul\":1882:1886   */\n  dup2\n    /* \"#utility.yul\":1878:1893   */\n  add\n    /* \"#utility.yul\":1870:1893   */\n  swap1\n  pop\n    /* \"#utility.yul\":1659:1900   */\n  swap2\n  swap1\n  pop\n  jump\t// out\n    /* \"#utility.yul\":1906:2002   */\ntag_55:\n  0x00\n    /* \"#utility.yul\":1972:1996   */\n  tag_57\n    /* \"#utility.yul\":1990:1995   */\n  dup3\n    /* \"#utility.yul\":1972:1996   */\n  tag_58\n  jump\t// in\ntag_57:\n    /* \"#utility.yul\":1961:1996   */\n  swap1\n  pop\n    /* \"#utility.yul\":1951:2002   */\n  swap2\n  swap1\n  pop\n  jump\t// out\n    /* \"#utility.yul\":2008:2134   */\ntag_58:\n  0x00\n    /* \"#utility.yul\":2085:2127   */\n  0xffffffffffffffffffffffffffffffffffffffff\n    /* \"#utility.yul\":2078:2083   */\n  dup3\n    /* \"#utility.yul\":2074:2128   */\n  and\n    /* \"#utility.yul\":2063:2128   */\n  swap1\n  pop\n    /* \"#utility.yul\":2053:2134   */\n  swap2\n  swap1\n  pop\n  jump\t// out\n    /* \"#utility.yul\":2140:2447   */\ntag_29:\n    /* \"#utility.yul\":2208:2209   */\n  0x00\n    /* \"#utility.yul\":2218:2331   */\ntag_61:\n    /* \"#utility.yul\":2232:2238   */\n  dup4\n    /* \"#utility.yul\":2229:2230   */\n  dup2\n    /* \"#utility.yul\":2226:2239   */\n  lt\n    /* \"#utility.yul\":2218:2331   */\n  iszero\n  tag_63\n  jumpi\n    /* \"#utility.yul\":2317:2318   */\n  dup1\n    /* \"#utility.yul\":2312:2315   */\n  dup3\n    /* \"#utility.yul\":2308:2319   */\n  add\n    /* \"#utility.yul\":2302:2320   */\n  mload\n    /* \"#utility.yul\":2298:2299   */\n  dup2\n    /* \"#utility.yul\":2293:2296   */\n  dup5\n    /* \"#utility.yul\":2289:2300   */\n  add\n    /* \"#utility.yul\":2282:2321   */\n  mstore\n    /* \"#utility.yul\":2254:2256   */\n  0x20\n    /* \"#utility.yul\":2251:2252   */\n  dup2\n    /* \"#utility.yul\":2247:2257   */\n  add\n    /* \"#utility.yul\":2242:2257   */\n  swap1\n  pop\n    /* \"#utility.yul\":2218:2331   */\n  jump(tag_61)\ntag_63:\n    /* \"#utility.yul\":2349:2355   */\n  dup4\n    /* \"#utility.yul\":2346:2347   */\n  dup2\n    /* \"#utility.yul\":2343:2356   */\n  gt\n    /* \"#utility.yul\":2340:2342   */\n  iszero\n  tag_64\n  jumpi\n    /* \"#utility.yul\":2429:2430   */\n  0x00\n    /* \"#utility.yul\":2420:2426   */\n  dup5\n    /* \"#utility.yul\":2415:2418   */\n  dup5\n    /* \"#utility.yul\":2411:2427   */\n  add\n    /* \"#utility.yul\":2404:2431   */\n  mstore\n    /* \"#utility.yul\":2340:2342   */\ntag_64:\n    /* \"#utility.yul\":2189:2447   */\n  pop\n  pop\n  pop\n  pop\n  jump\t// out\n    /* \"#utility.yul\":2453:2773   */\ntag_10:\n  0x00\n    /* \"#utility.yul\":2534:2535   */\n  0x02\n    /* \"#utility.yul\":2528:2532   */\n  dup3\n    /* \"#utility.yul\":2524:2536   */\n  div\n    /* \"#utility.yul\":2514:2536   */\n  swap1\n  pop\n    /* \"#utility.yul\":2581:2582   */\n  0x01\n    /* \"#utility.yul\":2575:2579   */\n  dup3\n    /* \"#utility.yul\":2571:2583   */\n  and\n    /* \"#utility.yul\":2602:2620   */\n  dup1\n    /* \"#utility.yul\":2592:2594   */\n  tag_66\n  jumpi\n    /* \"#utility.yul\":2658:2662   */\n  0x7f\n    /* \"#utility.yul\":2650:2656   */\n  dup3\n    /* \"#utility.yul\":2646:2663   */\n  and\n    /* \"#utility.yul\":2636:2663   */\n  swap2\n  pop\n    /* \"#utility.yul\":2592:2594   */\ntag_66:\n    /* \"#utility.yul\":2720:2722   */\n  0x20\n    /* \"#utility.yul\":2712:2718   */\n  dup3\n    /* \"#utility.yul\":2709:2723   */\n  lt\n    /* \"#utility.yul\":2689:2707   */\n  dup2\n    /* \"#utility.yul\":2686:2724   */\n  eq\n    /* \"#utility.yul\":2683:2685   */\n  iszero\n  tag_67\n  jumpi\n    /* \"#utility.yul\":2739:2757   */\n  tag_68\n  tag_69\n  jump\t// in\ntag_68:\n    /* \"#utility.yul\":2683:2685   */\ntag_67:\n    /* \"#utility.yul\":2504:2773   */\n  pop\n  swap2\n  swap1\n  pop\n  jump\t// out\n    /* \"#utility.yul\":2779:3060   */\ntag_47:\n    /* \"#utility.yul\":2862:2889   */\n  tag_71\n    /* \"#utility.yul\":2884:2888   */\n  dup3\n    /* \"#utility.yul\":2862:2889   */\n  tag_54\n  jump\t// in\ntag_71:\n    /* \"#utility.yul\":2854:2860   */\n  dup2\n    /* \"#utility.yul\":2850:2890   */\n  add\n    /* \"#utility.yul\":2992:2998   */\n  dup2\n    /* \"#utility.yul\":2980:2990   */\n  dup2\n    /* \"#utility.yul\":2977:2999   */\n  lt\n    /* \"#utility.yul\":2956:2974   */\n  0xffffffffffffffff\n    /* \"#utility.yul\":2944:2954   */\n  dup3\n    /* \"#utility.yul\":2941:2975   */\n  gt\n    /* \"#utility.yul\":2938:3000   */\n  or\n    /* \"#utility.yul\":2935:2937   */\n  iszero\n  tag_72\n  jumpi\n    /* \"#utility.yul\":3003:3021   */\n  tag_73\n  tag_52\n  jump\t// in\ntag_73:\n    /* \"#utility.yul\":2935:2937   */\ntag_72:\n    /* \"#utility.yul\":3043:3053   */\n  dup1\n    /* \"#utility.yul\":3039:3041   */\n  0x40\n    /* \"#utility.yul\":3032:3054   */\n  mstore\n    /* \"#utility.yul\":2822:3060   */\n  pop\n  pop\n  pop\n  jump\t// out\n    /* \"#utility.yul\":3066:3246   */\ntag_69:\n    /* \"#utility.yul\":3114:3191   */\n  0x4e487b7100000000000000000000000000000000000000000000000000000000\n    /* \"#utility.yul\":3111:3112   */\n  0x00\n    /* \"#utility.yul\":3104:3192   */\n  mstore\n    /* \"#utility.yul\":3211:3215   */\n  0x22\n    /* \"#utility.yul\":3208:3209   */\n  0x04\n    /* \"#utility.yul\":3201:3216   */\n  mstore\n    /* \"#utility.yul\":3235:3239   */\n  0x24\n    /* \"#utility.yul\":3232:3233   */\n  0x00\n    /* \"#utility.yul\":3225:3240   */\n  revert\n    /* \"#utility.yul\":3252:3432   */\ntag_52:\n    /* \"#utility.yul\":3300:3377   */\n  0x4e487b7100000000000000000000000000000000000000000000000000000000\n    /* \"#utility.yul\":3297:3298   */\n  0x00\n    /* \"#utility.yul\":3290:3378   */\n  mstore\n    /* \"#utility.yul\":3397:3401   */\n  0x41\n    /* \"#utility.yul\":3394:3395   */\n  0x04\n    /* \"#utility.yul\":3387:3402   */\n  mstore\n    /* \"#utility.yul\":3421:3425   */\n  0x24\n    /* \"#utility.yul\":3418:3419   */\n  0x00\n    /* \"#utility.yul\":3411:3426   */\n  revert\n    /* \"#utility.yul\":3438:3540   */\ntag_54:\n  0x00\n    /* \"#utility.yul\":3530:3532   */\n  0x1f\n    /* \"#utility.yul\":3526:3533   */\n  not\n    /* \"#utility.yul\":3521:3523   */\n  0x1f\n    /* \"#utility.yul\":3514:3519   */\n  dup4\n    /* \"#utility.yul\":3510:3524   */\n  add\n    /* \"#utility.yul\":3506:3534   */\n  and\n    /* \"#utility.yul\":3496:3534   */\n  swap1\n  pop\n    /* \"#utility.yul\":3486:3540   */\n  swap2\n  swap1\n  pop\n  jump\t// out\n    /* \"#utility.yul\":3546:3668   */\ntag_33:\n    /* \"#utility.yul\":3619:3643   */\n  tag_78\n    /* \"#utility.yul\":3637:3642   */\n  dup2\n    /* \"#utility.yul\":3619:3643   */\n  tag_55\n  jump\t// in\ntag_78:\n    /* \"#utility.yul\":3612:3617   */\n  dup2\n    /* \"#utility.yul\":3609:3644   */\n  eq\n    /* \"#utility.yul\":3599:3601   */\n  tag_79\n  jumpi\n    /* \"#utility.yul\":3658:3659   */\n  0x00\n    /* \"#utility.yul\":3655:3656   */\n  dup1\n    /* \"#utility.yul\":3648:3660   */\n  revert\n    /* \"#utility.yul\":3599:3601   */\ntag_79:\n    /* \"#utility.yul\":3589:3668   */\n  pop\n  jump\t// out\n    /* \"Election.sol\":685:2769  contract Election{\r... */\ntag_8:\n  dataSize(sub_0)\n  dup1\n  dataOffset(sub_0)\n  0x00\n  codecopy\n  0x00\n  return\nstop\n\nsub_0: assembly {\n        /* \"Election.sol\":685:2769  contract Election{\r... */\n      mstore(0x40, 0x80)\n      callvalue\n      dup1\n      iszero\n      tag_1\n      jumpi\n      0x00\n      dup1\n      revert\n    tag_1:\n      pop\n      jumpi(tag_2, lt(calldatasize, 0x04))\n      shr(0xe0, calldataload(0x00))\n      dup1\n      0x481c6a75\n      gt\n      tag_13\n      jumpi\n      dup1\n      0x481c6a75\n      eq\n      tag_8\n      jumpi\n      dup1\n      0x59f78468\n      eq\n      tag_9\n      jumpi\n      dup1\n      0x62d73eb8\n      eq\n      tag_10\n      jumpi\n      dup1\n      0xa8311aa8\n      eq\n      tag_11\n      jumpi\n      dup1\n      0xb09ea6a1\n      eq\n      tag_12\n      jumpi\n      jump(tag_2)\n    tag_13:\n      dup1\n      0x024789a9\n      eq\n      tag_3\n      jumpi\n      dup1\n      0x06fdde03\n      eq\n      tag_4\n      jumpi\n      dup1\n      0x0d15fd77\n      eq\n      tag_5\n      jumpi\n      dup1\n      0x2c0a3f89\n      eq\n      tag_6\n      jumpi\n      dup1\n      0x4717f97c\n      eq\n      tag_7\n      jumpi\n    tag_2:\n      0x00\n      dup1\n      revert\n        /* \"Election.sol\":2180:2337  function getPartyDetails(uint partyIndex) public view returns(Party memory){\r... */\n    tag_3:\n      tag_14\n      0x04\n      dup1\n      calldatasize\n      sub\n      dup2\n      add\n      swap1\n      tag_15\n      swap2\n      swap1\n      tag_16\n      jump\t// in\n    tag_15:\n      tag_17\n      jump\t// in\n    tag_14:\n      mload(0x40)\n      tag_18\n      swap2\n      swap1\n      tag_19\n      jump\t// in\n    tag_18:\n      mload(0x40)\n      dup1\n      swap2\n      sub\n      swap1\n      return\n        /* \"Election.sol\":740:758  string public name */\n    tag_4:\n      tag_20\n      tag_21\n      jump\t// in\n    tag_20:\n      mload(0x40)\n      tag_22\n      swap2\n      swap1\n      tag_23\n      jump\t// in\n    tag_22:\n      mload(0x40)\n      dup1\n      swap2\n      sub\n      swap1\n      return\n        /* \"Election.sol\":711:733  uint public totalVotes */\n    tag_5:\n      tag_24\n      tag_25\n      jump\t// in\n    tag_24:\n      mload(0x40)\n      tag_26\n      swap2\n      swap1\n      tag_27\n      jump\t// in\n    tag_26:\n      mload(0x40)\n      dup1\n      swap2\n      sub\n      swap1\n      return\n        /* \"Election.sol\":1893:2168  function castVote(uint aadhaar, uint partyIndex) public {\r... */\n    tag_6:\n      tag_28\n      0x04\n      dup1\n      calldatasize\n      sub\n      dup2\n      add\n      swap1\n      tag_29\n      swap2\n      swap1\n      tag_30\n      jump\t// in\n    tag_29:\n      tag_31\n      jump\t// in\n    tag_28:\n      stop\n        /* \"Election.sol\":2349:2477  function getResults() public view returns(uint[] memory){\r... */\n    tag_7:\n      tag_32\n      tag_33\n      jump\t// in\n    tag_32:\n      mload(0x40)\n      tag_34\n      swap2\n      swap1\n      tag_35\n      jump\t// in\n    tag_34:\n      mload(0x40)\n      dup1\n      swap2\n      sub\n      swap1\n      return\n        /* \"Election.sol\":771:793  address public manager */\n    tag_8:\n      tag_36\n      tag_37\n      jump\t// in\n    tag_36:\n      mload(0x40)\n      tag_38\n      swap2\n      swap1\n      tag_39\n      jump\t// in\n    tag_38:\n      mload(0x40)\n      dup1\n      swap2\n      sub\n      swap1\n      return\n        /* \"Election.sol\":2489:2602  function endElection() public restricted {\r... */\n    tag_9:\n      tag_40\n      tag_41\n      jump\t// in\n    tag_40:\n      stop\n        /* \"Election.sol\":2614:2766  function startElection() public restricted {\r... */\n    tag_10:\n      tag_42\n      tag_43\n      jump\t// in\n    tag_42:\n      stop\n        /* \"Election.sol\":1791:1881  function getParties() public view returns(Party[] memory){\r... */\n    tag_11:\n      tag_44\n      tag_45\n      jump\t// in\n    tag_44:\n      mload(0x40)\n      tag_46\n      swap2\n      swap1\n      tag_47\n      jump\t// in\n    tag_46:\n      mload(0x40)\n      dup1\n      swap2\n      sub\n      swap1\n      return\n        /* \"Election.sol\":1359:1779  function addParty(string memory partyName, string memory leaderName, uint membersCount, string memory region) public restricted{\r... */\n    tag_12:\n      tag_48\n      0x04\n      dup1\n      calldatasize\n      sub\n      dup2\n      add\n      swap1\n      tag_49\n      swap2\n      swap1\n      tag_50\n      jump\t// in\n    tag_49:\n      tag_51\n      jump\t// in\n    tag_48:\n      stop\n        /* \"Election.sol\":2180:2337  function getPartyDetails(uint partyIndex) public view returns(Party memory){\r... */\n    tag_17:\n        /* \"Election.sol\":2242:2254  Party memory */\n      tag_52\n      tag_53\n      jump\t// in\n    tag_52:\n        /* \"Election.sol\":2266:2285  Party storage party */\n      0x00\n        /* \"Election.sol\":2287:2294  parties */\n      0x05\n        /* \"Election.sol\":2295:2305  partyIndex */\n      dup4\n        /* \"Election.sol\":2287:2306  parties[partyIndex] */\n      dup2\n      sload\n      dup2\n      lt\n      tag_55\n      jumpi\n      mstore(0x00, 0x4e487b7100000000000000000000000000000000000000000000000000000000)\n      mstore(0x04, 0x32)\n      revert(0x00, 0x24)\n    tag_55:\n      swap1\n      0x00\n      mstore\n      keccak256(0x00, 0x20)\n      swap1\n      0x04\n      mul\n      add\n        /* \"Election.sol\":2266:2306  Party storage party= parties[partyIndex] */\n      swap1\n      pop\n        /* \"Election.sol\":2324:2329  party */\n      dup1\n        /* \"Election.sol\":2317:2329  return party */\n      mload(0x40)\n      dup1\n      0x80\n      add\n      0x40\n      mstore\n      swap1\n      dup2\n      0x00\n      dup3\n      add\n      dup1\n      sload\n      tag_57\n      swap1\n      tag_58\n      jump\t// in\n    tag_57:\n      dup1\n      0x1f\n      add\n      0x20\n      dup1\n      swap2\n      div\n      mul\n      0x20\n      add\n      mload(0x40)\n      swap1\n      dup2\n      add\n      0x40\n      mstore\n      dup1\n      swap3\n      swap2\n      swap1\n      dup2\n      dup2\n      mstore\n      0x20\n      add\n      dup3\n      dup1\n      sload\n      tag_59\n      swap1\n      tag_58\n      jump\t// in\n    tag_59:\n      dup1\n      iszero\n      tag_60\n      jumpi\n      dup1\n      0x1f\n      lt\n      tag_61\n      jumpi\n      0x0100\n      dup1\n      dup4\n      sload\n      div\n      mul\n      dup4\n      mstore\n      swap2\n      0x20\n      add\n      swap2\n      jump(tag_60)\n    tag_61:\n      dup3\n      add\n      swap2\n      swap1\n      0x00\n      mstore\n      keccak256(0x00, 0x20)\n      swap1\n    tag_62:\n      dup2\n      sload\n      dup2\n      mstore\n      swap1\n      0x01\n      add\n      swap1\n      0x20\n      add\n      dup1\n      dup4\n      gt\n      tag_62\n      jumpi\n      dup3\n      swap1\n      sub\n      0x1f\n      and\n      dup3\n      add\n      swap2\n    tag_60:\n      pop\n      pop\n      pop\n      pop\n      pop\n      dup2\n      mstore\n      0x20\n      add\n      0x01\n      dup3\n      add\n      dup1\n      sload\n      tag_63\n      swap1\n      tag_58\n      jump\t// in\n    tag_63:\n      dup1\n      0x1f\n      add\n      0x20\n      dup1\n      swap2\n      div\n      mul\n      0x20\n      add\n      mload(0x40)\n      swap1\n      dup2\n      add\n      0x40\n      mstore\n      dup1\n      swap3\n      swap2\n      swap1\n      dup2\n      dup2\n      mstore\n      0x20\n      add\n      dup3\n      dup1\n      sload\n      tag_64\n      swap1\n      tag_58\n      jump\t// in\n    tag_64:\n      dup1\n      iszero\n      tag_65\n      jumpi\n      dup1\n      0x1f\n      lt\n      tag_66\n      jumpi\n      0x0100\n      dup1\n      dup4\n      sload\n      div\n      mul\n      dup4\n      mstore\n      swap2\n      0x20\n      add\n      swap2\n      jump(tag_65)\n    tag_66:\n      dup3\n      add\n      swap2\n      swap1\n      0x00\n      mstore\n      keccak256(0x00, 0x20)\n      swap1\n    tag_67:\n      dup2\n      sload\n      dup2\n      mstore\n      swap1\n      0x01\n      add\n      swap1\n      0x20\n      add\n      dup1\n      dup4\n      gt\n      tag_67\n      jumpi\n      dup3\n      swap1\n      sub\n      0x1f\n      and\n      dup3\n      add\n      swap2\n    tag_65:\n      pop\n      pop\n      pop\n      pop\n      pop\n      dup2\n      mstore\n      0x20\n      add\n      0x02\n      dup3\n      add\n      sload\n      dup2\n      mstore\n      0x20\n      add\n      0x03\n      dup3\n      add\n      dup1\n      sload\n      tag_68\n      swap1\n      tag_58\n      jump\t// in\n    tag_68:\n      dup1\n      0x1f\n      add\n      0x20\n      dup1\n      swap2\n      div\n      mul\n      0x20\n      add\n      mload(0x40)\n      swap1\n      dup2\n      add\n      0x40\n      mstore\n      dup1\n      swap3\n      swap2\n      swap1\n      dup2\n      dup2\n      mstore\n      0x20\n      add\n      dup3\n      dup1\n      sload\n      tag_69\n      swap1\n      tag_58\n      jump\t// in\n    tag_69:\n      dup1\n      iszero\n      tag_70\n      jumpi\n      dup1\n      0x1f\n      lt\n      tag_71\n      jumpi\n      0x0100\n      dup1\n      dup4\n      sload\n      div\n      mul\n      dup4\n      mstore\n      swap2\n      0x20\n      add\n      swap2\n      jump(tag_70)\n    tag_71:\n      dup3\n      add\n      swap2\n      swap1\n      0x00\n      mstore\n      keccak256(0x00, 0x20)\n      swap1\n    tag_72:\n      dup2\n      sload\n      dup2\n      mstore\n      swap1\n      0x01\n      add\n      swap1\n      0x20\n      add\n      dup1\n      dup4\n      gt\n      tag_72\n      jumpi\n      dup3\n      swap1\n      sub\n      0x1f\n      and\n      dup3\n      add\n      swap2\n    tag_70:\n      pop\n      pop\n      pop\n      pop\n      pop\n      dup2\n      mstore\n      pop\n      pop\n      swap2\n      pop\n      pop\n        /* \"Election.sol\":2180:2337  function getPartyDetails(uint partyIndex) public view returns(Party memory){\r... */\n      swap2\n      swap1\n      pop\n      jump\t// out\n        /* \"Election.sol\":740:758  string public name */\n    tag_21:\n      0x01\n      dup1\n      sload\n      tag_73\n      swap1\n      tag_58\n      jump\t// in\n    tag_73:\n      dup1\n      0x1f\n      add\n      0x20\n      dup1\n      swap2\n      div\n      mul\n      0x20\n      add\n      mload(0x40)\n      swap1\n      dup2\n      add\n      0x40\n      mstore\n      dup1\n      swap3\n      swap2\n      swap1\n      dup2\n      dup2\n      mstore\n      0x20\n      add\n      dup3\n      dup1\n      sload\n      tag_74\n      swap1\n      tag_58\n      jump\t// in\n    tag_74:\n      dup1\n      iszero\n      tag_75\n      jumpi\n      dup1\n      0x1f\n      lt\n      tag_76\n      jumpi\n      0x0100\n      dup1\n      dup4\n      sload\n      div\n      mul\n      dup4\n      mstore\n      swap2\n      0x20\n      add\n      swap2\n      jump(tag_75)\n    tag_76:\n      dup3\n      add\n      swap2\n      swap1\n      0x00\n      mstore\n      keccak256(0x00, 0x20)\n      swap1\n    tag_77:\n      dup2\n      sload\n      dup2\n      mstore\n      swap1\n      0x01\n      add\n      swap1\n      0x20\n      add\n      dup1\n      dup4\n      gt\n      tag_77\n      jumpi\n      dup3\n      swap1\n      sub\n      0x1f\n      and\n      dup3\n      add\n      swap2\n    tag_75:\n      pop\n      pop\n      pop\n      pop\n      pop\n      dup2\n      jump\t// out\n        /* \"Election.sol\":711:733  uint public totalVotes */\n    tag_25:\n      sload(0x00)\n      dup2\n      jump\t// out\n        /* \"Election.sol\":1893:2168  function castVote(uint aadhaar, uint partyIndex) public {\r... */\n    tag_31:\n        /* \"Election.sol\":1979:1983  true */\n      0x01\n        /* \"Election.sol\":1968:1983  isStarted==true */\n      iszero\n      iszero\n        /* \"Election.sol\":1968:1977  isStarted */\n      0x04\n      0x01\n      swap1\n      sload\n      swap1\n      0x0100\n      exp\n      swap1\n      div\n      0xff\n      and\n        /* \"Election.sol\":1968:1983  isStarted==true */\n      iszero\n      iszero\n      eq\n        /* \"Election.sol\":1960:1984  require(isStarted==true) */\n      tag_79\n      jumpi\n      0x00\n      dup1\n      revert\n    tag_79:\n        /* \"Election.sol\":2019:2024  false */\n      0x00\n        /* \"Election.sol\":2003:2024  voted[aadhaar]==false */\n      iszero\n      iszero\n        /* \"Election.sol\":2003:2008  voted */\n      0x03\n        /* \"Election.sol\":2003:2017  voted[aadhaar] */\n      0x00\n        /* \"Election.sol\":2009:2016  aadhaar */\n      dup5\n        /* \"Election.sol\":2003:2017  voted[aadhaar] */\n      dup2\n      mstore\n      0x20\n      add\n      swap1\n      dup2\n      mstore\n      0x20\n      add\n      0x00\n      keccak256\n      0x00\n      swap1\n      sload\n      swap1\n      0x0100\n      exp\n      swap1\n      div\n      0xff\n      and\n        /* \"Election.sol\":2003:2024  voted[aadhaar]==false */\n      iszero\n      iszero\n      eq\n        /* \"Election.sol\":1995:2025  require(voted[aadhaar]==false) */\n      tag_80\n      jumpi\n      0x00\n      dup1\n      revert\n    tag_80:\n        /* \"Election.sol\":2057:2062  false */\n      0x00\n        /* \"Election.sol\":2044:2062  isCompleted==false */\n      iszero\n      iszero\n        /* \"Election.sol\":2044:2055  isCompleted */\n      0x04\n      0x00\n      swap1\n      sload\n      swap1\n      0x0100\n      exp\n      swap1\n      div\n      0xff\n      and\n        /* \"Election.sol\":2044:2062  isCompleted==false */\n      iszero\n      iszero\n      eq\n        /* \"Election.sol\":2036:2063  require(isCompleted==false) */\n      tag_81\n      jumpi\n      0x00\n      dup1\n      revert\n    tag_81:\n        /* \"Election.sol\":2099:2103  true */\n      0x01\n        /* \"Election.sol\":2084:2089  voted */\n      0x03\n        /* \"Election.sol\":2084:2098  voted[aadhaar] */\n      0x00\n        /* \"Election.sol\":2090:2097  aadhaar */\n      dup5\n        /* \"Election.sol\":2084:2098  voted[aadhaar] */\n      dup2\n      mstore\n      0x20\n      add\n      swap1\n      dup2\n      mstore\n      0x20\n      add\n      0x00\n      keccak256\n      0x00\n        /* \"Election.sol\":2084:2103  voted[aadhaar]=true */\n      0x0100\n      exp\n      dup2\n      sload\n      dup2\n      0xff\n      mul\n      not\n      and\n      swap1\n      dup4\n      iszero\n      iszero\n      mul\n      or\n      swap1\n      sstore\n      pop\n        /* \"Election.sol\":2114:2123  voteCount */\n      0x06\n        /* \"Election.sol\":2124:2134  partyIndex */\n      dup2\n        /* \"Election.sol\":2114:2135  voteCount[partyIndex] */\n      dup2\n      sload\n      dup2\n      lt\n      tag_82\n      jumpi\n      mstore(0x00, 0x4e487b7100000000000000000000000000000000000000000000000000000000)\n      mstore(0x04, 0x32)\n      revert(0x00, 0x24)\n    tag_82:\n      swap1\n      0x00\n      mstore\n      keccak256(0x00, 0x20)\n      add\n      0x00\n        /* \"Election.sol\":2114:2137  voteCount[partyIndex]++ */\n      dup2\n      sload\n      dup1\n      swap3\n      swap2\n      swap1\n      tag_84\n      swap1\n      tag_85\n      jump\t// in\n    tag_84:\n      swap2\n      swap1\n      pop\n      sstore\n      pop\n        /* \"Election.sol\":2148:2158  totalVotes */\n      0x00\n      dup1\n        /* \"Election.sol\":2148:2160  totalVotes++ */\n      dup2\n      sload\n      dup1\n      swap3\n      swap2\n      swap1\n      tag_86\n      swap1\n      tag_85\n      jump\t// in\n    tag_86:\n      swap2\n      swap1\n      pop\n      sstore\n      pop\n        /* \"Election.sol\":1893:2168  function castVote(uint aadhaar, uint partyIndex) public {\r... */\n      pop\n      pop\n      jump\t// out\n        /* \"Election.sol\":2349:2477  function getResults() public view returns(uint[] memory){\r... */\n    tag_33:\n        /* \"Election.sol\":2391:2404  uint[] memory */\n      0x60\n        /* \"Election.sol\":2437:2441  true */\n      0x01\n        /* \"Election.sol\":2424:2441  isCompleted==true */\n      iszero\n      iszero\n        /* \"Election.sol\":2424:2435  isCompleted */\n      0x04\n      0x00\n      swap1\n      sload\n      swap1\n      0x0100\n      exp\n      swap1\n      div\n      0xff\n      and\n        /* \"Election.sol\":2424:2441  isCompleted==true */\n      iszero\n      iszero\n      eq\n        /* \"Election.sol\":2416:2442  require(isCompleted==true) */\n      tag_88\n      jumpi\n      0x00\n      dup1\n      revert\n    tag_88:\n        /* \"Election.sol\":2460:2469  voteCount */\n      0x06\n        /* \"Election.sol\":2453:2469  return voteCount */\n      dup1\n      sload\n      dup1\n      0x20\n      mul\n      0x20\n      add\n      mload(0x40)\n      swap1\n      dup2\n      add\n      0x40\n      mstore\n      dup1\n      swap3\n      swap2\n      swap1\n      dup2\n      dup2\n      mstore\n      0x20\n      add\n      dup3\n      dup1\n      sload\n      dup1\n      iszero\n      tag_89\n      jumpi\n      0x20\n      mul\n      dup3\n      add\n      swap2\n      swap1\n      0x00\n      mstore\n      keccak256(0x00, 0x20)\n      swap1\n    tag_90:\n      dup2\n      sload\n      dup2\n      mstore\n      0x20\n      add\n      swap1\n      0x01\n      add\n      swap1\n      dup1\n      dup4\n      gt\n      tag_90\n      jumpi\n    tag_89:\n      pop\n      pop\n      pop\n      pop\n      pop\n      swap1\n      pop\n        /* \"Election.sol\":2349:2477  function getResults() public view returns(uint[] memory){\r... */\n      swap1\n      jump\t// out\n        /* \"Election.sol\":771:793  address public manager */\n    tag_37:\n      0x02\n      0x00\n      swap1\n      sload\n      swap1\n      0x0100\n      exp\n      swap1\n      div\n      0xffffffffffffffffffffffffffffffffffffffff\n      and\n      dup2\n      jump\t// out\n        /* \"Election.sol\":2489:2602  function endElection() public restricted {\r... */\n    tag_41:\n        /* \"Election.sol\":945:952  manager */\n      0x02\n      0x00\n      swap1\n      sload\n      swap1\n      0x0100\n      exp\n      swap1\n      div\n      0xffffffffffffffffffffffffffffffffffffffff\n      and\n        /* \"Election.sol\":931:952  msg.sender == manager */\n      0xffffffffffffffffffffffffffffffffffffffff\n      and\n        /* \"Election.sol\":931:941  msg.sender */\n      caller\n        /* \"Election.sol\":931:952  msg.sender == manager */\n      0xffffffffffffffffffffffffffffffffffffffff\n      and\n      eq\n        /* \"Election.sol\":923:953  require(msg.sender == manager) */\n      tag_92\n      jumpi\n      0x00\n      dup1\n      revert\n    tag_92:\n        /* \"Election.sol\":2560:2564  true */\n      0x01\n        /* \"Election.sol\":2549:2564  isStarted==true */\n      iszero\n      iszero\n        /* \"Election.sol\":2549:2558  isStarted */\n      0x04\n      0x01\n      swap1\n      sload\n      swap1\n      0x0100\n      exp\n      swap1\n      div\n      0xff\n      and\n        /* \"Election.sol\":2549:2564  isStarted==true */\n      iszero\n      iszero\n      eq\n        /* \"Election.sol\":2541:2565  require(isStarted==true) */\n      tag_94\n      jumpi\n      0x00\n      dup1\n      revert\n    tag_94:\n        /* \"Election.sol\":2590:2594  true */\n      0x01\n        /* \"Election.sol\":2576:2587  isCompleted */\n      0x04\n      0x00\n        /* \"Election.sol\":2576:2594  isCompleted = true */\n      0x0100\n      exp\n      dup2\n      sload\n      dup2\n      0xff\n      mul\n      not\n      and\n      swap1\n      dup4\n      iszero\n      iszero\n      mul\n      or\n      swap1\n      sstore\n      pop\n        /* \"Election.sol\":2489:2602  function endElection() public restricted {\r... */\n      jump\t// out\n        /* \"Election.sol\":2614:2766  function startElection() public restricted {\r... */\n    tag_43:\n        /* \"Election.sol\":945:952  manager */\n      0x02\n      0x00\n      swap1\n      sload\n      swap1\n      0x0100\n      exp\n      swap1\n      div\n      0xffffffffffffffffffffffffffffffffffffffff\n      and\n        /* \"Election.sol\":931:952  msg.sender == manager */\n      0xffffffffffffffffffffffffffffffffffffffff\n      and\n        /* \"Election.sol\":931:941  msg.sender */\n      caller\n        /* \"Election.sol\":931:952  msg.sender == manager */\n      0xffffffffffffffffffffffffffffffffffffffff\n      and\n      eq\n        /* \"Election.sol\":923:953  require(msg.sender == manager) */\n      tag_96\n      jumpi\n      0x00\n      dup1\n      revert\n    tag_96:\n        /* \"Election.sol\":2689:2694  false */\n      0x00\n        /* \"Election.sol\":2676:2694  isCompleted==false */\n      iszero\n      iszero\n        /* \"Election.sol\":2676:2687  isCompleted */\n      0x04\n      0x00\n      swap1\n      sload\n      swap1\n      0x0100\n      exp\n      swap1\n      div\n      0xff\n      and\n        /* \"Election.sol\":2676:2694  isCompleted==false */\n      iszero\n      iszero\n      eq\n        /* \"Election.sol\":2668:2695  require(isCompleted==false) */\n      tag_98\n      jumpi\n      0x00\n      dup1\n      revert\n    tag_98:\n        /* \"Election.sol\":2725:2730  false */\n      0x00\n        /* \"Election.sol\":2714:2730  isStarted==false */\n      iszero\n      iszero\n        /* \"Election.sol\":2714:2723  isStarted */\n      0x04\n      0x01\n      swap1\n      sload\n      swap1\n      0x0100\n      exp\n      swap1\n      div\n      0xff\n      and\n        /* \"Election.sol\":2714:2730  isStarted==false */\n      iszero\n      iszero\n      eq\n        /* \"Election.sol\":2706:2731  require(isStarted==false) */\n      tag_99\n      jumpi\n      0x00\n      dup1\n      revert\n    tag_99:\n        /* \"Election.sol\":2754:2758  true */\n      0x01\n        /* \"Election.sol\":2742:2751  isStarted */\n      0x04\n      0x01\n        /* \"Election.sol\":2742:2758  isStarted = true */\n      0x0100\n      exp\n      dup2\n      sload\n      dup2\n      0xff\n      mul\n      not\n      and\n      swap1\n      dup4\n      iszero\n      iszero\n      mul\n      or\n      swap1\n      sstore\n      pop\n        /* \"Election.sol\":2614:2766  function startElection() public restricted {\r... */\n      jump\t// out\n        /* \"Election.sol\":1791:1881  function getParties() public view returns(Party[] memory){\r... */\n    tag_45:\n        /* \"Election.sol\":1833:1847  Party[] memory */\n      0x60\n        /* \"Election.sol\":1866:1873  parties */\n      0x05\n        /* \"Election.sol\":1859:1873  return parties */\n      dup1\n      sload\n      dup1\n      0x20\n      mul\n      0x20\n      add\n      mload(0x40)\n      swap1\n      dup2\n      add\n      0x40\n      mstore\n      dup1\n      swap3\n      swap2\n      swap1\n      dup2\n      dup2\n      mstore\n      0x20\n      add\n      0x00\n      swap1\n    tag_101:\n      dup3\n      dup3\n      lt\n      iszero\n      tag_102\n      jumpi\n      dup4\n      dup3\n      swap1\n      0x00\n      mstore\n      keccak256(0x00, 0x20)\n      swap1\n      0x04\n      mul\n      add\n      mload(0x40)\n      dup1\n      0x80\n      add\n      0x40\n      mstore\n      swap1\n      dup2\n      0x00\n      dup3\n      add\n      dup1\n      sload\n      tag_104\n      swap1\n      tag_58\n      jump\t// in\n    tag_104:\n      dup1\n      0x1f\n      add\n      0x20\n      dup1\n      swap2\n      div\n      mul\n      0x20\n      add\n      mload(0x40)\n      swap1\n      dup2\n      add\n      0x40\n      mstore\n      dup1\n      swap3\n      swap2\n      swap1\n      dup2\n      dup2\n      mstore\n      0x20\n      add\n      dup3\n      dup1\n      sload\n      tag_105\n      swap1\n      tag_58\n      jump\t// in\n    tag_105:\n      dup1\n      iszero\n      tag_106\n      jumpi\n      dup1\n      0x1f\n      lt\n      tag_107\n      jumpi\n      0x0100\n      dup1\n      dup4\n      sload\n      div\n      mul\n      dup4\n      mstore\n      swap2\n      0x20\n      add\n      swap2\n      jump(tag_106)\n    tag_107:\n      dup3\n      add\n      swap2\n      swap1\n      0x00\n      mstore\n      keccak256(0x00, 0x20)\n      swap1\n    tag_108:\n      dup2\n      sload\n      dup2\n      mstore\n      swap1\n      0x01\n      add\n      swap1\n      0x20\n      add\n      dup1\n      dup4\n      gt\n      tag_108\n      jumpi\n      dup3\n      swap1\n      sub\n      0x1f\n      and\n      dup3\n      add\n      swap2\n    tag_106:\n      pop\n      pop\n      pop\n      pop\n      pop\n      dup2\n      mstore\n      0x20\n      add\n      0x01\n      dup3\n      add\n      dup1\n      sload\n      tag_109\n      swap1\n      tag_58\n      jump\t// in\n    tag_109:\n      dup1\n      0x1f\n      add\n      0x20\n      dup1\n      swap2\n      div\n      mul\n      0x20\n      add\n      mload(0x40)\n      swap1\n      dup2\n      add\n      0x40\n      mstore\n      dup1\n      swap3\n      swap2\n      swap1\n      dup2\n      dup2\n      mstore\n      0x20\n      add\n      dup3\n      dup1\n      sload\n      tag_110\n      swap1\n      tag_58\n      jump\t// in\n    tag_110:\n      dup1\n      iszero\n      tag_111\n      jumpi\n      dup1\n      0x1f\n      lt\n      tag_112\n      jumpi\n      0x0100\n      dup1\n      dup4\n      sload\n      div\n      mul\n      dup4\n      mstore\n      swap2\n      0x20\n      add\n      swap2\n      jump(tag_111)\n    tag_112:\n      dup3\n      add\n      swap2\n      swap1\n      0x00\n      mstore\n      keccak256(0x00, 0x20)\n      swap1\n    tag_113:\n      dup2\n      sload\n      dup2\n      mstore\n      swap1\n      0x01\n      add\n      swap1\n      0x20\n      add\n      dup1\n      dup4\n      gt\n      tag_113\n      jumpi\n      dup3\n      swap1\n      sub\n      0x1f\n      and\n      dup3\n      add\n      swap2\n    tag_111:\n      pop\n      pop\n      pop\n      pop\n      pop\n      dup2\n      mstore\n      0x20\n      add\n      0x02\n      dup3\n      add\n      sload\n      dup2\n      mstore\n      0x20\n      add\n      0x03\n      dup3\n      add\n      dup1\n      sload\n      tag_114\n      swap1\n      tag_58\n      jump\t// in\n    tag_114:\n      dup1\n      0x1f\n      add\n      0x20\n      dup1\n      swap2\n      div\n      mul\n      0x20\n      add\n      mload(0x40)\n      swap1\n      dup2\n      add\n      0x40\n      mstore\n      dup1\n      swap3\n      swap2\n      swap1\n      dup2\n      dup2\n      mstore\n      0x20\n      add\n      dup3\n      dup1\n      sload\n      tag_115\n      swap1\n      tag_58\n      jump\t// in\n    tag_115:\n      dup1\n      iszero\n      tag_116\n      jumpi\n      dup1\n      0x1f\n      lt\n      tag_117\n      jumpi\n      0x0100\n      dup1\n      dup4\n      sload\n      div\n      mul\n      dup4\n      mstore\n      swap2\n      0x20\n      add\n      swap2\n      jump(tag_116)\n    tag_117:\n      dup3\n      add\n      swap2\n      swap1\n      0x00\n      mstore\n      keccak256(0x00, 0x20)\n      swap1\n    tag_118:\n      dup2\n      sload\n      dup2\n      mstore\n      swap1\n      0x01\n      add\n      swap1\n      0x20\n      add\n      dup1\n      dup4\n      gt\n      tag_118\n      jumpi\n      dup3\n      swap1\n      sub\n      0x1f\n      and\n      dup3\n      add\n      swap2\n    tag_116:\n      pop\n      pop\n      pop\n      pop\n      pop\n      dup2\n      mstore\n      pop\n      pop\n      dup2\n      mstore\n      0x20\n      add\n      swap1\n      0x01\n      add\n      swap1\n      jump(tag_101)\n    tag_102:\n      pop\n      pop\n      pop\n      pop\n      swap1\n      pop\n        /* \"Election.sol\":1791:1881  function getParties() public view returns(Party[] memory){\r... */\n      swap1\n      jump\t// out\n        /* \"Election.sol\":1359:1779  function addParty(string memory partyName, string memory leaderName, uint membersCount, string memory region) public restricted{\r... */\n    tag_51:\n        /* \"Election.sol\":945:952  manager */\n      0x02\n      0x00\n      swap1\n      sload\n      swap1\n      0x0100\n      exp\n      swap1\n      div\n      0xffffffffffffffffffffffffffffffffffffffff\n      and\n        /* \"Election.sol\":931:952  msg.sender == manager */\n      0xffffffffffffffffffffffffffffffffffffffff\n      and\n        /* \"Election.sol\":931:941  msg.sender */\n      caller\n        /* \"Election.sol\":931:952  msg.sender == manager */\n      0xffffffffffffffffffffffffffffffffffffffff\n      and\n      eq\n        /* \"Election.sol\":923:953  require(msg.sender == manager) */\n      tag_120\n      jumpi\n      0x00\n      dup1\n      revert\n    tag_120:\n        /* \"Election.sol\":1506:1515  isStarted */\n      0x04\n      0x01\n      swap1\n      sload\n      swap1\n      0x0100\n      exp\n      swap1\n      div\n      0xff\n      and\n        /* \"Election.sol\":1505:1515  !isStarted */\n      iszero\n        /* \"Election.sol\":1497:1516  require(!isStarted) */\n      tag_122\n      jumpi\n      0x00\n      dup1\n      revert\n    tag_122:\n        /* \"Election.sol\":1527:1545  Party memory party */\n      0x00\n        /* \"Election.sol\":1548:1703  Party({\r... */\n      mload(0x40)\n      dup1\n      0x80\n      add\n      0x40\n      mstore\n      dup1\n        /* \"Election.sol\":1575:1584  partyName */\n      dup7\n        /* \"Election.sol\":1548:1703  Party({\r... */\n      dup2\n      mstore\n      0x20\n      add\n        /* \"Election.sol\":1611:1621  leaderName */\n      dup6\n        /* \"Election.sol\":1548:1703  Party({\r... */\n      dup2\n      mstore\n      0x20\n      add\n        /* \"Election.sol\":1650:1662  membersCount */\n      dup5\n        /* \"Election.sol\":1548:1703  Party({\r... */\n      dup2\n      mstore\n      0x20\n      add\n        /* \"Election.sol\":1685:1691  region */\n      dup4\n        /* \"Election.sol\":1548:1703  Party({\r... */\n      dup2\n      mstore\n      pop\n        /* \"Election.sol\":1527:1703  Party memory party = Party({\r... */\n      swap1\n      pop\n        /* \"Election.sol\":1724:1731  parties */\n      0x05\n        /* \"Election.sol\":1737:1742  party */\n      dup2\n        /* \"Election.sol\":1724:1743  parties.push(party) */\n      swap1\n      dup1\n      0x01\n      dup2\n      sload\n      add\n      dup1\n      dup3\n      sstore\n      dup1\n      swap2\n      pop\n      pop\n      0x01\n      swap1\n      sub\n      swap1\n      0x00\n      mstore\n      keccak256(0x00, 0x20)\n      swap1\n      0x04\n      mul\n      add\n      0x00\n      swap1\n      swap2\n      swap1\n      swap2\n      swap1\n      swap2\n      pop\n      0x00\n      dup3\n      add\n      mload\n      dup2\n      0x00\n      add\n      swap1\n      dup1\n      mload\n      swap1\n      0x20\n      add\n      swap1\n      tag_124\n      swap3\n      swap2\n      swap1\n      tag_125\n      jump\t// in\n    tag_124:\n      pop\n      0x20\n      dup3\n      add\n      mload\n      dup2\n      0x01\n      add\n      swap1\n      dup1\n      mload\n      swap1\n      0x20\n      add\n      swap1\n      tag_126\n      swap3\n      swap2\n      swap1\n      tag_125\n      jump\t// in\n    tag_126:\n      pop\n      0x40\n      dup3\n      add\n      mload\n      dup2\n      0x02\n      add\n      sstore\n      0x60\n      dup3\n      add\n      mload\n      dup2\n      0x03\n      add\n      swap1\n      dup1\n      mload\n      swap1\n      0x20\n      add\n      swap1\n      tag_127\n      swap3\n      swap2\n      swap1\n      tag_125\n      jump\t// in\n    tag_127:\n      pop\n      pop\n      pop\n        /* \"Election.sol\":1754:1763  voteCount */\n      0x06\n        /* \"Election.sol\":1769:1770  0 */\n      0x00\n        /* \"Election.sol\":1754:1771  voteCount.push(0) */\n      swap1\n      dup1\n      0x01\n      dup2\n      sload\n      add\n      dup1\n      dup3\n      sstore\n      dup1\n      swap2\n      pop\n      pop\n      0x01\n      swap1\n      sub\n      swap1\n      0x00\n      mstore\n      keccak256(0x00, 0x20)\n      add\n      0x00\n      swap1\n      swap2\n      swap1\n      swap2\n      swap1\n      swap2\n      pop\n      sstore\n        /* \"Election.sol\":964:965  _ */\n      pop\n        /* \"Election.sol\":1359:1779  function addParty(string memory partyName, string memory leaderName, uint membersCount, string memory region) public restricted{\r... */\n      pop\n      pop\n      pop\n      pop\n      jump\t// out\n    tag_53:\n      mload(0x40)\n      dup1\n      0x80\n      add\n      0x40\n      mstore\n      dup1\n      0x60\n      dup2\n      mstore\n      0x20\n      add\n      0x60\n      dup2\n      mstore\n      0x20\n      add\n      0x00\n      dup2\n      mstore\n      0x20\n      add\n      0x60\n      dup2\n      mstore\n      pop\n      swap1\n      jump\t// out\n    tag_125:\n      dup3\n      dup1\n      sload\n      tag_129\n      swap1\n      tag_58\n      jump\t// in\n    tag_129:\n      swap1\n      0x00\n      mstore\n      keccak256(0x00, 0x20)\n      swap1\n      0x1f\n      add\n      0x20\n      swap1\n      div\n      dup2\n      add\n      swap3\n      dup3\n      tag_131\n      jumpi\n      0x00\n      dup6\n      sstore\n      jump(tag_130)\n    tag_131:\n      dup3\n      0x1f\n      lt\n      tag_132\n      jumpi\n      dup1\n      mload\n      not(0xff)\n      and\n      dup4\n      dup1\n      add\n      or\n      dup6\n      sstore\n      jump(tag_130)\n    tag_132:\n      dup3\n      dup1\n      add\n      0x01\n      add\n      dup6\n      sstore\n      dup3\n      iszero\n      tag_130\n      jumpi\n      swap2\n      dup3\n      add\n    tag_133:\n      dup3\n      dup2\n      gt\n      iszero\n      tag_134\n      jumpi\n      dup3\n      mload\n      dup3\n      sstore\n      swap2\n      0x20\n      add\n      swap2\n      swap1\n      0x01\n      add\n      swap1\n      jump(tag_133)\n    tag_134:\n    tag_130:\n      pop\n      swap1\n      pop\n      tag_135\n      swap2\n      swap1\n      tag_136\n      jump\t// in\n    tag_135:\n      pop\n      swap1\n      jump\t// out\n    tag_136:\n    tag_137:\n      dup1\n      dup3\n      gt\n      iszero\n      tag_138\n      jumpi\n      0x00\n      dup2\n      0x00\n      swap1\n      sstore\n      pop\n      0x01\n      add\n      jump(tag_137)\n    tag_138:\n      pop\n      swap1\n      jump\t// out\n        /* \"#utility.yul\":7:352   */\n    tag_140:\n      0x00\n        /* \"#utility.yul\":110:176   */\n      tag_142\n        /* \"#utility.yul\":126:175   */\n      tag_143\n        /* \"#utility.yul\":168:174   */\n      dup5\n        /* \"#utility.yul\":126:175   */\n      tag_144\n      jump\t// in\n    tag_143:\n        /* \"#utility.yul\":110:176   */\n      tag_145\n      jump\t// in\n    tag_142:\n        /* \"#utility.yul\":101:176   */\n      swap1\n      pop\n        /* \"#utility.yul\":199:205   */\n      dup3\n        /* \"#utility.yul\":192:197   */\n      dup2\n        /* \"#utility.yul\":185:206   */\n      mstore\n        /* \"#utility.yul\":237:241   */\n      0x20\n        /* \"#utility.yul\":230:235   */\n      dup2\n        /* \"#utility.yul\":226:242   */\n      add\n        /* \"#utility.yul\":275:278   */\n      dup5\n        /* \"#utility.yul\":266:272   */\n      dup5\n        /* \"#utility.yul\":261:264   */\n      dup5\n        /* \"#utility.yul\":257:273   */\n      add\n        /* \"#utility.yul\":254:279   */\n      gt\n        /* \"#utility.yul\":251:253   */\n      iszero\n      tag_146\n      jumpi\n        /* \"#utility.yul\":292:293   */\n      0x00\n        /* \"#utility.yul\":289:290   */\n      dup1\n        /* \"#utility.yul\":282:294   */\n      revert\n        /* \"#utility.yul\":251:253   */\n    tag_146:\n        /* \"#utility.yul\":305:346   */\n      tag_147\n        /* \"#utility.yul\":339:345   */\n      dup5\n        /* \"#utility.yul\":334:337   */\n      dup3\n        /* \"#utility.yul\":329:332   */\n      dup6\n        /* \"#utility.yul\":305:346   */\n      tag_148\n      jump\t// in\n    tag_147:\n        /* \"#utility.yul\":91:352   */\n      pop\n      swap4\n      swap3\n      pop\n      pop\n      pop\n      jump\t// out\n        /* \"#utility.yul\":372:645   */\n    tag_149:\n      0x00\n        /* \"#utility.yul\":477:480   */\n      dup3\n        /* \"#utility.yul\":470:474   */\n      0x1f\n        /* \"#utility.yul\":462:468   */\n      dup4\n        /* \"#utility.yul\":458:475   */\n      add\n        /* \"#utility.yul\":454:481   */\n      slt\n        /* \"#utility.yul\":444:446   */\n      tag_151\n      jumpi\n        /* \"#utility.yul\":495:496   */\n      0x00\n        /* \"#utility.yul\":492:493   */\n      dup1\n        /* \"#utility.yul\":485:497   */\n      revert\n        /* \"#utility.yul\":444:446   */\n    tag_151:\n        /* \"#utility.yul\":535:541   */\n      dup2\n        /* \"#utility.yul\":522:542   */\n      calldataload\n        /* \"#utility.yul\":560:639   */\n      tag_152\n        /* \"#utility.yul\":635:638   */\n      dup5\n        /* \"#utility.yul\":627:633   */\n      dup3\n        /* \"#utility.yul\":620:624   */\n      0x20\n        /* \"#utility.yul\":612:618   */\n      dup7\n        /* \"#utility.yul\":608:625   */\n      add\n        /* \"#utility.yul\":560:639   */\n      tag_140\n      jump\t// in\n    tag_152:\n        /* \"#utility.yul\":551:639   */\n      swap2\n      pop\n        /* \"#utility.yul\":434:645   */\n      pop\n      swap3\n      swap2\n      pop\n      pop\n      jump\t// out\n        /* \"#utility.yul\":651:790   */\n    tag_153:\n      0x00\n        /* \"#utility.yul\":735:741   */\n      dup2\n        /* \"#utility.yul\":722:742   */\n      calldataload\n        /* \"#utility.yul\":713:742   */\n      swap1\n      pop\n        /* \"#utility.yul\":751:784   */\n      tag_155\n        /* \"#utility.yul\":778:783   */\n      dup2\n        /* \"#utility.yul\":751:784   */\n      tag_156\n      jump\t// in\n    tag_155:\n        /* \"#utility.yul\":703:790   */\n      swap3\n      swap2\n      pop\n      pop\n      jump\t// out\n        /* \"#utility.yul\":796:1833   */\n    tag_50:\n      0x00\n      dup1\n      0x00\n      dup1\n        /* \"#utility.yul\":985:988   */\n      0x80\n        /* \"#utility.yul\":973:982   */\n      dup6\n        /* \"#utility.yul\":964:971   */\n      dup8\n        /* \"#utility.yul\":960:983   */\n      sub\n        /* \"#utility.yul\":956:989   */\n      slt\n        /* \"#utility.yul\":953:955   */\n      iszero\n      tag_158\n      jumpi\n        /* \"#utility.yul\":1002:1003   */\n      0x00\n        /* \"#utility.yul\":999:1000   */\n      dup1\n        /* \"#utility.yul\":992:1004   */\n      revert\n        /* \"#utility.yul\":953:955   */\n    tag_158:\n        /* \"#utility.yul\":1073:1074   */\n      0x00\n        /* \"#utility.yul\":1062:1071   */\n      dup6\n        /* \"#utility.yul\":1058:1075   */\n      add\n        /* \"#utility.yul\":1045:1076   */\n      calldataload\n        /* \"#utility.yul\":1103:1121   */\n      0xffffffffffffffff\n        /* \"#utility.yul\":1095:1101   */\n      dup2\n        /* \"#utility.yul\":1092:1122   */\n      gt\n        /* \"#utility.yul\":1089:1091   */\n      iszero\n      tag_159\n      jumpi\n        /* \"#utility.yul\":1135:1136   */\n      0x00\n        /* \"#utility.yul\":1132:1133   */\n      dup1\n        /* \"#utility.yul\":1125:1137   */\n      revert\n        /* \"#utility.yul\":1089:1091   */\n    tag_159:\n        /* \"#utility.yul\":1163:1226   */\n      tag_160\n        /* \"#utility.yul\":1218:1225   */\n      dup8\n        /* \"#utility.yul\":1209:1215   */\n      dup3\n        /* \"#utility.yul\":1198:1207   */\n      dup9\n        /* \"#utility.yul\":1194:1216   */\n      add\n        /* \"#utility.yul\":1163:1226   */\n      tag_149\n      jump\t// in\n    tag_160:\n        /* \"#utility.yul\":1153:1226   */\n      swap5\n      pop\n        /* \"#utility.yul\":1016:1236   */\n      pop\n        /* \"#utility.yul\":1303:1305   */\n      0x20\n        /* \"#utility.yul\":1292:1301   */\n      dup6\n        /* \"#utility.yul\":1288:1306   */\n      add\n        /* \"#utility.yul\":1275:1307   */\n      calldataload\n        /* \"#utility.yul\":1334:1352   */\n      0xffffffffffffffff\n        /* \"#utility.yul\":1326:1332   */\n      dup2\n        /* \"#utility.yul\":1323:1353   */\n      gt\n        /* \"#utility.yul\":1320:1322   */\n      iszero\n      tag_161\n      jumpi\n        /* \"#utility.yul\":1366:1367   */\n      0x00\n        /* \"#utility.yul\":1363:1364   */\n      dup1\n        /* \"#utility.yul\":1356:1368   */\n      revert\n        /* \"#utility.yul\":1320:1322   */\n    tag_161:\n        /* \"#utility.yul\":1394:1457   */\n      tag_162\n        /* \"#utility.yul\":1449:1456   */\n      dup8\n        /* \"#utility.yul\":1440:1446   */\n      dup3\n        /* \"#utility.yul\":1429:1438   */\n      dup9\n        /* \"#utility.yul\":1425:1447   */\n      add\n        /* \"#utility.yul\":1394:1457   */\n      tag_149\n      jump\t// in\n    tag_162:\n        /* \"#utility.yul\":1384:1457   */\n      swap4\n      pop\n        /* \"#utility.yul\":1246:1467   */\n      pop\n        /* \"#utility.yul\":1506:1508   */\n      0x40\n        /* \"#utility.yul\":1532:1585   */\n      tag_163\n        /* \"#utility.yul\":1577:1584   */\n      dup8\n        /* \"#utility.yul\":1568:1574   */\n      dup3\n        /* \"#utility.yul\":1557:1566   */\n      dup9\n        /* \"#utility.yul\":1553:1575   */\n      add\n        /* \"#utility.yul\":1532:1585   */\n      tag_153\n      jump\t// in\n    tag_163:\n        /* \"#utility.yul\":1522:1585   */\n      swap3\n      pop\n        /* \"#utility.yul\":1477:1595   */\n      pop\n        /* \"#utility.yul\":1662:1664   */\n      0x60\n        /* \"#utility.yul\":1651:1660   */\n      dup6\n        /* \"#utility.yul\":1647:1665   */\n      add\n        /* \"#utility.yul\":1634:1666   */\n      calldataload\n        /* \"#utility.yul\":1693:1711   */\n      0xffffffffffffffff\n        /* \"#utility.yul\":1685:1691   */\n      dup2\n        /* \"#utility.yul\":1682:1712   */\n      gt\n        /* \"#utility.yul\":1679:1681   */\n      iszero\n      tag_164\n      jumpi\n        /* \"#utility.yul\":1725:1726   */\n      0x00\n        /* \"#utility.yul\":1722:1723   */\n      dup1\n        /* \"#utility.yul\":1715:1727   */\n      revert\n        /* \"#utility.yul\":1679:1681   */\n    tag_164:\n        /* \"#utility.yul\":1753:1816   */\n      tag_165\n        /* \"#utility.yul\":1808:1815   */\n      dup8\n        /* \"#utility.yul\":1799:1805   */\n      dup3\n        /* \"#utility.yul\":1788:1797   */\n      dup9\n        /* \"#utility.yul\":1784:1806   */\n      add\n        /* \"#utility.yul\":1753:1816   */\n      tag_149\n      jump\t// in\n    tag_165:\n        /* \"#utility.yul\":1743:1816   */\n      swap2\n      pop\n        /* \"#utility.yul\":1605:1826   */\n      pop\n        /* \"#utility.yul\":943:1833   */\n      swap3\n      swap6\n      swap2\n      swap5\n      pop\n      swap3\n      pop\n      jump\t// out\n        /* \"#utility.yul\":1839:2101   */\n    tag_16:\n      0x00\n        /* \"#utility.yul\":1947:1949   */\n      0x20\n        /* \"#utility.yul\":1935:1944   */\n      dup3\n        /* \"#utility.yul\":1926:1933   */\n      dup5\n        /* \"#utility.yul\":1922:1945   */\n      sub\n        /* \"#utility.yul\":1918:1950   */\n      slt\n        /* \"#utility.yul\":1915:1917   */\n      iszero\n      tag_167\n      jumpi\n        /* \"#utility.yul\":1963:1964   */\n      0x00\n        /* \"#utility.yul\":1960:1961   */\n      dup1\n        /* \"#utility.yul\":1953:1965   */\n      revert\n        /* \"#utility.yul\":1915:1917   */\n    tag_167:\n        /* \"#utility.yul\":2006:2007   */\n      0x00\n        /* \"#utility.yul\":2031:2084   */\n      tag_168\n        /* \"#utility.yul\":2076:2083   */\n      dup5\n        /* \"#utility.yul\":2067:2073   */\n      dup3\n        /* \"#utility.yul\":2056:2065   */\n      dup6\n        /* \"#utility.yul\":2052:2074   */\n      add\n        /* \"#utility.yul\":2031:2084   */\n      tag_153\n      jump\t// in\n    tag_168:\n        /* \"#utility.yul\":2021:2084   */\n      swap2\n      pop\n        /* \"#utility.yul\":1977:2094   */\n      pop\n        /* \"#utility.yul\":1905:2101   */\n      swap3\n      swap2\n      pop\n      pop\n      jump\t// out\n        /* \"#utility.yul\":2107:2514   */\n    tag_30:\n      0x00\n      dup1\n        /* \"#utility.yul\":2232:2234   */\n      0x40\n        /* \"#utility.yul\":2220:2229   */\n      dup4\n        /* \"#utility.yul\":2211:2218   */\n      dup6\n        /* \"#utility.yul\":2207:2230   */\n      sub\n        /* \"#utility.yul\":2203:2235   */\n      slt\n        /* \"#utility.yul\":2200:2202   */\n      iszero\n      tag_170\n      jumpi\n        /* \"#utility.yul\":2248:2249   */\n      0x00\n        /* \"#utility.yul\":2245:2246   */\n      dup1\n        /* \"#utility.yul\":2238:2250   */\n      revert\n        /* \"#utility.yul\":2200:2202   */\n    tag_170:\n        /* \"#utility.yul\":2291:2292   */\n      0x00\n        /* \"#utility.yul\":2316:2369   */\n      tag_171\n        /* \"#utility.yul\":2361:2368   */\n      dup6\n        /* \"#utility.yul\":2352:2358   */\n      dup3\n        /* \"#utility.yul\":2341:2350   */\n      dup7\n        /* \"#utility.yul\":2337:2359   */\n      add\n        /* \"#utility.yul\":2316:2369   */\n      tag_153\n      jump\t// in\n    tag_171:\n        /* \"#utility.yul\":2306:2369   */\n      swap3\n      pop\n        /* \"#utility.yul\":2262:2379   */\n      pop\n        /* \"#utility.yul\":2418:2420   */\n      0x20\n        /* \"#utility.yul\":2444:2497   */\n      tag_172\n        /* \"#utility.yul\":2489:2496   */\n      dup6\n        /* \"#utility.yul\":2480:2486   */\n      dup3\n        /* \"#utility.yul\":2469:2478   */\n      dup7\n        /* \"#utility.yul\":2465:2487   */\n      add\n        /* \"#utility.yul\":2444:2497   */\n      tag_153\n      jump\t// in\n    tag_172:\n        /* \"#utility.yul\":2434:2497   */\n      swap2\n      pop\n        /* \"#utility.yul\":2389:2507   */\n      pop\n        /* \"#utility.yul\":2190:2514   */\n      swap3\n      pop\n      swap3\n      swap1\n      pop\n      jump\t// out\n        /* \"#utility.yul\":2520:2764   */\n    tag_173:\n      0x00\n        /* \"#utility.yul\":2668:2758   */\n      tag_175\n        /* \"#utility.yul\":2754:2757   */\n      dup4\n        /* \"#utility.yul\":2746:2752   */\n      dup4\n        /* \"#utility.yul\":2668:2758   */\n      tag_176\n      jump\t// in\n    tag_175:\n        /* \"#utility.yul\":2654:2758   */\n      swap1\n      pop\n        /* \"#utility.yul\":2644:2764   */\n      swap3\n      swap2\n      pop\n      pop\n      jump\t// out\n        /* \"#utility.yul\":2770:2949   */\n    tag_177:\n      0x00\n        /* \"#utility.yul\":2860:2906   */\n      tag_179\n        /* \"#utility.yul\":2902:2905   */\n      dup4\n        /* \"#utility.yul\":2894:2900   */\n      dup4\n        /* \"#utility.yul\":2860:2906   */\n      tag_180\n      jump\t// in\n    tag_179:\n        /* \"#utility.yul\":2938:2942   */\n      0x20\n        /* \"#utility.yul\":2933:2936   */\n      dup4\n        /* \"#utility.yul\":2929:2943   */\n      add\n        /* \"#utility.yul\":2915:2943   */\n      swap1\n      pop\n        /* \"#utility.yul\":2850:2949   */\n      swap3\n      swap2\n      pop\n      pop\n      jump\t// out\n        /* \"#utility.yul\":2955:3073   */\n    tag_181:\n        /* \"#utility.yul\":3042:3066   */\n      tag_183\n        /* \"#utility.yul\":3060:3065   */\n      dup2\n        /* \"#utility.yul\":3042:3066   */\n      tag_184\n      jump\t// in\n    tag_183:\n        /* \"#utility.yul\":3037:3040   */\n      dup3\n        /* \"#utility.yul\":3030:3067   */\n      mstore\n        /* \"#utility.yul\":3020:3073   */\n      pop\n      pop\n      jump\t// out\n        /* \"#utility.yul\":3137:4224   */\n    tag_185:\n      0x00\n        /* \"#utility.yul\":3329:3405   */\n      tag_187\n        /* \"#utility.yul\":3399:3404   */\n      dup3\n        /* \"#utility.yul\":3329:3405   */\n      tag_188\n      jump\t// in\n    tag_187:\n        /* \"#utility.yul\":3421:3529   */\n      tag_189\n        /* \"#utility.yul\":3522:3528   */\n      dup2\n        /* \"#utility.yul\":3517:3520   */\n      dup6\n        /* \"#utility.yul\":3421:3529   */\n      tag_190\n      jump\t// in\n    tag_189:\n        /* \"#utility.yul\":3414:3529   */\n      swap4\n      pop\n        /* \"#utility.yul\":3555:3558   */\n      dup4\n        /* \"#utility.yul\":3600:3604   */\n      0x20\n        /* \"#utility.yul\":3592:3598   */\n      dup3\n        /* \"#utility.yul\":3588:3605   */\n      mul\n        /* \"#utility.yul\":3583:3586   */\n      dup6\n        /* \"#utility.yul\":3579:3606   */\n      add\n        /* \"#utility.yul\":3630:3708   */\n      tag_191\n        /* \"#utility.yul\":3702:3707   */\n      dup6\n        /* \"#utility.yul\":3630:3708   */\n      tag_192\n      jump\t// in\n    tag_191:\n        /* \"#utility.yul\":3731:3738   */\n      dup1\n        /* \"#utility.yul\":3762:3763   */\n      0x00\n        /* \"#utility.yul\":3747:4179   */\n    tag_193:\n        /* \"#utility.yul\":3772:3778   */\n      dup6\n        /* \"#utility.yul\":3769:3770   */\n      dup2\n        /* \"#utility.yul\":3766:3779   */\n      lt\n        /* \"#utility.yul\":3747:4179   */\n      iszero\n      tag_195\n      jumpi\n        /* \"#utility.yul\":3843:3852   */\n      dup5\n        /* \"#utility.yul\":3837:3841   */\n      dup5\n        /* \"#utility.yul\":3833:3853   */\n      sub\n        /* \"#utility.yul\":3828:3831   */\n      dup10\n        /* \"#utility.yul\":3821:3854   */\n      mstore\n        /* \"#utility.yul\":3894:3900   */\n      dup2\n        /* \"#utility.yul\":3888:3901   */\n      mload\n        /* \"#utility.yul\":3922:4030   */\n      tag_196\n        /* \"#utility.yul\":4025:4029   */\n      dup6\n        /* \"#utility.yul\":4010:4023   */\n      dup3\n        /* \"#utility.yul\":3922:4030   */\n      tag_173\n      jump\t// in\n    tag_196:\n        /* \"#utility.yul\":3914:4030   */\n      swap5\n      pop\n        /* \"#utility.yul\":4053:4135   */\n      tag_197\n        /* \"#utility.yul\":4128:4134   */\n      dup4\n        /* \"#utility.yul\":4053:4135   */\n      tag_198\n      jump\t// in\n    tag_197:\n        /* \"#utility.yul\":4043:4135   */\n      swap3\n      pop\n        /* \"#utility.yul\":4164:4168   */\n      0x20\n        /* \"#utility.yul\":4159:4162   */\n      dup11\n        /* \"#utility.yul\":4155:4169   */\n      add\n        /* \"#utility.yul\":4148:4169   */\n      swap10\n      pop\n        /* \"#utility.yul\":3807:4179   */\n      pop\n        /* \"#utility.yul\":3794:3795   */\n      0x01\n        /* \"#utility.yul\":3791:3792   */\n      dup2\n        /* \"#utility.yul\":3787:3796   */\n      add\n        /* \"#utility.yul\":3782:3796   */\n      swap1\n      pop\n        /* \"#utility.yul\":3747:4179   */\n      jump(tag_193)\n    tag_195:\n        /* \"#utility.yul\":3751:3765   */\n      pop\n        /* \"#utility.yul\":4195:4199   */\n      dup3\n        /* \"#utility.yul\":4188:4199   */\n      swap8\n      pop\n        /* \"#utility.yul\":4215:4218   */\n      dup8\n        /* \"#utility.yul\":4208:4218   */\n      swap6\n      pop\n        /* \"#utility.yul\":3305:4224   */\n      pop\n      pop\n      pop\n      pop\n      pop\n      swap3\n      swap2\n      pop\n      pop\n      jump\t// out\n        /* \"#utility.yul\":4260:4992   */\n    tag_199:\n      0x00\n        /* \"#utility.yul\":4408:4462   */\n      tag_201\n        /* \"#utility.yul\":4456:4461   */\n      dup3\n        /* \"#utility.yul\":4408:4462   */\n      tag_202\n      jump\t// in\n    tag_201:\n        /* \"#utility.yul\":4478:4564   */\n      tag_203\n        /* \"#utility.yul\":4557:4563   */\n      dup2\n        /* \"#utility.yul\":4552:4555   */\n      dup6\n        /* \"#utility.yul\":4478:4564   */\n      tag_204\n      jump\t// in\n    tag_203:\n        /* \"#utility.yul\":4471:4564   */\n      swap4\n      pop\n        /* \"#utility.yul\":4588:4644   */\n      tag_205\n        /* \"#utility.yul\":4638:4643   */\n      dup4\n        /* \"#utility.yul\":4588:4644   */\n      tag_206\n      jump\t// in\n    tag_205:\n        /* \"#utility.yul\":4667:4674   */\n      dup1\n        /* \"#utility.yul\":4698:4699   */\n      0x00\n        /* \"#utility.yul\":4683:4967   */\n    tag_207:\n        /* \"#utility.yul\":4708:4714   */\n      dup4\n        /* \"#utility.yul\":4705:4706   */\n      dup2\n        /* \"#utility.yul\":4702:4715   */\n      lt\n        /* \"#utility.yul\":4683:4967   */\n      iszero\n      tag_209\n      jumpi\n        /* \"#utility.yul\":4784:4790   */\n      dup2\n        /* \"#utility.yul\":4778:4791   */\n      mload\n        /* \"#utility.yul\":4811:4874   */\n      tag_210\n        /* \"#utility.yul\":4870:4873   */\n      dup9\n        /* \"#utility.yul\":4855:4868   */\n      dup3\n        /* \"#utility.yul\":4811:4874   */\n      tag_177\n      jump\t// in\n    tag_210:\n        /* \"#utility.yul\":4804:4874   */\n      swap8\n      pop\n        /* \"#utility.yul\":4897:4957   */\n      tag_211\n        /* \"#utility.yul\":4950:4956   */\n      dup4\n        /* \"#utility.yul\":4897:4957   */\n      tag_212\n      jump\t// in\n    tag_211:\n        /* \"#utility.yul\":4887:4957   */\n      swap3\n      pop\n        /* \"#utility.yul\":4743:4967   */\n      pop\n        /* \"#utility.yul\":4730:4731   */\n      0x01\n        /* \"#utility.yul\":4727:4728   */\n      dup2\n        /* \"#utility.yul\":4723:4732   */\n      add\n        /* \"#utility.yul\":4718:4732   */\n      swap1\n      pop\n        /* \"#utility.yul\":4683:4967   */\n      jump(tag_207)\n    tag_209:\n        /* \"#utility.yul\":4687:4701   */\n      pop\n        /* \"#utility.yul\":4983:4986   */\n      dup6\n        /* \"#utility.yul\":4976:4986   */\n      swap4\n      pop\n        /* \"#utility.yul\":4384:4992   */\n      pop\n      pop\n      pop\n      swap3\n      swap2\n      pop\n      pop\n      jump\t// out\n        /* \"#utility.yul\":4998:5342   */\n    tag_213:\n      0x00\n        /* \"#utility.yul\":5104:5143   */\n      tag_215\n        /* \"#utility.yul\":5137:5142   */\n      dup3\n        /* \"#utility.yul\":5104:5143   */\n      tag_216\n      jump\t// in\n    tag_215:\n        /* \"#utility.yul\":5159:5220   */\n      tag_217\n        /* \"#utility.yul\":5213:5219   */\n      dup2\n        /* \"#utility.yul\":5208:5211   */\n      dup6\n        /* \"#utility.yul\":5159:5220   */\n      tag_218\n      jump\t// in\n    tag_217:\n        /* \"#utility.yul\":5152:5220   */\n      swap4\n      pop\n        /* \"#utility.yul\":5229:5281   */\n      tag_219\n        /* \"#utility.yul\":5274:5280   */\n      dup2\n        /* \"#utility.yul\":5269:5272   */\n      dup6\n        /* \"#utility.yul\":5262:5266   */\n      0x20\n        /* \"#utility.yul\":5255:5260   */\n      dup7\n        /* \"#utility.yul\":5251:5267   */\n      add\n        /* \"#utility.yul\":5229:5281   */\n      tag_220\n      jump\t// in\n    tag_219:\n        /* \"#utility.yul\":5306:5335   */\n      tag_221\n        /* \"#utility.yul\":5328:5334   */\n      dup2\n        /* \"#utility.yul\":5306:5335   */\n      tag_222\n      jump\t// in\n    tag_221:\n        /* \"#utility.yul\":5301:5304   */\n      dup5\n        /* \"#utility.yul\":5297:5336   */\n      add\n        /* \"#utility.yul\":5290:5336   */\n      swap2\n      pop\n        /* \"#utility.yul\":5080:5342   */\n      pop\n      swap3\n      swap2\n      pop\n      pop\n      jump\t// out\n        /* \"#utility.yul\":5348:5712   */\n    tag_223:\n      0x00\n        /* \"#utility.yul\":5464:5503   */\n      tag_225\n        /* \"#utility.yul\":5497:5502   */\n      dup3\n        /* \"#utility.yul\":5464:5503   */\n      tag_216\n      jump\t// in\n    tag_225:\n        /* \"#utility.yul\":5519:5590   */\n      tag_226\n        /* \"#utility.yul\":5583:5589   */\n      dup2\n        /* \"#utility.yul\":5578:5581   */\n      dup6\n        /* \"#utility.yul\":5519:5590   */\n      tag_227\n      jump\t// in\n    tag_226:\n        /* \"#utility.yul\":5512:5590   */\n      swap4\n      pop\n        /* \"#utility.yul\":5599:5651   */\n      tag_228\n        /* \"#utility.yul\":5644:5650   */\n      dup2\n        /* \"#utility.yul\":5639:5642   */\n      dup6\n        /* \"#utility.yul\":5632:5636   */\n      0x20\n        /* \"#utility.yul\":5625:5630   */\n      dup7\n        /* \"#utility.yul\":5621:5637   */\n      add\n        /* \"#utility.yul\":5599:5651   */\n      tag_220\n      jump\t// in\n    tag_228:\n        /* \"#utility.yul\":5676:5705   */\n      tag_229\n        /* \"#utility.yul\":5698:5704   */\n      dup2\n        /* \"#utility.yul\":5676:5705   */\n      tag_222\n      jump\t// in\n    tag_229:\n        /* \"#utility.yul\":5671:5674   */\n      dup5\n        /* \"#utility.yul\":5667:5706   */\n      add\n        /* \"#utility.yul\":5660:5706   */\n      swap2\n      pop\n        /* \"#utility.yul\":5440:5712   */\n      pop\n      swap3\n      swap2\n      pop\n      pop\n      jump\t// out\n        /* \"#utility.yul\":5772:6868   */\n    tag_176:\n      0x00\n        /* \"#utility.yul\":5911:5915   */\n      0x80\n        /* \"#utility.yul\":5906:5909   */\n      dup4\n        /* \"#utility.yul\":5902:5916   */\n      add\n        /* \"#utility.yul\":5998:6002   */\n      0x00\n        /* \"#utility.yul\":5991:5996   */\n      dup4\n        /* \"#utility.yul\":5987:6003   */\n      add\n        /* \"#utility.yul\":5981:6004   */\n      mload\n        /* \"#utility.yul\":6051:6054   */\n      dup5\n        /* \"#utility.yul\":6045:6049   */\n      dup3\n        /* \"#utility.yul\":6041:6055   */\n      sub\n        /* \"#utility.yul\":6034:6038   */\n      0x00\n        /* \"#utility.yul\":6029:6032   */\n      dup7\n        /* \"#utility.yul\":6025:6039   */\n      add\n        /* \"#utility.yul\":6018:6056   */\n      mstore\n        /* \"#utility.yul\":6077:6150   */\n      tag_231\n        /* \"#utility.yul\":6145:6149   */\n      dup3\n        /* \"#utility.yul\":6131:6143   */\n      dup3\n        /* \"#utility.yul\":6077:6150   */\n      tag_213\n      jump\t// in\n    tag_231:\n        /* \"#utility.yul\":6069:6150   */\n      swap2\n      pop\n        /* \"#utility.yul\":5926:6161   */\n      pop\n        /* \"#utility.yul\":6249:6253   */\n      0x20\n        /* \"#utility.yul\":6242:6247   */\n      dup4\n        /* \"#utility.yul\":6238:6254   */\n      add\n        /* \"#utility.yul\":6232:6255   */\n      mload\n        /* \"#utility.yul\":6302:6305   */\n      dup5\n        /* \"#utility.yul\":6296:6300   */\n      dup3\n        /* \"#utility.yul\":6292:6306   */\n      sub\n        /* \"#utility.yul\":6285:6289   */\n      0x20\n        /* \"#utility.yul\":6280:6283   */\n      dup7\n        /* \"#utility.yul\":6276:6290   */\n      add\n        /* \"#utility.yul\":6269:6307   */\n      mstore\n        /* \"#utility.yul\":6328:6401   */\n      tag_232\n        /* \"#utility.yul\":6396:6400   */\n      dup3\n        /* \"#utility.yul\":6382:6394   */\n      dup3\n        /* \"#utility.yul\":6328:6401   */\n      tag_213\n      jump\t// in\n    tag_232:\n        /* \"#utility.yul\":6320:6401   */\n      swap2\n      pop\n        /* \"#utility.yul\":6171:6412   */\n      pop\n        /* \"#utility.yul\":6502:6506   */\n      0x40\n        /* \"#utility.yul\":6495:6500   */\n      dup4\n        /* \"#utility.yul\":6491:6507   */\n      add\n        /* \"#utility.yul\":6485:6508   */\n      mload\n        /* \"#utility.yul\":6521:6584   */\n      tag_233\n        /* \"#utility.yul\":6578:6582   */\n      0x40\n        /* \"#utility.yul\":6573:6576   */\n      dup7\n        /* \"#utility.yul\":6569:6583   */\n      add\n        /* \"#utility.yul\":6555:6567   */\n      dup3\n        /* \"#utility.yul\":6521:6584   */\n      tag_180\n      jump\t// in\n    tag_233:\n        /* \"#utility.yul\":6422:6594   */\n      pop\n        /* \"#utility.yul\":6678:6682   */\n      0x60\n        /* \"#utility.yul\":6671:6676   */\n      dup4\n        /* \"#utility.yul\":6667:6683   */\n      add\n        /* \"#utility.yul\":6661:6684   */\n      mload\n        /* \"#utility.yul\":6731:6734   */\n      dup5\n        /* \"#utility.yul\":6725:6729   */\n      dup3\n        /* \"#utility.yul\":6721:6735   */\n      sub\n        /* \"#utility.yul\":6714:6718   */\n      0x60\n        /* \"#utility.yul\":6709:6712   */\n      dup7\n        /* \"#utility.yul\":6705:6719   */\n      add\n        /* \"#utility.yul\":6698:6736   */\n      mstore\n        /* \"#utility.yul\":6757:6830   */\n      tag_234\n        /* \"#utility.yul\":6825:6829   */\n      dup3\n        /* \"#utility.yul\":6811:6823   */\n      dup3\n        /* \"#utility.yul\":6757:6830   */\n      tag_213\n      jump\t// in\n    tag_234:\n        /* \"#utility.yul\":6749:6830   */\n      swap2\n      pop\n        /* \"#utility.yul\":6604:6841   */\n      pop\n        /* \"#utility.yul\":6858:6862   */\n      dup1\n        /* \"#utility.yul\":6851:6862   */\n      swap2\n      pop\n        /* \"#utility.yul\":5880:6868   */\n      pop\n      swap3\n      swap2\n      pop\n      pop\n      jump\t// out\n        /* \"#utility.yul\":6928:8034   */\n    tag_235:\n      0x00\n        /* \"#utility.yul\":7077:7081   */\n      0x80\n        /* \"#utility.yul\":7072:7075   */\n      dup4\n        /* \"#utility.yul\":7068:7082   */\n      add\n        /* \"#utility.yul\":7164:7168   */\n      0x00\n        /* \"#utility.yul\":7157:7162   */\n      dup4\n        /* \"#utility.yul\":7153:7169   */\n      add\n        /* \"#utility.yul\":7147:7170   */\n      mload\n        /* \"#utility.yul\":7217:7220   */\n      dup5\n        /* \"#utility.yul\":7211:7215   */\n      dup3\n        /* \"#utility.yul\":7207:7221   */\n      sub\n        /* \"#utility.yul\":7200:7204   */\n      0x00\n        /* \"#utility.yul\":7195:7198   */\n      dup7\n        /* \"#utility.yul\":7191:7205   */\n      add\n        /* \"#utility.yul\":7184:7222   */\n      mstore\n        /* \"#utility.yul\":7243:7316   */\n      tag_237\n        /* \"#utility.yul\":7311:7315   */\n      dup3\n        /* \"#utility.yul\":7297:7309   */\n      dup3\n        /* \"#utility.yul\":7243:7316   */\n      tag_213\n      jump\t// in\n    tag_237:\n        /* \"#utility.yul\":7235:7316   */\n      swap2\n      pop\n        /* \"#utility.yul\":7092:7327   */\n      pop\n        /* \"#utility.yul\":7415:7419   */\n      0x20\n        /* \"#utility.yul\":7408:7413   */\n      dup4\n        /* \"#utility.yul\":7404:7420   */\n      add\n        /* \"#utility.yul\":7398:7421   */\n      mload\n        /* \"#utility.yul\":7468:7471   */\n      dup5\n        /* \"#utility.yul\":7462:7466   */\n      dup3\n        /* \"#utility.yul\":7458:7472   */\n      sub\n        /* \"#utility.yul\":7451:7455   */\n      0x20\n        /* \"#utility.yul\":7446:7449   */\n      dup7\n        /* \"#utility.yul\":7442:7456   */\n      add\n        /* \"#utility.yul\":7435:7473   */\n      mstore\n        /* \"#utility.yul\":7494:7567   */\n      tag_238\n        /* \"#utility.yul\":7562:7566   */\n      dup3\n        /* \"#utility.yul\":7548:7560   */\n      dup3\n        /* \"#utility.yul\":7494:7567   */\n      tag_213\n      jump\t// in\n    tag_238:\n        /* \"#utility.yul\":7486:7567   */\n      swap2\n      pop\n        /* \"#utility.yul\":7337:7578   */\n      pop\n        /* \"#utility.yul\":7668:7672   */\n      0x40\n        /* \"#utility.yul\":7661:7666   */\n      dup4\n        /* \"#utility.yul\":7657:7673   */\n      add\n        /* \"#utility.yul\":7651:7674   */\n      mload\n        /* \"#utility.yul\":7687:7750   */\n      tag_239\n        /* \"#utility.yul\":7744:7748   */\n      0x40\n        /* \"#utility.yul\":7739:7742   */\n      dup7\n        /* \"#utility.yul\":7735:7749   */\n      add\n        /* \"#utility.yul\":7721:7733   */\n      dup3\n        /* \"#utility.yul\":7687:7750   */\n      tag_180\n      jump\t// in\n    tag_239:\n        /* \"#utility.yul\":7588:7760   */\n      pop\n        /* \"#utility.yul\":7844:7848   */\n      0x60\n        /* \"#utility.yul\":7837:7842   */\n      dup4\n        /* \"#utility.yul\":7833:7849   */\n      add\n        /* \"#utility.yul\":7827:7850   */\n      mload\n        /* \"#utility.yul\":7897:7900   */\n      dup5\n        /* \"#utility.yul\":7891:7895   */\n      dup3\n        /* \"#utility.yul\":7887:7901   */\n      sub\n        /* \"#utility.yul\":7880:7884   */\n      0x60\n        /* \"#utility.yul\":7875:7878   */\n      dup7\n        /* \"#utility.yul\":7871:7885   */\n      add\n        /* \"#utility.yul\":7864:7902   */\n      mstore\n        /* \"#utility.yul\":7923:7996   */\n      tag_240\n        /* \"#utility.yul\":7991:7995   */\n      dup3\n        /* \"#utility.yul\":7977:7989   */\n      dup3\n        /* \"#utility.yul\":7923:7996   */\n      tag_213\n      jump\t// in\n    tag_240:\n        /* \"#utility.yul\":7915:7996   */\n      swap2\n      pop\n        /* \"#utility.yul\":7770:8007   */\n      pop\n        /* \"#utility.yul\":8024:8028   */\n      dup1\n        /* \"#utility.yul\":8017:8028   */\n      swap2\n      pop\n        /* \"#utility.yul\":7046:8034   */\n      pop\n      swap3\n      swap2\n      pop\n      pop\n      jump\t// out\n        /* \"#utility.yul\":8040:8148   */\n    tag_180:\n        /* \"#utility.yul\":8117:8141   */\n      tag_242\n        /* \"#utility.yul\":8135:8140   */\n      dup2\n        /* \"#utility.yul\":8117:8141   */\n      tag_243\n      jump\t// in\n    tag_242:\n        /* \"#utility.yul\":8112:8115   */\n      dup3\n        /* \"#utility.yul\":8105:8142   */\n      mstore\n        /* \"#utility.yul\":8095:8148   */\n      pop\n      pop\n      jump\t// out\n        /* \"#utility.yul\":8154:8272   */\n    tag_244:\n        /* \"#utility.yul\":8241:8265   */\n      tag_246\n        /* \"#utility.yul\":8259:8264   */\n      dup2\n        /* \"#utility.yul\":8241:8265   */\n      tag_243\n      jump\t// in\n    tag_246:\n        /* \"#utility.yul\":8236:8239   */\n      dup3\n        /* \"#utility.yul\":8229:8266   */\n      mstore\n        /* \"#utility.yul\":8219:8272   */\n      pop\n      pop\n      jump\t// out\n        /* \"#utility.yul\":8278:8500   */\n    tag_39:\n      0x00\n        /* \"#utility.yul\":8409:8411   */\n      0x20\n        /* \"#utility.yul\":8398:8407   */\n      dup3\n        /* \"#utility.yul\":8394:8412   */\n      add\n        /* \"#utility.yul\":8386:8412   */\n      swap1\n      pop\n        /* \"#utility.yul\":8422:8493   */\n      tag_248\n        /* \"#utility.yul\":8490:8491   */\n      0x00\n        /* \"#utility.yul\":8479:8488   */\n      dup4\n        /* \"#utility.yul\":8475:8492   */\n      add\n        /* \"#utility.yul\":8466:8472   */\n      dup5\n        /* \"#utility.yul\":8422:8493   */\n      tag_181\n      jump\t// in\n    tag_248:\n        /* \"#utility.yul\":8376:8500   */\n      swap3\n      swap2\n      pop\n      pop\n      jump\t// out\n        /* \"#utility.yul\":8506:8967   */\n    tag_47:\n      0x00\n        /* \"#utility.yul\":8731:8733   */\n      0x20\n        /* \"#utility.yul\":8720:8729   */\n      dup3\n        /* \"#utility.yul\":8716:8734   */\n      add\n        /* \"#utility.yul\":8708:8734   */\n      swap1\n      pop\n        /* \"#utility.yul\":8780:8789   */\n      dup2\n        /* \"#utility.yul\":8774:8778   */\n      dup2\n        /* \"#utility.yul\":8770:8790   */\n      sub\n        /* \"#utility.yul\":8766:8767   */\n      0x00\n        /* \"#utility.yul\":8755:8764   */\n      dup4\n        /* \"#utility.yul\":8751:8768   */\n      add\n        /* \"#utility.yul\":8744:8791   */\n      mstore\n        /* \"#utility.yul\":8808:8960   */\n      tag_250\n        /* \"#utility.yul\":8955:8959   */\n      dup2\n        /* \"#utility.yul\":8946:8952   */\n      dup5\n        /* \"#utility.yul\":8808:8960   */\n      tag_185\n      jump\t// in\n    tag_250:\n        /* \"#utility.yul\":8800:8960   */\n      swap1\n      pop\n        /* \"#utility.yul\":8698:8967   */\n      swap3\n      swap2\n      pop\n      pop\n      jump\t// out\n        /* \"#utility.yul\":8973:9346   */\n    tag_35:\n      0x00\n        /* \"#utility.yul\":9154:9156   */\n      0x20\n        /* \"#utility.yul\":9143:9152   */\n      dup3\n        /* \"#utility.yul\":9139:9157   */\n      add\n        /* \"#utility.yul\":9131:9157   */\n      swap1\n      pop\n        /* \"#utility.yul\":9203:9212   */\n      dup2\n        /* \"#utility.yul\":9197:9201   */\n      dup2\n        /* \"#utility.yul\":9193:9213   */\n      sub\n        /* \"#utility.yul\":9189:9190   */\n      0x00\n        /* \"#utility.yul\":9178:9187   */\n      dup4\n        /* \"#utility.yul\":9174:9191   */\n      add\n        /* \"#utility.yul\":9167:9214   */\n      mstore\n        /* \"#utility.yul\":9231:9339   */\n      tag_252\n        /* \"#utility.yul\":9334:9338   */\n      dup2\n        /* \"#utility.yul\":9325:9331   */\n      dup5\n        /* \"#utility.yul\":9231:9339   */\n      tag_199\n      jump\t// in\n    tag_252:\n        /* \"#utility.yul\":9223:9339   */\n      swap1\n      pop\n        /* \"#utility.yul\":9121:9346   */\n      swap3\n      swap2\n      pop\n      pop\n      jump\t// out\n        /* \"#utility.yul\":9352:9665   */\n    tag_23:\n      0x00\n        /* \"#utility.yul\":9503:9505   */\n      0x20\n        /* \"#utility.yul\":9492:9501   */\n      dup3\n        /* \"#utility.yul\":9488:9506   */\n      add\n        /* \"#utility.yul\":9480:9506   */\n      swap1\n      pop\n        /* \"#utility.yul\":9552:9561   */\n      dup2\n        /* \"#utility.yul\":9546:9550   */\n      dup2\n        /* \"#utility.yul\":9542:9562   */\n      sub\n        /* \"#utility.yul\":9538:9539   */\n      0x00\n        /* \"#utility.yul\":9527:9536   */\n      dup4\n        /* \"#utility.yul\":9523:9540   */\n      add\n        /* \"#utility.yul\":9516:9563   */\n      mstore\n        /* \"#utility.yul\":9580:9658   */\n      tag_254\n        /* \"#utility.yul\":9653:9657   */\n      dup2\n        /* \"#utility.yul\":9644:9650   */\n      dup5\n        /* \"#utility.yul\":9580:9658   */\n      tag_223\n      jump\t// in\n    tag_254:\n        /* \"#utility.yul\":9572:9658   */\n      swap1\n      pop\n        /* \"#utility.yul\":9470:9665   */\n      swap3\n      swap2\n      pop\n      pop\n      jump\t// out\n        /* \"#utility.yul\":9671:10032   */\n    tag_19:\n      0x00\n        /* \"#utility.yul\":9846:9848   */\n      0x20\n        /* \"#utility.yul\":9835:9844   */\n      dup3\n        /* \"#utility.yul\":9831:9849   */\n      add\n        /* \"#utility.yul\":9823:9849   */\n      swap1\n      pop\n        /* \"#utility.yul\":9895:9904   */\n      dup2\n        /* \"#utility.yul\":9889:9893   */\n      dup2\n        /* \"#utility.yul\":9885:9905   */\n      sub\n        /* \"#utility.yul\":9881:9882   */\n      0x00\n        /* \"#utility.yul\":9870:9879   */\n      dup4\n        /* \"#utility.yul\":9866:9883   */\n      add\n        /* \"#utility.yul\":9859:9906   */\n      mstore\n        /* \"#utility.yul\":9923:10025   */\n      tag_256\n        /* \"#utility.yul\":10020:10024   */\n      dup2\n        /* \"#utility.yul\":10011:10017   */\n      dup5\n        /* \"#utility.yul\":9923:10025   */\n      tag_235\n      jump\t// in\n    tag_256:\n        /* \"#utility.yul\":9915:10025   */\n      swap1\n      pop\n        /* \"#utility.yul\":9813:10032   */\n      swap3\n      swap2\n      pop\n      pop\n      jump\t// out\n        /* \"#utility.yul\":10038:10260   */\n    tag_27:\n      0x00\n        /* \"#utility.yul\":10169:10171   */\n      0x20\n        /* \"#utility.yul\":10158:10167   */\n      dup3\n        /* \"#utility.yul\":10154:10172   */\n      add\n        /* \"#utility.yul\":10146:10172   */\n      swap1\n      pop\n        /* \"#utility.yul\":10182:10253   */\n      tag_258\n        /* \"#utility.yul\":10250:10251   */\n      0x00\n        /* \"#utility.yul\":10239:10248   */\n      dup4\n        /* \"#utility.yul\":10235:10252   */\n      add\n        /* \"#utility.yul\":10226:10232   */\n      dup5\n        /* \"#utility.yul\":10182:10253   */\n      tag_244\n      jump\t// in\n    tag_258:\n        /* \"#utility.yul\":10136:10260   */\n      swap3\n      swap2\n      pop\n      pop\n      jump\t// out\n        /* \"#utility.yul\":10266:10395   */\n    tag_145:\n      0x00\n        /* \"#utility.yul\":10327:10347   */\n      tag_260\n      tag_261\n      jump\t// in\n    tag_260:\n        /* \"#utility.yul\":10317:10347   */\n      swap1\n      pop\n        /* \"#utility.yul\":10356:10389   */\n      tag_262\n        /* \"#utility.yul\":10384:10388   */\n      dup3\n        /* \"#utility.yul\":10376:10382   */\n      dup3\n        /* \"#utility.yul\":10356:10389   */\n      tag_263\n      jump\t// in\n    tag_262:\n        /* \"#utility.yul\":10307:10395   */\n      swap2\n      swap1\n      pop\n      jump\t// out\n        /* \"#utility.yul\":10401:10476   */\n    tag_261:\n      0x00\n        /* \"#utility.yul\":10467:10469   */\n      0x40\n        /* \"#utility.yul\":10461:10470   */\n      mload\n        /* \"#utility.yul\":10451:10470   */\n      swap1\n      pop\n        /* \"#utility.yul\":10441:10476   */\n      swap1\n      jump\t// out\n        /* \"#utility.yul\":10482:10790   */\n    tag_144:\n      0x00\n        /* \"#utility.yul\":10634:10652   */\n      0xffffffffffffffff\n        /* \"#utility.yul\":10626:10632   */\n      dup3\n        /* \"#utility.yul\":10623:10653   */\n      gt\n        /* \"#utility.yul\":10620:10622   */\n      iszero\n      tag_266\n      jumpi\n        /* \"#utility.yul\":10656:10674   */\n      tag_267\n      tag_268\n      jump\t// in\n    tag_267:\n        /* \"#utility.yul\":10620:10622   */\n    tag_266:\n        /* \"#utility.yul\":10694:10723   */\n      tag_269\n        /* \"#utility.yul\":10716:10722   */\n      dup3\n        /* \"#utility.yul\":10694:10723   */\n      tag_222\n      jump\t// in\n    tag_269:\n        /* \"#utility.yul\":10686:10723   */\n      swap1\n      pop\n        /* \"#utility.yul\":10778:10782   */\n      0x20\n        /* \"#utility.yul\":10772:10776   */\n      dup2\n        /* \"#utility.yul\":10768:10783   */\n      add\n        /* \"#utility.yul\":10760:10783   */\n      swap1\n      pop\n        /* \"#utility.yul\":10549:10790   */\n      swap2\n      swap1\n      pop\n      jump\t// out\n        /* \"#utility.yul\":10796:10950   */\n    tag_192:\n      0x00\n        /* \"#utility.yul\":10908:10911   */\n      dup2\n        /* \"#utility.yul\":10900:10911   */\n      swap1\n      pop\n        /* \"#utility.yul\":10938:10942   */\n      0x20\n        /* \"#utility.yul\":10933:10936   */\n      dup3\n        /* \"#utility.yul\":10929:10943   */\n      add\n        /* \"#utility.yul\":10921:10943   */\n      swap1\n      pop\n        /* \"#utility.yul\":10890:10950   */\n      swap2\n      swap1\n      pop\n      jump\t// out\n        /* \"#utility.yul\":10956:11088   */\n    tag_206:\n      0x00\n        /* \"#utility.yul\":11046:11049   */\n      dup2\n        /* \"#utility.yul\":11038:11049   */\n      swap1\n      pop\n        /* \"#utility.yul\":11076:11080   */\n      0x20\n        /* \"#utility.yul\":11071:11074   */\n      dup3\n        /* \"#utility.yul\":11067:11081   */\n      add\n        /* \"#utility.yul\":11059:11081   */\n      swap1\n      pop\n        /* \"#utility.yul\":11028:11088   */\n      swap2\n      swap1\n      pop\n      jump\t// out\n        /* \"#utility.yul\":11094:11230   */\n    tag_188:\n      0x00\n        /* \"#utility.yul\":11217:11222   */\n      dup2\n        /* \"#utility.yul\":11211:11223   */\n      mload\n        /* \"#utility.yul\":11201:11223   */\n      swap1\n      pop\n        /* \"#utility.yul\":11190:11230   */\n      swap2\n      swap1\n      pop\n      jump\t// out\n        /* \"#utility.yul\":11236:11350   */\n    tag_202:\n      0x00\n        /* \"#utility.yul\":11337:11342   */\n      dup2\n        /* \"#utility.yul\":11331:11343   */\n      mload\n        /* \"#utility.yul\":11321:11343   */\n      swap1\n      pop\n        /* \"#utility.yul\":11310:11350   */\n      swap2\n      swap1\n      pop\n      jump\t// out\n        /* \"#utility.yul\":11356:11455   */\n    tag_216:\n      0x00\n        /* \"#utility.yul\":11442:11447   */\n      dup2\n        /* \"#utility.yul\":11436:11448   */\n      mload\n        /* \"#utility.yul\":11426:11448   */\n      swap1\n      pop\n        /* \"#utility.yul\":11415:11455   */\n      swap2\n      swap1\n      pop\n      jump\t// out\n        /* \"#utility.yul\":11461:11596   */\n    tag_198:\n      0x00\n        /* \"#utility.yul\":11585:11589   */\n      0x20\n        /* \"#utility.yul\":11580:11583   */\n      dup3\n        /* \"#utility.yul\":11576:11590   */\n      add\n        /* \"#utility.yul\":11568:11590   */\n      swap1\n      pop\n        /* \"#utility.yul\":11558:11596   */\n      swap2\n      swap1\n      pop\n      jump\t// out\n        /* \"#utility.yul\":11602:11715   */\n    tag_212:\n      0x00\n        /* \"#utility.yul\":11704:11708   */\n      0x20\n        /* \"#utility.yul\":11699:11702   */\n      dup3\n        /* \"#utility.yul\":11695:11709   */\n      add\n        /* \"#utility.yul\":11687:11709   */\n      swap1\n      pop\n        /* \"#utility.yul\":11677:11715   */\n      swap2\n      swap1\n      pop\n      jump\t// out\n        /* \"#utility.yul\":11721:11927   */\n    tag_190:\n      0x00\n        /* \"#utility.yul\":11876:11882   */\n      dup3\n        /* \"#utility.yul\":11871:11874   */\n      dup3\n        /* \"#utility.yul\":11864:11883   */\n      mstore\n        /* \"#utility.yul\":11916:11920   */\n      0x20\n        /* \"#utility.yul\":11911:11914   */\n      dup3\n        /* \"#utility.yul\":11907:11921   */\n      add\n        /* \"#utility.yul\":11892:11921   */\n      swap1\n      pop\n        /* \"#utility.yul\":11854:11927   */\n      swap3\n      swap2\n      pop\n      pop\n      jump\t// out\n        /* \"#utility.yul\":11933:12117   */\n    tag_204:\n      0x00\n        /* \"#utility.yul\":12066:12072   */\n      dup3\n        /* \"#utility.yul\":12061:12064   */\n      dup3\n        /* \"#utility.yul\":12054:12073   */\n      mstore\n        /* \"#utility.yul\":12106:12110   */\n      0x20\n        /* \"#utility.yul\":12101:12104   */\n      dup3\n        /* \"#utility.yul\":12097:12111   */\n      add\n        /* \"#utility.yul\":12082:12111   */\n      swap1\n      pop\n        /* \"#utility.yul\":12044:12117   */\n      swap3\n      swap2\n      pop\n      pop\n      jump\t// out\n        /* \"#utility.yul\":12123:12282   */\n    tag_218:\n      0x00\n        /* \"#utility.yul\":12231:12237   */\n      dup3\n        /* \"#utility.yul\":12226:12229   */\n      dup3\n        /* \"#utility.yul\":12219:12238   */\n      mstore\n        /* \"#utility.yul\":12271:12275   */\n      0x20\n        /* \"#utility.yul\":12266:12269   */\n      dup3\n        /* \"#utility.yul\":12262:12276   */\n      add\n        /* \"#utility.yul\":12247:12276   */\n      swap1\n      pop\n        /* \"#utility.yul\":12209:12282   */\n      swap3\n      swap2\n      pop\n      pop\n      jump\t// out\n        /* \"#utility.yul\":12288:12457   */\n    tag_227:\n      0x00\n        /* \"#utility.yul\":12406:12412   */\n      dup3\n        /* \"#utility.yul\":12401:12404   */\n      dup3\n        /* \"#utility.yul\":12394:12413   */\n      mstore\n        /* \"#utility.yul\":12446:12450   */\n      0x20\n        /* \"#utility.yul\":12441:12444   */\n      dup3\n        /* \"#utility.yul\":12437:12451   */\n      add\n        /* \"#utility.yul\":12422:12451   */\n      swap1\n      pop\n        /* \"#utility.yul\":12384:12457   */\n      swap3\n      swap2\n      pop\n      pop\n      jump\t// out\n        /* \"#utility.yul\":12463:12559   */\n    tag_184:\n      0x00\n        /* \"#utility.yul\":12529:12553   */\n      tag_282\n        /* \"#utility.yul\":12547:12552   */\n      dup3\n        /* \"#utility.yul\":12529:12553   */\n      tag_283\n      jump\t// in\n    tag_282:\n        /* \"#utility.yul\":12518:12553   */\n      swap1\n      pop\n        /* \"#utility.yul\":12508:12559   */\n      swap2\n      swap1\n      pop\n      jump\t// out\n        /* \"#utility.yul\":12565:12691   */\n    tag_283:\n      0x00\n        /* \"#utility.yul\":12642:12684   */\n      0xffffffffffffffffffffffffffffffffffffffff\n        /* \"#utility.yul\":12635:12640   */\n      dup3\n        /* \"#utility.yul\":12631:12685   */\n      and\n        /* \"#utility.yul\":12620:12685   */\n      swap1\n      pop\n        /* \"#utility.yul\":12610:12691   */\n      swap2\n      swap1\n      pop\n      jump\t// out\n        /* \"#utility.yul\":12697:12774   */\n    tag_243:\n      0x00\n        /* \"#utility.yul\":12763:12768   */\n      dup2\n        /* \"#utility.yul\":12752:12768   */\n      swap1\n      pop\n        /* \"#utility.yul\":12742:12774   */\n      swap2\n      swap1\n      pop\n      jump\t// out\n        /* \"#utility.yul\":12780:12934   */\n    tag_148:\n        /* \"#utility.yul\":12864:12870   */\n      dup3\n        /* \"#utility.yul\":12859:12862   */\n      dup2\n        /* \"#utility.yul\":12854:12857   */\n      dup4\n        /* \"#utility.yul\":12841:12871   */\n      calldatacopy\n        /* \"#utility.yul\":12926:12927   */\n      0x00\n        /* \"#utility.yul\":12917:12923   */\n      dup4\n        /* \"#utility.yul\":12912:12915   */\n      dup4\n        /* \"#utility.yul\":12908:12924   */\n      add\n        /* \"#utility.yul\":12901:12928   */\n      mstore\n        /* \"#utility.yul\":12831:12934   */\n      pop\n      pop\n      pop\n      jump\t// out\n        /* \"#utility.yul\":12940:13247   */\n    tag_220:\n        /* \"#utility.yul\":13008:13009   */\n      0x00\n        /* \"#utility.yul\":13018:13131   */\n    tag_288:\n        /* \"#utility.yul\":13032:13038   */\n      dup4\n        /* \"#utility.yul\":13029:13030   */\n      dup2\n        /* \"#utility.yul\":13026:13039   */\n      lt\n        /* \"#utility.yul\":13018:13131   */\n      iszero\n      tag_290\n      jumpi\n        /* \"#utility.yul\":13117:13118   */\n      dup1\n        /* \"#utility.yul\":13112:13115   */\n      dup3\n        /* \"#utility.yul\":13108:13119   */\n      add\n        /* \"#utility.yul\":13102:13120   */\n      mload\n        /* \"#utility.yul\":13098:13099   */\n      dup2\n        /* \"#utility.yul\":13093:13096   */\n      dup5\n        /* \"#utility.yul\":13089:13100   */\n      add\n        /* \"#utility.yul\":13082:13121   */\n      mstore\n        /* \"#utility.yul\":13054:13056   */\n      0x20\n        /* \"#utility.yul\":13051:13052   */\n      dup2\n        /* \"#utility.yul\":13047:13057   */\n      add\n        /* \"#utility.yul\":13042:13057   */\n      swap1\n      pop\n        /* \"#utility.yul\":13018:13131   */\n      jump(tag_288)\n    tag_290:\n        /* \"#utility.yul\":13149:13155   */\n      dup4\n        /* \"#utility.yul\":13146:13147   */\n      dup2\n        /* \"#utility.yul\":13143:13156   */\n      gt\n        /* \"#utility.yul\":13140:13142   */\n      iszero\n      tag_291\n      jumpi\n        /* \"#utility.yul\":13229:13230   */\n      0x00\n        /* \"#utility.yul\":13220:13226   */\n      dup5\n        /* \"#utility.yul\":13215:13218   */\n      dup5\n        /* \"#utility.yul\":13211:13227   */\n      add\n        /* \"#utility.yul\":13204:13231   */\n      mstore\n        /* \"#utility.yul\":13140:13142   */\n    tag_291:\n        /* \"#utility.yul\":12989:13247   */\n      pop\n      pop\n      pop\n      pop\n      jump\t// out\n        /* \"#utility.yul\":13253:13573   */\n    tag_58:\n      0x00\n        /* \"#utility.yul\":13334:13335   */\n      0x02\n        /* \"#utility.yul\":13328:13332   */\n      dup3\n        /* \"#utility.yul\":13324:13336   */\n      div\n        /* \"#utility.yul\":13314:13336   */\n      swap1\n      pop\n        /* \"#utility.yul\":13381:13382   */\n      0x01\n        /* \"#utility.yul\":13375:13379   */\n      dup3\n        /* \"#utility.yul\":13371:13383   */\n      and\n        /* \"#utility.yul\":13402:13420   */\n      dup1\n        /* \"#utility.yul\":13392:13394   */\n      tag_293\n      jumpi\n        /* \"#utility.yul\":13458:13462   */\n      0x7f\n        /* \"#utility.yul\":13450:13456   */\n      dup3\n        /* \"#utility.yul\":13446:13463   */\n      and\n        /* \"#utility.yul\":13436:13463   */\n      swap2\n      pop\n        /* \"#utility.yul\":13392:13394   */\n    tag_293:\n        /* \"#utility.yul\":13520:13522   */\n      0x20\n        /* \"#utility.yul\":13512:13518   */\n      dup3\n        /* \"#utility.yul\":13509:13523   */\n      lt\n        /* \"#utility.yul\":13489:13507   */\n      dup2\n        /* \"#utility.yul\":13486:13524   */\n      eq\n        /* \"#utility.yul\":13483:13485   */\n      iszero\n      tag_294\n      jumpi\n        /* \"#utility.yul\":13539:13557   */\n      tag_295\n      tag_296\n      jump\t// in\n    tag_295:\n        /* \"#utility.yul\":13483:13485   */\n    tag_294:\n        /* \"#utility.yul\":13304:13573   */\n      pop\n      swap2\n      swap1\n      pop\n      jump\t// out\n        /* \"#utility.yul\":13579:13860   */\n    tag_263:\n        /* \"#utility.yul\":13662:13689   */\n      tag_298\n        /* \"#utility.yul\":13684:13688   */\n      dup3\n        /* \"#utility.yul\":13662:13689   */\n      tag_222\n      jump\t// in\n    tag_298:\n        /* \"#utility.yul\":13654:13660   */\n      dup2\n        /* \"#utility.yul\":13650:13690   */\n      add\n        /* \"#utility.yul\":13792:13798   */\n      dup2\n        /* \"#utility.yul\":13780:13790   */\n      dup2\n        /* \"#utility.yul\":13777:13799   */\n      lt\n        /* \"#utility.yul\":13756:13774   */\n      0xffffffffffffffff\n        /* \"#utility.yul\":13744:13754   */\n      dup3\n        /* \"#utility.yul\":13741:13775   */\n      gt\n        /* \"#utility.yul\":13738:13800   */\n      or\n        /* \"#utility.yul\":13735:13737   */\n      iszero\n      tag_299\n      jumpi\n        /* \"#utility.yul\":13803:13821   */\n      tag_300\n      tag_268\n      jump\t// in\n    tag_300:\n        /* \"#utility.yul\":13735:13737   */\n    tag_299:\n        /* \"#utility.yul\":13843:13853   */\n      dup1\n        /* \"#utility.yul\":13839:13841   */\n      0x40\n        /* \"#utility.yul\":13832:13854   */\n      mstore\n        /* \"#utility.yul\":13622:13860   */\n      pop\n      pop\n      pop\n      jump\t// out\n        /* \"#utility.yul\":13866:14099   */\n    tag_85:\n      0x00\n        /* \"#utility.yul\":13928:13952   */\n      tag_302\n        /* \"#utility.yul\":13946:13951   */\n      dup3\n        /* \"#utility.yul\":13928:13952   */\n      tag_243\n      jump\t// in\n    tag_302:\n        /* \"#utility.yul\":13919:13952   */\n      swap2\n      pop\n        /* \"#utility.yul\":13974:14040   */\n      0xffffffffffffffffffffffffffffffffffffffffffffffffffffffffffffffff\n        /* \"#utility.yul\":13967:13972   */\n      dup3\n        /* \"#utility.yul\":13964:14041   */\n      eq\n        /* \"#utility.yul\":13961:13963   */\n      iszero\n      tag_303\n      jumpi\n        /* \"#utility.yul\":14044:14062   */\n      tag_304\n      tag_305\n      jump\t// in\n    tag_304:\n        /* \"#utility.yul\":13961:13963   */\n    tag_303:\n        /* \"#utility.yul\":14091:14092   */\n      0x01\n        /* \"#utility.yul\":14084:14089   */\n      dup3\n        /* \"#utility.yul\":14080:14093   */\n      add\n        /* \"#utility.yul\":14073:14093   */\n      swap1\n      pop\n        /* \"#utility.yul\":13909:14099   */\n      swap2\n      swap1\n      pop\n      jump\t// out\n        /* \"#utility.yul\":14105:14285   */\n    tag_305:\n        /* \"#utility.yul\":14153:14230   */\n      0x4e487b7100000000000000000000000000000000000000000000000000000000\n        /* \"#utility.yul\":14150:14151   */\n      0x00\n        /* \"#utility.yul\":14143:14231   */\n      mstore\n        /* \"#utility.yul\":14250:14254   */\n      0x11\n        /* \"#utility.yul\":14247:14248   */\n      0x04\n        /* \"#utility.yul\":14240:14255   */\n      mstore\n        /* \"#utility.yul\":14274:14278   */\n      0x24\n        /* \"#utility.yul\":14271:14272   */\n      0x00\n        /* \"#utility.yul\":14264:14279   */\n      revert\n        /* \"#utility.yul\":14291:14471   */\n    tag_296:\n        /* \"#utility.yul\":14339:14416   */\n      0x4e487b7100000000000000000000000000000000000000000000000000000000\n        /* \"#utility.yul\":14336:14337   */\n      0x00\n        /* \"#utility.yul\":14329:14417   */\n      mstore\n        /* \"#utility.yul\":14436:14440   */\n      0x22\n        /* \"#utility.yul\":14433:14434   */\n      0x04\n        /* \"#utility.yul\":14426:14441   */\n      mstore\n        /* \"#utility.yul\":14460:14464   */\n      0x24\n        /* \"#utility.yul\":14457:14458   */\n      0x00\n        /* \"#utility.yul\":14450:14465   */\n      revert\n        /* \"#utility.yul\":14477:14657   */\n    tag_268:\n        /* \"#utility.yul\":14525:14602   */\n      0x4e487b7100000000000000000000000000000000000000000000000000000000\n        /* \"#utility.yul\":14522:14523   */\n      0x00\n        /* \"#utility.yul\":14515:14603   */\n      mstore\n        /* \"#utility.yul\":14622:14626   */\n      0x41\n        /* \"#utility.yul\":14619:14620   */\n      0x04\n        /* \"#utility.yul\":14612:14627   */\n      mstore\n        /* \"#utility.yul\":14646:14650   */\n      0x24\n        /* \"#utility.yul\":14643:14644   */\n      0x00\n        /* \"#utility.yul\":14636:14651   */\n      revert\n        /* \"#utility.yul\":14663:14765   */\n    tag_222:\n      0x00\n        /* \"#utility.yul\":14755:14757   */\n      0x1f\n        /* \"#utility.yul\":14751:14758   */\n      not\n        /* \"#utility.yul\":14746:14748   */\n      0x1f\n        /* \"#utility.yul\":14739:14744   */\n      dup4\n        /* \"#utility.yul\":14735:14749   */\n      add\n        /* \"#utility.yul\":14731:14759   */\n      and\n        /* \"#utility.yul\":14721:14759   */\n      swap1\n      pop\n        /* \"#utility.yul\":14711:14765   */\n      swap2\n      swap1\n      pop\n      jump\t// out\n        /* \"#utility.yul\":14771:14893   */\n    tag_156:\n        /* \"#utility.yul\":14844:14868   */\n      tag_311\n        /* \"#utility.yul\":14862:14867   */\n      dup2\n        /* \"#utility.yul\":14844:14868   */\n      tag_243\n      jump\t// in\n    tag_311:\n        /* \"#utility.yul\":14837:14842   */\n      dup2\n        /* \"#utility.yul\":14834:14869   */\n      eq\n        /* \"#utility.yul\":14824:14826   */\n      tag_312\n      jumpi\n        /* \"#utility.yul\":14883:14884   */\n      0x00\n        /* \"#utility.yul\":14880:14881   */\n      dup1\n        /* \"#utility.yul\":14873:14885   */\n      revert\n        /* \"#utility.yul\":14824:14826   */\n    tag_312:\n        /* \"#utility.yul\":14814:14893   */\n      pop\n      jump\t// out\n\n    auxdata: 0xa2646970667358221220f6385372e9b5802c9c7501a2cdaae2a8ec324959e58c6ea27fb9e736cd78208364736f6c63430008020033\n}\n","bytecode":{"linkReferences":{},"object":"60806040523480156200001157600080fd5b50604051620017be380380620017be83398181016040528101906200003791906200020f565b81600260006101000a81548173ffffffffffffffffffffffffffffffffffffffff021916908373ffffffffffffffffffffffffffffffffffffffff1602179055506000600460006101000a81548160ff021916908315150217905550600080819055506000600460016101000a81548160ff0219169083151502179055508060019080519060200190620000cd929190620000d6565b50505062000427565b828054620000e49062000332565b90600052602060002090601f01602090048101928262000108576000855562000154565b82601f106200012357805160ff191683800117855562000154565b8280016001018555821562000154579182015b828111156200015357825182559160200191906001019062000136565b5b50905062000163919062000167565b5090565b5b808211156200018257600081600090555060010162000168565b5090565b60006200019d620001978462000292565b62000269565b905082815260208101848484011115620001b657600080fd5b620001c3848285620002fc565b509392505050565b600081519050620001dc816200040d565b92915050565b600082601f830112620001f457600080fd5b81516200020684826020860162000186565b91505092915050565b600080604083850312156200022357600080fd5b60006200023385828601620001cb565b925050602083015167ffffffffffffffff8111156200025157600080fd5b6200025f85828601620001e2565b9150509250929050565b60006200027562000288565b905062000283828262000368565b919050565b6000604051905090565b600067ffffffffffffffff821115620002b057620002af620003cd565b5b620002bb82620003fc565b9050602081019050919050565b6000620002d582620002dc565b9050919050565b600073ffffffffffffffffffffffffffffffffffffffff82169050919050565b60005b838110156200031c578082015181840152602081019050620002ff565b838111156200032c576000848401525b50505050565b600060028204905060018216806200034b57607f821691505b602082108114156200036257620003616200039e565b5b50919050565b6200037382620003fc565b810181811067ffffffffffffffff82111715620003955762000394620003cd565b5b80604052505050565b7f4e487b7100000000000000000000000000000000000000000000000000000000600052602260045260246000fd5b7f4e487b7100000000000000000000000000000000000000000000000000000000600052604160045260246000fd5b6000601f19601f8301169050919050565b6200041881620002c8565b81146200042457600080fd5b50565b61138780620004376000396000f3fe608060405234801561001057600080fd5b506004361061009e5760003560e01c8063481c6a7511610066578063481c6a751461014957806359f784681461016757806362d73eb814610171578063a8311aa81461017b578063b09ea6a1146101995761009e565b8063024789a9146100a357806306fdde03146100d35780630d15fd77146100f15780632c0a3f891461010f5780634717f97c1461012b575b600080fd5b6100bd60048036038101906100b89190610cda565b6101b5565b6040516100ca9190611040565b60405180910390f35b6100db6103dd565b6040516100e8919061101e565b60405180910390f35b6100f961046b565b6040516101069190611062565b60405180910390f35b61012960048036038101906101249190610d03565b610471565b005b610133610583565b6040516101409190610ffc565b60405180910390f35b6101516105fb565b60405161015e9190610fbf565b60405180910390f35b61016f610621565b005b6101796106b8565b005b61018361076f565b6040516101909190610fda565b60405180910390f35b6101b360048036038101906101ae9190610c2f565b61098e565b005b6101bd610ae7565b6000600583815481106101f9577f4e487b7100000000000000000000000000000000000000000000000000000000600052603260045260246000fd5b9060005260206000209060040201905080604051806080016040529081600082018054610225906111f0565b80601f0160208091040260200160405190810160405280929190818152602001828054610251906111f0565b801561029e5780601f106102735761010080835404028352916020019161029e565b820191906000526020600020905b81548152906001019060200180831161028157829003601f168201915b505050505081526020016001820180546102b7906111f0565b80601f01602080910402602001604051908101604052809291908181526020018280546102e3906111f0565b80156103305780601f1061030557610100808354040283529160200191610330565b820191906000526020600020905b81548152906001019060200180831161031357829003601f168201915b5050505050815260200160028201548152602001600382018054610353906111f0565b80601f016020809104026020016040519081016040528092919081815260200182805461037f906111f0565b80156103cc5780601f106103a1576101008083540402835291602001916103cc565b820191906000526020600020905b8154815290600101906020018083116103af57829003601f168201915b505050505081525050915050919050565b600180546103ea906111f0565b80601f0160208091040260200160405190810160405280929190818152602001828054610416906111f0565b80156104635780601f1061043857610100808354040283529160200191610463565b820191906000526020600020905b81548152906001019060200180831161044657829003601f168201915b505050505081565b60005481565b60011515600460019054906101000a900460ff1615151461049157600080fd5b600015156003600084815260200190815260200160002060009054906101000a900460ff161515146104c257600080fd5b60001515600460009054906101000a900460ff161515146104e257600080fd5b60016003600084815260200190815260200160002060006101000a81548160ff02191690831515021790555060068181548110610548577f4e487b7100000000000000000000000000000000000000000000000000000000600052603260045260246000fd5b90600052602060002001600081548092919061056390611253565b919050555060008081548092919061057a90611253565b91905055505050565b606060011515600460009054906101000a900460ff161515146105a557600080fd5b60068054806020026020016040519081016040528092919081815260200182805480156105f157602002820191906000526020600020905b8154815260200190600101908083116105dd575b5050505050905090565b600260009054906101000a900473ffffffffffffffffffffffffffffffffffffffff1681565b600260009054906101000a900473ffffffffffffffffffffffffffffffffffffffff1673ffffffffffffffffffffffffffffffffffffffff163373ffffffffffffffffffffffffffffffffffffffff161461067b57600080fd5b60011515600460019054906101000a900460ff1615151461069b57600080fd5b6001600460006101000a81548160ff021916908315150217905550565b600260009054906101000a900473ffffffffffffffffffffffffffffffffffffffff1673ffffffffffffffffffffffffffffffffffffffff163373ffffffffffffffffffffffffffffffffffffffff161461071257600080fd5b60001515600460009054906101000a900460ff1615151461073257600080fd5b60001515600460019054906101000a900460ff1615151461075257600080fd5b6001600460016101000a81548160ff021916908315150217905550565b60606005805480602002602001604051908101604052809291908181526020016000905b8282101561098557838290600052602060002090600402016040518060800160405290816000820180546107c6906111f0565b80601f01602080910402602001604051908101604052809291908181526020018280546107f2906111f0565b801561083f5780601f106108145761010080835404028352916020019161083f565b820191906000526020600020905b81548152906001019060200180831161082257829003601f168201915b50505050508152602001600182018054610858906111f0565b80601f0160208091040260200160405190810160405280929190818152602001828054610884906111f0565b80156108d15780601f106108a6576101008083540402835291602001916108d1565b820191906000526020600020905b8154815290600101906020018083116108b457829003601f168201915b50505050508152602001600282015481526020016003820180546108f4906111f0565b80601f0160208091040260200160405190810160405280929190818152602001828054610920906111f0565b801561096d5780601f106109425761010080835404028352916020019161096d565b820191906000526020600020905b81548152906001019060200180831161095057829003601f168201915b50505050508152505081526020019060010190610793565b50505050905090565b600260009054906101000a900473ffffffffffffffffffffffffffffffffffffffff1673ffffffffffffffffffffffffffffffffffffffff163373ffffffffffffffffffffffffffffffffffffffff16146109e857600080fd5b600460019054906101000a900460ff1615610a0257600080fd5b6000604051806080016040528086815260200185815260200184815260200183815250905060058190806001815401808255809150506001900390600052602060002090600402016000909190919091506000820151816000019080519060200190610a6f929190610b0f565b506020820151816001019080519060200190610a8c929190610b0f565b50604082015181600201556060820151816003019080519060200190610ab3929190610b0f565b5050506006600090806001815401808255809150506001900390600052602060002001600090919091909150555050505050565b6040518060800160405280606081526020016060815260200160008152602001606081525090565b828054610b1b906111f0565b90600052602060002090601f016020900481019282610b3d5760008555610b84565b82601f10610b5657805160ff1916838001178555610b84565b82800160010185558215610b84579182015b82811115610b83578251825591602001919060010190610b68565b5b509050610b919190610b95565b5090565b5b80821115610bae576000816000905550600101610b96565b5090565b6000610bc5610bc0846110a2565b61107d565b905082815260208101848484011115610bdd57600080fd5b610be88482856111ae565b509392505050565b600082601f830112610c0157600080fd5b8135610c11848260208601610bb2565b91505092915050565b600081359050610c298161133a565b92915050565b60008060008060808587031215610c4557600080fd5b600085013567ffffffffffffffff811115610c5f57600080fd5b610c6b87828801610bf0565b945050602085013567ffffffffffffffff811115610c8857600080fd5b610c9487828801610bf0565b9350506040610ca587828801610c1a565b925050606085013567ffffffffffffffff811115610cc257600080fd5b610cce87828801610bf0565b91505092959194509250565b600060208284031215610cec57600080fd5b6000610cfa84828501610c1a565b91505092915050565b60008060408385031215610d1657600080fd5b6000610d2485828601610c1a565b9250506020610d3585828601610c1a565b9150509250929050565b6000610d4b8383610ebf565b905092915050565b6000610d5f8383610fa1565b60208301905092915050565b610d7481611172565b82525050565b6000610d85826110f3565b610d8f818561112e565b935083602082028501610da1856110d3565b8060005b85811015610ddd5784840389528151610dbe8582610d3f565b9450610dc983611114565b925060208a01995050600181019050610da5565b50829750879550505050505092915050565b6000610dfa826110fe565b610e04818561113f565b9350610e0f836110e3565b8060005b83811015610e40578151610e278882610d53565b9750610e3283611121565b925050600181019050610e13565b5085935050505092915050565b6000610e5882611109565b610e628185611150565b9350610e728185602086016111bd565b610e7b81611329565b840191505092915050565b6000610e9182611109565b610e9b8185611161565b9350610eab8185602086016111bd565b610eb481611329565b840191505092915050565b60006080830160008301518482036000860152610edc8282610e4d565b91505060208301518482036020860152610ef68282610e4d565b9150506040830151610f0b6040860182610fa1565b5060608301518482036060860152610f238282610e4d565b9150508091505092915050565b60006080830160008301518482036000860152610f4d8282610e4d565b91505060208301518482036020860152610f678282610e4d565b9150506040830151610f7c6040860182610fa1565b5060608301518482036060860152610f948282610e4d565b9150508091505092915050565b610faa816111a4565b82525050565b610fb9816111a4565b82525050565b6000602082019050610fd46000830184610d6b565b92915050565b60006020820190508181036000830152610ff48184610d7a565b905092915050565b600060208201905081810360008301526110168184610def565b905092915050565b600060208201905081810360008301526110388184610e86565b905092915050565b6000602082019050818103600083015261105a8184610f30565b905092915050565b60006020820190506110776000830184610fb0565b92915050565b6000611087611098565b90506110938282611222565b919050565b6000604051905090565b600067ffffffffffffffff8211156110bd576110bc6112fa565b5b6110c682611329565b9050602081019050919050565b6000819050602082019050919050565b6000819050602082019050919050565b600081519050919050565b600081519050919050565b600081519050919050565b6000602082019050919050565b6000602082019050919050565b600082825260208201905092915050565b600082825260208201905092915050565b600082825260208201905092915050565b600082825260208201905092915050565b600061117d82611184565b9050919050565b600073ffffffffffffffffffffffffffffffffffffffff82169050919050565b6000819050919050565b82818337600083830152505050565b60005b838110156111db5780820151818401526020810190506111c0565b838111156111ea576000848401525b50505050565b6000600282049050600182168061120857607f821691505b6020821081141561121c5761121b6112cb565b5b50919050565b61122b82611329565b810181811067ffffffffffffffff8211171561124a576112496112fa565b5b80604052505050565b600061125e826111a4565b91507fffffffffffffffffffffffffffffffffffffffffffffffffffffffffffffffff8214156112915761129061129c565b5b600182019050919050565b7f4e487b7100000000000000000000000000000000000000000000000000000000600052601160045260246000fd5b7f4e487b7100000000000000000000000000000000000000000000000000000000600052602260045260246000fd5b7f4e487b7100000000000000000000000000000000000000000000000000000000600052604160045260246000fd5b6000601f19601f8301169050919050565b611343816111a4565b811461134e57600080fd5b5056fea2646970667358221220f6385372e9b5802c9c7501a2cdaae2a8ec324959e58c6ea27fb9e736cd78208364736f6c63430008020033","opcodes":"PUSH1 0x80 PUSH1 0x40 MSTORE CALLVALUE DUP1 ISZERO PUSH3 0x11 JUMPI PUSH1 0x0 DUP1 REVERT JUMPDEST POP PUSH1 0x40 MLOAD PUSH3 0x17BE CODESIZE SUB DUP1 PUSH3 0x17BE DUP4 CODECOPY DUP2 DUP2 ADD PUSH1 0x40 MSTORE DUP2 ADD SWAP1 PUSH3 0x37 SWAP2 SWAP1 PUSH3 0x20F JUMP JUMPDEST DUP2 PUSH1 0x2 PUSH1 0x0 PUSH2 0x100 EXP DUP2 SLOAD DUP2 PUSH20 0xFFFFFFFFFFFFFFFFFFFFFFFFFFFFFFFFFFFFFFFF MUL NOT AND SWAP1 DUP4 PUSH20 0xFFFFFFFFFFFFFFFFFFFFFFFFFFFFFFFFFFFFFFFF AND MUL OR SWAP1 SSTORE POP PUSH1 0x0 PUSH1 0x4 PUSH1 0x0 PUSH2 0x100 EXP DUP2 SLOAD DUP2 PUSH1 0xFF MUL NOT AND SWAP1 DUP4 ISZERO ISZERO MUL OR SWAP1 SSTORE POP PUSH1 0x0 DUP1 DUP2 SWAP1 SSTORE POP PUSH1 0x0 PUSH1 0x4 PUSH1 0x1 PUSH2 0x100 EXP DUP2 SLOAD DUP2 PUSH1 0xFF MUL NOT AND SWAP1 DUP4 ISZERO ISZERO MUL OR SWAP1 SSTORE POP DUP1 PUSH1 0x1 SWAP1 DUP1 MLOAD SWAP1 PUSH1 0x20 ADD SWAP1 PUSH3 0xCD SWAP3 SWAP2 SWAP1 PUSH3 0xD6 JUMP JUMPDEST POP POP POP PUSH3 0x427 JUMP JUMPDEST DUP3 DUP1 SLOAD PUSH3 0xE4 SWAP1 PUSH3 0x332 JUMP JUMPDEST SWAP1 PUSH1 0x0 MSTORE PUSH1 0x20 PUSH1 0x0 KECCAK256 SWAP1 PUSH1 0x1F ADD PUSH1 0x20 SWAP1 DIV DUP2 ADD SWAP3 DUP3 PUSH3 0x108 JUMPI PUSH1 0x0 DUP6 SSTORE PUSH3 0x154 JUMP JUMPDEST DUP3 PUSH1 0x1F LT PUSH3 0x123 JUMPI DUP1 MLOAD PUSH1 0xFF NOT AND DUP4 DUP1 ADD OR DUP6 SSTORE PUSH3 0x154 JUMP JUMPDEST DUP3 DUP1 ADD PUSH1 0x1 ADD DUP6 SSTORE DUP3 ISZERO PUSH3 0x154 JUMPI SWAP2 DUP3 ADD JUMPDEST DUP3 DUP2 GT ISZERO PUSH3 0x153 JUMPI DUP3 MLOAD DUP3 SSTORE SWAP2 PUSH1 0x20 ADD SWAP2 SWAP1 PUSH1 0x1 ADD SWAP1 PUSH3 0x136 JUMP JUMPDEST JUMPDEST POP SWAP1 POP PUSH3 0x163 SWAP2 SWAP1 PUSH3 0x167 JUMP JUMPDEST POP SWAP1 JUMP JUMPDEST JUMPDEST DUP1 DUP3 GT ISZERO PUSH3 0x182 JUMPI PUSH1 0x0 DUP2 PUSH1 0x0 SWAP1 SSTORE POP PUSH1 0x1 ADD PUSH3 0x168 JUMP JUMPDEST POP SWAP1 JUMP JUMPDEST PUSH1 0x0 PUSH3 0x19D PUSH3 0x197 DUP5 PUSH3 0x292 JUMP JUMPDEST PUSH3 0x269 JUMP JUMPDEST SWAP1 POP DUP3 DUP2 MSTORE PUSH1 0x20 DUP2 ADD DUP5 DUP5 DUP5 ADD GT ISZERO PUSH3 0x1B6 JUMPI PUSH1 0x0 DUP1 REVERT JUMPDEST PUSH3 0x1C3 DUP5 DUP3 DUP6 PUSH3 0x2FC JUMP JUMPDEST POP SWAP4 SWAP3 POP POP POP JUMP JUMPDEST PUSH1 0x0 DUP2 MLOAD SWAP1 POP PUSH3 0x1DC DUP2 PUSH3 0x40D JUMP JUMPDEST SWAP3 SWAP2 POP POP JUMP JUMPDEST PUSH1 0x0 DUP3 PUSH1 0x1F DUP4 ADD SLT PUSH3 0x1F4 JUMPI PUSH1 0x0 DUP1 REVERT JUMPDEST DUP2 MLOAD PUSH3 0x206 DUP5 DUP3 PUSH1 0x20 DUP7 ADD PUSH3 0x186 JUMP JUMPDEST SWAP2 POP POP SWAP3 SWAP2 POP POP JUMP JUMPDEST PUSH1 0x0 DUP1 PUSH1 0x40 DUP4 DUP6 SUB SLT ISZERO PUSH3 0x223 JUMPI PUSH1 0x0 DUP1 REVERT JUMPDEST PUSH1 0x0 PUSH3 0x233 DUP6 DUP3 DUP7 ADD PUSH3 0x1CB JUMP JUMPDEST SWAP3 POP POP PUSH1 0x20 DUP4 ADD MLOAD PUSH8 0xFFFFFFFFFFFFFFFF DUP2 GT ISZERO PUSH3 0x251 JUMPI PUSH1 0x0 DUP1 REVERT JUMPDEST PUSH3 0x25F DUP6 DUP3 DUP7 ADD PUSH3 0x1E2 JUMP JUMPDEST SWAP2 POP POP SWAP3 POP SWAP3 SWAP1 POP JUMP JUMPDEST PUSH1 0x0 PUSH3 0x275 PUSH3 0x288 JUMP JUMPDEST SWAP1 POP PUSH3 0x283 DUP3 DUP3 PUSH3 0x368 JUMP JUMPDEST SWAP2 SWAP1 POP JUMP JUMPDEST PUSH1 0x0 PUSH1 0x40 MLOAD SWAP1 POP SWAP1 JUMP JUMPDEST PUSH1 0x0 PUSH8 0xFFFFFFFFFFFFFFFF DUP3 GT ISZERO PUSH3 0x2B0 JUMPI PUSH3 0x2AF PUSH3 0x3CD JUMP JUMPDEST JUMPDEST PUSH3 0x2BB DUP3 PUSH3 0x3FC JUMP JUMPDEST SWAP1 POP PUSH1 0x20 DUP2 ADD SWAP1 POP SWAP2 SWAP1 POP JUMP JUMPDEST PUSH1 0x0 PUSH3 0x2D5 DUP3 PUSH3 0x2DC JUMP JUMPDEST SWAP1 POP SWAP2 SWAP1 POP JUMP JUMPDEST PUSH1 0x0 PUSH20 0xFFFFFFFFFFFFFFFFFFFFFFFFFFFFFFFFFFFFFFFF DUP3 AND SWAP1 POP SWAP2 SWAP1 POP JUMP JUMPDEST PUSH1 0x0 JUMPDEST DUP4 DUP2 LT ISZERO PUSH3 0x31C JUMPI DUP1 DUP3 ADD MLOAD DUP2 DUP5 ADD MSTORE PUSH1 0x20 DUP2 ADD SWAP1 POP PUSH3 0x2FF JUMP JUMPDEST DUP4 DUP2 GT ISZERO PUSH3 0x32C JUMPI PUSH1 0x0 DUP5 DUP5 ADD MSTORE JUMPDEST POP POP POP POP JUMP JUMPDEST PUSH1 0x0 PUSH1 0x2 DUP3 DIV SWAP1 POP PUSH1 0x1 DUP3 AND DUP1 PUSH3 0x34B JUMPI PUSH1 0x7F DUP3 AND SWAP2 POP JUMPDEST PUSH1 0x20 DUP3 LT DUP2 EQ ISZERO PUSH3 0x362 JUMPI PUSH3 0x361 PUSH3 0x39E JUMP JUMPDEST JUMPDEST POP SWAP2 SWAP1 POP JUMP JUMPDEST PUSH3 0x373 DUP3 PUSH3 0x3FC JUMP JUMPDEST DUP2 ADD DUP2 DUP2 LT PUSH8 0xFFFFFFFFFFFFFFFF DUP3 GT OR ISZERO PUSH3 0x395 JUMPI PUSH3 0x394 PUSH3 0x3CD JUMP JUMPDEST JUMPDEST DUP1 PUSH1 0x40 MSTORE POP POP POP JUMP JUMPDEST PUSH32 0x4E487B7100000000000000000000000000000000000000000000000000000000 PUSH1 0x0 MSTORE PUSH1 0x22 PUSH1 0x4 MSTORE PUSH1 0x24 PUSH1 0x0 REVERT JUMPDEST PUSH32 0x4E487B7100000000000000000000000000000000000000000000000000000000 PUSH1 0x0 MSTORE PUSH1 0x41 PUSH1 0x4 MSTORE PUSH1 0x24 PUSH1 0x0 REVERT JUMPDEST PUSH1 0x0 PUSH1 0x1F NOT PUSH1 0x1F DUP4 ADD AND SWAP1 POP SWAP2 SWAP1 POP JUMP JUMPDEST PUSH3 0x418 DUP2 PUSH3 0x2C8 JUMP JUMPDEST DUP2 EQ PUSH3 0x424 JUMPI PUSH1 0x0 DUP1 REVERT JUMPDEST POP JUMP JUMPDEST PUSH2 0x1387 DUP1 PUSH3 0x437 PUSH1 0x0 CODECOPY PUSH1 0x0 RETURN INVALID PUSH1 0x80 PUSH1 0x40 MSTORE CALLVALUE DUP1 ISZERO PUSH2 0x10 JUMPI PUSH1 0x0 DUP1 REVERT JUMPDEST POP PUSH1 0x4 CALLDATASIZE LT PUSH2 0x9E JUMPI PUSH1 0x0 CALLDATALOAD PUSH1 0xE0 SHR DUP1 PUSH4 0x481C6A75 GT PUSH2 0x66 JUMPI DUP1 PUSH4 0x481C6A75 EQ PUSH2 0x149 JUMPI DUP1 PUSH4 0x59F78468 EQ PUSH2 0x167 JUMPI DUP1 PUSH4 0x62D73EB8 EQ PUSH2 0x171 JUMPI DUP1 PUSH4 0xA8311AA8 EQ PUSH2 0x17B JUMPI DUP1 PUSH4 0xB09EA6A1 EQ PUSH2 0x199 JUMPI PUSH2 0x9E JUMP JUMPDEST DUP1 PUSH4 0x24789A9 EQ PUSH2 0xA3 JUMPI DUP1 PUSH4 0x6FDDE03 EQ PUSH2 0xD3 JUMPI DUP1 PUSH4 0xD15FD77 EQ PUSH2 0xF1 JUMPI DUP1 PUSH4 0x2C0A3F89 EQ PUSH2 0x10F JUMPI DUP1 PUSH4 0x4717F97C EQ PUSH2 0x12B JUMPI JUMPDEST PUSH1 0x0 DUP1 REVERT JUMPDEST PUSH2 0xBD PUSH1 0x4 DUP1 CALLDATASIZE SUB DUP2 ADD SWAP1 PUSH2 0xB8 SWAP2 SWAP1 PUSH2 0xCDA JUMP JUMPDEST PUSH2 0x1B5 JUMP JUMPDEST PUSH1 0x40 MLOAD PUSH2 0xCA SWAP2 SWAP1 PUSH2 0x1040 JUMP JUMPDEST PUSH1 0x40 MLOAD DUP1 SWAP2 SUB SWAP1 RETURN JUMPDEST PUSH2 0xDB PUSH2 0x3DD JUMP JUMPDEST PUSH1 0x40 MLOAD PUSH2 0xE8 SWAP2 SWAP1 PUSH2 0x101E JUMP JUMPDEST PUSH1 0x40 MLOAD DUP1 SWAP2 SUB SWAP1 RETURN JUMPDEST PUSH2 0xF9 PUSH2 0x46B JUMP JUMPDEST PUSH1 0x40 MLOAD PUSH2 0x106 SWAP2 SWAP1 PUSH2 0x1062 JUMP JUMPDEST PUSH1 0x40 MLOAD DUP1 SWAP2 SUB SWAP1 RETURN JUMPDEST PUSH2 0x129 PUSH1 0x4 DUP1 CALLDATASIZE SUB DUP2 ADD SWAP1 PUSH2 0x124 SWAP2 SWAP1 PUSH2 0xD03 JUMP JUMPDEST PUSH2 0x471 JUMP JUMPDEST STOP JUMPDEST PUSH2 0x133 PUSH2 0x583 JUMP JUMPDEST PUSH1 0x40 MLOAD PUSH2 0x140 SWAP2 SWAP1 PUSH2 0xFFC JUMP JUMPDEST PUSH1 0x40 MLOAD DUP1 SWAP2 SUB SWAP1 RETURN JUMPDEST PUSH2 0x151 PUSH2 0x5FB JUMP JUMPDEST PUSH1 0x40 MLOAD PUSH2 0x15E SWAP2 SWAP1 PUSH2 0xFBF JUMP JUMPDEST PUSH1 0x40 MLOAD DUP1 SWAP2 SUB SWAP1 RETURN JUMPDEST PUSH2 0x16F PUSH2 0x621 JUMP JUMPDEST STOP JUMPDEST PUSH2 0x179 PUSH2 0x6B8 JUMP JUMPDEST STOP JUMPDEST PUSH2 0x183 PUSH2 0x76F JUMP JUMPDEST PUSH1 0x40 MLOAD PUSH2 0x190 SWAP2 SWAP1 PUSH2 0xFDA JUMP JUMPDEST PUSH1 0x40 MLOAD DUP1 SWAP2 SUB SWAP1 RETURN JUMPDEST PUSH2 0x1B3 PUSH1 0x4 DUP1 CALLDATASIZE SUB DUP2 ADD SWAP1 PUSH2 0x1AE SWAP2 SWAP1 PUSH2 0xC2F JUMP JUMPDEST PUSH2 0x98E JUMP JUMPDEST STOP JUMPDEST PUSH2 0x1BD PUSH2 0xAE7 JUMP JUMPDEST PUSH1 0x0 PUSH1 0x5 DUP4 DUP2 SLOAD DUP2 LT PUSH2 0x1F9 JUMPI PUSH32 0x4E487B7100000000000000000000000000000000000000000000000000000000 PUSH1 0x0 MSTORE PUSH1 0x32 PUSH1 0x4 MSTORE PUSH1 0x24 PUSH1 0x0 REVERT JUMPDEST SWAP1 PUSH1 0x0 MSTORE PUSH1 0x20 PUSH1 0x0 KECCAK256 SWAP1 PUSH1 0x4 MUL ADD SWAP1 POP DUP1 PUSH1 0x40 MLOAD DUP1 PUSH1 0x80 ADD PUSH1 0x40 MSTORE SWAP1 DUP2 PUSH1 0x0 DUP3 ADD DUP1 SLOAD PUSH2 0x225 SWAP1 PUSH2 0x11F0 JUMP JUMPDEST DUP1 PUSH1 0x1F ADD PUSH1 0x20 DUP1 SWAP2 DIV MUL PUSH1 0x20 ADD PUSH1 0x40 MLOAD SWAP1 DUP2 ADD PUSH1 0x40 MSTORE DUP1 SWAP3 SWAP2 SWAP1 DUP2 DUP2 MSTORE PUSH1 0x20 ADD DUP3 DUP1 SLOAD PUSH2 0x251 SWAP1 PUSH2 0x11F0 JUMP JUMPDEST DUP1 ISZERO PUSH2 0x29E JUMPI DUP1 PUSH1 0x1F LT PUSH2 0x273 JUMPI PUSH2 0x100 DUP1 DUP4 SLOAD DIV MUL DUP4 MSTORE SWAP2 PUSH1 0x20 ADD SWAP2 PUSH2 0x29E JUMP JUMPDEST DUP3 ADD SWAP2 SWAP1 PUSH1 0x0 MSTORE PUSH1 0x20 PUSH1 0x0 KECCAK256 SWAP1 JUMPDEST DUP2 SLOAD DUP2 MSTORE SWAP1 PUSH1 0x1 ADD SWAP1 PUSH1 0x20 ADD DUP1 DUP4 GT PUSH2 0x281 JUMPI DUP3 SWAP1 SUB PUSH1 0x1F AND DUP3 ADD SWAP2 JUMPDEST POP POP POP POP POP DUP2 MSTORE PUSH1 0x20 ADD PUSH1 0x1 DUP3 ADD DUP1 SLOAD PUSH2 0x2B7 SWAP1 PUSH2 0x11F0 JUMP JUMPDEST DUP1 PUSH1 0x1F ADD PUSH1 0x20 DUP1 SWAP2 DIV MUL PUSH1 0x20 ADD PUSH1 0x40 MLOAD SWAP1 DUP2 ADD PUSH1 0x40 MSTORE DUP1 SWAP3 SWAP2 SWAP1 DUP2 DUP2 MSTORE PUSH1 0x20 ADD DUP3 DUP1 SLOAD PUSH2 0x2E3 SWAP1 PUSH2 0x11F0 JUMP JUMPDEST DUP1 ISZERO PUSH2 0x330 JUMPI DUP1 PUSH1 0x1F LT PUSH2 0x305 JUMPI PUSH2 0x100 DUP1 DUP4 SLOAD DIV MUL DUP4 MSTORE SWAP2 PUSH1 0x20 ADD SWAP2 PUSH2 0x330 JUMP JUMPDEST DUP3 ADD SWAP2 SWAP1 PUSH1 0x0 MSTORE PUSH1 0x20 PUSH1 0x0 KECCAK256 SWAP1 JUMPDEST DUP2 SLOAD DUP2 MSTORE SWAP1 PUSH1 0x1 ADD SWAP1 PUSH1 0x20 ADD DUP1 DUP4 GT PUSH2 0x313 JUMPI DUP3 SWAP1 SUB PUSH1 0x1F AND DUP3 ADD SWAP2 JUMPDEST POP POP POP POP POP DUP2 MSTORE PUSH1 0x20 ADD PUSH1 0x2 DUP3 ADD SLOAD DUP2 MSTORE PUSH1 0x20 ADD PUSH1 0x3 DUP3 ADD DUP1 SLOAD PUSH2 0x353 SWAP1 PUSH2 0x11F0 JUMP JUMPDEST DUP1 PUSH1 0x1F ADD PUSH1 0x20 DUP1 SWAP2 DIV MUL PUSH1 0x20 ADD PUSH1 0x40 MLOAD SWAP1 DUP2 ADD PUSH1 0x40 MSTORE DUP1 SWAP3 SWAP2 SWAP1 DUP2 DUP2 MSTORE PUSH1 0x20 ADD DUP3 DUP1 SLOAD PUSH2 0x37F SWAP1 PUSH2 0x11F0 JUMP JUMPDEST DUP1 ISZERO PUSH2 0x3CC JUMPI DUP1 PUSH1 0x1F LT PUSH2 0x3A1 JUMPI PUSH2 0x100 DUP1 DUP4 SLOAD DIV MUL DUP4 MSTORE SWAP2 PUSH1 0x20 ADD SWAP2 PUSH2 0x3CC JUMP JUMPDEST DUP3 ADD SWAP2 SWAP1 PUSH1 0x0 MSTORE PUSH1 0x20 PUSH1 0x0 KECCAK256 SWAP1 JUMPDEST DUP2 SLOAD DUP2 MSTORE SWAP1 PUSH1 0x1 ADD SWAP1 PUSH1 0x20 ADD DUP1 DUP4 GT PUSH2 0x3AF JUMPI DUP3 SWAP1 SUB PUSH1 0x1F AND DUP3 ADD SWAP2 JUMPDEST POP POP POP POP POP DUP2 MSTORE POP POP SWAP2 POP POP SWAP2 SWAP1 POP JUMP JUMPDEST PUSH1 0x1 DUP1 SLOAD PUSH2 0x3EA SWAP1 PUSH2 0x11F0 JUMP JUMPDEST DUP1 PUSH1 0x1F ADD PUSH1 0x20 DUP1 SWAP2 DIV MUL PUSH1 0x20 ADD PUSH1 0x40 MLOAD SWAP1 DUP2 ADD PUSH1 0x40 MSTORE DUP1 SWAP3 SWAP2 SWAP1 DUP2 DUP2 MSTORE PUSH1 0x20 ADD DUP3 DUP1 SLOAD PUSH2 0x416 SWAP1 PUSH2 0x11F0 JUMP JUMPDEST DUP1 ISZERO PUSH2 0x463 JUMPI DUP1 PUSH1 0x1F LT PUSH2 0x438 JUMPI PUSH2 0x100 DUP1 DUP4 SLOAD DIV MUL DUP4 MSTORE SWAP2 PUSH1 0x20 ADD SWAP2 PUSH2 0x463 JUMP JUMPDEST DUP3 ADD SWAP2 SWAP1 PUSH1 0x0 MSTORE PUSH1 0x20 PUSH1 0x0 KECCAK256 SWAP1 JUMPDEST DUP2 SLOAD DUP2 MSTORE SWAP1 PUSH1 0x1 ADD SWAP1 PUSH1 0x20 ADD DUP1 DUP4 GT PUSH2 0x446 JUMPI DUP3 SWAP1 SUB PUSH1 0x1F AND DUP3 ADD SWAP2 JUMPDEST POP POP POP POP POP DUP2 JUMP JUMPDEST PUSH1 0x0 SLOAD DUP2 JUMP JUMPDEST PUSH1 0x1 ISZERO ISZERO PUSH1 0x4 PUSH1 0x1 SWAP1 SLOAD SWAP1 PUSH2 0x100 EXP SWAP1 DIV PUSH1 0xFF AND ISZERO ISZERO EQ PUSH2 0x491 JUMPI PUSH1 0x0 DUP1 REVERT JUMPDEST PUSH1 0x0 ISZERO ISZERO PUSH1 0x3 PUSH1 0x0 DUP5 DUP2 MSTORE PUSH1 0x20 ADD SWAP1 DUP2 MSTORE PUSH1 0x20 ADD PUSH1 0x0 KECCAK256 PUSH1 0x0 SWAP1 SLOAD SWAP1 PUSH2 0x100 EXP SWAP1 DIV PUSH1 0xFF AND ISZERO ISZERO EQ PUSH2 0x4C2 JUMPI PUSH1 0x0 DUP1 REVERT JUMPDEST PUSH1 0x0 ISZERO ISZERO PUSH1 0x4 PUSH1 0x0 SWAP1 SLOAD SWAP1 PUSH2 0x100 EXP SWAP1 DIV PUSH1 0xFF AND ISZERO ISZERO EQ PUSH2 0x4E2 JUMPI PUSH1 0x0 DUP1 REVERT JUMPDEST PUSH1 0x1 PUSH1 0x3 PUSH1 0x0 DUP5 DUP2 MSTORE PUSH1 0x20 ADD SWAP1 DUP2 MSTORE PUSH1 0x20 ADD PUSH1 0x0 KECCAK256 PUSH1 0x0 PUSH2 0x100 EXP DUP2 SLOAD DUP2 PUSH1 0xFF MUL NOT AND SWAP1 DUP4 ISZERO ISZERO MUL OR SWAP1 SSTORE POP PUSH1 0x6 DUP2 DUP2 SLOAD DUP2 LT PUSH2 0x548 JUMPI PUSH32 0x4E487B7100000000000000000000000000000000000000000000000000000000 PUSH1 0x0 MSTORE PUSH1 0x32 PUSH1 0x4 MSTORE PUSH1 0x24 PUSH1 0x0 REVERT JUMPDEST SWAP1 PUSH1 0x0 MSTORE PUSH1 0x20 PUSH1 0x0 KECCAK256 ADD PUSH1 0x0 DUP2 SLOAD DUP1 SWAP3 SWAP2 SWAP1 PUSH2 0x563 SWAP1 PUSH2 0x1253 JUMP JUMPDEST SWAP2 SWAP1 POP SSTORE POP PUSH1 0x0 DUP1 DUP2 SLOAD DUP1 SWAP3 SWAP2 SWAP1 PUSH2 0x57A SWAP1 PUSH2 0x1253 JUMP JUMPDEST SWAP2 SWAP1 POP SSTORE POP POP POP JUMP JUMPDEST PUSH1 0x60 PUSH1 0x1 ISZERO ISZERO PUSH1 0x4 PUSH1 0x0 SWAP1 SLOAD SWAP1 PUSH2 0x100 EXP SWAP1 DIV PUSH1 0xFF AND ISZERO ISZERO EQ PUSH2 0x5A5 JUMPI PUSH1 0x0 DUP1 REVERT JUMPDEST PUSH1 0x6 DUP1 SLOAD DUP1 PUSH1 0x20 MUL PUSH1 0x20 ADD PUSH1 0x40 MLOAD SWAP1 DUP2 ADD PUSH1 0x40 MSTORE DUP1 SWAP3 SWAP2 SWAP1 DUP2 DUP2 MSTORE PUSH1 0x20 ADD DUP3 DUP1 SLOAD DUP1 ISZERO PUSH2 0x5F1 JUMPI PUSH1 0x20 MUL DUP3 ADD SWAP2 SWAP1 PUSH1 0x0 MSTORE PUSH1 0x20 PUSH1 0x0 KECCAK256 SWAP1 JUMPDEST DUP2 SLOAD DUP2 MSTORE PUSH1 0x20 ADD SWAP1 PUSH1 0x1 ADD SWAP1 DUP1 DUP4 GT PUSH2 0x5DD JUMPI JUMPDEST POP POP POP POP POP SWAP1 POP SWAP1 JUMP JUMPDEST PUSH1 0x2 PUSH1 0x0 SWAP1 SLOAD SWAP1 PUSH2 0x100 EXP SWAP1 DIV PUSH20 0xFFFFFFFFFFFFFFFFFFFFFFFFFFFFFFFFFFFFFFFF AND DUP2 JUMP JUMPDEST PUSH1 0x2 PUSH1 0x0 SWAP1 SLOAD SWAP1 PUSH2 0x100 EXP SWAP1 DIV PUSH20 0xFFFFFFFFFFFFFFFFFFFFFFFFFFFFFFFFFFFFFFFF AND PUSH20 0xFFFFFFFFFFFFFFFFFFFFFFFFFFFFFFFFFFFFFFFF AND CALLER PUSH20 0xFFFFFFFFFFFFFFFFFFFFFFFFFFFFFFFFFFFFFFFF AND EQ PUSH2 0x67B JUMPI PUSH1 0x0 DUP1 REVERT JUMPDEST PUSH1 0x1 ISZERO ISZERO PUSH1 0x4 PUSH1 0x1 SWAP1 SLOAD SWAP1 PUSH2 0x100 EXP SWAP1 DIV PUSH1 0xFF AND ISZERO ISZERO EQ PUSH2 0x69B JUMPI PUSH1 0x0 DUP1 REVERT JUMPDEST PUSH1 0x1 PUSH1 0x4 PUSH1 0x0 PUSH2 0x100 EXP DUP2 SLOAD DUP2 PUSH1 0xFF MUL NOT AND SWAP1 DUP4 ISZERO ISZERO MUL OR SWAP1 SSTORE POP JUMP JUMPDEST PUSH1 0x2 PUSH1 0x0 SWAP1 SLOAD SWAP1 PUSH2 0x100 EXP SWAP1 DIV PUSH20 0xFFFFFFFFFFFFFFFFFFFFFFFFFFFFFFFFFFFFFFFF AND PUSH20 0xFFFFFFFFFFFFFFFFFFFFFFFFFFFFFFFFFFFFFFFF AND CALLER PUSH20 0xFFFFFFFFFFFFFFFFFFFFFFFFFFFFFFFFFFFFFFFF AND EQ PUSH2 0x712 JUMPI PUSH1 0x0 DUP1 REVERT JUMPDEST PUSH1 0x0 ISZERO ISZERO PUSH1 0x4 PUSH1 0x0 SWAP1 SLOAD SWAP1 PUSH2 0x100 EXP SWAP1 DIV PUSH1 0xFF AND ISZERO ISZERO EQ PUSH2 0x732 JUMPI PUSH1 0x0 DUP1 REVERT JUMPDEST PUSH1 0x0 ISZERO ISZERO PUSH1 0x4 PUSH1 0x1 SWAP1 SLOAD SWAP1 PUSH2 0x100 EXP SWAP1 DIV PUSH1 0xFF AND ISZERO ISZERO EQ PUSH2 0x752 JUMPI PUSH1 0x0 DUP1 REVERT JUMPDEST PUSH1 0x1 PUSH1 0x4 PUSH1 0x1 PUSH2 0x100 EXP DUP2 SLOAD DUP2 PUSH1 0xFF MUL NOT AND SWAP1 DUP4 ISZERO ISZERO MUL OR SWAP1 SSTORE POP JUMP JUMPDEST PUSH1 0x60 PUSH1 0x5 DUP1 SLOAD DUP1 PUSH1 0x20 MUL PUSH1 0x20 ADD PUSH1 0x40 MLOAD SWAP1 DUP2 ADD PUSH1 0x40 MSTORE DUP1 SWAP3 SWAP2 SWAP1 DUP2 DUP2 MSTORE PUSH1 0x20 ADD PUSH1 0x0 SWAP1 JUMPDEST DUP3 DUP3 LT ISZERO PUSH2 0x985 JUMPI DUP4 DUP3 SWAP1 PUSH1 0x0 MSTORE PUSH1 0x20 PUSH1 0x0 KECCAK256 SWAP1 PUSH1 0x4 MUL ADD PUSH1 0x40 MLOAD DUP1 PUSH1 0x80 ADD PUSH1 0x40 MSTORE SWAP1 DUP2 PUSH1 0x0 DUP3 ADD DUP1 SLOAD PUSH2 0x7C6 SWAP1 PUSH2 0x11F0 JUMP JUMPDEST DUP1 PUSH1 0x1F ADD PUSH1 0x20 DUP1 SWAP2 DIV MUL PUSH1 0x20 ADD PUSH1 0x40 MLOAD SWAP1 DUP2 ADD PUSH1 0x40 MSTORE DUP1 SWAP3 SWAP2 SWAP1 DUP2 DUP2 MSTORE PUSH1 0x20 ADD DUP3 DUP1 SLOAD PUSH2 0x7F2 SWAP1 PUSH2 0x11F0 JUMP JUMPDEST DUP1 ISZERO PUSH2 0x83F JUMPI DUP1 PUSH1 0x1F LT PUSH2 0x814 JUMPI PUSH2 0x100 DUP1 DUP4 SLOAD DIV MUL DUP4 MSTORE SWAP2 PUSH1 0x20 ADD SWAP2 PUSH2 0x83F JUMP JUMPDEST DUP3 ADD SWAP2 SWAP1 PUSH1 0x0 MSTORE PUSH1 0x20 PUSH1 0x0 KECCAK256 SWAP1 JUMPDEST DUP2 SLOAD DUP2 MSTORE SWAP1 PUSH1 0x1 ADD SWAP1 PUSH1 0x20 ADD DUP1 DUP4 GT PUSH2 0x822 JUMPI DUP3 SWAP1 SUB PUSH1 0x1F AND DUP3 ADD SWAP2 JUMPDEST POP POP POP POP POP DUP2 MSTORE PUSH1 0x20 ADD PUSH1 0x1 DUP3 ADD DUP1 SLOAD PUSH2 0x858 SWAP1 PUSH2 0x11F0 JUMP JUMPDEST DUP1 PUSH1 0x1F ADD PUSH1 0x20 DUP1 SWAP2 DIV MUL PUSH1 0x20 ADD PUSH1 0x40 MLOAD SWAP1 DUP2 ADD PUSH1 0x40 MSTORE DUP1 SWAP3 SWAP2 SWAP1 DUP2 DUP2 MSTORE PUSH1 0x20 ADD DUP3 DUP1 SLOAD PUSH2 0x884 SWAP1 PUSH2 0x11F0 JUMP JUMPDEST DUP1 ISZERO PUSH2 0x8D1 JUMPI DUP1 PUSH1 0x1F LT PUSH2 0x8A6 JUMPI PUSH2 0x100 DUP1 DUP4 SLOAD DIV MUL DUP4 MSTORE SWAP2 PUSH1 0x20 ADD SWAP2 PUSH2 0x8D1 JUMP JUMPDEST DUP3 ADD SWAP2 SWAP1 PUSH1 0x0 MSTORE PUSH1 0x20 PUSH1 0x0 KECCAK256 SWAP1 JUMPDEST DUP2 SLOAD DUP2 MSTORE SWAP1 PUSH1 0x1 ADD SWAP1 PUSH1 0x20 ADD DUP1 DUP4 GT PUSH2 0x8B4 JUMPI DUP3 SWAP1 SUB PUSH1 0x1F AND DUP3 ADD SWAP2 JUMPDEST POP POP POP POP POP DUP2 MSTORE PUSH1 0x20 ADD PUSH1 0x2 DUP3 ADD SLOAD DUP2 MSTORE PUSH1 0x20 ADD PUSH1 0x3 DUP3 ADD DUP1 SLOAD PUSH2 0x8F4 SWAP1 PUSH2 0x11F0 JUMP JUMPDEST DUP1 PUSH1 0x1F ADD PUSH1 0x20 DUP1 SWAP2 DIV MUL PUSH1 0x20 ADD PUSH1 0x40 MLOAD SWAP1 DUP2 ADD PUSH1 0x40 MSTORE DUP1 SWAP3 SWAP2 SWAP1 DUP2 DUP2 MSTORE PUSH1 0x20 ADD DUP3 DUP1 SLOAD PUSH2 0x920 SWAP1 PUSH2 0x11F0 JUMP JUMPDEST DUP1 ISZERO PUSH2 0x96D JUMPI DUP1 PUSH1 0x1F LT PUSH2 0x942 JUMPI PUSH2 0x100 DUP1 DUP4 SLOAD DIV MUL DUP4 MSTORE SWAP2 PUSH1 0x20 ADD SWAP2 PUSH2 0x96D JUMP JUMPDEST DUP3 ADD SWAP2 SWAP1 PUSH1 0x0 MSTORE PUSH1 0x20 PUSH1 0x0 KECCAK256 SWAP1 JUMPDEST DUP2 SLOAD DUP2 MSTORE SWAP1 PUSH1 0x1 ADD SWAP1 PUSH1 0x20 ADD DUP1 DUP4 GT PUSH2 0x950 JUMPI DUP3 SWAP1 SUB PUSH1 0x1F AND DUP3 ADD SWAP2 JUMPDEST POP POP POP POP POP DUP2 MSTORE POP POP DUP2 MSTORE PUSH1 0x20 ADD SWAP1 PUSH1 0x1 ADD SWAP1 PUSH2 0x793 JUMP JUMPDEST POP POP POP POP SWAP1 POP SWAP1 JUMP JUMPDEST PUSH1 0x2 PUSH1 0x0 SWAP1 SLOAD SWAP1 PUSH2 0x100 EXP SWAP1 DIV PUSH20 0xFFFFFFFFFFFFFFFFFFFFFFFFFFFFFFFFFFFFFFFF AND PUSH20 0xFFFFFFFFFFFFFFFFFFFFFFFFFFFFFFFFFFFFFFFF AND CALLER PUSH20 0xFFFFFFFFFFFFFFFFFFFFFFFFFFFFFFFFFFFFFFFF AND EQ PUSH2 0x9E8 JUMPI PUSH1 0x0 DUP1 REVERT JUMPDEST PUSH1 0x4 PUSH1 0x1 SWAP1 SLOAD SWAP1 PUSH2 0x100 EXP SWAP1 DIV PUSH1 0xFF AND ISZERO PUSH2 0xA02 JUMPI PUSH1 0x0 DUP1 REVERT JUMPDEST PUSH1 0x0 PUSH1 0x40 MLOAD DUP1 PUSH1 0x80 ADD PUSH1 0x40 MSTORE DUP1 DUP7 DUP2 MSTORE PUSH1 0x20 ADD DUP6 DUP2 MSTORE PUSH1 0x20 ADD DUP5 DUP2 MSTORE PUSH1 0x20 ADD DUP4 DUP2 MSTORE POP SWAP1 POP PUSH1 0x5 DUP2 SWAP1 DUP1 PUSH1 0x1 DUP2 SLOAD ADD DUP1 DUP3 SSTORE DUP1 SWAP2 POP POP PUSH1 0x1 SWAP1 SUB SWAP1 PUSH1 0x0 MSTORE PUSH1 0x20 PUSH1 0x0 KECCAK256 SWAP1 PUSH1 0x4 MUL ADD PUSH1 0x0 SWAP1 SWAP2 SWAP1 SWAP2 SWAP1 SWAP2 POP PUSH1 0x0 DUP3 ADD MLOAD DUP2 PUSH1 0x0 ADD SWAP1 DUP1 MLOAD SWAP1 PUSH1 0x20 ADD SWAP1 PUSH2 0xA6F SWAP3 SWAP2 SWAP1 PUSH2 0xB0F JUMP JUMPDEST POP PUSH1 0x20 DUP3 ADD MLOAD DUP2 PUSH1 0x1 ADD SWAP1 DUP1 MLOAD SWAP1 PUSH1 0x20 ADD SWAP1 PUSH2 0xA8C SWAP3 SWAP2 SWAP1 PUSH2 0xB0F JUMP JUMPDEST POP PUSH1 0x40 DUP3 ADD MLOAD DUP2 PUSH1 0x2 ADD SSTORE PUSH1 0x60 DUP3 ADD MLOAD DUP2 PUSH1 0x3 ADD SWAP1 DUP1 MLOAD SWAP1 PUSH1 0x20 ADD SWAP1 PUSH2 0xAB3 SWAP3 SWAP2 SWAP1 PUSH2 0xB0F JUMP JUMPDEST POP POP POP PUSH1 0x6 PUSH1 0x0 SWAP1 DUP1 PUSH1 0x1 DUP2 SLOAD ADD DUP1 DUP3 SSTORE DUP1 SWAP2 POP POP PUSH1 0x1 SWAP1 SUB SWAP1 PUSH1 0x0 MSTORE PUSH1 0x20 PUSH1 0x0 KECCAK256 ADD PUSH1 0x0 SWAP1 SWAP2 SWAP1 SWAP2 SWAP1 SWAP2 POP SSTORE POP POP POP POP POP JUMP JUMPDEST PUSH1 0x40 MLOAD DUP1 PUSH1 0x80 ADD PUSH1 0x40 MSTORE DUP1 PUSH1 0x60 DUP2 MSTORE PUSH1 0x20 ADD PUSH1 0x60 DUP2 MSTORE PUSH1 0x20 ADD PUSH1 0x0 DUP2 MSTORE PUSH1 0x20 ADD PUSH1 0x60 DUP2 MSTORE POP SWAP1 JUMP JUMPDEST DUP3 DUP1 SLOAD PUSH2 0xB1B SWAP1 PUSH2 0x11F0 JUMP JUMPDEST SWAP1 PUSH1 0x0 MSTORE PUSH1 0x20 PUSH1 0x0 KECCAK256 SWAP1 PUSH1 0x1F ADD PUSH1 0x20 SWAP1 DIV DUP2 ADD SWAP3 DUP3 PUSH2 0xB3D JUMPI PUSH1 0x0 DUP6 SSTORE PUSH2 0xB84 JUMP JUMPDEST DUP3 PUSH1 0x1F LT PUSH2 0xB56 JUMPI DUP1 MLOAD PUSH1 0xFF NOT AND DUP4 DUP1 ADD OR DUP6 SSTORE PUSH2 0xB84 JUMP JUMPDEST DUP3 DUP1 ADD PUSH1 0x1 ADD DUP6 SSTORE DUP3 ISZERO PUSH2 0xB84 JUMPI SWAP2 DUP3 ADD JUMPDEST DUP3 DUP2 GT ISZERO PUSH2 0xB83 JUMPI DUP3 MLOAD DUP3 SSTORE SWAP2 PUSH1 0x20 ADD SWAP2 SWAP1 PUSH1 0x1 ADD SWAP1 PUSH2 0xB68 JUMP JUMPDEST JUMPDEST POP SWAP1 POP PUSH2 0xB91 SWAP2 SWAP1 PUSH2 0xB95 JUMP JUMPDEST POP SWAP1 JUMP JUMPDEST JUMPDEST DUP1 DUP3 GT ISZERO PUSH2 0xBAE JUMPI PUSH1 0x0 DUP2 PUSH1 0x0 SWAP1 SSTORE POP PUSH1 0x1 ADD PUSH2 0xB96 JUMP JUMPDEST POP SWAP1 JUMP JUMPDEST PUSH1 0x0 PUSH2 0xBC5 PUSH2 0xBC0 DUP5 PUSH2 0x10A2 JUMP JUMPDEST PUSH2 0x107D JUMP JUMPDEST SWAP1 POP DUP3 DUP2 MSTORE PUSH1 0x20 DUP2 ADD DUP5 DUP5 DUP5 ADD GT ISZERO PUSH2 0xBDD JUMPI PUSH1 0x0 DUP1 REVERT JUMPDEST PUSH2 0xBE8 DUP5 DUP3 DUP6 PUSH2 0x11AE JUMP JUMPDEST POP SWAP4 SWAP3 POP POP POP JUMP JUMPDEST PUSH1 0x0 DUP3 PUSH1 0x1F DUP4 ADD SLT PUSH2 0xC01 JUMPI PUSH1 0x0 DUP1 REVERT JUMPDEST DUP2 CALLDATALOAD PUSH2 0xC11 DUP5 DUP3 PUSH1 0x20 DUP7 ADD PUSH2 0xBB2 JUMP JUMPDEST SWAP2 POP POP SWAP3 SWAP2 POP POP JUMP JUMPDEST PUSH1 0x0 DUP2 CALLDATALOAD SWAP1 POP PUSH2 0xC29 DUP2 PUSH2 0x133A JUMP JUMPDEST SWAP3 SWAP2 POP POP JUMP JUMPDEST PUSH1 0x0 DUP1 PUSH1 0x0 DUP1 PUSH1 0x80 DUP6 DUP8 SUB SLT ISZERO PUSH2 0xC45 JUMPI PUSH1 0x0 DUP1 REVERT JUMPDEST PUSH1 0x0 DUP6 ADD CALLDATALOAD PUSH8 0xFFFFFFFFFFFFFFFF DUP2 GT ISZERO PUSH2 0xC5F JUMPI PUSH1 0x0 DUP1 REVERT JUMPDEST PUSH2 0xC6B DUP8 DUP3 DUP9 ADD PUSH2 0xBF0 JUMP JUMPDEST SWAP5 POP POP PUSH1 0x20 DUP6 ADD CALLDATALOAD PUSH8 0xFFFFFFFFFFFFFFFF DUP2 GT ISZERO PUSH2 0xC88 JUMPI PUSH1 0x0 DUP1 REVERT JUMPDEST PUSH2 0xC94 DUP8 DUP3 DUP9 ADD PUSH2 0xBF0 JUMP JUMPDEST SWAP4 POP POP PUSH1 0x40 PUSH2 0xCA5 DUP8 DUP3 DUP9 ADD PUSH2 0xC1A JUMP JUMPDEST SWAP3 POP POP PUSH1 0x60 DUP6 ADD CALLDATALOAD PUSH8 0xFFFFFFFFFFFFFFFF DUP2 GT ISZERO PUSH2 0xCC2 JUMPI PUSH1 0x0 DUP1 REVERT JUMPDEST PUSH2 0xCCE DUP8 DUP3 DUP9 ADD PUSH2 0xBF0 JUMP JUMPDEST SWAP2 POP POP SWAP3 SWAP6 SWAP2 SWAP5 POP SWAP3 POP JUMP JUMPDEST PUSH1 0x0 PUSH1 0x20 DUP3 DUP5 SUB SLT ISZERO PUSH2 0xCEC JUMPI PUSH1 0x0 DUP1 REVERT JUMPDEST PUSH1 0x0 PUSH2 0xCFA DUP5 DUP3 DUP6 ADD PUSH2 0xC1A JUMP JUMPDEST SWAP2 POP POP SWAP3 SWAP2 POP POP JUMP JUMPDEST PUSH1 0x0 DUP1 PUSH1 0x40 DUP4 DUP6 SUB SLT ISZERO PUSH2 0xD16 JUMPI PUSH1 0x0 DUP1 REVERT JUMPDEST PUSH1 0x0 PUSH2 0xD24 DUP6 DUP3 DUP7 ADD PUSH2 0xC1A JUMP JUMPDEST SWAP3 POP POP PUSH1 0x20 PUSH2 0xD35 DUP6 DUP3 DUP7 ADD PUSH2 0xC1A JUMP JUMPDEST SWAP2 POP POP SWAP3 POP SWAP3 SWAP1 POP JUMP JUMPDEST PUSH1 0x0 PUSH2 0xD4B DUP4 DUP4 PUSH2 0xEBF JUMP JUMPDEST SWAP1 POP SWAP3 SWAP2 POP POP JUMP JUMPDEST PUSH1 0x0 PUSH2 0xD5F DUP4 DUP4 PUSH2 0xFA1 JUMP JUMPDEST PUSH1 0x20 DUP4 ADD SWAP1 POP SWAP3 SWAP2 POP POP JUMP JUMPDEST PUSH2 0xD74 DUP2 PUSH2 0x1172 JUMP JUMPDEST DUP3 MSTORE POP POP JUMP JUMPDEST PUSH1 0x0 PUSH2 0xD85 DUP3 PUSH2 0x10F3 JUMP JUMPDEST PUSH2 0xD8F DUP2 DUP6 PUSH2 0x112E JUMP JUMPDEST SWAP4 POP DUP4 PUSH1 0x20 DUP3 MUL DUP6 ADD PUSH2 0xDA1 DUP6 PUSH2 0x10D3 JUMP JUMPDEST DUP1 PUSH1 0x0 JUMPDEST DUP6 DUP2 LT ISZERO PUSH2 0xDDD JUMPI DUP5 DUP5 SUB DUP10 MSTORE DUP2 MLOAD PUSH2 0xDBE DUP6 DUP3 PUSH2 0xD3F JUMP JUMPDEST SWAP5 POP PUSH2 0xDC9 DUP4 PUSH2 0x1114 JUMP JUMPDEST SWAP3 POP PUSH1 0x20 DUP11 ADD SWAP10 POP POP PUSH1 0x1 DUP2 ADD SWAP1 POP PUSH2 0xDA5 JUMP JUMPDEST POP DUP3 SWAP8 POP DUP8 SWAP6 POP POP POP POP POP POP SWAP3 SWAP2 POP POP JUMP JUMPDEST PUSH1 0x0 PUSH2 0xDFA DUP3 PUSH2 0x10FE JUMP JUMPDEST PUSH2 0xE04 DUP2 DUP6 PUSH2 0x113F JUMP JUMPDEST SWAP4 POP PUSH2 0xE0F DUP4 PUSH2 0x10E3 JUMP JUMPDEST DUP1 PUSH1 0x0 JUMPDEST DUP4 DUP2 LT ISZERO PUSH2 0xE40 JUMPI DUP2 MLOAD PUSH2 0xE27 DUP9 DUP3 PUSH2 0xD53 JUMP JUMPDEST SWAP8 POP PUSH2 0xE32 DUP4 PUSH2 0x1121 JUMP JUMPDEST SWAP3 POP POP PUSH1 0x1 DUP2 ADD SWAP1 POP PUSH2 0xE13 JUMP JUMPDEST POP DUP6 SWAP4 POP POP POP POP SWAP3 SWAP2 POP POP JUMP JUMPDEST PUSH1 0x0 PUSH2 0xE58 DUP3 PUSH2 0x1109 JUMP JUMPDEST PUSH2 0xE62 DUP2 DUP6 PUSH2 0x1150 JUMP JUMPDEST SWAP4 POP PUSH2 0xE72 DUP2 DUP6 PUSH1 0x20 DUP7 ADD PUSH2 0x11BD JUMP JUMPDEST PUSH2 0xE7B DUP2 PUSH2 0x1329 JUMP JUMPDEST DUP5 ADD SWAP2 POP POP SWAP3 SWAP2 POP POP JUMP JUMPDEST PUSH1 0x0 PUSH2 0xE91 DUP3 PUSH2 0x1109 JUMP JUMPDEST PUSH2 0xE9B DUP2 DUP6 PUSH2 0x1161 JUMP JUMPDEST SWAP4 POP PUSH2 0xEAB DUP2 DUP6 PUSH1 0x20 DUP7 ADD PUSH2 0x11BD JUMP JUMPDEST PUSH2 0xEB4 DUP2 PUSH2 0x1329 JUMP JUMPDEST DUP5 ADD SWAP2 POP POP SWAP3 SWAP2 POP POP JUMP JUMPDEST PUSH1 0x0 PUSH1 0x80 DUP4 ADD PUSH1 0x0 DUP4 ADD MLOAD DUP5 DUP3 SUB PUSH1 0x0 DUP7 ADD MSTORE PUSH2 0xEDC DUP3 DUP3 PUSH2 0xE4D JUMP JUMPDEST SWAP2 POP POP PUSH1 0x20 DUP4 ADD MLOAD DUP5 DUP3 SUB PUSH1 0x20 DUP7 ADD MSTORE PUSH2 0xEF6 DUP3 DUP3 PUSH2 0xE4D JUMP JUMPDEST SWAP2 POP POP PUSH1 0x40 DUP4 ADD MLOAD PUSH2 0xF0B PUSH1 0x40 DUP7 ADD DUP3 PUSH2 0xFA1 JUMP JUMPDEST POP PUSH1 0x60 DUP4 ADD MLOAD DUP5 DUP3 SUB PUSH1 0x60 DUP7 ADD MSTORE PUSH2 0xF23 DUP3 DUP3 PUSH2 0xE4D JUMP JUMPDEST SWAP2 POP POP DUP1 SWAP2 POP POP SWAP3 SWAP2 POP POP JUMP JUMPDEST PUSH1 0x0 PUSH1 0x80 DUP4 ADD PUSH1 0x0 DUP4 ADD MLOAD DUP5 DUP3 SUB PUSH1 0x0 DUP7 ADD MSTORE PUSH2 0xF4D DUP3 DUP3 PUSH2 0xE4D JUMP JUMPDEST SWAP2 POP POP PUSH1 0x20 DUP4 ADD MLOAD DUP5 DUP3 SUB PUSH1 0x20 DUP7 ADD MSTORE PUSH2 0xF67 DUP3 DUP3 PUSH2 0xE4D JUMP JUMPDEST SWAP2 POP POP PUSH1 0x40 DUP4 ADD MLOAD PUSH2 0xF7C PUSH1 0x40 DUP7 ADD DUP3 PUSH2 0xFA1 JUMP JUMPDEST POP PUSH1 0x60 DUP4 ADD MLOAD DUP5 DUP3 SUB PUSH1 0x60 DUP7 ADD MSTORE PUSH2 0xF94 DUP3 DUP3 PUSH2 0xE4D JUMP JUMPDEST SWAP2 POP POP DUP1 SWAP2 POP POP SWAP3 SWAP2 POP POP JUMP JUMPDEST PUSH2 0xFAA DUP2 PUSH2 0x11A4 JUMP JUMPDEST DUP3 MSTORE POP POP JUMP JUMPDEST PUSH2 0xFB9 DUP2 PUSH2 0x11A4 JUMP JUMPDEST DUP3 MSTORE POP POP JUMP JUMPDEST PUSH1 0x0 PUSH1 0x20 DUP3 ADD SWAP1 POP PUSH2 0xFD4 PUSH1 0x0 DUP4 ADD DUP5 PUSH2 0xD6B JUMP JUMPDEST SWAP3 SWAP2 POP POP JUMP JUMPDEST PUSH1 0x0 PUSH1 0x20 DUP3 ADD SWAP1 POP DUP2 DUP2 SUB PUSH1 0x0 DUP4 ADD MSTORE PUSH2 0xFF4 DUP2 DUP5 PUSH2 0xD7A JUMP JUMPDEST SWAP1 POP SWAP3 SWAP2 POP POP JUMP JUMPDEST PUSH1 0x0 PUSH1 0x20 DUP3 ADD SWAP1 POP DUP2 DUP2 SUB PUSH1 0x0 DUP4 ADD MSTORE PUSH2 0x1016 DUP2 DUP5 PUSH2 0xDEF JUMP JUMPDEST SWAP1 POP SWAP3 SWAP2 POP POP JUMP JUMPDEST PUSH1 0x0 PUSH1 0x20 DUP3 ADD SWAP1 POP DUP2 DUP2 SUB PUSH1 0x0 DUP4 ADD MSTORE PUSH2 0x1038 DUP2 DUP5 PUSH2 0xE86 JUMP JUMPDEST SWAP1 POP SWAP3 SWAP2 POP POP JUMP JUMPDEST PUSH1 0x0 PUSH1 0x20 DUP3 ADD SWAP1 POP DUP2 DUP2 SUB PUSH1 0x0 DUP4 ADD MSTORE PUSH2 0x105A DUP2 DUP5 PUSH2 0xF30 JUMP JUMPDEST SWAP1 POP SWAP3 SWAP2 POP POP JUMP JUMPDEST PUSH1 0x0 PUSH1 0x20 DUP3 ADD SWAP1 POP PUSH2 0x1077 PUSH1 0x0 DUP4 ADD DUP5 PUSH2 0xFB0 JUMP JUMPDEST SWAP3 SWAP2 POP POP JUMP JUMPDEST PUSH1 0x0 PUSH2 0x1087 PUSH2 0x1098 JUMP JUMPDEST SWAP1 POP PUSH2 0x1093 DUP3 DUP3 PUSH2 0x1222 JUMP JUMPDEST SWAP2 SWAP1 POP JUMP JUMPDEST PUSH1 0x0 PUSH1 0x40 MLOAD SWAP1 POP SWAP1 JUMP JUMPDEST PUSH1 0x0 PUSH8 0xFFFFFFFFFFFFFFFF DUP3 GT ISZERO PUSH2 0x10BD JUMPI PUSH2 0x10BC PUSH2 0x12FA JUMP JUMPDEST JUMPDEST PUSH2 0x10C6 DUP3 PUSH2 0x1329 JUMP JUMPDEST SWAP1 POP PUSH1 0x20 DUP2 ADD SWAP1 POP SWAP2 SWAP1 POP JUMP JUMPDEST PUSH1 0x0 DUP2 SWAP1 POP PUSH1 0x20 DUP3 ADD SWAP1 POP SWAP2 SWAP1 POP JUMP JUMPDEST PUSH1 0x0 DUP2 SWAP1 POP PUSH1 0x20 DUP3 ADD SWAP1 POP SWAP2 SWAP1 POP JUMP JUMPDEST PUSH1 0x0 DUP2 MLOAD SWAP1 POP SWAP2 SWAP1 POP JUMP JUMPDEST PUSH1 0x0 DUP2 MLOAD SWAP1 POP SWAP2 SWAP1 POP JUMP JUMPDEST PUSH1 0x0 DUP2 MLOAD SWAP1 POP SWAP2 SWAP1 POP JUMP JUMPDEST PUSH1 0x0 PUSH1 0x20 DUP3 ADD SWAP1 POP SWAP2 SWAP1 POP JUMP JUMPDEST PUSH1 0x0 PUSH1 0x20 DUP3 ADD SWAP1 POP SWAP2 SWAP1 POP JUMP JUMPDEST PUSH1 0x0 DUP3 DUP3 MSTORE PUSH1 0x20 DUP3 ADD SWAP1 POP SWAP3 SWAP2 POP POP JUMP JUMPDEST PUSH1 0x0 DUP3 DUP3 MSTORE PUSH1 0x20 DUP3 ADD SWAP1 POP SWAP3 SWAP2 POP POP JUMP JUMPDEST PUSH1 0x0 DUP3 DUP3 MSTORE PUSH1 0x20 DUP3 ADD SWAP1 POP SWAP3 SWAP2 POP POP JUMP JUMPDEST PUSH1 0x0 DUP3 DUP3 MSTORE PUSH1 0x20 DUP3 ADD SWAP1 POP SWAP3 SWAP2 POP POP JUMP JUMPDEST PUSH1 0x0 PUSH2 0x117D DUP3 PUSH2 0x1184 JUMP JUMPDEST SWAP1 POP SWAP2 SWAP1 POP JUMP JUMPDEST PUSH1 0x0 PUSH20 0xFFFFFFFFFFFFFFFFFFFFFFFFFFFFFFFFFFFFFFFF DUP3 AND SWAP1 POP SWAP2 SWAP1 POP JUMP JUMPDEST PUSH1 0x0 DUP2 SWAP1 POP SWAP2 SWAP1 POP JUMP JUMPDEST DUP3 DUP2 DUP4 CALLDATACOPY PUSH1 0x0 DUP4 DUP4 ADD MSTORE POP POP POP JUMP JUMPDEST PUSH1 0x0 JUMPDEST DUP4 DUP2 LT ISZERO PUSH2 0x11DB JUMPI DUP1 DUP3 ADD MLOAD DUP2 DUP5 ADD MSTORE PUSH1 0x20 DUP2 ADD SWAP1 POP PUSH2 0x11C0 JUMP JUMPDEST DUP4 DUP2 GT ISZERO PUSH2 0x11EA JUMPI PUSH1 0x0 DUP5 DUP5 ADD MSTORE JUMPDEST POP POP POP POP JUMP JUMPDEST PUSH1 0x0 PUSH1 0x2 DUP3 DIV SWAP1 POP PUSH1 0x1 DUP3 AND DUP1 PUSH2 0x1208 JUMPI PUSH1 0x7F DUP3 AND SWAP2 POP JUMPDEST PUSH1 0x20 DUP3 LT DUP2 EQ ISZERO PUSH2 0x121C JUMPI PUSH2 0x121B PUSH2 0x12CB JUMP JUMPDEST JUMPDEST POP SWAP2 SWAP1 POP JUMP JUMPDEST PUSH2 0x122B DUP3 PUSH2 0x1329 JUMP JUMPDEST DUP2 ADD DUP2 DUP2 LT PUSH8 0xFFFFFFFFFFFFFFFF DUP3 GT OR ISZERO PUSH2 0x124A JUMPI PUSH2 0x1249 PUSH2 0x12FA JUMP JUMPDEST JUMPDEST DUP1 PUSH1 0x40 MSTORE POP POP POP JUMP JUMPDEST PUSH1 0x0 PUSH2 0x125E DUP3 PUSH2 0x11A4 JUMP JUMPDEST SWAP2 POP PUSH32 0xFFFFFFFFFFFFFFFFFFFFFFFFFFFFFFFFFFFFFFFFFFFFFFFFFFFFFFFFFFFFFFFF DUP3 EQ ISZERO PUSH2 0x1291 JUMPI PUSH2 0x1290 PUSH2 0x129C JUMP JUMPDEST JUMPDEST PUSH1 0x1 DUP3 ADD SWAP1 POP SWAP2 SWAP1 POP JUMP JUMPDEST PUSH32 0x4E487B7100000000000000000000000000000000000000000000000000000000 PUSH1 0x0 MSTORE PUSH1 0x11 PUSH1 0x4 MSTORE PUSH1 0x24 PUSH1 0x0 REVERT JUMPDEST PUSH32 0x4E487B7100000000000000000000000000000000000000000000000000000000 PUSH1 0x0 MSTORE PUSH1 0x22 PUSH1 0x4 MSTORE PUSH1 0x24 PUSH1 0x0 REVERT JUMPDEST PUSH32 0x4E487B7100000000000000000000000000000000000000000000000000000000 PUSH1 0x0 MSTORE PUSH1 0x41 PUSH1 0x4 MSTORE PUSH1 0x24 PUSH1 0x0 REVERT JUMPDEST PUSH1 0x0 PUSH1 0x1F NOT PUSH1 0x1F DUP4 ADD AND SWAP1 POP SWAP2 SWAP1 POP JUMP JUMPDEST PUSH2 0x1343 DUP2 PUSH2 0x11A4 JUMP JUMPDEST DUP2 EQ PUSH2 0x134E JUMPI PUSH1 0x0 DUP1 REVERT JUMPDEST POP JUMP INVALID LOG2 PUSH5 0x6970667358 0x22 SLT KECCAK256 0xF6 CODESIZE MSTORE8 PUSH19 0xE9B5802C9C7501A2CDAAE2A8EC324959E58C6E LOG2 PUSH32 0xB9E736CD78208364736F6C634300080200330000000000000000000000000000 "},"gasEstimates":{"creation":{"codeDepositCost":"999800","executionCost":"infinite","totalCost":"infinite"},"external":{"addParty(string,string,uint256,string)":"infinite","castVote(uint256,uint256)":"infinite","endElection()":"22824","getParties()":"infinite","getPartyDetails(uint256)":"infinite","getResults()":"infinite","manager()":"1214","name()":"infinite","startElection()":"23767","totalVotes()":"1174"}},"methodIdentifiers":{"addParty(string,string,uint256,string)":"b09ea6a1","castVote(uint256,uint256)":"2c0a3f89","endElection()":"59f78468","getParties()":"a8311aa8","getPartyDetails(uint256)":"024789a9","getResults()":"4717f97c","manager()":"481c6a75","name()":"06fdde03","startElection()":"62d73eb8","totalVotes()":"0d15fd77"}},"storageLayout":{"storage":[{"astId":63,"contract":"Election.sol:Election","label":"totalVotes","offset":0,"slot":"0","type":"t_uint256"},{"astId":65,"contract":"Election.sol:Election","label":"name","offset":0,"slot":"1","type":"t_string_storage"},{"astId":67,"contract":"Election.sol:Election","label":"manager","offset":0,"slot":"2","type":"t_address"},{"astId":71,"contract":"Election.sol:Election","label":"voted","offset":0,"slot":"3","type":"t_mapping(t_uint256,t_bool)"},{"astId":73,"contract":"Election.sol:Election","label":"isCompleted","offset":0,"slot":"4","type":"t_bool"},{"astId":75,"contract":"Election.sol:Election","label":"isStarted","offset":1,"slot":"4","type":"t_bool"},{"astId":127,"contract":"Election.sol:Election","label":"parties","offset":0,"slot":"5","type":"t_array(t_struct(Party)123_storage)dyn_storage"},{"astId":130,"contract":"Election.sol:Election","label":"voteCount","offset":0,"slot":"6","type":"t_array(t_uint256)dyn_storage"}],"types":{"t_address":{"encoding":"inplace","label":"address","numberOfBytes":"20"},"t_array(t_struct(Party)123_storage)dyn_storage":{"base":"t_struct(Party)123_storage","encoding":"dynamic_array","label":"struct Election.Party[]","numberOfBytes":"32"},"t_array(t_uint256)dyn_storage":{"base":"t_uint256","encoding":"dynamic_array","label":"uint256[]","numberOfBytes":"32"},"t_bool":{"encoding":"inplace","label":"bool","numberOfBytes":"1"},"t_mapping(t_uint256,t_bool)":{"encoding":"mapping","key":"t_uint256","label":"mapping(uint256 => bool)","numberOfBytes":"32","value":"t_bool"},"t_string_storage":{"encoding":"bytes","label":"string","numberOfBytes":"32"},"t_struct(Party)123_storage":{"encoding":"inplace","label":"struct Election.Party","members":[{"astId":116,"contract":"Election.sol:Election","label":"name","offset":0,"slot":"0","type":"t_string_storage"},{"astId":118,"contract":"Election.sol:Election","label":"leaderName","offset":0,"slot":"1","type":"t_string_storage"},{"astId":120,"contract":"Election.sol:Election","label":"membersCount","offset":0,"slot":"2","type":"t_uint256"},{"astId":122,"contract":"Election.sol:Election","label":"region","offset":0,"slot":"3","type":"t_string_storage"}],"numberOfBytes":"128"},"t_uint256":{"encoding":"inplace","label":"uint256","numberOfBytes":"32"}}},"userdoc":{"kind":"user","methods":{},"version":1}}