{"abi":[{"inputs":[{"internalType":"string","name":"name","type":"string"},{"internalType":"string","name":"manager","type":"string"},{"internalType":"uint256","name":"time","type":"uint256"}],"name":"createElection","outputs":[],"stateMutability":"nonpayable","type":"function"},{"inputs":[],"name":"getElections","outputs":[{"components":[{"internalType":"address","name":"add","type":"address"},{"internalType":"string","name":"name","type":"string"},{"internalType":"string","name":"manager","type":"string"}],"internalType":"struct ElectionFactory.ElectionMeta[]","name":"","type":"tuple[]"}],"stateMutability":"view","type":"function"}],"devdoc":{"kind":"dev","methods":{},"version":1},"evm":{"assembly":"    /* \"Election.sol\":45:669  contract ElectionFactory{... */\n  mstore(0x40, 0x80)\n  callvalue\n  dup1\n  iszero\n  tag_1\n  jumpi\n  0x00\n  dup1\n  revert\ntag_1:\n  pop\n  dataSize(sub_0)\n  dup1\n  dataOffset(sub_0)\n  0x00\n  codecopy\n  0x00\n  return\nstop\n\nsub_0: assembly {\n        /* \"Election.sol\":45:669  contract ElectionFactory{... */\n      mstore(0x40, 0x80)\n      callvalue\n      dup1\n      iszero\n      tag_1\n      jumpi\n      0x00\n      dup1\n      revert\n    tag_1:\n      pop\n      jumpi(tag_2, lt(calldatasize, 0x04))\n      shr(0xe0, calldataload(0x00))\n      dup1\n      0x911cbef9\n      eq\n      tag_3\n      jumpi\n      dup1\n      0x9f3a7f52\n      eq\n      tag_4\n      jumpi\n    tag_2:\n      0x00\n      dup1\n      revert\n        /* \"Election.sol\":212:552  function createElection(string memory name, string memory manager, uint time) public{... */\n    tag_3:\n      tag_5\n      0x04\n      dup1\n      calldatasize\n      sub\n      dup2\n      add\n      swap1\n      tag_6\n      swap2\n      swap1\n      tag_7\n      jump\t// in\n    tag_6:\n      tag_8\n      jump\t// in\n    tag_5:\n      stop\n        /* \"Election.sol\":562:657  function getElections() public view returns(ElectionMeta[] memory) {... */\n    tag_4:\n      tag_9\n      tag_10\n      jump\t// in\n    tag_9:\n      mload(0x40)\n      tag_11\n      swap2\n      swap1\n      tag_12\n      jump\t// in\n    tag_11:\n      mload(0x40)\n      dup1\n      swap2\n      sub\n      swap1\n      return\n        /* \"Election.sol\":212:552  function createElection(string memory name, string memory manager, uint time) public{... */\n    tag_8:\n        /* \"Election.sol\":306:323  Election election */\n      0x00\n        /* \"Election.sol\":339:349  msg.sender */\n      caller\n        /* \"Election.sol\":351:355  name */\n      dup5\n        /* \"Election.sol\":357:361  time */\n      dup4\n        /* \"Election.sol\":326:362  new Election(msg.sender, name, time) */\n      mload(0x40)\n      tag_14\n      swap1\n      tag_15\n      jump\t// in\n    tag_14:\n      tag_16\n      swap4\n      swap3\n      swap2\n      swap1\n      tag_17\n      jump\t// in\n    tag_16:\n      mload(0x40)\n      dup1\n      swap2\n      sub\n      swap1\n      0x00\n      create\n      dup1\n      iszero\n      dup1\n      iszero\n      tag_18\n      jumpi\n      returndatasize\n      0x00\n      dup1\n      returndatacopy\n      revert(0x00, returndatasize)\n    tag_18:\n      pop\n        /* \"Election.sol\":306:362  Election election = new Election(msg.sender, name, time) */\n      swap1\n      pop\n        /* \"Election.sol\":381:404  ElectionMeta memory obj */\n      0x00\n        /* \"Election.sol\":407:521  ElectionMeta({... */\n      mload(0x40)\n      dup1\n      0x60\n      add\n      0x40\n      mstore\n      dup1\n        /* \"Election.sol\":447:455  election */\n      dup4\n        /* \"Election.sol\":407:521  ElectionMeta({... */\n      0xffffffffffffffffffffffffffffffffffffffff\n      and\n      dup2\n      mstore\n      0x20\n      add\n        /* \"Election.sol\":476:480  name */\n      dup7\n        /* \"Election.sol\":407:521  ElectionMeta({... */\n      dup2\n      mstore\n      0x20\n      add\n        /* \"Election.sol\":503:510  manager */\n      dup6\n        /* \"Election.sol\":407:521  ElectionMeta({... */\n      dup2\n      mstore\n      pop\n        /* \"Election.sol\":381:521  ElectionMeta memory obj = ElectionMeta({... */\n      swap1\n      pop\n        /* \"Election.sol\":531:535  list */\n      0x00\n        /* \"Election.sol\":541:544  obj */\n      dup2\n        /* \"Election.sol\":531:545  list.push(obj) */\n      swap1\n      dup1\n      0x01\n      dup2\n      sload\n      add\n      dup1\n      dup3\n      sstore\n      dup1\n      swap2\n      pop\n      pop\n      0x01\n      swap1\n      sub\n      swap1\n      0x00\n      mstore\n      keccak256(0x00, 0x20)\n      swap1\n      0x03\n      mul\n      add\n      0x00\n      swap1\n      swap2\n      swap1\n      swap2\n      swap1\n      swap2\n      pop\n      0x00\n      dup3\n      add\n      mload\n      dup2\n      0x00\n      add\n      exp(0x0100, 0x00)\n      dup2\n      sload\n      dup2\n      0xffffffffffffffffffffffffffffffffffffffff\n      mul\n      not\n      and\n      swap1\n      dup4\n      0xffffffffffffffffffffffffffffffffffffffff\n      and\n      mul\n      or\n      swap1\n      sstore\n      pop\n      0x20\n      dup3\n      add\n      mload\n      dup2\n      0x01\n      add\n      swap1\n      dup1\n      mload\n      swap1\n      0x20\n      add\n      swap1\n      tag_20\n      swap3\n      swap2\n      swap1\n      tag_21\n      jump\t// in\n    tag_20:\n      pop\n      0x40\n      dup3\n      add\n      mload\n      dup2\n      0x02\n      add\n      swap1\n      dup1\n      mload\n      swap1\n      0x20\n      add\n      swap1\n      tag_22\n      swap3\n      swap2\n      swap1\n      tag_21\n      jump\t// in\n    tag_22:\n      pop\n      pop\n      pop\n        /* \"Election.sol\":296:552  {... */\n      pop\n      pop\n        /* \"Election.sol\":212:552  function createElection(string memory name, string memory manager, uint time) public{... */\n      pop\n      pop\n      pop\n      jump\t// out\n        /* \"Election.sol\":562:657  function getElections() public view returns(ElectionMeta[] memory) {... */\n    tag_10:\n        /* \"Election.sol\":606:627  ElectionMeta[] memory */\n      0x60\n        /* \"Election.sol\":646:650  list */\n      0x00\n        /* \"Election.sol\":639:650  return list */\n      dup1\n      sload\n      dup1\n      0x20\n      mul\n      0x20\n      add\n      mload(0x40)\n      swap1\n      dup2\n      add\n      0x40\n      mstore\n      dup1\n      swap3\n      swap2\n      swap1\n      dup2\n      dup2\n      mstore\n      0x20\n      add\n      0x00\n      swap1\n    tag_24:\n      dup3\n      dup3\n      lt\n      iszero\n      tag_25\n      jumpi\n      dup4\n      dup3\n      swap1\n      0x00\n      mstore\n      keccak256(0x00, 0x20)\n      swap1\n      0x03\n      mul\n      add\n      mload(0x40)\n      dup1\n      0x60\n      add\n      0x40\n      mstore\n      swap1\n      dup2\n      0x00\n      dup3\n      add\n      0x00\n      swap1\n      sload\n      swap1\n      0x0100\n      exp\n      swap1\n      div\n      0xffffffffffffffffffffffffffffffffffffffff\n      and\n      0xffffffffffffffffffffffffffffffffffffffff\n      and\n      0xffffffffffffffffffffffffffffffffffffffff\n      and\n      dup2\n      mstore\n      0x20\n      add\n      0x01\n      dup3\n      add\n      dup1\n      sload\n      tag_27\n      swap1\n      tag_28\n      jump\t// in\n    tag_27:\n      dup1\n      0x1f\n      add\n      0x20\n      dup1\n      swap2\n      div\n      mul\n      0x20\n      add\n      mload(0x40)\n      swap1\n      dup2\n      add\n      0x40\n      mstore\n      dup1\n      swap3\n      swap2\n      swap1\n      dup2\n      dup2\n      mstore\n      0x20\n      add\n      dup3\n      dup1\n      sload\n      tag_29\n      swap1\n      tag_28\n      jump\t// in\n    tag_29:\n      dup1\n      iszero\n      tag_30\n      jumpi\n      dup1\n      0x1f\n      lt\n      tag_31\n      jumpi\n      0x0100\n      dup1\n      dup4\n      sload\n      div\n      mul\n      dup4\n      mstore\n      swap2\n      0x20\n      add\n      swap2\n      jump(tag_30)\n    tag_31:\n      dup3\n      add\n      swap2\n      swap1\n      0x00\n      mstore\n      keccak256(0x00, 0x20)\n      swap1\n    tag_32:\n      dup2\n      sload\n      dup2\n      mstore\n      swap1\n      0x01\n      add\n      swap1\n      0x20\n      add\n      dup1\n      dup4\n      gt\n      tag_32\n      jumpi\n      dup3\n      swap1\n      sub\n      0x1f\n      and\n      dup3\n      add\n      swap2\n    tag_30:\n      pop\n      pop\n      pop\n      pop\n      pop\n      dup2\n      mstore\n      0x20\n      add\n      0x02\n      dup3\n      add\n      dup1\n      sload\n      tag_33\n      swap1\n      tag_28\n      jump\t// in\n    tag_33:\n      dup1\n      0x1f\n      add\n      0x20\n      dup1\n      swap2\n      div\n      mul\n      0x20\n      add\n      mload(0x40)\n      swap1\n      dup2\n      add\n      0x40\n      mstore\n      dup1\n      swap3\n      swap2\n      swap1\n      dup2\n      dup2\n      mstore\n      0x20\n      add\n      dup3\n      dup1\n      sload\n      tag_34\n      swap1\n      tag_28\n      jump\t// in\n    tag_34:\n      dup1\n      iszero\n      tag_35\n      jumpi\n      dup1\n      0x1f\n      lt\n      tag_36\n      jumpi\n      0x0100\n      dup1\n      dup4\n      sload\n      div\n      mul\n      dup4\n      mstore\n      swap2\n      0x20\n      add\n      swap2\n      jump(tag_35)\n    tag_36:\n      dup3\n      add\n      swap2\n      swap1\n      0x00\n      mstore\n      keccak256(0x00, 0x20)\n      swap1\n    tag_37:\n      dup2\n      sload\n      dup2\n      mstore\n      swap1\n      0x01\n      add\n      swap1\n      0x20\n      add\n      dup1\n      dup4\n      gt\n      tag_37\n      jumpi\n      dup3\n      swap1\n      sub\n      0x1f\n      and\n      dup3\n      add\n      swap2\n    tag_35:\n      pop\n      pop\n      pop\n      pop\n      pop\n      dup2\n      mstore\n      pop\n      pop\n      dup2\n      mstore\n      0x20\n      add\n      swap1\n      0x01\n      add\n      swap1\n      jump(tag_24)\n    tag_25:\n      pop\n      pop\n      pop\n      pop\n      swap1\n      pop\n        /* \"Election.sol\":562:657  function getElections() public view returns(ElectionMeta[] memory) {... */\n      swap1\n      jump\t// out\n    tag_15:\n      dataSize(sub_0)\n      dup1\n      dataOffset(sub_0)\n      dup4\n      codecopy\n      add\n      swap1\n      jump\t// out\n    tag_21:\n      dup3\n      dup1\n      sload\n      tag_38\n      swap1\n      tag_28\n      jump\t// in\n    tag_38:\n      swap1\n      0x00\n      mstore\n      keccak256(0x00, 0x20)\n      swap1\n      0x1f\n      add\n      0x20\n      swap1\n      div\n      dup2\n      add\n      swap3\n      dup3\n      tag_40\n      jumpi\n      0x00\n      dup6\n      sstore\n      jump(tag_39)\n    tag_40:\n      dup3\n      0x1f\n      lt\n      tag_41\n      jumpi\n      dup1\n      mload\n      not(0xff)\n      and\n      dup4\n      dup1\n      add\n      or\n      dup6\n      sstore\n      jump(tag_39)\n    tag_41:\n      dup3\n      dup1\n      add\n      0x01\n      add\n      dup6\n      sstore\n      dup3\n      iszero\n      tag_39\n      jumpi\n      swap2\n      dup3\n      add\n    tag_42:\n      dup3\n      dup2\n      gt\n      iszero\n      tag_43\n      jumpi\n      dup3\n      mload\n      dup3\n      sstore\n      swap2\n      0x20\n      add\n      swap2\n      swap1\n      0x01\n      add\n      swap1\n      jump(tag_42)\n    tag_43:\n    tag_39:\n      pop\n      swap1\n      pop\n      tag_44\n      swap2\n      swap1\n      tag_45\n      jump\t// in\n    tag_44:\n      pop\n      swap1\n      jump\t// out\n    tag_45:\n    tag_46:\n      dup1\n      dup3\n      gt\n      iszero\n      tag_47\n      jumpi\n      0x00\n      dup2\n      0x00\n      swap1\n      sstore\n      pop\n      0x01\n      add\n      jump(tag_46)\n    tag_47:\n      pop\n      swap1\n      jump\t// out\n        /* \"#utility.yul\":7:82   */\n    tag_48:\n        /* \"#utility.yul\":40:46   */\n      0x00\n        /* \"#utility.yul\":73:75   */\n      0x40\n        /* \"#utility.yul\":67:76   */\n      mload\n        /* \"#utility.yul\":57:76   */\n      swap1\n      pop\n        /* \"#utility.yul\":7:82   */\n      swap1\n      jump\t// out\n        /* \"#utility.yul\":88:205   */\n    tag_49:\n        /* \"#utility.yul\":197:198   */\n      0x00\n        /* \"#utility.yul\":194:195   */\n      dup1\n        /* \"#utility.yul\":187:199   */\n      revert\n        /* \"#utility.yul\":211:328   */\n    tag_50:\n        /* \"#utility.yul\":320:321   */\n      0x00\n        /* \"#utility.yul\":317:318   */\n      dup1\n        /* \"#utility.yul\":310:322   */\n      revert\n        /* \"#utility.yul\":334:451   */\n    tag_51:\n        /* \"#utility.yul\":443:444   */\n      0x00\n        /* \"#utility.yul\":440:441   */\n      dup1\n        /* \"#utility.yul\":433:445   */\n      revert\n        /* \"#utility.yul\":457:574   */\n    tag_52:\n        /* \"#utility.yul\":566:567   */\n      0x00\n        /* \"#utility.yul\":563:564   */\n      dup1\n        /* \"#utility.yul\":556:568   */\n      revert\n        /* \"#utility.yul\":580:682   */\n    tag_53:\n        /* \"#utility.yul\":621:627   */\n      0x00\n        /* \"#utility.yul\":672:674   */\n      0x1f\n        /* \"#utility.yul\":668:675   */\n      not\n        /* \"#utility.yul\":663:665   */\n      0x1f\n        /* \"#utility.yul\":656:661   */\n      dup4\n        /* \"#utility.yul\":652:666   */\n      add\n        /* \"#utility.yul\":648:676   */\n      and\n        /* \"#utility.yul\":638:676   */\n      swap1\n      pop\n        /* \"#utility.yul\":580:682   */\n      swap2\n      swap1\n      pop\n      jump\t// out\n        /* \"#utility.yul\":688:868   */\n    tag_54:\n        /* \"#utility.yul\":736:813   */\n      0x4e487b7100000000000000000000000000000000000000000000000000000000\n        /* \"#utility.yul\":733:734   */\n      0x00\n        /* \"#utility.yul\":726:814   */\n      mstore\n        /* \"#utility.yul\":833:837   */\n      0x41\n        /* \"#utility.yul\":830:831   */\n      0x04\n        /* \"#utility.yul\":823:838   */\n      mstore\n        /* \"#utility.yul\":857:861   */\n      0x24\n        /* \"#utility.yul\":854:855   */\n      0x00\n        /* \"#utility.yul\":847:862   */\n      revert\n        /* \"#utility.yul\":874:1155   */\n    tag_55:\n        /* \"#utility.yul\":957:984   */\n      tag_92\n        /* \"#utility.yul\":979:983   */\n      dup3\n        /* \"#utility.yul\":957:984   */\n      tag_53\n      jump\t// in\n    tag_92:\n        /* \"#utility.yul\":949:955   */\n      dup2\n        /* \"#utility.yul\":945:985   */\n      add\n        /* \"#utility.yul\":1087:1093   */\n      dup2\n        /* \"#utility.yul\":1075:1085   */\n      dup2\n        /* \"#utility.yul\":1072:1094   */\n      lt\n        /* \"#utility.yul\":1051:1069   */\n      0xffffffffffffffff\n        /* \"#utility.yul\":1039:1049   */\n      dup3\n        /* \"#utility.yul\":1036:1070   */\n      gt\n        /* \"#utility.yul\":1033:1095   */\n      or\n        /* \"#utility.yul\":1030:1118   */\n      iszero\n      tag_93\n      jumpi\n        /* \"#utility.yul\":1098:1116   */\n      tag_94\n      tag_54\n      jump\t// in\n    tag_94:\n        /* \"#utility.yul\":1030:1118   */\n    tag_93:\n        /* \"#utility.yul\":1138:1148   */\n      dup1\n        /* \"#utility.yul\":1134:1136   */\n      0x40\n        /* \"#utility.yul\":1127:1149   */\n      mstore\n        /* \"#utility.yul\":917:1155   */\n      pop\n        /* \"#utility.yul\":874:1155   */\n      pop\n      pop\n      jump\t// out\n        /* \"#utility.yul\":1161:1290   */\n    tag_56:\n        /* \"#utility.yul\":1195:1201   */\n      0x00\n        /* \"#utility.yul\":1222:1242   */\n      tag_96\n      tag_48\n      jump\t// in\n    tag_96:\n        /* \"#utility.yul\":1212:1242   */\n      swap1\n      pop\n        /* \"#utility.yul\":1251:1284   */\n      tag_97\n        /* \"#utility.yul\":1279:1283   */\n      dup3\n        /* \"#utility.yul\":1271:1277   */\n      dup3\n        /* \"#utility.yul\":1251:1284   */\n      tag_55\n      jump\t// in\n    tag_97:\n        /* \"#utility.yul\":1161:1290   */\n      swap2\n      swap1\n      pop\n      jump\t// out\n        /* \"#utility.yul\":1296:1604   */\n    tag_57:\n        /* \"#utility.yul\":1358:1362   */\n      0x00\n        /* \"#utility.yul\":1448:1466   */\n      0xffffffffffffffff\n        /* \"#utility.yul\":1440:1446   */\n      dup3\n        /* \"#utility.yul\":1437:1467   */\n      gt\n        /* \"#utility.yul\":1434:1490   */\n      iszero\n      tag_99\n      jumpi\n        /* \"#utility.yul\":1470:1488   */\n      tag_100\n      tag_54\n      jump\t// in\n    tag_100:\n        /* \"#utility.yul\":1434:1490   */\n    tag_99:\n        /* \"#utility.yul\":1508:1537   */\n      tag_101\n        /* \"#utility.yul\":1530:1536   */\n      dup3\n        /* \"#utility.yul\":1508:1537   */\n      tag_53\n      jump\t// in\n    tag_101:\n        /* \"#utility.yul\":1500:1537   */\n      swap1\n      pop\n        /* \"#utility.yul\":1592:1596   */\n      0x20\n        /* \"#utility.yul\":1586:1590   */\n      dup2\n        /* \"#utility.yul\":1582:1597   */\n      add\n        /* \"#utility.yul\":1574:1597   */\n      swap1\n      pop\n        /* \"#utility.yul\":1296:1604   */\n      swap2\n      swap1\n      pop\n      jump\t// out\n        /* \"#utility.yul\":1610:1764   */\n    tag_58:\n        /* \"#utility.yul\":1694:1700   */\n      dup3\n        /* \"#utility.yul\":1689:1692   */\n      dup2\n        /* \"#utility.yul\":1684:1687   */\n      dup4\n        /* \"#utility.yul\":1671:1701   */\n      calldatacopy\n        /* \"#utility.yul\":1756:1757   */\n      0x00\n        /* \"#utility.yul\":1747:1753   */\n      dup4\n        /* \"#utility.yul\":1742:1745   */\n      dup4\n        /* \"#utility.yul\":1738:1754   */\n      add\n        /* \"#utility.yul\":1731:1758   */\n      mstore\n        /* \"#utility.yul\":1610:1764   */\n      pop\n      pop\n      pop\n      jump\t// out\n        /* \"#utility.yul\":1770:2182   */\n    tag_59:\n        /* \"#utility.yul\":1848:1853   */\n      0x00\n        /* \"#utility.yul\":1873:1939   */\n      tag_104\n        /* \"#utility.yul\":1889:1938   */\n      tag_105\n        /* \"#utility.yul\":1931:1937   */\n      dup5\n        /* \"#utility.yul\":1889:1938   */\n      tag_57\n      jump\t// in\n    tag_105:\n        /* \"#utility.yul\":1873:1939   */\n      tag_56\n      jump\t// in\n    tag_104:\n        /* \"#utility.yul\":1864:1939   */\n      swap1\n      pop\n        /* \"#utility.yul\":1962:1968   */\n      dup3\n        /* \"#utility.yul\":1955:1960   */\n      dup2\n        /* \"#utility.yul\":1948:1969   */\n      mstore\n        /* \"#utility.yul\":2000:2004   */\n      0x20\n        /* \"#utility.yul\":1993:1998   */\n      dup2\n        /* \"#utility.yul\":1989:2005   */\n      add\n        /* \"#utility.yul\":2038:2041   */\n      dup5\n        /* \"#utility.yul\":2029:2035   */\n      dup5\n        /* \"#utility.yul\":2024:2027   */\n      dup5\n        /* \"#utility.yul\":2020:2036   */\n      add\n        /* \"#utility.yul\":2017:2042   */\n      gt\n        /* \"#utility.yul\":2014:2126   */\n      iszero\n      tag_106\n      jumpi\n        /* \"#utility.yul\":2045:2124   */\n      tag_107\n      tag_52\n      jump\t// in\n    tag_107:\n        /* \"#utility.yul\":2014:2126   */\n    tag_106:\n        /* \"#utility.yul\":2135:2176   */\n      tag_108\n        /* \"#utility.yul\":2169:2175   */\n      dup5\n        /* \"#utility.yul\":2164:2167   */\n      dup3\n        /* \"#utility.yul\":2159:2162   */\n      dup6\n        /* \"#utility.yul\":2135:2176   */\n      tag_58\n      jump\t// in\n    tag_108:\n        /* \"#utility.yul\":1854:2182   */\n      pop\n        /* \"#utility.yul\":1770:2182   */\n      swap4\n      swap3\n      pop\n      pop\n      pop\n      jump\t// out\n        /* \"#utility.yul\":2202:2542   */\n    tag_60:\n        /* \"#utility.yul\":2258:2263   */\n      0x00\n        /* \"#utility.yul\":2307:2310   */\n      dup3\n        /* \"#utility.yul\":2300:2304   */\n      0x1f\n        /* \"#utility.yul\":2292:2298   */\n      dup4\n        /* \"#utility.yul\":2288:2305   */\n      add\n        /* \"#utility.yul\":2284:2311   */\n      slt\n        /* \"#utility.yul\":2274:2396   */\n      tag_110\n      jumpi\n        /* \"#utility.yul\":2315:2394   */\n      tag_111\n      tag_51\n      jump\t// in\n    tag_111:\n        /* \"#utility.yul\":2274:2396   */\n    tag_110:\n        /* \"#utility.yul\":2432:2438   */\n      dup2\n        /* \"#utility.yul\":2419:2439   */\n      calldataload\n        /* \"#utility.yul\":2457:2536   */\n      tag_112\n        /* \"#utility.yul\":2532:2535   */\n      dup5\n        /* \"#utility.yul\":2524:2530   */\n      dup3\n        /* \"#utility.yul\":2517:2521   */\n      0x20\n        /* \"#utility.yul\":2509:2515   */\n      dup7\n        /* \"#utility.yul\":2505:2522   */\n      add\n        /* \"#utility.yul\":2457:2536   */\n      tag_59\n      jump\t// in\n    tag_112:\n        /* \"#utility.yul\":2448:2536   */\n      swap2\n      pop\n        /* \"#utility.yul\":2264:2542   */\n      pop\n        /* \"#utility.yul\":2202:2542   */\n      swap3\n      swap2\n      pop\n      pop\n      jump\t// out\n        /* \"#utility.yul\":2548:2625   */\n    tag_61:\n        /* \"#utility.yul\":2585:2592   */\n      0x00\n        /* \"#utility.yul\":2614:2619   */\n      dup2\n        /* \"#utility.yul\":2603:2619   */\n      swap1\n      pop\n        /* \"#utility.yul\":2548:2625   */\n      swap2\n      swap1\n      pop\n      jump\t// out\n        /* \"#utility.yul\":2631:2753   */\n    tag_62:\n        /* \"#utility.yul\":2704:2728   */\n      tag_115\n        /* \"#utility.yul\":2722:2727   */\n      dup2\n        /* \"#utility.yul\":2704:2728   */\n      tag_61\n      jump\t// in\n    tag_115:\n        /* \"#utility.yul\":2697:2702   */\n      dup2\n        /* \"#utility.yul\":2694:2729   */\n      eq\n        /* \"#utility.yul\":2684:2747   */\n      tag_116\n      jumpi\n        /* \"#utility.yul\":2743:2744   */\n      0x00\n        /* \"#utility.yul\":2740:2741   */\n      dup1\n        /* \"#utility.yul\":2733:2745   */\n      revert\n        /* \"#utility.yul\":2684:2747   */\n    tag_116:\n        /* \"#utility.yul\":2631:2753   */\n      pop\n      jump\t// out\n        /* \"#utility.yul\":2759:2898   */\n    tag_63:\n        /* \"#utility.yul\":2805:2810   */\n      0x00\n        /* \"#utility.yul\":2843:2849   */\n      dup2\n        /* \"#utility.yul\":2830:2850   */\n      calldataload\n        /* \"#utility.yul\":2821:2850   */\n      swap1\n      pop\n        /* \"#utility.yul\":2859:2892   */\n      tag_118\n        /* \"#utility.yul\":2886:2891   */\n      dup2\n        /* \"#utility.yul\":2859:2892   */\n      tag_62\n      jump\t// in\n    tag_118:\n        /* \"#utility.yul\":2759:2898   */\n      swap3\n      swap2\n      pop\n      pop\n      jump\t// out\n        /* \"#utility.yul\":2904:3883   */\n    tag_7:\n        /* \"#utility.yul\":3001:3007   */\n      0x00\n        /* \"#utility.yul\":3009:3015   */\n      dup1\n        /* \"#utility.yul\":3017:3023   */\n      0x00\n        /* \"#utility.yul\":3066:3068   */\n      0x60\n        /* \"#utility.yul\":3054:3063   */\n      dup5\n        /* \"#utility.yul\":3045:3052   */\n      dup7\n        /* \"#utility.yul\":3041:3064   */\n      sub\n        /* \"#utility.yul\":3037:3069   */\n      slt\n        /* \"#utility.yul\":3034:3153   */\n      iszero\n      tag_120\n      jumpi\n        /* \"#utility.yul\":3072:3151   */\n      tag_121\n      tag_49\n      jump\t// in\n    tag_121:\n        /* \"#utility.yul\":3034:3153   */\n    tag_120:\n        /* \"#utility.yul\":3220:3221   */\n      0x00\n        /* \"#utility.yul\":3209:3218   */\n      dup5\n        /* \"#utility.yul\":3205:3222   */\n      add\n        /* \"#utility.yul\":3192:3223   */\n      calldataload\n        /* \"#utility.yul\":3250:3268   */\n      0xffffffffffffffff\n        /* \"#utility.yul\":3242:3248   */\n      dup2\n        /* \"#utility.yul\":3239:3269   */\n      gt\n        /* \"#utility.yul\":3236:3353   */\n      iszero\n      tag_122\n      jumpi\n        /* \"#utility.yul\":3272:3351   */\n      tag_123\n      tag_50\n      jump\t// in\n    tag_123:\n        /* \"#utility.yul\":3236:3353   */\n    tag_122:\n        /* \"#utility.yul\":3377:3440   */\n      tag_124\n        /* \"#utility.yul\":3432:3439   */\n      dup7\n        /* \"#utility.yul\":3423:3429   */\n      dup3\n        /* \"#utility.yul\":3412:3421   */\n      dup8\n        /* \"#utility.yul\":3408:3430   */\n      add\n        /* \"#utility.yul\":3377:3440   */\n      tag_60\n      jump\t// in\n    tag_124:\n        /* \"#utility.yul\":3367:3440   */\n      swap4\n      pop\n        /* \"#utility.yul\":3163:3450   */\n      pop\n        /* \"#utility.yul\":3517:3519   */\n      0x20\n        /* \"#utility.yul\":3506:3515   */\n      dup5\n        /* \"#utility.yul\":3502:3520   */\n      add\n        /* \"#utility.yul\":3489:3521   */\n      calldataload\n        /* \"#utility.yul\":3548:3566   */\n      0xffffffffffffffff\n        /* \"#utility.yul\":3540:3546   */\n      dup2\n        /* \"#utility.yul\":3537:3567   */\n      gt\n        /* \"#utility.yul\":3534:3651   */\n      iszero\n      tag_125\n      jumpi\n        /* \"#utility.yul\":3570:3649   */\n      tag_126\n      tag_50\n      jump\t// in\n    tag_126:\n        /* \"#utility.yul\":3534:3651   */\n    tag_125:\n        /* \"#utility.yul\":3675:3738   */\n      tag_127\n        /* \"#utility.yul\":3730:3737   */\n      dup7\n        /* \"#utility.yul\":3721:3727   */\n      dup3\n        /* \"#utility.yul\":3710:3719   */\n      dup8\n        /* \"#utility.yul\":3706:3728   */\n      add\n        /* \"#utility.yul\":3675:3738   */\n      tag_60\n      jump\t// in\n    tag_127:\n        /* \"#utility.yul\":3665:3738   */\n      swap3\n      pop\n        /* \"#utility.yul\":3460:3748   */\n      pop\n        /* \"#utility.yul\":3787:3789   */\n      0x40\n        /* \"#utility.yul\":3813:3866   */\n      tag_128\n        /* \"#utility.yul\":3858:3865   */\n      dup7\n        /* \"#utility.yul\":3849:3855   */\n      dup3\n        /* \"#utility.yul\":3838:3847   */\n      dup8\n        /* \"#utility.yul\":3834:3856   */\n      add\n        /* \"#utility.yul\":3813:3866   */\n      tag_63\n      jump\t// in\n    tag_128:\n        /* \"#utility.yul\":3803:3866   */\n      swap2\n      pop\n        /* \"#utility.yul\":3758:3876   */\n      pop\n        /* \"#utility.yul\":2904:3883   */\n      swap3\n      pop\n      swap3\n      pop\n      swap3\n      jump\t// out\n        /* \"#utility.yul\":3889:4030   */\n    tag_64:\n        /* \"#utility.yul\":3983:3989   */\n      0x00\n        /* \"#utility.yul\":4017:4022   */\n      dup2\n        /* \"#utility.yul\":4011:4023   */\n      mload\n        /* \"#utility.yul\":4001:4023   */\n      swap1\n      pop\n        /* \"#utility.yul\":3889:4030   */\n      swap2\n      swap1\n      pop\n      jump\t// out\n        /* \"#utility.yul\":4036:4247   */\n    tag_65:\n        /* \"#utility.yul\":4162:4173   */\n      0x00\n        /* \"#utility.yul\":4196:4202   */\n      dup3\n        /* \"#utility.yul\":4191:4194   */\n      dup3\n        /* \"#utility.yul\":4184:4203   */\n      mstore\n        /* \"#utility.yul\":4236:4240   */\n      0x20\n        /* \"#utility.yul\":4231:4234   */\n      dup3\n        /* \"#utility.yul\":4227:4241   */\n      add\n        /* \"#utility.yul\":4212:4241   */\n      swap1\n      pop\n        /* \"#utility.yul\":4036:4247   */\n      swap3\n      swap2\n      pop\n      pop\n      jump\t// out\n        /* \"#utility.yul\":4253:4412   */\n    tag_66:\n        /* \"#utility.yul\":4347:4351   */\n      0x00\n        /* \"#utility.yul\":4370:4373   */\n      dup2\n        /* \"#utility.yul\":4362:4373   */\n      swap1\n      pop\n        /* \"#utility.yul\":4400:4404   */\n      0x20\n        /* \"#utility.yul\":4395:4398   */\n      dup3\n        /* \"#utility.yul\":4391:4405   */\n      add\n        /* \"#utility.yul\":4383:4405   */\n      swap1\n      pop\n        /* \"#utility.yul\":4253:4412   */\n      swap2\n      swap1\n      pop\n      jump\t// out\n        /* \"#utility.yul\":4418:4544   */\n    tag_67:\n        /* \"#utility.yul\":4455:4462   */\n      0x00\n        /* \"#utility.yul\":4495:4537   */\n      0xffffffffffffffffffffffffffffffffffffffff\n        /* \"#utility.yul\":4488:4493   */\n      dup3\n        /* \"#utility.yul\":4484:4538   */\n      and\n        /* \"#utility.yul\":4473:4538   */\n      swap1\n      pop\n        /* \"#utility.yul\":4418:4544   */\n      swap2\n      swap1\n      pop\n      jump\t// out\n        /* \"#utility.yul\":4550:4646   */\n    tag_68:\n        /* \"#utility.yul\":4587:4594   */\n      0x00\n        /* \"#utility.yul\":4616:4640   */\n      tag_134\n        /* \"#utility.yul\":4634:4639   */\n      dup3\n        /* \"#utility.yul\":4616:4640   */\n      tag_67\n      jump\t// in\n    tag_134:\n        /* \"#utility.yul\":4605:4640   */\n      swap1\n      pop\n        /* \"#utility.yul\":4550:4646   */\n      swap2\n      swap1\n      pop\n      jump\t// out\n        /* \"#utility.yul\":4652:4760   */\n    tag_69:\n        /* \"#utility.yul\":4729:4753   */\n      tag_136\n        /* \"#utility.yul\":4747:4752   */\n      dup2\n        /* \"#utility.yul\":4729:4753   */\n      tag_68\n      jump\t// in\n    tag_136:\n        /* \"#utility.yul\":4724:4727   */\n      dup3\n        /* \"#utility.yul\":4717:4754   */\n      mstore\n        /* \"#utility.yul\":4652:4760   */\n      pop\n      pop\n      jump\t// out\n        /* \"#utility.yul\":4766:4865   */\n    tag_70:\n        /* \"#utility.yul\":4818:4824   */\n      0x00\n        /* \"#utility.yul\":4852:4857   */\n      dup2\n        /* \"#utility.yul\":4846:4858   */\n      mload\n        /* \"#utility.yul\":4836:4858   */\n      swap1\n      pop\n        /* \"#utility.yul\":4766:4865   */\n      swap2\n      swap1\n      pop\n      jump\t// out\n        /* \"#utility.yul\":4871:5030   */\n    tag_71:\n        /* \"#utility.yul\":4945:4956   */\n      0x00\n        /* \"#utility.yul\":4979:4985   */\n      dup3\n        /* \"#utility.yul\":4974:4977   */\n      dup3\n        /* \"#utility.yul\":4967:4986   */\n      mstore\n        /* \"#utility.yul\":5019:5023   */\n      0x20\n        /* \"#utility.yul\":5014:5017   */\n      dup3\n        /* \"#utility.yul\":5010:5024   */\n      add\n        /* \"#utility.yul\":4995:5024   */\n      swap1\n      pop\n        /* \"#utility.yul\":4871:5030   */\n      swap3\n      swap2\n      pop\n      pop\n      jump\t// out\n        /* \"#utility.yul\":5036:5343   */\n    tag_72:\n        /* \"#utility.yul\":5104:5105   */\n      0x00\n        /* \"#utility.yul\":5114:5227   */\n    tag_140:\n        /* \"#utility.yul\":5128:5134   */\n      dup4\n        /* \"#utility.yul\":5125:5126   */\n      dup2\n        /* \"#utility.yul\":5122:5135   */\n      lt\n        /* \"#utility.yul\":5114:5227   */\n      iszero\n      tag_142\n      jumpi\n        /* \"#utility.yul\":5213:5214   */\n      dup1\n        /* \"#utility.yul\":5208:5211   */\n      dup3\n        /* \"#utility.yul\":5204:5215   */\n      add\n        /* \"#utility.yul\":5198:5216   */\n      mload\n        /* \"#utility.yul\":5194:5195   */\n      dup2\n        /* \"#utility.yul\":5189:5192   */\n      dup5\n        /* \"#utility.yul\":5185:5196   */\n      add\n        /* \"#utility.yul\":5178:5217   */\n      mstore\n        /* \"#utility.yul\":5150:5152   */\n      0x20\n        /* \"#utility.yul\":5147:5148   */\n      dup2\n        /* \"#utility.yul\":5143:5153   */\n      add\n        /* \"#utility.yul\":5138:5153   */\n      swap1\n      pop\n        /* \"#utility.yul\":5114:5227   */\n      jump(tag_140)\n    tag_142:\n        /* \"#utility.yul\":5245:5251   */\n      dup4\n        /* \"#utility.yul\":5242:5243   */\n      dup2\n        /* \"#utility.yul\":5239:5252   */\n      gt\n        /* \"#utility.yul\":5236:5337   */\n      iszero\n      tag_143\n      jumpi\n        /* \"#utility.yul\":5325:5326   */\n      0x00\n        /* \"#utility.yul\":5316:5322   */\n      dup5\n        /* \"#utility.yul\":5311:5314   */\n      dup5\n        /* \"#utility.yul\":5307:5323   */\n      add\n        /* \"#utility.yul\":5300:5327   */\n      mstore\n        /* \"#utility.yul\":5236:5337   */\n    tag_143:\n        /* \"#utility.yul\":5085:5343   */\n      pop\n        /* \"#utility.yul\":5036:5343   */\n      pop\n      pop\n      pop\n      jump\t// out\n        /* \"#utility.yul\":5349:5693   */\n    tag_73:\n        /* \"#utility.yul\":5427:5430   */\n      0x00\n        /* \"#utility.yul\":5455:5494   */\n      tag_145\n        /* \"#utility.yul\":5488:5493   */\n      dup3\n        /* \"#utility.yul\":5455:5494   */\n      tag_70\n      jump\t// in\n    tag_145:\n        /* \"#utility.yul\":5510:5571   */\n      tag_146\n        /* \"#utility.yul\":5564:5570   */\n      dup2\n        /* \"#utility.yul\":5559:5562   */\n      dup6\n        /* \"#utility.yul\":5510:5571   */\n      tag_71\n      jump\t// in\n    tag_146:\n        /* \"#utility.yul\":5503:5571   */\n      swap4\n      pop\n        /* \"#utility.yul\":5580:5632   */\n      tag_147\n        /* \"#utility.yul\":5625:5631   */\n      dup2\n        /* \"#utility.yul\":5620:5623   */\n      dup6\n        /* \"#utility.yul\":5613:5617   */\n      0x20\n        /* \"#utility.yul\":5606:5611   */\n      dup7\n        /* \"#utility.yul\":5602:5618   */\n      add\n        /* \"#utility.yul\":5580:5632   */\n      tag_72\n      jump\t// in\n    tag_147:\n        /* \"#utility.yul\":5657:5686   */\n      tag_148\n        /* \"#utility.yul\":5679:5685   */\n      dup2\n        /* \"#utility.yul\":5657:5686   */\n      tag_53\n      jump\t// in\n    tag_148:\n        /* \"#utility.yul\":5652:5655   */\n      dup5\n        /* \"#utility.yul\":5648:5687   */\n      add\n        /* \"#utility.yul\":5641:5687   */\n      swap2\n      pop\n        /* \"#utility.yul\":5431:5693   */\n      pop\n        /* \"#utility.yul\":5349:5693   */\n      swap3\n      swap2\n      pop\n      pop\n      jump\t// out\n        /* \"#utility.yul\":5781:6628   */\n    tag_74:\n        /* \"#utility.yul\":5894:5897   */\n      0x00\n        /* \"#utility.yul\":5930:5934   */\n      0x60\n        /* \"#utility.yul\":5925:5928   */\n      dup4\n        /* \"#utility.yul\":5921:5935   */\n      add\n        /* \"#utility.yul\":6016:6020   */\n      0x00\n        /* \"#utility.yul\":6009:6014   */\n      dup4\n        /* \"#utility.yul\":6005:6021   */\n      add\n        /* \"#utility.yul\":5999:6022   */\n      mload\n        /* \"#utility.yul\":6035:6098   */\n      tag_150\n        /* \"#utility.yul\":6092:6096   */\n      0x00\n        /* \"#utility.yul\":6087:6090   */\n      dup7\n        /* \"#utility.yul\":6083:6097   */\n      add\n        /* \"#utility.yul\":6069:6081   */\n      dup3\n        /* \"#utility.yul\":6035:6098   */\n      tag_69\n      jump\t// in\n    tag_150:\n        /* \"#utility.yul\":5945:6108   */\n      pop\n        /* \"#utility.yul\":6190:6194   */\n      0x20\n        /* \"#utility.yul\":6183:6188   */\n      dup4\n        /* \"#utility.yul\":6179:6195   */\n      add\n        /* \"#utility.yul\":6173:6196   */\n      mload\n        /* \"#utility.yul\":6243:6246   */\n      dup5\n        /* \"#utility.yul\":6237:6241   */\n      dup3\n        /* \"#utility.yul\":6233:6247   */\n      sub\n        /* \"#utility.yul\":6226:6230   */\n      0x20\n        /* \"#utility.yul\":6221:6224   */\n      dup7\n        /* \"#utility.yul\":6217:6231   */\n      add\n        /* \"#utility.yul\":6210:6248   */\n      mstore\n        /* \"#utility.yul\":6269:6342   */\n      tag_151\n        /* \"#utility.yul\":6337:6341   */\n      dup3\n        /* \"#utility.yul\":6323:6335   */\n      dup3\n        /* \"#utility.yul\":6269:6342   */\n      tag_73\n      jump\t// in\n    tag_151:\n        /* \"#utility.yul\":6261:6342   */\n      swap2\n      pop\n        /* \"#utility.yul\":6118:6353   */\n      pop\n        /* \"#utility.yul\":6438:6442   */\n      0x40\n        /* \"#utility.yul\":6431:6436   */\n      dup4\n        /* \"#utility.yul\":6427:6443   */\n      add\n        /* \"#utility.yul\":6421:6444   */\n      mload\n        /* \"#utility.yul\":6491:6494   */\n      dup5\n        /* \"#utility.yul\":6485:6489   */\n      dup3\n        /* \"#utility.yul\":6481:6495   */\n      sub\n        /* \"#utility.yul\":6474:6478   */\n      0x40\n        /* \"#utility.yul\":6469:6472   */\n      dup7\n        /* \"#utility.yul\":6465:6479   */\n      add\n        /* \"#utility.yul\":6458:6496   */\n      mstore\n        /* \"#utility.yul\":6517:6590   */\n      tag_152\n        /* \"#utility.yul\":6585:6589   */\n      dup3\n        /* \"#utility.yul\":6571:6583   */\n      dup3\n        /* \"#utility.yul\":6517:6590   */\n      tag_73\n      jump\t// in\n    tag_152:\n        /* \"#utility.yul\":6509:6590   */\n      swap2\n      pop\n        /* \"#utility.yul\":6363:6601   */\n      pop\n        /* \"#utility.yul\":6618:6622   */\n      dup1\n        /* \"#utility.yul\":6611:6622   */\n      swap2\n      pop\n        /* \"#utility.yul\":5899:6628   */\n      pop\n        /* \"#utility.yul\":5781:6628   */\n      swap3\n      swap2\n      pop\n      pop\n      jump\t// out\n        /* \"#utility.yul\":6634:6898   */\n    tag_75:\n        /* \"#utility.yul\":6757:6767   */\n      0x00\n        /* \"#utility.yul\":6792:6892   */\n      tag_154\n        /* \"#utility.yul\":6888:6891   */\n      dup4\n        /* \"#utility.yul\":6880:6886   */\n      dup4\n        /* \"#utility.yul\":6792:6892   */\n      tag_74\n      jump\t// in\n    tag_154:\n        /* \"#utility.yul\":6778:6892   */\n      swap1\n      pop\n        /* \"#utility.yul\":6634:6898   */\n      swap3\n      swap2\n      pop\n      pop\n      jump\t// out\n        /* \"#utility.yul\":6904:7044   */\n    tag_76:\n        /* \"#utility.yul\":7001:7005   */\n      0x00\n        /* \"#utility.yul\":7033:7037   */\n      0x20\n        /* \"#utility.yul\":7028:7031   */\n      dup3\n        /* \"#utility.yul\":7024:7038   */\n      add\n        /* \"#utility.yul\":7016:7038   */\n      swap1\n      pop\n        /* \"#utility.yul\":6904:7044   */\n      swap2\n      swap1\n      pop\n      jump\t// out\n        /* \"#utility.yul\":7136:8263   */\n    tag_77:\n        /* \"#utility.yul\":7309:7312   */\n      0x00\n        /* \"#utility.yul\":7338:7419   */\n      tag_157\n        /* \"#utility.yul\":7413:7418   */\n      dup3\n        /* \"#utility.yul\":7338:7419   */\n      tag_64\n      jump\t// in\n    tag_157:\n        /* \"#utility.yul\":7435:7548   */\n      tag_158\n        /* \"#utility.yul\":7541:7547   */\n      dup2\n        /* \"#utility.yul\":7536:7539   */\n      dup6\n        /* \"#utility.yul\":7435:7548   */\n      tag_65\n      jump\t// in\n    tag_158:\n        /* \"#utility.yul\":7428:7548   */\n      swap4\n      pop\n        /* \"#utility.yul\":7574:7577   */\n      dup4\n        /* \"#utility.yul\":7619:7623   */\n      0x20\n        /* \"#utility.yul\":7611:7617   */\n      dup3\n        /* \"#utility.yul\":7607:7624   */\n      mul\n        /* \"#utility.yul\":7602:7605   */\n      dup6\n        /* \"#utility.yul\":7598:7625   */\n      add\n        /* \"#utility.yul\":7649:7732   */\n      tag_159\n        /* \"#utility.yul\":7726:7731   */\n      dup6\n        /* \"#utility.yul\":7649:7732   */\n      tag_66\n      jump\t// in\n    tag_159:\n        /* \"#utility.yul\":7755:7762   */\n      dup1\n        /* \"#utility.yul\":7786:7787   */\n      0x00\n        /* \"#utility.yul\":7771:8218   */\n    tag_160:\n        /* \"#utility.yul\":7796:7802   */\n      dup6\n        /* \"#utility.yul\":7793:7794   */\n      dup2\n        /* \"#utility.yul\":7790:7803   */\n      lt\n        /* \"#utility.yul\":7771:8218   */\n      iszero\n      tag_162\n      jumpi\n        /* \"#utility.yul\":7867:7876   */\n      dup5\n        /* \"#utility.yul\":7861:7865   */\n      dup5\n        /* \"#utility.yul\":7857:7877   */\n      sub\n        /* \"#utility.yul\":7852:7855   */\n      dup10\n        /* \"#utility.yul\":7845:7878   */\n      mstore\n        /* \"#utility.yul\":7918:7924   */\n      dup2\n        /* \"#utility.yul\":7912:7925   */\n      mload\n        /* \"#utility.yul\":7946:8064   */\n      tag_163\n        /* \"#utility.yul\":8059:8063   */\n      dup6\n        /* \"#utility.yul\":8044:8057   */\n      dup3\n        /* \"#utility.yul\":7946:8064   */\n      tag_75\n      jump\t// in\n    tag_163:\n        /* \"#utility.yul\":7938:8064   */\n      swap5\n      pop\n        /* \"#utility.yul\":8087:8174   */\n      tag_164\n        /* \"#utility.yul\":8167:8173   */\n      dup4\n        /* \"#utility.yul\":8087:8174   */\n      tag_76\n      jump\t// in\n    tag_164:\n        /* \"#utility.yul\":8077:8174   */\n      swap3\n      pop\n        /* \"#utility.yul\":8203:8207   */\n      0x20\n        /* \"#utility.yul\":8198:8201   */\n      dup11\n        /* \"#utility.yul\":8194:8208   */\n      add\n        /* \"#utility.yul\":8187:8208   */\n      swap10\n      pop\n        /* \"#utility.yul\":7831:8218   */\n      pop\n        /* \"#utility.yul\":7818:7819   */\n      0x01\n        /* \"#utility.yul\":7815:7816   */\n      dup2\n        /* \"#utility.yul\":7811:7820   */\n      add\n        /* \"#utility.yul\":7806:7820   */\n      swap1\n      pop\n        /* \"#utility.yul\":7771:8218   */\n      jump(tag_160)\n    tag_162:\n        /* \"#utility.yul\":7775:7789   */\n      pop\n        /* \"#utility.yul\":8234:8238   */\n      dup3\n        /* \"#utility.yul\":8227:8238   */\n      swap8\n      pop\n        /* \"#utility.yul\":8254:8257   */\n      dup8\n        /* \"#utility.yul\":8247:8257   */\n      swap6\n      pop\n        /* \"#utility.yul\":7314:8263   */\n      pop\n      pop\n      pop\n      pop\n      pop\n        /* \"#utility.yul\":7136:8263   */\n      swap3\n      swap2\n      pop\n      pop\n      jump\t// out\n        /* \"#utility.yul\":8269:8750   */\n    tag_12:\n        /* \"#utility.yul\":8466:8470   */\n      0x00\n        /* \"#utility.yul\":8504:8506   */\n      0x20\n        /* \"#utility.yul\":8493:8502   */\n      dup3\n        /* \"#utility.yul\":8489:8507   */\n      add\n        /* \"#utility.yul\":8481:8507   */\n      swap1\n      pop\n        /* \"#utility.yul\":8553:8562   */\n      dup2\n        /* \"#utility.yul\":8547:8551   */\n      dup2\n        /* \"#utility.yul\":8543:8563   */\n      sub\n        /* \"#utility.yul\":8539:8540   */\n      0x00\n        /* \"#utility.yul\":8528:8537   */\n      dup4\n        /* \"#utility.yul\":8524:8541   */\n      add\n        /* \"#utility.yul\":8517:8564   */\n      mstore\n        /* \"#utility.yul\":8581:8743   */\n      tag_166\n        /* \"#utility.yul\":8738:8742   */\n      dup2\n        /* \"#utility.yul\":8729:8735   */\n      dup5\n        /* \"#utility.yul\":8581:8743   */\n      tag_77\n      jump\t// in\n    tag_166:\n        /* \"#utility.yul\":8573:8743   */\n      swap1\n      pop\n        /* \"#utility.yul\":8269:8750   */\n      swap3\n      swap2\n      pop\n      pop\n      jump\t// out\n        /* \"#utility.yul\":8756:8874   */\n    tag_78:\n        /* \"#utility.yul\":8843:8867   */\n      tag_168\n        /* \"#utility.yul\":8861:8866   */\n      dup2\n        /* \"#utility.yul\":8843:8867   */\n      tag_68\n      jump\t// in\n    tag_168:\n        /* \"#utility.yul\":8838:8841   */\n      dup3\n        /* \"#utility.yul\":8831:8868   */\n      mstore\n        /* \"#utility.yul\":8756:8874   */\n      pop\n      pop\n      jump\t// out\n        /* \"#utility.yul\":8880:9049   */\n    tag_79:\n        /* \"#utility.yul\":8964:8975   */\n      0x00\n        /* \"#utility.yul\":8998:9004   */\n      dup3\n        /* \"#utility.yul\":8993:8996   */\n      dup3\n        /* \"#utility.yul\":8986:9005   */\n      mstore\n        /* \"#utility.yul\":9038:9042   */\n      0x20\n        /* \"#utility.yul\":9033:9036   */\n      dup3\n        /* \"#utility.yul\":9029:9043   */\n      add\n        /* \"#utility.yul\":9014:9043   */\n      swap1\n      pop\n        /* \"#utility.yul\":8880:9049   */\n      swap3\n      swap2\n      pop\n      pop\n      jump\t// out\n        /* \"#utility.yul\":9055:9419   */\n    tag_80:\n        /* \"#utility.yul\":9143:9146   */\n      0x00\n        /* \"#utility.yul\":9171:9210   */\n      tag_171\n        /* \"#utility.yul\":9204:9209   */\n      dup3\n        /* \"#utility.yul\":9171:9210   */\n      tag_70\n      jump\t// in\n    tag_171:\n        /* \"#utility.yul\":9226:9297   */\n      tag_172\n        /* \"#utility.yul\":9290:9296   */\n      dup2\n        /* \"#utility.yul\":9285:9288   */\n      dup6\n        /* \"#utility.yul\":9226:9297   */\n      tag_79\n      jump\t// in\n    tag_172:\n        /* \"#utility.yul\":9219:9297   */\n      swap4\n      pop\n        /* \"#utility.yul\":9306:9358   */\n      tag_173\n        /* \"#utility.yul\":9351:9357   */\n      dup2\n        /* \"#utility.yul\":9346:9349   */\n      dup6\n        /* \"#utility.yul\":9339:9343   */\n      0x20\n        /* \"#utility.yul\":9332:9337   */\n      dup7\n        /* \"#utility.yul\":9328:9344   */\n      add\n        /* \"#utility.yul\":9306:9358   */\n      tag_72\n      jump\t// in\n    tag_173:\n        /* \"#utility.yul\":9383:9412   */\n      tag_174\n        /* \"#utility.yul\":9405:9411   */\n      dup2\n        /* \"#utility.yul\":9383:9412   */\n      tag_53\n      jump\t// in\n    tag_174:\n        /* \"#utility.yul\":9378:9381   */\n      dup5\n        /* \"#utility.yul\":9374:9413   */\n      add\n        /* \"#utility.yul\":9367:9413   */\n      swap2\n      pop\n        /* \"#utility.yul\":9147:9419   */\n      pop\n        /* \"#utility.yul\":9055:9419   */\n      swap3\n      swap2\n      pop\n      pop\n      jump\t// out\n        /* \"#utility.yul\":9425:9543   */\n    tag_81:\n        /* \"#utility.yul\":9512:9536   */\n      tag_176\n        /* \"#utility.yul\":9530:9535   */\n      dup2\n        /* \"#utility.yul\":9512:9536   */\n      tag_61\n      jump\t// in\n    tag_176:\n        /* \"#utility.yul\":9507:9510   */\n      dup3\n        /* \"#utility.yul\":9500:9537   */\n      mstore\n        /* \"#utility.yul\":9425:9543   */\n      pop\n      pop\n      jump\t// out\n        /* \"#utility.yul\":9549:10082   */\n    tag_17:\n        /* \"#utility.yul\":9718:9722   */\n      0x00\n        /* \"#utility.yul\":9756:9758   */\n      0x60\n        /* \"#utility.yul\":9745:9754   */\n      dup3\n        /* \"#utility.yul\":9741:9759   */\n      add\n        /* \"#utility.yul\":9733:9759   */\n      swap1\n      pop\n        /* \"#utility.yul\":9769:9840   */\n      tag_178\n        /* \"#utility.yul\":9837:9838   */\n      0x00\n        /* \"#utility.yul\":9826:9835   */\n      dup4\n        /* \"#utility.yul\":9822:9839   */\n      add\n        /* \"#utility.yul\":9813:9819   */\n      dup7\n        /* \"#utility.yul\":9769:9840   */\n      tag_78\n      jump\t// in\n    tag_178:\n        /* \"#utility.yul\":9887:9896   */\n      dup2\n        /* \"#utility.yul\":9881:9885   */\n      dup2\n        /* \"#utility.yul\":9877:9897   */\n      sub\n        /* \"#utility.yul\":9872:9874   */\n      0x20\n        /* \"#utility.yul\":9861:9870   */\n      dup4\n        /* \"#utility.yul\":9857:9875   */\n      add\n        /* \"#utility.yul\":9850:9898   */\n      mstore\n        /* \"#utility.yul\":9915:9993   */\n      tag_179\n        /* \"#utility.yul\":9988:9992   */\n      dup2\n        /* \"#utility.yul\":9979:9985   */\n      dup6\n        /* \"#utility.yul\":9915:9993   */\n      tag_80\n      jump\t// in\n    tag_179:\n        /* \"#utility.yul\":9907:9993   */\n      swap1\n      pop\n        /* \"#utility.yul\":10003:10075   */\n      tag_180\n        /* \"#utility.yul\":10071:10073   */\n      0x40\n        /* \"#utility.yul\":10060:10069   */\n      dup4\n        /* \"#utility.yul\":10056:10074   */\n      add\n        /* \"#utility.yul\":10047:10053   */\n      dup5\n        /* \"#utility.yul\":10003:10075   */\n      tag_81\n      jump\t// in\n    tag_180:\n        /* \"#utility.yul\":9549:10082   */\n      swap5\n      swap4\n      pop\n      pop\n      pop\n      pop\n      jump\t// out\n        /* \"#utility.yul\":10088:10268   */\n    tag_82:\n        /* \"#utility.yul\":10136:10213   */\n      0x4e487b7100000000000000000000000000000000000000000000000000000000\n        /* \"#utility.yul\":10133:10134   */\n      0x00\n        /* \"#utility.yul\":10126:10214   */\n      mstore\n        /* \"#utility.yul\":10233:10237   */\n      0x22\n        /* \"#utility.yul\":10230:10231   */\n      0x04\n        /* \"#utility.yul\":10223:10238   */\n      mstore\n        /* \"#utility.yul\":10257:10261   */\n      0x24\n        /* \"#utility.yul\":10254:10255   */\n      0x00\n        /* \"#utility.yul\":10247:10262   */\n      revert\n        /* \"#utility.yul\":10274:10594   */\n    tag_28:\n        /* \"#utility.yul\":10318:10324   */\n      0x00\n        /* \"#utility.yul\":10355:10356   */\n      0x02\n        /* \"#utility.yul\":10349:10353   */\n      dup3\n        /* \"#utility.yul\":10345:10357   */\n      div\n        /* \"#utility.yul\":10335:10357   */\n      swap1\n      pop\n        /* \"#utility.yul\":10402:10403   */\n      0x01\n        /* \"#utility.yul\":10396:10400   */\n      dup3\n        /* \"#utility.yul\":10392:10404   */\n      and\n        /* \"#utility.yul\":10423:10441   */\n      dup1\n        /* \"#utility.yul\":10413:10494   */\n      tag_183\n      jumpi\n        /* \"#utility.yul\":10479:10483   */\n      0x7f\n        /* \"#utility.yul\":10471:10477   */\n      dup3\n        /* \"#utility.yul\":10467:10484   */\n      and\n        /* \"#utility.yul\":10457:10484   */\n      swap2\n      pop\n        /* \"#utility.yul\":10413:10494   */\n    tag_183:\n        /* \"#utility.yul\":10541:10543   */\n      0x20\n        /* \"#utility.yul\":10533:10539   */\n      dup3\n        /* \"#utility.yul\":10530:10544   */\n      lt\n        /* \"#utility.yul\":10510:10528   */\n      dup2\n        /* \"#utility.yul\":10507:10545   */\n      eq\n        /* \"#utility.yul\":10504:10588   */\n      iszero\n      tag_184\n      jumpi\n        /* \"#utility.yul\":10560:10578   */\n      tag_185\n      tag_82\n      jump\t// in\n    tag_185:\n        /* \"#utility.yul\":10504:10588   */\n    tag_184:\n        /* \"#utility.yul\":10325:10594   */\n      pop\n        /* \"#utility.yul\":10274:10594   */\n      swap2\n      swap1\n      pop\n      jump\t// out\n    stop\n\n    sub_0: assembly {\n            /* \"Election.sol\":671:2993  contract Election{... */\n          mstore(0x40, 0x80)\n            /* \"Election.sol\":1047:1301  constructor(address sender, string memory n, uint time){... */\n          callvalue\n          dup1\n          iszero\n          tag_1\n          jumpi\n          0x00\n          dup1\n          revert\n        tag_1:\n          pop\n          mload(0x40)\n          sub(codesize, bytecodeSize)\n          dup1\n          bytecodeSize\n          dup4\n          codecopy\n          dup2\n          dup2\n          add\n          0x40\n          mstore\n          dup2\n          add\n          swap1\n          tag_2\n          swap2\n          swap1\n          tag_3\n          jump\t// in\n        tag_2:\n            /* \"Election.sol\":1122:1128  sender */\n          dup3\n            /* \"Election.sol\":1112:1119  manager */\n          0x02\n          0x00\n            /* \"Election.sol\":1112:1128  manager = sender */\n          0x0100\n          exp\n          dup2\n          sload\n          dup2\n          0xffffffffffffffffffffffffffffffffffffffff\n          mul\n          not\n          and\n          swap1\n          dup4\n          0xffffffffffffffffffffffffffffffffffffffff\n          and\n          mul\n          or\n          swap1\n          sstore\n          pop\n            /* \"Election.sol\":1152:1157  false */\n          0x00\n            /* \"Election.sol\":1138:1149  isCompleted */\n          0x04\n          0x00\n            /* \"Election.sol\":1138:1157  isCompleted = false */\n          0x0100\n          exp\n          dup2\n          sload\n          dup2\n          0xff\n          mul\n          not\n          and\n          swap1\n          dup4\n          iszero\n          iszero\n          mul\n          or\n          swap1\n          sstore\n          pop\n            /* \"Election.sol\":1180:1181  0 */\n          0x00\n            /* \"Election.sol\":1167:1177  totalVotes */\n          dup1\n            /* \"Election.sol\":1167:1181  totalVotes = 0 */\n          dup2\n          swap1\n          sstore\n          pop\n            /* \"Election.sol\":1203:1208  false */\n          0x00\n            /* \"Election.sol\":1191:1200  isStarted */\n          0x04\n          0x01\n            /* \"Election.sol\":1191:1208  isStarted = false */\n          0x0100\n          exp\n          dup2\n          sload\n          dup2\n          0xff\n          mul\n          not\n          and\n          swap1\n          dup4\n          iszero\n          iszero\n          mul\n          or\n          swap1\n          sstore\n          pop\n            /* \"Election.sol\":1225:1226  n */\n          dup2\n            /* \"Election.sol\":1218:1222  name */\n          0x01\n            /* \"Election.sol\":1218:1226  name = n */\n          swap1\n          dup1\n          mload\n          swap1\n          0x20\n          add\n          swap1\n          tag_6\n          swap3\n          swap2\n          swap1\n          tag_7\n          jump\t// in\n        tag_6:\n          pop\n            /* \"Election.sol\":1248:1252  time */\n          dup1\n            /* \"Election.sol\":1236:1245  createdAt */\n          0x05\n            /* \"Election.sol\":1236:1252  createdAt = time */\n          dup2\n          swap1\n          sstore\n          pop\n            /* \"Election.sol\":1274:1275  0 */\n          0x00\n            /* \"Election.sol\":1262:1271  startedAt */\n          0x06\n            /* \"Election.sol\":1262:1275  startedAt = 0 */\n          dup2\n          swap1\n          sstore\n          pop\n            /* \"Election.sol\":1293:1294  0 */\n          0x00\n            /* \"Election.sol\":1285:1290  endAt */\n          0x07\n            /* \"Election.sol\":1285:1294  endAt = 0 */\n          dup2\n          swap1\n          sstore\n          pop\n            /* \"Election.sol\":1047:1301  constructor(address sender, string memory n, uint time){... */\n          pop\n          pop\n          pop\n            /* \"Election.sol\":671:2993  contract Election{... */\n          jump(tag_8)\n        tag_7:\n          dup3\n          dup1\n          sload\n          tag_9\n          swap1\n          tag_10\n          jump\t// in\n        tag_9:\n          swap1\n          0x00\n          mstore\n          keccak256(0x00, 0x20)\n          swap1\n          0x1f\n          add\n          0x20\n          swap1\n          div\n          dup2\n          add\n          swap3\n          dup3\n          tag_12\n          jumpi\n          0x00\n          dup6\n          sstore\n          jump(tag_11)\n        tag_12:\n          dup3\n          0x1f\n          lt\n          tag_13\n          jumpi\n          dup1\n          mload\n          not(0xff)\n          and\n          dup4\n          dup1\n          add\n          or\n          dup6\n          sstore\n          jump(tag_11)\n        tag_13:\n          dup3\n          dup1\n          add\n          0x01\n          add\n          dup6\n          sstore\n          dup3\n          iszero\n          tag_11\n          jumpi\n          swap2\n          dup3\n          add\n        tag_14:\n          dup3\n          dup2\n          gt\n          iszero\n          tag_15\n          jumpi\n          dup3\n          mload\n          dup3\n          sstore\n          swap2\n          0x20\n          add\n          swap2\n          swap1\n          0x01\n          add\n          swap1\n          jump(tag_14)\n        tag_15:\n        tag_11:\n          pop\n          swap1\n          pop\n          tag_16\n          swap2\n          swap1\n          tag_17\n          jump\t// in\n        tag_16:\n          pop\n          swap1\n          jump\t// out\n        tag_17:\n        tag_18:\n          dup1\n          dup3\n          gt\n          iszero\n          tag_19\n          jumpi\n          0x00\n          dup2\n          0x00\n          swap1\n          sstore\n          pop\n          0x01\n          add\n          jump(tag_18)\n        tag_19:\n          pop\n          swap1\n          jump\t// out\n            /* \"#utility.yul\":7:82   */\n        tag_20:\n            /* \"#utility.yul\":40:46   */\n          0x00\n            /* \"#utility.yul\":73:75   */\n          0x40\n            /* \"#utility.yul\":67:76   */\n          mload\n            /* \"#utility.yul\":57:76   */\n          swap1\n          pop\n            /* \"#utility.yul\":7:82   */\n          swap1\n          jump\t// out\n            /* \"#utility.yul\":88:205   */\n        tag_21:\n            /* \"#utility.yul\":197:198   */\n          0x00\n            /* \"#utility.yul\":194:195   */\n          dup1\n            /* \"#utility.yul\":187:199   */\n          revert\n            /* \"#utility.yul\":211:328   */\n        tag_22:\n            /* \"#utility.yul\":320:321   */\n          0x00\n            /* \"#utility.yul\":317:318   */\n          dup1\n            /* \"#utility.yul\":310:322   */\n          revert\n            /* \"#utility.yul\":334:460   */\n        tag_23:\n            /* \"#utility.yul\":371:378   */\n          0x00\n            /* \"#utility.yul\":411:453   */\n          0xffffffffffffffffffffffffffffffffffffffff\n            /* \"#utility.yul\":404:409   */\n          dup3\n            /* \"#utility.yul\":400:454   */\n          and\n            /* \"#utility.yul\":389:454   */\n          swap1\n          pop\n            /* \"#utility.yul\":334:460   */\n          swap2\n          swap1\n          pop\n          jump\t// out\n            /* \"#utility.yul\":466:562   */\n        tag_24:\n            /* \"#utility.yul\":503:510   */\n          0x00\n            /* \"#utility.yul\":532:556   */\n          tag_47\n            /* \"#utility.yul\":550:555   */\n          dup3\n            /* \"#utility.yul\":532:556   */\n          tag_23\n          jump\t// in\n        tag_47:\n            /* \"#utility.yul\":521:556   */\n          swap1\n          pop\n            /* \"#utility.yul\":466:562   */\n          swap2\n          swap1\n          pop\n          jump\t// out\n            /* \"#utility.yul\":568:690   */\n        tag_25:\n            /* \"#utility.yul\":641:665   */\n          tag_49\n            /* \"#utility.yul\":659:664   */\n          dup2\n            /* \"#utility.yul\":641:665   */\n          tag_24\n          jump\t// in\n        tag_49:\n            /* \"#utility.yul\":634:639   */\n          dup2\n            /* \"#utility.yul\":631:666   */\n          eq\n            /* \"#utility.yul\":621:684   */\n          tag_50\n          jumpi\n            /* \"#utility.yul\":680:681   */\n          0x00\n            /* \"#utility.yul\":677:678   */\n          dup1\n            /* \"#utility.yul\":670:682   */\n          revert\n            /* \"#utility.yul\":621:684   */\n        tag_50:\n            /* \"#utility.yul\":568:690   */\n          pop\n          jump\t// out\n            /* \"#utility.yul\":696:839   */\n        tag_26:\n            /* \"#utility.yul\":753:758   */\n          0x00\n            /* \"#utility.yul\":784:790   */\n          dup2\n            /* \"#utility.yul\":778:791   */\n          mload\n            /* \"#utility.yul\":769:791   */\n          swap1\n          pop\n            /* \"#utility.yul\":800:833   */\n          tag_52\n            /* \"#utility.yul\":827:832   */\n          dup2\n            /* \"#utility.yul\":800:833   */\n          tag_25\n          jump\t// in\n        tag_52:\n            /* \"#utility.yul\":696:839   */\n          swap3\n          swap2\n          pop\n          pop\n          jump\t// out\n            /* \"#utility.yul\":845:962   */\n        tag_27:\n            /* \"#utility.yul\":954:955   */\n          0x00\n            /* \"#utility.yul\":951:952   */\n          dup1\n            /* \"#utility.yul\":944:956   */\n          revert\n            /* \"#utility.yul\":968:1085   */\n        tag_28:\n            /* \"#utility.yul\":1077:1078   */\n          0x00\n            /* \"#utility.yul\":1074:1075   */\n          dup1\n            /* \"#utility.yul\":1067:1079   */\n          revert\n            /* \"#utility.yul\":1091:1193   */\n        tag_29:\n            /* \"#utility.yul\":1132:1138   */\n          0x00\n            /* \"#utility.yul\":1183:1185   */\n          0x1f\n            /* \"#utility.yul\":1179:1186   */\n          not\n            /* \"#utility.yul\":1174:1176   */\n          0x1f\n            /* \"#utility.yul\":1167:1172   */\n          dup4\n            /* \"#utility.yul\":1163:1177   */\n          add\n            /* \"#utility.yul\":1159:1187   */\n          and\n            /* \"#utility.yul\":1149:1187   */\n          swap1\n          pop\n            /* \"#utility.yul\":1091:1193   */\n          swap2\n          swap1\n          pop\n          jump\t// out\n            /* \"#utility.yul\":1199:1379   */\n        tag_30:\n            /* \"#utility.yul\":1247:1324   */\n          0x4e487b7100000000000000000000000000000000000000000000000000000000\n            /* \"#utility.yul\":1244:1245   */\n          0x00\n            /* \"#utility.yul\":1237:1325   */\n          mstore\n            /* \"#utility.yul\":1344:1348   */\n          0x41\n            /* \"#utility.yul\":1341:1342   */\n          0x04\n            /* \"#utility.yul\":1334:1349   */\n          mstore\n            /* \"#utility.yul\":1368:1372   */\n          0x24\n            /* \"#utility.yul\":1365:1366   */\n          0x00\n            /* \"#utility.yul\":1358:1373   */\n          revert\n            /* \"#utility.yul\":1385:1666   */\n        tag_31:\n            /* \"#utility.yul\":1468:1495   */\n          tag_58\n            /* \"#utility.yul\":1490:1494   */\n          dup3\n            /* \"#utility.yul\":1468:1495   */\n          tag_29\n          jump\t// in\n        tag_58:\n            /* \"#utility.yul\":1460:1466   */\n          dup2\n            /* \"#utility.yul\":1456:1496   */\n          add\n            /* \"#utility.yul\":1598:1604   */\n          dup2\n            /* \"#utility.yul\":1586:1596   */\n          dup2\n            /* \"#utility.yul\":1583:1605   */\n          lt\n            /* \"#utility.yul\":1562:1580   */\n          0xffffffffffffffff\n            /* \"#utility.yul\":1550:1560   */\n          dup3\n            /* \"#utility.yul\":1547:1581   */\n          gt\n            /* \"#utility.yul\":1544:1606   */\n          or\n            /* \"#utility.yul\":1541:1629   */\n          iszero\n          tag_59\n          jumpi\n            /* \"#utility.yul\":1609:1627   */\n          tag_60\n          tag_30\n          jump\t// in\n        tag_60:\n            /* \"#utility.yul\":1541:1629   */\n        tag_59:\n            /* \"#utility.yul\":1649:1659   */\n          dup1\n            /* \"#utility.yul\":1645:1647   */\n          0x40\n            /* \"#utility.yul\":1638:1660   */\n          mstore\n            /* \"#utility.yul\":1428:1666   */\n          pop\n            /* \"#utility.yul\":1385:1666   */\n          pop\n          pop\n          jump\t// out\n            /* \"#utility.yul\":1672:1801   */\n        tag_32:\n            /* \"#utility.yul\":1706:1712   */\n          0x00\n            /* \"#utility.yul\":1733:1753   */\n          tag_62\n          tag_20\n          jump\t// in\n        tag_62:\n            /* \"#utility.yul\":1723:1753   */\n          swap1\n          pop\n            /* \"#utility.yul\":1762:1795   */\n          tag_63\n            /* \"#utility.yul\":1790:1794   */\n          dup3\n            /* \"#utility.yul\":1782:1788   */\n          dup3\n            /* \"#utility.yul\":1762:1795   */\n          tag_31\n          jump\t// in\n        tag_63:\n            /* \"#utility.yul\":1672:1801   */\n          swap2\n          swap1\n          pop\n          jump\t// out\n            /* \"#utility.yul\":1807:2115   */\n        tag_33:\n            /* \"#utility.yul\":1869:1873   */\n          0x00\n            /* \"#utility.yul\":1959:1977   */\n          0xffffffffffffffff\n            /* \"#utility.yul\":1951:1957   */\n          dup3\n            /* \"#utility.yul\":1948:1978   */\n          gt\n            /* \"#utility.yul\":1945:2001   */\n          iszero\n          tag_65\n          jumpi\n            /* \"#utility.yul\":1981:1999   */\n          tag_66\n          tag_30\n          jump\t// in\n        tag_66:\n            /* \"#utility.yul\":1945:2001   */\n        tag_65:\n            /* \"#utility.yul\":2019:2048   */\n          tag_67\n            /* \"#utility.yul\":2041:2047   */\n          dup3\n            /* \"#utility.yul\":2019:2048   */\n          tag_29\n          jump\t// in\n        tag_67:\n            /* \"#utility.yul\":2011:2048   */\n          swap1\n          pop\n            /* \"#utility.yul\":2103:2107   */\n          0x20\n            /* \"#utility.yul\":2097:2101   */\n          dup2\n            /* \"#utility.yul\":2093:2108   */\n          add\n            /* \"#utility.yul\":2085:2108   */\n          swap1\n          pop\n            /* \"#utility.yul\":1807:2115   */\n          swap2\n          swap1\n          pop\n          jump\t// out\n            /* \"#utility.yul\":2121:2428   */\n        tag_34:\n            /* \"#utility.yul\":2189:2190   */\n          0x00\n            /* \"#utility.yul\":2199:2312   */\n        tag_69:\n            /* \"#utility.yul\":2213:2219   */\n          dup4\n            /* \"#utility.yul\":2210:2211   */\n          dup2\n            /* \"#utility.yul\":2207:2220   */\n          lt\n            /* \"#utility.yul\":2199:2312   */\n          iszero\n          tag_71\n          jumpi\n            /* \"#utility.yul\":2298:2299   */\n          dup1\n            /* \"#utility.yul\":2293:2296   */\n          dup3\n            /* \"#utility.yul\":2289:2300   */\n          add\n            /* \"#utility.yul\":2283:2301   */\n          mload\n            /* \"#utility.yul\":2279:2280   */\n          dup2\n            /* \"#utility.yul\":2274:2277   */\n          dup5\n            /* \"#utility.yul\":2270:2281   */\n          add\n            /* \"#utility.yul\":2263:2302   */\n          mstore\n            /* \"#utility.yul\":2235:2237   */\n          0x20\n            /* \"#utility.yul\":2232:2233   */\n          dup2\n            /* \"#utility.yul\":2228:2238   */\n          add\n            /* \"#utility.yul\":2223:2238   */\n          swap1\n          pop\n            /* \"#utility.yul\":2199:2312   */\n          jump(tag_69)\n        tag_71:\n            /* \"#utility.yul\":2330:2336   */\n          dup4\n            /* \"#utility.yul\":2327:2328   */\n          dup2\n            /* \"#utility.yul\":2324:2337   */\n          gt\n            /* \"#utility.yul\":2321:2422   */\n          iszero\n          tag_72\n          jumpi\n            /* \"#utility.yul\":2410:2411   */\n          0x00\n            /* \"#utility.yul\":2401:2407   */\n          dup5\n            /* \"#utility.yul\":2396:2399   */\n          dup5\n            /* \"#utility.yul\":2392:2408   */\n          add\n            /* \"#utility.yul\":2385:2412   */\n          mstore\n            /* \"#utility.yul\":2321:2422   */\n        tag_72:\n            /* \"#utility.yul\":2170:2428   */\n          pop\n            /* \"#utility.yul\":2121:2428   */\n          pop\n          pop\n          pop\n          jump\t// out\n            /* \"#utility.yul\":2434:2855   */\n        tag_35:\n            /* \"#utility.yul\":2523:2528   */\n          0x00\n            /* \"#utility.yul\":2548:2614   */\n          tag_74\n            /* \"#utility.yul\":2564:2613   */\n          tag_75\n            /* \"#utility.yul\":2606:2612   */\n          dup5\n            /* \"#utility.yul\":2564:2613   */\n          tag_33\n          jump\t// in\n        tag_75:\n            /* \"#utility.yul\":2548:2614   */\n          tag_32\n          jump\t// in\n        tag_74:\n            /* \"#utility.yul\":2539:2614   */\n          swap1\n          pop\n            /* \"#utility.yul\":2637:2643   */\n          dup3\n            /* \"#utility.yul\":2630:2635   */\n          dup2\n            /* \"#utility.yul\":2623:2644   */\n          mstore\n            /* \"#utility.yul\":2675:2679   */\n          0x20\n            /* \"#utility.yul\":2668:2673   */\n          dup2\n            /* \"#utility.yul\":2664:2680   */\n          add\n            /* \"#utility.yul\":2713:2716   */\n          dup5\n            /* \"#utility.yul\":2704:2710   */\n          dup5\n            /* \"#utility.yul\":2699:2702   */\n          dup5\n            /* \"#utility.yul\":2695:2711   */\n          add\n            /* \"#utility.yul\":2692:2717   */\n          gt\n            /* \"#utility.yul\":2689:2801   */\n          iszero\n          tag_76\n          jumpi\n            /* \"#utility.yul\":2720:2799   */\n          tag_77\n          tag_28\n          jump\t// in\n        tag_77:\n            /* \"#utility.yul\":2689:2801   */\n        tag_76:\n            /* \"#utility.yul\":2810:2849   */\n          tag_78\n            /* \"#utility.yul\":2842:2848   */\n          dup5\n            /* \"#utility.yul\":2837:2840   */\n          dup3\n            /* \"#utility.yul\":2832:2835   */\n          dup6\n            /* \"#utility.yul\":2810:2849   */\n          tag_34\n          jump\t// in\n        tag_78:\n            /* \"#utility.yul\":2529:2855   */\n          pop\n            /* \"#utility.yul\":2434:2855   */\n          swap4\n          swap3\n          pop\n          pop\n          pop\n          jump\t// out\n            /* \"#utility.yul\":2875:3230   */\n        tag_36:\n            /* \"#utility.yul\":2942:2947   */\n          0x00\n            /* \"#utility.yul\":2991:2994   */\n          dup3\n            /* \"#utility.yul\":2984:2988   */\n          0x1f\n            /* \"#utility.yul\":2976:2982   */\n          dup4\n            /* \"#utility.yul\":2972:2989   */\n          add\n            /* \"#utility.yul\":2968:2995   */\n          slt\n            /* \"#utility.yul\":2958:3080   */\n          tag_80\n          jumpi\n            /* \"#utility.yul\":2999:3078   */\n          tag_81\n          tag_27\n          jump\t// in\n        tag_81:\n            /* \"#utility.yul\":2958:3080   */\n        tag_80:\n            /* \"#utility.yul\":3109:3115   */\n          dup2\n            /* \"#utility.yul\":3103:3116   */\n          mload\n            /* \"#utility.yul\":3134:3224   */\n          tag_82\n            /* \"#utility.yul\":3220:3223   */\n          dup5\n            /* \"#utility.yul\":3212:3218   */\n          dup3\n            /* \"#utility.yul\":3205:3209   */\n          0x20\n            /* \"#utility.yul\":3197:3203   */\n          dup7\n            /* \"#utility.yul\":3193:3210   */\n          add\n            /* \"#utility.yul\":3134:3224   */\n          tag_35\n          jump\t// in\n        tag_82:\n            /* \"#utility.yul\":3125:3224   */\n          swap2\n          pop\n            /* \"#utility.yul\":2948:3230   */\n          pop\n            /* \"#utility.yul\":2875:3230   */\n          swap3\n          swap2\n          pop\n          pop\n          jump\t// out\n            /* \"#utility.yul\":3236:3313   */\n        tag_37:\n            /* \"#utility.yul\":3273:3280   */\n          0x00\n            /* \"#utility.yul\":3302:3307   */\n          dup2\n            /* \"#utility.yul\":3291:3307   */\n          swap1\n          pop\n            /* \"#utility.yul\":3236:3313   */\n          swap2\n          swap1\n          pop\n          jump\t// out\n            /* \"#utility.yul\":3319:3441   */\n        tag_38:\n            /* \"#utility.yul\":3392:3416   */\n          tag_85\n            /* \"#utility.yul\":3410:3415   */\n          dup2\n            /* \"#utility.yul\":3392:3416   */\n          tag_37\n          jump\t// in\n        tag_85:\n            /* \"#utility.yul\":3385:3390   */\n          dup2\n            /* \"#utility.yul\":3382:3417   */\n          eq\n            /* \"#utility.yul\":3372:3435   */\n          tag_86\n          jumpi\n            /* \"#utility.yul\":3431:3432   */\n          0x00\n            /* \"#utility.yul\":3428:3429   */\n          dup1\n            /* \"#utility.yul\":3421:3433   */\n          revert\n            /* \"#utility.yul\":3372:3435   */\n        tag_86:\n            /* \"#utility.yul\":3319:3441   */\n          pop\n          jump\t// out\n            /* \"#utility.yul\":3447:3590   */\n        tag_39:\n            /* \"#utility.yul\":3504:3509   */\n          0x00\n            /* \"#utility.yul\":3535:3541   */\n          dup2\n            /* \"#utility.yul\":3529:3542   */\n          mload\n            /* \"#utility.yul\":3520:3542   */\n          swap1\n          pop\n            /* \"#utility.yul\":3551:3584   */\n          tag_88\n            /* \"#utility.yul\":3578:3583   */\n          dup2\n            /* \"#utility.yul\":3551:3584   */\n          tag_38\n          jump\t// in\n        tag_88:\n            /* \"#utility.yul\":3447:3590   */\n          swap3\n          swap2\n          pop\n          pop\n          jump\t// out\n            /* \"#utility.yul\":3596:4432   */\n        tag_3:\n            /* \"#utility.yul\":3694:3700   */\n          0x00\n            /* \"#utility.yul\":3702:3708   */\n          dup1\n            /* \"#utility.yul\":3710:3716   */\n          0x00\n            /* \"#utility.yul\":3759:3761   */\n          0x60\n            /* \"#utility.yul\":3747:3756   */\n          dup5\n            /* \"#utility.yul\":3738:3745   */\n          dup7\n            /* \"#utility.yul\":3734:3757   */\n          sub\n            /* \"#utility.yul\":3730:3762   */\n          slt\n            /* \"#utility.yul\":3727:3846   */\n          iszero\n          tag_90\n          jumpi\n            /* \"#utility.yul\":3765:3844   */\n          tag_91\n          tag_21\n          jump\t// in\n        tag_91:\n            /* \"#utility.yul\":3727:3846   */\n        tag_90:\n            /* \"#utility.yul\":3885:3886   */\n          0x00\n            /* \"#utility.yul\":3910:3974   */\n          tag_92\n            /* \"#utility.yul\":3966:3973   */\n          dup7\n            /* \"#utility.yul\":3957:3963   */\n          dup3\n            /* \"#utility.yul\":3946:3955   */\n          dup8\n            /* \"#utility.yul\":3942:3964   */\n          add\n            /* \"#utility.yul\":3910:3974   */\n          tag_26\n          jump\t// in\n        tag_92:\n            /* \"#utility.yul\":3900:3974   */\n          swap4\n          pop\n            /* \"#utility.yul\":3856:3984   */\n          pop\n            /* \"#utility.yul\":4044:4046   */\n          0x20\n            /* \"#utility.yul\":4033:4042   */\n          dup5\n            /* \"#utility.yul\":4029:4047   */\n          add\n            /* \"#utility.yul\":4023:4048   */\n          mload\n            /* \"#utility.yul\":4075:4093   */\n          0xffffffffffffffff\n            /* \"#utility.yul\":4067:4073   */\n          dup2\n            /* \"#utility.yul\":4064:4094   */\n          gt\n            /* \"#utility.yul\":4061:4178   */\n          iszero\n          tag_93\n          jumpi\n            /* \"#utility.yul\":4097:4176   */\n          tag_94\n          tag_22\n          jump\t// in\n        tag_94:\n            /* \"#utility.yul\":4061:4178   */\n        tag_93:\n            /* \"#utility.yul\":4202:4276   */\n          tag_95\n            /* \"#utility.yul\":4268:4275   */\n          dup7\n            /* \"#utility.yul\":4259:4265   */\n          dup3\n            /* \"#utility.yul\":4248:4257   */\n          dup8\n            /* \"#utility.yul\":4244:4266   */\n          add\n            /* \"#utility.yul\":4202:4276   */\n          tag_36\n          jump\t// in\n        tag_95:\n            /* \"#utility.yul\":4192:4276   */\n          swap3\n          pop\n            /* \"#utility.yul\":3994:4286   */\n          pop\n            /* \"#utility.yul\":4325:4327   */\n          0x40\n            /* \"#utility.yul\":4351:4415   */\n          tag_96\n            /* \"#utility.yul\":4407:4414   */\n          dup7\n            /* \"#utility.yul\":4398:4404   */\n          dup3\n            /* \"#utility.yul\":4387:4396   */\n          dup8\n            /* \"#utility.yul\":4383:4405   */\n          add\n            /* \"#utility.yul\":4351:4415   */\n          tag_39\n          jump\t// in\n        tag_96:\n            /* \"#utility.yul\":4341:4415   */\n          swap2\n          pop\n            /* \"#utility.yul\":4296:4425   */\n          pop\n            /* \"#utility.yul\":3596:4432   */\n          swap3\n          pop\n          swap3\n          pop\n          swap3\n          jump\t// out\n            /* \"#utility.yul\":4438:4618   */\n        tag_40:\n            /* \"#utility.yul\":4486:4563   */\n          0x4e487b7100000000000000000000000000000000000000000000000000000000\n            /* \"#utility.yul\":4483:4484   */\n          0x00\n            /* \"#utility.yul\":4476:4564   */\n          mstore\n            /* \"#utility.yul\":4583:4587   */\n          0x22\n            /* \"#utility.yul\":4580:4581   */\n          0x04\n            /* \"#utility.yul\":4573:4588   */\n          mstore\n            /* \"#utility.yul\":4607:4611   */\n          0x24\n            /* \"#utility.yul\":4604:4605   */\n          0x00\n            /* \"#utility.yul\":4597:4612   */\n          revert\n            /* \"#utility.yul\":4624:4944   */\n        tag_10:\n            /* \"#utility.yul\":4668:4674   */\n          0x00\n            /* \"#utility.yul\":4705:4706   */\n          0x02\n            /* \"#utility.yul\":4699:4703   */\n          dup3\n            /* \"#utility.yul\":4695:4707   */\n          div\n            /* \"#utility.yul\":4685:4707   */\n          swap1\n          pop\n            /* \"#utility.yul\":4752:4753   */\n          0x01\n            /* \"#utility.yul\":4746:4750   */\n          dup3\n            /* \"#utility.yul\":4742:4754   */\n          and\n            /* \"#utility.yul\":4773:4791   */\n          dup1\n            /* \"#utility.yul\":4763:4844   */\n          tag_99\n          jumpi\n            /* \"#utility.yul\":4829:4833   */\n          0x7f\n            /* \"#utility.yul\":4821:4827   */\n          dup3\n            /* \"#utility.yul\":4817:4834   */\n          and\n            /* \"#utility.yul\":4807:4834   */\n          swap2\n          pop\n            /* \"#utility.yul\":4763:4844   */\n        tag_99:\n            /* \"#utility.yul\":4891:4893   */\n          0x20\n            /* \"#utility.yul\":4883:4889   */\n          dup3\n            /* \"#utility.yul\":4880:4894   */\n          lt\n            /* \"#utility.yul\":4860:4878   */\n          dup2\n            /* \"#utility.yul\":4857:4895   */\n          eq\n            /* \"#utility.yul\":4854:4938   */\n          iszero\n          tag_100\n          jumpi\n            /* \"#utility.yul\":4910:4928   */\n          tag_101\n          tag_40\n          jump\t// in\n        tag_101:\n            /* \"#utility.yul\":4854:4938   */\n        tag_100:\n            /* \"#utility.yul\":4675:4944   */\n          pop\n            /* \"#utility.yul\":4624:4944   */\n          swap2\n          swap1\n          pop\n          jump\t// out\n            /* \"Election.sol\":671:2993  contract Election{... */\n        tag_8:\n          dataSize(sub_0)\n          dup1\n          dataOffset(sub_0)\n          0x00\n          codecopy\n          0x00\n          return\n        stop\n\n        sub_0: assembly {\n                /* \"Election.sol\":671:2993  contract Election{... */\n              mstore(0x40, 0x80)\n              callvalue\n              dup1\n              iszero\n              tag_1\n              jumpi\n              0x00\n              dup1\n              revert\n            tag_1:\n              pop\n              jumpi(tag_2, lt(calldatasize, 0x04))\n              shr(0xe0, calldataload(0x00))\n              dup1\n              0x544736e6\n              gt\n              tag_18\n              jumpi\n              dup1\n              0xa8311aa8\n              gt\n              tag_19\n              jumpi\n              dup1\n              0xa8311aa8\n              eq\n              tag_14\n              jumpi\n              dup1\n              0xcf09e0d0\n              eq\n              tag_15\n              jumpi\n              dup1\n              0xf21f537d\n              eq\n              tag_16\n              jumpi\n              dup1\n              0xfa391c64\n              eq\n              tag_17\n              jumpi\n              jump(tag_2)\n            tag_19:\n              dup1\n              0x544736e6\n              eq\n              tag_10\n              jumpi\n              dup1\n              0x56a34768\n              eq\n              tag_11\n              jumpi\n              dup1\n              0x59f78468\n              eq\n              tag_12\n              jumpi\n              dup1\n              0x7cc3ae8c\n              eq\n              tag_13\n              jumpi\n              jump(tag_2)\n            tag_18:\n              dup1\n              0x0d15fd77\n              gt\n              tag_20\n              jumpi\n              dup1\n              0x0d15fd77\n              eq\n              tag_6\n              jumpi\n              dup1\n              0x2c0a3f89\n              eq\n              tag_7\n              jumpi\n              dup1\n              0x4717f97c\n              eq\n              tag_8\n              jumpi\n              dup1\n              0x481c6a75\n              eq\n              tag_9\n              jumpi\n              jump(tag_2)\n            tag_20:\n              dup1\n              0x024789a9\n              eq\n              tag_3\n              jumpi\n              dup1\n              0x06fdde03\n              eq\n              tag_4\n              jumpi\n              dup1\n              0x0c54b463\n              eq\n              tag_5\n              jumpi\n            tag_2:\n              0x00\n              dup1\n              revert\n                /* \"Election.sol\":2345:2500  function getPartyDetails(uint partyIndex) public view returns(Party memory){... */\n            tag_3:\n              tag_21\n              0x04\n              dup1\n              calldatasize\n              sub\n              dup2\n              add\n              swap1\n              tag_22\n              swap2\n              swap1\n              tag_23\n              jump\t// in\n            tag_22:\n              tag_24\n              jump\t// in\n            tag_21:\n              mload(0x40)\n              tag_25\n              swap2\n              swap1\n              tag_26\n              jump\t// in\n            tag_25:\n              mload(0x40)\n              dup1\n              swap2\n              sub\n              swap1\n              return\n                /* \"Election.sol\":723:741  string public name */\n            tag_4:\n              tag_27\n              tag_28\n              jump\t// in\n            tag_27:\n              mload(0x40)\n              tag_29\n              swap2\n              swap1\n              tag_30\n              jump\t// in\n            tag_29:\n              mload(0x40)\n              dup1\n              swap2\n              sub\n              swap1\n              return\n                /* \"Election.sol\":2765:2991  function startElection(uint time, uint willEndAt) public restricted {... */\n            tag_5:\n              tag_31\n              0x04\n              dup1\n              calldatasize\n              sub\n              dup2\n              add\n              swap1\n              tag_32\n              swap2\n              swap1\n              tag_33\n              jump\t// in\n            tag_32:\n              tag_34\n              jump\t// in\n            tag_31:\n              stop\n                /* \"Election.sol\":695:717  uint public totalVotes */\n            tag_6:\n              tag_35\n              tag_36\n              jump\t// in\n            tag_35:\n              mload(0x40)\n              tag_37\n              swap2\n              swap1\n              tag_38\n              jump\t// in\n            tag_37:\n              mload(0x40)\n              dup1\n              swap2\n              sub\n              swap1\n              return\n                /* \"Election.sol\":2068:2335  function castVote(uint aadhaar, uint partyIndex) public {... */\n            tag_7:\n              tag_39\n              0x04\n              dup1\n              calldatasize\n              sub\n              dup2\n              add\n              swap1\n              tag_40\n              swap2\n              swap1\n              tag_33\n              jump\t// in\n            tag_40:\n              tag_41\n              jump\t// in\n            tag_39:\n              stop\n                /* \"Election.sol\":2510:2635  function getResults() public view returns(uint[] memory){... */\n            tag_8:\n              tag_42\n              tag_43\n              jump\t// in\n            tag_42:\n              mload(0x40)\n              tag_44\n              swap2\n              swap1\n              tag_45\n              jump\t// in\n            tag_44:\n              mload(0x40)\n              dup1\n              swap2\n              sub\n              swap1\n              return\n                /* \"Election.sol\":752:774  address public manager */\n            tag_9:\n              tag_46\n              tag_47\n              jump\t// in\n            tag_46:\n              mload(0x40)\n              tag_48\n              swap2\n              swap1\n              tag_49\n              jump\t// in\n            tag_48:\n              mload(0x40)\n              dup1\n              swap2\n              sub\n              swap1\n              return\n                /* \"Election.sol\":847:868  bool public isStarted */\n            tag_10:\n              tag_50\n              tag_51\n              jump\t// in\n            tag_50:\n              mload(0x40)\n              tag_52\n              swap2\n              swap1\n              tag_53\n              jump\t// in\n            tag_52:\n              mload(0x40)\n              dup1\n              swap2\n              sub\n              swap1\n              return\n                /* \"Election.sol\":1504:1960  function addParty(string memory partyName, string memory leaderName, uint membersCount, string memory region, string memory image) public restricted{... */\n            tag_11:\n              tag_54\n              0x04\n              dup1\n              calldatasize\n              sub\n              dup2\n              add\n              swap1\n              tag_55\n              swap2\n              swap1\n              tag_56\n              jump\t// in\n            tag_55:\n              tag_57\n              jump\t// in\n            tag_54:\n              stop\n                /* \"Election.sol\":2645:2755  function endElection() public restricted {... */\n            tag_12:\n              tag_58\n              tag_59\n              jump\t// in\n            tag_58:\n              stop\n                /* \"Election.sol\":929:946  uint public endAt */\n            tag_13:\n              tag_60\n              tag_61\n              jump\t// in\n            tag_60:\n              mload(0x40)\n              tag_62\n              swap2\n              swap1\n              tag_38\n              jump\t// in\n            tag_62:\n              mload(0x40)\n              dup1\n              swap2\n              sub\n              swap1\n              return\n                /* \"Election.sol\":1970:2058  function getParties() public view returns(Party[] memory){... */\n            tag_14:\n              tag_63\n              tag_64\n              jump\t// in\n            tag_63:\n              mload(0x40)\n              tag_65\n              swap2\n              swap1\n              tag_66\n              jump\t// in\n            tag_65:\n              mload(0x40)\n              dup1\n              swap2\n              sub\n              swap1\n              return\n                /* \"Election.sol\":875:896  uint public createdAt */\n            tag_15:\n              tag_67\n              tag_68\n              jump\t// in\n            tag_67:\n              mload(0x40)\n              tag_69\n              swap2\n              swap1\n              tag_38\n              jump\t// in\n            tag_69:\n              mload(0x40)\n              dup1\n              swap2\n              sub\n              swap1\n              return\n                /* \"Election.sol\":902:923  uint public startedAt */\n            tag_16:\n              tag_70\n              tag_71\n              jump\t// in\n            tag_70:\n              mload(0x40)\n              tag_72\n              swap2\n              swap1\n              tag_38\n              jump\t// in\n            tag_72:\n              mload(0x40)\n              dup1\n              swap2\n              sub\n              swap1\n              return\n                /* \"Election.sol\":818:841  bool public isCompleted */\n            tag_17:\n              tag_73\n              tag_74\n              jump\t// in\n            tag_73:\n              mload(0x40)\n              tag_75\n              swap2\n              swap1\n              tag_53\n              jump\t// in\n            tag_75:\n              mload(0x40)\n              dup1\n              swap2\n              sub\n              swap1\n              return\n                /* \"Election.sol\":2345:2500  function getPartyDetails(uint partyIndex) public view returns(Party memory){... */\n            tag_24:\n                /* \"Election.sol\":2407:2419  Party memory */\n              tag_76\n              tag_77\n              jump\t// in\n            tag_76:\n                /* \"Election.sol\":2430:2449  Party storage party */\n              0x00\n                /* \"Election.sol\":2452:2459  parties */\n              0x08\n                /* \"Election.sol\":2460:2470  partyIndex */\n              dup4\n                /* \"Election.sol\":2452:2471  parties[partyIndex] */\n              dup2\n              sload\n              dup2\n              lt\n              tag_79\n              jumpi\n              tag_80\n              tag_81\n              jump\t// in\n            tag_80:\n            tag_79:\n              swap1\n              0x00\n              mstore\n              keccak256(0x00, 0x20)\n              swap1\n              0x05\n              mul\n              add\n                /* \"Election.sol\":2430:2471  Party storage party = parties[partyIndex] */\n              swap1\n              pop\n                /* \"Election.sol\":2488:2493  party */\n              dup1\n                /* \"Election.sol\":2481:2493  return party */\n              mload(0x40)\n              dup1\n              0xa0\n              add\n              0x40\n              mstore\n              swap1\n              dup2\n              0x00\n              dup3\n              add\n              dup1\n              sload\n              tag_83\n              swap1\n              tag_84\n              jump\t// in\n            tag_83:\n              dup1\n              0x1f\n              add\n              0x20\n              dup1\n              swap2\n              div\n              mul\n              0x20\n              add\n              mload(0x40)\n              swap1\n              dup2\n              add\n              0x40\n              mstore\n              dup1\n              swap3\n              swap2\n              swap1\n              dup2\n              dup2\n              mstore\n              0x20\n              add\n              dup3\n              dup1\n              sload\n              tag_85\n              swap1\n              tag_84\n              jump\t// in\n            tag_85:\n              dup1\n              iszero\n              tag_86\n              jumpi\n              dup1\n              0x1f\n              lt\n              tag_87\n              jumpi\n              0x0100\n              dup1\n              dup4\n              sload\n              div\n              mul\n              dup4\n              mstore\n              swap2\n              0x20\n              add\n              swap2\n              jump(tag_86)\n            tag_87:\n              dup3\n              add\n              swap2\n              swap1\n              0x00\n              mstore\n              keccak256(0x00, 0x20)\n              swap1\n            tag_88:\n              dup2\n              sload\n              dup2\n              mstore\n              swap1\n              0x01\n              add\n              swap1\n              0x20\n              add\n              dup1\n              dup4\n              gt\n              tag_88\n              jumpi\n              dup3\n              swap1\n              sub\n              0x1f\n              and\n              dup3\n              add\n              swap2\n            tag_86:\n              pop\n              pop\n              pop\n              pop\n              pop\n              dup2\n              mstore\n              0x20\n              add\n              0x01\n              dup3\n              add\n              dup1\n              sload\n              tag_89\n              swap1\n              tag_84\n              jump\t// in\n            tag_89:\n              dup1\n              0x1f\n              add\n              0x20\n              dup1\n              swap2\n              div\n              mul\n              0x20\n              add\n              mload(0x40)\n              swap1\n              dup2\n              add\n              0x40\n              mstore\n              dup1\n              swap3\n              swap2\n              swap1\n              dup2\n              dup2\n              mstore\n              0x20\n              add\n              dup3\n              dup1\n              sload\n              tag_90\n              swap1\n              tag_84\n              jump\t// in\n            tag_90:\n              dup1\n              iszero\n              tag_91\n              jumpi\n              dup1\n              0x1f\n              lt\n              tag_92\n              jumpi\n              0x0100\n              dup1\n              dup4\n              sload\n              div\n              mul\n              dup4\n              mstore\n              swap2\n              0x20\n              add\n              swap2\n              jump(tag_91)\n            tag_92:\n              dup3\n              add\n              swap2\n              swap1\n              0x00\n              mstore\n              keccak256(0x00, 0x20)\n              swap1\n            tag_93:\n              dup2\n              sload\n              dup2\n              mstore\n              swap1\n              0x01\n              add\n              swap1\n              0x20\n              add\n              dup1\n              dup4\n              gt\n              tag_93\n              jumpi\n              dup3\n              swap1\n              sub\n              0x1f\n              and\n              dup3\n              add\n              swap2\n            tag_91:\n              pop\n              pop\n              pop\n              pop\n              pop\n              dup2\n              mstore\n              0x20\n              add\n              0x02\n              dup3\n              add\n              sload\n              dup2\n              mstore\n              0x20\n              add\n              0x03\n              dup3\n              add\n              dup1\n              sload\n              tag_94\n              swap1\n              tag_84\n              jump\t// in\n            tag_94:\n              dup1\n              0x1f\n              add\n              0x20\n              dup1\n              swap2\n              div\n              mul\n              0x20\n              add\n              mload(0x40)\n              swap1\n              dup2\n              add\n              0x40\n              mstore\n              dup1\n              swap3\n              swap2\n              swap1\n              dup2\n              dup2\n              mstore\n              0x20\n              add\n              dup3\n              dup1\n              sload\n              tag_95\n              swap1\n              tag_84\n              jump\t// in\n            tag_95:\n              dup1\n              iszero\n              tag_96\n              jumpi\n              dup1\n              0x1f\n              lt\n              tag_97\n              jumpi\n              0x0100\n              dup1\n              dup4\n              sload\n              div\n              mul\n              dup4\n              mstore\n              swap2\n              0x20\n              add\n              swap2\n              jump(tag_96)\n            tag_97:\n              dup3\n              add\n              swap2\n              swap1\n              0x00\n              mstore\n              keccak256(0x00, 0x20)\n              swap1\n            tag_98:\n              dup2\n              sload\n              dup2\n              mstore\n              swap1\n              0x01\n              add\n              swap1\n              0x20\n              add\n              dup1\n              dup4\n              gt\n              tag_98\n              jumpi\n              dup3\n              swap1\n              sub\n              0x1f\n              and\n              dup3\n              add\n              swap2\n            tag_96:\n              pop\n              pop\n              pop\n              pop\n              pop\n              dup2\n              mstore\n              0x20\n              add\n              0x04\n              dup3\n              add\n              dup1\n              sload\n              tag_99\n              swap1\n              tag_84\n              jump\t// in\n            tag_99:\n              dup1\n              0x1f\n              add\n              0x20\n              dup1\n              swap2\n              div\n              mul\n              0x20\n              add\n              mload(0x40)\n              swap1\n              dup2\n              add\n              0x40\n              mstore\n              dup1\n              swap3\n              swap2\n              swap1\n              dup2\n              dup2\n              mstore\n              0x20\n              add\n              dup3\n              dup1\n              sload\n              tag_100\n              swap1\n              tag_84\n              jump\t// in\n            tag_100:\n              dup1\n              iszero\n              tag_101\n              jumpi\n              dup1\n              0x1f\n              lt\n              tag_102\n              jumpi\n              0x0100\n              dup1\n              dup4\n              sload\n              div\n              mul\n              dup4\n              mstore\n              swap2\n              0x20\n              add\n              swap2\n              jump(tag_101)\n            tag_102:\n              dup3\n              add\n              swap2\n              swap1\n              0x00\n              mstore\n              keccak256(0x00, 0x20)\n              swap1\n            tag_103:\n              dup2\n              sload\n              dup2\n              mstore\n              swap1\n              0x01\n              add\n              swap1\n              0x20\n              add\n              dup1\n              dup4\n              gt\n              tag_103\n              jumpi\n              dup3\n              swap1\n              sub\n              0x1f\n              and\n              dup3\n              add\n              swap2\n            tag_101:\n              pop\n              pop\n              pop\n              pop\n              pop\n              dup2\n              mstore\n              pop\n              pop\n              swap2\n              pop\n              pop\n                /* \"Election.sol\":2345:2500  function getPartyDetails(uint partyIndex) public view returns(Party memory){... */\n              swap2\n              swap1\n              pop\n              jump\t// out\n                /* \"Election.sol\":723:741  string public name */\n            tag_28:\n              0x01\n              dup1\n              sload\n              tag_104\n              swap1\n              tag_84\n              jump\t// in\n            tag_104:\n              dup1\n              0x1f\n              add\n              0x20\n              dup1\n              swap2\n              div\n              mul\n              0x20\n              add\n              mload(0x40)\n              swap1\n              dup2\n              add\n              0x40\n              mstore\n              dup1\n              swap3\n              swap2\n              swap1\n              dup2\n              dup2\n              mstore\n              0x20\n              add\n              dup3\n              dup1\n              sload\n              tag_105\n              swap1\n              tag_84\n              jump\t// in\n            tag_105:\n              dup1\n              iszero\n              tag_106\n              jumpi\n              dup1\n              0x1f\n              lt\n              tag_107\n              jumpi\n              0x0100\n              dup1\n              dup4\n              sload\n              div\n              mul\n              dup4\n              mstore\n              swap2\n              0x20\n              add\n              swap2\n              jump(tag_106)\n            tag_107:\n              dup3\n              add\n              swap2\n              swap1\n              0x00\n              mstore\n              keccak256(0x00, 0x20)\n              swap1\n            tag_108:\n              dup2\n              sload\n              dup2\n              mstore\n              swap1\n              0x01\n              add\n              swap1\n              0x20\n              add\n              dup1\n              dup4\n              gt\n              tag_108\n              jumpi\n              dup3\n              swap1\n              sub\n              0x1f\n              and\n              dup3\n              add\n              swap2\n            tag_106:\n              pop\n              pop\n              pop\n              pop\n              pop\n              dup2\n              jump\t// out\n                /* \"Election.sol\":2765:2991  function startElection(uint time, uint willEndAt) public restricted {... */\n            tag_34:\n                /* \"Election.sol\":1011:1018  manager */\n              0x02\n              0x00\n              swap1\n              sload\n              swap1\n              0x0100\n              exp\n              swap1\n              div\n              0xffffffffffffffffffffffffffffffffffffffff\n              and\n                /* \"Election.sol\":997:1018  msg.sender == manager */\n              0xffffffffffffffffffffffffffffffffffffffff\n              and\n                /* \"Election.sol\":997:1007  msg.sender */\n              caller\n                /* \"Election.sol\":997:1018  msg.sender == manager */\n              0xffffffffffffffffffffffffffffffffffffffff\n              and\n              eq\n                /* \"Election.sol\":989:1019  require(msg.sender == manager) */\n              tag_110\n              jumpi\n              0x00\n              dup1\n              revert\n            tag_110:\n                /* \"Election.sol\":2864:2869  false */\n              0x00\n                /* \"Election.sol\":2851:2869  isCompleted==false */\n              iszero\n              iszero\n                /* \"Election.sol\":2851:2862  isCompleted */\n              0x04\n              0x00\n              swap1\n              sload\n              swap1\n              0x0100\n              exp\n              swap1\n              div\n              0xff\n              and\n                /* \"Election.sol\":2851:2869  isCompleted==false */\n              iszero\n              iszero\n              eq\n                /* \"Election.sol\":2843:2870  require(isCompleted==false) */\n              tag_112\n              jumpi\n              0x00\n              dup1\n              revert\n            tag_112:\n                /* \"Election.sol\":2899:2904  false */\n              0x00\n                /* \"Election.sol\":2888:2904  isStarted==false */\n              iszero\n              iszero\n                /* \"Election.sol\":2888:2897  isStarted */\n              0x04\n              0x01\n              swap1\n              sload\n              swap1\n              0x0100\n              exp\n              swap1\n              div\n              0xff\n              and\n                /* \"Election.sol\":2888:2904  isStarted==false */\n              iszero\n              iszero\n              eq\n                /* \"Election.sol\":2880:2905  require(isStarted==false) */\n              tag_113\n              jumpi\n              0x00\n              dup1\n              revert\n            tag_113:\n                /* \"Election.sol\":2927:2931  true */\n              0x01\n                /* \"Election.sol\":2915:2924  isStarted */\n              0x04\n              0x01\n                /* \"Election.sol\":2915:2931  isStarted = true */\n              0x0100\n              exp\n              dup2\n              sload\n              dup2\n              0xff\n              mul\n              not\n              and\n              swap1\n              dup4\n              iszero\n              iszero\n              mul\n              or\n              swap1\n              sstore\n              pop\n                /* \"Election.sol\":2953:2957  time */\n              dup2\n                /* \"Election.sol\":2941:2950  startedAt */\n              0x06\n                /* \"Election.sol\":2941:2957  startedAt = time */\n              dup2\n              swap1\n              sstore\n              pop\n                /* \"Election.sol\":2975:2984  willEndAt */\n              dup1\n                /* \"Election.sol\":2967:2972  endAt */\n              0x07\n                /* \"Election.sol\":2967:2984  endAt = willEndAt */\n              dup2\n              swap1\n              sstore\n              pop\n                /* \"Election.sol\":2765:2991  function startElection(uint time, uint willEndAt) public restricted {... */\n              pop\n              pop\n              jump\t// out\n                /* \"Election.sol\":695:717  uint public totalVotes */\n            tag_36:\n              sload(0x00)\n              dup2\n              jump\t// out\n                /* \"Election.sol\":2068:2335  function castVote(uint aadhaar, uint partyIndex) public {... */\n            tag_41:\n                /* \"Election.sol\":2153:2157  true */\n              0x01\n                /* \"Election.sol\":2142:2157  isStarted==true */\n              iszero\n              iszero\n                /* \"Election.sol\":2142:2151  isStarted */\n              0x04\n              0x01\n              swap1\n              sload\n              swap1\n              0x0100\n              exp\n              swap1\n              div\n              0xff\n              and\n                /* \"Election.sol\":2142:2157  isStarted==true */\n              iszero\n              iszero\n              eq\n                /* \"Election.sol\":2134:2158  require(isStarted==true) */\n              tag_115\n              jumpi\n              0x00\n              dup1\n              revert\n            tag_115:\n                /* \"Election.sol\":2192:2197  false */\n              0x00\n                /* \"Election.sol\":2176:2197  voted[aadhaar]==false */\n              iszero\n              iszero\n                /* \"Election.sol\":2176:2181  voted */\n              0x03\n                /* \"Election.sol\":2176:2190  voted[aadhaar] */\n              0x00\n                /* \"Election.sol\":2182:2189  aadhaar */\n              dup5\n                /* \"Election.sol\":2176:2190  voted[aadhaar] */\n              dup2\n              mstore\n              0x20\n              add\n              swap1\n              dup2\n              mstore\n              0x20\n              add\n              0x00\n              keccak256\n              0x00\n              swap1\n              sload\n              swap1\n              0x0100\n              exp\n              swap1\n              div\n              0xff\n              and\n                /* \"Election.sol\":2176:2197  voted[aadhaar]==false */\n              iszero\n              iszero\n              eq\n                /* \"Election.sol\":2168:2198  require(voted[aadhaar]==false) */\n              tag_116\n              jumpi\n              0x00\n              dup1\n              revert\n            tag_116:\n                /* \"Election.sol\":2229:2234  false */\n              0x00\n                /* \"Election.sol\":2216:2234  isCompleted==false */\n              iszero\n              iszero\n                /* \"Election.sol\":2216:2227  isCompleted */\n              0x04\n              0x00\n              swap1\n              sload\n              swap1\n              0x0100\n              exp\n              swap1\n              div\n              0xff\n              and\n                /* \"Election.sol\":2216:2234  isCompleted==false */\n              iszero\n              iszero\n              eq\n                /* \"Election.sol\":2208:2235  require(isCompleted==false) */\n              tag_117\n              jumpi\n              0x00\n              dup1\n              revert\n            tag_117:\n                /* \"Election.sol\":2269:2273  true */\n              0x01\n                /* \"Election.sol\":2254:2259  voted */\n              0x03\n                /* \"Election.sol\":2254:2268  voted[aadhaar] */\n              0x00\n                /* \"Election.sol\":2260:2267  aadhaar */\n              dup5\n                /* \"Election.sol\":2254:2268  voted[aadhaar] */\n              dup2\n              mstore\n              0x20\n              add\n              swap1\n              dup2\n              mstore\n              0x20\n              add\n              0x00\n              keccak256\n              0x00\n                /* \"Election.sol\":2254:2273  voted[aadhaar]=true */\n              0x0100\n              exp\n              dup2\n              sload\n              dup2\n              0xff\n              mul\n              not\n              and\n              swap1\n              dup4\n              iszero\n              iszero\n              mul\n              or\n              swap1\n              sstore\n              pop\n                /* \"Election.sol\":2283:2292  voteCount */\n              0x09\n                /* \"Election.sol\":2293:2303  partyIndex */\n              dup2\n                /* \"Election.sol\":2283:2304  voteCount[partyIndex] */\n              dup2\n              sload\n              dup2\n              lt\n              tag_118\n              jumpi\n              tag_119\n              tag_81\n              jump\t// in\n            tag_119:\n            tag_118:\n              swap1\n              0x00\n              mstore\n              keccak256(0x00, 0x20)\n              add\n              0x00\n                /* \"Election.sol\":2283:2306  voteCount[partyIndex]++ */\n              dup2\n              sload\n              dup1\n              swap3\n              swap2\n              swap1\n              tag_121\n              swap1\n              tag_122\n              jump\t// in\n            tag_121:\n              swap2\n              swap1\n              pop\n              sstore\n              pop\n                /* \"Election.sol\":2316:2326  totalVotes */\n              0x00\n              dup1\n                /* \"Election.sol\":2316:2328  totalVotes++ */\n              dup2\n              sload\n              dup1\n              swap3\n              swap2\n              swap1\n              tag_123\n              swap1\n              tag_122\n              jump\t// in\n            tag_123:\n              swap2\n              swap1\n              pop\n              sstore\n              pop\n                /* \"Election.sol\":2068:2335  function castVote(uint aadhaar, uint partyIndex) public {... */\n              pop\n              pop\n              jump\t// out\n                /* \"Election.sol\":2510:2635  function getResults() public view returns(uint[] memory){... */\n            tag_43:\n                /* \"Election.sol\":2552:2565  uint[] memory */\n              0x60\n                /* \"Election.sol\":2597:2601  true */\n              0x01\n                /* \"Election.sol\":2584:2601  isCompleted==true */\n              iszero\n              iszero\n                /* \"Election.sol\":2584:2595  isCompleted */\n              0x04\n              0x00\n              swap1\n              sload\n              swap1\n              0x0100\n              exp\n              swap1\n              div\n              0xff\n              and\n                /* \"Election.sol\":2584:2601  isCompleted==true */\n              iszero\n              iszero\n              eq\n                /* \"Election.sol\":2576:2602  require(isCompleted==true) */\n              tag_125\n              jumpi\n              0x00\n              dup1\n              revert\n            tag_125:\n                /* \"Election.sol\":2619:2628  voteCount */\n              0x09\n                /* \"Election.sol\":2612:2628  return voteCount */\n              dup1\n              sload\n              dup1\n              0x20\n              mul\n              0x20\n              add\n              mload(0x40)\n              swap1\n              dup2\n              add\n              0x40\n              mstore\n              dup1\n              swap3\n              swap2\n              swap1\n              dup2\n              dup2\n              mstore\n              0x20\n              add\n              dup3\n              dup1\n              sload\n              dup1\n              iszero\n              tag_126\n              jumpi\n              0x20\n              mul\n              dup3\n              add\n              swap2\n              swap1\n              0x00\n              mstore\n              keccak256(0x00, 0x20)\n              swap1\n            tag_127:\n              dup2\n              sload\n              dup2\n              mstore\n              0x20\n              add\n              swap1\n              0x01\n              add\n              swap1\n              dup1\n              dup4\n              gt\n              tag_127\n              jumpi\n            tag_126:\n              pop\n              pop\n              pop\n              pop\n              pop\n              swap1\n              pop\n                /* \"Election.sol\":2510:2635  function getResults() public view returns(uint[] memory){... */\n              swap1\n              jump\t// out\n                /* \"Election.sol\":752:774  address public manager */\n            tag_47:\n              0x02\n              0x00\n              swap1\n              sload\n              swap1\n              0x0100\n              exp\n              swap1\n              div\n              0xffffffffffffffffffffffffffffffffffffffff\n              and\n              dup2\n              jump\t// out\n                /* \"Election.sol\":847:868  bool public isStarted */\n            tag_51:\n              0x04\n              0x01\n              swap1\n              sload\n              swap1\n              0x0100\n              exp\n              swap1\n              div\n              0xff\n              and\n              dup2\n              jump\t// out\n                /* \"Election.sol\":1504:1960  function addParty(string memory partyName, string memory leaderName, uint membersCount, string memory region, string memory image) public restricted{... */\n            tag_57:\n                /* \"Election.sol\":1011:1018  manager */\n              0x02\n              0x00\n              swap1\n              sload\n              swap1\n              0x0100\n              exp\n              swap1\n              div\n              0xffffffffffffffffffffffffffffffffffffffff\n              and\n                /* \"Election.sol\":997:1018  msg.sender == manager */\n              0xffffffffffffffffffffffffffffffffffffffff\n              and\n                /* \"Election.sol\":997:1007  msg.sender */\n              caller\n                /* \"Election.sol\":997:1018  msg.sender == manager */\n              0xffffffffffffffffffffffffffffffffffffffff\n              and\n              eq\n                /* \"Election.sol\":989:1019  require(msg.sender == manager) */\n              tag_129\n              jumpi\n              0x00\n              dup1\n              revert\n            tag_129:\n                /* \"Election.sol\":1671:1680  isStarted */\n              0x04\n              0x01\n              swap1\n              sload\n              swap1\n              0x0100\n              exp\n              swap1\n              div\n              0xff\n              and\n                /* \"Election.sol\":1670:1680  !isStarted */\n              iszero\n                /* \"Election.sol\":1662:1681  require(!isStarted) */\n              tag_131\n              jumpi\n              0x00\n              dup1\n              revert\n            tag_131:\n                /* \"Election.sol\":1691:1709  Party memory party */\n              0x00\n                /* \"Election.sol\":1712:1888  Party({... */\n              mload(0x40)\n              dup1\n              0xa0\n              add\n              0x40\n              mstore\n              dup1\n                /* \"Election.sol\":1738:1747  partyName */\n              dup8\n                /* \"Election.sol\":1712:1888  Party({... */\n              dup2\n              mstore\n              0x20\n              add\n                /* \"Election.sol\":1773:1783  leaderName */\n              dup7\n                /* \"Election.sol\":1712:1888  Party({... */\n              dup2\n              mstore\n              0x20\n              add\n                /* \"Election.sol\":1811:1823  membersCount */\n              dup6\n                /* \"Election.sol\":1712:1888  Party({... */\n              dup2\n              mstore\n              0x20\n              add\n                /* \"Election.sol\":1845:1851  region */\n              dup5\n                /* \"Election.sol\":1712:1888  Party({... */\n              dup2\n              mstore\n              0x20\n              add\n                /* \"Election.sol\":1872:1877  image */\n              dup4\n                /* \"Election.sol\":1712:1888  Party({... */\n              dup2\n              mstore\n              pop\n                /* \"Election.sol\":1691:1888  Party memory party = Party({... */\n              swap1\n              pop\n                /* \"Election.sol\":1907:1914  parties */\n              0x08\n                /* \"Election.sol\":1920:1925  party */\n              dup2\n                /* \"Election.sol\":1907:1926  parties.push(party) */\n              swap1\n              dup1\n              0x01\n              dup2\n              sload\n              add\n              dup1\n              dup3\n              sstore\n              dup1\n              swap2\n              pop\n              pop\n              0x01\n              swap1\n              sub\n              swap1\n              0x00\n              mstore\n              keccak256(0x00, 0x20)\n              swap1\n              0x05\n              mul\n              add\n              0x00\n              swap1\n              swap2\n              swap1\n              swap2\n              swap1\n              swap2\n              pop\n              0x00\n              dup3\n              add\n              mload\n              dup2\n              0x00\n              add\n              swap1\n              dup1\n              mload\n              swap1\n              0x20\n              add\n              swap1\n              tag_133\n              swap3\n              swap2\n              swap1\n              tag_134\n              jump\t// in\n            tag_133:\n              pop\n              0x20\n              dup3\n              add\n              mload\n              dup2\n              0x01\n              add\n              swap1\n              dup1\n              mload\n              swap1\n              0x20\n              add\n              swap1\n              tag_135\n              swap3\n              swap2\n              swap1\n              tag_134\n              jump\t// in\n            tag_135:\n              pop\n              0x40\n              dup3\n              add\n              mload\n              dup2\n              0x02\n              add\n              sstore\n              0x60\n              dup3\n              add\n              mload\n              dup2\n              0x03\n              add\n              swap1\n              dup1\n              mload\n              swap1\n              0x20\n              add\n              swap1\n              tag_136\n              swap3\n              swap2\n              swap1\n              tag_134\n              jump\t// in\n            tag_136:\n              pop\n              0x80\n              dup3\n              add\n              mload\n              dup2\n              0x04\n              add\n              swap1\n              dup1\n              mload\n              swap1\n              0x20\n              add\n              swap1\n              tag_137\n              swap3\n              swap2\n              swap1\n              tag_134\n              jump\t// in\n            tag_137:\n              pop\n              pop\n              pop\n                /* \"Election.sol\":1936:1945  voteCount */\n              0x09\n                /* \"Election.sol\":1951:1952  0 */\n              0x00\n                /* \"Election.sol\":1936:1953  voteCount.push(0) */\n              swap1\n              dup1\n              0x01\n              dup2\n              sload\n              add\n              dup1\n              dup3\n              sstore\n              dup1\n              swap2\n              pop\n              pop\n              0x01\n              swap1\n              sub\n              swap1\n              0x00\n              mstore\n              keccak256(0x00, 0x20)\n              add\n              0x00\n              swap1\n              swap2\n              swap1\n              swap2\n              swap1\n              swap2\n              pop\n              sstore\n                /* \"Election.sol\":1652:1960  {... */\n              pop\n                /* \"Election.sol\":1504:1960  function addParty(string memory partyName, string memory leaderName, uint membersCount, string memory region, string memory image) public restricted{... */\n              pop\n              pop\n              pop\n              pop\n              pop\n              jump\t// out\n                /* \"Election.sol\":2645:2755  function endElection() public restricted {... */\n            tag_59:\n                /* \"Election.sol\":1011:1018  manager */\n              0x02\n              0x00\n              swap1\n              sload\n              swap1\n              0x0100\n              exp\n              swap1\n              div\n              0xffffffffffffffffffffffffffffffffffffffff\n              and\n                /* \"Election.sol\":997:1018  msg.sender == manager */\n              0xffffffffffffffffffffffffffffffffffffffff\n              and\n                /* \"Election.sol\":997:1007  msg.sender */\n              caller\n                /* \"Election.sol\":997:1018  msg.sender == manager */\n              0xffffffffffffffffffffffffffffffffffffffff\n              and\n              eq\n                /* \"Election.sol\":989:1019  require(msg.sender == manager) */\n              tag_140\n              jumpi\n              0x00\n              dup1\n              revert\n            tag_140:\n                /* \"Election.sol\":2715:2719  true */\n              0x01\n                /* \"Election.sol\":2704:2719  isStarted==true */\n              iszero\n              iszero\n                /* \"Election.sol\":2704:2713  isStarted */\n              0x04\n              0x01\n              swap1\n              sload\n              swap1\n              0x0100\n              exp\n              swap1\n              div\n              0xff\n              and\n                /* \"Election.sol\":2704:2719  isStarted==true */\n              iszero\n              iszero\n              eq\n                /* \"Election.sol\":2696:2720  require(isStarted==true) */\n              tag_142\n              jumpi\n              0x00\n              dup1\n              revert\n            tag_142:\n                /* \"Election.sol\":2744:2748  true */\n              0x01\n                /* \"Election.sol\":2730:2741  isCompleted */\n              0x04\n              0x00\n                /* \"Election.sol\":2730:2748  isCompleted = true */\n              0x0100\n              exp\n              dup2\n              sload\n              dup2\n              0xff\n              mul\n              not\n              and\n              swap1\n              dup4\n              iszero\n              iszero\n              mul\n              or\n              swap1\n              sstore\n              pop\n                /* \"Election.sol\":2645:2755  function endElection() public restricted {... */\n              jump\t// out\n                /* \"Election.sol\":929:946  uint public endAt */\n            tag_61:\n              sload(0x07)\n              dup2\n              jump\t// out\n                /* \"Election.sol\":1970:2058  function getParties() public view returns(Party[] memory){... */\n            tag_64:\n                /* \"Election.sol\":2012:2026  Party[] memory */\n              0x60\n                /* \"Election.sol\":2044:2051  parties */\n              0x08\n                /* \"Election.sol\":2037:2051  return parties */\n              dup1\n              sload\n              dup1\n              0x20\n              mul\n              0x20\n              add\n              mload(0x40)\n              swap1\n              dup2\n              add\n              0x40\n              mstore\n              dup1\n              swap3\n              swap2\n              swap1\n              dup2\n              dup2\n              mstore\n              0x20\n              add\n              0x00\n              swap1\n            tag_144:\n              dup3\n              dup3\n              lt\n              iszero\n              tag_145\n              jumpi\n              dup4\n              dup3\n              swap1\n              0x00\n              mstore\n              keccak256(0x00, 0x20)\n              swap1\n              0x05\n              mul\n              add\n              mload(0x40)\n              dup1\n              0xa0\n              add\n              0x40\n              mstore\n              swap1\n              dup2\n              0x00\n              dup3\n              add\n              dup1\n              sload\n              tag_147\n              swap1\n              tag_84\n              jump\t// in\n            tag_147:\n              dup1\n              0x1f\n              add\n              0x20\n              dup1\n              swap2\n              div\n              mul\n              0x20\n              add\n              mload(0x40)\n              swap1\n              dup2\n              add\n              0x40\n              mstore\n              dup1\n              swap3\n              swap2\n              swap1\n              dup2\n              dup2\n              mstore\n              0x20\n              add\n              dup3\n              dup1\n              sload\n              tag_148\n              swap1\n              tag_84\n              jump\t// in\n            tag_148:\n              dup1\n              iszero\n              tag_149\n              jumpi\n              dup1\n              0x1f\n              lt\n              tag_150\n              jumpi\n              0x0100\n              dup1\n              dup4\n              sload\n              div\n              mul\n              dup4\n              mstore\n              swap2\n              0x20\n              add\n              swap2\n              jump(tag_149)\n            tag_150:\n              dup3\n              add\n              swap2\n              swap1\n              0x00\n              mstore\n              keccak256(0x00, 0x20)\n              swap1\n            tag_151:\n              dup2\n              sload\n              dup2\n              mstore\n              swap1\n              0x01\n              add\n              swap1\n              0x20\n              add\n              dup1\n              dup4\n              gt\n              tag_151\n              jumpi\n              dup3\n              swap1\n              sub\n              0x1f\n              and\n              dup3\n              add\n              swap2\n            tag_149:\n              pop\n              pop\n              pop\n              pop\n              pop\n              dup2\n              mstore\n              0x20\n              add\n              0x01\n              dup3\n              add\n              dup1\n              sload\n              tag_152\n              swap1\n              tag_84\n              jump\t// in\n            tag_152:\n              dup1\n              0x1f\n              add\n              0x20\n              dup1\n              swap2\n              div\n              mul\n              0x20\n              add\n              mload(0x40)\n              swap1\n              dup2\n              add\n              0x40\n              mstore\n              dup1\n              swap3\n              swap2\n              swap1\n              dup2\n              dup2\n              mstore\n              0x20\n              add\n              dup3\n              dup1\n              sload\n              tag_153\n              swap1\n              tag_84\n              jump\t// in\n            tag_153:\n              dup1\n              iszero\n              tag_154\n              jumpi\n              dup1\n              0x1f\n              lt\n              tag_155\n              jumpi\n              0x0100\n              dup1\n              dup4\n              sload\n              div\n              mul\n              dup4\n              mstore\n              swap2\n              0x20\n              add\n              swap2\n              jump(tag_154)\n            tag_155:\n              dup3\n              add\n              swap2\n              swap1\n              0x00\n              mstore\n              keccak256(0x00, 0x20)\n              swap1\n            tag_156:\n              dup2\n              sload\n              dup2\n              mstore\n              swap1\n              0x01\n              add\n              swap1\n              0x20\n              add\n              dup1\n              dup4\n              gt\n              tag_156\n              jumpi\n              dup3\n              swap1\n              sub\n              0x1f\n              and\n              dup3\n              add\n              swap2\n            tag_154:\n              pop\n              pop\n              pop\n              pop\n              pop\n              dup2\n              mstore\n              0x20\n              add\n              0x02\n              dup3\n              add\n              sload\n              dup2\n              mstore\n              0x20\n              add\n              0x03\n              dup3\n              add\n              dup1\n              sload\n              tag_157\n              swap1\n              tag_84\n              jump\t// in\n            tag_157:\n              dup1\n              0x1f\n              add\n              0x20\n              dup1\n              swap2\n              div\n              mul\n              0x20\n              add\n              mload(0x40)\n              swap1\n              dup2\n              add\n              0x40\n              mstore\n              dup1\n              swap3\n              swap2\n              swap1\n              dup2\n              dup2\n              mstore\n              0x20\n              add\n              dup3\n              dup1\n              sload\n              tag_158\n              swap1\n              tag_84\n              jump\t// in\n            tag_158:\n              dup1\n              iszero\n              tag_159\n              jumpi\n              dup1\n              0x1f\n              lt\n              tag_160\n              jumpi\n              0x0100\n              dup1\n              dup4\n              sload\n              div\n              mul\n              dup4\n              mstore\n              swap2\n              0x20\n              add\n              swap2\n              jump(tag_159)\n            tag_160:\n              dup3\n              add\n              swap2\n              swap1\n              0x00\n              mstore\n              keccak256(0x00, 0x20)\n              swap1\n            tag_161:\n              dup2\n              sload\n              dup2\n              mstore\n              swap1\n              0x01\n              add\n              swap1\n              0x20\n              add\n              dup1\n              dup4\n              gt\n              tag_161\n              jumpi\n              dup3\n              swap1\n              sub\n              0x1f\n              and\n              dup3\n              add\n              swap2\n            tag_159:\n              pop\n              pop\n              pop\n              pop\n              pop\n              dup2\n              mstore\n              0x20\n              add\n              0x04\n              dup3\n              add\n              dup1\n              sload\n              tag_162\n              swap1\n              tag_84\n              jump\t// in\n            tag_162:\n              dup1\n              0x1f\n              add\n              0x20\n              dup1\n              swap2\n              div\n              mul\n              0x20\n              add\n              mload(0x40)\n              swap1\n              dup2\n              add\n              0x40\n              mstore\n              dup1\n              swap3\n              swap2\n              swap1\n              dup2\n              dup2\n              mstore\n              0x20\n              add\n              dup3\n              dup1\n              sload\n              tag_163\n              swap1\n              tag_84\n              jump\t// in\n            tag_163:\n              dup1\n              iszero\n              tag_164\n              jumpi\n              dup1\n              0x1f\n              lt\n              tag_165\n              jumpi\n              0x0100\n              dup1\n              dup4\n              sload\n              div\n              mul\n              dup4\n              mstore\n              swap2\n              0x20\n              add\n              swap2\n              jump(tag_164)\n            tag_165:\n              dup3\n              add\n              swap2\n              swap1\n              0x00\n              mstore\n              keccak256(0x00, 0x20)\n              swap1\n            tag_166:\n              dup2\n              sload\n              dup2\n              mstore\n              swap1\n              0x01\n              add\n              swap1\n              0x20\n              add\n              dup1\n              dup4\n              gt\n              tag_166\n              jumpi\n              dup3\n              swap1\n              sub\n              0x1f\n              and\n              dup3\n              add\n              swap2\n            tag_164:\n              pop\n              pop\n              pop\n              pop\n              pop\n              dup2\n              mstore\n              pop\n              pop\n              dup2\n              mstore\n              0x20\n              add\n              swap1\n              0x01\n              add\n              swap1\n              jump(tag_144)\n            tag_145:\n              pop\n              pop\n              pop\n              pop\n              swap1\n              pop\n                /* \"Election.sol\":1970:2058  function getParties() public view returns(Party[] memory){... */\n              swap1\n              jump\t// out\n                /* \"Election.sol\":875:896  uint public createdAt */\n            tag_68:\n              sload(0x05)\n              dup2\n              jump\t// out\n                /* \"Election.sol\":902:923  uint public startedAt */\n            tag_71:\n              sload(0x06)\n              dup2\n              jump\t// out\n                /* \"Election.sol\":818:841  bool public isCompleted */\n            tag_74:\n              0x04\n              0x00\n              swap1\n              sload\n              swap1\n              0x0100\n              exp\n              swap1\n              div\n              0xff\n              and\n              dup2\n              jump\t// out\n            tag_77:\n              mload(0x40)\n              dup1\n              0xa0\n              add\n              0x40\n              mstore\n              dup1\n              0x60\n              dup2\n              mstore\n              0x20\n              add\n              0x60\n              dup2\n              mstore\n              0x20\n              add\n              0x00\n              dup2\n              mstore\n              0x20\n              add\n              0x60\n              dup2\n              mstore\n              0x20\n              add\n              0x60\n              dup2\n              mstore\n              pop\n              swap1\n              jump\t// out\n            tag_134:\n              dup3\n              dup1\n              sload\n              tag_167\n              swap1\n              tag_84\n              jump\t// in\n            tag_167:\n              swap1\n              0x00\n              mstore\n              keccak256(0x00, 0x20)\n              swap1\n              0x1f\n              add\n              0x20\n              swap1\n              div\n              dup2\n              add\n              swap3\n              dup3\n              tag_169\n              jumpi\n              0x00\n              dup6\n              sstore\n              jump(tag_168)\n            tag_169:\n              dup3\n              0x1f\n              lt\n              tag_170\n              jumpi\n              dup1\n              mload\n              not(0xff)\n              and\n              dup4\n              dup1\n              add\n              or\n              dup6\n              sstore\n              jump(tag_168)\n            tag_170:\n              dup3\n              dup1\n              add\n              0x01\n              add\n              dup6\n              sstore\n              dup3\n              iszero\n              tag_168\n              jumpi\n              swap2\n              dup3\n              add\n            tag_171:\n              dup3\n              dup2\n              gt\n              iszero\n              tag_172\n              jumpi\n              dup3\n              mload\n              dup3\n              sstore\n              swap2\n              0x20\n              add\n              swap2\n              swap1\n              0x01\n              add\n              swap1\n              jump(tag_171)\n            tag_172:\n            tag_168:\n              pop\n              swap1\n              pop\n              tag_173\n              swap2\n              swap1\n              tag_174\n              jump\t// in\n            tag_173:\n              pop\n              swap1\n              jump\t// out\n            tag_174:\n            tag_175:\n              dup1\n              dup3\n              gt\n              iszero\n              tag_176\n              jumpi\n              0x00\n              dup2\n              0x00\n              swap1\n              sstore\n              pop\n              0x01\n              add\n              jump(tag_175)\n            tag_176:\n              pop\n              swap1\n              jump\t// out\n                /* \"#utility.yul\":7:82   */\n            tag_177:\n                /* \"#utility.yul\":40:46   */\n              0x00\n                /* \"#utility.yul\":73:75   */\n              0x40\n                /* \"#utility.yul\":67:76   */\n              mload\n                /* \"#utility.yul\":57:76   */\n              swap1\n              pop\n                /* \"#utility.yul\":7:82   */\n              swap1\n              jump\t// out\n                /* \"#utility.yul\":88:205   */\n            tag_178:\n                /* \"#utility.yul\":197:198   */\n              0x00\n                /* \"#utility.yul\":194:195   */\n              dup1\n                /* \"#utility.yul\":187:199   */\n              revert\n                /* \"#utility.yul\":211:328   */\n            tag_179:\n                /* \"#utility.yul\":320:321   */\n              0x00\n                /* \"#utility.yul\":317:318   */\n              dup1\n                /* \"#utility.yul\":310:322   */\n              revert\n                /* \"#utility.yul\":334:411   */\n            tag_180:\n                /* \"#utility.yul\":371:378   */\n              0x00\n                /* \"#utility.yul\":400:405   */\n              dup2\n                /* \"#utility.yul\":389:405   */\n              swap1\n              pop\n                /* \"#utility.yul\":334:411   */\n              swap2\n              swap1\n              pop\n              jump\t// out\n                /* \"#utility.yul\":417:539   */\n            tag_181:\n                /* \"#utility.yul\":490:514   */\n              tag_228\n                /* \"#utility.yul\":508:513   */\n              dup2\n                /* \"#utility.yul\":490:514   */\n              tag_180\n              jump\t// in\n            tag_228:\n                /* \"#utility.yul\":483:488   */\n              dup2\n                /* \"#utility.yul\":480:515   */\n              eq\n                /* \"#utility.yul\":470:533   */\n              tag_229\n              jumpi\n                /* \"#utility.yul\":529:530   */\n              0x00\n                /* \"#utility.yul\":526:527   */\n              dup1\n                /* \"#utility.yul\":519:531   */\n              revert\n                /* \"#utility.yul\":470:533   */\n            tag_229:\n                /* \"#utility.yul\":417:539   */\n              pop\n              jump\t// out\n                /* \"#utility.yul\":545:684   */\n            tag_182:\n                /* \"#utility.yul\":591:596   */\n              0x00\n                /* \"#utility.yul\":629:635   */\n              dup2\n                /* \"#utility.yul\":616:636   */\n              calldataload\n                /* \"#utility.yul\":607:636   */\n              swap1\n              pop\n                /* \"#utility.yul\":645:678   */\n              tag_231\n                /* \"#utility.yul\":672:677   */\n              dup2\n                /* \"#utility.yul\":645:678   */\n              tag_181\n              jump\t// in\n            tag_231:\n                /* \"#utility.yul\":545:684   */\n              swap3\n              swap2\n              pop\n              pop\n              jump\t// out\n                /* \"#utility.yul\":690:1019   */\n            tag_23:\n                /* \"#utility.yul\":749:755   */\n              0x00\n                /* \"#utility.yul\":798:800   */\n              0x20\n                /* \"#utility.yul\":786:795   */\n              dup3\n                /* \"#utility.yul\":777:784   */\n              dup5\n                /* \"#utility.yul\":773:796   */\n              sub\n                /* \"#utility.yul\":769:801   */\n              slt\n                /* \"#utility.yul\":766:885   */\n              iszero\n              tag_233\n              jumpi\n                /* \"#utility.yul\":804:883   */\n              tag_234\n              tag_178\n              jump\t// in\n            tag_234:\n                /* \"#utility.yul\":766:885   */\n            tag_233:\n                /* \"#utility.yul\":924:925   */\n              0x00\n                /* \"#utility.yul\":949:1002   */\n              tag_235\n                /* \"#utility.yul\":994:1001   */\n              dup5\n                /* \"#utility.yul\":985:991   */\n              dup3\n                /* \"#utility.yul\":974:983   */\n              dup6\n                /* \"#utility.yul\":970:992   */\n              add\n                /* \"#utility.yul\":949:1002   */\n              tag_182\n              jump\t// in\n            tag_235:\n                /* \"#utility.yul\":939:1002   */\n              swap2\n              pop\n                /* \"#utility.yul\":895:1012   */\n              pop\n                /* \"#utility.yul\":690:1019   */\n              swap3\n              swap2\n              pop\n              pop\n              jump\t// out\n                /* \"#utility.yul\":1025:1124   */\n            tag_183:\n                /* \"#utility.yul\":1077:1083   */\n              0x00\n                /* \"#utility.yul\":1111:1116   */\n              dup2\n                /* \"#utility.yul\":1105:1117   */\n              mload\n                /* \"#utility.yul\":1095:1117   */\n              swap1\n              pop\n                /* \"#utility.yul\":1025:1124   */\n              swap2\n              swap1\n              pop\n              jump\t// out\n                /* \"#utility.yul\":1130:1289   */\n            tag_184:\n                /* \"#utility.yul\":1204:1215   */\n              0x00\n                /* \"#utility.yul\":1238:1244   */\n              dup3\n                /* \"#utility.yul\":1233:1236   */\n              dup3\n                /* \"#utility.yul\":1226:1245   */\n              mstore\n                /* \"#utility.yul\":1278:1282   */\n              0x20\n                /* \"#utility.yul\":1273:1276   */\n              dup3\n                /* \"#utility.yul\":1269:1283   */\n              add\n                /* \"#utility.yul\":1254:1283   */\n              swap1\n              pop\n                /* \"#utility.yul\":1130:1289   */\n              swap3\n              swap2\n              pop\n              pop\n              jump\t// out\n                /* \"#utility.yul\":1295:1602   */\n            tag_185:\n                /* \"#utility.yul\":1363:1364   */\n              0x00\n                /* \"#utility.yul\":1373:1486   */\n            tag_239:\n                /* \"#utility.yul\":1387:1393   */\n              dup4\n                /* \"#utility.yul\":1384:1385   */\n              dup2\n                /* \"#utility.yul\":1381:1394   */\n              lt\n                /* \"#utility.yul\":1373:1486   */\n              iszero\n              tag_241\n              jumpi\n                /* \"#utility.yul\":1472:1473   */\n              dup1\n                /* \"#utility.yul\":1467:1470   */\n              dup3\n                /* \"#utility.yul\":1463:1474   */\n              add\n                /* \"#utility.yul\":1457:1475   */\n              mload\n                /* \"#utility.yul\":1453:1454   */\n              dup2\n                /* \"#utility.yul\":1448:1451   */\n              dup5\n                /* \"#utility.yul\":1444:1455   */\n              add\n                /* \"#utility.yul\":1437:1476   */\n              mstore\n                /* \"#utility.yul\":1409:1411   */\n              0x20\n                /* \"#utility.yul\":1406:1407   */\n              dup2\n                /* \"#utility.yul\":1402:1412   */\n              add\n                /* \"#utility.yul\":1397:1412   */\n              swap1\n              pop\n                /* \"#utility.yul\":1373:1486   */\n              jump(tag_239)\n            tag_241:\n                /* \"#utility.yul\":1504:1510   */\n              dup4\n                /* \"#utility.yul\":1501:1502   */\n              dup2\n                /* \"#utility.yul\":1498:1511   */\n              gt\n                /* \"#utility.yul\":1495:1596   */\n              iszero\n              tag_242\n              jumpi\n                /* \"#utility.yul\":1584:1585   */\n              0x00\n                /* \"#utility.yul\":1575:1581   */\n              dup5\n                /* \"#utility.yul\":1570:1573   */\n              dup5\n                /* \"#utility.yul\":1566:1582   */\n              add\n                /* \"#utility.yul\":1559:1586   */\n              mstore\n                /* \"#utility.yul\":1495:1596   */\n            tag_242:\n                /* \"#utility.yul\":1344:1602   */\n              pop\n                /* \"#utility.yul\":1295:1602   */\n              pop\n              pop\n              pop\n              jump\t// out\n                /* \"#utility.yul\":1608:1710   */\n            tag_186:\n                /* \"#utility.yul\":1649:1655   */\n              0x00\n                /* \"#utility.yul\":1700:1702   */\n              0x1f\n                /* \"#utility.yul\":1696:1703   */\n              not\n                /* \"#utility.yul\":1691:1693   */\n              0x1f\n                /* \"#utility.yul\":1684:1689   */\n              dup4\n                /* \"#utility.yul\":1680:1694   */\n              add\n                /* \"#utility.yul\":1676:1704   */\n              and\n                /* \"#utility.yul\":1666:1704   */\n              swap1\n              pop\n                /* \"#utility.yul\":1608:1710   */\n              swap2\n              swap1\n              pop\n              jump\t// out\n                /* \"#utility.yul\":1716:2060   */\n            tag_187:\n                /* \"#utility.yul\":1794:1797   */\n              0x00\n                /* \"#utility.yul\":1822:1861   */\n              tag_245\n                /* \"#utility.yul\":1855:1860   */\n              dup3\n                /* \"#utility.yul\":1822:1861   */\n              tag_183\n              jump\t// in\n            tag_245:\n                /* \"#utility.yul\":1877:1938   */\n              tag_246\n                /* \"#utility.yul\":1931:1937   */\n              dup2\n                /* \"#utility.yul\":1926:1929   */\n              dup6\n                /* \"#utility.yul\":1877:1938   */\n              tag_184\n              jump\t// in\n            tag_246:\n                /* \"#utility.yul\":1870:1938   */\n              swap4\n              pop\n                /* \"#utility.yul\":1947:1999   */\n              tag_247\n                /* \"#utility.yul\":1992:1998   */\n              dup2\n                /* \"#utility.yul\":1987:1990   */\n              dup6\n                /* \"#utility.yul\":1980:1984   */\n              0x20\n                /* \"#utility.yul\":1973:1978   */\n              dup7\n                /* \"#utility.yul\":1969:1985   */\n              add\n                /* \"#utility.yul\":1947:1999   */\n              tag_185\n              jump\t// in\n            tag_247:\n                /* \"#utility.yul\":2024:2053   */\n              tag_248\n                /* \"#utility.yul\":2046:2052   */\n              dup2\n                /* \"#utility.yul\":2024:2053   */\n              tag_186\n              jump\t// in\n            tag_248:\n                /* \"#utility.yul\":2019:2022   */\n              dup5\n                /* \"#utility.yul\":2015:2054   */\n              add\n                /* \"#utility.yul\":2008:2054   */\n              swap2\n              pop\n                /* \"#utility.yul\":1798:2060   */\n              pop\n                /* \"#utility.yul\":1716:2060   */\n              swap3\n              swap2\n              pop\n              pop\n              jump\t// out\n                /* \"#utility.yul\":2066:2174   */\n            tag_188:\n                /* \"#utility.yul\":2143:2167   */\n              tag_250\n                /* \"#utility.yul\":2161:2166   */\n              dup2\n                /* \"#utility.yul\":2143:2167   */\n              tag_180\n              jump\t// in\n            tag_250:\n                /* \"#utility.yul\":2138:2141   */\n              dup3\n                /* \"#utility.yul\":2131:2168   */\n              mstore\n                /* \"#utility.yul\":2066:2174   */\n              pop\n              pop\n              jump\t// out\n                /* \"#utility.yul\":2234:3586   */\n            tag_189:\n                /* \"#utility.yul\":2347:2350   */\n              0x00\n                /* \"#utility.yul\":2383:2387   */\n              0xa0\n                /* \"#utility.yul\":2378:2381   */\n              dup4\n                /* \"#utility.yul\":2374:2388   */\n              add\n                /* \"#utility.yul\":2470:2474   */\n              0x00\n                /* \"#utility.yul\":2463:2468   */\n              dup4\n                /* \"#utility.yul\":2459:2475   */\n              add\n                /* \"#utility.yul\":2453:2476   */\n              mload\n                /* \"#utility.yul\":2523:2526   */\n              dup5\n                /* \"#utility.yul\":2517:2521   */\n              dup3\n                /* \"#utility.yul\":2513:2527   */\n              sub\n                /* \"#utility.yul\":2506:2510   */\n              0x00\n                /* \"#utility.yul\":2501:2504   */\n              dup7\n                /* \"#utility.yul\":2497:2511   */\n              add\n                /* \"#utility.yul\":2490:2528   */\n              mstore\n                /* \"#utility.yul\":2549:2622   */\n              tag_252\n                /* \"#utility.yul\":2617:2621   */\n              dup3\n                /* \"#utility.yul\":2603:2615   */\n              dup3\n                /* \"#utility.yul\":2549:2622   */\n              tag_187\n              jump\t// in\n            tag_252:\n                /* \"#utility.yul\":2541:2622   */\n              swap2\n              pop\n                /* \"#utility.yul\":2398:2633   */\n              pop\n                /* \"#utility.yul\":2721:2725   */\n              0x20\n                /* \"#utility.yul\":2714:2719   */\n              dup4\n                /* \"#utility.yul\":2710:2726   */\n              add\n                /* \"#utility.yul\":2704:2727   */\n              mload\n                /* \"#utility.yul\":2774:2777   */\n              dup5\n                /* \"#utility.yul\":2768:2772   */\n              dup3\n                /* \"#utility.yul\":2764:2778   */\n              sub\n                /* \"#utility.yul\":2757:2761   */\n              0x20\n                /* \"#utility.yul\":2752:2755   */\n              dup7\n                /* \"#utility.yul\":2748:2762   */\n              add\n                /* \"#utility.yul\":2741:2779   */\n              mstore\n                /* \"#utility.yul\":2800:2873   */\n              tag_253\n                /* \"#utility.yul\":2868:2872   */\n              dup3\n                /* \"#utility.yul\":2854:2866   */\n              dup3\n                /* \"#utility.yul\":2800:2873   */\n              tag_187\n              jump\t// in\n            tag_253:\n                /* \"#utility.yul\":2792:2873   */\n              swap2\n              pop\n                /* \"#utility.yul\":2643:2884   */\n              pop\n                /* \"#utility.yul\":2974:2978   */\n              0x40\n                /* \"#utility.yul\":2967:2972   */\n              dup4\n                /* \"#utility.yul\":2963:2979   */\n              add\n                /* \"#utility.yul\":2957:2980   */\n              mload\n                /* \"#utility.yul\":2993:3056   */\n              tag_254\n                /* \"#utility.yul\":3050:3054   */\n              0x40\n                /* \"#utility.yul\":3045:3048   */\n              dup7\n                /* \"#utility.yul\":3041:3055   */\n              add\n                /* \"#utility.yul\":3027:3039   */\n              dup3\n                /* \"#utility.yul\":2993:3056   */\n              tag_188\n              jump\t// in\n            tag_254:\n                /* \"#utility.yul\":2894:3066   */\n              pop\n                /* \"#utility.yul\":3150:3154   */\n              0x60\n                /* \"#utility.yul\":3143:3148   */\n              dup4\n                /* \"#utility.yul\":3139:3155   */\n              add\n                /* \"#utility.yul\":3133:3156   */\n              mload\n                /* \"#utility.yul\":3203:3206   */\n              dup5\n                /* \"#utility.yul\":3197:3201   */\n              dup3\n                /* \"#utility.yul\":3193:3207   */\n              sub\n                /* \"#utility.yul\":3186:3190   */\n              0x60\n                /* \"#utility.yul\":3181:3184   */\n              dup7\n                /* \"#utility.yul\":3177:3191   */\n              add\n                /* \"#utility.yul\":3170:3208   */\n              mstore\n                /* \"#utility.yul\":3229:3302   */\n              tag_255\n                /* \"#utility.yul\":3297:3301   */\n              dup3\n                /* \"#utility.yul\":3283:3295   */\n              dup3\n                /* \"#utility.yul\":3229:3302   */\n              tag_187\n              jump\t// in\n            tag_255:\n                /* \"#utility.yul\":3221:3302   */\n              swap2\n              pop\n                /* \"#utility.yul\":3076:3313   */\n              pop\n                /* \"#utility.yul\":3396:3400   */\n              0x80\n                /* \"#utility.yul\":3389:3394   */\n              dup4\n                /* \"#utility.yul\":3385:3401   */\n              add\n                /* \"#utility.yul\":3379:3402   */\n              mload\n                /* \"#utility.yul\":3449:3452   */\n              dup5\n                /* \"#utility.yul\":3443:3447   */\n              dup3\n                /* \"#utility.yul\":3439:3453   */\n              sub\n                /* \"#utility.yul\":3432:3436   */\n              0x80\n                /* \"#utility.yul\":3427:3430   */\n              dup7\n                /* \"#utility.yul\":3423:3437   */\n              add\n                /* \"#utility.yul\":3416:3454   */\n              mstore\n                /* \"#utility.yul\":3475:3548   */\n              tag_256\n                /* \"#utility.yul\":3543:3547   */\n              dup3\n                /* \"#utility.yul\":3529:3541   */\n              dup3\n                /* \"#utility.yul\":3475:3548   */\n              tag_187\n              jump\t// in\n            tag_256:\n                /* \"#utility.yul\":3467:3548   */\n              swap2\n              pop\n                /* \"#utility.yul\":3323:3559   */\n              pop\n                /* \"#utility.yul\":3576:3580   */\n              dup1\n                /* \"#utility.yul\":3569:3580   */\n              swap2\n              pop\n                /* \"#utility.yul\":2352:3586   */\n              pop\n                /* \"#utility.yul\":2234:3586   */\n              swap3\n              swap2\n              pop\n              pop\n              jump\t// out\n                /* \"#utility.yul\":3592:3953   */\n            tag_26:\n                /* \"#utility.yul\":3729:3733   */\n              0x00\n                /* \"#utility.yul\":3767:3769   */\n              0x20\n                /* \"#utility.yul\":3756:3765   */\n              dup3\n                /* \"#utility.yul\":3752:3770   */\n              add\n                /* \"#utility.yul\":3744:3770   */\n              swap1\n              pop\n                /* \"#utility.yul\":3816:3825   */\n              dup2\n                /* \"#utility.yul\":3810:3814   */\n              dup2\n                /* \"#utility.yul\":3806:3826   */\n              sub\n                /* \"#utility.yul\":3802:3803   */\n              0x00\n                /* \"#utility.yul\":3791:3800   */\n              dup4\n                /* \"#utility.yul\":3787:3804   */\n              add\n                /* \"#utility.yul\":3780:3827   */\n              mstore\n                /* \"#utility.yul\":3844:3946   */\n              tag_258\n                /* \"#utility.yul\":3941:3945   */\n              dup2\n                /* \"#utility.yul\":3932:3938   */\n              dup5\n                /* \"#utility.yul\":3844:3946   */\n              tag_189\n              jump\t// in\n            tag_258:\n                /* \"#utility.yul\":3836:3946   */\n              swap1\n              pop\n                /* \"#utility.yul\":3592:3953   */\n              swap3\n              swap2\n              pop\n              pop\n              jump\t// out\n                /* \"#utility.yul\":3959:4128   */\n            tag_190:\n                /* \"#utility.yul\":4043:4054   */\n              0x00\n                /* \"#utility.yul\":4077:4083   */\n              dup3\n                /* \"#utility.yul\":4072:4075   */\n              dup3\n                /* \"#utility.yul\":4065:4084   */\n              mstore\n                /* \"#utility.yul\":4117:4121   */\n              0x20\n                /* \"#utility.yul\":4112:4115   */\n              dup3\n                /* \"#utility.yul\":4108:4122   */\n              add\n                /* \"#utility.yul\":4093:4122   */\n              swap1\n              pop\n                /* \"#utility.yul\":3959:4128   */\n              swap3\n              swap2\n              pop\n              pop\n              jump\t// out\n                /* \"#utility.yul\":4134:4498   */\n            tag_191:\n                /* \"#utility.yul\":4222:4225   */\n              0x00\n                /* \"#utility.yul\":4250:4289   */\n              tag_261\n                /* \"#utility.yul\":4283:4288   */\n              dup3\n                /* \"#utility.yul\":4250:4289   */\n              tag_183\n              jump\t// in\n            tag_261:\n                /* \"#utility.yul\":4305:4376   */\n              tag_262\n                /* \"#utility.yul\":4369:4375   */\n              dup2\n                /* \"#utility.yul\":4364:4367   */\n              dup6\n                /* \"#utility.yul\":4305:4376   */\n              tag_190\n              jump\t// in\n            tag_262:\n                /* \"#utility.yul\":4298:4376   */\n              swap4\n              pop\n                /* \"#utility.yul\":4385:4437   */\n              tag_263\n                /* \"#utility.yul\":4430:4436   */\n              dup2\n                /* \"#utility.yul\":4425:4428   */\n              dup6\n                /* \"#utility.yul\":4418:4422   */\n              0x20\n                /* \"#utility.yul\":4411:4416   */\n              dup7\n                /* \"#utility.yul\":4407:4423   */\n              add\n                /* \"#utility.yul\":4385:4437   */\n              tag_185\n              jump\t// in\n            tag_263:\n                /* \"#utility.yul\":4462:4491   */\n              tag_264\n                /* \"#utility.yul\":4484:4490   */\n              dup2\n                /* \"#utility.yul\":4462:4491   */\n              tag_186\n              jump\t// in\n            tag_264:\n                /* \"#utility.yul\":4457:4460   */\n              dup5\n                /* \"#utility.yul\":4453:4492   */\n              add\n                /* \"#utility.yul\":4446:4492   */\n              swap2\n              pop\n                /* \"#utility.yul\":4226:4498   */\n              pop\n                /* \"#utility.yul\":4134:4498   */\n              swap3\n              swap2\n              pop\n              pop\n              jump\t// out\n                /* \"#utility.yul\":4504:4817   */\n            tag_30:\n                /* \"#utility.yul\":4617:4621   */\n              0x00\n                /* \"#utility.yul\":4655:4657   */\n              0x20\n                /* \"#utility.yul\":4644:4653   */\n              dup3\n                /* \"#utility.yul\":4640:4658   */\n              add\n                /* \"#utility.yul\":4632:4658   */\n              swap1\n              pop\n                /* \"#utility.yul\":4704:4713   */\n              dup2\n                /* \"#utility.yul\":4698:4702   */\n              dup2\n                /* \"#utility.yul\":4694:4714   */\n              sub\n                /* \"#utility.yul\":4690:4691   */\n              0x00\n                /* \"#utility.yul\":4679:4688   */\n              dup4\n                /* \"#utility.yul\":4675:4692   */\n              add\n                /* \"#utility.yul\":4668:4715   */\n              mstore\n                /* \"#utility.yul\":4732:4810   */\n              tag_266\n                /* \"#utility.yul\":4805:4809   */\n              dup2\n                /* \"#utility.yul\":4796:4802   */\n              dup5\n                /* \"#utility.yul\":4732:4810   */\n              tag_191\n              jump\t// in\n            tag_266:\n                /* \"#utility.yul\":4724:4810   */\n              swap1\n              pop\n                /* \"#utility.yul\":4504:4817   */\n              swap3\n              swap2\n              pop\n              pop\n              jump\t// out\n                /* \"#utility.yul\":4823:5297   */\n            tag_33:\n                /* \"#utility.yul\":4891:4897   */\n              0x00\n                /* \"#utility.yul\":4899:4905   */\n              dup1\n                /* \"#utility.yul\":4948:4950   */\n              0x40\n                /* \"#utility.yul\":4936:4945   */\n              dup4\n                /* \"#utility.yul\":4927:4934   */\n              dup6\n                /* \"#utility.yul\":4923:4946   */\n              sub\n                /* \"#utility.yul\":4919:4951   */\n              slt\n                /* \"#utility.yul\":4916:5035   */\n              iszero\n              tag_268\n              jumpi\n                /* \"#utility.yul\":4954:5033   */\n              tag_269\n              tag_178\n              jump\t// in\n            tag_269:\n                /* \"#utility.yul\":4916:5035   */\n            tag_268:\n                /* \"#utility.yul\":5074:5075   */\n              0x00\n                /* \"#utility.yul\":5099:5152   */\n              tag_270\n                /* \"#utility.yul\":5144:5151   */\n              dup6\n                /* \"#utility.yul\":5135:5141   */\n              dup3\n                /* \"#utility.yul\":5124:5133   */\n              dup7\n                /* \"#utility.yul\":5120:5142   */\n              add\n                /* \"#utility.yul\":5099:5152   */\n              tag_182\n              jump\t// in\n            tag_270:\n                /* \"#utility.yul\":5089:5152   */\n              swap3\n              pop\n                /* \"#utility.yul\":5045:5162   */\n              pop\n                /* \"#utility.yul\":5201:5203   */\n              0x20\n                /* \"#utility.yul\":5227:5280   */\n              tag_271\n                /* \"#utility.yul\":5272:5279   */\n              dup6\n                /* \"#utility.yul\":5263:5269   */\n              dup3\n                /* \"#utility.yul\":5252:5261   */\n              dup7\n                /* \"#utility.yul\":5248:5270   */\n              add\n                /* \"#utility.yul\":5227:5280   */\n              tag_182\n              jump\t// in\n            tag_271:\n                /* \"#utility.yul\":5217:5280   */\n              swap2\n              pop\n                /* \"#utility.yul\":5172:5290   */\n              pop\n                /* \"#utility.yul\":4823:5297   */\n              swap3\n              pop\n              swap3\n              swap1\n              pop\n              jump\t// out\n                /* \"#utility.yul\":5303:5421   */\n            tag_192:\n                /* \"#utility.yul\":5390:5414   */\n              tag_273\n                /* \"#utility.yul\":5408:5413   */\n              dup2\n                /* \"#utility.yul\":5390:5414   */\n              tag_180\n              jump\t// in\n            tag_273:\n                /* \"#utility.yul\":5385:5388   */\n              dup3\n                /* \"#utility.yul\":5378:5415   */\n              mstore\n                /* \"#utility.yul\":5303:5421   */\n              pop\n              pop\n              jump\t// out\n                /* \"#utility.yul\":5427:5649   */\n            tag_38:\n                /* \"#utility.yul\":5520:5524   */\n              0x00\n                /* \"#utility.yul\":5558:5560   */\n              0x20\n                /* \"#utility.yul\":5547:5556   */\n              dup3\n                /* \"#utility.yul\":5543:5561   */\n              add\n                /* \"#utility.yul\":5535:5561   */\n              swap1\n              pop\n                /* \"#utility.yul\":5571:5642   */\n              tag_275\n                /* \"#utility.yul\":5639:5640   */\n              0x00\n                /* \"#utility.yul\":5628:5637   */\n              dup4\n                /* \"#utility.yul\":5624:5641   */\n              add\n                /* \"#utility.yul\":5615:5621   */\n              dup5\n                /* \"#utility.yul\":5571:5642   */\n              tag_192\n              jump\t// in\n            tag_275:\n                /* \"#utility.yul\":5427:5649   */\n              swap3\n              swap2\n              pop\n              pop\n              jump\t// out\n                /* \"#utility.yul\":5655:5769   */\n            tag_193:\n                /* \"#utility.yul\":5722:5728   */\n              0x00\n                /* \"#utility.yul\":5756:5761   */\n              dup2\n                /* \"#utility.yul\":5750:5762   */\n              mload\n                /* \"#utility.yul\":5740:5762   */\n              swap1\n              pop\n                /* \"#utility.yul\":5655:5769   */\n              swap2\n              swap1\n              pop\n              jump\t// out\n                /* \"#utility.yul\":5775:5959   */\n            tag_194:\n                /* \"#utility.yul\":5874:5885   */\n              0x00\n                /* \"#utility.yul\":5908:5914   */\n              dup3\n                /* \"#utility.yul\":5903:5906   */\n              dup3\n                /* \"#utility.yul\":5896:5915   */\n              mstore\n                /* \"#utility.yul\":5948:5952   */\n              0x20\n                /* \"#utility.yul\":5943:5946   */\n              dup3\n                /* \"#utility.yul\":5939:5953   */\n              add\n                /* \"#utility.yul\":5924:5953   */\n              swap1\n              pop\n                /* \"#utility.yul\":5775:5959   */\n              swap3\n              swap2\n              pop\n              pop\n              jump\t// out\n                /* \"#utility.yul\":5965:6097   */\n            tag_195:\n                /* \"#utility.yul\":6032:6036   */\n              0x00\n                /* \"#utility.yul\":6055:6058   */\n              dup2\n                /* \"#utility.yul\":6047:6058   */\n              swap1\n              pop\n                /* \"#utility.yul\":6085:6089   */\n              0x20\n                /* \"#utility.yul\":6080:6083   */\n              dup3\n                /* \"#utility.yul\":6076:6090   */\n              add\n                /* \"#utility.yul\":6068:6090   */\n              swap1\n              pop\n                /* \"#utility.yul\":5965:6097   */\n              swap2\n              swap1\n              pop\n              jump\t// out\n                /* \"#utility.yul\":6103:6282   */\n            tag_196:\n                /* \"#utility.yul\":6172:6182   */\n              0x00\n                /* \"#utility.yul\":6193:6239   */\n              tag_280\n                /* \"#utility.yul\":6235:6238   */\n              dup4\n                /* \"#utility.yul\":6227:6233   */\n              dup4\n                /* \"#utility.yul\":6193:6239   */\n              tag_188\n              jump\t// in\n            tag_280:\n                /* \"#utility.yul\":6271:6275   */\n              0x20\n                /* \"#utility.yul\":6266:6269   */\n              dup4\n                /* \"#utility.yul\":6262:6276   */\n              add\n                /* \"#utility.yul\":6248:6276   */\n              swap1\n              pop\n                /* \"#utility.yul\":6103:6282   */\n              swap3\n              swap2\n              pop\n              pop\n              jump\t// out\n                /* \"#utility.yul\":6288:6401   */\n            tag_197:\n                /* \"#utility.yul\":6358:6362   */\n              0x00\n                /* \"#utility.yul\":6390:6394   */\n              0x20\n                /* \"#utility.yul\":6385:6388   */\n              dup3\n                /* \"#utility.yul\":6381:6395   */\n              add\n                /* \"#utility.yul\":6373:6395   */\n              swap1\n              pop\n                /* \"#utility.yul\":6288:6401   */\n              swap2\n              swap1\n              pop\n              jump\t// out\n                /* \"#utility.yul\":6437:7169   */\n            tag_198:\n                /* \"#utility.yul\":6556:6559   */\n              0x00\n                /* \"#utility.yul\":6585:6639   */\n              tag_283\n                /* \"#utility.yul\":6633:6638   */\n              dup3\n                /* \"#utility.yul\":6585:6639   */\n              tag_193\n              jump\t// in\n            tag_283:\n                /* \"#utility.yul\":6655:6741   */\n              tag_284\n                /* \"#utility.yul\":6734:6740   */\n              dup2\n                /* \"#utility.yul\":6729:6732   */\n              dup6\n                /* \"#utility.yul\":6655:6741   */\n              tag_194\n              jump\t// in\n            tag_284:\n                /* \"#utility.yul\":6648:6741   */\n              swap4\n              pop\n                /* \"#utility.yul\":6765:6821   */\n              tag_285\n                /* \"#utility.yul\":6815:6820   */\n              dup4\n                /* \"#utility.yul\":6765:6821   */\n              tag_195\n              jump\t// in\n            tag_285:\n                /* \"#utility.yul\":6844:6851   */\n              dup1\n                /* \"#utility.yul\":6875:6876   */\n              0x00\n                /* \"#utility.yul\":6860:7144   */\n            tag_286:\n                /* \"#utility.yul\":6885:6891   */\n              dup4\n                /* \"#utility.yul\":6882:6883   */\n              dup2\n                /* \"#utility.yul\":6879:6892   */\n              lt\n                /* \"#utility.yul\":6860:7144   */\n              iszero\n              tag_288\n              jumpi\n                /* \"#utility.yul\":6961:6967   */\n              dup2\n                /* \"#utility.yul\":6955:6968   */\n              mload\n                /* \"#utility.yul\":6988:7051   */\n              tag_289\n                /* \"#utility.yul\":7047:7050   */\n              dup9\n                /* \"#utility.yul\":7032:7045   */\n              dup3\n                /* \"#utility.yul\":6988:7051   */\n              tag_196\n              jump\t// in\n            tag_289:\n                /* \"#utility.yul\":6981:7051   */\n              swap8\n              pop\n                /* \"#utility.yul\":7074:7134   */\n              tag_290\n                /* \"#utility.yul\":7127:7133   */\n              dup4\n                /* \"#utility.yul\":7074:7134   */\n              tag_197\n              jump\t// in\n            tag_290:\n                /* \"#utility.yul\":7064:7134   */\n              swap3\n              pop\n                /* \"#utility.yul\":6920:7144   */\n              pop\n                /* \"#utility.yul\":6907:6908   */\n              0x01\n                /* \"#utility.yul\":6904:6905   */\n              dup2\n                /* \"#utility.yul\":6900:6909   */\n              add\n                /* \"#utility.yul\":6895:6909   */\n              swap1\n              pop\n                /* \"#utility.yul\":6860:7144   */\n              jump(tag_286)\n            tag_288:\n                /* \"#utility.yul\":6864:6878   */\n              pop\n                /* \"#utility.yul\":7160:7163   */\n              dup6\n                /* \"#utility.yul\":7153:7163   */\n              swap4\n              pop\n                /* \"#utility.yul\":6561:7169   */\n              pop\n              pop\n              pop\n                /* \"#utility.yul\":6437:7169   */\n              swap3\n              swap2\n              pop\n              pop\n              jump\t// out\n                /* \"#utility.yul\":7175:7548   */\n            tag_45:\n                /* \"#utility.yul\":7318:7322   */\n              0x00\n                /* \"#utility.yul\":7356:7358   */\n              0x20\n                /* \"#utility.yul\":7345:7354   */\n              dup3\n                /* \"#utility.yul\":7341:7359   */\n              add\n                /* \"#utility.yul\":7333:7359   */\n              swap1\n              pop\n                /* \"#utility.yul\":7405:7414   */\n              dup2\n                /* \"#utility.yul\":7399:7403   */\n              dup2\n                /* \"#utility.yul\":7395:7415   */\n              sub\n                /* \"#utility.yul\":7391:7392   */\n              0x00\n                /* \"#utility.yul\":7380:7389   */\n              dup4\n                /* \"#utility.yul\":7376:7393   */\n              add\n                /* \"#utility.yul\":7369:7416   */\n              mstore\n                /* \"#utility.yul\":7433:7541   */\n              tag_292\n                /* \"#utility.yul\":7536:7540   */\n              dup2\n                /* \"#utility.yul\":7527:7533   */\n              dup5\n                /* \"#utility.yul\":7433:7541   */\n              tag_198\n              jump\t// in\n            tag_292:\n                /* \"#utility.yul\":7425:7541   */\n              swap1\n              pop\n                /* \"#utility.yul\":7175:7548   */\n              swap3\n              swap2\n              pop\n              pop\n              jump\t// out\n                /* \"#utility.yul\":7554:7680   */\n            tag_199:\n                /* \"#utility.yul\":7591:7598   */\n              0x00\n                /* \"#utility.yul\":7631:7673   */\n              0xffffffffffffffffffffffffffffffffffffffff\n                /* \"#utility.yul\":7624:7629   */\n              dup3\n                /* \"#utility.yul\":7620:7674   */\n              and\n                /* \"#utility.yul\":7609:7674   */\n              swap1\n              pop\n                /* \"#utility.yul\":7554:7680   */\n              swap2\n              swap1\n              pop\n              jump\t// out\n                /* \"#utility.yul\":7686:7782   */\n            tag_200:\n                /* \"#utility.yul\":7723:7730   */\n              0x00\n                /* \"#utility.yul\":7752:7776   */\n              tag_295\n                /* \"#utility.yul\":7770:7775   */\n              dup3\n                /* \"#utility.yul\":7752:7776   */\n              tag_199\n              jump\t// in\n            tag_295:\n                /* \"#utility.yul\":7741:7776   */\n              swap1\n              pop\n                /* \"#utility.yul\":7686:7782   */\n              swap2\n              swap1\n              pop\n              jump\t// out\n                /* \"#utility.yul\":7788:7906   */\n            tag_201:\n                /* \"#utility.yul\":7875:7899   */\n              tag_297\n                /* \"#utility.yul\":7893:7898   */\n              dup2\n                /* \"#utility.yul\":7875:7899   */\n              tag_200\n              jump\t// in\n            tag_297:\n                /* \"#utility.yul\":7870:7873   */\n              dup3\n                /* \"#utility.yul\":7863:7900   */\n              mstore\n                /* \"#utility.yul\":7788:7906   */\n              pop\n              pop\n              jump\t// out\n                /* \"#utility.yul\":7912:8134   */\n            tag_49:\n                /* \"#utility.yul\":8005:8009   */\n              0x00\n                /* \"#utility.yul\":8043:8045   */\n              0x20\n                /* \"#utility.yul\":8032:8041   */\n              dup3\n                /* \"#utility.yul\":8028:8046   */\n              add\n                /* \"#utility.yul\":8020:8046   */\n              swap1\n              pop\n                /* \"#utility.yul\":8056:8127   */\n              tag_299\n                /* \"#utility.yul\":8124:8125   */\n              0x00\n                /* \"#utility.yul\":8113:8122   */\n              dup4\n                /* \"#utility.yul\":8109:8126   */\n              add\n                /* \"#utility.yul\":8100:8106   */\n              dup5\n                /* \"#utility.yul\":8056:8127   */\n              tag_201\n              jump\t// in\n            tag_299:\n                /* \"#utility.yul\":7912:8134   */\n              swap3\n              swap2\n              pop\n              pop\n              jump\t// out\n                /* \"#utility.yul\":8140:8230   */\n            tag_202:\n                /* \"#utility.yul\":8174:8181   */\n              0x00\n                /* \"#utility.yul\":8217:8222   */\n              dup2\n                /* \"#utility.yul\":8210:8223   */\n              iszero\n                /* \"#utility.yul\":8203:8224   */\n              iszero\n                /* \"#utility.yul\":8192:8224   */\n              swap1\n              pop\n                /* \"#utility.yul\":8140:8230   */\n              swap2\n              swap1\n              pop\n              jump\t// out\n                /* \"#utility.yul\":8236:8345   */\n            tag_203:\n                /* \"#utility.yul\":8317:8338   */\n              tag_302\n                /* \"#utility.yul\":8332:8337   */\n              dup2\n                /* \"#utility.yul\":8317:8338   */\n              tag_202\n              jump\t// in\n            tag_302:\n                /* \"#utility.yul\":8312:8315   */\n              dup3\n                /* \"#utility.yul\":8305:8339   */\n              mstore\n                /* \"#utility.yul\":8236:8345   */\n              pop\n              pop\n              jump\t// out\n                /* \"#utility.yul\":8351:8561   */\n            tag_53:\n                /* \"#utility.yul\":8438:8442   */\n              0x00\n                /* \"#utility.yul\":8476:8478   */\n              0x20\n                /* \"#utility.yul\":8465:8474   */\n              dup3\n                /* \"#utility.yul\":8461:8479   */\n              add\n                /* \"#utility.yul\":8453:8479   */\n              swap1\n              pop\n                /* \"#utility.yul\":8489:8554   */\n              tag_304\n                /* \"#utility.yul\":8551:8552   */\n              0x00\n                /* \"#utility.yul\":8540:8549   */\n              dup4\n                /* \"#utility.yul\":8536:8553   */\n              add\n                /* \"#utility.yul\":8527:8533   */\n              dup5\n                /* \"#utility.yul\":8489:8554   */\n              tag_203\n              jump\t// in\n            tag_304:\n                /* \"#utility.yul\":8351:8561   */\n              swap3\n              swap2\n              pop\n              pop\n              jump\t// out\n                /* \"#utility.yul\":8567:8684   */\n            tag_204:\n                /* \"#utility.yul\":8676:8677   */\n              0x00\n                /* \"#utility.yul\":8673:8674   */\n              dup1\n                /* \"#utility.yul\":8666:8678   */\n              revert\n                /* \"#utility.yul\":8690:8807   */\n            tag_205:\n                /* \"#utility.yul\":8799:8800   */\n              0x00\n                /* \"#utility.yul\":8796:8797   */\n              dup1\n                /* \"#utility.yul\":8789:8801   */\n              revert\n                /* \"#utility.yul\":8813:8993   */\n            tag_206:\n                /* \"#utility.yul\":8861:8938   */\n              0x4e487b7100000000000000000000000000000000000000000000000000000000\n                /* \"#utility.yul\":8858:8859   */\n              0x00\n                /* \"#utility.yul\":8851:8939   */\n              mstore\n                /* \"#utility.yul\":8958:8962   */\n              0x41\n                /* \"#utility.yul\":8955:8956   */\n              0x04\n                /* \"#utility.yul\":8948:8963   */\n              mstore\n                /* \"#utility.yul\":8982:8986   */\n              0x24\n                /* \"#utility.yul\":8979:8980   */\n              0x00\n                /* \"#utility.yul\":8972:8987   */\n              revert\n                /* \"#utility.yul\":8999:9280   */\n            tag_207:\n                /* \"#utility.yul\":9082:9109   */\n              tag_309\n                /* \"#utility.yul\":9104:9108   */\n              dup3\n                /* \"#utility.yul\":9082:9109   */\n              tag_186\n              jump\t// in\n            tag_309:\n                /* \"#utility.yul\":9074:9080   */\n              dup2\n                /* \"#utility.yul\":9070:9110   */\n              add\n                /* \"#utility.yul\":9212:9218   */\n              dup2\n                /* \"#utility.yul\":9200:9210   */\n              dup2\n                /* \"#utility.yul\":9197:9219   */\n              lt\n                /* \"#utility.yul\":9176:9194   */\n              0xffffffffffffffff\n                /* \"#utility.yul\":9164:9174   */\n              dup3\n                /* \"#utility.yul\":9161:9195   */\n              gt\n                /* \"#utility.yul\":9158:9220   */\n              or\n                /* \"#utility.yul\":9155:9243   */\n              iszero\n              tag_310\n              jumpi\n                /* \"#utility.yul\":9223:9241   */\n              tag_311\n              tag_206\n              jump\t// in\n            tag_311:\n                /* \"#utility.yul\":9155:9243   */\n            tag_310:\n                /* \"#utility.yul\":9263:9273   */\n              dup1\n                /* \"#utility.yul\":9259:9261   */\n              0x40\n                /* \"#utility.yul\":9252:9274   */\n              mstore\n                /* \"#utility.yul\":9042:9280   */\n              pop\n                /* \"#utility.yul\":8999:9280   */\n              pop\n              pop\n              jump\t// out\n                /* \"#utility.yul\":9286:9415   */\n            tag_208:\n                /* \"#utility.yul\":9320:9326   */\n              0x00\n                /* \"#utility.yul\":9347:9367   */\n              tag_313\n              tag_177\n              jump\t// in\n            tag_313:\n                /* \"#utility.yul\":9337:9367   */\n              swap1\n              pop\n                /* \"#utility.yul\":9376:9409   */\n              tag_314\n                /* \"#utility.yul\":9404:9408   */\n              dup3\n                /* \"#utility.yul\":9396:9402   */\n              dup3\n                /* \"#utility.yul\":9376:9409   */\n              tag_207\n              jump\t// in\n            tag_314:\n                /* \"#utility.yul\":9286:9415   */\n              swap2\n              swap1\n              pop\n              jump\t// out\n                /* \"#utility.yul\":9421:9729   */\n            tag_209:\n                /* \"#utility.yul\":9483:9487   */\n              0x00\n                /* \"#utility.yul\":9573:9591   */\n              0xffffffffffffffff\n                /* \"#utility.yul\":9565:9571   */\n              dup3\n                /* \"#utility.yul\":9562:9592   */\n              gt\n                /* \"#utility.yul\":9559:9615   */\n              iszero\n              tag_316\n              jumpi\n                /* \"#utility.yul\":9595:9613   */\n              tag_317\n              tag_206\n              jump\t// in\n            tag_317:\n                /* \"#utility.yul\":9559:9615   */\n            tag_316:\n                /* \"#utility.yul\":9633:9662   */\n              tag_318\n                /* \"#utility.yul\":9655:9661   */\n              dup3\n                /* \"#utility.yul\":9633:9662   */\n              tag_186\n              jump\t// in\n            tag_318:\n                /* \"#utility.yul\":9625:9662   */\n              swap1\n              pop\n                /* \"#utility.yul\":9717:9721   */\n              0x20\n                /* \"#utility.yul\":9711:9715   */\n              dup2\n                /* \"#utility.yul\":9707:9722   */\n              add\n                /* \"#utility.yul\":9699:9722   */\n              swap1\n              pop\n                /* \"#utility.yul\":9421:9729   */\n              swap2\n              swap1\n              pop\n              jump\t// out\n                /* \"#utility.yul\":9735:9889   */\n            tag_210:\n                /* \"#utility.yul\":9819:9825   */\n              dup3\n                /* \"#utility.yul\":9814:9817   */\n              dup2\n                /* \"#utility.yul\":9809:9812   */\n              dup4\n                /* \"#utility.yul\":9796:9826   */\n              calldatacopy\n                /* \"#utility.yul\":9881:9882   */\n              0x00\n                /* \"#utility.yul\":9872:9878   */\n              dup4\n                /* \"#utility.yul\":9867:9870   */\n              dup4\n                /* \"#utility.yul\":9863:9879   */\n              add\n                /* \"#utility.yul\":9856:9883   */\n              mstore\n                /* \"#utility.yul\":9735:9889   */\n              pop\n              pop\n              pop\n              jump\t// out\n                /* \"#utility.yul\":9895:10307   */\n            tag_211:\n                /* \"#utility.yul\":9973:9978   */\n              0x00\n                /* \"#utility.yul\":9998:10064   */\n              tag_321\n                /* \"#utility.yul\":10014:10063   */\n              tag_322\n                /* \"#utility.yul\":10056:10062   */\n              dup5\n                /* \"#utility.yul\":10014:10063   */\n              tag_209\n              jump\t// in\n            tag_322:\n                /* \"#utility.yul\":9998:10064   */\n              tag_208\n              jump\t// in\n            tag_321:\n                /* \"#utility.yul\":9989:10064   */\n              swap1\n              pop\n                /* \"#utility.yul\":10087:10093   */\n              dup3\n                /* \"#utility.yul\":10080:10085   */\n              dup2\n                /* \"#utility.yul\":10073:10094   */\n              mstore\n                /* \"#utility.yul\":10125:10129   */\n              0x20\n                /* \"#utility.yul\":10118:10123   */\n              dup2\n                /* \"#utility.yul\":10114:10130   */\n              add\n                /* \"#utility.yul\":10163:10166   */\n              dup5\n                /* \"#utility.yul\":10154:10160   */\n              dup5\n                /* \"#utility.yul\":10149:10152   */\n              dup5\n                /* \"#utility.yul\":10145:10161   */\n              add\n                /* \"#utility.yul\":10142:10167   */\n              gt\n                /* \"#utility.yul\":10139:10251   */\n              iszero\n              tag_323\n              jumpi\n                /* \"#utility.yul\":10170:10249   */\n              tag_324\n              tag_205\n              jump\t// in\n            tag_324:\n                /* \"#utility.yul\":10139:10251   */\n            tag_323:\n                /* \"#utility.yul\":10260:10301   */\n              tag_325\n                /* \"#utility.yul\":10294:10300   */\n              dup5\n                /* \"#utility.yul\":10289:10292   */\n              dup3\n                /* \"#utility.yul\":10284:10287   */\n              dup6\n                /* \"#utility.yul\":10260:10301   */\n              tag_210\n              jump\t// in\n            tag_325:\n                /* \"#utility.yul\":9979:10307   */\n              pop\n                /* \"#utility.yul\":9895:10307   */\n              swap4\n              swap3\n              pop\n              pop\n              pop\n              jump\t// out\n                /* \"#utility.yul\":10327:10667   */\n            tag_212:\n                /* \"#utility.yul\":10383:10388   */\n              0x00\n                /* \"#utility.yul\":10432:10435   */\n              dup3\n                /* \"#utility.yul\":10425:10429   */\n              0x1f\n                /* \"#utility.yul\":10417:10423   */\n              dup4\n                /* \"#utility.yul\":10413:10430   */\n              add\n                /* \"#utility.yul\":10409:10436   */\n              slt\n                /* \"#utility.yul\":10399:10521   */\n              tag_327\n              jumpi\n                /* \"#utility.yul\":10440:10519   */\n              tag_328\n              tag_204\n              jump\t// in\n            tag_328:\n                /* \"#utility.yul\":10399:10521   */\n            tag_327:\n                /* \"#utility.yul\":10557:10563   */\n              dup2\n                /* \"#utility.yul\":10544:10564   */\n              calldataload\n                /* \"#utility.yul\":10582:10661   */\n              tag_329\n                /* \"#utility.yul\":10657:10660   */\n              dup5\n                /* \"#utility.yul\":10649:10655   */\n              dup3\n                /* \"#utility.yul\":10642:10646   */\n              0x20\n                /* \"#utility.yul\":10634:10640   */\n              dup7\n                /* \"#utility.yul\":10630:10647   */\n              add\n                /* \"#utility.yul\":10582:10661   */\n              tag_211\n              jump\t// in\n            tag_329:\n                /* \"#utility.yul\":10573:10661   */\n              swap2\n              pop\n                /* \"#utility.yul\":10389:10667   */\n              pop\n                /* \"#utility.yul\":10327:10667   */\n              swap3\n              swap2\n              pop\n              pop\n              jump\t// out\n                /* \"#utility.yul\":10673:12304   */\n            tag_56:\n                /* \"#utility.yul\":10808:10814   */\n              0x00\n                /* \"#utility.yul\":10816:10822   */\n              dup1\n                /* \"#utility.yul\":10824:10830   */\n              0x00\n                /* \"#utility.yul\":10832:10838   */\n              dup1\n                /* \"#utility.yul\":10840:10846   */\n              0x00\n                /* \"#utility.yul\":10889:10892   */\n              0xa0\n                /* \"#utility.yul\":10877:10886   */\n              dup7\n                /* \"#utility.yul\":10868:10875   */\n              dup9\n                /* \"#utility.yul\":10864:10887   */\n              sub\n                /* \"#utility.yul\":10860:10893   */\n              slt\n                /* \"#utility.yul\":10857:10977   */\n              iszero\n              tag_331\n              jumpi\n                /* \"#utility.yul\":10896:10975   */\n              tag_332\n              tag_178\n              jump\t// in\n            tag_332:\n                /* \"#utility.yul\":10857:10977   */\n            tag_331:\n                /* \"#utility.yul\":11044:11045   */\n              0x00\n                /* \"#utility.yul\":11033:11042   */\n              dup7\n                /* \"#utility.yul\":11029:11046   */\n              add\n                /* \"#utility.yul\":11016:11047   */\n              calldataload\n                /* \"#utility.yul\":11074:11092   */\n              0xffffffffffffffff\n                /* \"#utility.yul\":11066:11072   */\n              dup2\n                /* \"#utility.yul\":11063:11093   */\n              gt\n                /* \"#utility.yul\":11060:11177   */\n              iszero\n              tag_333\n              jumpi\n                /* \"#utility.yul\":11096:11175   */\n              tag_334\n              tag_179\n              jump\t// in\n            tag_334:\n                /* \"#utility.yul\":11060:11177   */\n            tag_333:\n                /* \"#utility.yul\":11201:11264   */\n              tag_335\n                /* \"#utility.yul\":11256:11263   */\n              dup9\n                /* \"#utility.yul\":11247:11253   */\n              dup3\n                /* \"#utility.yul\":11236:11245   */\n              dup10\n                /* \"#utility.yul\":11232:11254   */\n              add\n                /* \"#utility.yul\":11201:11264   */\n              tag_212\n              jump\t// in\n            tag_335:\n                /* \"#utility.yul\":11191:11264   */\n              swap6\n              pop\n                /* \"#utility.yul\":10987:11274   */\n              pop\n                /* \"#utility.yul\":11341:11343   */\n              0x20\n                /* \"#utility.yul\":11330:11339   */\n              dup7\n                /* \"#utility.yul\":11326:11344   */\n              add\n                /* \"#utility.yul\":11313:11345   */\n              calldataload\n                /* \"#utility.yul\":11372:11390   */\n              0xffffffffffffffff\n                /* \"#utility.yul\":11364:11370   */\n              dup2\n                /* \"#utility.yul\":11361:11391   */\n              gt\n                /* \"#utility.yul\":11358:11475   */\n              iszero\n              tag_336\n              jumpi\n                /* \"#utility.yul\":11394:11473   */\n              tag_337\n              tag_179\n              jump\t// in\n            tag_337:\n                /* \"#utility.yul\":11358:11475   */\n            tag_336:\n                /* \"#utility.yul\":11499:11562   */\n              tag_338\n                /* \"#utility.yul\":11554:11561   */\n              dup9\n                /* \"#utility.yul\":11545:11551   */\n              dup3\n                /* \"#utility.yul\":11534:11543   */\n              dup10\n                /* \"#utility.yul\":11530:11552   */\n              add\n                /* \"#utility.yul\":11499:11562   */\n              tag_212\n              jump\t// in\n            tag_338:\n                /* \"#utility.yul\":11489:11562   */\n              swap5\n              pop\n                /* \"#utility.yul\":11284:11572   */\n              pop\n                /* \"#utility.yul\":11611:11613   */\n              0x40\n                /* \"#utility.yul\":11637:11690   */\n              tag_339\n                /* \"#utility.yul\":11682:11689   */\n              dup9\n                /* \"#utility.yul\":11673:11679   */\n              dup3\n                /* \"#utility.yul\":11662:11671   */\n              dup10\n                /* \"#utility.yul\":11658:11680   */\n              add\n                /* \"#utility.yul\":11637:11690   */\n              tag_182\n              jump\t// in\n            tag_339:\n                /* \"#utility.yul\":11627:11690   */\n              swap4\n              pop\n                /* \"#utility.yul\":11582:11700   */\n              pop\n                /* \"#utility.yul\":11767:11769   */\n              0x60\n                /* \"#utility.yul\":11756:11765   */\n              dup7\n                /* \"#utility.yul\":11752:11770   */\n              add\n                /* \"#utility.yul\":11739:11771   */\n              calldataload\n                /* \"#utility.yul\":11798:11816   */\n              0xffffffffffffffff\n                /* \"#utility.yul\":11790:11796   */\n              dup2\n                /* \"#utility.yul\":11787:11817   */\n              gt\n                /* \"#utility.yul\":11784:11901   */\n              iszero\n              tag_340\n              jumpi\n                /* \"#utility.yul\":11820:11899   */\n              tag_341\n              tag_179\n              jump\t// in\n            tag_341:\n                /* \"#utility.yul\":11784:11901   */\n            tag_340:\n                /* \"#utility.yul\":11925:11988   */\n              tag_342\n                /* \"#utility.yul\":11980:11987   */\n              dup9\n                /* \"#utility.yul\":11971:11977   */\n              dup3\n                /* \"#utility.yul\":11960:11969   */\n              dup10\n                /* \"#utility.yul\":11956:11978   */\n              add\n                /* \"#utility.yul\":11925:11988   */\n              tag_212\n              jump\t// in\n            tag_342:\n                /* \"#utility.yul\":11915:11988   */\n              swap3\n              pop\n                /* \"#utility.yul\":11710:11998   */\n              pop\n                /* \"#utility.yul\":12065:12068   */\n              0x80\n                /* \"#utility.yul\":12054:12063   */\n              dup7\n                /* \"#utility.yul\":12050:12069   */\n              add\n                /* \"#utility.yul\":12037:12070   */\n              calldataload\n                /* \"#utility.yul\":12097:12115   */\n              0xffffffffffffffff\n                /* \"#utility.yul\":12089:12095   */\n              dup2\n                /* \"#utility.yul\":12086:12116   */\n              gt\n                /* \"#utility.yul\":12083:12200   */\n              iszero\n              tag_343\n              jumpi\n                /* \"#utility.yul\":12119:12198   */\n              tag_344\n              tag_179\n              jump\t// in\n            tag_344:\n                /* \"#utility.yul\":12083:12200   */\n            tag_343:\n                /* \"#utility.yul\":12224:12287   */\n              tag_345\n                /* \"#utility.yul\":12279:12286   */\n              dup9\n                /* \"#utility.yul\":12270:12276   */\n              dup3\n                /* \"#utility.yul\":12259:12268   */\n              dup10\n                /* \"#utility.yul\":12255:12277   */\n              add\n                /* \"#utility.yul\":12224:12287   */\n              tag_212\n              jump\t// in\n            tag_345:\n                /* \"#utility.yul\":12214:12287   */\n              swap2\n              pop\n                /* \"#utility.yul\":12008:12297   */\n              pop\n                /* \"#utility.yul\":10673:12304   */\n              swap3\n              swap6\n              pop\n              swap3\n              swap6\n              swap1\n              swap4\n              pop\n              jump\t// out\n                /* \"#utility.yul\":12310:12446   */\n            tag_213:\n                /* \"#utility.yul\":12399:12405   */\n              0x00\n                /* \"#utility.yul\":12433:12438   */\n              dup2\n                /* \"#utility.yul\":12427:12439   */\n              mload\n                /* \"#utility.yul\":12417:12439   */\n              swap1\n              pop\n                /* \"#utility.yul\":12310:12446   */\n              swap2\n              swap1\n              pop\n              jump\t// out\n                /* \"#utility.yul\":12452:12658   */\n            tag_214:\n                /* \"#utility.yul\":12573:12584   */\n              0x00\n                /* \"#utility.yul\":12607:12613   */\n              dup3\n                /* \"#utility.yul\":12602:12605   */\n              dup3\n                /* \"#utility.yul\":12595:12614   */\n              mstore\n                /* \"#utility.yul\":12647:12651   */\n              0x20\n                /* \"#utility.yul\":12642:12645   */\n              dup3\n                /* \"#utility.yul\":12638:12652   */\n              add\n                /* \"#utility.yul\":12623:12652   */\n              swap1\n              pop\n                /* \"#utility.yul\":12452:12658   */\n              swap3\n              swap2\n              pop\n              pop\n              jump\t// out\n                /* \"#utility.yul\":12664:12818   */\n            tag_215:\n                /* \"#utility.yul\":12753:12757   */\n              0x00\n                /* \"#utility.yul\":12776:12779   */\n              dup2\n                /* \"#utility.yul\":12768:12779   */\n              swap1\n              pop\n                /* \"#utility.yul\":12806:12810   */\n              0x20\n                /* \"#utility.yul\":12801:12804   */\n              dup3\n                /* \"#utility.yul\":12797:12811   */\n              add\n                /* \"#utility.yul\":12789:12811   */\n              swap1\n              pop\n                /* \"#utility.yul\":12664:12818   */\n              swap2\n              swap1\n              pop\n              jump\t// out\n                /* \"#utility.yul\":12878:14220   */\n            tag_216:\n                /* \"#utility.yul\":12981:12984   */\n              0x00\n                /* \"#utility.yul\":13017:13021   */\n              0xa0\n                /* \"#utility.yul\":13012:13015   */\n              dup4\n                /* \"#utility.yul\":13008:13022   */\n              add\n                /* \"#utility.yul\":13104:13108   */\n              0x00\n                /* \"#utility.yul\":13097:13102   */\n              dup4\n                /* \"#utility.yul\":13093:13109   */\n              add\n                /* \"#utility.yul\":13087:13110   */\n              mload\n                /* \"#utility.yul\":13157:13160   */\n              dup5\n                /* \"#utility.yul\":13151:13155   */\n              dup3\n                /* \"#utility.yul\":13147:13161   */\n              sub\n                /* \"#utility.yul\":13140:13144   */\n              0x00\n                /* \"#utility.yul\":13135:13138   */\n              dup7\n                /* \"#utility.yul\":13131:13145   */\n              add\n                /* \"#utility.yul\":13124:13162   */\n              mstore\n                /* \"#utility.yul\":13183:13256   */\n              tag_350\n                /* \"#utility.yul\":13251:13255   */\n              dup3\n                /* \"#utility.yul\":13237:13249   */\n              dup3\n                /* \"#utility.yul\":13183:13256   */\n              tag_187\n              jump\t// in\n            tag_350:\n                /* \"#utility.yul\":13175:13256   */\n              swap2\n              pop\n                /* \"#utility.yul\":13032:13267   */\n              pop\n                /* \"#utility.yul\":13355:13359   */\n              0x20\n                /* \"#utility.yul\":13348:13353   */\n              dup4\n                /* \"#utility.yul\":13344:13360   */\n              add\n                /* \"#utility.yul\":13338:13361   */\n              mload\n                /* \"#utility.yul\":13408:13411   */\n              dup5\n                /* \"#utility.yul\":13402:13406   */\n              dup3\n                /* \"#utility.yul\":13398:13412   */\n              sub\n                /* \"#utility.yul\":13391:13395   */\n              0x20\n                /* \"#utility.yul\":13386:13389   */\n              dup7\n                /* \"#utility.yul\":13382:13396   */\n              add\n                /* \"#utility.yul\":13375:13413   */\n              mstore\n                /* \"#utility.yul\":13434:13507   */\n              tag_351\n                /* \"#utility.yul\":13502:13506   */\n              dup3\n                /* \"#utility.yul\":13488:13500   */\n              dup3\n                /* \"#utility.yul\":13434:13507   */\n              tag_187\n              jump\t// in\n            tag_351:\n                /* \"#utility.yul\":13426:13507   */\n              swap2\n              pop\n                /* \"#utility.yul\":13277:13518   */\n              pop\n                /* \"#utility.yul\":13608:13612   */\n              0x40\n                /* \"#utility.yul\":13601:13606   */\n              dup4\n                /* \"#utility.yul\":13597:13613   */\n              add\n                /* \"#utility.yul\":13591:13614   */\n              mload\n                /* \"#utility.yul\":13627:13690   */\n              tag_352\n                /* \"#utility.yul\":13684:13688   */\n              0x40\n                /* \"#utility.yul\":13679:13682   */\n              dup7\n                /* \"#utility.yul\":13675:13689   */\n              add\n                /* \"#utility.yul\":13661:13673   */\n              dup3\n                /* \"#utility.yul\":13627:13690   */\n              tag_188\n              jump\t// in\n            tag_352:\n                /* \"#utility.yul\":13528:13700   */\n              pop\n                /* \"#utility.yul\":13784:13788   */\n              0x60\n                /* \"#utility.yul\":13777:13782   */\n              dup4\n                /* \"#utility.yul\":13773:13789   */\n              add\n                /* \"#utility.yul\":13767:13790   */\n              mload\n                /* \"#utility.yul\":13837:13840   */\n              dup5\n                /* \"#utility.yul\":13831:13835   */\n              dup3\n                /* \"#utility.yul\":13827:13841   */\n              sub\n                /* \"#utility.yul\":13820:13824   */\n              0x60\n                /* \"#utility.yul\":13815:13818   */\n              dup7\n                /* \"#utility.yul\":13811:13825   */\n              add\n                /* \"#utility.yul\":13804:13842   */\n              mstore\n                /* \"#utility.yul\":13863:13936   */\n              tag_353\n                /* \"#utility.yul\":13931:13935   */\n              dup3\n                /* \"#utility.yul\":13917:13929   */\n              dup3\n                /* \"#utility.yul\":13863:13936   */\n              tag_187\n              jump\t// in\n            tag_353:\n                /* \"#utility.yul\":13855:13936   */\n              swap2\n              pop\n                /* \"#utility.yul\":13710:13947   */\n              pop\n                /* \"#utility.yul\":14030:14034   */\n              0x80\n                /* \"#utility.yul\":14023:14028   */\n              dup4\n                /* \"#utility.yul\":14019:14035   */\n              add\n                /* \"#utility.yul\":14013:14036   */\n              mload\n                /* \"#utility.yul\":14083:14086   */\n              dup5\n                /* \"#utility.yul\":14077:14081   */\n              dup3\n                /* \"#utility.yul\":14073:14087   */\n              sub\n                /* \"#utility.yul\":14066:14070   */\n              0x80\n                /* \"#utility.yul\":14061:14064   */\n              dup7\n                /* \"#utility.yul\":14057:14071   */\n              add\n                /* \"#utility.yul\":14050:14088   */\n              mstore\n                /* \"#utility.yul\":14109:14182   */\n              tag_354\n                /* \"#utility.yul\":14177:14181   */\n              dup3\n                /* \"#utility.yul\":14163:14175   */\n              dup3\n                /* \"#utility.yul\":14109:14182   */\n              tag_187\n              jump\t// in\n            tag_354:\n                /* \"#utility.yul\":14101:14182   */\n              swap2\n              pop\n                /* \"#utility.yul\":13957:14193   */\n              pop\n                /* \"#utility.yul\":14210:14214   */\n              dup1\n                /* \"#utility.yul\":14203:14214   */\n              swap2\n              pop\n                /* \"#utility.yul\":12986:14220   */\n              pop\n                /* \"#utility.yul\":12878:14220   */\n              swap3\n              swap2\n              pop\n              pop\n              jump\t// out\n                /* \"#utility.yul\":14226:14470   */\n            tag_217:\n                /* \"#utility.yul\":14339:14349   */\n              0x00\n                /* \"#utility.yul\":14374:14464   */\n              tag_356\n                /* \"#utility.yul\":14460:14463   */\n              dup4\n                /* \"#utility.yul\":14452:14458   */\n              dup4\n                /* \"#utility.yul\":14374:14464   */\n              tag_216\n              jump\t// in\n            tag_356:\n                /* \"#utility.yul\":14360:14464   */\n              swap1\n              pop\n                /* \"#utility.yul\":14226:14470   */\n              swap3\n              swap2\n              pop\n              pop\n              jump\t// out\n                /* \"#utility.yul\":14476:14611   */\n            tag_218:\n                /* \"#utility.yul\":14568:14572   */\n              0x00\n                /* \"#utility.yul\":14600:14604   */\n              0x20\n                /* \"#utility.yul\":14595:14598   */\n              dup3\n                /* \"#utility.yul\":14591:14605   */\n              add\n                /* \"#utility.yul\":14583:14605   */\n              swap1\n              pop\n                /* \"#utility.yul\":14476:14611   */\n              swap2\n              swap1\n              pop\n              jump\t// out\n                /* \"#utility.yul\":14675:15762   */\n            tag_219:\n                /* \"#utility.yul\":14838:14841   */\n              0x00\n                /* \"#utility.yul\":14867:14943   */\n              tag_359\n                /* \"#utility.yul\":14937:14942   */\n              dup3\n                /* \"#utility.yul\":14867:14943   */\n              tag_213\n              jump\t// in\n            tag_359:\n                /* \"#utility.yul\":14959:15067   */\n              tag_360\n                /* \"#utility.yul\":15060:15066   */\n              dup2\n                /* \"#utility.yul\":15055:15058   */\n              dup6\n                /* \"#utility.yul\":14959:15067   */\n              tag_214\n              jump\t// in\n            tag_360:\n                /* \"#utility.yul\":14952:15067   */\n              swap4\n              pop\n                /* \"#utility.yul\":15093:15096   */\n              dup4\n                /* \"#utility.yul\":15138:15142   */\n              0x20\n                /* \"#utility.yul\":15130:15136   */\n              dup3\n                /* \"#utility.yul\":15126:15143   */\n              mul\n                /* \"#utility.yul\":15121:15124   */\n              dup6\n                /* \"#utility.yul\":15117:15144   */\n              add\n                /* \"#utility.yul\":15168:15246   */\n              tag_361\n                /* \"#utility.yul\":15240:15245   */\n              dup6\n                /* \"#utility.yul\":15168:15246   */\n              tag_215\n              jump\t// in\n            tag_361:\n                /* \"#utility.yul\":15269:15276   */\n              dup1\n                /* \"#utility.yul\":15300:15301   */\n              0x00\n                /* \"#utility.yul\":15285:15717   */\n            tag_362:\n                /* \"#utility.yul\":15310:15316   */\n              dup6\n                /* \"#utility.yul\":15307:15308   */\n              dup2\n                /* \"#utility.yul\":15304:15317   */\n              lt\n                /* \"#utility.yul\":15285:15717   */\n              iszero\n              tag_364\n              jumpi\n                /* \"#utility.yul\":15381:15390   */\n              dup5\n                /* \"#utility.yul\":15375:15379   */\n              dup5\n                /* \"#utility.yul\":15371:15391   */\n              sub\n                /* \"#utility.yul\":15366:15369   */\n              dup10\n                /* \"#utility.yul\":15359:15392   */\n              mstore\n                /* \"#utility.yul\":15432:15438   */\n              dup2\n                /* \"#utility.yul\":15426:15439   */\n              mload\n                /* \"#utility.yul\":15460:15568   */\n              tag_365\n                /* \"#utility.yul\":15563:15567   */\n              dup6\n                /* \"#utility.yul\":15548:15561   */\n              dup3\n                /* \"#utility.yul\":15460:15568   */\n              tag_217\n              jump\t// in\n            tag_365:\n                /* \"#utility.yul\":15452:15568   */\n              swap5\n              pop\n                /* \"#utility.yul\":15591:15673   */\n              tag_366\n                /* \"#utility.yul\":15666:15672   */\n              dup4\n                /* \"#utility.yul\":15591:15673   */\n              tag_218\n              jump\t// in\n            tag_366:\n                /* \"#utility.yul\":15581:15673   */\n              swap3\n              pop\n                /* \"#utility.yul\":15702:15706   */\n              0x20\n                /* \"#utility.yul\":15697:15700   */\n              dup11\n                /* \"#utility.yul\":15693:15707   */\n              add\n                /* \"#utility.yul\":15686:15707   */\n              swap10\n              pop\n                /* \"#utility.yul\":15345:15717   */\n              pop\n                /* \"#utility.yul\":15332:15333   */\n              0x01\n                /* \"#utility.yul\":15329:15330   */\n              dup2\n                /* \"#utility.yul\":15325:15334   */\n              add\n                /* \"#utility.yul\":15320:15334   */\n              swap1\n              pop\n                /* \"#utility.yul\":15285:15717   */\n              jump(tag_362)\n            tag_364:\n                /* \"#utility.yul\":15289:15303   */\n              pop\n                /* \"#utility.yul\":15733:15737   */\n              dup3\n                /* \"#utility.yul\":15726:15737   */\n              swap8\n              pop\n                /* \"#utility.yul\":15753:15756   */\n              dup8\n                /* \"#utility.yul\":15746:15756   */\n              swap6\n              pop\n                /* \"#utility.yul\":14843:15762   */\n              pop\n              pop\n              pop\n              pop\n              pop\n                /* \"#utility.yul\":14675:15762   */\n              swap3\n              swap2\n              pop\n              pop\n              jump\t// out\n                /* \"#utility.yul\":15768:16229   */\n            tag_66:\n                /* \"#utility.yul\":15955:15959   */\n              0x00\n                /* \"#utility.yul\":15993:15995   */\n              0x20\n                /* \"#utility.yul\":15982:15991   */\n              dup3\n                /* \"#utility.yul\":15978:15996   */\n              add\n                /* \"#utility.yul\":15970:15996   */\n              swap1\n              pop\n                /* \"#utility.yul\":16042:16051   */\n              dup2\n                /* \"#utility.yul\":16036:16040   */\n              dup2\n                /* \"#utility.yul\":16032:16052   */\n              sub\n                /* \"#utility.yul\":16028:16029   */\n              0x00\n                /* \"#utility.yul\":16017:16026   */\n              dup4\n                /* \"#utility.yul\":16013:16030   */\n              add\n                /* \"#utility.yul\":16006:16053   */\n              mstore\n                /* \"#utility.yul\":16070:16222   */\n              tag_368\n                /* \"#utility.yul\":16217:16221   */\n              dup2\n                /* \"#utility.yul\":16208:16214   */\n              dup5\n                /* \"#utility.yul\":16070:16222   */\n              tag_219\n              jump\t// in\n            tag_368:\n                /* \"#utility.yul\":16062:16222   */\n              swap1\n              pop\n                /* \"#utility.yul\":15768:16229   */\n              swap3\n              swap2\n              pop\n              pop\n              jump\t// out\n                /* \"#utility.yul\":16235:16415   */\n            tag_81:\n                /* \"#utility.yul\":16283:16360   */\n              0x4e487b7100000000000000000000000000000000000000000000000000000000\n                /* \"#utility.yul\":16280:16281   */\n              0x00\n                /* \"#utility.yul\":16273:16361   */\n              mstore\n                /* \"#utility.yul\":16380:16384   */\n              0x32\n                /* \"#utility.yul\":16377:16378   */\n              0x04\n                /* \"#utility.yul\":16370:16385   */\n              mstore\n                /* \"#utility.yul\":16404:16408   */\n              0x24\n                /* \"#utility.yul\":16401:16402   */\n              0x00\n                /* \"#utility.yul\":16394:16409   */\n              revert\n                /* \"#utility.yul\":16421:16601   */\n            tag_220:\n                /* \"#utility.yul\":16469:16546   */\n              0x4e487b7100000000000000000000000000000000000000000000000000000000\n                /* \"#utility.yul\":16466:16467   */\n              0x00\n                /* \"#utility.yul\":16459:16547   */\n              mstore\n                /* \"#utility.yul\":16566:16570   */\n              0x22\n                /* \"#utility.yul\":16563:16564   */\n              0x04\n                /* \"#utility.yul\":16556:16571   */\n              mstore\n                /* \"#utility.yul\":16590:16594   */\n              0x24\n                /* \"#utility.yul\":16587:16588   */\n              0x00\n                /* \"#utility.yul\":16580:16595   */\n              revert\n                /* \"#utility.yul\":16607:16927   */\n            tag_84:\n                /* \"#utility.yul\":16651:16657   */\n              0x00\n                /* \"#utility.yul\":16688:16689   */\n              0x02\n                /* \"#utility.yul\":16682:16686   */\n              dup3\n                /* \"#utility.yul\":16678:16690   */\n              div\n                /* \"#utility.yul\":16668:16690   */\n              swap1\n              pop\n                /* \"#utility.yul\":16735:16736   */\n              0x01\n                /* \"#utility.yul\":16729:16733   */\n              dup3\n                /* \"#utility.yul\":16725:16737   */\n              and\n                /* \"#utility.yul\":16756:16774   */\n              dup1\n                /* \"#utility.yul\":16746:16827   */\n              tag_372\n              jumpi\n                /* \"#utility.yul\":16812:16816   */\n              0x7f\n                /* \"#utility.yul\":16804:16810   */\n              dup3\n                /* \"#utility.yul\":16800:16817   */\n              and\n                /* \"#utility.yul\":16790:16817   */\n              swap2\n              pop\n                /* \"#utility.yul\":16746:16827   */\n            tag_372:\n                /* \"#utility.yul\":16874:16876   */\n              0x20\n                /* \"#utility.yul\":16866:16872   */\n              dup3\n                /* \"#utility.yul\":16863:16877   */\n              lt\n                /* \"#utility.yul\":16843:16861   */\n              dup2\n                /* \"#utility.yul\":16840:16878   */\n              eq\n                /* \"#utility.yul\":16837:16921   */\n              iszero\n              tag_373\n              jumpi\n                /* \"#utility.yul\":16893:16911   */\n              tag_374\n              tag_220\n              jump\t// in\n            tag_374:\n                /* \"#utility.yul\":16837:16921   */\n            tag_373:\n                /* \"#utility.yul\":16658:16927   */\n              pop\n                /* \"#utility.yul\":16607:16927   */\n              swap2\n              swap1\n              pop\n              jump\t// out\n                /* \"#utility.yul\":16933:17113   */\n            tag_221:\n                /* \"#utility.yul\":16981:17058   */\n              0x4e487b7100000000000000000000000000000000000000000000000000000000\n                /* \"#utility.yul\":16978:16979   */\n              0x00\n                /* \"#utility.yul\":16971:17059   */\n              mstore\n                /* \"#utility.yul\":17078:17082   */\n              0x11\n                /* \"#utility.yul\":17075:17076   */\n              0x04\n                /* \"#utility.yul\":17068:17083   */\n              mstore\n                /* \"#utility.yul\":17102:17106   */\n              0x24\n                /* \"#utility.yul\":17099:17100   */\n              0x00\n                /* \"#utility.yul\":17092:17107   */\n              revert\n                /* \"#utility.yul\":17119:17352   */\n            tag_122:\n                /* \"#utility.yul\":17158:17161   */\n              0x00\n                /* \"#utility.yul\":17181:17205   */\n              tag_377\n                /* \"#utility.yul\":17199:17204   */\n              dup3\n                /* \"#utility.yul\":17181:17205   */\n              tag_180\n              jump\t// in\n            tag_377:\n                /* \"#utility.yul\":17172:17205   */\n              swap2\n              pop\n                /* \"#utility.yul\":17227:17293   */\n              0xffffffffffffffffffffffffffffffffffffffffffffffffffffffffffffffff\n                /* \"#utility.yul\":17220:17225   */\n              dup3\n                /* \"#utility.yul\":17217:17294   */\n              eq\n                /* \"#utility.yul\":17214:17317   */\n              iszero\n              tag_378\n              jumpi\n                /* \"#utility.yul\":17297:17315   */\n              tag_379\n              tag_221\n              jump\t// in\n            tag_379:\n                /* \"#utility.yul\":17214:17317   */\n            tag_378:\n                /* \"#utility.yul\":17344:17345   */\n              0x01\n                /* \"#utility.yul\":17337:17342   */\n              dup3\n                /* \"#utility.yul\":17333:17346   */\n              add\n                /* \"#utility.yul\":17326:17346   */\n              swap1\n              pop\n                /* \"#utility.yul\":17119:17352   */\n              swap2\n              swap1\n              pop\n              jump\t// out\n\n            auxdata: 0xa2646970667358221220049e571c3b95b7a6c7738046f7c9a3990193dd09fdd044fb340d85034a1e393964736f6c634300080a0033\n        }\n    }\n\n    auxdata: 0xa264697066735822122010b8768624ea0c581151ac4792c44052862dd6f57debe1329bbd7465ff4cfe5764736f6c634300080a0033\n}\n","bytecode":{"linkReferences":{},"object":"608060405234801561001057600080fd5b506125ba806100206000396000f3fe60806040523480156200001157600080fd5b50600436106200003a5760003560e01c8063911cbef9146200003f5780639f3a7f52146200005f575b600080fd5b6200005d60048036038101906200005791906200060b565b62000081565b005b62000069620001b1565b604051620000789190620008aa565b60405180910390f35b600033848360405162000094906200039c565b620000a29392919062000942565b604051809103906000f080158015620000bf573d6000803e3d6000fd5b509050600060405180606001604052808373ffffffffffffffffffffffffffffffffffffffff168152602001868152602001858152509050600081908060018154018082558091505060019003906000526020600020906003020160009091909190915060008201518160000160006101000a81548173ffffffffffffffffffffffffffffffffffffffff021916908373ffffffffffffffffffffffffffffffffffffffff160217905550602082015181600101908051906020019062000188929190620003aa565b506040820151816002019080519060200190620001a7929190620003aa565b5050505050505050565b60606000805480602002602001604051908101604052809291908181526020016000905b828210156200039357838290600052602060002090600302016040518060600160405290816000820160009054906101000a900473ffffffffffffffffffffffffffffffffffffffff1673ffffffffffffffffffffffffffffffffffffffff1673ffffffffffffffffffffffffffffffffffffffff1681526020016001820180546200026190620009b5565b80601f01602080910402602001604051908101604052809291908181526020018280546200028f90620009b5565b8015620002e05780601f10620002b457610100808354040283529160200191620002e0565b820191906000526020600020905b815481529060010190602001808311620002c257829003601f168201915b50505050508152602001600282018054620002fb90620009b5565b80601f01602080910402602001604051908101604052809291908181526020018280546200032990620009b5565b80156200037a5780601f106200034e576101008083540402835291602001916200037a565b820191906000526020600020905b8154815290600101906020018083116200035c57829003601f168201915b50505050508152505081526020019060010190620001d5565b50505050905090565b611b9980620009ec83390190565b828054620003b890620009b5565b90600052602060002090601f016020900481019282620003dc576000855562000428565b82601f10620003f757805160ff191683800117855562000428565b8280016001018555821562000428579182015b82811115620004275782518255916020019190600101906200040a565b5b5090506200043791906200043b565b5090565b5b80821115620004565760008160009055506001016200043c565b5090565b6000604051905090565b600080fd5b600080fd5b600080fd5b600080fd5b6000601f19601f8301169050919050565b7f4e487b7100000000000000000000000000000000000000000000000000000000600052604160045260246000fd5b620004c38262000478565b810181811067ffffffffffffffff82111715620004e557620004e462000489565b5b80604052505050565b6000620004fa6200045a565b9050620005088282620004b8565b919050565b600067ffffffffffffffff8211156200052b576200052a62000489565b5b620005368262000478565b9050602081019050919050565b82818337600083830152505050565b60006200056962000563846200050d565b620004ee565b90508281526020810184848401111562000588576200058762000473565b5b6200059584828562000543565b509392505050565b600082601f830112620005b557620005b46200046e565b5b8135620005c784826020860162000552565b91505092915050565b6000819050919050565b620005e581620005d0565b8114620005f157600080fd5b50565b6000813590506200060581620005da565b92915050565b60008060006060848603121562000627576200062662000464565b5b600084013567ffffffffffffffff81111562000648576200064762000469565b5b62000656868287016200059d565b935050602084013567ffffffffffffffff8111156200067a576200067962000469565b5b62000688868287016200059d565b92505060406200069b86828701620005f4565b9150509250925092565b600081519050919050565b600082825260208201905092915050565b6000819050602082019050919050565b600073ffffffffffffffffffffffffffffffffffffffff82169050919050565b6000620006fe82620006d1565b9050919050565b6200071081620006f1565b82525050565b600081519050919050565b600082825260208201905092915050565b60005b838110156200075257808201518184015260208101905062000735565b8381111562000762576000848401525b50505050565b6000620007758262000716565b62000781818562000721565b93506200079381856020860162000732565b6200079e8162000478565b840191505092915050565b6000606083016000830151620007c3600086018262000705565b5060208301518482036020860152620007dd828262000768565b91505060408301518482036040860152620007f9828262000768565b9150508091505092915050565b6000620008148383620007a9565b905092915050565b6000602082019050919050565b60006200083682620006a5565b620008428185620006b0565b9350836020820285016200085685620006c1565b8060005b8581101562000898578484038952815162000876858262000806565b945062000883836200081c565b925060208a019950506001810190506200085a565b50829750879550505050505092915050565b60006020820190508181036000830152620008c6818462000829565b905092915050565b620008d981620006f1565b82525050565b600082825260208201905092915050565b6000620008fd8262000716565b620009098185620008df565b93506200091b81856020860162000732565b620009268162000478565b840191505092915050565b6200093c81620005d0565b82525050565b6000606082019050620009596000830186620008ce565b81810360208301526200096d8185620008f0565b90506200097e604083018462000931565b949350505050565b7f4e487b7100000000000000000000000000000000000000000000000000000000600052602260045260246000fd5b60006002820490506001821680620009ce57607f821691505b60208210811415620009e557620009e462000986565b5b5091905056fe60806040523480156200001157600080fd5b5060405162001b9938038062001b998339818101604052810190620000379190620003db565b82600260006101000a81548173ffffffffffffffffffffffffffffffffffffffff021916908373ffffffffffffffffffffffffffffffffffffffff1602179055506000600460006101000a81548160ff021916908315150217905550600080819055506000600460016101000a81548160ff0219169083151502179055508160019080519060200190620000cd929190620000ee565b508060058190555060006006819055506000600781905550505050620004bb565b828054620000fc9062000485565b90600052602060002090601f0160209004810192826200012057600085556200016c565b82601f106200013b57805160ff19168380011785556200016c565b828001600101855582156200016c579182015b828111156200016b5782518255916020019190600101906200014e565b5b5090506200017b91906200017f565b5090565b5b808211156200019a57600081600090555060010162000180565b5090565b6000604051905090565b600080fd5b600080fd5b600073ffffffffffffffffffffffffffffffffffffffff82169050919050565b6000620001df82620001b2565b9050919050565b620001f181620001d2565b8114620001fd57600080fd5b50565b6000815190506200021181620001e6565b92915050565b600080fd5b600080fd5b6000601f19601f8301169050919050565b7f4e487b7100000000000000000000000000000000000000000000000000000000600052604160045260246000fd5b6200026c8262000221565b810181811067ffffffffffffffff821117156200028e576200028d62000232565b5b80604052505050565b6000620002a36200019e565b9050620002b1828262000261565b919050565b600067ffffffffffffffff821115620002d457620002d362000232565b5b620002df8262000221565b9050602081019050919050565b60005b838110156200030c578082015181840152602081019050620002ef565b838111156200031c576000848401525b50505050565b6000620003396200033384620002b6565b62000297565b9050828152602081018484840111156200035857620003576200021c565b5b62000365848285620002ec565b509392505050565b600082601f83011262000385576200038462000217565b5b81516200039784826020860162000322565b91505092915050565b6000819050919050565b620003b581620003a0565b8114620003c157600080fd5b50565b600081519050620003d581620003aa565b92915050565b600080600060608486031215620003f757620003f6620001a8565b5b6000620004078682870162000200565b935050602084015167ffffffffffffffff8111156200042b576200042a620001ad565b5b62000439868287016200036d565b92505060406200044c86828701620003c4565b9150509250925092565b7f4e487b7100000000000000000000000000000000000000000000000000000000600052602260045260246000fd5b600060028204905060018216806200049e57607f821691505b60208210811415620004b557620004b462000456565b5b50919050565b6116ce80620004cb6000396000f3fe608060405234801561001057600080fd5b50600436106100f55760003560e01c8063544736e611610097578063a8311aa811610066578063a8311aa81461023c578063cf09e0d01461025a578063f21f537d14610278578063fa391c6414610296576100f5565b8063544736e6146101da57806356a34768146101f857806359f78468146102145780637cc3ae8c1461021e576100f5565b80630d15fd77116100d35780630d15fd77146101645780632c0a3f89146101825780634717f97c1461019e578063481c6a75146101bc576100f5565b8063024789a9146100fa57806306fdde031461012a5780630c54b46314610148575b600080fd5b610114600480360381019061010f9190610e46565b6102b4565b6040516101219190610fa6565b60405180910390f35b610132610548565b60405161013f9190611012565b60405180910390f35b610162600480360381019061015d9190611034565b6105d6565b005b61016c61069d565b6040516101799190611083565b60405180910390f35b61019c60048036038101906101979190611034565b6106a3565b005b6101a661078f565b6040516101b3919061114d565b60405180910390f35b6101c4610807565b6040516101d191906111b0565b60405180910390f35b6101e261082d565b6040516101ef91906111e6565b60405180910390f35b610212600480360381019061020d9190611336565b610840565b005b61021c6109bd565b005b610226610a54565b6040516102339190611083565b60405180910390f35b610244610a5a565b604051610251919061156e565b60405180910390f35b610262610d0b565b60405161026f9190611083565b60405180910390f35b610280610d11565b60405161028d9190611083565b60405180910390f35b61029e610d17565b6040516102ab91906111e6565b60405180910390f35b6102bc610d2a565b6000600883815481106102d2576102d1611590565b5b90600052602060002090600502019050806040518060a00160405290816000820180546102fe906115ee565b80601f016020809104026020016040519081016040528092919081815260200182805461032a906115ee565b80156103775780601f1061034c57610100808354040283529160200191610377565b820191906000526020600020905b81548152906001019060200180831161035a57829003601f168201915b50505050508152602001600182018054610390906115ee565b80601f01602080910402602001604051908101604052809291908181526020018280546103bc906115ee565b80156104095780601f106103de57610100808354040283529160200191610409565b820191906000526020600020905b8154815290600101906020018083116103ec57829003601f168201915b505050505081526020016002820154815260200160038201805461042c906115ee565b80601f0160208091040260200160405190810160405280929190818152602001828054610458906115ee565b80156104a55780601f1061047a576101008083540402835291602001916104a5565b820191906000526020600020905b81548152906001019060200180831161048857829003601f168201915b505050505081526020016004820180546104be906115ee565b80601f01602080910402602001604051908101604052809291908181526020018280546104ea906115ee565b80156105375780601f1061050c57610100808354040283529160200191610537565b820191906000526020600020905b81548152906001019060200180831161051a57829003601f168201915b505050505081525050915050919050565b60018054610555906115ee565b80601f0160208091040260200160405190810160405280929190818152602001828054610581906115ee565b80156105ce5780601f106105a3576101008083540402835291602001916105ce565b820191906000526020600020905b8154815290600101906020018083116105b157829003601f168201915b505050505081565b600260009054906101000a900473ffffffffffffffffffffffffffffffffffffffff1673ffffffffffffffffffffffffffffffffffffffff163373ffffffffffffffffffffffffffffffffffffffff161461063057600080fd5b60001515600460009054906101000a900460ff1615151461065057600080fd5b60001515600460019054906101000a900460ff1615151461067057600080fd5b6001600460016101000a81548160ff02191690831515021790555081600681905550806007819055505050565b60005481565b60011515600460019054906101000a900460ff161515146106c357600080fd5b600015156003600084815260200190815260200160002060009054906101000a900460ff161515146106f457600080fd5b60001515600460009054906101000a900460ff1615151461071457600080fd5b60016003600084815260200190815260200160002060006101000a81548160ff0219169083151502179055506009818154811061075457610753611590565b5b90600052602060002001600081548092919061076f9061164f565b91905055506000808154809291906107869061164f565b91905055505050565b606060011515600460009054906101000a900460ff161515146107b157600080fd5b60098054806020026020016040519081016040528092919081815260200182805480156107fd57602002820191906000526020600020905b8154815260200190600101908083116107e9575b5050505050905090565b600260009054906101000a900473ffffffffffffffffffffffffffffffffffffffff1681565b600460019054906101000a900460ff1681565b600260009054906101000a900473ffffffffffffffffffffffffffffffffffffffff1673ffffffffffffffffffffffffffffffffffffffff163373ffffffffffffffffffffffffffffffffffffffff161461089a57600080fd5b600460019054906101000a900460ff16156108b457600080fd5b60006040518060a0016040528087815260200186815260200185815260200184815260200183815250905060088190806001815401808255809150506001900390600052602060002090600502016000909190919091506000820151816000019080519060200190610927929190610d59565b506020820151816001019080519060200190610944929190610d59565b5060408201518160020155606082015181600301908051906020019061096b929190610d59565b506080820151816004019080519060200190610988929190610d59565b505050600960009080600181540180825580915050600190039060005260206000200160009091909190915055505050505050565b600260009054906101000a900473ffffffffffffffffffffffffffffffffffffffff1673ffffffffffffffffffffffffffffffffffffffff163373ffffffffffffffffffffffffffffffffffffffff1614610a1757600080fd5b60011515600460019054906101000a900460ff16151514610a3757600080fd5b6001600460006101000a81548160ff021916908315150217905550565b60075481565b60606008805480602002602001604051908101604052809291908181526020016000905b82821015610d0257838290600052602060002090600502016040518060a0016040529081600082018054610ab1906115ee565b80601f0160208091040260200160405190810160405280929190818152602001828054610add906115ee565b8015610b2a5780601f10610aff57610100808354040283529160200191610b2a565b820191906000526020600020905b815481529060010190602001808311610b0d57829003601f168201915b50505050508152602001600182018054610b43906115ee565b80601f0160208091040260200160405190810160405280929190818152602001828054610b6f906115ee565b8015610bbc5780601f10610b9157610100808354040283529160200191610bbc565b820191906000526020600020905b815481529060010190602001808311610b9f57829003601f168201915b5050505050815260200160028201548152602001600382018054610bdf906115ee565b80601f0160208091040260200160405190810160405280929190818152602001828054610c0b906115ee565b8015610c585780601f10610c2d57610100808354040283529160200191610c58565b820191906000526020600020905b815481529060010190602001808311610c3b57829003601f168201915b50505050508152602001600482018054610c71906115ee565b80601f0160208091040260200160405190810160405280929190818152602001828054610c9d906115ee565b8015610cea5780601f10610cbf57610100808354040283529160200191610cea565b820191906000526020600020905b815481529060010190602001808311610ccd57829003601f168201915b50505050508152505081526020019060010190610a7e565b50505050905090565b60055481565b60065481565b600460009054906101000a900460ff1681565b6040518060a0016040528060608152602001606081526020016000815260200160608152602001606081525090565b828054610d65906115ee565b90600052602060002090601f016020900481019282610d875760008555610dce565b82601f10610da057805160ff1916838001178555610dce565b82800160010185558215610dce579182015b82811115610dcd578251825591602001919060010190610db2565b5b509050610ddb9190610ddf565b5090565b5b80821115610df8576000816000905550600101610de0565b5090565b6000604051905090565b600080fd5b600080fd5b6000819050919050565b610e2381610e10565b8114610e2e57600080fd5b50565b600081359050610e4081610e1a565b92915050565b600060208284031215610e5c57610e5b610e06565b5b6000610e6a84828501610e31565b91505092915050565b600081519050919050565b600082825260208201905092915050565b60005b83811015610ead578082015181840152602081019050610e92565b83811115610ebc576000848401525b50505050565b6000601f19601f8301169050919050565b6000610ede82610e73565b610ee88185610e7e565b9350610ef8818560208601610e8f565b610f0181610ec2565b840191505092915050565b610f1581610e10565b82525050565b600060a0830160008301518482036000860152610f388282610ed3565b91505060208301518482036020860152610f528282610ed3565b9150506040830151610f676040860182610f0c565b5060608301518482036060860152610f7f8282610ed3565b91505060808301518482036080860152610f998282610ed3565b9150508091505092915050565b60006020820190508181036000830152610fc08184610f1b565b905092915050565b600082825260208201905092915050565b6000610fe482610e73565b610fee8185610fc8565b9350610ffe818560208601610e8f565b61100781610ec2565b840191505092915050565b6000602082019050818103600083015261102c8184610fd9565b905092915050565b6000806040838503121561104b5761104a610e06565b5b600061105985828601610e31565b925050602061106a85828601610e31565b9150509250929050565b61107d81610e10565b82525050565b60006020820190506110986000830184611074565b92915050565b600081519050919050565b600082825260208201905092915050565b6000819050602082019050919050565b60006110d68383610f0c565b60208301905092915050565b6000602082019050919050565b60006110fa8261109e565b61110481856110a9565b935061110f836110ba565b8060005b8381101561114057815161112788826110ca565b9750611132836110e2565b925050600181019050611113565b5085935050505092915050565b6000602082019050818103600083015261116781846110ef565b905092915050565b600073ffffffffffffffffffffffffffffffffffffffff82169050919050565b600061119a8261116f565b9050919050565b6111aa8161118f565b82525050565b60006020820190506111c560008301846111a1565b92915050565b60008115159050919050565b6111e0816111cb565b82525050565b60006020820190506111fb60008301846111d7565b92915050565b600080fd5b600080fd5b7f4e487b7100000000000000000000000000000000000000000000000000000000600052604160045260246000fd5b61124382610ec2565b810181811067ffffffffffffffff821117156112625761126161120b565b5b80604052505050565b6000611275610dfc565b9050611281828261123a565b919050565b600067ffffffffffffffff8211156112a1576112a061120b565b5b6112aa82610ec2565b9050602081019050919050565b82818337600083830152505050565b60006112d96112d484611286565b61126b565b9050828152602081018484840111156112f5576112f4611206565b5b6113008482856112b7565b509392505050565b600082601f83011261131d5761131c611201565b5b813561132d8482602086016112c6565b91505092915050565b600080600080600060a0868803121561135257611351610e06565b5b600086013567ffffffffffffffff8111156113705761136f610e0b565b5b61137c88828901611308565b955050602086013567ffffffffffffffff81111561139d5761139c610e0b565b5b6113a988828901611308565b94505060406113ba88828901610e31565b935050606086013567ffffffffffffffff8111156113db576113da610e0b565b5b6113e788828901611308565b925050608086013567ffffffffffffffff81111561140857611407610e0b565b5b61141488828901611308565b9150509295509295909350565b600081519050919050565b600082825260208201905092915050565b6000819050602082019050919050565b600060a083016000830151848203600086015261146a8282610ed3565b915050602083015184820360208601526114848282610ed3565b91505060408301516114996040860182610f0c565b50606083015184820360608601526114b18282610ed3565b915050608083015184820360808601526114cb8282610ed3565b9150508091505092915050565b60006114e4838361144d565b905092915050565b6000602082019050919050565b600061150482611421565b61150e818561142c565b9350836020820285016115208561143d565b8060005b8581101561155c578484038952815161153d85826114d8565b9450611548836114ec565b925060208a01995050600181019050611524565b50829750879550505050505092915050565b6000602082019050818103600083015261158881846114f9565b905092915050565b7f4e487b7100000000000000000000000000000000000000000000000000000000600052603260045260246000fd5b7f4e487b7100000000000000000000000000000000000000000000000000000000600052602260045260246000fd5b6000600282049050600182168061160657607f821691505b6020821081141561161a576116196115bf565b5b50919050565b7f4e487b7100000000000000000000000000000000000000000000000000000000600052601160045260246000fd5b600061165a82610e10565b91507fffffffffffffffffffffffffffffffffffffffffffffffffffffffffffffffff82141561168d5761168c611620565b5b60018201905091905056fea2646970667358221220049e571c3b95b7a6c7738046f7c9a3990193dd09fdd044fb340d85034a1e393964736f6c634300080a0033a264697066735822122010b8768624ea0c581151ac4792c44052862dd6f57debe1329bbd7465ff4cfe5764736f6c634300080a0033","opcodes":"PUSH1 0x80 PUSH1 0x40 MSTORE CALLVALUE DUP1 ISZERO PUSH2 0x10 JUMPI PUSH1 0x0 DUP1 REVERT JUMPDEST POP PUSH2 0x25BA DUP1 PUSH2 0x20 PUSH1 0x0 CODECOPY PUSH1 0x0 RETURN INVALID PUSH1 0x80 PUSH1 0x40 MSTORE CALLVALUE DUP1 ISZERO PUSH3 0x11 JUMPI PUSH1 0x0 DUP1 REVERT JUMPDEST POP PUSH1 0x4 CALLDATASIZE LT PUSH3 0x3A JUMPI PUSH1 0x0 CALLDATALOAD PUSH1 0xE0 SHR DUP1 PUSH4 0x911CBEF9 EQ PUSH3 0x3F JUMPI DUP1 PUSH4 0x9F3A7F52 EQ PUSH3 0x5F JUMPI JUMPDEST PUSH1 0x0 DUP1 REVERT JUMPDEST PUSH3 0x5D PUSH1 0x4 DUP1 CALLDATASIZE SUB DUP2 ADD SWAP1 PUSH3 0x57 SWAP2 SWAP1 PUSH3 0x60B JUMP JUMPDEST PUSH3 0x81 JUMP JUMPDEST STOP JUMPDEST PUSH3 0x69 PUSH3 0x1B1 JUMP JUMPDEST PUSH1 0x40 MLOAD PUSH3 0x78 SWAP2 SWAP1 PUSH3 0x8AA JUMP JUMPDEST PUSH1 0x40 MLOAD DUP1 SWAP2 SUB SWAP1 RETURN JUMPDEST PUSH1 0x0 CALLER DUP5 DUP4 PUSH1 0x40 MLOAD PUSH3 0x94 SWAP1 PUSH3 0x39C JUMP JUMPDEST PUSH3 0xA2 SWAP4 SWAP3 SWAP2 SWAP1 PUSH3 0x942 JUMP JUMPDEST PUSH1 0x40 MLOAD DUP1 SWAP2 SUB SWAP1 PUSH1 0x0 CREATE DUP1 ISZERO DUP1 ISZERO PUSH3 0xBF JUMPI RETURNDATASIZE PUSH1 0x0 DUP1 RETURNDATACOPY RETURNDATASIZE PUSH1 0x0 REVERT JUMPDEST POP SWAP1 POP PUSH1 0x0 PUSH1 0x40 MLOAD DUP1 PUSH1 0x60 ADD PUSH1 0x40 MSTORE DUP1 DUP4 PUSH20 0xFFFFFFFFFFFFFFFFFFFFFFFFFFFFFFFFFFFFFFFF AND DUP2 MSTORE PUSH1 0x20 ADD DUP7 DUP2 MSTORE PUSH1 0x20 ADD DUP6 DUP2 MSTORE POP SWAP1 POP PUSH1 0x0 DUP2 SWAP1 DUP1 PUSH1 0x1 DUP2 SLOAD ADD DUP1 DUP3 SSTORE DUP1 SWAP2 POP POP PUSH1 0x1 SWAP1 SUB SWAP1 PUSH1 0x0 MSTORE PUSH1 0x20 PUSH1 0x0 KECCAK256 SWAP1 PUSH1 0x3 MUL ADD PUSH1 0x0 SWAP1 SWAP2 SWAP1 SWAP2 SWAP1 SWAP2 POP PUSH1 0x0 DUP3 ADD MLOAD DUP2 PUSH1 0x0 ADD PUSH1 0x0 PUSH2 0x100 EXP DUP2 SLOAD DUP2 PUSH20 0xFFFFFFFFFFFFFFFFFFFFFFFFFFFFFFFFFFFFFFFF MUL NOT AND SWAP1 DUP4 PUSH20 0xFFFFFFFFFFFFFFFFFFFFFFFFFFFFFFFFFFFFFFFF AND MUL OR SWAP1 SSTORE POP PUSH1 0x20 DUP3 ADD MLOAD DUP2 PUSH1 0x1 ADD SWAP1 DUP1 MLOAD SWAP1 PUSH1 0x20 ADD SWAP1 PUSH3 0x188 SWAP3 SWAP2 SWAP1 PUSH3 0x3AA JUMP JUMPDEST POP PUSH1 0x40 DUP3 ADD MLOAD DUP2 PUSH1 0x2 ADD SWAP1 DUP1 MLOAD SWAP1 PUSH1 0x20 ADD SWAP1 PUSH3 0x1A7 SWAP3 SWAP2 SWAP1 PUSH3 0x3AA JUMP JUMPDEST POP POP POP POP POP POP POP POP JUMP JUMPDEST PUSH1 0x60 PUSH1 0x0 DUP1 SLOAD DUP1 PUSH1 0x20 MUL PUSH1 0x20 ADD PUSH1 0x40 MLOAD SWAP1 DUP2 ADD PUSH1 0x40 MSTORE DUP1 SWAP3 SWAP2 SWAP1 DUP2 DUP2 MSTORE PUSH1 0x20 ADD PUSH1 0x0 SWAP1 JUMPDEST DUP3 DUP3 LT ISZERO PUSH3 0x393 JUMPI DUP4 DUP3 SWAP1 PUSH1 0x0 MSTORE PUSH1 0x20 PUSH1 0x0 KECCAK256 SWAP1 PUSH1 0x3 MUL ADD PUSH1 0x40 MLOAD DUP1 PUSH1 0x60 ADD PUSH1 0x40 MSTORE SWAP1 DUP2 PUSH1 0x0 DUP3 ADD PUSH1 0x0 SWAP1 SLOAD SWAP1 PUSH2 0x100 EXP SWAP1 DIV PUSH20 0xFFFFFFFFFFFFFFFFFFFFFFFFFFFFFFFFFFFFFFFF AND PUSH20 0xFFFFFFFFFFFFFFFFFFFFFFFFFFFFFFFFFFFFFFFF AND PUSH20 0xFFFFFFFFFFFFFFFFFFFFFFFFFFFFFFFFFFFFFFFF AND DUP2 MSTORE PUSH1 0x20 ADD PUSH1 0x1 DUP3 ADD DUP1 SLOAD PUSH3 0x261 SWAP1 PUSH3 0x9B5 JUMP JUMPDEST DUP1 PUSH1 0x1F ADD PUSH1 0x20 DUP1 SWAP2 DIV MUL PUSH1 0x20 ADD PUSH1 0x40 MLOAD SWAP1 DUP2 ADD PUSH1 0x40 MSTORE DUP1 SWAP3 SWAP2 SWAP1 DUP2 DUP2 MSTORE PUSH1 0x20 ADD DUP3 DUP1 SLOAD PUSH3 0x28F SWAP1 PUSH3 0x9B5 JUMP JUMPDEST DUP1 ISZERO PUSH3 0x2E0 JUMPI DUP1 PUSH1 0x1F LT PUSH3 0x2B4 JUMPI PUSH2 0x100 DUP1 DUP4 SLOAD DIV MUL DUP4 MSTORE SWAP2 PUSH1 0x20 ADD SWAP2 PUSH3 0x2E0 JUMP JUMPDEST DUP3 ADD SWAP2 SWAP1 PUSH1 0x0 MSTORE PUSH1 0x20 PUSH1 0x0 KECCAK256 SWAP1 JUMPDEST DUP2 SLOAD DUP2 MSTORE SWAP1 PUSH1 0x1 ADD SWAP1 PUSH1 0x20 ADD DUP1 DUP4 GT PUSH3 0x2C2 JUMPI DUP3 SWAP1 SUB PUSH1 0x1F AND DUP3 ADD SWAP2 JUMPDEST POP POP POP POP POP DUP2 MSTORE PUSH1 0x20 ADD PUSH1 0x2 DUP3 ADD DUP1 SLOAD PUSH3 0x2FB SWAP1 PUSH3 0x9B5 JUMP JUMPDEST DUP1 PUSH1 0x1F ADD PUSH1 0x20 DUP1 SWAP2 DIV MUL PUSH1 0x20 ADD PUSH1 0x40 MLOAD SWAP1 DUP2 ADD PUSH1 0x40 MSTORE DUP1 SWAP3 SWAP2 SWAP1 DUP2 DUP2 MSTORE PUSH1 0x20 ADD DUP3 DUP1 SLOAD PUSH3 0x329 SWAP1 PUSH3 0x9B5 JUMP JUMPDEST DUP1 ISZERO PUSH3 0x37A JUMPI DUP1 PUSH1 0x1F LT PUSH3 0x34E JUMPI PUSH2 0x100 DUP1 DUP4 SLOAD DIV MUL DUP4 MSTORE SWAP2 PUSH1 0x20 ADD SWAP2 PUSH3 0x37A JUMP JUMPDEST DUP3 ADD SWAP2 SWAP1 PUSH1 0x0 MSTORE PUSH1 0x20 PUSH1 0x0 KECCAK256 SWAP1 JUMPDEST DUP2 SLOAD DUP2 MSTORE SWAP1 PUSH1 0x1 ADD SWAP1 PUSH1 0x20 ADD DUP1 DUP4 GT PUSH3 0x35C JUMPI DUP3 SWAP1 SUB PUSH1 0x1F AND DUP3 ADD SWAP2 JUMPDEST POP POP POP POP POP DUP2 MSTORE POP POP DUP2 MSTORE PUSH1 0x20 ADD SWAP1 PUSH1 0x1 ADD SWAP1 PUSH3 0x1D5 JUMP JUMPDEST POP POP POP POP SWAP1 POP SWAP1 JUMP JUMPDEST PUSH2 0x1B99 DUP1 PUSH3 0x9EC DUP4 CODECOPY ADD SWAP1 JUMP JUMPDEST DUP3 DUP1 SLOAD PUSH3 0x3B8 SWAP1 PUSH3 0x9B5 JUMP JUMPDEST SWAP1 PUSH1 0x0 MSTORE PUSH1 0x20 PUSH1 0x0 KECCAK256 SWAP1 PUSH1 0x1F ADD PUSH1 0x20 SWAP1 DIV DUP2 ADD SWAP3 DUP3 PUSH3 0x3DC JUMPI PUSH1 0x0 DUP6 SSTORE PUSH3 0x428 JUMP JUMPDEST DUP3 PUSH1 0x1F LT PUSH3 0x3F7 JUMPI DUP1 MLOAD PUSH1 0xFF NOT AND DUP4 DUP1 ADD OR DUP6 SSTORE PUSH3 0x428 JUMP JUMPDEST DUP3 DUP1 ADD PUSH1 0x1 ADD DUP6 SSTORE DUP3 ISZERO PUSH3 0x428 JUMPI SWAP2 DUP3 ADD JUMPDEST DUP3 DUP2 GT ISZERO PUSH3 0x427 JUMPI DUP3 MLOAD DUP3 SSTORE SWAP2 PUSH1 0x20 ADD SWAP2 SWAP1 PUSH1 0x1 ADD SWAP1 PUSH3 0x40A JUMP JUMPDEST JUMPDEST POP SWAP1 POP PUSH3 0x437 SWAP2 SWAP1 PUSH3 0x43B JUMP JUMPDEST POP SWAP1 JUMP JUMPDEST JUMPDEST DUP1 DUP3 GT ISZERO PUSH3 0x456 JUMPI PUSH1 0x0 DUP2 PUSH1 0x0 SWAP1 SSTORE POP PUSH1 0x1 ADD PUSH3 0x43C JUMP JUMPDEST POP SWAP1 JUMP JUMPDEST PUSH1 0x0 PUSH1 0x40 MLOAD SWAP1 POP SWAP1 JUMP JUMPDEST PUSH1 0x0 DUP1 REVERT JUMPDEST PUSH1 0x0 DUP1 REVERT JUMPDEST PUSH1 0x0 DUP1 REVERT JUMPDEST PUSH1 0x0 DUP1 REVERT JUMPDEST PUSH1 0x0 PUSH1 0x1F NOT PUSH1 0x1F DUP4 ADD AND SWAP1 POP SWAP2 SWAP1 POP JUMP JUMPDEST PUSH32 0x4E487B7100000000000000000000000000000000000000000000000000000000 PUSH1 0x0 MSTORE PUSH1 0x41 PUSH1 0x4 MSTORE PUSH1 0x24 PUSH1 0x0 REVERT JUMPDEST PUSH3 0x4C3 DUP3 PUSH3 0x478 JUMP JUMPDEST DUP2 ADD DUP2 DUP2 LT PUSH8 0xFFFFFFFFFFFFFFFF DUP3 GT OR ISZERO PUSH3 0x4E5 JUMPI PUSH3 0x4E4 PUSH3 0x489 JUMP JUMPDEST JUMPDEST DUP1 PUSH1 0x40 MSTORE POP POP POP JUMP JUMPDEST PUSH1 0x0 PUSH3 0x4FA PUSH3 0x45A JUMP JUMPDEST SWAP1 POP PUSH3 0x508 DUP3 DUP3 PUSH3 0x4B8 JUMP JUMPDEST SWAP2 SWAP1 POP JUMP JUMPDEST PUSH1 0x0 PUSH8 0xFFFFFFFFFFFFFFFF DUP3 GT ISZERO PUSH3 0x52B JUMPI PUSH3 0x52A PUSH3 0x489 JUMP JUMPDEST JUMPDEST PUSH3 0x536 DUP3 PUSH3 0x478 JUMP JUMPDEST SWAP1 POP PUSH1 0x20 DUP2 ADD SWAP1 POP SWAP2 SWAP1 POP JUMP JUMPDEST DUP3 DUP2 DUP4 CALLDATACOPY PUSH1 0x0 DUP4 DUP4 ADD MSTORE POP POP POP JUMP JUMPDEST PUSH1 0x0 PUSH3 0x569 PUSH3 0x563 DUP5 PUSH3 0x50D JUMP JUMPDEST PUSH3 0x4EE JUMP JUMPDEST SWAP1 POP DUP3 DUP2 MSTORE PUSH1 0x20 DUP2 ADD DUP5 DUP5 DUP5 ADD GT ISZERO PUSH3 0x588 JUMPI PUSH3 0x587 PUSH3 0x473 JUMP JUMPDEST JUMPDEST PUSH3 0x595 DUP5 DUP3 DUP6 PUSH3 0x543 JUMP JUMPDEST POP SWAP4 SWAP3 POP POP POP JUMP JUMPDEST PUSH1 0x0 DUP3 PUSH1 0x1F DUP4 ADD SLT PUSH3 0x5B5 JUMPI PUSH3 0x5B4 PUSH3 0x46E JUMP JUMPDEST JUMPDEST DUP2 CALLDATALOAD PUSH3 0x5C7 DUP5 DUP3 PUSH1 0x20 DUP7 ADD PUSH3 0x552 JUMP JUMPDEST SWAP2 POP POP SWAP3 SWAP2 POP POP JUMP JUMPDEST PUSH1 0x0 DUP2 SWAP1 POP SWAP2 SWAP1 POP JUMP JUMPDEST PUSH3 0x5E5 DUP2 PUSH3 0x5D0 JUMP JUMPDEST DUP2 EQ PUSH3 0x5F1 JUMPI PUSH1 0x0 DUP1 REVERT JUMPDEST POP JUMP JUMPDEST PUSH1 0x0 DUP2 CALLDATALOAD SWAP1 POP PUSH3 0x605 DUP2 PUSH3 0x5DA JUMP JUMPDEST SWAP3 SWAP2 POP POP JUMP JUMPDEST PUSH1 0x0 DUP1 PUSH1 0x0 PUSH1 0x60 DUP5 DUP7 SUB SLT ISZERO PUSH3 0x627 JUMPI PUSH3 0x626 PUSH3 0x464 JUMP JUMPDEST JUMPDEST PUSH1 0x0 DUP5 ADD CALLDATALOAD PUSH8 0xFFFFFFFFFFFFFFFF DUP2 GT ISZERO PUSH3 0x648 JUMPI PUSH3 0x647 PUSH3 0x469 JUMP JUMPDEST JUMPDEST PUSH3 0x656 DUP7 DUP3 DUP8 ADD PUSH3 0x59D JUMP JUMPDEST SWAP4 POP POP PUSH1 0x20 DUP5 ADD CALLDATALOAD PUSH8 0xFFFFFFFFFFFFFFFF DUP2 GT ISZERO PUSH3 0x67A JUMPI PUSH3 0x679 PUSH3 0x469 JUMP JUMPDEST JUMPDEST PUSH3 0x688 DUP7 DUP3 DUP8 ADD PUSH3 0x59D JUMP JUMPDEST SWAP3 POP POP PUSH1 0x40 PUSH3 0x69B DUP7 DUP3 DUP8 ADD PUSH3 0x5F4 JUMP JUMPDEST SWAP2 POP POP SWAP3 POP SWAP3 POP SWAP3 JUMP JUMPDEST PUSH1 0x0 DUP2 MLOAD SWAP1 POP SWAP2 SWAP1 POP JUMP JUMPDEST PUSH1 0x0 DUP3 DUP3 MSTORE PUSH1 0x20 DUP3 ADD SWAP1 POP SWAP3 SWAP2 POP POP JUMP JUMPDEST PUSH1 0x0 DUP2 SWAP1 POP PUSH1 0x20 DUP3 ADD SWAP1 POP SWAP2 SWAP1 POP JUMP JUMPDEST PUSH1 0x0 PUSH20 0xFFFFFFFFFFFFFFFFFFFFFFFFFFFFFFFFFFFFFFFF DUP3 AND SWAP1 POP SWAP2 SWAP1 POP JUMP JUMPDEST PUSH1 0x0 PUSH3 0x6FE DUP3 PUSH3 0x6D1 JUMP JUMPDEST SWAP1 POP SWAP2 SWAP1 POP JUMP JUMPDEST PUSH3 0x710 DUP2 PUSH3 0x6F1 JUMP JUMPDEST DUP3 MSTORE POP POP JUMP JUMPDEST PUSH1 0x0 DUP2 MLOAD SWAP1 POP SWAP2 SWAP1 POP JUMP JUMPDEST PUSH1 0x0 DUP3 DUP3 MSTORE PUSH1 0x20 DUP3 ADD SWAP1 POP SWAP3 SWAP2 POP POP JUMP JUMPDEST PUSH1 0x0 JUMPDEST DUP4 DUP2 LT ISZERO PUSH3 0x752 JUMPI DUP1 DUP3 ADD MLOAD DUP2 DUP5 ADD MSTORE PUSH1 0x20 DUP2 ADD SWAP1 POP PUSH3 0x735 JUMP JUMPDEST DUP4 DUP2 GT ISZERO PUSH3 0x762 JUMPI PUSH1 0x0 DUP5 DUP5 ADD MSTORE JUMPDEST POP POP POP POP JUMP JUMPDEST PUSH1 0x0 PUSH3 0x775 DUP3 PUSH3 0x716 JUMP JUMPDEST PUSH3 0x781 DUP2 DUP6 PUSH3 0x721 JUMP JUMPDEST SWAP4 POP PUSH3 0x793 DUP2 DUP6 PUSH1 0x20 DUP7 ADD PUSH3 0x732 JUMP JUMPDEST PUSH3 0x79E DUP2 PUSH3 0x478 JUMP JUMPDEST DUP5 ADD SWAP2 POP POP SWAP3 SWAP2 POP POP JUMP JUMPDEST PUSH1 0x0 PUSH1 0x60 DUP4 ADD PUSH1 0x0 DUP4 ADD MLOAD PUSH3 0x7C3 PUSH1 0x0 DUP7 ADD DUP3 PUSH3 0x705 JUMP JUMPDEST POP PUSH1 0x20 DUP4 ADD MLOAD DUP5 DUP3 SUB PUSH1 0x20 DUP7 ADD MSTORE PUSH3 0x7DD DUP3 DUP3 PUSH3 0x768 JUMP JUMPDEST SWAP2 POP POP PUSH1 0x40 DUP4 ADD MLOAD DUP5 DUP3 SUB PUSH1 0x40 DUP7 ADD MSTORE PUSH3 0x7F9 DUP3 DUP3 PUSH3 0x768 JUMP JUMPDEST SWAP2 POP POP DUP1 SWAP2 POP POP SWAP3 SWAP2 POP POP JUMP JUMPDEST PUSH1 0x0 PUSH3 0x814 DUP4 DUP4 PUSH3 0x7A9 JUMP JUMPDEST SWAP1 POP SWAP3 SWAP2 POP POP JUMP JUMPDEST PUSH1 0x0 PUSH1 0x20 DUP3 ADD SWAP1 POP SWAP2 SWAP1 POP JUMP JUMPDEST PUSH1 0x0 PUSH3 0x836 DUP3 PUSH3 0x6A5 JUMP JUMPDEST PUSH3 0x842 DUP2 DUP6 PUSH3 0x6B0 JUMP JUMPDEST SWAP4 POP DUP4 PUSH1 0x20 DUP3 MUL DUP6 ADD PUSH3 0x856 DUP6 PUSH3 0x6C1 JUMP JUMPDEST DUP1 PUSH1 0x0 JUMPDEST DUP6 DUP2 LT ISZERO PUSH3 0x898 JUMPI DUP5 DUP5 SUB DUP10 MSTORE DUP2 MLOAD PUSH3 0x876 DUP6 DUP3 PUSH3 0x806 JUMP JUMPDEST SWAP5 POP PUSH3 0x883 DUP4 PUSH3 0x81C JUMP JUMPDEST SWAP3 POP PUSH1 0x20 DUP11 ADD SWAP10 POP POP PUSH1 0x1 DUP2 ADD SWAP1 POP PUSH3 0x85A JUMP JUMPDEST POP DUP3 SWAP8 POP DUP8 SWAP6 POP POP POP POP POP POP SWAP3 SWAP2 POP POP JUMP JUMPDEST PUSH1 0x0 PUSH1 0x20 DUP3 ADD SWAP1 POP DUP2 DUP2 SUB PUSH1 0x0 DUP4 ADD MSTORE PUSH3 0x8C6 DUP2 DUP5 PUSH3 0x829 JUMP JUMPDEST SWAP1 POP SWAP3 SWAP2 POP POP JUMP JUMPDEST PUSH3 0x8D9 DUP2 PUSH3 0x6F1 JUMP JUMPDEST DUP3 MSTORE POP POP JUMP JUMPDEST PUSH1 0x0 DUP3 DUP3 MSTORE PUSH1 0x20 DUP3 ADD SWAP1 POP SWAP3 SWAP2 POP POP JUMP JUMPDEST PUSH1 0x0 PUSH3 0x8FD DUP3 PUSH3 0x716 JUMP JUMPDEST PUSH3 0x909 DUP2 DUP6 PUSH3 0x8DF JUMP JUMPDEST SWAP4 POP PUSH3 0x91B DUP2 DUP6 PUSH1 0x20 DUP7 ADD PUSH3 0x732 JUMP JUMPDEST PUSH3 0x926 DUP2 PUSH3 0x478 JUMP JUMPDEST DUP5 ADD SWAP2 POP POP SWAP3 SWAP2 POP POP JUMP JUMPDEST PUSH3 0x93C DUP2 PUSH3 0x5D0 JUMP JUMPDEST DUP3 MSTORE POP POP JUMP JUMPDEST PUSH1 0x0 PUSH1 0x60 DUP3 ADD SWAP1 POP PUSH3 0x959 PUSH1 0x0 DUP4 ADD DUP7 PUSH3 0x8CE JUMP JUMPDEST DUP2 DUP2 SUB PUSH1 0x20 DUP4 ADD MSTORE PUSH3 0x96D DUP2 DUP6 PUSH3 0x8F0 JUMP JUMPDEST SWAP1 POP PUSH3 0x97E PUSH1 0x40 DUP4 ADD DUP5 PUSH3 0x931 JUMP JUMPDEST SWAP5 SWAP4 POP POP POP POP JUMP JUMPDEST PUSH32 0x4E487B7100000000000000000000000000000000000000000000000000000000 PUSH1 0x0 MSTORE PUSH1 0x22 PUSH1 0x4 MSTORE PUSH1 0x24 PUSH1 0x0 REVERT JUMPDEST PUSH1 0x0 PUSH1 0x2 DUP3 DIV SWAP1 POP PUSH1 0x1 DUP3 AND DUP1 PUSH3 0x9CE JUMPI PUSH1 0x7F DUP3 AND SWAP2 POP JUMPDEST PUSH1 0x20 DUP3 LT DUP2 EQ ISZERO PUSH3 0x9E5 JUMPI PUSH3 0x9E4 PUSH3 0x986 JUMP JUMPDEST JUMPDEST POP SWAP2 SWAP1 POP JUMP INVALID PUSH1 0x80 PUSH1 0x40 MSTORE CALLVALUE DUP1 ISZERO PUSH3 0x11 JUMPI PUSH1 0x0 DUP1 REVERT JUMPDEST POP PUSH1 0x40 MLOAD PUSH3 0x1B99 CODESIZE SUB DUP1 PUSH3 0x1B99 DUP4 CODECOPY DUP2 DUP2 ADD PUSH1 0x40 MSTORE DUP2 ADD SWAP1 PUSH3 0x37 SWAP2 SWAP1 PUSH3 0x3DB JUMP JUMPDEST DUP3 PUSH1 0x2 PUSH1 0x0 PUSH2 0x100 EXP DUP2 SLOAD DUP2 PUSH20 0xFFFFFFFFFFFFFFFFFFFFFFFFFFFFFFFFFFFFFFFF MUL NOT AND SWAP1 DUP4 PUSH20 0xFFFFFFFFFFFFFFFFFFFFFFFFFFFFFFFFFFFFFFFF AND MUL OR SWAP1 SSTORE POP PUSH1 0x0 PUSH1 0x4 PUSH1 0x0 PUSH2 0x100 EXP DUP2 SLOAD DUP2 PUSH1 0xFF MUL NOT AND SWAP1 DUP4 ISZERO ISZERO MUL OR SWAP1 SSTORE POP PUSH1 0x0 DUP1 DUP2 SWAP1 SSTORE POP PUSH1 0x0 PUSH1 0x4 PUSH1 0x1 PUSH2 0x100 EXP DUP2 SLOAD DUP2 PUSH1 0xFF MUL NOT AND SWAP1 DUP4 ISZERO ISZERO MUL OR SWAP1 SSTORE POP DUP2 PUSH1 0x1 SWAP1 DUP1 MLOAD SWAP1 PUSH1 0x20 ADD SWAP1 PUSH3 0xCD SWAP3 SWAP2 SWAP1 PUSH3 0xEE JUMP JUMPDEST POP DUP1 PUSH1 0x5 DUP2 SWAP1 SSTORE POP PUSH1 0x0 PUSH1 0x6 DUP2 SWAP1 SSTORE POP PUSH1 0x0 PUSH1 0x7 DUP2 SWAP1 SSTORE POP POP POP POP PUSH3 0x4BB JUMP JUMPDEST DUP3 DUP1 SLOAD PUSH3 0xFC SWAP1 PUSH3 0x485 JUMP JUMPDEST SWAP1 PUSH1 0x0 MSTORE PUSH1 0x20 PUSH1 0x0 KECCAK256 SWAP1 PUSH1 0x1F ADD PUSH1 0x20 SWAP1 DIV DUP2 ADD SWAP3 DUP3 PUSH3 0x120 JUMPI PUSH1 0x0 DUP6 SSTORE PUSH3 0x16C JUMP JUMPDEST DUP3 PUSH1 0x1F LT PUSH3 0x13B JUMPI DUP1 MLOAD PUSH1 0xFF NOT AND DUP4 DUP1 ADD OR DUP6 SSTORE PUSH3 0x16C JUMP JUMPDEST DUP3 DUP1 ADD PUSH1 0x1 ADD DUP6 SSTORE DUP3 ISZERO PUSH3 0x16C JUMPI SWAP2 DUP3 ADD JUMPDEST DUP3 DUP2 GT ISZERO PUSH3 0x16B JUMPI DUP3 MLOAD DUP3 SSTORE SWAP2 PUSH1 0x20 ADD SWAP2 SWAP1 PUSH1 0x1 ADD SWAP1 PUSH3 0x14E JUMP JUMPDEST JUMPDEST POP SWAP1 POP PUSH3 0x17B SWAP2 SWAP1 PUSH3 0x17F JUMP JUMPDEST POP SWAP1 JUMP JUMPDEST JUMPDEST DUP1 DUP3 GT ISZERO PUSH3 0x19A JUMPI PUSH1 0x0 DUP2 PUSH1 0x0 SWAP1 SSTORE POP PUSH1 0x1 ADD PUSH3 0x180 JUMP JUMPDEST POP SWAP1 JUMP JUMPDEST PUSH1 0x0 PUSH1 0x40 MLOAD SWAP1 POP SWAP1 JUMP JUMPDEST PUSH1 0x0 DUP1 REVERT JUMPDEST PUSH1 0x0 DUP1 REVERT JUMPDEST PUSH1 0x0 PUSH20 0xFFFFFFFFFFFFFFFFFFFFFFFFFFFFFFFFFFFFFFFF DUP3 AND SWAP1 POP SWAP2 SWAP1 POP JUMP JUMPDEST PUSH1 0x0 PUSH3 0x1DF DUP3 PUSH3 0x1B2 JUMP JUMPDEST SWAP1 POP SWAP2 SWAP1 POP JUMP JUMPDEST PUSH3 0x1F1 DUP2 PUSH3 0x1D2 JUMP JUMPDEST DUP2 EQ PUSH3 0x1FD JUMPI PUSH1 0x0 DUP1 REVERT JUMPDEST POP JUMP JUMPDEST PUSH1 0x0 DUP2 MLOAD SWAP1 POP PUSH3 0x211 DUP2 PUSH3 0x1E6 JUMP JUMPDEST SWAP3 SWAP2 POP POP JUMP JUMPDEST PUSH1 0x0 DUP1 REVERT JUMPDEST PUSH1 0x0 DUP1 REVERT JUMPDEST PUSH1 0x0 PUSH1 0x1F NOT PUSH1 0x1F DUP4 ADD AND SWAP1 POP SWAP2 SWAP1 POP JUMP JUMPDEST PUSH32 0x4E487B7100000000000000000000000000000000000000000000000000000000 PUSH1 0x0 MSTORE PUSH1 0x41 PUSH1 0x4 MSTORE PUSH1 0x24 PUSH1 0x0 REVERT JUMPDEST PUSH3 0x26C DUP3 PUSH3 0x221 JUMP JUMPDEST DUP2 ADD DUP2 DUP2 LT PUSH8 0xFFFFFFFFFFFFFFFF DUP3 GT OR ISZERO PUSH3 0x28E JUMPI PUSH3 0x28D PUSH3 0x232 JUMP JUMPDEST JUMPDEST DUP1 PUSH1 0x40 MSTORE POP POP POP JUMP JUMPDEST PUSH1 0x0 PUSH3 0x2A3 PUSH3 0x19E JUMP JUMPDEST SWAP1 POP PUSH3 0x2B1 DUP3 DUP3 PUSH3 0x261 JUMP JUMPDEST SWAP2 SWAP1 POP JUMP JUMPDEST PUSH1 0x0 PUSH8 0xFFFFFFFFFFFFFFFF DUP3 GT ISZERO PUSH3 0x2D4 JUMPI PUSH3 0x2D3 PUSH3 0x232 JUMP JUMPDEST JUMPDEST PUSH3 0x2DF DUP3 PUSH3 0x221 JUMP JUMPDEST SWAP1 POP PUSH1 0x20 DUP2 ADD SWAP1 POP SWAP2 SWAP1 POP JUMP JUMPDEST PUSH1 0x0 JUMPDEST DUP4 DUP2 LT ISZERO PUSH3 0x30C JUMPI DUP1 DUP3 ADD MLOAD DUP2 DUP5 ADD MSTORE PUSH1 0x20 DUP2 ADD SWAP1 POP PUSH3 0x2EF JUMP JUMPDEST DUP4 DUP2 GT ISZERO PUSH3 0x31C JUMPI PUSH1 0x0 DUP5 DUP5 ADD MSTORE JUMPDEST POP POP POP POP JUMP JUMPDEST PUSH1 0x0 PUSH3 0x339 PUSH3 0x333 DUP5 PUSH3 0x2B6 JUMP JUMPDEST PUSH3 0x297 JUMP JUMPDEST SWAP1 POP DUP3 DUP2 MSTORE PUSH1 0x20 DUP2 ADD DUP5 DUP5 DUP5 ADD GT ISZERO PUSH3 0x358 JUMPI PUSH3 0x357 PUSH3 0x21C JUMP JUMPDEST JUMPDEST PUSH3 0x365 DUP5 DUP3 DUP6 PUSH3 0x2EC JUMP JUMPDEST POP SWAP4 SWAP3 POP POP POP JUMP JUMPDEST PUSH1 0x0 DUP3 PUSH1 0x1F DUP4 ADD SLT PUSH3 0x385 JUMPI PUSH3 0x384 PUSH3 0x217 JUMP JUMPDEST JUMPDEST DUP2 MLOAD PUSH3 0x397 DUP5 DUP3 PUSH1 0x20 DUP7 ADD PUSH3 0x322 JUMP JUMPDEST SWAP2 POP POP SWAP3 SWAP2 POP POP JUMP JUMPDEST PUSH1 0x0 DUP2 SWAP1 POP SWAP2 SWAP1 POP JUMP JUMPDEST PUSH3 0x3B5 DUP2 PUSH3 0x3A0 JUMP JUMPDEST DUP2 EQ PUSH3 0x3C1 JUMPI PUSH1 0x0 DUP1 REVERT JUMPDEST POP JUMP JUMPDEST PUSH1 0x0 DUP2 MLOAD SWAP1 POP PUSH3 0x3D5 DUP2 PUSH3 0x3AA JUMP JUMPDEST SWAP3 SWAP2 POP POP JUMP JUMPDEST PUSH1 0x0 DUP1 PUSH1 0x0 PUSH1 0x60 DUP5 DUP7 SUB SLT ISZERO PUSH3 0x3F7 JUMPI PUSH3 0x3F6 PUSH3 0x1A8 JUMP JUMPDEST JUMPDEST PUSH1 0x0 PUSH3 0x407 DUP7 DUP3 DUP8 ADD PUSH3 0x200 JUMP JUMPDEST SWAP4 POP POP PUSH1 0x20 DUP5 ADD MLOAD PUSH8 0xFFFFFFFFFFFFFFFF DUP2 GT ISZERO PUSH3 0x42B JUMPI PUSH3 0x42A PUSH3 0x1AD JUMP JUMPDEST JUMPDEST PUSH3 0x439 DUP7 DUP3 DUP8 ADD PUSH3 0x36D JUMP JUMPDEST SWAP3 POP POP PUSH1 0x40 PUSH3 0x44C DUP7 DUP3 DUP8 ADD PUSH3 0x3C4 JUMP JUMPDEST SWAP2 POP POP SWAP3 POP SWAP3 POP SWAP3 JUMP JUMPDEST PUSH32 0x4E487B7100000000000000000000000000000000000000000000000000000000 PUSH1 0x0 MSTORE PUSH1 0x22 PUSH1 0x4 MSTORE PUSH1 0x24 PUSH1 0x0 REVERT JUMPDEST PUSH1 0x0 PUSH1 0x2 DUP3 DIV SWAP1 POP PUSH1 0x1 DUP3 AND DUP1 PUSH3 0x49E JUMPI PUSH1 0x7F DUP3 AND SWAP2 POP JUMPDEST PUSH1 0x20 DUP3 LT DUP2 EQ ISZERO PUSH3 0x4B5 JUMPI PUSH3 0x4B4 PUSH3 0x456 JUMP JUMPDEST JUMPDEST POP SWAP2 SWAP1 POP JUMP JUMPDEST PUSH2 0x16CE DUP1 PUSH3 0x4CB PUSH1 0x0 CODECOPY PUSH1 0x0 RETURN INVALID PUSH1 0x80 PUSH1 0x40 MSTORE CALLVALUE DUP1 ISZERO PUSH2 0x10 JUMPI PUSH1 0x0 DUP1 REVERT JUMPDEST POP PUSH1 0x4 CALLDATASIZE LT PUSH2 0xF5 JUMPI PUSH1 0x0 CALLDATALOAD PUSH1 0xE0 SHR DUP1 PUSH4 0x544736E6 GT PUSH2 0x97 JUMPI DUP1 PUSH4 0xA8311AA8 GT PUSH2 0x66 JUMPI DUP1 PUSH4 0xA8311AA8 EQ PUSH2 0x23C JUMPI DUP1 PUSH4 0xCF09E0D0 EQ PUSH2 0x25A JUMPI DUP1 PUSH4 0xF21F537D EQ PUSH2 0x278 JUMPI DUP1 PUSH4 0xFA391C64 EQ PUSH2 0x296 JUMPI PUSH2 0xF5 JUMP JUMPDEST DUP1 PUSH4 0x544736E6 EQ PUSH2 0x1DA JUMPI DUP1 PUSH4 0x56A34768 EQ PUSH2 0x1F8 JUMPI DUP1 PUSH4 0x59F78468 EQ PUSH2 0x214 JUMPI DUP1 PUSH4 0x7CC3AE8C EQ PUSH2 0x21E JUMPI PUSH2 0xF5 JUMP JUMPDEST DUP1 PUSH4 0xD15FD77 GT PUSH2 0xD3 JUMPI DUP1 PUSH4 0xD15FD77 EQ PUSH2 0x164 JUMPI DUP1 PUSH4 0x2C0A3F89 EQ PUSH2 0x182 JUMPI DUP1 PUSH4 0x4717F97C EQ PUSH2 0x19E JUMPI DUP1 PUSH4 0x481C6A75 EQ PUSH2 0x1BC JUMPI PUSH2 0xF5 JUMP JUMPDEST DUP1 PUSH4 0x24789A9 EQ PUSH2 0xFA JUMPI DUP1 PUSH4 0x6FDDE03 EQ PUSH2 0x12A JUMPI DUP1 PUSH4 0xC54B463 EQ PUSH2 0x148 JUMPI JUMPDEST PUSH1 0x0 DUP1 REVERT JUMPDEST PUSH2 0x114 PUSH1 0x4 DUP1 CALLDATASIZE SUB DUP2 ADD SWAP1 PUSH2 0x10F SWAP2 SWAP1 PUSH2 0xE46 JUMP JUMPDEST PUSH2 0x2B4 JUMP JUMPDEST PUSH1 0x40 MLOAD PUSH2 0x121 SWAP2 SWAP1 PUSH2 0xFA6 JUMP JUMPDEST PUSH1 0x40 MLOAD DUP1 SWAP2 SUB SWAP1 RETURN JUMPDEST PUSH2 0x132 PUSH2 0x548 JUMP JUMPDEST PUSH1 0x40 MLOAD PUSH2 0x13F SWAP2 SWAP1 PUSH2 0x1012 JUMP JUMPDEST PUSH1 0x40 MLOAD DUP1 SWAP2 SUB SWAP1 RETURN JUMPDEST PUSH2 0x162 PUSH1 0x4 DUP1 CALLDATASIZE SUB DUP2 ADD SWAP1 PUSH2 0x15D SWAP2 SWAP1 PUSH2 0x1034 JUMP JUMPDEST PUSH2 0x5D6 JUMP JUMPDEST STOP JUMPDEST PUSH2 0x16C PUSH2 0x69D JUMP JUMPDEST PUSH1 0x40 MLOAD PUSH2 0x179 SWAP2 SWAP1 PUSH2 0x1083 JUMP JUMPDEST PUSH1 0x40 MLOAD DUP1 SWAP2 SUB SWAP1 RETURN JUMPDEST PUSH2 0x19C PUSH1 0x4 DUP1 CALLDATASIZE SUB DUP2 ADD SWAP1 PUSH2 0x197 SWAP2 SWAP1 PUSH2 0x1034 JUMP JUMPDEST PUSH2 0x6A3 JUMP JUMPDEST STOP JUMPDEST PUSH2 0x1A6 PUSH2 0x78F JUMP JUMPDEST PUSH1 0x40 MLOAD PUSH2 0x1B3 SWAP2 SWAP1 PUSH2 0x114D JUMP JUMPDEST PUSH1 0x40 MLOAD DUP1 SWAP2 SUB SWAP1 RETURN JUMPDEST PUSH2 0x1C4 PUSH2 0x807 JUMP JUMPDEST PUSH1 0x40 MLOAD PUSH2 0x1D1 SWAP2 SWAP1 PUSH2 0x11B0 JUMP JUMPDEST PUSH1 0x40 MLOAD DUP1 SWAP2 SUB SWAP1 RETURN JUMPDEST PUSH2 0x1E2 PUSH2 0x82D JUMP JUMPDEST PUSH1 0x40 MLOAD PUSH2 0x1EF SWAP2 SWAP1 PUSH2 0x11E6 JUMP JUMPDEST PUSH1 0x40 MLOAD DUP1 SWAP2 SUB SWAP1 RETURN JUMPDEST PUSH2 0x212 PUSH1 0x4 DUP1 CALLDATASIZE SUB DUP2 ADD SWAP1 PUSH2 0x20D SWAP2 SWAP1 PUSH2 0x1336 JUMP JUMPDEST PUSH2 0x840 JUMP JUMPDEST STOP JUMPDEST PUSH2 0x21C PUSH2 0x9BD JUMP JUMPDEST STOP JUMPDEST PUSH2 0x226 PUSH2 0xA54 JUMP JUMPDEST PUSH1 0x40 MLOAD PUSH2 0x233 SWAP2 SWAP1 PUSH2 0x1083 JUMP JUMPDEST PUSH1 0x40 MLOAD DUP1 SWAP2 SUB SWAP1 RETURN JUMPDEST PUSH2 0x244 PUSH2 0xA5A JUMP JUMPDEST PUSH1 0x40 MLOAD PUSH2 0x251 SWAP2 SWAP1 PUSH2 0x156E JUMP JUMPDEST PUSH1 0x40 MLOAD DUP1 SWAP2 SUB SWAP1 RETURN JUMPDEST PUSH2 0x262 PUSH2 0xD0B JUMP JUMPDEST PUSH1 0x40 MLOAD PUSH2 0x26F SWAP2 SWAP1 PUSH2 0x1083 JUMP JUMPDEST PUSH1 0x40 MLOAD DUP1 SWAP2 SUB SWAP1 RETURN JUMPDEST PUSH2 0x280 PUSH2 0xD11 JUMP JUMPDEST PUSH1 0x40 MLOAD PUSH2 0x28D SWAP2 SWAP1 PUSH2 0x1083 JUMP JUMPDEST PUSH1 0x40 MLOAD DUP1 SWAP2 SUB SWAP1 RETURN JUMPDEST PUSH2 0x29E PUSH2 0xD17 JUMP JUMPDEST PUSH1 0x40 MLOAD PUSH2 0x2AB SWAP2 SWAP1 PUSH2 0x11E6 JUMP JUMPDEST PUSH1 0x40 MLOAD DUP1 SWAP2 SUB SWAP1 RETURN JUMPDEST PUSH2 0x2BC PUSH2 0xD2A JUMP JUMPDEST PUSH1 0x0 PUSH1 0x8 DUP4 DUP2 SLOAD DUP2 LT PUSH2 0x2D2 JUMPI PUSH2 0x2D1 PUSH2 0x1590 JUMP JUMPDEST JUMPDEST SWAP1 PUSH1 0x0 MSTORE PUSH1 0x20 PUSH1 0x0 KECCAK256 SWAP1 PUSH1 0x5 MUL ADD SWAP1 POP DUP1 PUSH1 0x40 MLOAD DUP1 PUSH1 0xA0 ADD PUSH1 0x40 MSTORE SWAP1 DUP2 PUSH1 0x0 DUP3 ADD DUP1 SLOAD PUSH2 0x2FE SWAP1 PUSH2 0x15EE JUMP JUMPDEST DUP1 PUSH1 0x1F ADD PUSH1 0x20 DUP1 SWAP2 DIV MUL PUSH1 0x20 ADD PUSH1 0x40 MLOAD SWAP1 DUP2 ADD PUSH1 0x40 MSTORE DUP1 SWAP3 SWAP2 SWAP1 DUP2 DUP2 MSTORE PUSH1 0x20 ADD DUP3 DUP1 SLOAD PUSH2 0x32A SWAP1 PUSH2 0x15EE JUMP JUMPDEST DUP1 ISZERO PUSH2 0x377 JUMPI DUP1 PUSH1 0x1F LT PUSH2 0x34C JUMPI PUSH2 0x100 DUP1 DUP4 SLOAD DIV MUL DUP4 MSTORE SWAP2 PUSH1 0x20 ADD SWAP2 PUSH2 0x377 JUMP JUMPDEST DUP3 ADD SWAP2 SWAP1 PUSH1 0x0 MSTORE PUSH1 0x20 PUSH1 0x0 KECCAK256 SWAP1 JUMPDEST DUP2 SLOAD DUP2 MSTORE SWAP1 PUSH1 0x1 ADD SWAP1 PUSH1 0x20 ADD DUP1 DUP4 GT PUSH2 0x35A JUMPI DUP3 SWAP1 SUB PUSH1 0x1F AND DUP3 ADD SWAP2 JUMPDEST POP POP POP POP POP DUP2 MSTORE PUSH1 0x20 ADD PUSH1 0x1 DUP3 ADD DUP1 SLOAD PUSH2 0x390 SWAP1 PUSH2 0x15EE JUMP JUMPDEST DUP1 PUSH1 0x1F ADD PUSH1 0x20 DUP1 SWAP2 DIV MUL PUSH1 0x20 ADD PUSH1 0x40 MLOAD SWAP1 DUP2 ADD PUSH1 0x40 MSTORE DUP1 SWAP3 SWAP2 SWAP1 DUP2 DUP2 MSTORE PUSH1 0x20 ADD DUP3 DUP1 SLOAD PUSH2 0x3BC SWAP1 PUSH2 0x15EE JUMP JUMPDEST DUP1 ISZERO PUSH2 0x409 JUMPI DUP1 PUSH1 0x1F LT PUSH2 0x3DE JUMPI PUSH2 0x100 DUP1 DUP4 SLOAD DIV MUL DUP4 MSTORE SWAP2 PUSH1 0x20 ADD SWAP2 PUSH2 0x409 JUMP JUMPDEST DUP3 ADD SWAP2 SWAP1 PUSH1 0x0 MSTORE PUSH1 0x20 PUSH1 0x0 KECCAK256 SWAP1 JUMPDEST DUP2 SLOAD DUP2 MSTORE SWAP1 PUSH1 0x1 ADD SWAP1 PUSH1 0x20 ADD DUP1 DUP4 GT PUSH2 0x3EC JUMPI DUP3 SWAP1 SUB PUSH1 0x1F AND DUP3 ADD SWAP2 JUMPDEST POP POP POP POP POP DUP2 MSTORE PUSH1 0x20 ADD PUSH1 0x2 DUP3 ADD SLOAD DUP2 MSTORE PUSH1 0x20 ADD PUSH1 0x3 DUP3 ADD DUP1 SLOAD PUSH2 0x42C SWAP1 PUSH2 0x15EE JUMP JUMPDEST DUP1 PUSH1 0x1F ADD PUSH1 0x20 DUP1 SWAP2 DIV MUL PUSH1 0x20 ADD PUSH1 0x40 MLOAD SWAP1 DUP2 ADD PUSH1 0x40 MSTORE DUP1 SWAP3 SWAP2 SWAP1 DUP2 DUP2 MSTORE PUSH1 0x20 ADD DUP3 DUP1 SLOAD PUSH2 0x458 SWAP1 PUSH2 0x15EE JUMP JUMPDEST DUP1 ISZERO PUSH2 0x4A5 JUMPI DUP1 PUSH1 0x1F LT PUSH2 0x47A JUMPI PUSH2 0x100 DUP1 DUP4 SLOAD DIV MUL DUP4 MSTORE SWAP2 PUSH1 0x20 ADD SWAP2 PUSH2 0x4A5 JUMP JUMPDEST DUP3 ADD SWAP2 SWAP1 PUSH1 0x0 MSTORE PUSH1 0x20 PUSH1 0x0 KECCAK256 SWAP1 JUMPDEST DUP2 SLOAD DUP2 MSTORE SWAP1 PUSH1 0x1 ADD SWAP1 PUSH1 0x20 ADD DUP1 DUP4 GT PUSH2 0x488 JUMPI DUP3 SWAP1 SUB PUSH1 0x1F AND DUP3 ADD SWAP2 JUMPDEST POP POP POP POP POP DUP2 MSTORE PUSH1 0x20 ADD PUSH1 0x4 DUP3 ADD DUP1 SLOAD PUSH2 0x4BE SWAP1 PUSH2 0x15EE JUMP JUMPDEST DUP1 PUSH1 0x1F ADD PUSH1 0x20 DUP1 SWAP2 DIV MUL PUSH1 0x20 ADD PUSH1 0x40 MLOAD SWAP1 DUP2 ADD PUSH1 0x40 MSTORE DUP1 SWAP3 SWAP2 SWAP1 DUP2 DUP2 MSTORE PUSH1 0x20 ADD DUP3 DUP1 SLOAD PUSH2 0x4EA SWAP1 PUSH2 0x15EE JUMP JUMPDEST DUP1 ISZERO PUSH2 0x537 JUMPI DUP1 PUSH1 0x1F LT PUSH2 0x50C JUMPI PUSH2 0x100 DUP1 DUP4 SLOAD DIV MUL DUP4 MSTORE SWAP2 PUSH1 0x20 ADD SWAP2 PUSH2 0x537 JUMP JUMPDEST DUP3 ADD SWAP2 SWAP1 PUSH1 0x0 MSTORE PUSH1 0x20 PUSH1 0x0 KECCAK256 SWAP1 JUMPDEST DUP2 SLOAD DUP2 MSTORE SWAP1 PUSH1 0x1 ADD SWAP1 PUSH1 0x20 ADD DUP1 DUP4 GT PUSH2 0x51A JUMPI DUP3 SWAP1 SUB PUSH1 0x1F AND DUP3 ADD SWAP2 JUMPDEST POP POP POP POP POP DUP2 MSTORE POP POP SWAP2 POP POP SWAP2 SWAP1 POP JUMP JUMPDEST PUSH1 0x1 DUP1 SLOAD PUSH2 0x555 SWAP1 PUSH2 0x15EE JUMP JUMPDEST DUP1 PUSH1 0x1F ADD PUSH1 0x20 DUP1 SWAP2 DIV MUL PUSH1 0x20 ADD PUSH1 0x40 MLOAD SWAP1 DUP2 ADD PUSH1 0x40 MSTORE DUP1 SWAP3 SWAP2 SWAP1 DUP2 DUP2 MSTORE PUSH1 0x20 ADD DUP3 DUP1 SLOAD PUSH2 0x581 SWAP1 PUSH2 0x15EE JUMP JUMPDEST DUP1 ISZERO PUSH2 0x5CE JUMPI DUP1 PUSH1 0x1F LT PUSH2 0x5A3 JUMPI PUSH2 0x100 DUP1 DUP4 SLOAD DIV MUL DUP4 MSTORE SWAP2 PUSH1 0x20 ADD SWAP2 PUSH2 0x5CE JUMP JUMPDEST DUP3 ADD SWAP2 SWAP1 PUSH1 0x0 MSTORE PUSH1 0x20 PUSH1 0x0 KECCAK256 SWAP1 JUMPDEST DUP2 SLOAD DUP2 MSTORE SWAP1 PUSH1 0x1 ADD SWAP1 PUSH1 0x20 ADD DUP1 DUP4 GT PUSH2 0x5B1 JUMPI DUP3 SWAP1 SUB PUSH1 0x1F AND DUP3 ADD SWAP2 JUMPDEST POP POP POP POP POP DUP2 JUMP JUMPDEST PUSH1 0x2 PUSH1 0x0 SWAP1 SLOAD SWAP1 PUSH2 0x100 EXP SWAP1 DIV PUSH20 0xFFFFFFFFFFFFFFFFFFFFFFFFFFFFFFFFFFFFFFFF AND PUSH20 0xFFFFFFFFFFFFFFFFFFFFFFFFFFFFFFFFFFFFFFFF AND CALLER PUSH20 0xFFFFFFFFFFFFFFFFFFFFFFFFFFFFFFFFFFFFFFFF AND EQ PUSH2 0x630 JUMPI PUSH1 0x0 DUP1 REVERT JUMPDEST PUSH1 0x0 ISZERO ISZERO PUSH1 0x4 PUSH1 0x0 SWAP1 SLOAD SWAP1 PUSH2 0x100 EXP SWAP1 DIV PUSH1 0xFF AND ISZERO ISZERO EQ PUSH2 0x650 JUMPI PUSH1 0x0 DUP1 REVERT JUMPDEST PUSH1 0x0 ISZERO ISZERO PUSH1 0x4 PUSH1 0x1 SWAP1 SLOAD SWAP1 PUSH2 0x100 EXP SWAP1 DIV PUSH1 0xFF AND ISZERO ISZERO EQ PUSH2 0x670 JUMPI PUSH1 0x0 DUP1 REVERT JUMPDEST PUSH1 0x1 PUSH1 0x4 PUSH1 0x1 PUSH2 0x100 EXP DUP2 SLOAD DUP2 PUSH1 0xFF MUL NOT AND SWAP1 DUP4 ISZERO ISZERO MUL OR SWAP1 SSTORE POP DUP2 PUSH1 0x6 DUP2 SWAP1 SSTORE POP DUP1 PUSH1 0x7 DUP2 SWAP1 SSTORE POP POP POP JUMP JUMPDEST PUSH1 0x0 SLOAD DUP2 JUMP JUMPDEST PUSH1 0x1 ISZERO ISZERO PUSH1 0x4 PUSH1 0x1 SWAP1 SLOAD SWAP1 PUSH2 0x100 EXP SWAP1 DIV PUSH1 0xFF AND ISZERO ISZERO EQ PUSH2 0x6C3 JUMPI PUSH1 0x0 DUP1 REVERT JUMPDEST PUSH1 0x0 ISZERO ISZERO PUSH1 0x3 PUSH1 0x0 DUP5 DUP2 MSTORE PUSH1 0x20 ADD SWAP1 DUP2 MSTORE PUSH1 0x20 ADD PUSH1 0x0 KECCAK256 PUSH1 0x0 SWAP1 SLOAD SWAP1 PUSH2 0x100 EXP SWAP1 DIV PUSH1 0xFF AND ISZERO ISZERO EQ PUSH2 0x6F4 JUMPI PUSH1 0x0 DUP1 REVERT JUMPDEST PUSH1 0x0 ISZERO ISZERO PUSH1 0x4 PUSH1 0x0 SWAP1 SLOAD SWAP1 PUSH2 0x100 EXP SWAP1 DIV PUSH1 0xFF AND ISZERO ISZERO EQ PUSH2 0x714 JUMPI PUSH1 0x0 DUP1 REVERT JUMPDEST PUSH1 0x1 PUSH1 0x3 PUSH1 0x0 DUP5 DUP2 MSTORE PUSH1 0x20 ADD SWAP1 DUP2 MSTORE PUSH1 0x20 ADD PUSH1 0x0 KECCAK256 PUSH1 0x0 PUSH2 0x100 EXP DUP2 SLOAD DUP2 PUSH1 0xFF MUL NOT AND SWAP1 DUP4 ISZERO ISZERO MUL OR SWAP1 SSTORE POP PUSH1 0x9 DUP2 DUP2 SLOAD DUP2 LT PUSH2 0x754 JUMPI PUSH2 0x753 PUSH2 0x1590 JUMP JUMPDEST JUMPDEST SWAP1 PUSH1 0x0 MSTORE PUSH1 0x20 PUSH1 0x0 KECCAK256 ADD PUSH1 0x0 DUP2 SLOAD DUP1 SWAP3 SWAP2 SWAP1 PUSH2 0x76F SWAP1 PUSH2 0x164F JUMP JUMPDEST SWAP2 SWAP1 POP SSTORE POP PUSH1 0x0 DUP1 DUP2 SLOAD DUP1 SWAP3 SWAP2 SWAP1 PUSH2 0x786 SWAP1 PUSH2 0x164F JUMP JUMPDEST SWAP2 SWAP1 POP SSTORE POP POP POP JUMP JUMPDEST PUSH1 0x60 PUSH1 0x1 ISZERO ISZERO PUSH1 0x4 PUSH1 0x0 SWAP1 SLOAD SWAP1 PUSH2 0x100 EXP SWAP1 DIV PUSH1 0xFF AND ISZERO ISZERO EQ PUSH2 0x7B1 JUMPI PUSH1 0x0 DUP1 REVERT JUMPDEST PUSH1 0x9 DUP1 SLOAD DUP1 PUSH1 0x20 MUL PUSH1 0x20 ADD PUSH1 0x40 MLOAD SWAP1 DUP2 ADD PUSH1 0x40 MSTORE DUP1 SWAP3 SWAP2 SWAP1 DUP2 DUP2 MSTORE PUSH1 0x20 ADD DUP3 DUP1 SLOAD DUP1 ISZERO PUSH2 0x7FD JUMPI PUSH1 0x20 MUL DUP3 ADD SWAP2 SWAP1 PUSH1 0x0 MSTORE PUSH1 0x20 PUSH1 0x0 KECCAK256 SWAP1 JUMPDEST DUP2 SLOAD DUP2 MSTORE PUSH1 0x20 ADD SWAP1 PUSH1 0x1 ADD SWAP1 DUP1 DUP4 GT PUSH2 0x7E9 JUMPI JUMPDEST POP POP POP POP POP SWAP1 POP SWAP1 JUMP JUMPDEST PUSH1 0x2 PUSH1 0x0 SWAP1 SLOAD SWAP1 PUSH2 0x100 EXP SWAP1 DIV PUSH20 0xFFFFFFFFFFFFFFFFFFFFFFFFFFFFFFFFFFFFFFFF AND DUP2 JUMP JUMPDEST PUSH1 0x4 PUSH1 0x1 SWAP1 SLOAD SWAP1 PUSH2 0x100 EXP SWAP1 DIV PUSH1 0xFF AND DUP2 JUMP JUMPDEST PUSH1 0x2 PUSH1 0x0 SWAP1 SLOAD SWAP1 PUSH2 0x100 EXP SWAP1 DIV PUSH20 0xFFFFFFFFFFFFFFFFFFFFFFFFFFFFFFFFFFFFFFFF AND PUSH20 0xFFFFFFFFFFFFFFFFFFFFFFFFFFFFFFFFFFFFFFFF AND CALLER PUSH20 0xFFFFFFFFFFFFFFFFFFFFFFFFFFFFFFFFFFFFFFFF AND EQ PUSH2 0x89A JUMPI PUSH1 0x0 DUP1 REVERT JUMPDEST PUSH1 0x4 PUSH1 0x1 SWAP1 SLOAD SWAP1 PUSH2 0x100 EXP SWAP1 DIV PUSH1 0xFF AND ISZERO PUSH2 0x8B4 JUMPI PUSH1 0x0 DUP1 REVERT JUMPDEST PUSH1 0x0 PUSH1 0x40 MLOAD DUP1 PUSH1 0xA0 ADD PUSH1 0x40 MSTORE DUP1 DUP8 DUP2 MSTORE PUSH1 0x20 ADD DUP7 DUP2 MSTORE PUSH1 0x20 ADD DUP6 DUP2 MSTORE PUSH1 0x20 ADD DUP5 DUP2 MSTORE PUSH1 0x20 ADD DUP4 DUP2 MSTORE POP SWAP1 POP PUSH1 0x8 DUP2 SWAP1 DUP1 PUSH1 0x1 DUP2 SLOAD ADD DUP1 DUP3 SSTORE DUP1 SWAP2 POP POP PUSH1 0x1 SWAP1 SUB SWAP1 PUSH1 0x0 MSTORE PUSH1 0x20 PUSH1 0x0 KECCAK256 SWAP1 PUSH1 0x5 MUL ADD PUSH1 0x0 SWAP1 SWAP2 SWAP1 SWAP2 SWAP1 SWAP2 POP PUSH1 0x0 DUP3 ADD MLOAD DUP2 PUSH1 0x0 ADD SWAP1 DUP1 MLOAD SWAP1 PUSH1 0x20 ADD SWAP1 PUSH2 0x927 SWAP3 SWAP2 SWAP1 PUSH2 0xD59 JUMP JUMPDEST POP PUSH1 0x20 DUP3 ADD MLOAD DUP2 PUSH1 0x1 ADD SWAP1 DUP1 MLOAD SWAP1 PUSH1 0x20 ADD SWAP1 PUSH2 0x944 SWAP3 SWAP2 SWAP1 PUSH2 0xD59 JUMP JUMPDEST POP PUSH1 0x40 DUP3 ADD MLOAD DUP2 PUSH1 0x2 ADD SSTORE PUSH1 0x60 DUP3 ADD MLOAD DUP2 PUSH1 0x3 ADD SWAP1 DUP1 MLOAD SWAP1 PUSH1 0x20 ADD SWAP1 PUSH2 0x96B SWAP3 SWAP2 SWAP1 PUSH2 0xD59 JUMP JUMPDEST POP PUSH1 0x80 DUP3 ADD MLOAD DUP2 PUSH1 0x4 ADD SWAP1 DUP1 MLOAD SWAP1 PUSH1 0x20 ADD SWAP1 PUSH2 0x988 SWAP3 SWAP2 SWAP1 PUSH2 0xD59 JUMP JUMPDEST POP POP POP PUSH1 0x9 PUSH1 0x0 SWAP1 DUP1 PUSH1 0x1 DUP2 SLOAD ADD DUP1 DUP3 SSTORE DUP1 SWAP2 POP POP PUSH1 0x1 SWAP1 SUB SWAP1 PUSH1 0x0 MSTORE PUSH1 0x20 PUSH1 0x0 KECCAK256 ADD PUSH1 0x0 SWAP1 SWAP2 SWAP1 SWAP2 SWAP1 SWAP2 POP SSTORE POP POP POP POP POP POP JUMP JUMPDEST PUSH1 0x2 PUSH1 0x0 SWAP1 SLOAD SWAP1 PUSH2 0x100 EXP SWAP1 DIV PUSH20 0xFFFFFFFFFFFFFFFFFFFFFFFFFFFFFFFFFFFFFFFF AND PUSH20 0xFFFFFFFFFFFFFFFFFFFFFFFFFFFFFFFFFFFFFFFF AND CALLER PUSH20 0xFFFFFFFFFFFFFFFFFFFFFFFFFFFFFFFFFFFFFFFF AND EQ PUSH2 0xA17 JUMPI PUSH1 0x0 DUP1 REVERT JUMPDEST PUSH1 0x1 ISZERO ISZERO PUSH1 0x4 PUSH1 0x1 SWAP1 SLOAD SWAP1 PUSH2 0x100 EXP SWAP1 DIV PUSH1 0xFF AND ISZERO ISZERO EQ PUSH2 0xA37 JUMPI PUSH1 0x0 DUP1 REVERT JUMPDEST PUSH1 0x1 PUSH1 0x4 PUSH1 0x0 PUSH2 0x100 EXP DUP2 SLOAD DUP2 PUSH1 0xFF MUL NOT AND SWAP1 DUP4 ISZERO ISZERO MUL OR SWAP1 SSTORE POP JUMP JUMPDEST PUSH1 0x7 SLOAD DUP2 JUMP JUMPDEST PUSH1 0x60 PUSH1 0x8 DUP1 SLOAD DUP1 PUSH1 0x20 MUL PUSH1 0x20 ADD PUSH1 0x40 MLOAD SWAP1 DUP2 ADD PUSH1 0x40 MSTORE DUP1 SWAP3 SWAP2 SWAP1 DUP2 DUP2 MSTORE PUSH1 0x20 ADD PUSH1 0x0 SWAP1 JUMPDEST DUP3 DUP3 LT ISZERO PUSH2 0xD02 JUMPI DUP4 DUP3 SWAP1 PUSH1 0x0 MSTORE PUSH1 0x20 PUSH1 0x0 KECCAK256 SWAP1 PUSH1 0x5 MUL ADD PUSH1 0x40 MLOAD DUP1 PUSH1 0xA0 ADD PUSH1 0x40 MSTORE SWAP1 DUP2 PUSH1 0x0 DUP3 ADD DUP1 SLOAD PUSH2 0xAB1 SWAP1 PUSH2 0x15EE JUMP JUMPDEST DUP1 PUSH1 0x1F ADD PUSH1 0x20 DUP1 SWAP2 DIV MUL PUSH1 0x20 ADD PUSH1 0x40 MLOAD SWAP1 DUP2 ADD PUSH1 0x40 MSTORE DUP1 SWAP3 SWAP2 SWAP1 DUP2 DUP2 MSTORE PUSH1 0x20 ADD DUP3 DUP1 SLOAD PUSH2 0xADD SWAP1 PUSH2 0x15EE JUMP JUMPDEST DUP1 ISZERO PUSH2 0xB2A JUMPI DUP1 PUSH1 0x1F LT PUSH2 0xAFF JUMPI PUSH2 0x100 DUP1 DUP4 SLOAD DIV MUL DUP4 MSTORE SWAP2 PUSH1 0x20 ADD SWAP2 PUSH2 0xB2A JUMP JUMPDEST DUP3 ADD SWAP2 SWAP1 PUSH1 0x0 MSTORE PUSH1 0x20 PUSH1 0x0 KECCAK256 SWAP1 JUMPDEST DUP2 SLOAD DUP2 MSTORE SWAP1 PUSH1 0x1 ADD SWAP1 PUSH1 0x20 ADD DUP1 DUP4 GT PUSH2 0xB0D JUMPI DUP3 SWAP1 SUB PUSH1 0x1F AND DUP3 ADD SWAP2 JUMPDEST POP POP POP POP POP DUP2 MSTORE PUSH1 0x20 ADD PUSH1 0x1 DUP3 ADD DUP1 SLOAD PUSH2 0xB43 SWAP1 PUSH2 0x15EE JUMP JUMPDEST DUP1 PUSH1 0x1F ADD PUSH1 0x20 DUP1 SWAP2 DIV MUL PUSH1 0x20 ADD PUSH1 0x40 MLOAD SWAP1 DUP2 ADD PUSH1 0x40 MSTORE DUP1 SWAP3 SWAP2 SWAP1 DUP2 DUP2 MSTORE PUSH1 0x20 ADD DUP3 DUP1 SLOAD PUSH2 0xB6F SWAP1 PUSH2 0x15EE JUMP JUMPDEST DUP1 ISZERO PUSH2 0xBBC JUMPI DUP1 PUSH1 0x1F LT PUSH2 0xB91 JUMPI PUSH2 0x100 DUP1 DUP4 SLOAD DIV MUL DUP4 MSTORE SWAP2 PUSH1 0x20 ADD SWAP2 PUSH2 0xBBC JUMP JUMPDEST DUP3 ADD SWAP2 SWAP1 PUSH1 0x0 MSTORE PUSH1 0x20 PUSH1 0x0 KECCAK256 SWAP1 JUMPDEST DUP2 SLOAD DUP2 MSTORE SWAP1 PUSH1 0x1 ADD SWAP1 PUSH1 0x20 ADD DUP1 DUP4 GT PUSH2 0xB9F JUMPI DUP3 SWAP1 SUB PUSH1 0x1F AND DUP3 ADD SWAP2 JUMPDEST POP POP POP POP POP DUP2 MSTORE PUSH1 0x20 ADD PUSH1 0x2 DUP3 ADD SLOAD DUP2 MSTORE PUSH1 0x20 ADD PUSH1 0x3 DUP3 ADD DUP1 SLOAD PUSH2 0xBDF SWAP1 PUSH2 0x15EE JUMP JUMPDEST DUP1 PUSH1 0x1F ADD PUSH1 0x20 DUP1 SWAP2 DIV MUL PUSH1 0x20 ADD PUSH1 0x40 MLOAD SWAP1 DUP2 ADD PUSH1 0x40 MSTORE DUP1 SWAP3 SWAP2 SWAP1 DUP2 DUP2 MSTORE PUSH1 0x20 ADD DUP3 DUP1 SLOAD PUSH2 0xC0B SWAP1 PUSH2 0x15EE JUMP JUMPDEST DUP1 ISZERO PUSH2 0xC58 JUMPI DUP1 PUSH1 0x1F LT PUSH2 0xC2D JUMPI PUSH2 0x100 DUP1 DUP4 SLOAD DIV MUL DUP4 MSTORE SWAP2 PUSH1 0x20 ADD SWAP2 PUSH2 0xC58 JUMP JUMPDEST DUP3 ADD SWAP2 SWAP1 PUSH1 0x0 MSTORE PUSH1 0x20 PUSH1 0x0 KECCAK256 SWAP1 JUMPDEST DUP2 SLOAD DUP2 MSTORE SWAP1 PUSH1 0x1 ADD SWAP1 PUSH1 0x20 ADD DUP1 DUP4 GT PUSH2 0xC3B JUMPI DUP3 SWAP1 SUB PUSH1 0x1F AND DUP3 ADD SWAP2 JUMPDEST POP POP POP POP POP DUP2 MSTORE PUSH1 0x20 ADD PUSH1 0x4 DUP3 ADD DUP1 SLOAD PUSH2 0xC71 SWAP1 PUSH2 0x15EE JUMP JUMPDEST DUP1 PUSH1 0x1F ADD PUSH1 0x20 DUP1 SWAP2 DIV MUL PUSH1 0x20 ADD PUSH1 0x40 MLOAD SWAP1 DUP2 ADD PUSH1 0x40 MSTORE DUP1 SWAP3 SWAP2 SWAP1 DUP2 DUP2 MSTORE PUSH1 0x20 ADD DUP3 DUP1 SLOAD PUSH2 0xC9D SWAP1 PUSH2 0x15EE JUMP JUMPDEST DUP1 ISZERO PUSH2 0xCEA JUMPI DUP1 PUSH1 0x1F LT PUSH2 0xCBF JUMPI PUSH2 0x100 DUP1 DUP4 SLOAD DIV MUL DUP4 MSTORE SWAP2 PUSH1 0x20 ADD SWAP2 PUSH2 0xCEA JUMP JUMPDEST DUP3 ADD SWAP2 SWAP1 PUSH1 0x0 MSTORE PUSH1 0x20 PUSH1 0x0 KECCAK256 SWAP1 JUMPDEST DUP2 SLOAD DUP2 MSTORE SWAP1 PUSH1 0x1 ADD SWAP1 PUSH1 0x20 ADD DUP1 DUP4 GT PUSH2 0xCCD JUMPI DUP3 SWAP1 SUB PUSH1 0x1F AND DUP3 ADD SWAP2 JUMPDEST POP POP POP POP POP DUP2 MSTORE POP POP DUP2 MSTORE PUSH1 0x20 ADD SWAP1 PUSH1 0x1 ADD SWAP1 PUSH2 0xA7E JUMP JUMPDEST POP POP POP POP SWAP1 POP SWAP1 JUMP JUMPDEST PUSH1 0x5 SLOAD DUP2 JUMP JUMPDEST PUSH1 0x6 SLOAD DUP2 JUMP JUMPDEST PUSH1 0x4 PUSH1 0x0 SWAP1 SLOAD SWAP1 PUSH2 0x100 EXP SWAP1 DIV PUSH1 0xFF AND DUP2 JUMP JUMPDEST PUSH1 0x40 MLOAD DUP1 PUSH1 0xA0 ADD PUSH1 0x40 MSTORE DUP1 PUSH1 0x60 DUP2 MSTORE PUSH1 0x20 ADD PUSH1 0x60 DUP2 MSTORE PUSH1 0x20 ADD PUSH1 0x0 DUP2 MSTORE PUSH1 0x20 ADD PUSH1 0x60 DUP2 MSTORE PUSH1 0x20 ADD PUSH1 0x60 DUP2 MSTORE POP SWAP1 JUMP JUMPDEST DUP3 DUP1 SLOAD PUSH2 0xD65 SWAP1 PUSH2 0x15EE JUMP JUMPDEST SWAP1 PUSH1 0x0 MSTORE PUSH1 0x20 PUSH1 0x0 KECCAK256 SWAP1 PUSH1 0x1F ADD PUSH1 0x20 SWAP1 DIV DUP2 ADD SWAP3 DUP3 PUSH2 0xD87 JUMPI PUSH1 0x0 DUP6 SSTORE PUSH2 0xDCE JUMP JUMPDEST DUP3 PUSH1 0x1F LT PUSH2 0xDA0 JUMPI DUP1 MLOAD PUSH1 0xFF NOT AND DUP4 DUP1 ADD OR DUP6 SSTORE PUSH2 0xDCE JUMP JUMPDEST DUP3 DUP1 ADD PUSH1 0x1 ADD DUP6 SSTORE DUP3 ISZERO PUSH2 0xDCE JUMPI SWAP2 DUP3 ADD JUMPDEST DUP3 DUP2 GT ISZERO PUSH2 0xDCD JUMPI DUP3 MLOAD DUP3 SSTORE SWAP2 PUSH1 0x20 ADD SWAP2 SWAP1 PUSH1 0x1 ADD SWAP1 PUSH2 0xDB2 JUMP JUMPDEST JUMPDEST POP SWAP1 POP PUSH2 0xDDB SWAP2 SWAP1 PUSH2 0xDDF JUMP JUMPDEST POP SWAP1 JUMP JUMPDEST JUMPDEST DUP1 DUP3 GT ISZERO PUSH2 0xDF8 JUMPI PUSH1 0x0 DUP2 PUSH1 0x0 SWAP1 SSTORE POP PUSH1 0x1 ADD PUSH2 0xDE0 JUMP JUMPDEST POP SWAP1 JUMP JUMPDEST PUSH1 0x0 PUSH1 0x40 MLOAD SWAP1 POP SWAP1 JUMP JUMPDEST PUSH1 0x0 DUP1 REVERT JUMPDEST PUSH1 0x0 DUP1 REVERT JUMPDEST PUSH1 0x0 DUP2 SWAP1 POP SWAP2 SWAP1 POP JUMP JUMPDEST PUSH2 0xE23 DUP2 PUSH2 0xE10 JUMP JUMPDEST DUP2 EQ PUSH2 0xE2E JUMPI PUSH1 0x0 DUP1 REVERT JUMPDEST POP JUMP JUMPDEST PUSH1 0x0 DUP2 CALLDATALOAD SWAP1 POP PUSH2 0xE40 DUP2 PUSH2 0xE1A JUMP JUMPDEST SWAP3 SWAP2 POP POP JUMP JUMPDEST PUSH1 0x0 PUSH1 0x20 DUP3 DUP5 SUB SLT ISZERO PUSH2 0xE5C JUMPI PUSH2 0xE5B PUSH2 0xE06 JUMP JUMPDEST JUMPDEST PUSH1 0x0 PUSH2 0xE6A DUP5 DUP3 DUP6 ADD PUSH2 0xE31 JUMP JUMPDEST SWAP2 POP POP SWAP3 SWAP2 POP POP JUMP JUMPDEST PUSH1 0x0 DUP2 MLOAD SWAP1 POP SWAP2 SWAP1 POP JUMP JUMPDEST PUSH1 0x0 DUP3 DUP3 MSTORE PUSH1 0x20 DUP3 ADD SWAP1 POP SWAP3 SWAP2 POP POP JUMP JUMPDEST PUSH1 0x0 JUMPDEST DUP4 DUP2 LT ISZERO PUSH2 0xEAD JUMPI DUP1 DUP3 ADD MLOAD DUP2 DUP5 ADD MSTORE PUSH1 0x20 DUP2 ADD SWAP1 POP PUSH2 0xE92 JUMP JUMPDEST DUP4 DUP2 GT ISZERO PUSH2 0xEBC JUMPI PUSH1 0x0 DUP5 DUP5 ADD MSTORE JUMPDEST POP POP POP POP JUMP JUMPDEST PUSH1 0x0 PUSH1 0x1F NOT PUSH1 0x1F DUP4 ADD AND SWAP1 POP SWAP2 SWAP1 POP JUMP JUMPDEST PUSH1 0x0 PUSH2 0xEDE DUP3 PUSH2 0xE73 JUMP JUMPDEST PUSH2 0xEE8 DUP2 DUP6 PUSH2 0xE7E JUMP JUMPDEST SWAP4 POP PUSH2 0xEF8 DUP2 DUP6 PUSH1 0x20 DUP7 ADD PUSH2 0xE8F JUMP JUMPDEST PUSH2 0xF01 DUP2 PUSH2 0xEC2 JUMP JUMPDEST DUP5 ADD SWAP2 POP POP SWAP3 SWAP2 POP POP JUMP JUMPDEST PUSH2 0xF15 DUP2 PUSH2 0xE10 JUMP JUMPDEST DUP3 MSTORE POP POP JUMP JUMPDEST PUSH1 0x0 PUSH1 0xA0 DUP4 ADD PUSH1 0x0 DUP4 ADD MLOAD DUP5 DUP3 SUB PUSH1 0x0 DUP7 ADD MSTORE PUSH2 0xF38 DUP3 DUP3 PUSH2 0xED3 JUMP JUMPDEST SWAP2 POP POP PUSH1 0x20 DUP4 ADD MLOAD DUP5 DUP3 SUB PUSH1 0x20 DUP7 ADD MSTORE PUSH2 0xF52 DUP3 DUP3 PUSH2 0xED3 JUMP JUMPDEST SWAP2 POP POP PUSH1 0x40 DUP4 ADD MLOAD PUSH2 0xF67 PUSH1 0x40 DUP7 ADD DUP3 PUSH2 0xF0C JUMP JUMPDEST POP PUSH1 0x60 DUP4 ADD MLOAD DUP5 DUP3 SUB PUSH1 0x60 DUP7 ADD MSTORE PUSH2 0xF7F DUP3 DUP3 PUSH2 0xED3 JUMP JUMPDEST SWAP2 POP POP PUSH1 0x80 DUP4 ADD MLOAD DUP5 DUP3 SUB PUSH1 0x80 DUP7 ADD MSTORE PUSH2 0xF99 DUP3 DUP3 PUSH2 0xED3 JUMP JUMPDEST SWAP2 POP POP DUP1 SWAP2 POP POP SWAP3 SWAP2 POP POP JUMP JUMPDEST PUSH1 0x0 PUSH1 0x20 DUP3 ADD SWAP1 POP DUP2 DUP2 SUB PUSH1 0x0 DUP4 ADD MSTORE PUSH2 0xFC0 DUP2 DUP5 PUSH2 0xF1B JUMP JUMPDEST SWAP1 POP SWAP3 SWAP2 POP POP JUMP JUMPDEST PUSH1 0x0 DUP3 DUP3 MSTORE PUSH1 0x20 DUP3 ADD SWAP1 POP SWAP3 SWAP2 POP POP JUMP JUMPDEST PUSH1 0x0 PUSH2 0xFE4 DUP3 PUSH2 0xE73 JUMP JUMPDEST PUSH2 0xFEE DUP2 DUP6 PUSH2 0xFC8 JUMP JUMPDEST SWAP4 POP PUSH2 0xFFE DUP2 DUP6 PUSH1 0x20 DUP7 ADD PUSH2 0xE8F JUMP JUMPDEST PUSH2 0x1007 DUP2 PUSH2 0xEC2 JUMP JUMPDEST DUP5 ADD SWAP2 POP POP SWAP3 SWAP2 POP POP JUMP JUMPDEST PUSH1 0x0 PUSH1 0x20 DUP3 ADD SWAP1 POP DUP2 DUP2 SUB PUSH1 0x0 DUP4 ADD MSTORE PUSH2 0x102C DUP2 DUP5 PUSH2 0xFD9 JUMP JUMPDEST SWAP1 POP SWAP3 SWAP2 POP POP JUMP JUMPDEST PUSH1 0x0 DUP1 PUSH1 0x40 DUP4 DUP6 SUB SLT ISZERO PUSH2 0x104B JUMPI PUSH2 0x104A PUSH2 0xE06 JUMP JUMPDEST JUMPDEST PUSH1 0x0 PUSH2 0x1059 DUP6 DUP3 DUP7 ADD PUSH2 0xE31 JUMP JUMPDEST SWAP3 POP POP PUSH1 0x20 PUSH2 0x106A DUP6 DUP3 DUP7 ADD PUSH2 0xE31 JUMP JUMPDEST SWAP2 POP POP SWAP3 POP SWAP3 SWAP1 POP JUMP JUMPDEST PUSH2 0x107D DUP2 PUSH2 0xE10 JUMP JUMPDEST DUP3 MSTORE POP POP JUMP JUMPDEST PUSH1 0x0 PUSH1 0x20 DUP3 ADD SWAP1 POP PUSH2 0x1098 PUSH1 0x0 DUP4 ADD DUP5 PUSH2 0x1074 JUMP JUMPDEST SWAP3 SWAP2 POP POP JUMP JUMPDEST PUSH1 0x0 DUP2 MLOAD SWAP1 POP SWAP2 SWAP1 POP JUMP JUMPDEST PUSH1 0x0 DUP3 DUP3 MSTORE PUSH1 0x20 DUP3 ADD SWAP1 POP SWAP3 SWAP2 POP POP JUMP JUMPDEST PUSH1 0x0 DUP2 SWAP1 POP PUSH1 0x20 DUP3 ADD SWAP1 POP SWAP2 SWAP1 POP JUMP JUMPDEST PUSH1 0x0 PUSH2 0x10D6 DUP4 DUP4 PUSH2 0xF0C JUMP JUMPDEST PUSH1 0x20 DUP4 ADD SWAP1 POP SWAP3 SWAP2 POP POP JUMP JUMPDEST PUSH1 0x0 PUSH1 0x20 DUP3 ADD SWAP1 POP SWAP2 SWAP1 POP JUMP JUMPDEST PUSH1 0x0 PUSH2 0x10FA DUP3 PUSH2 0x109E JUMP JUMPDEST PUSH2 0x1104 DUP2 DUP6 PUSH2 0x10A9 JUMP JUMPDEST SWAP4 POP PUSH2 0x110F DUP4 PUSH2 0x10BA JUMP JUMPDEST DUP1 PUSH1 0x0 JUMPDEST DUP4 DUP2 LT ISZERO PUSH2 0x1140 JUMPI DUP2 MLOAD PUSH2 0x1127 DUP9 DUP3 PUSH2 0x10CA JUMP JUMPDEST SWAP8 POP PUSH2 0x1132 DUP4 PUSH2 0x10E2 JUMP JUMPDEST SWAP3 POP POP PUSH1 0x1 DUP2 ADD SWAP1 POP PUSH2 0x1113 JUMP JUMPDEST POP DUP6 SWAP4 POP POP POP POP SWAP3 SWAP2 POP POP JUMP JUMPDEST PUSH1 0x0 PUSH1 0x20 DUP3 ADD SWAP1 POP DUP2 DUP2 SUB PUSH1 0x0 DUP4 ADD MSTORE PUSH2 0x1167 DUP2 DUP5 PUSH2 0x10EF JUMP JUMPDEST SWAP1 POP SWAP3 SWAP2 POP POP JUMP JUMPDEST PUSH1 0x0 PUSH20 0xFFFFFFFFFFFFFFFFFFFFFFFFFFFFFFFFFFFFFFFF DUP3 AND SWAP1 POP SWAP2 SWAP1 POP JUMP JUMPDEST PUSH1 0x0 PUSH2 0x119A DUP3 PUSH2 0x116F JUMP JUMPDEST SWAP1 POP SWAP2 SWAP1 POP JUMP JUMPDEST PUSH2 0x11AA DUP2 PUSH2 0x118F JUMP JUMPDEST DUP3 MSTORE POP POP JUMP JUMPDEST PUSH1 0x0 PUSH1 0x20 DUP3 ADD SWAP1 POP PUSH2 0x11C5 PUSH1 0x0 DUP4 ADD DUP5 PUSH2 0x11A1 JUMP JUMPDEST SWAP3 SWAP2 POP POP JUMP JUMPDEST PUSH1 0x0 DUP2 ISZERO ISZERO SWAP1 POP SWAP2 SWAP1 POP JUMP JUMPDEST PUSH2 0x11E0 DUP2 PUSH2 0x11CB JUMP JUMPDEST DUP3 MSTORE POP POP JUMP JUMPDEST PUSH1 0x0 PUSH1 0x20 DUP3 ADD SWAP1 POP PUSH2 0x11FB PUSH1 0x0 DUP4 ADD DUP5 PUSH2 0x11D7 JUMP JUMPDEST SWAP3 SWAP2 POP POP JUMP JUMPDEST PUSH1 0x0 DUP1 REVERT JUMPDEST PUSH1 0x0 DUP1 REVERT JUMPDEST PUSH32 0x4E487B7100000000000000000000000000000000000000000000000000000000 PUSH1 0x0 MSTORE PUSH1 0x41 PUSH1 0x4 MSTORE PUSH1 0x24 PUSH1 0x0 REVERT JUMPDEST PUSH2 0x1243 DUP3 PUSH2 0xEC2 JUMP JUMPDEST DUP2 ADD DUP2 DUP2 LT PUSH8 0xFFFFFFFFFFFFFFFF DUP3 GT OR ISZERO PUSH2 0x1262 JUMPI PUSH2 0x1261 PUSH2 0x120B JUMP JUMPDEST JUMPDEST DUP1 PUSH1 0x40 MSTORE POP POP POP JUMP JUMPDEST PUSH1 0x0 PUSH2 0x1275 PUSH2 0xDFC JUMP JUMPDEST SWAP1 POP PUSH2 0x1281 DUP3 DUP3 PUSH2 0x123A JUMP JUMPDEST SWAP2 SWAP1 POP JUMP JUMPDEST PUSH1 0x0 PUSH8 0xFFFFFFFFFFFFFFFF DUP3 GT ISZERO PUSH2 0x12A1 JUMPI PUSH2 0x12A0 PUSH2 0x120B JUMP JUMPDEST JUMPDEST PUSH2 0x12AA DUP3 PUSH2 0xEC2 JUMP JUMPDEST SWAP1 POP PUSH1 0x20 DUP2 ADD SWAP1 POP SWAP2 SWAP1 POP JUMP JUMPDEST DUP3 DUP2 DUP4 CALLDATACOPY PUSH1 0x0 DUP4 DUP4 ADD MSTORE POP POP POP JUMP JUMPDEST PUSH1 0x0 PUSH2 0x12D9 PUSH2 0x12D4 DUP5 PUSH2 0x1286 JUMP JUMPDEST PUSH2 0x126B JUMP JUMPDEST SWAP1 POP DUP3 DUP2 MSTORE PUSH1 0x20 DUP2 ADD DUP5 DUP5 DUP5 ADD GT ISZERO PUSH2 0x12F5 JUMPI PUSH2 0x12F4 PUSH2 0x1206 JUMP JUMPDEST JUMPDEST PUSH2 0x1300 DUP5 DUP3 DUP6 PUSH2 0x12B7 JUMP JUMPDEST POP SWAP4 SWAP3 POP POP POP JUMP JUMPDEST PUSH1 0x0 DUP3 PUSH1 0x1F DUP4 ADD SLT PUSH2 0x131D JUMPI PUSH2 0x131C PUSH2 0x1201 JUMP JUMPDEST JUMPDEST DUP2 CALLDATALOAD PUSH2 0x132D DUP5 DUP3 PUSH1 0x20 DUP7 ADD PUSH2 0x12C6 JUMP JUMPDEST SWAP2 POP POP SWAP3 SWAP2 POP POP JUMP JUMPDEST PUSH1 0x0 DUP1 PUSH1 0x0 DUP1 PUSH1 0x0 PUSH1 0xA0 DUP7 DUP9 SUB SLT ISZERO PUSH2 0x1352 JUMPI PUSH2 0x1351 PUSH2 0xE06 JUMP JUMPDEST JUMPDEST PUSH1 0x0 DUP7 ADD CALLDATALOAD PUSH8 0xFFFFFFFFFFFFFFFF DUP2 GT ISZERO PUSH2 0x1370 JUMPI PUSH2 0x136F PUSH2 0xE0B JUMP JUMPDEST JUMPDEST PUSH2 0x137C DUP9 DUP3 DUP10 ADD PUSH2 0x1308 JUMP JUMPDEST SWAP6 POP POP PUSH1 0x20 DUP7 ADD CALLDATALOAD PUSH8 0xFFFFFFFFFFFFFFFF DUP2 GT ISZERO PUSH2 0x139D JUMPI PUSH2 0x139C PUSH2 0xE0B JUMP JUMPDEST JUMPDEST PUSH2 0x13A9 DUP9 DUP3 DUP10 ADD PUSH2 0x1308 JUMP JUMPDEST SWAP5 POP POP PUSH1 0x40 PUSH2 0x13BA DUP9 DUP3 DUP10 ADD PUSH2 0xE31 JUMP JUMPDEST SWAP4 POP POP PUSH1 0x60 DUP7 ADD CALLDATALOAD PUSH8 0xFFFFFFFFFFFFFFFF DUP2 GT ISZERO PUSH2 0x13DB JUMPI PUSH2 0x13DA PUSH2 0xE0B JUMP JUMPDEST JUMPDEST PUSH2 0x13E7 DUP9 DUP3 DUP10 ADD PUSH2 0x1308 JUMP JUMPDEST SWAP3 POP POP PUSH1 0x80 DUP7 ADD CALLDATALOAD PUSH8 0xFFFFFFFFFFFFFFFF DUP2 GT ISZERO PUSH2 0x1408 JUMPI PUSH2 0x1407 PUSH2 0xE0B JUMP JUMPDEST JUMPDEST PUSH2 0x1414 DUP9 DUP3 DUP10 ADD PUSH2 0x1308 JUMP JUMPDEST SWAP2 POP POP SWAP3 SWAP6 POP SWAP3 SWAP6 SWAP1 SWAP4 POP JUMP JUMPDEST PUSH1 0x0 DUP2 MLOAD SWAP1 POP SWAP2 SWAP1 POP JUMP JUMPDEST PUSH1 0x0 DUP3 DUP3 MSTORE PUSH1 0x20 DUP3 ADD SWAP1 POP SWAP3 SWAP2 POP POP JUMP JUMPDEST PUSH1 0x0 DUP2 SWAP1 POP PUSH1 0x20 DUP3 ADD SWAP1 POP SWAP2 SWAP1 POP JUMP JUMPDEST PUSH1 0x0 PUSH1 0xA0 DUP4 ADD PUSH1 0x0 DUP4 ADD MLOAD DUP5 DUP3 SUB PUSH1 0x0 DUP7 ADD MSTORE PUSH2 0x146A DUP3 DUP3 PUSH2 0xED3 JUMP JUMPDEST SWAP2 POP POP PUSH1 0x20 DUP4 ADD MLOAD DUP5 DUP3 SUB PUSH1 0x20 DUP7 ADD MSTORE PUSH2 0x1484 DUP3 DUP3 PUSH2 0xED3 JUMP JUMPDEST SWAP2 POP POP PUSH1 0x40 DUP4 ADD MLOAD PUSH2 0x1499 PUSH1 0x40 DUP7 ADD DUP3 PUSH2 0xF0C JUMP JUMPDEST POP PUSH1 0x60 DUP4 ADD MLOAD DUP5 DUP3 SUB PUSH1 0x60 DUP7 ADD MSTORE PUSH2 0x14B1 DUP3 DUP3 PUSH2 0xED3 JUMP JUMPDEST SWAP2 POP POP PUSH1 0x80 DUP4 ADD MLOAD DUP5 DUP3 SUB PUSH1 0x80 DUP7 ADD MSTORE PUSH2 0x14CB DUP3 DUP3 PUSH2 0xED3 JUMP JUMPDEST SWAP2 POP POP DUP1 SWAP2 POP POP SWAP3 SWAP2 POP POP JUMP JUMPDEST PUSH1 0x0 PUSH2 0x14E4 DUP4 DUP4 PUSH2 0x144D JUMP JUMPDEST SWAP1 POP SWAP3 SWAP2 POP POP JUMP JUMPDEST PUSH1 0x0 PUSH1 0x20 DUP3 ADD SWAP1 POP SWAP2 SWAP1 POP JUMP JUMPDEST PUSH1 0x0 PUSH2 0x1504 DUP3 PUSH2 0x1421 JUMP JUMPDEST PUSH2 0x150E DUP2 DUP6 PUSH2 0x142C JUMP JUMPDEST SWAP4 POP DUP4 PUSH1 0x20 DUP3 MUL DUP6 ADD PUSH2 0x1520 DUP6 PUSH2 0x143D JUMP JUMPDEST DUP1 PUSH1 0x0 JUMPDEST DUP6 DUP2 LT ISZERO PUSH2 0x155C JUMPI DUP5 DUP5 SUB DUP10 MSTORE DUP2 MLOAD PUSH2 0x153D DUP6 DUP3 PUSH2 0x14D8 JUMP JUMPDEST SWAP5 POP PUSH2 0x1548 DUP4 PUSH2 0x14EC JUMP JUMPDEST SWAP3 POP PUSH1 0x20 DUP11 ADD SWAP10 POP POP PUSH1 0x1 DUP2 ADD SWAP1 POP PUSH2 0x1524 JUMP JUMPDEST POP DUP3 SWAP8 POP DUP8 SWAP6 POP POP POP POP POP POP SWAP3 SWAP2 POP POP JUMP JUMPDEST PUSH1 0x0 PUSH1 0x20 DUP3 ADD SWAP1 POP DUP2 DUP2 SUB PUSH1 0x0 DUP4 ADD MSTORE PUSH2 0x1588 DUP2 DUP5 PUSH2 0x14F9 JUMP JUMPDEST SWAP1 POP SWAP3 SWAP2 POP POP JUMP JUMPDEST PUSH32 0x4E487B7100000000000000000000000000000000000000000000000000000000 PUSH1 0x0 MSTORE PUSH1 0x32 PUSH1 0x4 MSTORE PUSH1 0x24 PUSH1 0x0 REVERT JUMPDEST PUSH32 0x4E487B7100000000000000000000000000000000000000000000000000000000 PUSH1 0x0 MSTORE PUSH1 0x22 PUSH1 0x4 MSTORE PUSH1 0x24 PUSH1 0x0 REVERT JUMPDEST PUSH1 0x0 PUSH1 0x2 DUP3 DIV SWAP1 POP PUSH1 0x1 DUP3 AND DUP1 PUSH2 0x1606 JUMPI PUSH1 0x7F DUP3 AND SWAP2 POP JUMPDEST PUSH1 0x20 DUP3 LT DUP2 EQ ISZERO PUSH2 0x161A JUMPI PUSH2 0x1619 PUSH2 0x15BF JUMP JUMPDEST JUMPDEST POP SWAP2 SWAP1 POP JUMP JUMPDEST PUSH32 0x4E487B7100000000000000000000000000000000000000000000000000000000 PUSH1 0x0 MSTORE PUSH1 0x11 PUSH1 0x4 MSTORE PUSH1 0x24 PUSH1 0x0 REVERT JUMPDEST PUSH1 0x0 PUSH2 0x165A DUP3 PUSH2 0xE10 JUMP JUMPDEST SWAP2 POP PUSH32 0xFFFFFFFFFFFFFFFFFFFFFFFFFFFFFFFFFFFFFFFFFFFFFFFFFFFFFFFFFFFFFFFF DUP3 EQ ISZERO PUSH2 0x168D JUMPI PUSH2 0x168C PUSH2 0x1620 JUMP JUMPDEST JUMPDEST PUSH1 0x1 DUP3 ADD SWAP1 POP SWAP2 SWAP1 POP JUMP INVALID LOG2 PUSH5 0x6970667358 0x22 SLT KECCAK256 DIV SWAP15 JUMPI SHR EXTCODESIZE SWAP6 0xB7 0xA6 0xC7 PUSH20 0x8046F7C9A3990193DD09FDD044FB340D85034A1E CODECOPY CODECOPY PUSH5 0x736F6C6343 STOP ADDMOD EXP STOP CALLER LOG2 PUSH5 0x6970667358 0x22 SLT KECCAK256 LT 0xB8 PUSH23 0x8624EA0C581151AC4792C44052862DD6F57DEBE1329BBD PUSH21 0x65FF4CFE5764736F6C634300080A00330000000000 "},"gasEstimates":{"creation":{"codeDepositCost":"1931600","executionCost":"2041","totalCost":"1933641"},"external":{"createElection(string,string,uint256)":"infinite","getElections()":"infinite"}},"methodIdentifiers":{"createElection(string,string,uint256)":"911cbef9","getElections()":"9f3a7f52"}},"storageLayout":{"storage":[{"astId":13,"contract":"Election.sol:ElectionFactory","label":"list","offset":0,"slot":"0","type":"t_array(t_struct(ElectionMeta)9_storage)dyn_storage"}],"types":{"t_address":{"encoding":"inplace","label":"address","numberOfBytes":"20"},"t_array(t_struct(ElectionMeta)9_storage)dyn_storage":{"base":"t_struct(ElectionMeta)9_storage","encoding":"dynamic_array","label":"struct ElectionFactory.ElectionMeta[]","numberOfBytes":"32"},"t_string_storage":{"encoding":"bytes","label":"string","numberOfBytes":"32"},"t_struct(ElectionMeta)9_storage":{"encoding":"inplace","label":"struct ElectionFactory.ElectionMeta","members":[{"astId":4,"contract":"Election.sol:ElectionFactory","label":"add","offset":0,"slot":"0","type":"t_address"},{"astId":6,"contract":"Election.sol:ElectionFactory","label":"name","offset":0,"slot":"1","type":"t_string_storage"},{"astId":8,"contract":"Election.sol:ElectionFactory","label":"manager","offset":0,"slot":"2","type":"t_string_storage"}],"numberOfBytes":"96"}}},"userdoc":{"kind":"user","methods":{},"version":1}}