{"abi":[{"inputs":[{"internalType":"string","name":"name","type":"string"},{"internalType":"string","name":"manager","type":"string"}],"name":"createElection","outputs":[],"stateMutability":"nonpayable","type":"function"},{"inputs":[],"name":"getElections","outputs":[{"components":[{"internalType":"address","name":"add","type":"address"},{"internalType":"string","name":"name","type":"string"},{"internalType":"string","name":"manager","type":"string"}],"internalType":"struct ElectionFactory.ElectionMeta[]","name":"","type":"tuple[]"}],"stateMutability":"view","type":"function"}],"devdoc":{"kind":"dev","methods":{},"version":1},"evm":{"assembly":"    /* \"Election.sol\":48:681  contract ElectionFactory{... */\n  mstore(0x40, 0x80)\n  callvalue\n  dup1\n  iszero\n  tag_1\n  jumpi\n  0x00\n  dup1\n  revert\ntag_1:\n  pop\n  dataSize(sub_0)\n  dup1\n  dataOffset(sub_0)\n  0x00\n  codecopy\n  0x00\n  return\nstop\n\nsub_0: assembly {\n        /* \"Election.sol\":48:681  contract ElectionFactory{... */\n      mstore(0x40, 0x80)\n      callvalue\n      dup1\n      iszero\n      tag_1\n      jumpi\n      0x00\n      dup1\n      revert\n    tag_1:\n      pop\n      jumpi(tag_2, lt(calldatasize, 0x04))\n      shr(0xe0, calldataload(0x00))\n      dup1\n      0x9f3a7f52\n      eq\n      tag_3\n      jumpi\n      dup1\n      0xbd27eca0\n      eq\n      tag_4\n      jumpi\n    tag_2:\n      0x00\n      dup1\n      revert\n        /* \"Election.sol\":569:666  function getElections() public view returns(ElectionMeta[] memory) {... */\n    tag_3:\n      tag_5\n      tag_6\n      jump\t// in\n    tag_5:\n      mload(0x40)\n      tag_7\n      swap2\n      swap1\n      tag_8\n      jump\t// in\n    tag_7:\n      mload(0x40)\n      dup1\n      swap2\n      sub\n      swap1\n      return\n        /* \"Election.sol\":225:557  function createElection(string memory name, string memory manager) public{... */\n    tag_4:\n      tag_9\n      0x04\n      dup1\n      calldatasize\n      sub\n      dup2\n      add\n      swap1\n      tag_10\n      swap2\n      swap1\n      tag_11\n      jump\t// in\n    tag_10:\n      tag_12\n      jump\t// in\n    tag_9:\n      stop\n        /* \"Election.sol\":569:666  function getElections() public view returns(ElectionMeta[] memory) {... */\n    tag_6:\n        /* \"Election.sol\":613:634  ElectionMeta[] memory */\n      0x60\n        /* \"Election.sol\":654:658  list */\n      0x00\n        /* \"Election.sol\":647:658  return list */\n      dup1\n      sload\n      dup1\n      0x20\n      mul\n      0x20\n      add\n      mload(0x40)\n      swap1\n      dup2\n      add\n      0x40\n      mstore\n      dup1\n      swap3\n      swap2\n      swap1\n      dup2\n      dup2\n      mstore\n      0x20\n      add\n      0x00\n      swap1\n    tag_14:\n      dup3\n      dup3\n      lt\n      iszero\n      tag_15\n      jumpi\n      dup4\n      dup3\n      swap1\n      0x00\n      mstore\n      keccak256(0x00, 0x20)\n      swap1\n      0x03\n      mul\n      add\n      mload(0x40)\n      dup1\n      0x60\n      add\n      0x40\n      mstore\n      swap1\n      dup2\n      0x00\n      dup3\n      add\n      0x00\n      swap1\n      sload\n      swap1\n      0x0100\n      exp\n      swap1\n      div\n      0xffffffffffffffffffffffffffffffffffffffff\n      and\n      0xffffffffffffffffffffffffffffffffffffffff\n      and\n      0xffffffffffffffffffffffffffffffffffffffff\n      and\n      dup2\n      mstore\n      0x20\n      add\n      0x01\n      dup3\n      add\n      dup1\n      sload\n      tag_17\n      swap1\n      tag_18\n      jump\t// in\n    tag_17:\n      dup1\n      0x1f\n      add\n      0x20\n      dup1\n      swap2\n      div\n      mul\n      0x20\n      add\n      mload(0x40)\n      swap1\n      dup2\n      add\n      0x40\n      mstore\n      dup1\n      swap3\n      swap2\n      swap1\n      dup2\n      dup2\n      mstore\n      0x20\n      add\n      dup3\n      dup1\n      sload\n      tag_19\n      swap1\n      tag_18\n      jump\t// in\n    tag_19:\n      dup1\n      iszero\n      tag_20\n      jumpi\n      dup1\n      0x1f\n      lt\n      tag_21\n      jumpi\n      0x0100\n      dup1\n      dup4\n      sload\n      div\n      mul\n      dup4\n      mstore\n      swap2\n      0x20\n      add\n      swap2\n      jump(tag_20)\n    tag_21:\n      dup3\n      add\n      swap2\n      swap1\n      0x00\n      mstore\n      keccak256(0x00, 0x20)\n      swap1\n    tag_22:\n      dup2\n      sload\n      dup2\n      mstore\n      swap1\n      0x01\n      add\n      swap1\n      0x20\n      add\n      dup1\n      dup4\n      gt\n      tag_22\n      jumpi\n      dup3\n      swap1\n      sub\n      0x1f\n      and\n      dup3\n      add\n      swap2\n    tag_20:\n      pop\n      pop\n      pop\n      pop\n      pop\n      dup2\n      mstore\n      0x20\n      add\n      0x02\n      dup3\n      add\n      dup1\n      sload\n      tag_23\n      swap1\n      tag_18\n      jump\t// in\n    tag_23:\n      dup1\n      0x1f\n      add\n      0x20\n      dup1\n      swap2\n      div\n      mul\n      0x20\n      add\n      mload(0x40)\n      swap1\n      dup2\n      add\n      0x40\n      mstore\n      dup1\n      swap3\n      swap2\n      swap1\n      dup2\n      dup2\n      mstore\n      0x20\n      add\n      dup3\n      dup1\n      sload\n      tag_24\n      swap1\n      tag_18\n      jump\t// in\n    tag_24:\n      dup1\n      iszero\n      tag_25\n      jumpi\n      dup1\n      0x1f\n      lt\n      tag_26\n      jumpi\n      0x0100\n      dup1\n      dup4\n      sload\n      div\n      mul\n      dup4\n      mstore\n      swap2\n      0x20\n      add\n      swap2\n      jump(tag_25)\n    tag_26:\n      dup3\n      add\n      swap2\n      swap1\n      0x00\n      mstore\n      keccak256(0x00, 0x20)\n      swap1\n    tag_27:\n      dup2\n      sload\n      dup2\n      mstore\n      swap1\n      0x01\n      add\n      swap1\n      0x20\n      add\n      dup1\n      dup4\n      gt\n      tag_27\n      jumpi\n      dup3\n      swap1\n      sub\n      0x1f\n      and\n      dup3\n      add\n      swap2\n    tag_25:\n      pop\n      pop\n      pop\n      pop\n      pop\n      dup2\n      mstore\n      pop\n      pop\n      dup2\n      mstore\n      0x20\n      add\n      swap1\n      0x01\n      add\n      swap1\n      jump(tag_14)\n    tag_15:\n      pop\n      pop\n      pop\n      pop\n      swap1\n      pop\n        /* \"Election.sol\":569:666  function getElections() public view returns(ElectionMeta[] memory) {... */\n      swap1\n      jump\t// out\n        /* \"Election.sol\":225:557  function createElection(string memory name, string memory manager) public{... */\n    tag_12:\n        /* \"Election.sol\":309:326  Election election */\n      0x00\n        /* \"Election.sol\":342:352  msg.sender */\n      caller\n        /* \"Election.sol\":354:358  name */\n      dup4\n        /* \"Election.sol\":329:359  new Election(msg.sender, name) */\n      mload(0x40)\n      tag_29\n      swap1\n      tag_30\n      jump\t// in\n    tag_29:\n      tag_31\n      swap3\n      swap2\n      swap1\n      tag_32\n      jump\t// in\n    tag_31:\n      mload(0x40)\n      dup1\n      swap2\n      sub\n      swap1\n      0x00\n      create\n      dup1\n      iszero\n      dup1\n      iszero\n      tag_33\n      jumpi\n      returndatasize\n      0x00\n      dup1\n      returndatacopy\n      revert(0x00, returndatasize)\n    tag_33:\n      pop\n        /* \"Election.sol\":309:359  Election election = new Election(msg.sender, name) */\n      swap1\n      pop\n        /* \"Election.sol\":380:403  ElectionMeta memory obj */\n      0x00\n        /* \"Election.sol\":406:524  ElectionMeta({... */\n      mload(0x40)\n      dup1\n      0x60\n      add\n      0x40\n      mstore\n      dup1\n        /* \"Election.sol\":447:455  election */\n      dup4\n        /* \"Election.sol\":406:524  ElectionMeta({... */\n      0xffffffffffffffffffffffffffffffffffffffff\n      and\n      dup2\n      mstore\n      0x20\n      add\n        /* \"Election.sol\":477:481  name */\n      dup6\n        /* \"Election.sol\":406:524  ElectionMeta({... */\n      dup2\n      mstore\n      0x20\n      add\n        /* \"Election.sol\":505:512  manager */\n      dup5\n        /* \"Election.sol\":406:524  ElectionMeta({... */\n      dup2\n      mstore\n      pop\n        /* \"Election.sol\":380:524  ElectionMeta memory obj = ElectionMeta({... */\n      swap1\n      pop\n        /* \"Election.sol\":535:539  list */\n      0x00\n        /* \"Election.sol\":545:548  obj */\n      dup2\n        /* \"Election.sol\":535:549  list.push(obj) */\n      swap1\n      dup1\n      0x01\n      dup2\n      sload\n      add\n      dup1\n      dup3\n      sstore\n      dup1\n      swap2\n      pop\n      pop\n      0x01\n      swap1\n      sub\n      swap1\n      0x00\n      mstore\n      keccak256(0x00, 0x20)\n      swap1\n      0x03\n      mul\n      add\n      0x00\n      swap1\n      swap2\n      swap1\n      swap2\n      swap1\n      swap2\n      pop\n      0x00\n      dup3\n      add\n      mload\n      dup2\n      0x00\n      add\n      exp(0x0100, 0x00)\n      dup2\n      sload\n      dup2\n      0xffffffffffffffffffffffffffffffffffffffff\n      mul\n      not\n      and\n      swap1\n      dup4\n      0xffffffffffffffffffffffffffffffffffffffff\n      and\n      mul\n      or\n      swap1\n      sstore\n      pop\n      0x20\n      dup3\n      add\n      mload\n      dup2\n      0x01\n      add\n      swap1\n      dup1\n      mload\n      swap1\n      0x20\n      add\n      swap1\n      tag_35\n      swap3\n      swap2\n      swap1\n      tag_36\n      jump\t// in\n    tag_35:\n      pop\n      0x40\n      dup3\n      add\n      mload\n      dup2\n      0x02\n      add\n      swap1\n      dup1\n      mload\n      swap1\n      0x20\n      add\n      swap1\n      tag_37\n      swap3\n      swap2\n      swap1\n      tag_36\n      jump\t// in\n    tag_37:\n      pop\n      pop\n      pop\n        /* \"Election.sol\":298:557  {... */\n      pop\n      pop\n        /* \"Election.sol\":225:557  function createElection(string memory name, string memory manager) public{... */\n      pop\n      pop\n      jump\t// out\n    tag_30:\n      dataSize(sub_0)\n      dup1\n      dataOffset(sub_0)\n      dup4\n      codecopy\n      add\n      swap1\n      jump\t// out\n    tag_36:\n      dup3\n      dup1\n      sload\n      tag_38\n      swap1\n      tag_18\n      jump\t// in\n    tag_38:\n      swap1\n      0x00\n      mstore\n      keccak256(0x00, 0x20)\n      swap1\n      0x1f\n      add\n      0x20\n      swap1\n      div\n      dup2\n      add\n      swap3\n      dup3\n      tag_40\n      jumpi\n      0x00\n      dup6\n      sstore\n      jump(tag_39)\n    tag_40:\n      dup3\n      0x1f\n      lt\n      tag_41\n      jumpi\n      dup1\n      mload\n      not(0xff)\n      and\n      dup4\n      dup1\n      add\n      or\n      dup6\n      sstore\n      jump(tag_39)\n    tag_41:\n      dup3\n      dup1\n      add\n      0x01\n      add\n      dup6\n      sstore\n      dup3\n      iszero\n      tag_39\n      jumpi\n      swap2\n      dup3\n      add\n    tag_42:\n      dup3\n      dup2\n      gt\n      iszero\n      tag_43\n      jumpi\n      dup3\n      mload\n      dup3\n      sstore\n      swap2\n      0x20\n      add\n      swap2\n      swap1\n      0x01\n      add\n      swap1\n      jump(tag_42)\n    tag_43:\n    tag_39:\n      pop\n      swap1\n      pop\n      tag_44\n      swap2\n      swap1\n      tag_45\n      jump\t// in\n    tag_44:\n      pop\n      swap1\n      jump\t// out\n    tag_45:\n    tag_46:\n      dup1\n      dup3\n      gt\n      iszero\n      tag_47\n      jumpi\n      0x00\n      dup2\n      0x00\n      swap1\n      sstore\n      pop\n      0x01\n      add\n      jump(tag_46)\n    tag_47:\n      pop\n      swap1\n      jump\t// out\n        /* \"#utility.yul\":7:148   */\n    tag_48:\n        /* \"#utility.yul\":101:107   */\n      0x00\n        /* \"#utility.yul\":135:140   */\n      dup2\n        /* \"#utility.yul\":129:141   */\n      mload\n        /* \"#utility.yul\":119:141   */\n      swap1\n      pop\n        /* \"#utility.yul\":7:148   */\n      swap2\n      swap1\n      pop\n      jump\t// out\n        /* \"#utility.yul\":154:365   */\n    tag_49:\n        /* \"#utility.yul\":280:291   */\n      0x00\n        /* \"#utility.yul\":314:320   */\n      dup3\n        /* \"#utility.yul\":309:312   */\n      dup3\n        /* \"#utility.yul\":302:321   */\n      mstore\n        /* \"#utility.yul\":354:358   */\n      0x20\n        /* \"#utility.yul\":349:352   */\n      dup3\n        /* \"#utility.yul\":345:359   */\n      add\n        /* \"#utility.yul\":330:359   */\n      swap1\n      pop\n        /* \"#utility.yul\":154:365   */\n      swap3\n      swap2\n      pop\n      pop\n      jump\t// out\n        /* \"#utility.yul\":371:530   */\n    tag_50:\n        /* \"#utility.yul\":465:469   */\n      0x00\n        /* \"#utility.yul\":488:491   */\n      dup2\n        /* \"#utility.yul\":480:491   */\n      swap1\n      pop\n        /* \"#utility.yul\":518:522   */\n      0x20\n        /* \"#utility.yul\":513:516   */\n      dup3\n        /* \"#utility.yul\":509:523   */\n      add\n        /* \"#utility.yul\":501:523   */\n      swap1\n      pop\n        /* \"#utility.yul\":371:530   */\n      swap2\n      swap1\n      pop\n      jump\t// out\n        /* \"#utility.yul\":536:662   */\n    tag_51:\n        /* \"#utility.yul\":573:580   */\n      0x00\n        /* \"#utility.yul\":613:655   */\n      0xffffffffffffffffffffffffffffffffffffffff\n        /* \"#utility.yul\":606:611   */\n      dup3\n        /* \"#utility.yul\":602:656   */\n      and\n        /* \"#utility.yul\":591:656   */\n      swap1\n      pop\n        /* \"#utility.yul\":536:662   */\n      swap2\n      swap1\n      pop\n      jump\t// out\n        /* \"#utility.yul\":668:764   */\n    tag_52:\n        /* \"#utility.yul\":705:712   */\n      0x00\n        /* \"#utility.yul\":734:758   */\n      tag_85\n        /* \"#utility.yul\":752:757   */\n      dup3\n        /* \"#utility.yul\":734:758   */\n      tag_51\n      jump\t// in\n    tag_85:\n        /* \"#utility.yul\":723:758   */\n      swap1\n      pop\n        /* \"#utility.yul\":668:764   */\n      swap2\n      swap1\n      pop\n      jump\t// out\n        /* \"#utility.yul\":770:878   */\n    tag_53:\n        /* \"#utility.yul\":847:871   */\n      tag_87\n        /* \"#utility.yul\":865:870   */\n      dup2\n        /* \"#utility.yul\":847:871   */\n      tag_52\n      jump\t// in\n    tag_87:\n        /* \"#utility.yul\":842:845   */\n      dup3\n        /* \"#utility.yul\":835:872   */\n      mstore\n        /* \"#utility.yul\":770:878   */\n      pop\n      pop\n      jump\t// out\n        /* \"#utility.yul\":884:983   */\n    tag_54:\n        /* \"#utility.yul\":936:942   */\n      0x00\n        /* \"#utility.yul\":970:975   */\n      dup2\n        /* \"#utility.yul\":964:976   */\n      mload\n        /* \"#utility.yul\":954:976   */\n      swap1\n      pop\n        /* \"#utility.yul\":884:983   */\n      swap2\n      swap1\n      pop\n      jump\t// out\n        /* \"#utility.yul\":989:1148   */\n    tag_55:\n        /* \"#utility.yul\":1063:1074   */\n      0x00\n        /* \"#utility.yul\":1097:1103   */\n      dup3\n        /* \"#utility.yul\":1092:1095   */\n      dup3\n        /* \"#utility.yul\":1085:1104   */\n      mstore\n        /* \"#utility.yul\":1137:1141   */\n      0x20\n        /* \"#utility.yul\":1132:1135   */\n      dup3\n        /* \"#utility.yul\":1128:1142   */\n      add\n        /* \"#utility.yul\":1113:1142   */\n      swap1\n      pop\n        /* \"#utility.yul\":989:1148   */\n      swap3\n      swap2\n      pop\n      pop\n      jump\t// out\n        /* \"#utility.yul\":1154:1461   */\n    tag_56:\n        /* \"#utility.yul\":1222:1223   */\n      0x00\n        /* \"#utility.yul\":1232:1345   */\n    tag_91:\n        /* \"#utility.yul\":1246:1252   */\n      dup4\n        /* \"#utility.yul\":1243:1244   */\n      dup2\n        /* \"#utility.yul\":1240:1253   */\n      lt\n        /* \"#utility.yul\":1232:1345   */\n      iszero\n      tag_93\n      jumpi\n        /* \"#utility.yul\":1331:1332   */\n      dup1\n        /* \"#utility.yul\":1326:1329   */\n      dup3\n        /* \"#utility.yul\":1322:1333   */\n      add\n        /* \"#utility.yul\":1316:1334   */\n      mload\n        /* \"#utility.yul\":1312:1313   */\n      dup2\n        /* \"#utility.yul\":1307:1310   */\n      dup5\n        /* \"#utility.yul\":1303:1314   */\n      add\n        /* \"#utility.yul\":1296:1335   */\n      mstore\n        /* \"#utility.yul\":1268:1270   */\n      0x20\n        /* \"#utility.yul\":1265:1266   */\n      dup2\n        /* \"#utility.yul\":1261:1271   */\n      add\n        /* \"#utility.yul\":1256:1271   */\n      swap1\n      pop\n        /* \"#utility.yul\":1232:1345   */\n      jump(tag_91)\n    tag_93:\n        /* \"#utility.yul\":1363:1369   */\n      dup4\n        /* \"#utility.yul\":1360:1361   */\n      dup2\n        /* \"#utility.yul\":1357:1370   */\n      gt\n        /* \"#utility.yul\":1354:1455   */\n      iszero\n      tag_94\n      jumpi\n        /* \"#utility.yul\":1443:1444   */\n      0x00\n        /* \"#utility.yul\":1434:1440   */\n      dup5\n        /* \"#utility.yul\":1429:1432   */\n      dup5\n        /* \"#utility.yul\":1425:1441   */\n      add\n        /* \"#utility.yul\":1418:1445   */\n      mstore\n        /* \"#utility.yul\":1354:1455   */\n    tag_94:\n        /* \"#utility.yul\":1203:1461   */\n      pop\n        /* \"#utility.yul\":1154:1461   */\n      pop\n      pop\n      pop\n      jump\t// out\n        /* \"#utility.yul\":1467:1569   */\n    tag_57:\n        /* \"#utility.yul\":1508:1514   */\n      0x00\n        /* \"#utility.yul\":1559:1561   */\n      0x1f\n        /* \"#utility.yul\":1555:1562   */\n      not\n        /* \"#utility.yul\":1550:1552   */\n      0x1f\n        /* \"#utility.yul\":1543:1548   */\n      dup4\n        /* \"#utility.yul\":1539:1553   */\n      add\n        /* \"#utility.yul\":1535:1563   */\n      and\n        /* \"#utility.yul\":1525:1563   */\n      swap1\n      pop\n        /* \"#utility.yul\":1467:1569   */\n      swap2\n      swap1\n      pop\n      jump\t// out\n        /* \"#utility.yul\":1575:1919   */\n    tag_58:\n        /* \"#utility.yul\":1653:1656   */\n      0x00\n        /* \"#utility.yul\":1681:1720   */\n      tag_97\n        /* \"#utility.yul\":1714:1719   */\n      dup3\n        /* \"#utility.yul\":1681:1720   */\n      tag_54\n      jump\t// in\n    tag_97:\n        /* \"#utility.yul\":1736:1797   */\n      tag_98\n        /* \"#utility.yul\":1790:1796   */\n      dup2\n        /* \"#utility.yul\":1785:1788   */\n      dup6\n        /* \"#utility.yul\":1736:1797   */\n      tag_55\n      jump\t// in\n    tag_98:\n        /* \"#utility.yul\":1729:1797   */\n      swap4\n      pop\n        /* \"#utility.yul\":1806:1858   */\n      tag_99\n        /* \"#utility.yul\":1851:1857   */\n      dup2\n        /* \"#utility.yul\":1846:1849   */\n      dup6\n        /* \"#utility.yul\":1839:1843   */\n      0x20\n        /* \"#utility.yul\":1832:1837   */\n      dup7\n        /* \"#utility.yul\":1828:1844   */\n      add\n        /* \"#utility.yul\":1806:1858   */\n      tag_56\n      jump\t// in\n    tag_99:\n        /* \"#utility.yul\":1883:1912   */\n      tag_100\n        /* \"#utility.yul\":1905:1911   */\n      dup2\n        /* \"#utility.yul\":1883:1912   */\n      tag_57\n      jump\t// in\n    tag_100:\n        /* \"#utility.yul\":1878:1881   */\n      dup5\n        /* \"#utility.yul\":1874:1913   */\n      add\n        /* \"#utility.yul\":1867:1913   */\n      swap2\n      pop\n        /* \"#utility.yul\":1657:1919   */\n      pop\n        /* \"#utility.yul\":1575:1919   */\n      swap3\n      swap2\n      pop\n      pop\n      jump\t// out\n        /* \"#utility.yul\":2007:2854   */\n    tag_59:\n        /* \"#utility.yul\":2120:2123   */\n      0x00\n        /* \"#utility.yul\":2156:2160   */\n      0x60\n        /* \"#utility.yul\":2151:2154   */\n      dup4\n        /* \"#utility.yul\":2147:2161   */\n      add\n        /* \"#utility.yul\":2242:2246   */\n      0x00\n        /* \"#utility.yul\":2235:2240   */\n      dup4\n        /* \"#utility.yul\":2231:2247   */\n      add\n        /* \"#utility.yul\":2225:2248   */\n      mload\n        /* \"#utility.yul\":2261:2324   */\n      tag_102\n        /* \"#utility.yul\":2318:2322   */\n      0x00\n        /* \"#utility.yul\":2313:2316   */\n      dup7\n        /* \"#utility.yul\":2309:2323   */\n      add\n        /* \"#utility.yul\":2295:2307   */\n      dup3\n        /* \"#utility.yul\":2261:2324   */\n      tag_53\n      jump\t// in\n    tag_102:\n        /* \"#utility.yul\":2171:2334   */\n      pop\n        /* \"#utility.yul\":2416:2420   */\n      0x20\n        /* \"#utility.yul\":2409:2414   */\n      dup4\n        /* \"#utility.yul\":2405:2421   */\n      add\n        /* \"#utility.yul\":2399:2422   */\n      mload\n        /* \"#utility.yul\":2469:2472   */\n      dup5\n        /* \"#utility.yul\":2463:2467   */\n      dup3\n        /* \"#utility.yul\":2459:2473   */\n      sub\n        /* \"#utility.yul\":2452:2456   */\n      0x20\n        /* \"#utility.yul\":2447:2450   */\n      dup7\n        /* \"#utility.yul\":2443:2457   */\n      add\n        /* \"#utility.yul\":2436:2474   */\n      mstore\n        /* \"#utility.yul\":2495:2568   */\n      tag_103\n        /* \"#utility.yul\":2563:2567   */\n      dup3\n        /* \"#utility.yul\":2549:2561   */\n      dup3\n        /* \"#utility.yul\":2495:2568   */\n      tag_58\n      jump\t// in\n    tag_103:\n        /* \"#utility.yul\":2487:2568   */\n      swap2\n      pop\n        /* \"#utility.yul\":2344:2579   */\n      pop\n        /* \"#utility.yul\":2664:2668   */\n      0x40\n        /* \"#utility.yul\":2657:2662   */\n      dup4\n        /* \"#utility.yul\":2653:2669   */\n      add\n        /* \"#utility.yul\":2647:2670   */\n      mload\n        /* \"#utility.yul\":2717:2720   */\n      dup5\n        /* \"#utility.yul\":2711:2715   */\n      dup3\n        /* \"#utility.yul\":2707:2721   */\n      sub\n        /* \"#utility.yul\":2700:2704   */\n      0x40\n        /* \"#utility.yul\":2695:2698   */\n      dup7\n        /* \"#utility.yul\":2691:2705   */\n      add\n        /* \"#utility.yul\":2684:2722   */\n      mstore\n        /* \"#utility.yul\":2743:2816   */\n      tag_104\n        /* \"#utility.yul\":2811:2815   */\n      dup3\n        /* \"#utility.yul\":2797:2809   */\n      dup3\n        /* \"#utility.yul\":2743:2816   */\n      tag_58\n      jump\t// in\n    tag_104:\n        /* \"#utility.yul\":2735:2816   */\n      swap2\n      pop\n        /* \"#utility.yul\":2589:2827   */\n      pop\n        /* \"#utility.yul\":2844:2848   */\n      dup1\n        /* \"#utility.yul\":2837:2848   */\n      swap2\n      pop\n        /* \"#utility.yul\":2125:2854   */\n      pop\n        /* \"#utility.yul\":2007:2854   */\n      swap3\n      swap2\n      pop\n      pop\n      jump\t// out\n        /* \"#utility.yul\":2860:3124   */\n    tag_60:\n        /* \"#utility.yul\":2983:2993   */\n      0x00\n        /* \"#utility.yul\":3018:3118   */\n      tag_106\n        /* \"#utility.yul\":3114:3117   */\n      dup4\n        /* \"#utility.yul\":3106:3112   */\n      dup4\n        /* \"#utility.yul\":3018:3118   */\n      tag_59\n      jump\t// in\n    tag_106:\n        /* \"#utility.yul\":3004:3118   */\n      swap1\n      pop\n        /* \"#utility.yul\":2860:3124   */\n      swap3\n      swap2\n      pop\n      pop\n      jump\t// out\n        /* \"#utility.yul\":3130:3270   */\n    tag_61:\n        /* \"#utility.yul\":3227:3231   */\n      0x00\n        /* \"#utility.yul\":3259:3263   */\n      0x20\n        /* \"#utility.yul\":3254:3257   */\n      dup3\n        /* \"#utility.yul\":3250:3264   */\n      add\n        /* \"#utility.yul\":3242:3264   */\n      swap1\n      pop\n        /* \"#utility.yul\":3130:3270   */\n      swap2\n      swap1\n      pop\n      jump\t// out\n        /* \"#utility.yul\":3362:4489   */\n    tag_62:\n        /* \"#utility.yul\":3535:3538   */\n      0x00\n        /* \"#utility.yul\":3564:3645   */\n      tag_109\n        /* \"#utility.yul\":3639:3644   */\n      dup3\n        /* \"#utility.yul\":3564:3645   */\n      tag_48\n      jump\t// in\n    tag_109:\n        /* \"#utility.yul\":3661:3774   */\n      tag_110\n        /* \"#utility.yul\":3767:3773   */\n      dup2\n        /* \"#utility.yul\":3762:3765   */\n      dup6\n        /* \"#utility.yul\":3661:3774   */\n      tag_49\n      jump\t// in\n    tag_110:\n        /* \"#utility.yul\":3654:3774   */\n      swap4\n      pop\n        /* \"#utility.yul\":3800:3803   */\n      dup4\n        /* \"#utility.yul\":3845:3849   */\n      0x20\n        /* \"#utility.yul\":3837:3843   */\n      dup3\n        /* \"#utility.yul\":3833:3850   */\n      mul\n        /* \"#utility.yul\":3828:3831   */\n      dup6\n        /* \"#utility.yul\":3824:3851   */\n      add\n        /* \"#utility.yul\":3875:3958   */\n      tag_111\n        /* \"#utility.yul\":3952:3957   */\n      dup6\n        /* \"#utility.yul\":3875:3958   */\n      tag_50\n      jump\t// in\n    tag_111:\n        /* \"#utility.yul\":3981:3988   */\n      dup1\n        /* \"#utility.yul\":4012:4013   */\n      0x00\n        /* \"#utility.yul\":3997:4444   */\n    tag_112:\n        /* \"#utility.yul\":4022:4028   */\n      dup6\n        /* \"#utility.yul\":4019:4020   */\n      dup2\n        /* \"#utility.yul\":4016:4029   */\n      lt\n        /* \"#utility.yul\":3997:4444   */\n      iszero\n      tag_114\n      jumpi\n        /* \"#utility.yul\":4093:4102   */\n      dup5\n        /* \"#utility.yul\":4087:4091   */\n      dup5\n        /* \"#utility.yul\":4083:4103   */\n      sub\n        /* \"#utility.yul\":4078:4081   */\n      dup10\n        /* \"#utility.yul\":4071:4104   */\n      mstore\n        /* \"#utility.yul\":4144:4150   */\n      dup2\n        /* \"#utility.yul\":4138:4151   */\n      mload\n        /* \"#utility.yul\":4172:4290   */\n      tag_115\n        /* \"#utility.yul\":4285:4289   */\n      dup6\n        /* \"#utility.yul\":4270:4283   */\n      dup3\n        /* \"#utility.yul\":4172:4290   */\n      tag_60\n      jump\t// in\n    tag_115:\n        /* \"#utility.yul\":4164:4290   */\n      swap5\n      pop\n        /* \"#utility.yul\":4313:4400   */\n      tag_116\n        /* \"#utility.yul\":4393:4399   */\n      dup4\n        /* \"#utility.yul\":4313:4400   */\n      tag_61\n      jump\t// in\n    tag_116:\n        /* \"#utility.yul\":4303:4400   */\n      swap3\n      pop\n        /* \"#utility.yul\":4429:4433   */\n      0x20\n        /* \"#utility.yul\":4424:4427   */\n      dup11\n        /* \"#utility.yul\":4420:4434   */\n      add\n        /* \"#utility.yul\":4413:4434   */\n      swap10\n      pop\n        /* \"#utility.yul\":4057:4444   */\n      pop\n        /* \"#utility.yul\":4044:4045   */\n      0x01\n        /* \"#utility.yul\":4041:4042   */\n      dup2\n        /* \"#utility.yul\":4037:4046   */\n      add\n        /* \"#utility.yul\":4032:4046   */\n      swap1\n      pop\n        /* \"#utility.yul\":3997:4444   */\n      jump(tag_112)\n    tag_114:\n        /* \"#utility.yul\":4001:4015   */\n      pop\n        /* \"#utility.yul\":4460:4464   */\n      dup3\n        /* \"#utility.yul\":4453:4464   */\n      swap8\n      pop\n        /* \"#utility.yul\":4480:4483   */\n      dup8\n        /* \"#utility.yul\":4473:4483   */\n      swap6\n      pop\n        /* \"#utility.yul\":3540:4489   */\n      pop\n      pop\n      pop\n      pop\n      pop\n        /* \"#utility.yul\":3362:4489   */\n      swap3\n      swap2\n      pop\n      pop\n      jump\t// out\n        /* \"#utility.yul\":4495:4976   */\n    tag_8:\n        /* \"#utility.yul\":4692:4696   */\n      0x00\n        /* \"#utility.yul\":4730:4732   */\n      0x20\n        /* \"#utility.yul\":4719:4728   */\n      dup3\n        /* \"#utility.yul\":4715:4733   */\n      add\n        /* \"#utility.yul\":4707:4733   */\n      swap1\n      pop\n        /* \"#utility.yul\":4779:4788   */\n      dup2\n        /* \"#utility.yul\":4773:4777   */\n      dup2\n        /* \"#utility.yul\":4769:4789   */\n      sub\n        /* \"#utility.yul\":4765:4766   */\n      0x00\n        /* \"#utility.yul\":4754:4763   */\n      dup4\n        /* \"#utility.yul\":4750:4767   */\n      add\n        /* \"#utility.yul\":4743:4790   */\n      mstore\n        /* \"#utility.yul\":4807:4969   */\n      tag_118\n        /* \"#utility.yul\":4964:4968   */\n      dup2\n        /* \"#utility.yul\":4955:4961   */\n      dup5\n        /* \"#utility.yul\":4807:4969   */\n      tag_62\n      jump\t// in\n    tag_118:\n        /* \"#utility.yul\":4799:4969   */\n      swap1\n      pop\n        /* \"#utility.yul\":4495:4976   */\n      swap3\n      swap2\n      pop\n      pop\n      jump\t// out\n        /* \"#utility.yul\":4982:5057   */\n    tag_63:\n        /* \"#utility.yul\":5015:5021   */\n      0x00\n        /* \"#utility.yul\":5048:5050   */\n      0x40\n        /* \"#utility.yul\":5042:5051   */\n      mload\n        /* \"#utility.yul\":5032:5051   */\n      swap1\n      pop\n        /* \"#utility.yul\":4982:5057   */\n      swap1\n      jump\t// out\n        /* \"#utility.yul\":5063:5180   */\n    tag_64:\n        /* \"#utility.yul\":5172:5173   */\n      0x00\n        /* \"#utility.yul\":5169:5170   */\n      dup1\n        /* \"#utility.yul\":5162:5174   */\n      revert\n        /* \"#utility.yul\":5186:5303   */\n    tag_65:\n        /* \"#utility.yul\":5295:5296   */\n      0x00\n        /* \"#utility.yul\":5292:5293   */\n      dup1\n        /* \"#utility.yul\":5285:5297   */\n      revert\n        /* \"#utility.yul\":5309:5426   */\n    tag_66:\n        /* \"#utility.yul\":5418:5419   */\n      0x00\n        /* \"#utility.yul\":5415:5416   */\n      dup1\n        /* \"#utility.yul\":5408:5420   */\n      revert\n        /* \"#utility.yul\":5432:5549   */\n    tag_67:\n        /* \"#utility.yul\":5541:5542   */\n      0x00\n        /* \"#utility.yul\":5538:5539   */\n      dup1\n        /* \"#utility.yul\":5531:5543   */\n      revert\n        /* \"#utility.yul\":5555:5735   */\n    tag_68:\n        /* \"#utility.yul\":5603:5680   */\n      0x4e487b7100000000000000000000000000000000000000000000000000000000\n        /* \"#utility.yul\":5600:5601   */\n      0x00\n        /* \"#utility.yul\":5593:5681   */\n      mstore\n        /* \"#utility.yul\":5700:5704   */\n      0x41\n        /* \"#utility.yul\":5697:5698   */\n      0x04\n        /* \"#utility.yul\":5690:5705   */\n      mstore\n        /* \"#utility.yul\":5724:5728   */\n      0x24\n        /* \"#utility.yul\":5721:5722   */\n      0x00\n        /* \"#utility.yul\":5714:5729   */\n      revert\n        /* \"#utility.yul\":5741:6022   */\n    tag_69:\n        /* \"#utility.yul\":5824:5851   */\n      tag_126\n        /* \"#utility.yul\":5846:5850   */\n      dup3\n        /* \"#utility.yul\":5824:5851   */\n      tag_57\n      jump\t// in\n    tag_126:\n        /* \"#utility.yul\":5816:5822   */\n      dup2\n        /* \"#utility.yul\":5812:5852   */\n      add\n        /* \"#utility.yul\":5954:5960   */\n      dup2\n        /* \"#utility.yul\":5942:5952   */\n      dup2\n        /* \"#utility.yul\":5939:5961   */\n      lt\n        /* \"#utility.yul\":5918:5936   */\n      0xffffffffffffffff\n        /* \"#utility.yul\":5906:5916   */\n      dup3\n        /* \"#utility.yul\":5903:5937   */\n      gt\n        /* \"#utility.yul\":5900:5962   */\n      or\n        /* \"#utility.yul\":5897:5985   */\n      iszero\n      tag_127\n      jumpi\n        /* \"#utility.yul\":5965:5983   */\n      tag_128\n      tag_68\n      jump\t// in\n    tag_128:\n        /* \"#utility.yul\":5897:5985   */\n    tag_127:\n        /* \"#utility.yul\":6005:6015   */\n      dup1\n        /* \"#utility.yul\":6001:6003   */\n      0x40\n        /* \"#utility.yul\":5994:6016   */\n      mstore\n        /* \"#utility.yul\":5784:6022   */\n      pop\n        /* \"#utility.yul\":5741:6022   */\n      pop\n      pop\n      jump\t// out\n        /* \"#utility.yul\":6028:6157   */\n    tag_70:\n        /* \"#utility.yul\":6062:6068   */\n      0x00\n        /* \"#utility.yul\":6089:6109   */\n      tag_130\n      tag_63\n      jump\t// in\n    tag_130:\n        /* \"#utility.yul\":6079:6109   */\n      swap1\n      pop\n        /* \"#utility.yul\":6118:6151   */\n      tag_131\n        /* \"#utility.yul\":6146:6150   */\n      dup3\n        /* \"#utility.yul\":6138:6144   */\n      dup3\n        /* \"#utility.yul\":6118:6151   */\n      tag_69\n      jump\t// in\n    tag_131:\n        /* \"#utility.yul\":6028:6157   */\n      swap2\n      swap1\n      pop\n      jump\t// out\n        /* \"#utility.yul\":6163:6471   */\n    tag_71:\n        /* \"#utility.yul\":6225:6229   */\n      0x00\n        /* \"#utility.yul\":6315:6333   */\n      0xffffffffffffffff\n        /* \"#utility.yul\":6307:6313   */\n      dup3\n        /* \"#utility.yul\":6304:6334   */\n      gt\n        /* \"#utility.yul\":6301:6357   */\n      iszero\n      tag_133\n      jumpi\n        /* \"#utility.yul\":6337:6355   */\n      tag_134\n      tag_68\n      jump\t// in\n    tag_134:\n        /* \"#utility.yul\":6301:6357   */\n    tag_133:\n        /* \"#utility.yul\":6375:6404   */\n      tag_135\n        /* \"#utility.yul\":6397:6403   */\n      dup3\n        /* \"#utility.yul\":6375:6404   */\n      tag_57\n      jump\t// in\n    tag_135:\n        /* \"#utility.yul\":6367:6404   */\n      swap1\n      pop\n        /* \"#utility.yul\":6459:6463   */\n      0x20\n        /* \"#utility.yul\":6453:6457   */\n      dup2\n        /* \"#utility.yul\":6449:6464   */\n      add\n        /* \"#utility.yul\":6441:6464   */\n      swap1\n      pop\n        /* \"#utility.yul\":6163:6471   */\n      swap2\n      swap1\n      pop\n      jump\t// out\n        /* \"#utility.yul\":6477:6631   */\n    tag_72:\n        /* \"#utility.yul\":6561:6567   */\n      dup3\n        /* \"#utility.yul\":6556:6559   */\n      dup2\n        /* \"#utility.yul\":6551:6554   */\n      dup4\n        /* \"#utility.yul\":6538:6568   */\n      calldatacopy\n        /* \"#utility.yul\":6623:6624   */\n      0x00\n        /* \"#utility.yul\":6614:6620   */\n      dup4\n        /* \"#utility.yul\":6609:6612   */\n      dup4\n        /* \"#utility.yul\":6605:6621   */\n      add\n        /* \"#utility.yul\":6598:6625   */\n      mstore\n        /* \"#utility.yul\":6477:6631   */\n      pop\n      pop\n      pop\n      jump\t// out\n        /* \"#utility.yul\":6637:7049   */\n    tag_73:\n        /* \"#utility.yul\":6715:6720   */\n      0x00\n        /* \"#utility.yul\":6740:6806   */\n      tag_138\n        /* \"#utility.yul\":6756:6805   */\n      tag_139\n        /* \"#utility.yul\":6798:6804   */\n      dup5\n        /* \"#utility.yul\":6756:6805   */\n      tag_71\n      jump\t// in\n    tag_139:\n        /* \"#utility.yul\":6740:6806   */\n      tag_70\n      jump\t// in\n    tag_138:\n        /* \"#utility.yul\":6731:6806   */\n      swap1\n      pop\n        /* \"#utility.yul\":6829:6835   */\n      dup3\n        /* \"#utility.yul\":6822:6827   */\n      dup2\n        /* \"#utility.yul\":6815:6836   */\n      mstore\n        /* \"#utility.yul\":6867:6871   */\n      0x20\n        /* \"#utility.yul\":6860:6865   */\n      dup2\n        /* \"#utility.yul\":6856:6872   */\n      add\n        /* \"#utility.yul\":6905:6908   */\n      dup5\n        /* \"#utility.yul\":6896:6902   */\n      dup5\n        /* \"#utility.yul\":6891:6894   */\n      dup5\n        /* \"#utility.yul\":6887:6903   */\n      add\n        /* \"#utility.yul\":6884:6909   */\n      gt\n        /* \"#utility.yul\":6881:6993   */\n      iszero\n      tag_140\n      jumpi\n        /* \"#utility.yul\":6912:6991   */\n      tag_141\n      tag_67\n      jump\t// in\n    tag_141:\n        /* \"#utility.yul\":6881:6993   */\n    tag_140:\n        /* \"#utility.yul\":7002:7043   */\n      tag_142\n        /* \"#utility.yul\":7036:7042   */\n      dup5\n        /* \"#utility.yul\":7031:7034   */\n      dup3\n        /* \"#utility.yul\":7026:7029   */\n      dup6\n        /* \"#utility.yul\":7002:7043   */\n      tag_72\n      jump\t// in\n    tag_142:\n        /* \"#utility.yul\":6721:7049   */\n      pop\n        /* \"#utility.yul\":6637:7049   */\n      swap4\n      swap3\n      pop\n      pop\n      pop\n      jump\t// out\n        /* \"#utility.yul\":7069:7409   */\n    tag_74:\n        /* \"#utility.yul\":7125:7130   */\n      0x00\n        /* \"#utility.yul\":7174:7177   */\n      dup3\n        /* \"#utility.yul\":7167:7171   */\n      0x1f\n        /* \"#utility.yul\":7159:7165   */\n      dup4\n        /* \"#utility.yul\":7155:7172   */\n      add\n        /* \"#utility.yul\":7151:7178   */\n      slt\n        /* \"#utility.yul\":7141:7263   */\n      tag_144\n      jumpi\n        /* \"#utility.yul\":7182:7261   */\n      tag_145\n      tag_66\n      jump\t// in\n    tag_145:\n        /* \"#utility.yul\":7141:7263   */\n    tag_144:\n        /* \"#utility.yul\":7299:7305   */\n      dup2\n        /* \"#utility.yul\":7286:7306   */\n      calldataload\n        /* \"#utility.yul\":7324:7403   */\n      tag_146\n        /* \"#utility.yul\":7399:7402   */\n      dup5\n        /* \"#utility.yul\":7391:7397   */\n      dup3\n        /* \"#utility.yul\":7384:7388   */\n      0x20\n        /* \"#utility.yul\":7376:7382   */\n      dup7\n        /* \"#utility.yul\":7372:7389   */\n      add\n        /* \"#utility.yul\":7324:7403   */\n      tag_73\n      jump\t// in\n    tag_146:\n        /* \"#utility.yul\":7315:7403   */\n      swap2\n      pop\n        /* \"#utility.yul\":7131:7409   */\n      pop\n        /* \"#utility.yul\":7069:7409   */\n      swap3\n      swap2\n      pop\n      pop\n      jump\t// out\n        /* \"#utility.yul\":7415:8249   */\n    tag_11:\n        /* \"#utility.yul\":7503:7509   */\n      0x00\n        /* \"#utility.yul\":7511:7517   */\n      dup1\n        /* \"#utility.yul\":7560:7562   */\n      0x40\n        /* \"#utility.yul\":7548:7557   */\n      dup4\n        /* \"#utility.yul\":7539:7546   */\n      dup6\n        /* \"#utility.yul\":7535:7558   */\n      sub\n        /* \"#utility.yul\":7531:7563   */\n      slt\n        /* \"#utility.yul\":7528:7647   */\n      iszero\n      tag_148\n      jumpi\n        /* \"#utility.yul\":7566:7645   */\n      tag_149\n      tag_64\n      jump\t// in\n    tag_149:\n        /* \"#utility.yul\":7528:7647   */\n    tag_148:\n        /* \"#utility.yul\":7714:7715   */\n      0x00\n        /* \"#utility.yul\":7703:7712   */\n      dup4\n        /* \"#utility.yul\":7699:7716   */\n      add\n        /* \"#utility.yul\":7686:7717   */\n      calldataload\n        /* \"#utility.yul\":7744:7762   */\n      0xffffffffffffffff\n        /* \"#utility.yul\":7736:7742   */\n      dup2\n        /* \"#utility.yul\":7733:7763   */\n      gt\n        /* \"#utility.yul\":7730:7847   */\n      iszero\n      tag_150\n      jumpi\n        /* \"#utility.yul\":7766:7845   */\n      tag_151\n      tag_65\n      jump\t// in\n    tag_151:\n        /* \"#utility.yul\":7730:7847   */\n    tag_150:\n        /* \"#utility.yul\":7871:7934   */\n      tag_152\n        /* \"#utility.yul\":7926:7933   */\n      dup6\n        /* \"#utility.yul\":7917:7923   */\n      dup3\n        /* \"#utility.yul\":7906:7915   */\n      dup7\n        /* \"#utility.yul\":7902:7924   */\n      add\n        /* \"#utility.yul\":7871:7934   */\n      tag_74\n      jump\t// in\n    tag_152:\n        /* \"#utility.yul\":7861:7934   */\n      swap3\n      pop\n        /* \"#utility.yul\":7657:7944   */\n      pop\n        /* \"#utility.yul\":8011:8013   */\n      0x20\n        /* \"#utility.yul\":8000:8009   */\n      dup4\n        /* \"#utility.yul\":7996:8014   */\n      add\n        /* \"#utility.yul\":7983:8015   */\n      calldataload\n        /* \"#utility.yul\":8042:8060   */\n      0xffffffffffffffff\n        /* \"#utility.yul\":8034:8040   */\n      dup2\n        /* \"#utility.yul\":8031:8061   */\n      gt\n        /* \"#utility.yul\":8028:8145   */\n      iszero\n      tag_153\n      jumpi\n        /* \"#utility.yul\":8064:8143   */\n      tag_154\n      tag_65\n      jump\t// in\n    tag_154:\n        /* \"#utility.yul\":8028:8145   */\n    tag_153:\n        /* \"#utility.yul\":8169:8232   */\n      tag_155\n        /* \"#utility.yul\":8224:8231   */\n      dup6\n        /* \"#utility.yul\":8215:8221   */\n      dup3\n        /* \"#utility.yul\":8204:8213   */\n      dup7\n        /* \"#utility.yul\":8200:8222   */\n      add\n        /* \"#utility.yul\":8169:8232   */\n      tag_74\n      jump\t// in\n    tag_155:\n        /* \"#utility.yul\":8159:8232   */\n      swap2\n      pop\n        /* \"#utility.yul\":7954:8242   */\n      pop\n        /* \"#utility.yul\":7415:8249   */\n      swap3\n      pop\n      swap3\n      swap1\n      pop\n      jump\t// out\n        /* \"#utility.yul\":8255:8435   */\n    tag_75:\n        /* \"#utility.yul\":8303:8380   */\n      0x4e487b7100000000000000000000000000000000000000000000000000000000\n        /* \"#utility.yul\":8300:8301   */\n      0x00\n        /* \"#utility.yul\":8293:8381   */\n      mstore\n        /* \"#utility.yul\":8400:8404   */\n      0x22\n        /* \"#utility.yul\":8397:8398   */\n      0x04\n        /* \"#utility.yul\":8390:8405   */\n      mstore\n        /* \"#utility.yul\":8424:8428   */\n      0x24\n        /* \"#utility.yul\":8421:8422   */\n      0x00\n        /* \"#utility.yul\":8414:8429   */\n      revert\n        /* \"#utility.yul\":8441:8761   */\n    tag_18:\n        /* \"#utility.yul\":8485:8491   */\n      0x00\n        /* \"#utility.yul\":8522:8523   */\n      0x02\n        /* \"#utility.yul\":8516:8520   */\n      dup3\n        /* \"#utility.yul\":8512:8524   */\n      div\n        /* \"#utility.yul\":8502:8524   */\n      swap1\n      pop\n        /* \"#utility.yul\":8569:8570   */\n      0x01\n        /* \"#utility.yul\":8563:8567   */\n      dup3\n        /* \"#utility.yul\":8559:8571   */\n      and\n        /* \"#utility.yul\":8590:8608   */\n      dup1\n        /* \"#utility.yul\":8580:8661   */\n      tag_158\n      jumpi\n        /* \"#utility.yul\":8646:8650   */\n      0x7f\n        /* \"#utility.yul\":8638:8644   */\n      dup3\n        /* \"#utility.yul\":8634:8651   */\n      and\n        /* \"#utility.yul\":8624:8651   */\n      swap2\n      pop\n        /* \"#utility.yul\":8580:8661   */\n    tag_158:\n        /* \"#utility.yul\":8708:8710   */\n      0x20\n        /* \"#utility.yul\":8700:8706   */\n      dup3\n        /* \"#utility.yul\":8697:8711   */\n      lt\n        /* \"#utility.yul\":8677:8695   */\n      dup2\n        /* \"#utility.yul\":8674:8712   */\n      eq\n        /* \"#utility.yul\":8671:8755   */\n      iszero\n      tag_159\n      jumpi\n        /* \"#utility.yul\":8727:8745   */\n      tag_160\n      tag_75\n      jump\t// in\n    tag_160:\n        /* \"#utility.yul\":8671:8755   */\n    tag_159:\n        /* \"#utility.yul\":8492:8761   */\n      pop\n        /* \"#utility.yul\":8441:8761   */\n      swap2\n      swap1\n      pop\n      jump\t// out\n        /* \"#utility.yul\":8767:8885   */\n    tag_76:\n        /* \"#utility.yul\":8854:8878   */\n      tag_162\n        /* \"#utility.yul\":8872:8877   */\n      dup2\n        /* \"#utility.yul\":8854:8878   */\n      tag_52\n      jump\t// in\n    tag_162:\n        /* \"#utility.yul\":8849:8852   */\n      dup3\n        /* \"#utility.yul\":8842:8879   */\n      mstore\n        /* \"#utility.yul\":8767:8885   */\n      pop\n      pop\n      jump\t// out\n        /* \"#utility.yul\":8891:9060   */\n    tag_77:\n        /* \"#utility.yul\":8975:8986   */\n      0x00\n        /* \"#utility.yul\":9009:9015   */\n      dup3\n        /* \"#utility.yul\":9004:9007   */\n      dup3\n        /* \"#utility.yul\":8997:9016   */\n      mstore\n        /* \"#utility.yul\":9049:9053   */\n      0x20\n        /* \"#utility.yul\":9044:9047   */\n      dup3\n        /* \"#utility.yul\":9040:9054   */\n      add\n        /* \"#utility.yul\":9025:9054   */\n      swap1\n      pop\n        /* \"#utility.yul\":8891:9060   */\n      swap3\n      swap2\n      pop\n      pop\n      jump\t// out\n        /* \"#utility.yul\":9066:9430   */\n    tag_78:\n        /* \"#utility.yul\":9154:9157   */\n      0x00\n        /* \"#utility.yul\":9182:9221   */\n      tag_165\n        /* \"#utility.yul\":9215:9220   */\n      dup3\n        /* \"#utility.yul\":9182:9221   */\n      tag_54\n      jump\t// in\n    tag_165:\n        /* \"#utility.yul\":9237:9308   */\n      tag_166\n        /* \"#utility.yul\":9301:9307   */\n      dup2\n        /* \"#utility.yul\":9296:9299   */\n      dup6\n        /* \"#utility.yul\":9237:9308   */\n      tag_77\n      jump\t// in\n    tag_166:\n        /* \"#utility.yul\":9230:9308   */\n      swap4\n      pop\n        /* \"#utility.yul\":9317:9369   */\n      tag_167\n        /* \"#utility.yul\":9362:9368   */\n      dup2\n        /* \"#utility.yul\":9357:9360   */\n      dup6\n        /* \"#utility.yul\":9350:9354   */\n      0x20\n        /* \"#utility.yul\":9343:9348   */\n      dup7\n        /* \"#utility.yul\":9339:9355   */\n      add\n        /* \"#utility.yul\":9317:9369   */\n      tag_56\n      jump\t// in\n    tag_167:\n        /* \"#utility.yul\":9394:9423   */\n      tag_168\n        /* \"#utility.yul\":9416:9422   */\n      dup2\n        /* \"#utility.yul\":9394:9423   */\n      tag_57\n      jump\t// in\n    tag_168:\n        /* \"#utility.yul\":9389:9392   */\n      dup5\n        /* \"#utility.yul\":9385:9424   */\n      add\n        /* \"#utility.yul\":9378:9424   */\n      swap2\n      pop\n        /* \"#utility.yul\":9158:9430   */\n      pop\n        /* \"#utility.yul\":9066:9430   */\n      swap3\n      swap2\n      pop\n      pop\n      jump\t// out\n        /* \"#utility.yul\":9436:9859   */\n    tag_32:\n        /* \"#utility.yul\":9577:9581   */\n      0x00\n        /* \"#utility.yul\":9615:9617   */\n      0x40\n        /* \"#utility.yul\":9604:9613   */\n      dup3\n        /* \"#utility.yul\":9600:9618   */\n      add\n        /* \"#utility.yul\":9592:9618   */\n      swap1\n      pop\n        /* \"#utility.yul\":9628:9699   */\n      tag_170\n        /* \"#utility.yul\":9696:9697   */\n      0x00\n        /* \"#utility.yul\":9685:9694   */\n      dup4\n        /* \"#utility.yul\":9681:9698   */\n      add\n        /* \"#utility.yul\":9672:9678   */\n      dup6\n        /* \"#utility.yul\":9628:9699   */\n      tag_76\n      jump\t// in\n    tag_170:\n        /* \"#utility.yul\":9746:9755   */\n      dup2\n        /* \"#utility.yul\":9740:9744   */\n      dup2\n        /* \"#utility.yul\":9736:9756   */\n      sub\n        /* \"#utility.yul\":9731:9733   */\n      0x20\n        /* \"#utility.yul\":9720:9729   */\n      dup4\n        /* \"#utility.yul\":9716:9734   */\n      add\n        /* \"#utility.yul\":9709:9757   */\n      mstore\n        /* \"#utility.yul\":9774:9852   */\n      tag_171\n        /* \"#utility.yul\":9847:9851   */\n      dup2\n        /* \"#utility.yul\":9838:9844   */\n      dup5\n        /* \"#utility.yul\":9774:9852   */\n      tag_78\n      jump\t// in\n    tag_171:\n        /* \"#utility.yul\":9766:9852   */\n      swap1\n      pop\n        /* \"#utility.yul\":9436:9859   */\n      swap4\n      swap3\n      pop\n      pop\n      pop\n      jump\t// out\n    stop\n\n    sub_0: assembly {\n            /* \"Election.sol\":685:2840  contract Election{... */\n          mstore(0x40, 0x80)\n            /* \"Election.sol\":985:1166  constructor(address sender, string memory n){... */\n          callvalue\n          dup1\n          iszero\n          tag_1\n          jumpi\n          0x00\n          dup1\n          revert\n        tag_1:\n          pop\n          mload(0x40)\n          sub(codesize, bytecodeSize)\n          dup1\n          bytecodeSize\n          dup4\n          codecopy\n          dup2\n          dup2\n          add\n          0x40\n          mstore\n          dup2\n          add\n          swap1\n          tag_2\n          swap2\n          swap1\n          tag_3\n          jump\t// in\n        tag_2:\n            /* \"Election.sol\":1050:1056  sender */\n          dup2\n            /* \"Election.sol\":1040:1047  manager */\n          0x02\n          0x00\n            /* \"Election.sol\":1040:1056  manager = sender */\n          0x0100\n          exp\n          dup2\n          sload\n          dup2\n          0xffffffffffffffffffffffffffffffffffffffff\n          mul\n          not\n          and\n          swap1\n          dup4\n          0xffffffffffffffffffffffffffffffffffffffff\n          and\n          mul\n          or\n          swap1\n          sstore\n          pop\n            /* \"Election.sol\":1081:1086  false */\n          0x00\n            /* \"Election.sol\":1067:1078  isCompleted */\n          0x04\n          0x00\n            /* \"Election.sol\":1067:1086  isCompleted = false */\n          0x0100\n          exp\n          dup2\n          sload\n          dup2\n          0xff\n          mul\n          not\n          and\n          swap1\n          dup4\n          iszero\n          iszero\n          mul\n          or\n          swap1\n          sstore\n          pop\n            /* \"Election.sol\":1110:1111  0 */\n          0x00\n            /* \"Election.sol\":1097:1107  totalVotes */\n          dup1\n            /* \"Election.sol\":1097:1111  totalVotes = 0 */\n          dup2\n          swap1\n          sstore\n          pop\n            /* \"Election.sol\":1134:1139  false */\n          0x00\n            /* \"Election.sol\":1122:1131  isStarted */\n          0x04\n          0x01\n            /* \"Election.sol\":1122:1139  isStarted = false */\n          0x0100\n          exp\n          dup2\n          sload\n          dup2\n          0xff\n          mul\n          not\n          and\n          swap1\n          dup4\n          iszero\n          iszero\n          mul\n          or\n          swap1\n          sstore\n          pop\n            /* \"Election.sol\":1157:1158  n */\n          dup1\n            /* \"Election.sol\":1150:1154  name */\n          0x01\n            /* \"Election.sol\":1150:1158  name = n */\n          swap1\n          dup1\n          mload\n          swap1\n          0x20\n          add\n          swap1\n          tag_6\n          swap3\n          swap2\n          swap1\n          tag_7\n          jump\t// in\n        tag_6:\n          pop\n            /* \"Election.sol\":985:1166  constructor(address sender, string memory n){... */\n          pop\n          pop\n            /* \"Election.sol\":685:2840  contract Election{... */\n          jump(tag_8)\n        tag_7:\n          dup3\n          dup1\n          sload\n          tag_9\n          swap1\n          tag_10\n          jump\t// in\n        tag_9:\n          swap1\n          0x00\n          mstore\n          keccak256(0x00, 0x20)\n          swap1\n          0x1f\n          add\n          0x20\n          swap1\n          div\n          dup2\n          add\n          swap3\n          dup3\n          tag_12\n          jumpi\n          0x00\n          dup6\n          sstore\n          jump(tag_11)\n        tag_12:\n          dup3\n          0x1f\n          lt\n          tag_13\n          jumpi\n          dup1\n          mload\n          not(0xff)\n          and\n          dup4\n          dup1\n          add\n          or\n          dup6\n          sstore\n          jump(tag_11)\n        tag_13:\n          dup3\n          dup1\n          add\n          0x01\n          add\n          dup6\n          sstore\n          dup3\n          iszero\n          tag_11\n          jumpi\n          swap2\n          dup3\n          add\n        tag_14:\n          dup3\n          dup2\n          gt\n          iszero\n          tag_15\n          jumpi\n          dup3\n          mload\n          dup3\n          sstore\n          swap2\n          0x20\n          add\n          swap2\n          swap1\n          0x01\n          add\n          swap1\n          jump(tag_14)\n        tag_15:\n        tag_11:\n          pop\n          swap1\n          pop\n          tag_16\n          swap2\n          swap1\n          tag_17\n          jump\t// in\n        tag_16:\n          pop\n          swap1\n          jump\t// out\n        tag_17:\n        tag_18:\n          dup1\n          dup3\n          gt\n          iszero\n          tag_19\n          jumpi\n          0x00\n          dup2\n          0x00\n          swap1\n          sstore\n          pop\n          0x01\n          add\n          jump(tag_18)\n        tag_19:\n          pop\n          swap1\n          jump\t// out\n            /* \"#utility.yul\":7:82   */\n        tag_20:\n            /* \"#utility.yul\":40:46   */\n          0x00\n            /* \"#utility.yul\":73:75   */\n          0x40\n            /* \"#utility.yul\":67:76   */\n          mload\n            /* \"#utility.yul\":57:76   */\n          swap1\n          pop\n            /* \"#utility.yul\":7:82   */\n          swap1\n          jump\t// out\n            /* \"#utility.yul\":88:205   */\n        tag_21:\n            /* \"#utility.yul\":197:198   */\n          0x00\n            /* \"#utility.yul\":194:195   */\n          dup1\n            /* \"#utility.yul\":187:199   */\n          revert\n            /* \"#utility.yul\":211:328   */\n        tag_22:\n            /* \"#utility.yul\":320:321   */\n          0x00\n            /* \"#utility.yul\":317:318   */\n          dup1\n            /* \"#utility.yul\":310:322   */\n          revert\n            /* \"#utility.yul\":334:460   */\n        tag_23:\n            /* \"#utility.yul\":371:378   */\n          0x00\n            /* \"#utility.yul\":411:453   */\n          0xffffffffffffffffffffffffffffffffffffffff\n            /* \"#utility.yul\":404:409   */\n          dup3\n            /* \"#utility.yul\":400:454   */\n          and\n            /* \"#utility.yul\":389:454   */\n          swap1\n          pop\n            /* \"#utility.yul\":334:460   */\n          swap2\n          swap1\n          pop\n          jump\t// out\n            /* \"#utility.yul\":466:562   */\n        tag_24:\n            /* \"#utility.yul\":503:510   */\n          0x00\n            /* \"#utility.yul\":532:556   */\n          tag_44\n            /* \"#utility.yul\":550:555   */\n          dup3\n            /* \"#utility.yul\":532:556   */\n          tag_23\n          jump\t// in\n        tag_44:\n            /* \"#utility.yul\":521:556   */\n          swap1\n          pop\n            /* \"#utility.yul\":466:562   */\n          swap2\n          swap1\n          pop\n          jump\t// out\n            /* \"#utility.yul\":568:690   */\n        tag_25:\n            /* \"#utility.yul\":641:665   */\n          tag_46\n            /* \"#utility.yul\":659:664   */\n          dup2\n            /* \"#utility.yul\":641:665   */\n          tag_24\n          jump\t// in\n        tag_46:\n            /* \"#utility.yul\":634:639   */\n          dup2\n            /* \"#utility.yul\":631:666   */\n          eq\n            /* \"#utility.yul\":621:684   */\n          tag_47\n          jumpi\n            /* \"#utility.yul\":680:681   */\n          0x00\n            /* \"#utility.yul\":677:678   */\n          dup1\n            /* \"#utility.yul\":670:682   */\n          revert\n            /* \"#utility.yul\":621:684   */\n        tag_47:\n            /* \"#utility.yul\":568:690   */\n          pop\n          jump\t// out\n            /* \"#utility.yul\":696:839   */\n        tag_26:\n            /* \"#utility.yul\":753:758   */\n          0x00\n            /* \"#utility.yul\":784:790   */\n          dup2\n            /* \"#utility.yul\":778:791   */\n          mload\n            /* \"#utility.yul\":769:791   */\n          swap1\n          pop\n            /* \"#utility.yul\":800:833   */\n          tag_49\n            /* \"#utility.yul\":827:832   */\n          dup2\n            /* \"#utility.yul\":800:833   */\n          tag_25\n          jump\t// in\n        tag_49:\n            /* \"#utility.yul\":696:839   */\n          swap3\n          swap2\n          pop\n          pop\n          jump\t// out\n            /* \"#utility.yul\":845:962   */\n        tag_27:\n            /* \"#utility.yul\":954:955   */\n          0x00\n            /* \"#utility.yul\":951:952   */\n          dup1\n            /* \"#utility.yul\":944:956   */\n          revert\n            /* \"#utility.yul\":968:1085   */\n        tag_28:\n            /* \"#utility.yul\":1077:1078   */\n          0x00\n            /* \"#utility.yul\":1074:1075   */\n          dup1\n            /* \"#utility.yul\":1067:1079   */\n          revert\n            /* \"#utility.yul\":1091:1193   */\n        tag_29:\n            /* \"#utility.yul\":1132:1138   */\n          0x00\n            /* \"#utility.yul\":1183:1185   */\n          0x1f\n            /* \"#utility.yul\":1179:1186   */\n          not\n            /* \"#utility.yul\":1174:1176   */\n          0x1f\n            /* \"#utility.yul\":1167:1172   */\n          dup4\n            /* \"#utility.yul\":1163:1177   */\n          add\n            /* \"#utility.yul\":1159:1187   */\n          and\n            /* \"#utility.yul\":1149:1187   */\n          swap1\n          pop\n            /* \"#utility.yul\":1091:1193   */\n          swap2\n          swap1\n          pop\n          jump\t// out\n            /* \"#utility.yul\":1199:1379   */\n        tag_30:\n            /* \"#utility.yul\":1247:1324   */\n          0x4e487b7100000000000000000000000000000000000000000000000000000000\n            /* \"#utility.yul\":1244:1245   */\n          0x00\n            /* \"#utility.yul\":1237:1325   */\n          mstore\n            /* \"#utility.yul\":1344:1348   */\n          0x41\n            /* \"#utility.yul\":1341:1342   */\n          0x04\n            /* \"#utility.yul\":1334:1349   */\n          mstore\n            /* \"#utility.yul\":1368:1372   */\n          0x24\n            /* \"#utility.yul\":1365:1366   */\n          0x00\n            /* \"#utility.yul\":1358:1373   */\n          revert\n            /* \"#utility.yul\":1385:1666   */\n        tag_31:\n            /* \"#utility.yul\":1468:1495   */\n          tag_55\n            /* \"#utility.yul\":1490:1494   */\n          dup3\n            /* \"#utility.yul\":1468:1495   */\n          tag_29\n          jump\t// in\n        tag_55:\n            /* \"#utility.yul\":1460:1466   */\n          dup2\n            /* \"#utility.yul\":1456:1496   */\n          add\n            /* \"#utility.yul\":1598:1604   */\n          dup2\n            /* \"#utility.yul\":1586:1596   */\n          dup2\n            /* \"#utility.yul\":1583:1605   */\n          lt\n            /* \"#utility.yul\":1562:1580   */\n          0xffffffffffffffff\n            /* \"#utility.yul\":1550:1560   */\n          dup3\n            /* \"#utility.yul\":1547:1581   */\n          gt\n            /* \"#utility.yul\":1544:1606   */\n          or\n            /* \"#utility.yul\":1541:1629   */\n          iszero\n          tag_56\n          jumpi\n            /* \"#utility.yul\":1609:1627   */\n          tag_57\n          tag_30\n          jump\t// in\n        tag_57:\n            /* \"#utility.yul\":1541:1629   */\n        tag_56:\n            /* \"#utility.yul\":1649:1659   */\n          dup1\n            /* \"#utility.yul\":1645:1647   */\n          0x40\n            /* \"#utility.yul\":1638:1660   */\n          mstore\n            /* \"#utility.yul\":1428:1666   */\n          pop\n            /* \"#utility.yul\":1385:1666   */\n          pop\n          pop\n          jump\t// out\n            /* \"#utility.yul\":1672:1801   */\n        tag_32:\n            /* \"#utility.yul\":1706:1712   */\n          0x00\n            /* \"#utility.yul\":1733:1753   */\n          tag_59\n          tag_20\n          jump\t// in\n        tag_59:\n            /* \"#utility.yul\":1723:1753   */\n          swap1\n          pop\n            /* \"#utility.yul\":1762:1795   */\n          tag_60\n            /* \"#utility.yul\":1790:1794   */\n          dup3\n            /* \"#utility.yul\":1782:1788   */\n          dup3\n            /* \"#utility.yul\":1762:1795   */\n          tag_31\n          jump\t// in\n        tag_60:\n            /* \"#utility.yul\":1672:1801   */\n          swap2\n          swap1\n          pop\n          jump\t// out\n            /* \"#utility.yul\":1807:2115   */\n        tag_33:\n            /* \"#utility.yul\":1869:1873   */\n          0x00\n            /* \"#utility.yul\":1959:1977   */\n          0xffffffffffffffff\n            /* \"#utility.yul\":1951:1957   */\n          dup3\n            /* \"#utility.yul\":1948:1978   */\n          gt\n            /* \"#utility.yul\":1945:2001   */\n          iszero\n          tag_62\n          jumpi\n            /* \"#utility.yul\":1981:1999   */\n          tag_63\n          tag_30\n          jump\t// in\n        tag_63:\n            /* \"#utility.yul\":1945:2001   */\n        tag_62:\n            /* \"#utility.yul\":2019:2048   */\n          tag_64\n            /* \"#utility.yul\":2041:2047   */\n          dup3\n            /* \"#utility.yul\":2019:2048   */\n          tag_29\n          jump\t// in\n        tag_64:\n            /* \"#utility.yul\":2011:2048   */\n          swap1\n          pop\n            /* \"#utility.yul\":2103:2107   */\n          0x20\n            /* \"#utility.yul\":2097:2101   */\n          dup2\n            /* \"#utility.yul\":2093:2108   */\n          add\n            /* \"#utility.yul\":2085:2108   */\n          swap1\n          pop\n            /* \"#utility.yul\":1807:2115   */\n          swap2\n          swap1\n          pop\n          jump\t// out\n            /* \"#utility.yul\":2121:2428   */\n        tag_34:\n            /* \"#utility.yul\":2189:2190   */\n          0x00\n            /* \"#utility.yul\":2199:2312   */\n        tag_66:\n            /* \"#utility.yul\":2213:2219   */\n          dup4\n            /* \"#utility.yul\":2210:2211   */\n          dup2\n            /* \"#utility.yul\":2207:2220   */\n          lt\n            /* \"#utility.yul\":2199:2312   */\n          iszero\n          tag_68\n          jumpi\n            /* \"#utility.yul\":2298:2299   */\n          dup1\n            /* \"#utility.yul\":2293:2296   */\n          dup3\n            /* \"#utility.yul\":2289:2300   */\n          add\n            /* \"#utility.yul\":2283:2301   */\n          mload\n            /* \"#utility.yul\":2279:2280   */\n          dup2\n            /* \"#utility.yul\":2274:2277   */\n          dup5\n            /* \"#utility.yul\":2270:2281   */\n          add\n            /* \"#utility.yul\":2263:2302   */\n          mstore\n            /* \"#utility.yul\":2235:2237   */\n          0x20\n            /* \"#utility.yul\":2232:2233   */\n          dup2\n            /* \"#utility.yul\":2228:2238   */\n          add\n            /* \"#utility.yul\":2223:2238   */\n          swap1\n          pop\n            /* \"#utility.yul\":2199:2312   */\n          jump(tag_66)\n        tag_68:\n            /* \"#utility.yul\":2330:2336   */\n          dup4\n            /* \"#utility.yul\":2327:2328   */\n          dup2\n            /* \"#utility.yul\":2324:2337   */\n          gt\n            /* \"#utility.yul\":2321:2422   */\n          iszero\n          tag_69\n          jumpi\n            /* \"#utility.yul\":2410:2411   */\n          0x00\n            /* \"#utility.yul\":2401:2407   */\n          dup5\n            /* \"#utility.yul\":2396:2399   */\n          dup5\n            /* \"#utility.yul\":2392:2408   */\n          add\n            /* \"#utility.yul\":2385:2412   */\n          mstore\n            /* \"#utility.yul\":2321:2422   */\n        tag_69:\n            /* \"#utility.yul\":2170:2428   */\n          pop\n            /* \"#utility.yul\":2121:2428   */\n          pop\n          pop\n          pop\n          jump\t// out\n            /* \"#utility.yul\":2434:2855   */\n        tag_35:\n            /* \"#utility.yul\":2523:2528   */\n          0x00\n            /* \"#utility.yul\":2548:2614   */\n          tag_71\n            /* \"#utility.yul\":2564:2613   */\n          tag_72\n            /* \"#utility.yul\":2606:2612   */\n          dup5\n            /* \"#utility.yul\":2564:2613   */\n          tag_33\n          jump\t// in\n        tag_72:\n            /* \"#utility.yul\":2548:2614   */\n          tag_32\n          jump\t// in\n        tag_71:\n            /* \"#utility.yul\":2539:2614   */\n          swap1\n          pop\n            /* \"#utility.yul\":2637:2643   */\n          dup3\n            /* \"#utility.yul\":2630:2635   */\n          dup2\n            /* \"#utility.yul\":2623:2644   */\n          mstore\n            /* \"#utility.yul\":2675:2679   */\n          0x20\n            /* \"#utility.yul\":2668:2673   */\n          dup2\n            /* \"#utility.yul\":2664:2680   */\n          add\n            /* \"#utility.yul\":2713:2716   */\n          dup5\n            /* \"#utility.yul\":2704:2710   */\n          dup5\n            /* \"#utility.yul\":2699:2702   */\n          dup5\n            /* \"#utility.yul\":2695:2711   */\n          add\n            /* \"#utility.yul\":2692:2717   */\n          gt\n            /* \"#utility.yul\":2689:2801   */\n          iszero\n          tag_73\n          jumpi\n            /* \"#utility.yul\":2720:2799   */\n          tag_74\n          tag_28\n          jump\t// in\n        tag_74:\n            /* \"#utility.yul\":2689:2801   */\n        tag_73:\n            /* \"#utility.yul\":2810:2849   */\n          tag_75\n            /* \"#utility.yul\":2842:2848   */\n          dup5\n            /* \"#utility.yul\":2837:2840   */\n          dup3\n            /* \"#utility.yul\":2832:2835   */\n          dup6\n            /* \"#utility.yul\":2810:2849   */\n          tag_34\n          jump\t// in\n        tag_75:\n            /* \"#utility.yul\":2529:2855   */\n          pop\n            /* \"#utility.yul\":2434:2855   */\n          swap4\n          swap3\n          pop\n          pop\n          pop\n          jump\t// out\n            /* \"#utility.yul\":2875:3230   */\n        tag_36:\n            /* \"#utility.yul\":2942:2947   */\n          0x00\n            /* \"#utility.yul\":2991:2994   */\n          dup3\n            /* \"#utility.yul\":2984:2988   */\n          0x1f\n            /* \"#utility.yul\":2976:2982   */\n          dup4\n            /* \"#utility.yul\":2972:2989   */\n          add\n            /* \"#utility.yul\":2968:2995   */\n          slt\n            /* \"#utility.yul\":2958:3080   */\n          tag_77\n          jumpi\n            /* \"#utility.yul\":2999:3078   */\n          tag_78\n          tag_27\n          jump\t// in\n        tag_78:\n            /* \"#utility.yul\":2958:3080   */\n        tag_77:\n            /* \"#utility.yul\":3109:3115   */\n          dup2\n            /* \"#utility.yul\":3103:3116   */\n          mload\n            /* \"#utility.yul\":3134:3224   */\n          tag_79\n            /* \"#utility.yul\":3220:3223   */\n          dup5\n            /* \"#utility.yul\":3212:3218   */\n          dup3\n            /* \"#utility.yul\":3205:3209   */\n          0x20\n            /* \"#utility.yul\":3197:3203   */\n          dup7\n            /* \"#utility.yul\":3193:3210   */\n          add\n            /* \"#utility.yul\":3134:3224   */\n          tag_35\n          jump\t// in\n        tag_79:\n            /* \"#utility.yul\":3125:3224   */\n          swap2\n          pop\n            /* \"#utility.yul\":2948:3230   */\n          pop\n            /* \"#utility.yul\":2875:3230   */\n          swap3\n          swap2\n          pop\n          pop\n          jump\t// out\n            /* \"#utility.yul\":3236:3916   */\n        tag_3:\n            /* \"#utility.yul\":3325:3331   */\n          0x00\n            /* \"#utility.yul\":3333:3339   */\n          dup1\n            /* \"#utility.yul\":3382:3384   */\n          0x40\n            /* \"#utility.yul\":3370:3379   */\n          dup4\n            /* \"#utility.yul\":3361:3368   */\n          dup6\n            /* \"#utility.yul\":3357:3380   */\n          sub\n            /* \"#utility.yul\":3353:3385   */\n          slt\n            /* \"#utility.yul\":3350:3469   */\n          iszero\n          tag_81\n          jumpi\n            /* \"#utility.yul\":3388:3467   */\n          tag_82\n          tag_21\n          jump\t// in\n        tag_82:\n            /* \"#utility.yul\":3350:3469   */\n        tag_81:\n            /* \"#utility.yul\":3508:3509   */\n          0x00\n            /* \"#utility.yul\":3533:3597   */\n          tag_83\n            /* \"#utility.yul\":3589:3596   */\n          dup6\n            /* \"#utility.yul\":3580:3586   */\n          dup3\n            /* \"#utility.yul\":3569:3578   */\n          dup7\n            /* \"#utility.yul\":3565:3587   */\n          add\n            /* \"#utility.yul\":3533:3597   */\n          tag_26\n          jump\t// in\n        tag_83:\n            /* \"#utility.yul\":3523:3597   */\n          swap3\n          pop\n            /* \"#utility.yul\":3479:3607   */\n          pop\n            /* \"#utility.yul\":3667:3669   */\n          0x20\n            /* \"#utility.yul\":3656:3665   */\n          dup4\n            /* \"#utility.yul\":3652:3670   */\n          add\n            /* \"#utility.yul\":3646:3671   */\n          mload\n            /* \"#utility.yul\":3698:3716   */\n          0xffffffffffffffff\n            /* \"#utility.yul\":3690:3696   */\n          dup2\n            /* \"#utility.yul\":3687:3717   */\n          gt\n            /* \"#utility.yul\":3684:3801   */\n          iszero\n          tag_84\n          jumpi\n            /* \"#utility.yul\":3720:3799   */\n          tag_85\n          tag_22\n          jump\t// in\n        tag_85:\n            /* \"#utility.yul\":3684:3801   */\n        tag_84:\n            /* \"#utility.yul\":3825:3899   */\n          tag_86\n            /* \"#utility.yul\":3891:3898   */\n          dup6\n            /* \"#utility.yul\":3882:3888   */\n          dup3\n            /* \"#utility.yul\":3871:3880   */\n          dup7\n            /* \"#utility.yul\":3867:3889   */\n          add\n            /* \"#utility.yul\":3825:3899   */\n          tag_36\n          jump\t// in\n        tag_86:\n            /* \"#utility.yul\":3815:3899   */\n          swap2\n          pop\n            /* \"#utility.yul\":3617:3909   */\n          pop\n            /* \"#utility.yul\":3236:3916   */\n          swap3\n          pop\n          swap3\n          swap1\n          pop\n          jump\t// out\n            /* \"#utility.yul\":3922:4102   */\n        tag_37:\n            /* \"#utility.yul\":3970:4047   */\n          0x4e487b7100000000000000000000000000000000000000000000000000000000\n            /* \"#utility.yul\":3967:3968   */\n          0x00\n            /* \"#utility.yul\":3960:4048   */\n          mstore\n            /* \"#utility.yul\":4067:4071   */\n          0x22\n            /* \"#utility.yul\":4064:4065   */\n          0x04\n            /* \"#utility.yul\":4057:4072   */\n          mstore\n            /* \"#utility.yul\":4091:4095   */\n          0x24\n            /* \"#utility.yul\":4088:4089   */\n          0x00\n            /* \"#utility.yul\":4081:4096   */\n          revert\n            /* \"#utility.yul\":4108:4428   */\n        tag_10:\n            /* \"#utility.yul\":4152:4158   */\n          0x00\n            /* \"#utility.yul\":4189:4190   */\n          0x02\n            /* \"#utility.yul\":4183:4187   */\n          dup3\n            /* \"#utility.yul\":4179:4191   */\n          div\n            /* \"#utility.yul\":4169:4191   */\n          swap1\n          pop\n            /* \"#utility.yul\":4236:4237   */\n          0x01\n            /* \"#utility.yul\":4230:4234   */\n          dup3\n            /* \"#utility.yul\":4226:4238   */\n          and\n            /* \"#utility.yul\":4257:4275   */\n          dup1\n            /* \"#utility.yul\":4247:4328   */\n          tag_89\n          jumpi\n            /* \"#utility.yul\":4313:4317   */\n          0x7f\n            /* \"#utility.yul\":4305:4311   */\n          dup3\n            /* \"#utility.yul\":4301:4318   */\n          and\n            /* \"#utility.yul\":4291:4318   */\n          swap2\n          pop\n            /* \"#utility.yul\":4247:4328   */\n        tag_89:\n            /* \"#utility.yul\":4375:4377   */\n          0x20\n            /* \"#utility.yul\":4367:4373   */\n          dup3\n            /* \"#utility.yul\":4364:4378   */\n          lt\n            /* \"#utility.yul\":4344:4362   */\n          dup2\n            /* \"#utility.yul\":4341:4379   */\n          eq\n            /* \"#utility.yul\":4338:4422   */\n          iszero\n          tag_90\n          jumpi\n            /* \"#utility.yul\":4394:4412   */\n          tag_91\n          tag_37\n          jump\t// in\n        tag_91:\n            /* \"#utility.yul\":4338:4422   */\n        tag_90:\n            /* \"#utility.yul\":4159:4428   */\n          pop\n            /* \"#utility.yul\":4108:4428   */\n          swap2\n          swap1\n          pop\n          jump\t// out\n            /* \"Election.sol\":685:2840  contract Election{... */\n        tag_8:\n          dataSize(sub_0)\n          dup1\n          dataOffset(sub_0)\n          0x00\n          codecopy\n          0x00\n          return\n        stop\n\n        sub_0: assembly {\n                /* \"Election.sol\":685:2840  contract Election{... */\n              mstore(0x40, 0x80)\n              callvalue\n              dup1\n              iszero\n              tag_1\n              jumpi\n              0x00\n              dup1\n              revert\n            tag_1:\n              pop\n              jumpi(tag_2, lt(calldatasize, 0x04))\n              shr(0xe0, calldataload(0x00))\n              dup1\n              0x481c6a75\n              gt\n              tag_13\n              jumpi\n              dup1\n              0x481c6a75\n              eq\n              tag_8\n              jumpi\n              dup1\n              0x56a34768\n              eq\n              tag_9\n              jumpi\n              dup1\n              0x59f78468\n              eq\n              tag_10\n              jumpi\n              dup1\n              0x62d73eb8\n              eq\n              tag_11\n              jumpi\n              dup1\n              0xa8311aa8\n              eq\n              tag_12\n              jumpi\n              jump(tag_2)\n            tag_13:\n              dup1\n              0x024789a9\n              eq\n              tag_3\n              jumpi\n              dup1\n              0x06fdde03\n              eq\n              tag_4\n              jumpi\n              dup1\n              0x0d15fd77\n              eq\n              tag_5\n              jumpi\n              dup1\n              0x2c0a3f89\n              eq\n              tag_6\n              jumpi\n              dup1\n              0x4717f97c\n              eq\n              tag_7\n              jumpi\n            tag_2:\n              0x00\n              dup1\n              revert\n                /* \"Election.sol\":2251:2408  function getPartyDetails(uint partyIndex) public view returns(Party memory){... */\n            tag_3:\n              tag_14\n              0x04\n              dup1\n              calldatasize\n              sub\n              dup2\n              add\n              swap1\n              tag_15\n              swap2\n              swap1\n              tag_16\n              jump\t// in\n            tag_15:\n              tag_17\n              jump\t// in\n            tag_14:\n              mload(0x40)\n              tag_18\n              swap2\n              swap1\n              tag_19\n              jump\t// in\n            tag_18:\n              mload(0x40)\n              dup1\n              swap2\n              sub\n              swap1\n              return\n                /* \"Election.sol\":740:758  string public name */\n            tag_4:\n              tag_20\n              tag_21\n              jump\t// in\n            tag_20:\n              mload(0x40)\n              tag_22\n              swap2\n              swap1\n              tag_23\n              jump\t// in\n            tag_22:\n              mload(0x40)\n              dup1\n              swap2\n              sub\n              swap1\n              return\n                /* \"Election.sol\":711:733  uint public totalVotes */\n            tag_5:\n              tag_24\n              tag_25\n              jump\t// in\n            tag_24:\n              mload(0x40)\n              tag_26\n              swap2\n              swap1\n              tag_27\n              jump\t// in\n            tag_26:\n              mload(0x40)\n              dup1\n              swap2\n              sub\n              swap1\n              return\n                /* \"Election.sol\":1964:2239  function castVote(uint aadhaar, uint partyIndex) public {... */\n            tag_6:\n              tag_28\n              0x04\n              dup1\n              calldatasize\n              sub\n              dup2\n              add\n              swap1\n              tag_29\n              swap2\n              swap1\n              tag_30\n              jump\t// in\n            tag_29:\n              tag_31\n              jump\t// in\n            tag_28:\n              stop\n                /* \"Election.sol\":2420:2548  function getResults() public view returns(uint[] memory){... */\n            tag_7:\n              tag_32\n              tag_33\n              jump\t// in\n            tag_32:\n              mload(0x40)\n              tag_34\n              swap2\n              swap1\n              tag_35\n              jump\t// in\n            tag_34:\n              mload(0x40)\n              dup1\n              swap2\n              sub\n              swap1\n              return\n                /* \"Election.sol\":771:793  address public manager */\n            tag_8:\n              tag_36\n              tag_37\n              jump\t// in\n            tag_36:\n              mload(0x40)\n              tag_38\n              swap2\n              swap1\n              tag_39\n              jump\t// in\n            tag_38:\n              mload(0x40)\n              dup1\n              swap2\n              sub\n              swap1\n              return\n                /* \"Election.sol\":1382:1850  function addParty(string memory partyName, string memory leaderName, uint membersCount, string memory region, string memory image) public restricted{... */\n            tag_9:\n              tag_40\n              0x04\n              dup1\n              calldatasize\n              sub\n              dup2\n              add\n              swap1\n              tag_41\n              swap2\n              swap1\n              tag_42\n              jump\t// in\n            tag_41:\n              tag_43\n              jump\t// in\n            tag_40:\n              stop\n                /* \"Election.sol\":2560:2673  function endElection() public restricted {... */\n            tag_10:\n              tag_44\n              tag_45\n              jump\t// in\n            tag_44:\n              stop\n                /* \"Election.sol\":2685:2837  function startElection() public restricted {... */\n            tag_11:\n              tag_46\n              tag_47\n              jump\t// in\n            tag_46:\n              stop\n                /* \"Election.sol\":1862:1952  function getParties() public view returns(Party[] memory){... */\n            tag_12:\n              tag_48\n              tag_49\n              jump\t// in\n            tag_48:\n              mload(0x40)\n              tag_50\n              swap2\n              swap1\n              tag_51\n              jump\t// in\n            tag_50:\n              mload(0x40)\n              dup1\n              swap2\n              sub\n              swap1\n              return\n                /* \"Election.sol\":2251:2408  function getPartyDetails(uint partyIndex) public view returns(Party memory){... */\n            tag_17:\n                /* \"Election.sol\":2313:2325  Party memory */\n              tag_52\n              tag_53\n              jump\t// in\n            tag_52:\n                /* \"Election.sol\":2337:2356  Party storage party */\n              0x00\n                /* \"Election.sol\":2358:2365  parties */\n              0x05\n                /* \"Election.sol\":2366:2376  partyIndex */\n              dup4\n                /* \"Election.sol\":2358:2377  parties[partyIndex] */\n              dup2\n              sload\n              dup2\n              lt\n              tag_55\n              jumpi\n              tag_56\n              tag_57\n              jump\t// in\n            tag_56:\n            tag_55:\n              swap1\n              0x00\n              mstore\n              keccak256(0x00, 0x20)\n              swap1\n              0x05\n              mul\n              add\n                /* \"Election.sol\":2337:2377  Party storage party= parties[partyIndex] */\n              swap1\n              pop\n                /* \"Election.sol\":2395:2400  party */\n              dup1\n                /* \"Election.sol\":2388:2400  return party */\n              mload(0x40)\n              dup1\n              0xa0\n              add\n              0x40\n              mstore\n              swap1\n              dup2\n              0x00\n              dup3\n              add\n              dup1\n              sload\n              tag_59\n              swap1\n              tag_60\n              jump\t// in\n            tag_59:\n              dup1\n              0x1f\n              add\n              0x20\n              dup1\n              swap2\n              div\n              mul\n              0x20\n              add\n              mload(0x40)\n              swap1\n              dup2\n              add\n              0x40\n              mstore\n              dup1\n              swap3\n              swap2\n              swap1\n              dup2\n              dup2\n              mstore\n              0x20\n              add\n              dup3\n              dup1\n              sload\n              tag_61\n              swap1\n              tag_60\n              jump\t// in\n            tag_61:\n              dup1\n              iszero\n              tag_62\n              jumpi\n              dup1\n              0x1f\n              lt\n              tag_63\n              jumpi\n              0x0100\n              dup1\n              dup4\n              sload\n              div\n              mul\n              dup4\n              mstore\n              swap2\n              0x20\n              add\n              swap2\n              jump(tag_62)\n            tag_63:\n              dup3\n              add\n              swap2\n              swap1\n              0x00\n              mstore\n              keccak256(0x00, 0x20)\n              swap1\n            tag_64:\n              dup2\n              sload\n              dup2\n              mstore\n              swap1\n              0x01\n              add\n              swap1\n              0x20\n              add\n              dup1\n              dup4\n              gt\n              tag_64\n              jumpi\n              dup3\n              swap1\n              sub\n              0x1f\n              and\n              dup3\n              add\n              swap2\n            tag_62:\n              pop\n              pop\n              pop\n              pop\n              pop\n              dup2\n              mstore\n              0x20\n              add\n              0x01\n              dup3\n              add\n              dup1\n              sload\n              tag_65\n              swap1\n              tag_60\n              jump\t// in\n            tag_65:\n              dup1\n              0x1f\n              add\n              0x20\n              dup1\n              swap2\n              div\n              mul\n              0x20\n              add\n              mload(0x40)\n              swap1\n              dup2\n              add\n              0x40\n              mstore\n              dup1\n              swap3\n              swap2\n              swap1\n              dup2\n              dup2\n              mstore\n              0x20\n              add\n              dup3\n              dup1\n              sload\n              tag_66\n              swap1\n              tag_60\n              jump\t// in\n            tag_66:\n              dup1\n              iszero\n              tag_67\n              jumpi\n              dup1\n              0x1f\n              lt\n              tag_68\n              jumpi\n              0x0100\n              dup1\n              dup4\n              sload\n              div\n              mul\n              dup4\n              mstore\n              swap2\n              0x20\n              add\n              swap2\n              jump(tag_67)\n            tag_68:\n              dup3\n              add\n              swap2\n              swap1\n              0x00\n              mstore\n              keccak256(0x00, 0x20)\n              swap1\n            tag_69:\n              dup2\n              sload\n              dup2\n              mstore\n              swap1\n              0x01\n              add\n              swap1\n              0x20\n              add\n              dup1\n              dup4\n              gt\n              tag_69\n              jumpi\n              dup3\n              swap1\n              sub\n              0x1f\n              and\n              dup3\n              add\n              swap2\n            tag_67:\n              pop\n              pop\n              pop\n              pop\n              pop\n              dup2\n              mstore\n              0x20\n              add\n              0x02\n              dup3\n              add\n              sload\n              dup2\n              mstore\n              0x20\n              add\n              0x03\n              dup3\n              add\n              dup1\n              sload\n              tag_70\n              swap1\n              tag_60\n              jump\t// in\n            tag_70:\n              dup1\n              0x1f\n              add\n              0x20\n              dup1\n              swap2\n              div\n              mul\n              0x20\n              add\n              mload(0x40)\n              swap1\n              dup2\n              add\n              0x40\n              mstore\n              dup1\n              swap3\n              swap2\n              swap1\n              dup2\n              dup2\n              mstore\n              0x20\n              add\n              dup3\n              dup1\n              sload\n              tag_71\n              swap1\n              tag_60\n              jump\t// in\n            tag_71:\n              dup1\n              iszero\n              tag_72\n              jumpi\n              dup1\n              0x1f\n              lt\n              tag_73\n              jumpi\n              0x0100\n              dup1\n              dup4\n              sload\n              div\n              mul\n              dup4\n              mstore\n              swap2\n              0x20\n              add\n              swap2\n              jump(tag_72)\n            tag_73:\n              dup3\n              add\n              swap2\n              swap1\n              0x00\n              mstore\n              keccak256(0x00, 0x20)\n              swap1\n            tag_74:\n              dup2\n              sload\n              dup2\n              mstore\n              swap1\n              0x01\n              add\n              swap1\n              0x20\n              add\n              dup1\n              dup4\n              gt\n              tag_74\n              jumpi\n              dup3\n              swap1\n              sub\n              0x1f\n              and\n              dup3\n              add\n              swap2\n            tag_72:\n              pop\n              pop\n              pop\n              pop\n              pop\n              dup2\n              mstore\n              0x20\n              add\n              0x04\n              dup3\n              add\n              dup1\n              sload\n              tag_75\n              swap1\n              tag_60\n              jump\t// in\n            tag_75:\n              dup1\n              0x1f\n              add\n              0x20\n              dup1\n              swap2\n              div\n              mul\n              0x20\n              add\n              mload(0x40)\n              swap1\n              dup2\n              add\n              0x40\n              mstore\n              dup1\n              swap3\n              swap2\n              swap1\n              dup2\n              dup2\n              mstore\n              0x20\n              add\n              dup3\n              dup1\n              sload\n              tag_76\n              swap1\n              tag_60\n              jump\t// in\n            tag_76:\n              dup1\n              iszero\n              tag_77\n              jumpi\n              dup1\n              0x1f\n              lt\n              tag_78\n              jumpi\n              0x0100\n              dup1\n              dup4\n              sload\n              div\n              mul\n              dup4\n              mstore\n              swap2\n              0x20\n              add\n              swap2\n              jump(tag_77)\n            tag_78:\n              dup3\n              add\n              swap2\n              swap1\n              0x00\n              mstore\n              keccak256(0x00, 0x20)\n              swap1\n            tag_79:\n              dup2\n              sload\n              dup2\n              mstore\n              swap1\n              0x01\n              add\n              swap1\n              0x20\n              add\n              dup1\n              dup4\n              gt\n              tag_79\n              jumpi\n              dup3\n              swap1\n              sub\n              0x1f\n              and\n              dup3\n              add\n              swap2\n            tag_77:\n              pop\n              pop\n              pop\n              pop\n              pop\n              dup2\n              mstore\n              pop\n              pop\n              swap2\n              pop\n              pop\n                /* \"Election.sol\":2251:2408  function getPartyDetails(uint partyIndex) public view returns(Party memory){... */\n              swap2\n              swap1\n              pop\n              jump\t// out\n                /* \"Election.sol\":740:758  string public name */\n            tag_21:\n              0x01\n              dup1\n              sload\n              tag_80\n              swap1\n              tag_60\n              jump\t// in\n            tag_80:\n              dup1\n              0x1f\n              add\n              0x20\n              dup1\n              swap2\n              div\n              mul\n              0x20\n              add\n              mload(0x40)\n              swap1\n              dup2\n              add\n              0x40\n              mstore\n              dup1\n              swap3\n              swap2\n              swap1\n              dup2\n              dup2\n              mstore\n              0x20\n              add\n              dup3\n              dup1\n              sload\n              tag_81\n              swap1\n              tag_60\n              jump\t// in\n            tag_81:\n              dup1\n              iszero\n              tag_82\n              jumpi\n              dup1\n              0x1f\n              lt\n              tag_83\n              jumpi\n              0x0100\n              dup1\n              dup4\n              sload\n              div\n              mul\n              dup4\n              mstore\n              swap2\n              0x20\n              add\n              swap2\n              jump(tag_82)\n            tag_83:\n              dup3\n              add\n              swap2\n              swap1\n              0x00\n              mstore\n              keccak256(0x00, 0x20)\n              swap1\n            tag_84:\n              dup2\n              sload\n              dup2\n              mstore\n              swap1\n              0x01\n              add\n              swap1\n              0x20\n              add\n              dup1\n              dup4\n              gt\n              tag_84\n              jumpi\n              dup3\n              swap1\n              sub\n              0x1f\n              and\n              dup3\n              add\n              swap2\n            tag_82:\n              pop\n              pop\n              pop\n              pop\n              pop\n              dup2\n              jump\t// out\n                /* \"Election.sol\":711:733  uint public totalVotes */\n            tag_25:\n              sload(0x00)\n              dup2\n              jump\t// out\n                /* \"Election.sol\":1964:2239  function castVote(uint aadhaar, uint partyIndex) public {... */\n            tag_31:\n                /* \"Election.sol\":2050:2054  true */\n              0x01\n                /* \"Election.sol\":2039:2054  isStarted==true */\n              iszero\n              iszero\n                /* \"Election.sol\":2039:2048  isStarted */\n              0x04\n              0x01\n              swap1\n              sload\n              swap1\n              0x0100\n              exp\n              swap1\n              div\n              0xff\n              and\n                /* \"Election.sol\":2039:2054  isStarted==true */\n              iszero\n              iszero\n              eq\n                /* \"Election.sol\":2031:2055  require(isStarted==true) */\n              tag_86\n              jumpi\n              0x00\n              dup1\n              revert\n            tag_86:\n                /* \"Election.sol\":2090:2095  false */\n              0x00\n                /* \"Election.sol\":2074:2095  voted[aadhaar]==false */\n              iszero\n              iszero\n                /* \"Election.sol\":2074:2079  voted */\n              0x03\n                /* \"Election.sol\":2074:2088  voted[aadhaar] */\n              0x00\n                /* \"Election.sol\":2080:2087  aadhaar */\n              dup5\n                /* \"Election.sol\":2074:2088  voted[aadhaar] */\n              dup2\n              mstore\n              0x20\n              add\n              swap1\n              dup2\n              mstore\n              0x20\n              add\n              0x00\n              keccak256\n              0x00\n              swap1\n              sload\n              swap1\n              0x0100\n              exp\n              swap1\n              div\n              0xff\n              and\n                /* \"Election.sol\":2074:2095  voted[aadhaar]==false */\n              iszero\n              iszero\n              eq\n                /* \"Election.sol\":2066:2096  require(voted[aadhaar]==false) */\n              tag_87\n              jumpi\n              0x00\n              dup1\n              revert\n            tag_87:\n                /* \"Election.sol\":2128:2133  false */\n              0x00\n                /* \"Election.sol\":2115:2133  isCompleted==false */\n              iszero\n              iszero\n                /* \"Election.sol\":2115:2126  isCompleted */\n              0x04\n              0x00\n              swap1\n              sload\n              swap1\n              0x0100\n              exp\n              swap1\n              div\n              0xff\n              and\n                /* \"Election.sol\":2115:2133  isCompleted==false */\n              iszero\n              iszero\n              eq\n                /* \"Election.sol\":2107:2134  require(isCompleted==false) */\n              tag_88\n              jumpi\n              0x00\n              dup1\n              revert\n            tag_88:\n                /* \"Election.sol\":2170:2174  true */\n              0x01\n                /* \"Election.sol\":2155:2160  voted */\n              0x03\n                /* \"Election.sol\":2155:2169  voted[aadhaar] */\n              0x00\n                /* \"Election.sol\":2161:2168  aadhaar */\n              dup5\n                /* \"Election.sol\":2155:2169  voted[aadhaar] */\n              dup2\n              mstore\n              0x20\n              add\n              swap1\n              dup2\n              mstore\n              0x20\n              add\n              0x00\n              keccak256\n              0x00\n                /* \"Election.sol\":2155:2174  voted[aadhaar]=true */\n              0x0100\n              exp\n              dup2\n              sload\n              dup2\n              0xff\n              mul\n              not\n              and\n              swap1\n              dup4\n              iszero\n              iszero\n              mul\n              or\n              swap1\n              sstore\n              pop\n                /* \"Election.sol\":2185:2194  voteCount */\n              0x06\n                /* \"Election.sol\":2195:2205  partyIndex */\n              dup2\n                /* \"Election.sol\":2185:2206  voteCount[partyIndex] */\n              dup2\n              sload\n              dup2\n              lt\n              tag_89\n              jumpi\n              tag_90\n              tag_57\n              jump\t// in\n            tag_90:\n            tag_89:\n              swap1\n              0x00\n              mstore\n              keccak256(0x00, 0x20)\n              add\n              0x00\n                /* \"Election.sol\":2185:2208  voteCount[partyIndex]++ */\n              dup2\n              sload\n              dup1\n              swap3\n              swap2\n              swap1\n              tag_92\n              swap1\n              tag_93\n              jump\t// in\n            tag_92:\n              swap2\n              swap1\n              pop\n              sstore\n              pop\n                /* \"Election.sol\":2219:2229  totalVotes */\n              0x00\n              dup1\n                /* \"Election.sol\":2219:2231  totalVotes++ */\n              dup2\n              sload\n              dup1\n              swap3\n              swap2\n              swap1\n              tag_94\n              swap1\n              tag_93\n              jump\t// in\n            tag_94:\n              swap2\n              swap1\n              pop\n              sstore\n              pop\n                /* \"Election.sol\":1964:2239  function castVote(uint aadhaar, uint partyIndex) public {... */\n              pop\n              pop\n              jump\t// out\n                /* \"Election.sol\":2420:2548  function getResults() public view returns(uint[] memory){... */\n            tag_33:\n                /* \"Election.sol\":2462:2475  uint[] memory */\n              0x60\n                /* \"Election.sol\":2508:2512  true */\n              0x01\n                /* \"Election.sol\":2495:2512  isCompleted==true */\n              iszero\n              iszero\n                /* \"Election.sol\":2495:2506  isCompleted */\n              0x04\n              0x00\n              swap1\n              sload\n              swap1\n              0x0100\n              exp\n              swap1\n              div\n              0xff\n              and\n                /* \"Election.sol\":2495:2512  isCompleted==true */\n              iszero\n              iszero\n              eq\n                /* \"Election.sol\":2487:2513  require(isCompleted==true) */\n              tag_96\n              jumpi\n              0x00\n              dup1\n              revert\n            tag_96:\n                /* \"Election.sol\":2531:2540  voteCount */\n              0x06\n                /* \"Election.sol\":2524:2540  return voteCount */\n              dup1\n              sload\n              dup1\n              0x20\n              mul\n              0x20\n              add\n              mload(0x40)\n              swap1\n              dup2\n              add\n              0x40\n              mstore\n              dup1\n              swap3\n              swap2\n              swap1\n              dup2\n              dup2\n              mstore\n              0x20\n              add\n              dup3\n              dup1\n              sload\n              dup1\n              iszero\n              tag_97\n              jumpi\n              0x20\n              mul\n              dup3\n              add\n              swap2\n              swap1\n              0x00\n              mstore\n              keccak256(0x00, 0x20)\n              swap1\n            tag_98:\n              dup2\n              sload\n              dup2\n              mstore\n              0x20\n              add\n              swap1\n              0x01\n              add\n              swap1\n              dup1\n              dup4\n              gt\n              tag_98\n              jumpi\n            tag_97:\n              pop\n              pop\n              pop\n              pop\n              pop\n              swap1\n              pop\n                /* \"Election.sol\":2420:2548  function getResults() public view returns(uint[] memory){... */\n              swap1\n              jump\t// out\n                /* \"Election.sol\":771:793  address public manager */\n            tag_37:\n              0x02\n              0x00\n              swap1\n              sload\n              swap1\n              0x0100\n              exp\n              swap1\n              div\n              0xffffffffffffffffffffffffffffffffffffffff\n              and\n              dup2\n              jump\t// out\n                /* \"Election.sol\":1382:1850  function addParty(string memory partyName, string memory leaderName, uint membersCount, string memory region, string memory image) public restricted{... */\n            tag_43:\n                /* \"Election.sol\":945:952  manager */\n              0x02\n              0x00\n              swap1\n              sload\n              swap1\n              0x0100\n              exp\n              swap1\n              div\n              0xffffffffffffffffffffffffffffffffffffffff\n              and\n                /* \"Election.sol\":931:952  msg.sender == manager */\n              0xffffffffffffffffffffffffffffffffffffffff\n              and\n                /* \"Election.sol\":931:941  msg.sender */\n              caller\n                /* \"Election.sol\":931:952  msg.sender == manager */\n              0xffffffffffffffffffffffffffffffffffffffff\n              and\n              eq\n                /* \"Election.sol\":923:953  require(msg.sender == manager) */\n              tag_100\n              jumpi\n              0x00\n              dup1\n              revert\n            tag_100:\n                /* \"Election.sol\":1550:1559  isStarted */\n              0x04\n              0x01\n              swap1\n              sload\n              swap1\n              0x0100\n              exp\n              swap1\n              div\n              0xff\n              and\n                /* \"Election.sol\":1549:1559  !isStarted */\n              iszero\n                /* \"Election.sol\":1541:1560  require(!isStarted) */\n              tag_102\n              jumpi\n              0x00\n              dup1\n              revert\n            tag_102:\n                /* \"Election.sol\":1571:1589  Party memory party */\n              0x00\n                /* \"Election.sol\":1592:1774  Party({... */\n              mload(0x40)\n              dup1\n              0xa0\n              add\n              0x40\n              mstore\n              dup1\n                /* \"Election.sol\":1619:1628  partyName */\n              dup8\n                /* \"Election.sol\":1592:1774  Party({... */\n              dup2\n              mstore\n              0x20\n              add\n                /* \"Election.sol\":1655:1665  leaderName */\n              dup7\n                /* \"Election.sol\":1592:1774  Party({... */\n              dup2\n              mstore\n              0x20\n              add\n                /* \"Election.sol\":1694:1706  membersCount */\n              dup6\n                /* \"Election.sol\":1592:1774  Party({... */\n              dup2\n              mstore\n              0x20\n              add\n                /* \"Election.sol\":1729:1735  region */\n              dup5\n                /* \"Election.sol\":1592:1774  Party({... */\n              dup2\n              mstore\n              0x20\n              add\n                /* \"Election.sol\":1757:1762  image */\n              dup4\n                /* \"Election.sol\":1592:1774  Party({... */\n              dup2\n              mstore\n              pop\n                /* \"Election.sol\":1571:1774  Party memory party = Party({... */\n              swap1\n              pop\n                /* \"Election.sol\":1795:1802  parties */\n              0x05\n                /* \"Election.sol\":1808:1813  party */\n              dup2\n                /* \"Election.sol\":1795:1814  parties.push(party) */\n              swap1\n              dup1\n              0x01\n              dup2\n              sload\n              add\n              dup1\n              dup3\n              sstore\n              dup1\n              swap2\n              pop\n              pop\n              0x01\n              swap1\n              sub\n              swap1\n              0x00\n              mstore\n              keccak256(0x00, 0x20)\n              swap1\n              0x05\n              mul\n              add\n              0x00\n              swap1\n              swap2\n              swap1\n              swap2\n              swap1\n              swap2\n              pop\n              0x00\n              dup3\n              add\n              mload\n              dup2\n              0x00\n              add\n              swap1\n              dup1\n              mload\n              swap1\n              0x20\n              add\n              swap1\n              tag_104\n              swap3\n              swap2\n              swap1\n              tag_105\n              jump\t// in\n            tag_104:\n              pop\n              0x20\n              dup3\n              add\n              mload\n              dup2\n              0x01\n              add\n              swap1\n              dup1\n              mload\n              swap1\n              0x20\n              add\n              swap1\n              tag_106\n              swap3\n              swap2\n              swap1\n              tag_105\n              jump\t// in\n            tag_106:\n              pop\n              0x40\n              dup3\n              add\n              mload\n              dup2\n              0x02\n              add\n              sstore\n              0x60\n              dup3\n              add\n              mload\n              dup2\n              0x03\n              add\n              swap1\n              dup1\n              mload\n              swap1\n              0x20\n              add\n              swap1\n              tag_107\n              swap3\n              swap2\n              swap1\n              tag_105\n              jump\t// in\n            tag_107:\n              pop\n              0x80\n              dup3\n              add\n              mload\n              dup2\n              0x04\n              add\n              swap1\n              dup1\n              mload\n              swap1\n              0x20\n              add\n              swap1\n              tag_108\n              swap3\n              swap2\n              swap1\n              tag_105\n              jump\t// in\n            tag_108:\n              pop\n              pop\n              pop\n                /* \"Election.sol\":1825:1834  voteCount */\n              0x06\n                /* \"Election.sol\":1840:1841  0 */\n              0x00\n                /* \"Election.sol\":1825:1842  voteCount.push(0) */\n              swap1\n              dup1\n              0x01\n              dup2\n              sload\n              add\n              dup1\n              dup3\n              sstore\n              dup1\n              swap2\n              pop\n              pop\n              0x01\n              swap1\n              sub\n              swap1\n              0x00\n              mstore\n              keccak256(0x00, 0x20)\n              add\n              0x00\n              swap1\n              swap2\n              swap1\n              swap2\n              swap1\n              swap2\n              pop\n              sstore\n                /* \"Election.sol\":1530:1850  {... */\n              pop\n                /* \"Election.sol\":1382:1850  function addParty(string memory partyName, string memory leaderName, uint membersCount, string memory region, string memory image) public restricted{... */\n              pop\n              pop\n              pop\n              pop\n              pop\n              jump\t// out\n                /* \"Election.sol\":2560:2673  function endElection() public restricted {... */\n            tag_45:\n                /* \"Election.sol\":945:952  manager */\n              0x02\n              0x00\n              swap1\n              sload\n              swap1\n              0x0100\n              exp\n              swap1\n              div\n              0xffffffffffffffffffffffffffffffffffffffff\n              and\n                /* \"Election.sol\":931:952  msg.sender == manager */\n              0xffffffffffffffffffffffffffffffffffffffff\n              and\n                /* \"Election.sol\":931:941  msg.sender */\n              caller\n                /* \"Election.sol\":931:952  msg.sender == manager */\n              0xffffffffffffffffffffffffffffffffffffffff\n              and\n              eq\n                /* \"Election.sol\":923:953  require(msg.sender == manager) */\n              tag_111\n              jumpi\n              0x00\n              dup1\n              revert\n            tag_111:\n                /* \"Election.sol\":2631:2635  true */\n              0x01\n                /* \"Election.sol\":2620:2635  isStarted==true */\n              iszero\n              iszero\n                /* \"Election.sol\":2620:2629  isStarted */\n              0x04\n              0x01\n              swap1\n              sload\n              swap1\n              0x0100\n              exp\n              swap1\n              div\n              0xff\n              and\n                /* \"Election.sol\":2620:2635  isStarted==true */\n              iszero\n              iszero\n              eq\n                /* \"Election.sol\":2612:2636  require(isStarted==true) */\n              tag_113\n              jumpi\n              0x00\n              dup1\n              revert\n            tag_113:\n                /* \"Election.sol\":2661:2665  true */\n              0x01\n                /* \"Election.sol\":2647:2658  isCompleted */\n              0x04\n              0x00\n                /* \"Election.sol\":2647:2665  isCompleted = true */\n              0x0100\n              exp\n              dup2\n              sload\n              dup2\n              0xff\n              mul\n              not\n              and\n              swap1\n              dup4\n              iszero\n              iszero\n              mul\n              or\n              swap1\n              sstore\n              pop\n                /* \"Election.sol\":2560:2673  function endElection() public restricted {... */\n              jump\t// out\n                /* \"Election.sol\":2685:2837  function startElection() public restricted {... */\n            tag_47:\n                /* \"Election.sol\":945:952  manager */\n              0x02\n              0x00\n              swap1\n              sload\n              swap1\n              0x0100\n              exp\n              swap1\n              div\n              0xffffffffffffffffffffffffffffffffffffffff\n              and\n                /* \"Election.sol\":931:952  msg.sender == manager */\n              0xffffffffffffffffffffffffffffffffffffffff\n              and\n                /* \"Election.sol\":931:941  msg.sender */\n              caller\n                /* \"Election.sol\":931:952  msg.sender == manager */\n              0xffffffffffffffffffffffffffffffffffffffff\n              and\n              eq\n                /* \"Election.sol\":923:953  require(msg.sender == manager) */\n              tag_115\n              jumpi\n              0x00\n              dup1\n              revert\n            tag_115:\n                /* \"Election.sol\":2760:2765  false */\n              0x00\n                /* \"Election.sol\":2747:2765  isCompleted==false */\n              iszero\n              iszero\n                /* \"Election.sol\":2747:2758  isCompleted */\n              0x04\n              0x00\n              swap1\n              sload\n              swap1\n              0x0100\n              exp\n              swap1\n              div\n              0xff\n              and\n                /* \"Election.sol\":2747:2765  isCompleted==false */\n              iszero\n              iszero\n              eq\n                /* \"Election.sol\":2739:2766  require(isCompleted==false) */\n              tag_117\n              jumpi\n              0x00\n              dup1\n              revert\n            tag_117:\n                /* \"Election.sol\":2796:2801  false */\n              0x00\n                /* \"Election.sol\":2785:2801  isStarted==false */\n              iszero\n              iszero\n                /* \"Election.sol\":2785:2794  isStarted */\n              0x04\n              0x01\n              swap1\n              sload\n              swap1\n              0x0100\n              exp\n              swap1\n              div\n              0xff\n              and\n                /* \"Election.sol\":2785:2801  isStarted==false */\n              iszero\n              iszero\n              eq\n                /* \"Election.sol\":2777:2802  require(isStarted==false) */\n              tag_118\n              jumpi\n              0x00\n              dup1\n              revert\n            tag_118:\n                /* \"Election.sol\":2825:2829  true */\n              0x01\n                /* \"Election.sol\":2813:2822  isStarted */\n              0x04\n              0x01\n                /* \"Election.sol\":2813:2829  isStarted = true */\n              0x0100\n              exp\n              dup2\n              sload\n              dup2\n              0xff\n              mul\n              not\n              and\n              swap1\n              dup4\n              iszero\n              iszero\n              mul\n              or\n              swap1\n              sstore\n              pop\n                /* \"Election.sol\":2685:2837  function startElection() public restricted {... */\n              jump\t// out\n                /* \"Election.sol\":1862:1952  function getParties() public view returns(Party[] memory){... */\n            tag_49:\n                /* \"Election.sol\":1904:1918  Party[] memory */\n              0x60\n                /* \"Election.sol\":1937:1944  parties */\n              0x05\n                /* \"Election.sol\":1930:1944  return parties */\n              dup1\n              sload\n              dup1\n              0x20\n              mul\n              0x20\n              add\n              mload(0x40)\n              swap1\n              dup2\n              add\n              0x40\n              mstore\n              dup1\n              swap3\n              swap2\n              swap1\n              dup2\n              dup2\n              mstore\n              0x20\n              add\n              0x00\n              swap1\n            tag_120:\n              dup3\n              dup3\n              lt\n              iszero\n              tag_121\n              jumpi\n              dup4\n              dup3\n              swap1\n              0x00\n              mstore\n              keccak256(0x00, 0x20)\n              swap1\n              0x05\n              mul\n              add\n              mload(0x40)\n              dup1\n              0xa0\n              add\n              0x40\n              mstore\n              swap1\n              dup2\n              0x00\n              dup3\n              add\n              dup1\n              sload\n              tag_123\n              swap1\n              tag_60\n              jump\t// in\n            tag_123:\n              dup1\n              0x1f\n              add\n              0x20\n              dup1\n              swap2\n              div\n              mul\n              0x20\n              add\n              mload(0x40)\n              swap1\n              dup2\n              add\n              0x40\n              mstore\n              dup1\n              swap3\n              swap2\n              swap1\n              dup2\n              dup2\n              mstore\n              0x20\n              add\n              dup3\n              dup1\n              sload\n              tag_124\n              swap1\n              tag_60\n              jump\t// in\n            tag_124:\n              dup1\n              iszero\n              tag_125\n              jumpi\n              dup1\n              0x1f\n              lt\n              tag_126\n              jumpi\n              0x0100\n              dup1\n              dup4\n              sload\n              div\n              mul\n              dup4\n              mstore\n              swap2\n              0x20\n              add\n              swap2\n              jump(tag_125)\n            tag_126:\n              dup3\n              add\n              swap2\n              swap1\n              0x00\n              mstore\n              keccak256(0x00, 0x20)\n              swap1\n            tag_127:\n              dup2\n              sload\n              dup2\n              mstore\n              swap1\n              0x01\n              add\n              swap1\n              0x20\n              add\n              dup1\n              dup4\n              gt\n              tag_127\n              jumpi\n              dup3\n              swap1\n              sub\n              0x1f\n              and\n              dup3\n              add\n              swap2\n            tag_125:\n              pop\n              pop\n              pop\n              pop\n              pop\n              dup2\n              mstore\n              0x20\n              add\n              0x01\n              dup3\n              add\n              dup1\n              sload\n              tag_128\n              swap1\n              tag_60\n              jump\t// in\n            tag_128:\n              dup1\n              0x1f\n              add\n              0x20\n              dup1\n              swap2\n              div\n              mul\n              0x20\n              add\n              mload(0x40)\n              swap1\n              dup2\n              add\n              0x40\n              mstore\n              dup1\n              swap3\n              swap2\n              swap1\n              dup2\n              dup2\n              mstore\n              0x20\n              add\n              dup3\n              dup1\n              sload\n              tag_129\n              swap1\n              tag_60\n              jump\t// in\n            tag_129:\n              dup1\n              iszero\n              tag_130\n              jumpi\n              dup1\n              0x1f\n              lt\n              tag_131\n              jumpi\n              0x0100\n              dup1\n              dup4\n              sload\n              div\n              mul\n              dup4\n              mstore\n              swap2\n              0x20\n              add\n              swap2\n              jump(tag_130)\n            tag_131:\n              dup3\n              add\n              swap2\n              swap1\n              0x00\n              mstore\n              keccak256(0x00, 0x20)\n              swap1\n            tag_132:\n              dup2\n              sload\n              dup2\n              mstore\n              swap1\n              0x01\n              add\n              swap1\n              0x20\n              add\n              dup1\n              dup4\n              gt\n              tag_132\n              jumpi\n              dup3\n              swap1\n              sub\n              0x1f\n              and\n              dup3\n              add\n              swap2\n            tag_130:\n              pop\n              pop\n              pop\n              pop\n              pop\n              dup2\n              mstore\n              0x20\n              add\n              0x02\n              dup3\n              add\n              sload\n              dup2\n              mstore\n              0x20\n              add\n              0x03\n              dup3\n              add\n              dup1\n              sload\n              tag_133\n              swap1\n              tag_60\n              jump\t// in\n            tag_133:\n              dup1\n              0x1f\n              add\n              0x20\n              dup1\n              swap2\n              div\n              mul\n              0x20\n              add\n              mload(0x40)\n              swap1\n              dup2\n              add\n              0x40\n              mstore\n              dup1\n              swap3\n              swap2\n              swap1\n              dup2\n              dup2\n              mstore\n              0x20\n              add\n              dup3\n              dup1\n              sload\n              tag_134\n              swap1\n              tag_60\n              jump\t// in\n            tag_134:\n              dup1\n              iszero\n              tag_135\n              jumpi\n              dup1\n              0x1f\n              lt\n              tag_136\n              jumpi\n              0x0100\n              dup1\n              dup4\n              sload\n              div\n              mul\n              dup4\n              mstore\n              swap2\n              0x20\n              add\n              swap2\n              jump(tag_135)\n            tag_136:\n              dup3\n              add\n              swap2\n              swap1\n              0x00\n              mstore\n              keccak256(0x00, 0x20)\n              swap1\n            tag_137:\n              dup2\n              sload\n              dup2\n              mstore\n              swap1\n              0x01\n              add\n              swap1\n              0x20\n              add\n              dup1\n              dup4\n              gt\n              tag_137\n              jumpi\n              dup3\n              swap1\n              sub\n              0x1f\n              and\n              dup3\n              add\n              swap2\n            tag_135:\n              pop\n              pop\n              pop\n              pop\n              pop\n              dup2\n              mstore\n              0x20\n              add\n              0x04\n              dup3\n              add\n              dup1\n              sload\n              tag_138\n              swap1\n              tag_60\n              jump\t// in\n            tag_138:\n              dup1\n              0x1f\n              add\n              0x20\n              dup1\n              swap2\n              div\n              mul\n              0x20\n              add\n              mload(0x40)\n              swap1\n              dup2\n              add\n              0x40\n              mstore\n              dup1\n              swap3\n              swap2\n              swap1\n              dup2\n              dup2\n              mstore\n              0x20\n              add\n              dup3\n              dup1\n              sload\n              tag_139\n              swap1\n              tag_60\n              jump\t// in\n            tag_139:\n              dup1\n              iszero\n              tag_140\n              jumpi\n              dup1\n              0x1f\n              lt\n              tag_141\n              jumpi\n              0x0100\n              dup1\n              dup4\n              sload\n              div\n              mul\n              dup4\n              mstore\n              swap2\n              0x20\n              add\n              swap2\n              jump(tag_140)\n            tag_141:\n              dup3\n              add\n              swap2\n              swap1\n              0x00\n              mstore\n              keccak256(0x00, 0x20)\n              swap1\n            tag_142:\n              dup2\n              sload\n              dup2\n              mstore\n              swap1\n              0x01\n              add\n              swap1\n              0x20\n              add\n              dup1\n              dup4\n              gt\n              tag_142\n              jumpi\n              dup3\n              swap1\n              sub\n              0x1f\n              and\n              dup3\n              add\n              swap2\n            tag_140:\n              pop\n              pop\n              pop\n              pop\n              pop\n              dup2\n              mstore\n              pop\n              pop\n              dup2\n              mstore\n              0x20\n              add\n              swap1\n              0x01\n              add\n              swap1\n              jump(tag_120)\n            tag_121:\n              pop\n              pop\n              pop\n              pop\n              swap1\n              pop\n                /* \"Election.sol\":1862:1952  function getParties() public view returns(Party[] memory){... */\n              swap1\n              jump\t// out\n            tag_53:\n              mload(0x40)\n              dup1\n              0xa0\n              add\n              0x40\n              mstore\n              dup1\n              0x60\n              dup2\n              mstore\n              0x20\n              add\n              0x60\n              dup2\n              mstore\n              0x20\n              add\n              0x00\n              dup2\n              mstore\n              0x20\n              add\n              0x60\n              dup2\n              mstore\n              0x20\n              add\n              0x60\n              dup2\n              mstore\n              pop\n              swap1\n              jump\t// out\n            tag_105:\n              dup3\n              dup1\n              sload\n              tag_143\n              swap1\n              tag_60\n              jump\t// in\n            tag_143:\n              swap1\n              0x00\n              mstore\n              keccak256(0x00, 0x20)\n              swap1\n              0x1f\n              add\n              0x20\n              swap1\n              div\n              dup2\n              add\n              swap3\n              dup3\n              tag_145\n              jumpi\n              0x00\n              dup6\n              sstore\n              jump(tag_144)\n            tag_145:\n              dup3\n              0x1f\n              lt\n              tag_146\n              jumpi\n              dup1\n              mload\n              not(0xff)\n              and\n              dup4\n              dup1\n              add\n              or\n              dup6\n              sstore\n              jump(tag_144)\n            tag_146:\n              dup3\n              dup1\n              add\n              0x01\n              add\n              dup6\n              sstore\n              dup3\n              iszero\n              tag_144\n              jumpi\n              swap2\n              dup3\n              add\n            tag_147:\n              dup3\n              dup2\n              gt\n              iszero\n              tag_148\n              jumpi\n              dup3\n              mload\n              dup3\n              sstore\n              swap2\n              0x20\n              add\n              swap2\n              swap1\n              0x01\n              add\n              swap1\n              jump(tag_147)\n            tag_148:\n            tag_144:\n              pop\n              swap1\n              pop\n              tag_149\n              swap2\n              swap1\n              tag_150\n              jump\t// in\n            tag_149:\n              pop\n              swap1\n              jump\t// out\n            tag_150:\n            tag_151:\n              dup1\n              dup3\n              gt\n              iszero\n              tag_152\n              jumpi\n              0x00\n              dup2\n              0x00\n              swap1\n              sstore\n              pop\n              0x01\n              add\n              jump(tag_151)\n            tag_152:\n              pop\n              swap1\n              jump\t// out\n                /* \"#utility.yul\":7:82   */\n            tag_153:\n                /* \"#utility.yul\":40:46   */\n              0x00\n                /* \"#utility.yul\":73:75   */\n              0x40\n                /* \"#utility.yul\":67:76   */\n              mload\n                /* \"#utility.yul\":57:76   */\n              swap1\n              pop\n                /* \"#utility.yul\":7:82   */\n              swap1\n              jump\t// out\n                /* \"#utility.yul\":88:205   */\n            tag_154:\n                /* \"#utility.yul\":197:198   */\n              0x00\n                /* \"#utility.yul\":194:195   */\n              dup1\n                /* \"#utility.yul\":187:199   */\n              revert\n                /* \"#utility.yul\":211:328   */\n            tag_155:\n                /* \"#utility.yul\":320:321   */\n              0x00\n                /* \"#utility.yul\":317:318   */\n              dup1\n                /* \"#utility.yul\":310:322   */\n              revert\n                /* \"#utility.yul\":334:411   */\n            tag_156:\n                /* \"#utility.yul\":371:378   */\n              0x00\n                /* \"#utility.yul\":400:405   */\n              dup2\n                /* \"#utility.yul\":389:405   */\n              swap1\n              pop\n                /* \"#utility.yul\":334:411   */\n              swap2\n              swap1\n              pop\n              jump\t// out\n                /* \"#utility.yul\":417:539   */\n            tag_157:\n                /* \"#utility.yul\":490:514   */\n              tag_202\n                /* \"#utility.yul\":508:513   */\n              dup2\n                /* \"#utility.yul\":490:514   */\n              tag_156\n              jump\t// in\n            tag_202:\n                /* \"#utility.yul\":483:488   */\n              dup2\n                /* \"#utility.yul\":480:515   */\n              eq\n                /* \"#utility.yul\":470:533   */\n              tag_203\n              jumpi\n                /* \"#utility.yul\":529:530   */\n              0x00\n                /* \"#utility.yul\":526:527   */\n              dup1\n                /* \"#utility.yul\":519:531   */\n              revert\n                /* \"#utility.yul\":470:533   */\n            tag_203:\n                /* \"#utility.yul\":417:539   */\n              pop\n              jump\t// out\n                /* \"#utility.yul\":545:684   */\n            tag_158:\n                /* \"#utility.yul\":591:596   */\n              0x00\n                /* \"#utility.yul\":629:635   */\n              dup2\n                /* \"#utility.yul\":616:636   */\n              calldataload\n                /* \"#utility.yul\":607:636   */\n              swap1\n              pop\n                /* \"#utility.yul\":645:678   */\n              tag_205\n                /* \"#utility.yul\":672:677   */\n              dup2\n                /* \"#utility.yul\":645:678   */\n              tag_157\n              jump\t// in\n            tag_205:\n                /* \"#utility.yul\":545:684   */\n              swap3\n              swap2\n              pop\n              pop\n              jump\t// out\n                /* \"#utility.yul\":690:1019   */\n            tag_16:\n                /* \"#utility.yul\":749:755   */\n              0x00\n                /* \"#utility.yul\":798:800   */\n              0x20\n                /* \"#utility.yul\":786:795   */\n              dup3\n                /* \"#utility.yul\":777:784   */\n              dup5\n                /* \"#utility.yul\":773:796   */\n              sub\n                /* \"#utility.yul\":769:801   */\n              slt\n                /* \"#utility.yul\":766:885   */\n              iszero\n              tag_207\n              jumpi\n                /* \"#utility.yul\":804:883   */\n              tag_208\n              tag_154\n              jump\t// in\n            tag_208:\n                /* \"#utility.yul\":766:885   */\n            tag_207:\n                /* \"#utility.yul\":924:925   */\n              0x00\n                /* \"#utility.yul\":949:1002   */\n              tag_209\n                /* \"#utility.yul\":994:1001   */\n              dup5\n                /* \"#utility.yul\":985:991   */\n              dup3\n                /* \"#utility.yul\":974:983   */\n              dup6\n                /* \"#utility.yul\":970:992   */\n              add\n                /* \"#utility.yul\":949:1002   */\n              tag_158\n              jump\t// in\n            tag_209:\n                /* \"#utility.yul\":939:1002   */\n              swap2\n              pop\n                /* \"#utility.yul\":895:1012   */\n              pop\n                /* \"#utility.yul\":690:1019   */\n              swap3\n              swap2\n              pop\n              pop\n              jump\t// out\n                /* \"#utility.yul\":1025:1124   */\n            tag_159:\n                /* \"#utility.yul\":1077:1083   */\n              0x00\n                /* \"#utility.yul\":1111:1116   */\n              dup2\n                /* \"#utility.yul\":1105:1117   */\n              mload\n                /* \"#utility.yul\":1095:1117   */\n              swap1\n              pop\n                /* \"#utility.yul\":1025:1124   */\n              swap2\n              swap1\n              pop\n              jump\t// out\n                /* \"#utility.yul\":1130:1289   */\n            tag_160:\n                /* \"#utility.yul\":1204:1215   */\n              0x00\n                /* \"#utility.yul\":1238:1244   */\n              dup3\n                /* \"#utility.yul\":1233:1236   */\n              dup3\n                /* \"#utility.yul\":1226:1245   */\n              mstore\n                /* \"#utility.yul\":1278:1282   */\n              0x20\n                /* \"#utility.yul\":1273:1276   */\n              dup3\n                /* \"#utility.yul\":1269:1283   */\n              add\n                /* \"#utility.yul\":1254:1283   */\n              swap1\n              pop\n                /* \"#utility.yul\":1130:1289   */\n              swap3\n              swap2\n              pop\n              pop\n              jump\t// out\n                /* \"#utility.yul\":1295:1602   */\n            tag_161:\n                /* \"#utility.yul\":1363:1364   */\n              0x00\n                /* \"#utility.yul\":1373:1486   */\n            tag_213:\n                /* \"#utility.yul\":1387:1393   */\n              dup4\n                /* \"#utility.yul\":1384:1385   */\n              dup2\n                /* \"#utility.yul\":1381:1394   */\n              lt\n                /* \"#utility.yul\":1373:1486   */\n              iszero\n              tag_215\n              jumpi\n                /* \"#utility.yul\":1472:1473   */\n              dup1\n                /* \"#utility.yul\":1467:1470   */\n              dup3\n                /* \"#utility.yul\":1463:1474   */\n              add\n                /* \"#utility.yul\":1457:1475   */\n              mload\n                /* \"#utility.yul\":1453:1454   */\n              dup2\n                /* \"#utility.yul\":1448:1451   */\n              dup5\n                /* \"#utility.yul\":1444:1455   */\n              add\n                /* \"#utility.yul\":1437:1476   */\n              mstore\n                /* \"#utility.yul\":1409:1411   */\n              0x20\n                /* \"#utility.yul\":1406:1407   */\n              dup2\n                /* \"#utility.yul\":1402:1412   */\n              add\n                /* \"#utility.yul\":1397:1412   */\n              swap1\n              pop\n                /* \"#utility.yul\":1373:1486   */\n              jump(tag_213)\n            tag_215:\n                /* \"#utility.yul\":1504:1510   */\n              dup4\n                /* \"#utility.yul\":1501:1502   */\n              dup2\n                /* \"#utility.yul\":1498:1511   */\n              gt\n                /* \"#utility.yul\":1495:1596   */\n              iszero\n              tag_216\n              jumpi\n                /* \"#utility.yul\":1584:1585   */\n              0x00\n                /* \"#utility.yul\":1575:1581   */\n              dup5\n                /* \"#utility.yul\":1570:1573   */\n              dup5\n                /* \"#utility.yul\":1566:1582   */\n              add\n                /* \"#utility.yul\":1559:1586   */\n              mstore\n                /* \"#utility.yul\":1495:1596   */\n            tag_216:\n                /* \"#utility.yul\":1344:1602   */\n              pop\n                /* \"#utility.yul\":1295:1602   */\n              pop\n              pop\n              pop\n              jump\t// out\n                /* \"#utility.yul\":1608:1710   */\n            tag_162:\n                /* \"#utility.yul\":1649:1655   */\n              0x00\n                /* \"#utility.yul\":1700:1702   */\n              0x1f\n                /* \"#utility.yul\":1696:1703   */\n              not\n                /* \"#utility.yul\":1691:1693   */\n              0x1f\n                /* \"#utility.yul\":1684:1689   */\n              dup4\n                /* \"#utility.yul\":1680:1694   */\n              add\n                /* \"#utility.yul\":1676:1704   */\n              and\n                /* \"#utility.yul\":1666:1704   */\n              swap1\n              pop\n                /* \"#utility.yul\":1608:1710   */\n              swap2\n              swap1\n              pop\n              jump\t// out\n                /* \"#utility.yul\":1716:2060   */\n            tag_163:\n                /* \"#utility.yul\":1794:1797   */\n              0x00\n                /* \"#utility.yul\":1822:1861   */\n              tag_219\n                /* \"#utility.yul\":1855:1860   */\n              dup3\n                /* \"#utility.yul\":1822:1861   */\n              tag_159\n              jump\t// in\n            tag_219:\n                /* \"#utility.yul\":1877:1938   */\n              tag_220\n                /* \"#utility.yul\":1931:1937   */\n              dup2\n                /* \"#utility.yul\":1926:1929   */\n              dup6\n                /* \"#utility.yul\":1877:1938   */\n              tag_160\n              jump\t// in\n            tag_220:\n                /* \"#utility.yul\":1870:1938   */\n              swap4\n              pop\n                /* \"#utility.yul\":1947:1999   */\n              tag_221\n                /* \"#utility.yul\":1992:1998   */\n              dup2\n                /* \"#utility.yul\":1987:1990   */\n              dup6\n                /* \"#utility.yul\":1980:1984   */\n              0x20\n                /* \"#utility.yul\":1973:1978   */\n              dup7\n                /* \"#utility.yul\":1969:1985   */\n              add\n                /* \"#utility.yul\":1947:1999   */\n              tag_161\n              jump\t// in\n            tag_221:\n                /* \"#utility.yul\":2024:2053   */\n              tag_222\n                /* \"#utility.yul\":2046:2052   */\n              dup2\n                /* \"#utility.yul\":2024:2053   */\n              tag_162\n              jump\t// in\n            tag_222:\n                /* \"#utility.yul\":2019:2022   */\n              dup5\n                /* \"#utility.yul\":2015:2054   */\n              add\n                /* \"#utility.yul\":2008:2054   */\n              swap2\n              pop\n                /* \"#utility.yul\":1798:2060   */\n              pop\n                /* \"#utility.yul\":1716:2060   */\n              swap3\n              swap2\n              pop\n              pop\n              jump\t// out\n                /* \"#utility.yul\":2066:2174   */\n            tag_164:\n                /* \"#utility.yul\":2143:2167   */\n              tag_224\n                /* \"#utility.yul\":2161:2166   */\n              dup2\n                /* \"#utility.yul\":2143:2167   */\n              tag_156\n              jump\t// in\n            tag_224:\n                /* \"#utility.yul\":2138:2141   */\n              dup3\n                /* \"#utility.yul\":2131:2168   */\n              mstore\n                /* \"#utility.yul\":2066:2174   */\n              pop\n              pop\n              jump\t// out\n                /* \"#utility.yul\":2234:3586   */\n            tag_165:\n                /* \"#utility.yul\":2347:2350   */\n              0x00\n                /* \"#utility.yul\":2383:2387   */\n              0xa0\n                /* \"#utility.yul\":2378:2381   */\n              dup4\n                /* \"#utility.yul\":2374:2388   */\n              add\n                /* \"#utility.yul\":2470:2474   */\n              0x00\n                /* \"#utility.yul\":2463:2468   */\n              dup4\n                /* \"#utility.yul\":2459:2475   */\n              add\n                /* \"#utility.yul\":2453:2476   */\n              mload\n                /* \"#utility.yul\":2523:2526   */\n              dup5\n                /* \"#utility.yul\":2517:2521   */\n              dup3\n                /* \"#utility.yul\":2513:2527   */\n              sub\n                /* \"#utility.yul\":2506:2510   */\n              0x00\n                /* \"#utility.yul\":2501:2504   */\n              dup7\n                /* \"#utility.yul\":2497:2511   */\n              add\n                /* \"#utility.yul\":2490:2528   */\n              mstore\n                /* \"#utility.yul\":2549:2622   */\n              tag_226\n                /* \"#utility.yul\":2617:2621   */\n              dup3\n                /* \"#utility.yul\":2603:2615   */\n              dup3\n                /* \"#utility.yul\":2549:2622   */\n              tag_163\n              jump\t// in\n            tag_226:\n                /* \"#utility.yul\":2541:2622   */\n              swap2\n              pop\n                /* \"#utility.yul\":2398:2633   */\n              pop\n                /* \"#utility.yul\":2721:2725   */\n              0x20\n                /* \"#utility.yul\":2714:2719   */\n              dup4\n                /* \"#utility.yul\":2710:2726   */\n              add\n                /* \"#utility.yul\":2704:2727   */\n              mload\n                /* \"#utility.yul\":2774:2777   */\n              dup5\n                /* \"#utility.yul\":2768:2772   */\n              dup3\n                /* \"#utility.yul\":2764:2778   */\n              sub\n                /* \"#utility.yul\":2757:2761   */\n              0x20\n                /* \"#utility.yul\":2752:2755   */\n              dup7\n                /* \"#utility.yul\":2748:2762   */\n              add\n                /* \"#utility.yul\":2741:2779   */\n              mstore\n                /* \"#utility.yul\":2800:2873   */\n              tag_227\n                /* \"#utility.yul\":2868:2872   */\n              dup3\n                /* \"#utility.yul\":2854:2866   */\n              dup3\n                /* \"#utility.yul\":2800:2873   */\n              tag_163\n              jump\t// in\n            tag_227:\n                /* \"#utility.yul\":2792:2873   */\n              swap2\n              pop\n                /* \"#utility.yul\":2643:2884   */\n              pop\n                /* \"#utility.yul\":2974:2978   */\n              0x40\n                /* \"#utility.yul\":2967:2972   */\n              dup4\n                /* \"#utility.yul\":2963:2979   */\n              add\n                /* \"#utility.yul\":2957:2980   */\n              mload\n                /* \"#utility.yul\":2993:3056   */\n              tag_228\n                /* \"#utility.yul\":3050:3054   */\n              0x40\n                /* \"#utility.yul\":3045:3048   */\n              dup7\n                /* \"#utility.yul\":3041:3055   */\n              add\n                /* \"#utility.yul\":3027:3039   */\n              dup3\n                /* \"#utility.yul\":2993:3056   */\n              tag_164\n              jump\t// in\n            tag_228:\n                /* \"#utility.yul\":2894:3066   */\n              pop\n                /* \"#utility.yul\":3150:3154   */\n              0x60\n                /* \"#utility.yul\":3143:3148   */\n              dup4\n                /* \"#utility.yul\":3139:3155   */\n              add\n                /* \"#utility.yul\":3133:3156   */\n              mload\n                /* \"#utility.yul\":3203:3206   */\n              dup5\n                /* \"#utility.yul\":3197:3201   */\n              dup3\n                /* \"#utility.yul\":3193:3207   */\n              sub\n                /* \"#utility.yul\":3186:3190   */\n              0x60\n                /* \"#utility.yul\":3181:3184   */\n              dup7\n                /* \"#utility.yul\":3177:3191   */\n              add\n                /* \"#utility.yul\":3170:3208   */\n              mstore\n                /* \"#utility.yul\":3229:3302   */\n              tag_229\n                /* \"#utility.yul\":3297:3301   */\n              dup3\n                /* \"#utility.yul\":3283:3295   */\n              dup3\n                /* \"#utility.yul\":3229:3302   */\n              tag_163\n              jump\t// in\n            tag_229:\n                /* \"#utility.yul\":3221:3302   */\n              swap2\n              pop\n                /* \"#utility.yul\":3076:3313   */\n              pop\n                /* \"#utility.yul\":3396:3400   */\n              0x80\n                /* \"#utility.yul\":3389:3394   */\n              dup4\n                /* \"#utility.yul\":3385:3401   */\n              add\n                /* \"#utility.yul\":3379:3402   */\n              mload\n                /* \"#utility.yul\":3449:3452   */\n              dup5\n                /* \"#utility.yul\":3443:3447   */\n              dup3\n                /* \"#utility.yul\":3439:3453   */\n              sub\n                /* \"#utility.yul\":3432:3436   */\n              0x80\n                /* \"#utility.yul\":3427:3430   */\n              dup7\n                /* \"#utility.yul\":3423:3437   */\n              add\n                /* \"#utility.yul\":3416:3454   */\n              mstore\n                /* \"#utility.yul\":3475:3548   */\n              tag_230\n                /* \"#utility.yul\":3543:3547   */\n              dup3\n                /* \"#utility.yul\":3529:3541   */\n              dup3\n                /* \"#utility.yul\":3475:3548   */\n              tag_163\n              jump\t// in\n            tag_230:\n                /* \"#utility.yul\":3467:3548   */\n              swap2\n              pop\n                /* \"#utility.yul\":3323:3559   */\n              pop\n                /* \"#utility.yul\":3576:3580   */\n              dup1\n                /* \"#utility.yul\":3569:3580   */\n              swap2\n              pop\n                /* \"#utility.yul\":2352:3586   */\n              pop\n                /* \"#utility.yul\":2234:3586   */\n              swap3\n              swap2\n              pop\n              pop\n              jump\t// out\n                /* \"#utility.yul\":3592:3953   */\n            tag_19:\n                /* \"#utility.yul\":3729:3733   */\n              0x00\n                /* \"#utility.yul\":3767:3769   */\n              0x20\n                /* \"#utility.yul\":3756:3765   */\n              dup3\n                /* \"#utility.yul\":3752:3770   */\n              add\n                /* \"#utility.yul\":3744:3770   */\n              swap1\n              pop\n                /* \"#utility.yul\":3816:3825   */\n              dup2\n                /* \"#utility.yul\":3810:3814   */\n              dup2\n                /* \"#utility.yul\":3806:3826   */\n              sub\n                /* \"#utility.yul\":3802:3803   */\n              0x00\n                /* \"#utility.yul\":3791:3800   */\n              dup4\n                /* \"#utility.yul\":3787:3804   */\n              add\n                /* \"#utility.yul\":3780:3827   */\n              mstore\n                /* \"#utility.yul\":3844:3946   */\n              tag_232\n                /* \"#utility.yul\":3941:3945   */\n              dup2\n                /* \"#utility.yul\":3932:3938   */\n              dup5\n                /* \"#utility.yul\":3844:3946   */\n              tag_165\n              jump\t// in\n            tag_232:\n                /* \"#utility.yul\":3836:3946   */\n              swap1\n              pop\n                /* \"#utility.yul\":3592:3953   */\n              swap3\n              swap2\n              pop\n              pop\n              jump\t// out\n                /* \"#utility.yul\":3959:4128   */\n            tag_166:\n                /* \"#utility.yul\":4043:4054   */\n              0x00\n                /* \"#utility.yul\":4077:4083   */\n              dup3\n                /* \"#utility.yul\":4072:4075   */\n              dup3\n                /* \"#utility.yul\":4065:4084   */\n              mstore\n                /* \"#utility.yul\":4117:4121   */\n              0x20\n                /* \"#utility.yul\":4112:4115   */\n              dup3\n                /* \"#utility.yul\":4108:4122   */\n              add\n                /* \"#utility.yul\":4093:4122   */\n              swap1\n              pop\n                /* \"#utility.yul\":3959:4128   */\n              swap3\n              swap2\n              pop\n              pop\n              jump\t// out\n                /* \"#utility.yul\":4134:4498   */\n            tag_167:\n                /* \"#utility.yul\":4222:4225   */\n              0x00\n                /* \"#utility.yul\":4250:4289   */\n              tag_235\n                /* \"#utility.yul\":4283:4288   */\n              dup3\n                /* \"#utility.yul\":4250:4289   */\n              tag_159\n              jump\t// in\n            tag_235:\n                /* \"#utility.yul\":4305:4376   */\n              tag_236\n                /* \"#utility.yul\":4369:4375   */\n              dup2\n                /* \"#utility.yul\":4364:4367   */\n              dup6\n                /* \"#utility.yul\":4305:4376   */\n              tag_166\n              jump\t// in\n            tag_236:\n                /* \"#utility.yul\":4298:4376   */\n              swap4\n              pop\n                /* \"#utility.yul\":4385:4437   */\n              tag_237\n                /* \"#utility.yul\":4430:4436   */\n              dup2\n                /* \"#utility.yul\":4425:4428   */\n              dup6\n                /* \"#utility.yul\":4418:4422   */\n              0x20\n                /* \"#utility.yul\":4411:4416   */\n              dup7\n                /* \"#utility.yul\":4407:4423   */\n              add\n                /* \"#utility.yul\":4385:4437   */\n              tag_161\n              jump\t// in\n            tag_237:\n                /* \"#utility.yul\":4462:4491   */\n              tag_238\n                /* \"#utility.yul\":4484:4490   */\n              dup2\n                /* \"#utility.yul\":4462:4491   */\n              tag_162\n              jump\t// in\n            tag_238:\n                /* \"#utility.yul\":4457:4460   */\n              dup5\n                /* \"#utility.yul\":4453:4492   */\n              add\n                /* \"#utility.yul\":4446:4492   */\n              swap2\n              pop\n                /* \"#utility.yul\":4226:4498   */\n              pop\n                /* \"#utility.yul\":4134:4498   */\n              swap3\n              swap2\n              pop\n              pop\n              jump\t// out\n                /* \"#utility.yul\":4504:4817   */\n            tag_23:\n                /* \"#utility.yul\":4617:4621   */\n              0x00\n                /* \"#utility.yul\":4655:4657   */\n              0x20\n                /* \"#utility.yul\":4644:4653   */\n              dup3\n                /* \"#utility.yul\":4640:4658   */\n              add\n                /* \"#utility.yul\":4632:4658   */\n              swap1\n              pop\n                /* \"#utility.yul\":4704:4713   */\n              dup2\n                /* \"#utility.yul\":4698:4702   */\n              dup2\n                /* \"#utility.yul\":4694:4714   */\n              sub\n                /* \"#utility.yul\":4690:4691   */\n              0x00\n                /* \"#utility.yul\":4679:4688   */\n              dup4\n                /* \"#utility.yul\":4675:4692   */\n              add\n                /* \"#utility.yul\":4668:4715   */\n              mstore\n                /* \"#utility.yul\":4732:4810   */\n              tag_240\n                /* \"#utility.yul\":4805:4809   */\n              dup2\n                /* \"#utility.yul\":4796:4802   */\n              dup5\n                /* \"#utility.yul\":4732:4810   */\n              tag_167\n              jump\t// in\n            tag_240:\n                /* \"#utility.yul\":4724:4810   */\n              swap1\n              pop\n                /* \"#utility.yul\":4504:4817   */\n              swap3\n              swap2\n              pop\n              pop\n              jump\t// out\n                /* \"#utility.yul\":4823:4941   */\n            tag_168:\n                /* \"#utility.yul\":4910:4934   */\n              tag_242\n                /* \"#utility.yul\":4928:4933   */\n              dup2\n                /* \"#utility.yul\":4910:4934   */\n              tag_156\n              jump\t// in\n            tag_242:\n                /* \"#utility.yul\":4905:4908   */\n              dup3\n                /* \"#utility.yul\":4898:4935   */\n              mstore\n                /* \"#utility.yul\":4823:4941   */\n              pop\n              pop\n              jump\t// out\n                /* \"#utility.yul\":4947:5169   */\n            tag_27:\n                /* \"#utility.yul\":5040:5044   */\n              0x00\n                /* \"#utility.yul\":5078:5080   */\n              0x20\n                /* \"#utility.yul\":5067:5076   */\n              dup3\n                /* \"#utility.yul\":5063:5081   */\n              add\n                /* \"#utility.yul\":5055:5081   */\n              swap1\n              pop\n                /* \"#utility.yul\":5091:5162   */\n              tag_244\n                /* \"#utility.yul\":5159:5160   */\n              0x00\n                /* \"#utility.yul\":5148:5157   */\n              dup4\n                /* \"#utility.yul\":5144:5161   */\n              add\n                /* \"#utility.yul\":5135:5141   */\n              dup5\n                /* \"#utility.yul\":5091:5162   */\n              tag_168\n              jump\t// in\n            tag_244:\n                /* \"#utility.yul\":4947:5169   */\n              swap3\n              swap2\n              pop\n              pop\n              jump\t// out\n                /* \"#utility.yul\":5175:5649   */\n            tag_30:\n                /* \"#utility.yul\":5243:5249   */\n              0x00\n                /* \"#utility.yul\":5251:5257   */\n              dup1\n                /* \"#utility.yul\":5300:5302   */\n              0x40\n                /* \"#utility.yul\":5288:5297   */\n              dup4\n                /* \"#utility.yul\":5279:5286   */\n              dup6\n                /* \"#utility.yul\":5275:5298   */\n              sub\n                /* \"#utility.yul\":5271:5303   */\n              slt\n                /* \"#utility.yul\":5268:5387   */\n              iszero\n              tag_246\n              jumpi\n                /* \"#utility.yul\":5306:5385   */\n              tag_247\n              tag_154\n              jump\t// in\n            tag_247:\n                /* \"#utility.yul\":5268:5387   */\n            tag_246:\n                /* \"#utility.yul\":5426:5427   */\n              0x00\n                /* \"#utility.yul\":5451:5504   */\n              tag_248\n                /* \"#utility.yul\":5496:5503   */\n              dup6\n                /* \"#utility.yul\":5487:5493   */\n              dup3\n                /* \"#utility.yul\":5476:5485   */\n              dup7\n                /* \"#utility.yul\":5472:5494   */\n              add\n                /* \"#utility.yul\":5451:5504   */\n              tag_158\n              jump\t// in\n            tag_248:\n                /* \"#utility.yul\":5441:5504   */\n              swap3\n              pop\n                /* \"#utility.yul\":5397:5514   */\n              pop\n                /* \"#utility.yul\":5553:5555   */\n              0x20\n                /* \"#utility.yul\":5579:5632   */\n              tag_249\n                /* \"#utility.yul\":5624:5631   */\n              dup6\n                /* \"#utility.yul\":5615:5621   */\n              dup3\n                /* \"#utility.yul\":5604:5613   */\n              dup7\n                /* \"#utility.yul\":5600:5622   */\n              add\n                /* \"#utility.yul\":5579:5632   */\n              tag_158\n              jump\t// in\n            tag_249:\n                /* \"#utility.yul\":5569:5632   */\n              swap2\n              pop\n                /* \"#utility.yul\":5524:5642   */\n              pop\n                /* \"#utility.yul\":5175:5649   */\n              swap3\n              pop\n              swap3\n              swap1\n              pop\n              jump\t// out\n                /* \"#utility.yul\":5655:5769   */\n            tag_169:\n                /* \"#utility.yul\":5722:5728   */\n              0x00\n                /* \"#utility.yul\":5756:5761   */\n              dup2\n                /* \"#utility.yul\":5750:5762   */\n              mload\n                /* \"#utility.yul\":5740:5762   */\n              swap1\n              pop\n                /* \"#utility.yul\":5655:5769   */\n              swap2\n              swap1\n              pop\n              jump\t// out\n                /* \"#utility.yul\":5775:5959   */\n            tag_170:\n                /* \"#utility.yul\":5874:5885   */\n              0x00\n                /* \"#utility.yul\":5908:5914   */\n              dup3\n                /* \"#utility.yul\":5903:5906   */\n              dup3\n                /* \"#utility.yul\":5896:5915   */\n              mstore\n                /* \"#utility.yul\":5948:5952   */\n              0x20\n                /* \"#utility.yul\":5943:5946   */\n              dup3\n                /* \"#utility.yul\":5939:5953   */\n              add\n                /* \"#utility.yul\":5924:5953   */\n              swap1\n              pop\n                /* \"#utility.yul\":5775:5959   */\n              swap3\n              swap2\n              pop\n              pop\n              jump\t// out\n                /* \"#utility.yul\":5965:6097   */\n            tag_171:\n                /* \"#utility.yul\":6032:6036   */\n              0x00\n                /* \"#utility.yul\":6055:6058   */\n              dup2\n                /* \"#utility.yul\":6047:6058   */\n              swap1\n              pop\n                /* \"#utility.yul\":6085:6089   */\n              0x20\n                /* \"#utility.yul\":6080:6083   */\n              dup3\n                /* \"#utility.yul\":6076:6090   */\n              add\n                /* \"#utility.yul\":6068:6090   */\n              swap1\n              pop\n                /* \"#utility.yul\":5965:6097   */\n              swap2\n              swap1\n              pop\n              jump\t// out\n                /* \"#utility.yul\":6103:6282   */\n            tag_172:\n                /* \"#utility.yul\":6172:6182   */\n              0x00\n                /* \"#utility.yul\":6193:6239   */\n              tag_254\n                /* \"#utility.yul\":6235:6238   */\n              dup4\n                /* \"#utility.yul\":6227:6233   */\n              dup4\n                /* \"#utility.yul\":6193:6239   */\n              tag_164\n              jump\t// in\n            tag_254:\n                /* \"#utility.yul\":6271:6275   */\n              0x20\n                /* \"#utility.yul\":6266:6269   */\n              dup4\n                /* \"#utility.yul\":6262:6276   */\n              add\n                /* \"#utility.yul\":6248:6276   */\n              swap1\n              pop\n                /* \"#utility.yul\":6103:6282   */\n              swap3\n              swap2\n              pop\n              pop\n              jump\t// out\n                /* \"#utility.yul\":6288:6401   */\n            tag_173:\n                /* \"#utility.yul\":6358:6362   */\n              0x00\n                /* \"#utility.yul\":6390:6394   */\n              0x20\n                /* \"#utility.yul\":6385:6388   */\n              dup3\n                /* \"#utility.yul\":6381:6395   */\n              add\n                /* \"#utility.yul\":6373:6395   */\n              swap1\n              pop\n                /* \"#utility.yul\":6288:6401   */\n              swap2\n              swap1\n              pop\n              jump\t// out\n                /* \"#utility.yul\":6437:7169   */\n            tag_174:\n                /* \"#utility.yul\":6556:6559   */\n              0x00\n                /* \"#utility.yul\":6585:6639   */\n              tag_257\n                /* \"#utility.yul\":6633:6638   */\n              dup3\n                /* \"#utility.yul\":6585:6639   */\n              tag_169\n              jump\t// in\n            tag_257:\n                /* \"#utility.yul\":6655:6741   */\n              tag_258\n                /* \"#utility.yul\":6734:6740   */\n              dup2\n                /* \"#utility.yul\":6729:6732   */\n              dup6\n                /* \"#utility.yul\":6655:6741   */\n              tag_170\n              jump\t// in\n            tag_258:\n                /* \"#utility.yul\":6648:6741   */\n              swap4\n              pop\n                /* \"#utility.yul\":6765:6821   */\n              tag_259\n                /* \"#utility.yul\":6815:6820   */\n              dup4\n                /* \"#utility.yul\":6765:6821   */\n              tag_171\n              jump\t// in\n            tag_259:\n                /* \"#utility.yul\":6844:6851   */\n              dup1\n                /* \"#utility.yul\":6875:6876   */\n              0x00\n                /* \"#utility.yul\":6860:7144   */\n            tag_260:\n                /* \"#utility.yul\":6885:6891   */\n              dup4\n                /* \"#utility.yul\":6882:6883   */\n              dup2\n                /* \"#utility.yul\":6879:6892   */\n              lt\n                /* \"#utility.yul\":6860:7144   */\n              iszero\n              tag_262\n              jumpi\n                /* \"#utility.yul\":6961:6967   */\n              dup2\n                /* \"#utility.yul\":6955:6968   */\n              mload\n                /* \"#utility.yul\":6988:7051   */\n              tag_263\n                /* \"#utility.yul\":7047:7050   */\n              dup9\n                /* \"#utility.yul\":7032:7045   */\n              dup3\n                /* \"#utility.yul\":6988:7051   */\n              tag_172\n              jump\t// in\n            tag_263:\n                /* \"#utility.yul\":6981:7051   */\n              swap8\n              pop\n                /* \"#utility.yul\":7074:7134   */\n              tag_264\n                /* \"#utility.yul\":7127:7133   */\n              dup4\n                /* \"#utility.yul\":7074:7134   */\n              tag_173\n              jump\t// in\n            tag_264:\n                /* \"#utility.yul\":7064:7134   */\n              swap3\n              pop\n                /* \"#utility.yul\":6920:7144   */\n              pop\n                /* \"#utility.yul\":6907:6908   */\n              0x01\n                /* \"#utility.yul\":6904:6905   */\n              dup2\n                /* \"#utility.yul\":6900:6909   */\n              add\n                /* \"#utility.yul\":6895:6909   */\n              swap1\n              pop\n                /* \"#utility.yul\":6860:7144   */\n              jump(tag_260)\n            tag_262:\n                /* \"#utility.yul\":6864:6878   */\n              pop\n                /* \"#utility.yul\":7160:7163   */\n              dup6\n                /* \"#utility.yul\":7153:7163   */\n              swap4\n              pop\n                /* \"#utility.yul\":6561:7169   */\n              pop\n              pop\n              pop\n                /* \"#utility.yul\":6437:7169   */\n              swap3\n              swap2\n              pop\n              pop\n              jump\t// out\n                /* \"#utility.yul\":7175:7548   */\n            tag_35:\n                /* \"#utility.yul\":7318:7322   */\n              0x00\n                /* \"#utility.yul\":7356:7358   */\n              0x20\n                /* \"#utility.yul\":7345:7354   */\n              dup3\n                /* \"#utility.yul\":7341:7359   */\n              add\n                /* \"#utility.yul\":7333:7359   */\n              swap1\n              pop\n                /* \"#utility.yul\":7405:7414   */\n              dup2\n                /* \"#utility.yul\":7399:7403   */\n              dup2\n                /* \"#utility.yul\":7395:7415   */\n              sub\n                /* \"#utility.yul\":7391:7392   */\n              0x00\n                /* \"#utility.yul\":7380:7389   */\n              dup4\n                /* \"#utility.yul\":7376:7393   */\n              add\n                /* \"#utility.yul\":7369:7416   */\n              mstore\n                /* \"#utility.yul\":7433:7541   */\n              tag_266\n                /* \"#utility.yul\":7536:7540   */\n              dup2\n                /* \"#utility.yul\":7527:7533   */\n              dup5\n                /* \"#utility.yul\":7433:7541   */\n              tag_174\n              jump\t// in\n            tag_266:\n                /* \"#utility.yul\":7425:7541   */\n              swap1\n              pop\n                /* \"#utility.yul\":7175:7548   */\n              swap3\n              swap2\n              pop\n              pop\n              jump\t// out\n                /* \"#utility.yul\":7554:7680   */\n            tag_175:\n                /* \"#utility.yul\":7591:7598   */\n              0x00\n                /* \"#utility.yul\":7631:7673   */\n              0xffffffffffffffffffffffffffffffffffffffff\n                /* \"#utility.yul\":7624:7629   */\n              dup3\n                /* \"#utility.yul\":7620:7674   */\n              and\n                /* \"#utility.yul\":7609:7674   */\n              swap1\n              pop\n                /* \"#utility.yul\":7554:7680   */\n              swap2\n              swap1\n              pop\n              jump\t// out\n                /* \"#utility.yul\":7686:7782   */\n            tag_176:\n                /* \"#utility.yul\":7723:7730   */\n              0x00\n                /* \"#utility.yul\":7752:7776   */\n              tag_269\n                /* \"#utility.yul\":7770:7775   */\n              dup3\n                /* \"#utility.yul\":7752:7776   */\n              tag_175\n              jump\t// in\n            tag_269:\n                /* \"#utility.yul\":7741:7776   */\n              swap1\n              pop\n                /* \"#utility.yul\":7686:7782   */\n              swap2\n              swap1\n              pop\n              jump\t// out\n                /* \"#utility.yul\":7788:7906   */\n            tag_177:\n                /* \"#utility.yul\":7875:7899   */\n              tag_271\n                /* \"#utility.yul\":7893:7898   */\n              dup2\n                /* \"#utility.yul\":7875:7899   */\n              tag_176\n              jump\t// in\n            tag_271:\n                /* \"#utility.yul\":7870:7873   */\n              dup3\n                /* \"#utility.yul\":7863:7900   */\n              mstore\n                /* \"#utility.yul\":7788:7906   */\n              pop\n              pop\n              jump\t// out\n                /* \"#utility.yul\":7912:8134   */\n            tag_39:\n                /* \"#utility.yul\":8005:8009   */\n              0x00\n                /* \"#utility.yul\":8043:8045   */\n              0x20\n                /* \"#utility.yul\":8032:8041   */\n              dup3\n                /* \"#utility.yul\":8028:8046   */\n              add\n                /* \"#utility.yul\":8020:8046   */\n              swap1\n              pop\n                /* \"#utility.yul\":8056:8127   */\n              tag_273\n                /* \"#utility.yul\":8124:8125   */\n              0x00\n                /* \"#utility.yul\":8113:8122   */\n              dup4\n                /* \"#utility.yul\":8109:8126   */\n              add\n                /* \"#utility.yul\":8100:8106   */\n              dup5\n                /* \"#utility.yul\":8056:8127   */\n              tag_177\n              jump\t// in\n            tag_273:\n                /* \"#utility.yul\":7912:8134   */\n              swap3\n              swap2\n              pop\n              pop\n              jump\t// out\n                /* \"#utility.yul\":8140:8257   */\n            tag_178:\n                /* \"#utility.yul\":8249:8250   */\n              0x00\n                /* \"#utility.yul\":8246:8247   */\n              dup1\n                /* \"#utility.yul\":8239:8251   */\n              revert\n                /* \"#utility.yul\":8263:8380   */\n            tag_179:\n                /* \"#utility.yul\":8372:8373   */\n              0x00\n                /* \"#utility.yul\":8369:8370   */\n              dup1\n                /* \"#utility.yul\":8362:8374   */\n              revert\n                /* \"#utility.yul\":8386:8566   */\n            tag_180:\n                /* \"#utility.yul\":8434:8511   */\n              0x4e487b7100000000000000000000000000000000000000000000000000000000\n                /* \"#utility.yul\":8431:8432   */\n              0x00\n                /* \"#utility.yul\":8424:8512   */\n              mstore\n                /* \"#utility.yul\":8531:8535   */\n              0x41\n                /* \"#utility.yul\":8528:8529   */\n              0x04\n                /* \"#utility.yul\":8521:8536   */\n              mstore\n                /* \"#utility.yul\":8555:8559   */\n              0x24\n                /* \"#utility.yul\":8552:8553   */\n              0x00\n                /* \"#utility.yul\":8545:8560   */\n              revert\n                /* \"#utility.yul\":8572:8853   */\n            tag_181:\n                /* \"#utility.yul\":8655:8682   */\n              tag_278\n                /* \"#utility.yul\":8677:8681   */\n              dup3\n                /* \"#utility.yul\":8655:8682   */\n              tag_162\n              jump\t// in\n            tag_278:\n                /* \"#utility.yul\":8647:8653   */\n              dup2\n                /* \"#utility.yul\":8643:8683   */\n              add\n                /* \"#utility.yul\":8785:8791   */\n              dup2\n                /* \"#utility.yul\":8773:8783   */\n              dup2\n                /* \"#utility.yul\":8770:8792   */\n              lt\n                /* \"#utility.yul\":8749:8767   */\n              0xffffffffffffffff\n                /* \"#utility.yul\":8737:8747   */\n              dup3\n                /* \"#utility.yul\":8734:8768   */\n              gt\n                /* \"#utility.yul\":8731:8793   */\n              or\n                /* \"#utility.yul\":8728:8816   */\n              iszero\n              tag_279\n              jumpi\n                /* \"#utility.yul\":8796:8814   */\n              tag_280\n              tag_180\n              jump\t// in\n            tag_280:\n                /* \"#utility.yul\":8728:8816   */\n            tag_279:\n                /* \"#utility.yul\":8836:8846   */\n              dup1\n                /* \"#utility.yul\":8832:8834   */\n              0x40\n                /* \"#utility.yul\":8825:8847   */\n              mstore\n                /* \"#utility.yul\":8615:8853   */\n              pop\n                /* \"#utility.yul\":8572:8853   */\n              pop\n              pop\n              jump\t// out\n                /* \"#utility.yul\":8859:8988   */\n            tag_182:\n                /* \"#utility.yul\":8893:8899   */\n              0x00\n                /* \"#utility.yul\":8920:8940   */\n              tag_282\n              tag_153\n              jump\t// in\n            tag_282:\n                /* \"#utility.yul\":8910:8940   */\n              swap1\n              pop\n                /* \"#utility.yul\":8949:8982   */\n              tag_283\n                /* \"#utility.yul\":8977:8981   */\n              dup3\n                /* \"#utility.yul\":8969:8975   */\n              dup3\n                /* \"#utility.yul\":8949:8982   */\n              tag_181\n              jump\t// in\n            tag_283:\n                /* \"#utility.yul\":8859:8988   */\n              swap2\n              swap1\n              pop\n              jump\t// out\n                /* \"#utility.yul\":8994:9302   */\n            tag_183:\n                /* \"#utility.yul\":9056:9060   */\n              0x00\n                /* \"#utility.yul\":9146:9164   */\n              0xffffffffffffffff\n                /* \"#utility.yul\":9138:9144   */\n              dup3\n                /* \"#utility.yul\":9135:9165   */\n              gt\n                /* \"#utility.yul\":9132:9188   */\n              iszero\n              tag_285\n              jumpi\n                /* \"#utility.yul\":9168:9186   */\n              tag_286\n              tag_180\n              jump\t// in\n            tag_286:\n                /* \"#utility.yul\":9132:9188   */\n            tag_285:\n                /* \"#utility.yul\":9206:9235   */\n              tag_287\n                /* \"#utility.yul\":9228:9234   */\n              dup3\n                /* \"#utility.yul\":9206:9235   */\n              tag_162\n              jump\t// in\n            tag_287:\n                /* \"#utility.yul\":9198:9235   */\n              swap1\n              pop\n                /* \"#utility.yul\":9290:9294   */\n              0x20\n                /* \"#utility.yul\":9284:9288   */\n              dup2\n                /* \"#utility.yul\":9280:9295   */\n              add\n                /* \"#utility.yul\":9272:9295   */\n              swap1\n              pop\n                /* \"#utility.yul\":8994:9302   */\n              swap2\n              swap1\n              pop\n              jump\t// out\n                /* \"#utility.yul\":9308:9462   */\n            tag_184:\n                /* \"#utility.yul\":9392:9398   */\n              dup3\n                /* \"#utility.yul\":9387:9390   */\n              dup2\n                /* \"#utility.yul\":9382:9385   */\n              dup4\n                /* \"#utility.yul\":9369:9399   */\n              calldatacopy\n                /* \"#utility.yul\":9454:9455   */\n              0x00\n                /* \"#utility.yul\":9445:9451   */\n              dup4\n                /* \"#utility.yul\":9440:9443   */\n              dup4\n                /* \"#utility.yul\":9436:9452   */\n              add\n                /* \"#utility.yul\":9429:9456   */\n              mstore\n                /* \"#utility.yul\":9308:9462   */\n              pop\n              pop\n              pop\n              jump\t// out\n                /* \"#utility.yul\":9468:9880   */\n            tag_185:\n                /* \"#utility.yul\":9546:9551   */\n              0x00\n                /* \"#utility.yul\":9571:9637   */\n              tag_290\n                /* \"#utility.yul\":9587:9636   */\n              tag_291\n                /* \"#utility.yul\":9629:9635   */\n              dup5\n                /* \"#utility.yul\":9587:9636   */\n              tag_183\n              jump\t// in\n            tag_291:\n                /* \"#utility.yul\":9571:9637   */\n              tag_182\n              jump\t// in\n            tag_290:\n                /* \"#utility.yul\":9562:9637   */\n              swap1\n              pop\n                /* \"#utility.yul\":9660:9666   */\n              dup3\n                /* \"#utility.yul\":9653:9658   */\n              dup2\n                /* \"#utility.yul\":9646:9667   */\n              mstore\n                /* \"#utility.yul\":9698:9702   */\n              0x20\n                /* \"#utility.yul\":9691:9696   */\n              dup2\n                /* \"#utility.yul\":9687:9703   */\n              add\n                /* \"#utility.yul\":9736:9739   */\n              dup5\n                /* \"#utility.yul\":9727:9733   */\n              dup5\n                /* \"#utility.yul\":9722:9725   */\n              dup5\n                /* \"#utility.yul\":9718:9734   */\n              add\n                /* \"#utility.yul\":9715:9740   */\n              gt\n                /* \"#utility.yul\":9712:9824   */\n              iszero\n              tag_292\n              jumpi\n                /* \"#utility.yul\":9743:9822   */\n              tag_293\n              tag_179\n              jump\t// in\n            tag_293:\n                /* \"#utility.yul\":9712:9824   */\n            tag_292:\n                /* \"#utility.yul\":9833:9874   */\n              tag_294\n                /* \"#utility.yul\":9867:9873   */\n              dup5\n                /* \"#utility.yul\":9862:9865   */\n              dup3\n                /* \"#utility.yul\":9857:9860   */\n              dup6\n                /* \"#utility.yul\":9833:9874   */\n              tag_184\n              jump\t// in\n            tag_294:\n                /* \"#utility.yul\":9552:9880   */\n              pop\n                /* \"#utility.yul\":9468:9880   */\n              swap4\n              swap3\n              pop\n              pop\n              pop\n              jump\t// out\n                /* \"#utility.yul\":9900:10240   */\n            tag_186:\n                /* \"#utility.yul\":9956:9961   */\n              0x00\n                /* \"#utility.yul\":10005:10008   */\n              dup3\n                /* \"#utility.yul\":9998:10002   */\n              0x1f\n                /* \"#utility.yul\":9990:9996   */\n              dup4\n                /* \"#utility.yul\":9986:10003   */\n              add\n                /* \"#utility.yul\":9982:10009   */\n              slt\n                /* \"#utility.yul\":9972:10094   */\n              tag_296\n              jumpi\n                /* \"#utility.yul\":10013:10092   */\n              tag_297\n              tag_178\n              jump\t// in\n            tag_297:\n                /* \"#utility.yul\":9972:10094   */\n            tag_296:\n                /* \"#utility.yul\":10130:10136   */\n              dup2\n                /* \"#utility.yul\":10117:10137   */\n              calldataload\n                /* \"#utility.yul\":10155:10234   */\n              tag_298\n                /* \"#utility.yul\":10230:10233   */\n              dup5\n                /* \"#utility.yul\":10222:10228   */\n              dup3\n                /* \"#utility.yul\":10215:10219   */\n              0x20\n                /* \"#utility.yul\":10207:10213   */\n              dup7\n                /* \"#utility.yul\":10203:10220   */\n              add\n                /* \"#utility.yul\":10155:10234   */\n              tag_185\n              jump\t// in\n            tag_298:\n                /* \"#utility.yul\":10146:10234   */\n              swap2\n              pop\n                /* \"#utility.yul\":9962:10240   */\n              pop\n                /* \"#utility.yul\":9900:10240   */\n              swap3\n              swap2\n              pop\n              pop\n              jump\t// out\n                /* \"#utility.yul\":10246:11877   */\n            tag_42:\n                /* \"#utility.yul\":10381:10387   */\n              0x00\n                /* \"#utility.yul\":10389:10395   */\n              dup1\n                /* \"#utility.yul\":10397:10403   */\n              0x00\n                /* \"#utility.yul\":10405:10411   */\n              dup1\n                /* \"#utility.yul\":10413:10419   */\n              0x00\n                /* \"#utility.yul\":10462:10465   */\n              0xa0\n                /* \"#utility.yul\":10450:10459   */\n              dup7\n                /* \"#utility.yul\":10441:10448   */\n              dup9\n                /* \"#utility.yul\":10437:10460   */\n              sub\n                /* \"#utility.yul\":10433:10466   */\n              slt\n                /* \"#utility.yul\":10430:10550   */\n              iszero\n              tag_300\n              jumpi\n                /* \"#utility.yul\":10469:10548   */\n              tag_301\n              tag_154\n              jump\t// in\n            tag_301:\n                /* \"#utility.yul\":10430:10550   */\n            tag_300:\n                /* \"#utility.yul\":10617:10618   */\n              0x00\n                /* \"#utility.yul\":10606:10615   */\n              dup7\n                /* \"#utility.yul\":10602:10619   */\n              add\n                /* \"#utility.yul\":10589:10620   */\n              calldataload\n                /* \"#utility.yul\":10647:10665   */\n              0xffffffffffffffff\n                /* \"#utility.yul\":10639:10645   */\n              dup2\n                /* \"#utility.yul\":10636:10666   */\n              gt\n                /* \"#utility.yul\":10633:10750   */\n              iszero\n              tag_302\n              jumpi\n                /* \"#utility.yul\":10669:10748   */\n              tag_303\n              tag_155\n              jump\t// in\n            tag_303:\n                /* \"#utility.yul\":10633:10750   */\n            tag_302:\n                /* \"#utility.yul\":10774:10837   */\n              tag_304\n                /* \"#utility.yul\":10829:10836   */\n              dup9\n                /* \"#utility.yul\":10820:10826   */\n              dup3\n                /* \"#utility.yul\":10809:10818   */\n              dup10\n                /* \"#utility.yul\":10805:10827   */\n              add\n                /* \"#utility.yul\":10774:10837   */\n              tag_186\n              jump\t// in\n            tag_304:\n                /* \"#utility.yul\":10764:10837   */\n              swap6\n              pop\n                /* \"#utility.yul\":10560:10847   */\n              pop\n                /* \"#utility.yul\":10914:10916   */\n              0x20\n                /* \"#utility.yul\":10903:10912   */\n              dup7\n                /* \"#utility.yul\":10899:10917   */\n              add\n                /* \"#utility.yul\":10886:10918   */\n              calldataload\n                /* \"#utility.yul\":10945:10963   */\n              0xffffffffffffffff\n                /* \"#utility.yul\":10937:10943   */\n              dup2\n                /* \"#utility.yul\":10934:10964   */\n              gt\n                /* \"#utility.yul\":10931:11048   */\n              iszero\n              tag_305\n              jumpi\n                /* \"#utility.yul\":10967:11046   */\n              tag_306\n              tag_155\n              jump\t// in\n            tag_306:\n                /* \"#utility.yul\":10931:11048   */\n            tag_305:\n                /* \"#utility.yul\":11072:11135   */\n              tag_307\n                /* \"#utility.yul\":11127:11134   */\n              dup9\n                /* \"#utility.yul\":11118:11124   */\n              dup3\n                /* \"#utility.yul\":11107:11116   */\n              dup10\n                /* \"#utility.yul\":11103:11125   */\n              add\n                /* \"#utility.yul\":11072:11135   */\n              tag_186\n              jump\t// in\n            tag_307:\n                /* \"#utility.yul\":11062:11135   */\n              swap5\n              pop\n                /* \"#utility.yul\":10857:11145   */\n              pop\n                /* \"#utility.yul\":11184:11186   */\n              0x40\n                /* \"#utility.yul\":11210:11263   */\n              tag_308\n                /* \"#utility.yul\":11255:11262   */\n              dup9\n                /* \"#utility.yul\":11246:11252   */\n              dup3\n                /* \"#utility.yul\":11235:11244   */\n              dup10\n                /* \"#utility.yul\":11231:11253   */\n              add\n                /* \"#utility.yul\":11210:11263   */\n              tag_158\n              jump\t// in\n            tag_308:\n                /* \"#utility.yul\":11200:11263   */\n              swap4\n              pop\n                /* \"#utility.yul\":11155:11273   */\n              pop\n                /* \"#utility.yul\":11340:11342   */\n              0x60\n                /* \"#utility.yul\":11329:11338   */\n              dup7\n                /* \"#utility.yul\":11325:11343   */\n              add\n                /* \"#utility.yul\":11312:11344   */\n              calldataload\n                /* \"#utility.yul\":11371:11389   */\n              0xffffffffffffffff\n                /* \"#utility.yul\":11363:11369   */\n              dup2\n                /* \"#utility.yul\":11360:11390   */\n              gt\n                /* \"#utility.yul\":11357:11474   */\n              iszero\n              tag_309\n              jumpi\n                /* \"#utility.yul\":11393:11472   */\n              tag_310\n              tag_155\n              jump\t// in\n            tag_310:\n                /* \"#utility.yul\":11357:11474   */\n            tag_309:\n                /* \"#utility.yul\":11498:11561   */\n              tag_311\n                /* \"#utility.yul\":11553:11560   */\n              dup9\n                /* \"#utility.yul\":11544:11550   */\n              dup3\n                /* \"#utility.yul\":11533:11542   */\n              dup10\n                /* \"#utility.yul\":11529:11551   */\n              add\n                /* \"#utility.yul\":11498:11561   */\n              tag_186\n              jump\t// in\n            tag_311:\n                /* \"#utility.yul\":11488:11561   */\n              swap3\n              pop\n                /* \"#utility.yul\":11283:11571   */\n              pop\n                /* \"#utility.yul\":11638:11641   */\n              0x80\n                /* \"#utility.yul\":11627:11636   */\n              dup7\n                /* \"#utility.yul\":11623:11642   */\n              add\n                /* \"#utility.yul\":11610:11643   */\n              calldataload\n                /* \"#utility.yul\":11670:11688   */\n              0xffffffffffffffff\n                /* \"#utility.yul\":11662:11668   */\n              dup2\n                /* \"#utility.yul\":11659:11689   */\n              gt\n                /* \"#utility.yul\":11656:11773   */\n              iszero\n              tag_312\n              jumpi\n                /* \"#utility.yul\":11692:11771   */\n              tag_313\n              tag_155\n              jump\t// in\n            tag_313:\n                /* \"#utility.yul\":11656:11773   */\n            tag_312:\n                /* \"#utility.yul\":11797:11860   */\n              tag_314\n                /* \"#utility.yul\":11852:11859   */\n              dup9\n                /* \"#utility.yul\":11843:11849   */\n              dup3\n                /* \"#utility.yul\":11832:11841   */\n              dup10\n                /* \"#utility.yul\":11828:11850   */\n              add\n                /* \"#utility.yul\":11797:11860   */\n              tag_186\n              jump\t// in\n            tag_314:\n                /* \"#utility.yul\":11787:11860   */\n              swap2\n              pop\n                /* \"#utility.yul\":11581:11870   */\n              pop\n                /* \"#utility.yul\":10246:11877   */\n              swap3\n              swap6\n              pop\n              swap3\n              swap6\n              swap1\n              swap4\n              pop\n              jump\t// out\n                /* \"#utility.yul\":11883:12019   */\n            tag_187:\n                /* \"#utility.yul\":11972:11978   */\n              0x00\n                /* \"#utility.yul\":12006:12011   */\n              dup2\n                /* \"#utility.yul\":12000:12012   */\n              mload\n                /* \"#utility.yul\":11990:12012   */\n              swap1\n              pop\n                /* \"#utility.yul\":11883:12019   */\n              swap2\n              swap1\n              pop\n              jump\t// out\n                /* \"#utility.yul\":12025:12231   */\n            tag_188:\n                /* \"#utility.yul\":12146:12157   */\n              0x00\n                /* \"#utility.yul\":12180:12186   */\n              dup3\n                /* \"#utility.yul\":12175:12178   */\n              dup3\n                /* \"#utility.yul\":12168:12187   */\n              mstore\n                /* \"#utility.yul\":12220:12224   */\n              0x20\n                /* \"#utility.yul\":12215:12218   */\n              dup3\n                /* \"#utility.yul\":12211:12225   */\n              add\n                /* \"#utility.yul\":12196:12225   */\n              swap1\n              pop\n                /* \"#utility.yul\":12025:12231   */\n              swap3\n              swap2\n              pop\n              pop\n              jump\t// out\n                /* \"#utility.yul\":12237:12391   */\n            tag_189:\n                /* \"#utility.yul\":12326:12330   */\n              0x00\n                /* \"#utility.yul\":12349:12352   */\n              dup2\n                /* \"#utility.yul\":12341:12352   */\n              swap1\n              pop\n                /* \"#utility.yul\":12379:12383   */\n              0x20\n                /* \"#utility.yul\":12374:12377   */\n              dup3\n                /* \"#utility.yul\":12370:12384   */\n              add\n                /* \"#utility.yul\":12362:12384   */\n              swap1\n              pop\n                /* \"#utility.yul\":12237:12391   */\n              swap2\n              swap1\n              pop\n              jump\t// out\n                /* \"#utility.yul\":12451:13793   */\n            tag_190:\n                /* \"#utility.yul\":12554:12557   */\n              0x00\n                /* \"#utility.yul\":12590:12594   */\n              0xa0\n                /* \"#utility.yul\":12585:12588   */\n              dup4\n                /* \"#utility.yul\":12581:12595   */\n              add\n                /* \"#utility.yul\":12677:12681   */\n              0x00\n                /* \"#utility.yul\":12670:12675   */\n              dup4\n                /* \"#utility.yul\":12666:12682   */\n              add\n                /* \"#utility.yul\":12660:12683   */\n              mload\n                /* \"#utility.yul\":12730:12733   */\n              dup5\n                /* \"#utility.yul\":12724:12728   */\n              dup3\n                /* \"#utility.yul\":12720:12734   */\n              sub\n                /* \"#utility.yul\":12713:12717   */\n              0x00\n                /* \"#utility.yul\":12708:12711   */\n              dup7\n                /* \"#utility.yul\":12704:12718   */\n              add\n                /* \"#utility.yul\":12697:12735   */\n              mstore\n                /* \"#utility.yul\":12756:12829   */\n              tag_319\n                /* \"#utility.yul\":12824:12828   */\n              dup3\n                /* \"#utility.yul\":12810:12822   */\n              dup3\n                /* \"#utility.yul\":12756:12829   */\n              tag_163\n              jump\t// in\n            tag_319:\n                /* \"#utility.yul\":12748:12829   */\n              swap2\n              pop\n                /* \"#utility.yul\":12605:12840   */\n              pop\n                /* \"#utility.yul\":12928:12932   */\n              0x20\n                /* \"#utility.yul\":12921:12926   */\n              dup4\n                /* \"#utility.yul\":12917:12933   */\n              add\n                /* \"#utility.yul\":12911:12934   */\n              mload\n                /* \"#utility.yul\":12981:12984   */\n              dup5\n                /* \"#utility.yul\":12975:12979   */\n              dup3\n                /* \"#utility.yul\":12971:12985   */\n              sub\n                /* \"#utility.yul\":12964:12968   */\n              0x20\n                /* \"#utility.yul\":12959:12962   */\n              dup7\n                /* \"#utility.yul\":12955:12969   */\n              add\n                /* \"#utility.yul\":12948:12986   */\n              mstore\n                /* \"#utility.yul\":13007:13080   */\n              tag_320\n                /* \"#utility.yul\":13075:13079   */\n              dup3\n                /* \"#utility.yul\":13061:13073   */\n              dup3\n                /* \"#utility.yul\":13007:13080   */\n              tag_163\n              jump\t// in\n            tag_320:\n                /* \"#utility.yul\":12999:13080   */\n              swap2\n              pop\n                /* \"#utility.yul\":12850:13091   */\n              pop\n                /* \"#utility.yul\":13181:13185   */\n              0x40\n                /* \"#utility.yul\":13174:13179   */\n              dup4\n                /* \"#utility.yul\":13170:13186   */\n              add\n                /* \"#utility.yul\":13164:13187   */\n              mload\n                /* \"#utility.yul\":13200:13263   */\n              tag_321\n                /* \"#utility.yul\":13257:13261   */\n              0x40\n                /* \"#utility.yul\":13252:13255   */\n              dup7\n                /* \"#utility.yul\":13248:13262   */\n              add\n                /* \"#utility.yul\":13234:13246   */\n              dup3\n                /* \"#utility.yul\":13200:13263   */\n              tag_164\n              jump\t// in\n            tag_321:\n                /* \"#utility.yul\":13101:13273   */\n              pop\n                /* \"#utility.yul\":13357:13361   */\n              0x60\n                /* \"#utility.yul\":13350:13355   */\n              dup4\n                /* \"#utility.yul\":13346:13362   */\n              add\n                /* \"#utility.yul\":13340:13363   */\n              mload\n                /* \"#utility.yul\":13410:13413   */\n              dup5\n                /* \"#utility.yul\":13404:13408   */\n              dup3\n                /* \"#utility.yul\":13400:13414   */\n              sub\n                /* \"#utility.yul\":13393:13397   */\n              0x60\n                /* \"#utility.yul\":13388:13391   */\n              dup7\n                /* \"#utility.yul\":13384:13398   */\n              add\n                /* \"#utility.yul\":13377:13415   */\n              mstore\n                /* \"#utility.yul\":13436:13509   */\n              tag_322\n                /* \"#utility.yul\":13504:13508   */\n              dup3\n                /* \"#utility.yul\":13490:13502   */\n              dup3\n                /* \"#utility.yul\":13436:13509   */\n              tag_163\n              jump\t// in\n            tag_322:\n                /* \"#utility.yul\":13428:13509   */\n              swap2\n              pop\n                /* \"#utility.yul\":13283:13520   */\n              pop\n                /* \"#utility.yul\":13603:13607   */\n              0x80\n                /* \"#utility.yul\":13596:13601   */\n              dup4\n                /* \"#utility.yul\":13592:13608   */\n              add\n                /* \"#utility.yul\":13586:13609   */\n              mload\n                /* \"#utility.yul\":13656:13659   */\n              dup5\n                /* \"#utility.yul\":13650:13654   */\n              dup3\n                /* \"#utility.yul\":13646:13660   */\n              sub\n                /* \"#utility.yul\":13639:13643   */\n              0x80\n                /* \"#utility.yul\":13634:13637   */\n              dup7\n                /* \"#utility.yul\":13630:13644   */\n              add\n                /* \"#utility.yul\":13623:13661   */\n              mstore\n                /* \"#utility.yul\":13682:13755   */\n              tag_323\n                /* \"#utility.yul\":13750:13754   */\n              dup3\n                /* \"#utility.yul\":13736:13748   */\n              dup3\n                /* \"#utility.yul\":13682:13755   */\n              tag_163\n              jump\t// in\n            tag_323:\n                /* \"#utility.yul\":13674:13755   */\n              swap2\n              pop\n                /* \"#utility.yul\":13530:13766   */\n              pop\n                /* \"#utility.yul\":13783:13787   */\n              dup1\n                /* \"#utility.yul\":13776:13787   */\n              swap2\n              pop\n                /* \"#utility.yul\":12559:13793   */\n              pop\n                /* \"#utility.yul\":12451:13793   */\n              swap3\n              swap2\n              pop\n              pop\n              jump\t// out\n                /* \"#utility.yul\":13799:14043   */\n            tag_191:\n                /* \"#utility.yul\":13912:13922   */\n              0x00\n                /* \"#utility.yul\":13947:14037   */\n              tag_325\n                /* \"#utility.yul\":14033:14036   */\n              dup4\n                /* \"#utility.yul\":14025:14031   */\n              dup4\n                /* \"#utility.yul\":13947:14037   */\n              tag_190\n              jump\t// in\n            tag_325:\n                /* \"#utility.yul\":13933:14037   */\n              swap1\n              pop\n                /* \"#utility.yul\":13799:14043   */\n              swap3\n              swap2\n              pop\n              pop\n              jump\t// out\n                /* \"#utility.yul\":14049:14184   */\n            tag_192:\n                /* \"#utility.yul\":14141:14145   */\n              0x00\n                /* \"#utility.yul\":14173:14177   */\n              0x20\n                /* \"#utility.yul\":14168:14171   */\n              dup3\n                /* \"#utility.yul\":14164:14178   */\n              add\n                /* \"#utility.yul\":14156:14178   */\n              swap1\n              pop\n                /* \"#utility.yul\":14049:14184   */\n              swap2\n              swap1\n              pop\n              jump\t// out\n                /* \"#utility.yul\":14248:15335   */\n            tag_193:\n                /* \"#utility.yul\":14411:14414   */\n              0x00\n                /* \"#utility.yul\":14440:14516   */\n              tag_328\n                /* \"#utility.yul\":14510:14515   */\n              dup3\n                /* \"#utility.yul\":14440:14516   */\n              tag_187\n              jump\t// in\n            tag_328:\n                /* \"#utility.yul\":14532:14640   */\n              tag_329\n                /* \"#utility.yul\":14633:14639   */\n              dup2\n                /* \"#utility.yul\":14628:14631   */\n              dup6\n                /* \"#utility.yul\":14532:14640   */\n              tag_188\n              jump\t// in\n            tag_329:\n                /* \"#utility.yul\":14525:14640   */\n              swap4\n              pop\n                /* \"#utility.yul\":14666:14669   */\n              dup4\n                /* \"#utility.yul\":14711:14715   */\n              0x20\n                /* \"#utility.yul\":14703:14709   */\n              dup3\n                /* \"#utility.yul\":14699:14716   */\n              mul\n                /* \"#utility.yul\":14694:14697   */\n              dup6\n                /* \"#utility.yul\":14690:14717   */\n              add\n                /* \"#utility.yul\":14741:14819   */\n              tag_330\n                /* \"#utility.yul\":14813:14818   */\n              dup6\n                /* \"#utility.yul\":14741:14819   */\n              tag_189\n              jump\t// in\n            tag_330:\n                /* \"#utility.yul\":14842:14849   */\n              dup1\n                /* \"#utility.yul\":14873:14874   */\n              0x00\n                /* \"#utility.yul\":14858:15290   */\n            tag_331:\n                /* \"#utility.yul\":14883:14889   */\n              dup6\n                /* \"#utility.yul\":14880:14881   */\n              dup2\n                /* \"#utility.yul\":14877:14890   */\n              lt\n                /* \"#utility.yul\":14858:15290   */\n              iszero\n              tag_333\n              jumpi\n                /* \"#utility.yul\":14954:14963   */\n              dup5\n                /* \"#utility.yul\":14948:14952   */\n              dup5\n                /* \"#utility.yul\":14944:14964   */\n              sub\n                /* \"#utility.yul\":14939:14942   */\n              dup10\n                /* \"#utility.yul\":14932:14965   */\n              mstore\n                /* \"#utility.yul\":15005:15011   */\n              dup2\n                /* \"#utility.yul\":14999:15012   */\n              mload\n                /* \"#utility.yul\":15033:15141   */\n              tag_334\n                /* \"#utility.yul\":15136:15140   */\n              dup6\n                /* \"#utility.yul\":15121:15134   */\n              dup3\n                /* \"#utility.yul\":15033:15141   */\n              tag_191\n              jump\t// in\n            tag_334:\n                /* \"#utility.yul\":15025:15141   */\n              swap5\n              pop\n                /* \"#utility.yul\":15164:15246   */\n              tag_335\n                /* \"#utility.yul\":15239:15245   */\n              dup4\n                /* \"#utility.yul\":15164:15246   */\n              tag_192\n              jump\t// in\n            tag_335:\n                /* \"#utility.yul\":15154:15246   */\n              swap3\n              pop\n                /* \"#utility.yul\":15275:15279   */\n              0x20\n                /* \"#utility.yul\":15270:15273   */\n              dup11\n                /* \"#utility.yul\":15266:15280   */\n              add\n                /* \"#utility.yul\":15259:15280   */\n              swap10\n              pop\n                /* \"#utility.yul\":14918:15290   */\n              pop\n                /* \"#utility.yul\":14905:14906   */\n              0x01\n                /* \"#utility.yul\":14902:14903   */\n              dup2\n                /* \"#utility.yul\":14898:14907   */\n              add\n                /* \"#utility.yul\":14893:14907   */\n              swap1\n              pop\n                /* \"#utility.yul\":14858:15290   */\n              jump(tag_331)\n            tag_333:\n                /* \"#utility.yul\":14862:14876   */\n              pop\n                /* \"#utility.yul\":15306:15310   */\n              dup3\n                /* \"#utility.yul\":15299:15310   */\n              swap8\n              pop\n                /* \"#utility.yul\":15326:15329   */\n              dup8\n                /* \"#utility.yul\":15319:15329   */\n              swap6\n              pop\n                /* \"#utility.yul\":14416:15335   */\n              pop\n              pop\n              pop\n              pop\n              pop\n                /* \"#utility.yul\":14248:15335   */\n              swap3\n              swap2\n              pop\n              pop\n              jump\t// out\n                /* \"#utility.yul\":15341:15802   */\n            tag_51:\n                /* \"#utility.yul\":15528:15532   */\n              0x00\n                /* \"#utility.yul\":15566:15568   */\n              0x20\n                /* \"#utility.yul\":15555:15564   */\n              dup3\n                /* \"#utility.yul\":15551:15569   */\n              add\n                /* \"#utility.yul\":15543:15569   */\n              swap1\n              pop\n                /* \"#utility.yul\":15615:15624   */\n              dup2\n                /* \"#utility.yul\":15609:15613   */\n              dup2\n                /* \"#utility.yul\":15605:15625   */\n              sub\n                /* \"#utility.yul\":15601:15602   */\n              0x00\n                /* \"#utility.yul\":15590:15599   */\n              dup4\n                /* \"#utility.yul\":15586:15603   */\n              add\n                /* \"#utility.yul\":15579:15626   */\n              mstore\n                /* \"#utility.yul\":15643:15795   */\n              tag_337\n                /* \"#utility.yul\":15790:15794   */\n              dup2\n                /* \"#utility.yul\":15781:15787   */\n              dup5\n                /* \"#utility.yul\":15643:15795   */\n              tag_193\n              jump\t// in\n            tag_337:\n                /* \"#utility.yul\":15635:15795   */\n              swap1\n              pop\n                /* \"#utility.yul\":15341:15802   */\n              swap3\n              swap2\n              pop\n              pop\n              jump\t// out\n                /* \"#utility.yul\":15808:15988   */\n            tag_57:\n                /* \"#utility.yul\":15856:15933   */\n              0x4e487b7100000000000000000000000000000000000000000000000000000000\n                /* \"#utility.yul\":15853:15854   */\n              0x00\n                /* \"#utility.yul\":15846:15934   */\n              mstore\n                /* \"#utility.yul\":15953:15957   */\n              0x32\n                /* \"#utility.yul\":15950:15951   */\n              0x04\n                /* \"#utility.yul\":15943:15958   */\n              mstore\n                /* \"#utility.yul\":15977:15981   */\n              0x24\n                /* \"#utility.yul\":15974:15975   */\n              0x00\n                /* \"#utility.yul\":15967:15982   */\n              revert\n                /* \"#utility.yul\":15994:16174   */\n            tag_194:\n                /* \"#utility.yul\":16042:16119   */\n              0x4e487b7100000000000000000000000000000000000000000000000000000000\n                /* \"#utility.yul\":16039:16040   */\n              0x00\n                /* \"#utility.yul\":16032:16120   */\n              mstore\n                /* \"#utility.yul\":16139:16143   */\n              0x22\n                /* \"#utility.yul\":16136:16137   */\n              0x04\n                /* \"#utility.yul\":16129:16144   */\n              mstore\n                /* \"#utility.yul\":16163:16167   */\n              0x24\n                /* \"#utility.yul\":16160:16161   */\n              0x00\n                /* \"#utility.yul\":16153:16168   */\n              revert\n                /* \"#utility.yul\":16180:16500   */\n            tag_60:\n                /* \"#utility.yul\":16224:16230   */\n              0x00\n                /* \"#utility.yul\":16261:16262   */\n              0x02\n                /* \"#utility.yul\":16255:16259   */\n              dup3\n                /* \"#utility.yul\":16251:16263   */\n              div\n                /* \"#utility.yul\":16241:16263   */\n              swap1\n              pop\n                /* \"#utility.yul\":16308:16309   */\n              0x01\n                /* \"#utility.yul\":16302:16306   */\n              dup3\n                /* \"#utility.yul\":16298:16310   */\n              and\n                /* \"#utility.yul\":16329:16347   */\n              dup1\n                /* \"#utility.yul\":16319:16400   */\n              tag_341\n              jumpi\n                /* \"#utility.yul\":16385:16389   */\n              0x7f\n                /* \"#utility.yul\":16377:16383   */\n              dup3\n                /* \"#utility.yul\":16373:16390   */\n              and\n                /* \"#utility.yul\":16363:16390   */\n              swap2\n              pop\n                /* \"#utility.yul\":16319:16400   */\n            tag_341:\n                /* \"#utility.yul\":16447:16449   */\n              0x20\n                /* \"#utility.yul\":16439:16445   */\n              dup3\n                /* \"#utility.yul\":16436:16450   */\n              lt\n                /* \"#utility.yul\":16416:16434   */\n              dup2\n                /* \"#utility.yul\":16413:16451   */\n              eq\n                /* \"#utility.yul\":16410:16494   */\n              iszero\n              tag_342\n              jumpi\n                /* \"#utility.yul\":16466:16484   */\n              tag_343\n              tag_194\n              jump\t// in\n            tag_343:\n                /* \"#utility.yul\":16410:16494   */\n            tag_342:\n                /* \"#utility.yul\":16231:16500   */\n              pop\n                /* \"#utility.yul\":16180:16500   */\n              swap2\n              swap1\n              pop\n              jump\t// out\n                /* \"#utility.yul\":16506:16686   */\n            tag_195:\n                /* \"#utility.yul\":16554:16631   */\n              0x4e487b7100000000000000000000000000000000000000000000000000000000\n                /* \"#utility.yul\":16551:16552   */\n              0x00\n                /* \"#utility.yul\":16544:16632   */\n              mstore\n                /* \"#utility.yul\":16651:16655   */\n              0x11\n                /* \"#utility.yul\":16648:16649   */\n              0x04\n                /* \"#utility.yul\":16641:16656   */\n              mstore\n                /* \"#utility.yul\":16675:16679   */\n              0x24\n                /* \"#utility.yul\":16672:16673   */\n              0x00\n                /* \"#utility.yul\":16665:16680   */\n              revert\n                /* \"#utility.yul\":16692:16925   */\n            tag_93:\n                /* \"#utility.yul\":16731:16734   */\n              0x00\n                /* \"#utility.yul\":16754:16778   */\n              tag_346\n                /* \"#utility.yul\":16772:16777   */\n              dup3\n                /* \"#utility.yul\":16754:16778   */\n              tag_156\n              jump\t// in\n            tag_346:\n                /* \"#utility.yul\":16745:16778   */\n              swap2\n              pop\n                /* \"#utility.yul\":16800:16866   */\n              0xffffffffffffffffffffffffffffffffffffffffffffffffffffffffffffffff\n                /* \"#utility.yul\":16793:16798   */\n              dup3\n                /* \"#utility.yul\":16790:16867   */\n              eq\n                /* \"#utility.yul\":16787:16890   */\n              iszero\n              tag_347\n              jumpi\n                /* \"#utility.yul\":16870:16888   */\n              tag_348\n              tag_195\n              jump\t// in\n            tag_348:\n                /* \"#utility.yul\":16787:16890   */\n            tag_347:\n                /* \"#utility.yul\":16917:16918   */\n              0x01\n                /* \"#utility.yul\":16910:16915   */\n              dup3\n                /* \"#utility.yul\":16906:16919   */\n              add\n                /* \"#utility.yul\":16899:16919   */\n              swap1\n              pop\n                /* \"#utility.yul\":16692:16925   */\n              swap2\n              swap1\n              pop\n              jump\t// out\n\n            auxdata: 0xa2646970667358221220c1ce5e38473059df0757bf8815deb628077cc9ae8e3da765e115541c0a018c8264736f6c634300080a0033\n        }\n    }\n\n    auxdata: 0xa26469706673582212207ef0aaf3cec4a1d88d6c089912346f6720941206bbcb9d3dfc067f415b59734a64736f6c634300080a0033\n}\n","bytecode":{"linkReferences":{},"object":"608060405234801561001057600080fd5b50612361806100206000396000f3fe60806040523480156200001157600080fd5b50600436106200003a5760003560e01c80639f3a7f52146200003f578063bd27eca01462000061575b600080fd5b6200004962000081565b6040516200005891906200066d565b60405180910390f35b6200007f6004803603810190620000799190620007f6565b6200026c565b005b60606000805480602002602001604051908101604052809291908181526020016000905b828210156200026357838290600052602060002090600302016040518060600160405290816000820160009054906101000a900473ffffffffffffffffffffffffffffffffffffffff1673ffffffffffffffffffffffffffffffffffffffff1673ffffffffffffffffffffffffffffffffffffffff1681526020016001820180546200013190620008aa565b80601f01602080910402602001604051908101604052809291908181526020018280546200015f90620008aa565b8015620001b05780601f106200018457610100808354040283529160200191620001b0565b820191906000526020600020905b8154815290600101906020018083116200019257829003601f168201915b50505050508152602001600282018054620001cb90620008aa565b80601f0160208091040260200160405190810160405280929190818152602001828054620001f990620008aa565b80156200024a5780601f106200021e576101008083540402835291602001916200024a565b820191906000526020600020905b8154815290600101906020018083116200022c57829003601f168201915b50505050508152505081526020019060010190620000a5565b50505050905090565b600033836040516200027e9062000399565b6200028b92919062000943565b604051809103906000f080158015620002a8573d6000803e3d6000fd5b509050600060405180606001604052808373ffffffffffffffffffffffffffffffffffffffff168152602001858152602001848152509050600081908060018154018082558091505060019003906000526020600020906003020160009091909190915060008201518160000160006101000a81548173ffffffffffffffffffffffffffffffffffffffff021916908373ffffffffffffffffffffffffffffffffffffffff160217905550602082015181600101908051906020019062000371929190620003a7565b50604082015181600201908051906020019062000390929190620003a7565b50505050505050565b6119b4806200097883390190565b828054620003b590620008aa565b90600052602060002090601f016020900481019282620003d9576000855562000425565b82601f10620003f457805160ff191683800117855562000425565b8280016001018555821562000425579182015b828111156200042457825182559160200191906001019062000407565b5b50905062000434919062000438565b5090565b5b808211156200045357600081600090555060010162000439565b5090565b600081519050919050565b600082825260208201905092915050565b6000819050602082019050919050565b600073ffffffffffffffffffffffffffffffffffffffff82169050919050565b6000620004b08262000483565b9050919050565b620004c281620004a3565b82525050565b600081519050919050565b600082825260208201905092915050565b60005b8381101562000504578082015181840152602081019050620004e7565b8381111562000514576000848401525b50505050565b6000601f19601f8301169050919050565b60006200053882620004c8565b620005448185620004d3565b935062000556818560208601620004e4565b62000561816200051a565b840191505092915050565b6000606083016000830151620005866000860182620004b7565b5060208301518482036020860152620005a082826200052b565b91505060408301518482036040860152620005bc82826200052b565b9150508091505092915050565b6000620005d783836200056c565b905092915050565b6000602082019050919050565b6000620005f98262000457565b62000605818562000462565b935083602082028501620006198562000473565b8060005b858110156200065b5784840389528151620006398582620005c9565b94506200064683620005df565b925060208a019950506001810190506200061d565b50829750879550505050505092915050565b60006020820190508181036000830152620006898184620005ec565b905092915050565b6000604051905090565b600080fd5b600080fd5b600080fd5b600080fd5b7f4e487b7100000000000000000000000000000000000000000000000000000000600052604160045260246000fd5b620006e9826200051a565b810181811067ffffffffffffffff821117156200070b576200070a620006af565b5b80604052505050565b60006200072062000691565b90506200072e8282620006de565b919050565b600067ffffffffffffffff821115620007515762000750620006af565b5b6200075c826200051a565b9050602081019050919050565b82818337600083830152505050565b60006200078f620007898462000733565b62000714565b905082815260208101848484011115620007ae57620007ad620006aa565b5b620007bb84828562000769565b509392505050565b600082601f830112620007db57620007da620006a5565b5b8135620007ed84826020860162000778565b91505092915050565b6000806040838503121562000810576200080f6200069b565b5b600083013567ffffffffffffffff811115620008315762000830620006a0565b5b6200083f85828601620007c3565b925050602083013567ffffffffffffffff811115620008635762000862620006a0565b5b6200087185828601620007c3565b9150509250929050565b7f4e487b7100000000000000000000000000000000000000000000000000000000600052602260045260246000fd5b60006002820490506001821680620008c357607f821691505b60208210811415620008da57620008d96200087b565b5b50919050565b620008eb81620004a3565b82525050565b600082825260208201905092915050565b60006200090f82620004c8565b6200091b8185620008f1565b93506200092d818560208601620004e4565b62000938816200051a565b840191505092915050565b60006040820190506200095a6000830185620008e0565b81810360208301526200096e818462000902565b9050939250505056fe60806040523480156200001157600080fd5b50604051620019b4380380620019b4833981810160405281019062000037919062000388565b81600260006101000a81548173ffffffffffffffffffffffffffffffffffffffff021916908373ffffffffffffffffffffffffffffffffffffffff1602179055506000600460006101000a81548160ff021916908315150217905550600080819055506000600460016101000a81548160ff0219169083151502179055508060019080519060200190620000cd929190620000d6565b50505062000453565b828054620000e4906200041d565b90600052602060002090601f01602090048101928262000108576000855562000154565b82601f106200012357805160ff191683800117855562000154565b8280016001018555821562000154579182015b828111156200015357825182559160200191906001019062000136565b5b50905062000163919062000167565b5090565b5b808211156200018257600081600090555060010162000168565b5090565b6000604051905090565b600080fd5b600080fd5b600073ffffffffffffffffffffffffffffffffffffffff82169050919050565b6000620001c7826200019a565b9050919050565b620001d981620001ba565b8114620001e557600080fd5b50565b600081519050620001f981620001ce565b92915050565b600080fd5b600080fd5b6000601f19601f8301169050919050565b7f4e487b7100000000000000000000000000000000000000000000000000000000600052604160045260246000fd5b620002548262000209565b810181811067ffffffffffffffff821117156200027657620002756200021a565b5b80604052505050565b60006200028b62000186565b905062000299828262000249565b919050565b600067ffffffffffffffff821115620002bc57620002bb6200021a565b5b620002c78262000209565b9050602081019050919050565b60005b83811015620002f4578082015181840152602081019050620002d7565b8381111562000304576000848401525b50505050565b6000620003216200031b846200029e565b6200027f565b90508281526020810184848401111562000340576200033f62000204565b5b6200034d848285620002d4565b509392505050565b600082601f8301126200036d576200036c620001ff565b5b81516200037f8482602086016200030a565b91505092915050565b60008060408385031215620003a257620003a162000190565b5b6000620003b285828601620001e8565b925050602083015167ffffffffffffffff811115620003d657620003d562000195565b5b620003e48582860162000355565b9150509250929050565b7f4e487b7100000000000000000000000000000000000000000000000000000000600052602260045260246000fd5b600060028204905060018216806200043657607f821691505b602082108114156200044d576200044c620003ee565b5b50919050565b61155180620004636000396000f3fe608060405234801561001057600080fd5b506004361061009e5760003560e01c8063481c6a7511610066578063481c6a751461014957806356a347681461016757806359f784681461018357806362d73eb81461018d578063a8311aa8146101975761009e565b8063024789a9146100a357806306fdde03146100d35780630d15fd77146100f15780632c0a3f891461010f5780634717f97c1461012b575b600080fd5b6100bd60048036038101906100b89190610cff565b6101b5565b6040516100ca9190610e5f565b60405180910390f35b6100db610449565b6040516100e89190610ecb565b60405180910390f35b6100f96104d7565b6040516101069190610efc565b60405180910390f35b61012960048036038101906101249190610f17565b6104dd565b005b6101336105c9565b6040516101409190611006565b60405180910390f35b610151610641565b60405161015e9190611069565b60405180910390f35b610181600480360381019061017c91906111b9565b610667565b005b61018b6107e4565b005b61019561087b565b005b61019f610932565b6040516101ac91906113f1565b60405180910390f35b6101bd610be3565b6000600583815481106101d3576101d2611413565b5b90600052602060002090600502019050806040518060a00160405290816000820180546101ff90611471565b80601f016020809104026020016040519081016040528092919081815260200182805461022b90611471565b80156102785780601f1061024d57610100808354040283529160200191610278565b820191906000526020600020905b81548152906001019060200180831161025b57829003601f168201915b5050505050815260200160018201805461029190611471565b80601f01602080910402602001604051908101604052809291908181526020018280546102bd90611471565b801561030a5780601f106102df5761010080835404028352916020019161030a565b820191906000526020600020905b8154815290600101906020018083116102ed57829003601f168201915b505050505081526020016002820154815260200160038201805461032d90611471565b80601f016020809104026020016040519081016040528092919081815260200182805461035990611471565b80156103a65780601f1061037b576101008083540402835291602001916103a6565b820191906000526020600020905b81548152906001019060200180831161038957829003601f168201915b505050505081526020016004820180546103bf90611471565b80601f01602080910402602001604051908101604052809291908181526020018280546103eb90611471565b80156104385780601f1061040d57610100808354040283529160200191610438565b820191906000526020600020905b81548152906001019060200180831161041b57829003601f168201915b505050505081525050915050919050565b6001805461045690611471565b80601f016020809104026020016040519081016040528092919081815260200182805461048290611471565b80156104cf5780601f106104a4576101008083540402835291602001916104cf565b820191906000526020600020905b8154815290600101906020018083116104b257829003601f168201915b505050505081565b60005481565b60011515600460019054906101000a900460ff161515146104fd57600080fd5b600015156003600084815260200190815260200160002060009054906101000a900460ff1615151461052e57600080fd5b60001515600460009054906101000a900460ff1615151461054e57600080fd5b60016003600084815260200190815260200160002060006101000a81548160ff0219169083151502179055506006818154811061058e5761058d611413565b5b9060005260206000200160008154809291906105a9906114d2565b91905055506000808154809291906105c0906114d2565b91905055505050565b606060011515600460009054906101000a900460ff161515146105eb57600080fd5b600680548060200260200160405190810160405280929190818152602001828054801561063757602002820191906000526020600020905b815481526020019060010190808311610623575b5050505050905090565b600260009054906101000a900473ffffffffffffffffffffffffffffffffffffffff1681565b600260009054906101000a900473ffffffffffffffffffffffffffffffffffffffff1673ffffffffffffffffffffffffffffffffffffffff163373ffffffffffffffffffffffffffffffffffffffff16146106c157600080fd5b600460019054906101000a900460ff16156106db57600080fd5b60006040518060a001604052808781526020018681526020018581526020018481526020018381525090506005819080600181540180825580915050600190039060005260206000209060050201600090919091909150600082015181600001908051906020019061074e929190610c12565b50602082015181600101908051906020019061076b929190610c12565b50604082015181600201556060820151816003019080519060200190610792929190610c12565b5060808201518160040190805190602001906107af929190610c12565b505050600660009080600181540180825580915050600190039060005260206000200160009091909190915055505050505050565b600260009054906101000a900473ffffffffffffffffffffffffffffffffffffffff1673ffffffffffffffffffffffffffffffffffffffff163373ffffffffffffffffffffffffffffffffffffffff161461083e57600080fd5b60011515600460019054906101000a900460ff1615151461085e57600080fd5b6001600460006101000a81548160ff021916908315150217905550565b600260009054906101000a900473ffffffffffffffffffffffffffffffffffffffff1673ffffffffffffffffffffffffffffffffffffffff163373ffffffffffffffffffffffffffffffffffffffff16146108d557600080fd5b60001515600460009054906101000a900460ff161515146108f557600080fd5b60001515600460019054906101000a900460ff1615151461091557600080fd5b6001600460016101000a81548160ff021916908315150217905550565b60606005805480602002602001604051908101604052809291908181526020016000905b82821015610bda57838290600052602060002090600502016040518060a001604052908160008201805461098990611471565b80601f01602080910402602001604051908101604052809291908181526020018280546109b590611471565b8015610a025780601f106109d757610100808354040283529160200191610a02565b820191906000526020600020905b8154815290600101906020018083116109e557829003601f168201915b50505050508152602001600182018054610a1b90611471565b80601f0160208091040260200160405190810160405280929190818152602001828054610a4790611471565b8015610a945780601f10610a6957610100808354040283529160200191610a94565b820191906000526020600020905b815481529060010190602001808311610a7757829003601f168201915b5050505050815260200160028201548152602001600382018054610ab790611471565b80601f0160208091040260200160405190810160405280929190818152602001828054610ae390611471565b8015610b305780601f10610b0557610100808354040283529160200191610b30565b820191906000526020600020905b815481529060010190602001808311610b1357829003601f168201915b50505050508152602001600482018054610b4990611471565b80601f0160208091040260200160405190810160405280929190818152602001828054610b7590611471565b8015610bc25780601f10610b9757610100808354040283529160200191610bc2565b820191906000526020600020905b815481529060010190602001808311610ba557829003601f168201915b50505050508152505081526020019060010190610956565b50505050905090565b6040518060a0016040528060608152602001606081526020016000815260200160608152602001606081525090565b828054610c1e90611471565b90600052602060002090601f016020900481019282610c405760008555610c87565b82601f10610c5957805160ff1916838001178555610c87565b82800160010185558215610c87579182015b82811115610c86578251825591602001919060010190610c6b565b5b509050610c949190610c98565b5090565b5b80821115610cb1576000816000905550600101610c99565b5090565b6000604051905090565b600080fd5b600080fd5b6000819050919050565b610cdc81610cc9565b8114610ce757600080fd5b50565b600081359050610cf981610cd3565b92915050565b600060208284031215610d1557610d14610cbf565b5b6000610d2384828501610cea565b91505092915050565b600081519050919050565b600082825260208201905092915050565b60005b83811015610d66578082015181840152602081019050610d4b565b83811115610d75576000848401525b50505050565b6000601f19601f8301169050919050565b6000610d9782610d2c565b610da18185610d37565b9350610db1818560208601610d48565b610dba81610d7b565b840191505092915050565b610dce81610cc9565b82525050565b600060a0830160008301518482036000860152610df18282610d8c565b91505060208301518482036020860152610e0b8282610d8c565b9150506040830151610e206040860182610dc5565b5060608301518482036060860152610e388282610d8c565b91505060808301518482036080860152610e528282610d8c565b9150508091505092915050565b60006020820190508181036000830152610e798184610dd4565b905092915050565b600082825260208201905092915050565b6000610e9d82610d2c565b610ea78185610e81565b9350610eb7818560208601610d48565b610ec081610d7b565b840191505092915050565b60006020820190508181036000830152610ee58184610e92565b905092915050565b610ef681610cc9565b82525050565b6000602082019050610f116000830184610eed565b92915050565b60008060408385031215610f2e57610f2d610cbf565b5b6000610f3c85828601610cea565b9250506020610f4d85828601610cea565b9150509250929050565b600081519050919050565b600082825260208201905092915050565b6000819050602082019050919050565b6000610f8f8383610dc5565b60208301905092915050565b6000602082019050919050565b6000610fb382610f57565b610fbd8185610f62565b9350610fc883610f73565b8060005b83811015610ff9578151610fe08882610f83565b9750610feb83610f9b565b925050600181019050610fcc565b5085935050505092915050565b600060208201905081810360008301526110208184610fa8565b905092915050565b600073ffffffffffffffffffffffffffffffffffffffff82169050919050565b600061105382611028565b9050919050565b61106381611048565b82525050565b600060208201905061107e600083018461105a565b92915050565b600080fd5b600080fd5b7f4e487b7100000000000000000000000000000000000000000000000000000000600052604160045260246000fd5b6110c682610d7b565b810181811067ffffffffffffffff821117156110e5576110e461108e565b5b80604052505050565b60006110f8610cb5565b905061110482826110bd565b919050565b600067ffffffffffffffff8211156111245761112361108e565b5b61112d82610d7b565b9050602081019050919050565b82818337600083830152505050565b600061115c61115784611109565b6110ee565b90508281526020810184848401111561117857611177611089565b5b61118384828561113a565b509392505050565b600082601f8301126111a05761119f611084565b5b81356111b0848260208601611149565b91505092915050565b600080600080600060a086880312156111d5576111d4610cbf565b5b600086013567ffffffffffffffff8111156111f3576111f2610cc4565b5b6111ff8882890161118b565b955050602086013567ffffffffffffffff8111156112205761121f610cc4565b5b61122c8882890161118b565b945050604061123d88828901610cea565b935050606086013567ffffffffffffffff81111561125e5761125d610cc4565b5b61126a8882890161118b565b925050608086013567ffffffffffffffff81111561128b5761128a610cc4565b5b6112978882890161118b565b9150509295509295909350565b600081519050919050565b600082825260208201905092915050565b6000819050602082019050919050565b600060a08301600083015184820360008601526112ed8282610d8c565b915050602083015184820360208601526113078282610d8c565b915050604083015161131c6040860182610dc5565b50606083015184820360608601526113348282610d8c565b9150506080830151848203608086015261134e8282610d8c565b9150508091505092915050565b600061136783836112d0565b905092915050565b6000602082019050919050565b6000611387826112a4565b61139181856112af565b9350836020820285016113a3856112c0565b8060005b858110156113df57848403895281516113c0858261135b565b94506113cb8361136f565b925060208a019950506001810190506113a7565b50829750879550505050505092915050565b6000602082019050818103600083015261140b818461137c565b905092915050565b7f4e487b7100000000000000000000000000000000000000000000000000000000600052603260045260246000fd5b7f4e487b7100000000000000000000000000000000000000000000000000000000600052602260045260246000fd5b6000600282049050600182168061148957607f821691505b6020821081141561149d5761149c611442565b5b50919050565b7f4e487b7100000000000000000000000000000000000000000000000000000000600052601160045260246000fd5b60006114dd82610cc9565b91507fffffffffffffffffffffffffffffffffffffffffffffffffffffffffffffffff8214156115105761150f6114a3565b5b60018201905091905056fea2646970667358221220c1ce5e38473059df0757bf8815deb628077cc9ae8e3da765e115541c0a018c8264736f6c634300080a0033a26469706673582212207ef0aaf3cec4a1d88d6c089912346f6720941206bbcb9d3dfc067f415b59734a64736f6c634300080a0033","opcodes":"PUSH1 0x80 PUSH1 0x40 MSTORE CALLVALUE DUP1 ISZERO PUSH2 0x10 JUMPI PUSH1 0x0 DUP1 REVERT JUMPDEST POP PUSH2 0x2361 DUP1 PUSH2 0x20 PUSH1 0x0 CODECOPY PUSH1 0x0 RETURN INVALID PUSH1 0x80 PUSH1 0x40 MSTORE CALLVALUE DUP1 ISZERO PUSH3 0x11 JUMPI PUSH1 0x0 DUP1 REVERT JUMPDEST POP PUSH1 0x4 CALLDATASIZE LT PUSH3 0x3A JUMPI PUSH1 0x0 CALLDATALOAD PUSH1 0xE0 SHR DUP1 PUSH4 0x9F3A7F52 EQ PUSH3 0x3F JUMPI DUP1 PUSH4 0xBD27ECA0 EQ PUSH3 0x61 JUMPI JUMPDEST PUSH1 0x0 DUP1 REVERT JUMPDEST PUSH3 0x49 PUSH3 0x81 JUMP JUMPDEST PUSH1 0x40 MLOAD PUSH3 0x58 SWAP2 SWAP1 PUSH3 0x66D JUMP JUMPDEST PUSH1 0x40 MLOAD DUP1 SWAP2 SUB SWAP1 RETURN JUMPDEST PUSH3 0x7F PUSH1 0x4 DUP1 CALLDATASIZE SUB DUP2 ADD SWAP1 PUSH3 0x79 SWAP2 SWAP1 PUSH3 0x7F6 JUMP JUMPDEST PUSH3 0x26C JUMP JUMPDEST STOP JUMPDEST PUSH1 0x60 PUSH1 0x0 DUP1 SLOAD DUP1 PUSH1 0x20 MUL PUSH1 0x20 ADD PUSH1 0x40 MLOAD SWAP1 DUP2 ADD PUSH1 0x40 MSTORE DUP1 SWAP3 SWAP2 SWAP1 DUP2 DUP2 MSTORE PUSH1 0x20 ADD PUSH1 0x0 SWAP1 JUMPDEST DUP3 DUP3 LT ISZERO PUSH3 0x263 JUMPI DUP4 DUP3 SWAP1 PUSH1 0x0 MSTORE PUSH1 0x20 PUSH1 0x0 KECCAK256 SWAP1 PUSH1 0x3 MUL ADD PUSH1 0x40 MLOAD DUP1 PUSH1 0x60 ADD PUSH1 0x40 MSTORE SWAP1 DUP2 PUSH1 0x0 DUP3 ADD PUSH1 0x0 SWAP1 SLOAD SWAP1 PUSH2 0x100 EXP SWAP1 DIV PUSH20 0xFFFFFFFFFFFFFFFFFFFFFFFFFFFFFFFFFFFFFFFF AND PUSH20 0xFFFFFFFFFFFFFFFFFFFFFFFFFFFFFFFFFFFFFFFF AND PUSH20 0xFFFFFFFFFFFFFFFFFFFFFFFFFFFFFFFFFFFFFFFF AND DUP2 MSTORE PUSH1 0x20 ADD PUSH1 0x1 DUP3 ADD DUP1 SLOAD PUSH3 0x131 SWAP1 PUSH3 0x8AA JUMP JUMPDEST DUP1 PUSH1 0x1F ADD PUSH1 0x20 DUP1 SWAP2 DIV MUL PUSH1 0x20 ADD PUSH1 0x40 MLOAD SWAP1 DUP2 ADD PUSH1 0x40 MSTORE DUP1 SWAP3 SWAP2 SWAP1 DUP2 DUP2 MSTORE PUSH1 0x20 ADD DUP3 DUP1 SLOAD PUSH3 0x15F SWAP1 PUSH3 0x8AA JUMP JUMPDEST DUP1 ISZERO PUSH3 0x1B0 JUMPI DUP1 PUSH1 0x1F LT PUSH3 0x184 JUMPI PUSH2 0x100 DUP1 DUP4 SLOAD DIV MUL DUP4 MSTORE SWAP2 PUSH1 0x20 ADD SWAP2 PUSH3 0x1B0 JUMP JUMPDEST DUP3 ADD SWAP2 SWAP1 PUSH1 0x0 MSTORE PUSH1 0x20 PUSH1 0x0 KECCAK256 SWAP1 JUMPDEST DUP2 SLOAD DUP2 MSTORE SWAP1 PUSH1 0x1 ADD SWAP1 PUSH1 0x20 ADD DUP1 DUP4 GT PUSH3 0x192 JUMPI DUP3 SWAP1 SUB PUSH1 0x1F AND DUP3 ADD SWAP2 JUMPDEST POP POP POP POP POP DUP2 MSTORE PUSH1 0x20 ADD PUSH1 0x2 DUP3 ADD DUP1 SLOAD PUSH3 0x1CB SWAP1 PUSH3 0x8AA JUMP JUMPDEST DUP1 PUSH1 0x1F ADD PUSH1 0x20 DUP1 SWAP2 DIV MUL PUSH1 0x20 ADD PUSH1 0x40 MLOAD SWAP1 DUP2 ADD PUSH1 0x40 MSTORE DUP1 SWAP3 SWAP2 SWAP1 DUP2 DUP2 MSTORE PUSH1 0x20 ADD DUP3 DUP1 SLOAD PUSH3 0x1F9 SWAP1 PUSH3 0x8AA JUMP JUMPDEST DUP1 ISZERO PUSH3 0x24A JUMPI DUP1 PUSH1 0x1F LT PUSH3 0x21E JUMPI PUSH2 0x100 DUP1 DUP4 SLOAD DIV MUL DUP4 MSTORE SWAP2 PUSH1 0x20 ADD SWAP2 PUSH3 0x24A JUMP JUMPDEST DUP3 ADD SWAP2 SWAP1 PUSH1 0x0 MSTORE PUSH1 0x20 PUSH1 0x0 KECCAK256 SWAP1 JUMPDEST DUP2 SLOAD DUP2 MSTORE SWAP1 PUSH1 0x1 ADD SWAP1 PUSH1 0x20 ADD DUP1 DUP4 GT PUSH3 0x22C JUMPI DUP3 SWAP1 SUB PUSH1 0x1F AND DUP3 ADD SWAP2 JUMPDEST POP POP POP POP POP DUP2 MSTORE POP POP DUP2 MSTORE PUSH1 0x20 ADD SWAP1 PUSH1 0x1 ADD SWAP1 PUSH3 0xA5 JUMP JUMPDEST POP POP POP POP SWAP1 POP SWAP1 JUMP JUMPDEST PUSH1 0x0 CALLER DUP4 PUSH1 0x40 MLOAD PUSH3 0x27E SWAP1 PUSH3 0x399 JUMP JUMPDEST PUSH3 0x28B SWAP3 SWAP2 SWAP1 PUSH3 0x943 JUMP JUMPDEST PUSH1 0x40 MLOAD DUP1 SWAP2 SUB SWAP1 PUSH1 0x0 CREATE DUP1 ISZERO DUP1 ISZERO PUSH3 0x2A8 JUMPI RETURNDATASIZE PUSH1 0x0 DUP1 RETURNDATACOPY RETURNDATASIZE PUSH1 0x0 REVERT JUMPDEST POP SWAP1 POP PUSH1 0x0 PUSH1 0x40 MLOAD DUP1 PUSH1 0x60 ADD PUSH1 0x40 MSTORE DUP1 DUP4 PUSH20 0xFFFFFFFFFFFFFFFFFFFFFFFFFFFFFFFFFFFFFFFF AND DUP2 MSTORE PUSH1 0x20 ADD DUP6 DUP2 MSTORE PUSH1 0x20 ADD DUP5 DUP2 MSTORE POP SWAP1 POP PUSH1 0x0 DUP2 SWAP1 DUP1 PUSH1 0x1 DUP2 SLOAD ADD DUP1 DUP3 SSTORE DUP1 SWAP2 POP POP PUSH1 0x1 SWAP1 SUB SWAP1 PUSH1 0x0 MSTORE PUSH1 0x20 PUSH1 0x0 KECCAK256 SWAP1 PUSH1 0x3 MUL ADD PUSH1 0x0 SWAP1 SWAP2 SWAP1 SWAP2 SWAP1 SWAP2 POP PUSH1 0x0 DUP3 ADD MLOAD DUP2 PUSH1 0x0 ADD PUSH1 0x0 PUSH2 0x100 EXP DUP2 SLOAD DUP2 PUSH20 0xFFFFFFFFFFFFFFFFFFFFFFFFFFFFFFFFFFFFFFFF MUL NOT AND SWAP1 DUP4 PUSH20 0xFFFFFFFFFFFFFFFFFFFFFFFFFFFFFFFFFFFFFFFF AND MUL OR SWAP1 SSTORE POP PUSH1 0x20 DUP3 ADD MLOAD DUP2 PUSH1 0x1 ADD SWAP1 DUP1 MLOAD SWAP1 PUSH1 0x20 ADD SWAP1 PUSH3 0x371 SWAP3 SWAP2 SWAP1 PUSH3 0x3A7 JUMP JUMPDEST POP PUSH1 0x40 DUP3 ADD MLOAD DUP2 PUSH1 0x2 ADD SWAP1 DUP1 MLOAD SWAP1 PUSH1 0x20 ADD SWAP1 PUSH3 0x390 SWAP3 SWAP2 SWAP1 PUSH3 0x3A7 JUMP JUMPDEST POP POP POP POP POP POP POP JUMP JUMPDEST PUSH2 0x19B4 DUP1 PUSH3 0x978 DUP4 CODECOPY ADD SWAP1 JUMP JUMPDEST DUP3 DUP1 SLOAD PUSH3 0x3B5 SWAP1 PUSH3 0x8AA JUMP JUMPDEST SWAP1 PUSH1 0x0 MSTORE PUSH1 0x20 PUSH1 0x0 KECCAK256 SWAP1 PUSH1 0x1F ADD PUSH1 0x20 SWAP1 DIV DUP2 ADD SWAP3 DUP3 PUSH3 0x3D9 JUMPI PUSH1 0x0 DUP6 SSTORE PUSH3 0x425 JUMP JUMPDEST DUP3 PUSH1 0x1F LT PUSH3 0x3F4 JUMPI DUP1 MLOAD PUSH1 0xFF NOT AND DUP4 DUP1 ADD OR DUP6 SSTORE PUSH3 0x425 JUMP JUMPDEST DUP3 DUP1 ADD PUSH1 0x1 ADD DUP6 SSTORE DUP3 ISZERO PUSH3 0x425 JUMPI SWAP2 DUP3 ADD JUMPDEST DUP3 DUP2 GT ISZERO PUSH3 0x424 JUMPI DUP3 MLOAD DUP3 SSTORE SWAP2 PUSH1 0x20 ADD SWAP2 SWAP1 PUSH1 0x1 ADD SWAP1 PUSH3 0x407 JUMP JUMPDEST JUMPDEST POP SWAP1 POP PUSH3 0x434 SWAP2 SWAP1 PUSH3 0x438 JUMP JUMPDEST POP SWAP1 JUMP JUMPDEST JUMPDEST DUP1 DUP3 GT ISZERO PUSH3 0x453 JUMPI PUSH1 0x0 DUP2 PUSH1 0x0 SWAP1 SSTORE POP PUSH1 0x1 ADD PUSH3 0x439 JUMP JUMPDEST POP SWAP1 JUMP JUMPDEST PUSH1 0x0 DUP2 MLOAD SWAP1 POP SWAP2 SWAP1 POP JUMP JUMPDEST PUSH1 0x0 DUP3 DUP3 MSTORE PUSH1 0x20 DUP3 ADD SWAP1 POP SWAP3 SWAP2 POP POP JUMP JUMPDEST PUSH1 0x0 DUP2 SWAP1 POP PUSH1 0x20 DUP3 ADD SWAP1 POP SWAP2 SWAP1 POP JUMP JUMPDEST PUSH1 0x0 PUSH20 0xFFFFFFFFFFFFFFFFFFFFFFFFFFFFFFFFFFFFFFFF DUP3 AND SWAP1 POP SWAP2 SWAP1 POP JUMP JUMPDEST PUSH1 0x0 PUSH3 0x4B0 DUP3 PUSH3 0x483 JUMP JUMPDEST SWAP1 POP SWAP2 SWAP1 POP JUMP JUMPDEST PUSH3 0x4C2 DUP2 PUSH3 0x4A3 JUMP JUMPDEST DUP3 MSTORE POP POP JUMP JUMPDEST PUSH1 0x0 DUP2 MLOAD SWAP1 POP SWAP2 SWAP1 POP JUMP JUMPDEST PUSH1 0x0 DUP3 DUP3 MSTORE PUSH1 0x20 DUP3 ADD SWAP1 POP SWAP3 SWAP2 POP POP JUMP JUMPDEST PUSH1 0x0 JUMPDEST DUP4 DUP2 LT ISZERO PUSH3 0x504 JUMPI DUP1 DUP3 ADD MLOAD DUP2 DUP5 ADD MSTORE PUSH1 0x20 DUP2 ADD SWAP1 POP PUSH3 0x4E7 JUMP JUMPDEST DUP4 DUP2 GT ISZERO PUSH3 0x514 JUMPI PUSH1 0x0 DUP5 DUP5 ADD MSTORE JUMPDEST POP POP POP POP JUMP JUMPDEST PUSH1 0x0 PUSH1 0x1F NOT PUSH1 0x1F DUP4 ADD AND SWAP1 POP SWAP2 SWAP1 POP JUMP JUMPDEST PUSH1 0x0 PUSH3 0x538 DUP3 PUSH3 0x4C8 JUMP JUMPDEST PUSH3 0x544 DUP2 DUP6 PUSH3 0x4D3 JUMP JUMPDEST SWAP4 POP PUSH3 0x556 DUP2 DUP6 PUSH1 0x20 DUP7 ADD PUSH3 0x4E4 JUMP JUMPDEST PUSH3 0x561 DUP2 PUSH3 0x51A JUMP JUMPDEST DUP5 ADD SWAP2 POP POP SWAP3 SWAP2 POP POP JUMP JUMPDEST PUSH1 0x0 PUSH1 0x60 DUP4 ADD PUSH1 0x0 DUP4 ADD MLOAD PUSH3 0x586 PUSH1 0x0 DUP7 ADD DUP3 PUSH3 0x4B7 JUMP JUMPDEST POP PUSH1 0x20 DUP4 ADD MLOAD DUP5 DUP3 SUB PUSH1 0x20 DUP7 ADD MSTORE PUSH3 0x5A0 DUP3 DUP3 PUSH3 0x52B JUMP JUMPDEST SWAP2 POP POP PUSH1 0x40 DUP4 ADD MLOAD DUP5 DUP3 SUB PUSH1 0x40 DUP7 ADD MSTORE PUSH3 0x5BC DUP3 DUP3 PUSH3 0x52B JUMP JUMPDEST SWAP2 POP POP DUP1 SWAP2 POP POP SWAP3 SWAP2 POP POP JUMP JUMPDEST PUSH1 0x0 PUSH3 0x5D7 DUP4 DUP4 PUSH3 0x56C JUMP JUMPDEST SWAP1 POP SWAP3 SWAP2 POP POP JUMP JUMPDEST PUSH1 0x0 PUSH1 0x20 DUP3 ADD SWAP1 POP SWAP2 SWAP1 POP JUMP JUMPDEST PUSH1 0x0 PUSH3 0x5F9 DUP3 PUSH3 0x457 JUMP JUMPDEST PUSH3 0x605 DUP2 DUP6 PUSH3 0x462 JUMP JUMPDEST SWAP4 POP DUP4 PUSH1 0x20 DUP3 MUL DUP6 ADD PUSH3 0x619 DUP6 PUSH3 0x473 JUMP JUMPDEST DUP1 PUSH1 0x0 JUMPDEST DUP6 DUP2 LT ISZERO PUSH3 0x65B JUMPI DUP5 DUP5 SUB DUP10 MSTORE DUP2 MLOAD PUSH3 0x639 DUP6 DUP3 PUSH3 0x5C9 JUMP JUMPDEST SWAP5 POP PUSH3 0x646 DUP4 PUSH3 0x5DF JUMP JUMPDEST SWAP3 POP PUSH1 0x20 DUP11 ADD SWAP10 POP POP PUSH1 0x1 DUP2 ADD SWAP1 POP PUSH3 0x61D JUMP JUMPDEST POP DUP3 SWAP8 POP DUP8 SWAP6 POP POP POP POP POP POP SWAP3 SWAP2 POP POP JUMP JUMPDEST PUSH1 0x0 PUSH1 0x20 DUP3 ADD SWAP1 POP DUP2 DUP2 SUB PUSH1 0x0 DUP4 ADD MSTORE PUSH3 0x689 DUP2 DUP5 PUSH3 0x5EC JUMP JUMPDEST SWAP1 POP SWAP3 SWAP2 POP POP JUMP JUMPDEST PUSH1 0x0 PUSH1 0x40 MLOAD SWAP1 POP SWAP1 JUMP JUMPDEST PUSH1 0x0 DUP1 REVERT JUMPDEST PUSH1 0x0 DUP1 REVERT JUMPDEST PUSH1 0x0 DUP1 REVERT JUMPDEST PUSH1 0x0 DUP1 REVERT JUMPDEST PUSH32 0x4E487B7100000000000000000000000000000000000000000000000000000000 PUSH1 0x0 MSTORE PUSH1 0x41 PUSH1 0x4 MSTORE PUSH1 0x24 PUSH1 0x0 REVERT JUMPDEST PUSH3 0x6E9 DUP3 PUSH3 0x51A JUMP JUMPDEST DUP2 ADD DUP2 DUP2 LT PUSH8 0xFFFFFFFFFFFFFFFF DUP3 GT OR ISZERO PUSH3 0x70B JUMPI PUSH3 0x70A PUSH3 0x6AF JUMP JUMPDEST JUMPDEST DUP1 PUSH1 0x40 MSTORE POP POP POP JUMP JUMPDEST PUSH1 0x0 PUSH3 0x720 PUSH3 0x691 JUMP JUMPDEST SWAP1 POP PUSH3 0x72E DUP3 DUP3 PUSH3 0x6DE JUMP JUMPDEST SWAP2 SWAP1 POP JUMP JUMPDEST PUSH1 0x0 PUSH8 0xFFFFFFFFFFFFFFFF DUP3 GT ISZERO PUSH3 0x751 JUMPI PUSH3 0x750 PUSH3 0x6AF JUMP JUMPDEST JUMPDEST PUSH3 0x75C DUP3 PUSH3 0x51A JUMP JUMPDEST SWAP1 POP PUSH1 0x20 DUP2 ADD SWAP1 POP SWAP2 SWAP1 POP JUMP JUMPDEST DUP3 DUP2 DUP4 CALLDATACOPY PUSH1 0x0 DUP4 DUP4 ADD MSTORE POP POP POP JUMP JUMPDEST PUSH1 0x0 PUSH3 0x78F PUSH3 0x789 DUP5 PUSH3 0x733 JUMP JUMPDEST PUSH3 0x714 JUMP JUMPDEST SWAP1 POP DUP3 DUP2 MSTORE PUSH1 0x20 DUP2 ADD DUP5 DUP5 DUP5 ADD GT ISZERO PUSH3 0x7AE JUMPI PUSH3 0x7AD PUSH3 0x6AA JUMP JUMPDEST JUMPDEST PUSH3 0x7BB DUP5 DUP3 DUP6 PUSH3 0x769 JUMP JUMPDEST POP SWAP4 SWAP3 POP POP POP JUMP JUMPDEST PUSH1 0x0 DUP3 PUSH1 0x1F DUP4 ADD SLT PUSH3 0x7DB JUMPI PUSH3 0x7DA PUSH3 0x6A5 JUMP JUMPDEST JUMPDEST DUP2 CALLDATALOAD PUSH3 0x7ED DUP5 DUP3 PUSH1 0x20 DUP7 ADD PUSH3 0x778 JUMP JUMPDEST SWAP2 POP POP SWAP3 SWAP2 POP POP JUMP JUMPDEST PUSH1 0x0 DUP1 PUSH1 0x40 DUP4 DUP6 SUB SLT ISZERO PUSH3 0x810 JUMPI PUSH3 0x80F PUSH3 0x69B JUMP JUMPDEST JUMPDEST PUSH1 0x0 DUP4 ADD CALLDATALOAD PUSH8 0xFFFFFFFFFFFFFFFF DUP2 GT ISZERO PUSH3 0x831 JUMPI PUSH3 0x830 PUSH3 0x6A0 JUMP JUMPDEST JUMPDEST PUSH3 0x83F DUP6 DUP3 DUP7 ADD PUSH3 0x7C3 JUMP JUMPDEST SWAP3 POP POP PUSH1 0x20 DUP4 ADD CALLDATALOAD PUSH8 0xFFFFFFFFFFFFFFFF DUP2 GT ISZERO PUSH3 0x863 JUMPI PUSH3 0x862 PUSH3 0x6A0 JUMP JUMPDEST JUMPDEST PUSH3 0x871 DUP6 DUP3 DUP7 ADD PUSH3 0x7C3 JUMP JUMPDEST SWAP2 POP POP SWAP3 POP SWAP3 SWAP1 POP JUMP JUMPDEST PUSH32 0x4E487B7100000000000000000000000000000000000000000000000000000000 PUSH1 0x0 MSTORE PUSH1 0x22 PUSH1 0x4 MSTORE PUSH1 0x24 PUSH1 0x0 REVERT JUMPDEST PUSH1 0x0 PUSH1 0x2 DUP3 DIV SWAP1 POP PUSH1 0x1 DUP3 AND DUP1 PUSH3 0x8C3 JUMPI PUSH1 0x7F DUP3 AND SWAP2 POP JUMPDEST PUSH1 0x20 DUP3 LT DUP2 EQ ISZERO PUSH3 0x8DA JUMPI PUSH3 0x8D9 PUSH3 0x87B JUMP JUMPDEST JUMPDEST POP SWAP2 SWAP1 POP JUMP JUMPDEST PUSH3 0x8EB DUP2 PUSH3 0x4A3 JUMP JUMPDEST DUP3 MSTORE POP POP JUMP JUMPDEST PUSH1 0x0 DUP3 DUP3 MSTORE PUSH1 0x20 DUP3 ADD SWAP1 POP SWAP3 SWAP2 POP POP JUMP JUMPDEST PUSH1 0x0 PUSH3 0x90F DUP3 PUSH3 0x4C8 JUMP JUMPDEST PUSH3 0x91B DUP2 DUP6 PUSH3 0x8F1 JUMP JUMPDEST SWAP4 POP PUSH3 0x92D DUP2 DUP6 PUSH1 0x20 DUP7 ADD PUSH3 0x4E4 JUMP JUMPDEST PUSH3 0x938 DUP2 PUSH3 0x51A JUMP JUMPDEST DUP5 ADD SWAP2 POP POP SWAP3 SWAP2 POP POP JUMP JUMPDEST PUSH1 0x0 PUSH1 0x40 DUP3 ADD SWAP1 POP PUSH3 0x95A PUSH1 0x0 DUP4 ADD DUP6 PUSH3 0x8E0 JUMP JUMPDEST DUP2 DUP2 SUB PUSH1 0x20 DUP4 ADD MSTORE PUSH3 0x96E DUP2 DUP5 PUSH3 0x902 JUMP JUMPDEST SWAP1 POP SWAP4 SWAP3 POP POP POP JUMP INVALID PUSH1 0x80 PUSH1 0x40 MSTORE CALLVALUE DUP1 ISZERO PUSH3 0x11 JUMPI PUSH1 0x0 DUP1 REVERT JUMPDEST POP PUSH1 0x40 MLOAD PUSH3 0x19B4 CODESIZE SUB DUP1 PUSH3 0x19B4 DUP4 CODECOPY DUP2 DUP2 ADD PUSH1 0x40 MSTORE DUP2 ADD SWAP1 PUSH3 0x37 SWAP2 SWAP1 PUSH3 0x388 JUMP JUMPDEST DUP2 PUSH1 0x2 PUSH1 0x0 PUSH2 0x100 EXP DUP2 SLOAD DUP2 PUSH20 0xFFFFFFFFFFFFFFFFFFFFFFFFFFFFFFFFFFFFFFFF MUL NOT AND SWAP1 DUP4 PUSH20 0xFFFFFFFFFFFFFFFFFFFFFFFFFFFFFFFFFFFFFFFF AND MUL OR SWAP1 SSTORE POP PUSH1 0x0 PUSH1 0x4 PUSH1 0x0 PUSH2 0x100 EXP DUP2 SLOAD DUP2 PUSH1 0xFF MUL NOT AND SWAP1 DUP4 ISZERO ISZERO MUL OR SWAP1 SSTORE POP PUSH1 0x0 DUP1 DUP2 SWAP1 SSTORE POP PUSH1 0x0 PUSH1 0x4 PUSH1 0x1 PUSH2 0x100 EXP DUP2 SLOAD DUP2 PUSH1 0xFF MUL NOT AND SWAP1 DUP4 ISZERO ISZERO MUL OR SWAP1 SSTORE POP DUP1 PUSH1 0x1 SWAP1 DUP1 MLOAD SWAP1 PUSH1 0x20 ADD SWAP1 PUSH3 0xCD SWAP3 SWAP2 SWAP1 PUSH3 0xD6 JUMP JUMPDEST POP POP POP PUSH3 0x453 JUMP JUMPDEST DUP3 DUP1 SLOAD PUSH3 0xE4 SWAP1 PUSH3 0x41D JUMP JUMPDEST SWAP1 PUSH1 0x0 MSTORE PUSH1 0x20 PUSH1 0x0 KECCAK256 SWAP1 PUSH1 0x1F ADD PUSH1 0x20 SWAP1 DIV DUP2 ADD SWAP3 DUP3 PUSH3 0x108 JUMPI PUSH1 0x0 DUP6 SSTORE PUSH3 0x154 JUMP JUMPDEST DUP3 PUSH1 0x1F LT PUSH3 0x123 JUMPI DUP1 MLOAD PUSH1 0xFF NOT AND DUP4 DUP1 ADD OR DUP6 SSTORE PUSH3 0x154 JUMP JUMPDEST DUP3 DUP1 ADD PUSH1 0x1 ADD DUP6 SSTORE DUP3 ISZERO PUSH3 0x154 JUMPI SWAP2 DUP3 ADD JUMPDEST DUP3 DUP2 GT ISZERO PUSH3 0x153 JUMPI DUP3 MLOAD DUP3 SSTORE SWAP2 PUSH1 0x20 ADD SWAP2 SWAP1 PUSH1 0x1 ADD SWAP1 PUSH3 0x136 JUMP JUMPDEST JUMPDEST POP SWAP1 POP PUSH3 0x163 SWAP2 SWAP1 PUSH3 0x167 JUMP JUMPDEST POP SWAP1 JUMP JUMPDEST JUMPDEST DUP1 DUP3 GT ISZERO PUSH3 0x182 JUMPI PUSH1 0x0 DUP2 PUSH1 0x0 SWAP1 SSTORE POP PUSH1 0x1 ADD PUSH3 0x168 JUMP JUMPDEST POP SWAP1 JUMP JUMPDEST PUSH1 0x0 PUSH1 0x40 MLOAD SWAP1 POP SWAP1 JUMP JUMPDEST PUSH1 0x0 DUP1 REVERT JUMPDEST PUSH1 0x0 DUP1 REVERT JUMPDEST PUSH1 0x0 PUSH20 0xFFFFFFFFFFFFFFFFFFFFFFFFFFFFFFFFFFFFFFFF DUP3 AND SWAP1 POP SWAP2 SWAP1 POP JUMP JUMPDEST PUSH1 0x0 PUSH3 0x1C7 DUP3 PUSH3 0x19A JUMP JUMPDEST SWAP1 POP SWAP2 SWAP1 POP JUMP JUMPDEST PUSH3 0x1D9 DUP2 PUSH3 0x1BA JUMP JUMPDEST DUP2 EQ PUSH3 0x1E5 JUMPI PUSH1 0x0 DUP1 REVERT JUMPDEST POP JUMP JUMPDEST PUSH1 0x0 DUP2 MLOAD SWAP1 POP PUSH3 0x1F9 DUP2 PUSH3 0x1CE JUMP JUMPDEST SWAP3 SWAP2 POP POP JUMP JUMPDEST PUSH1 0x0 DUP1 REVERT JUMPDEST PUSH1 0x0 DUP1 REVERT JUMPDEST PUSH1 0x0 PUSH1 0x1F NOT PUSH1 0x1F DUP4 ADD AND SWAP1 POP SWAP2 SWAP1 POP JUMP JUMPDEST PUSH32 0x4E487B7100000000000000000000000000000000000000000000000000000000 PUSH1 0x0 MSTORE PUSH1 0x41 PUSH1 0x4 MSTORE PUSH1 0x24 PUSH1 0x0 REVERT JUMPDEST PUSH3 0x254 DUP3 PUSH3 0x209 JUMP JUMPDEST DUP2 ADD DUP2 DUP2 LT PUSH8 0xFFFFFFFFFFFFFFFF DUP3 GT OR ISZERO PUSH3 0x276 JUMPI PUSH3 0x275 PUSH3 0x21A JUMP JUMPDEST JUMPDEST DUP1 PUSH1 0x40 MSTORE POP POP POP JUMP JUMPDEST PUSH1 0x0 PUSH3 0x28B PUSH3 0x186 JUMP JUMPDEST SWAP1 POP PUSH3 0x299 DUP3 DUP3 PUSH3 0x249 JUMP JUMPDEST SWAP2 SWAP1 POP JUMP JUMPDEST PUSH1 0x0 PUSH8 0xFFFFFFFFFFFFFFFF DUP3 GT ISZERO PUSH3 0x2BC JUMPI PUSH3 0x2BB PUSH3 0x21A JUMP JUMPDEST JUMPDEST PUSH3 0x2C7 DUP3 PUSH3 0x209 JUMP JUMPDEST SWAP1 POP PUSH1 0x20 DUP2 ADD SWAP1 POP SWAP2 SWAP1 POP JUMP JUMPDEST PUSH1 0x0 JUMPDEST DUP4 DUP2 LT ISZERO PUSH3 0x2F4 JUMPI DUP1 DUP3 ADD MLOAD DUP2 DUP5 ADD MSTORE PUSH1 0x20 DUP2 ADD SWAP1 POP PUSH3 0x2D7 JUMP JUMPDEST DUP4 DUP2 GT ISZERO PUSH3 0x304 JUMPI PUSH1 0x0 DUP5 DUP5 ADD MSTORE JUMPDEST POP POP POP POP JUMP JUMPDEST PUSH1 0x0 PUSH3 0x321 PUSH3 0x31B DUP5 PUSH3 0x29E JUMP JUMPDEST PUSH3 0x27F JUMP JUMPDEST SWAP1 POP DUP3 DUP2 MSTORE PUSH1 0x20 DUP2 ADD DUP5 DUP5 DUP5 ADD GT ISZERO PUSH3 0x340 JUMPI PUSH3 0x33F PUSH3 0x204 JUMP JUMPDEST JUMPDEST PUSH3 0x34D DUP5 DUP3 DUP6 PUSH3 0x2D4 JUMP JUMPDEST POP SWAP4 SWAP3 POP POP POP JUMP JUMPDEST PUSH1 0x0 DUP3 PUSH1 0x1F DUP4 ADD SLT PUSH3 0x36D JUMPI PUSH3 0x36C PUSH3 0x1FF JUMP JUMPDEST JUMPDEST DUP2 MLOAD PUSH3 0x37F DUP5 DUP3 PUSH1 0x20 DUP7 ADD PUSH3 0x30A JUMP JUMPDEST SWAP2 POP POP SWAP3 SWAP2 POP POP JUMP JUMPDEST PUSH1 0x0 DUP1 PUSH1 0x40 DUP4 DUP6 SUB SLT ISZERO PUSH3 0x3A2 JUMPI PUSH3 0x3A1 PUSH3 0x190 JUMP JUMPDEST JUMPDEST PUSH1 0x0 PUSH3 0x3B2 DUP6 DUP3 DUP7 ADD PUSH3 0x1E8 JUMP JUMPDEST SWAP3 POP POP PUSH1 0x20 DUP4 ADD MLOAD PUSH8 0xFFFFFFFFFFFFFFFF DUP2 GT ISZERO PUSH3 0x3D6 JUMPI PUSH3 0x3D5 PUSH3 0x195 JUMP JUMPDEST JUMPDEST PUSH3 0x3E4 DUP6 DUP3 DUP7 ADD PUSH3 0x355 JUMP JUMPDEST SWAP2 POP POP SWAP3 POP SWAP3 SWAP1 POP JUMP JUMPDEST PUSH32 0x4E487B7100000000000000000000000000000000000000000000000000000000 PUSH1 0x0 MSTORE PUSH1 0x22 PUSH1 0x4 MSTORE PUSH1 0x24 PUSH1 0x0 REVERT JUMPDEST PUSH1 0x0 PUSH1 0x2 DUP3 DIV SWAP1 POP PUSH1 0x1 DUP3 AND DUP1 PUSH3 0x436 JUMPI PUSH1 0x7F DUP3 AND SWAP2 POP JUMPDEST PUSH1 0x20 DUP3 LT DUP2 EQ ISZERO PUSH3 0x44D JUMPI PUSH3 0x44C PUSH3 0x3EE JUMP JUMPDEST JUMPDEST POP SWAP2 SWAP1 POP JUMP JUMPDEST PUSH2 0x1551 DUP1 PUSH3 0x463 PUSH1 0x0 CODECOPY PUSH1 0x0 RETURN INVALID PUSH1 0x80 PUSH1 0x40 MSTORE CALLVALUE DUP1 ISZERO PUSH2 0x10 JUMPI PUSH1 0x0 DUP1 REVERT JUMPDEST POP PUSH1 0x4 CALLDATASIZE LT PUSH2 0x9E JUMPI PUSH1 0x0 CALLDATALOAD PUSH1 0xE0 SHR DUP1 PUSH4 0x481C6A75 GT PUSH2 0x66 JUMPI DUP1 PUSH4 0x481C6A75 EQ PUSH2 0x149 JUMPI DUP1 PUSH4 0x56A34768 EQ PUSH2 0x167 JUMPI DUP1 PUSH4 0x59F78468 EQ PUSH2 0x183 JUMPI DUP1 PUSH4 0x62D73EB8 EQ PUSH2 0x18D JUMPI DUP1 PUSH4 0xA8311AA8 EQ PUSH2 0x197 JUMPI PUSH2 0x9E JUMP JUMPDEST DUP1 PUSH4 0x24789A9 EQ PUSH2 0xA3 JUMPI DUP1 PUSH4 0x6FDDE03 EQ PUSH2 0xD3 JUMPI DUP1 PUSH4 0xD15FD77 EQ PUSH2 0xF1 JUMPI DUP1 PUSH4 0x2C0A3F89 EQ PUSH2 0x10F JUMPI DUP1 PUSH4 0x4717F97C EQ PUSH2 0x12B JUMPI JUMPDEST PUSH1 0x0 DUP1 REVERT JUMPDEST PUSH2 0xBD PUSH1 0x4 DUP1 CALLDATASIZE SUB DUP2 ADD SWAP1 PUSH2 0xB8 SWAP2 SWAP1 PUSH2 0xCFF JUMP JUMPDEST PUSH2 0x1B5 JUMP JUMPDEST PUSH1 0x40 MLOAD PUSH2 0xCA SWAP2 SWAP1 PUSH2 0xE5F JUMP JUMPDEST PUSH1 0x40 MLOAD DUP1 SWAP2 SUB SWAP1 RETURN JUMPDEST PUSH2 0xDB PUSH2 0x449 JUMP JUMPDEST PUSH1 0x40 MLOAD PUSH2 0xE8 SWAP2 SWAP1 PUSH2 0xECB JUMP JUMPDEST PUSH1 0x40 MLOAD DUP1 SWAP2 SUB SWAP1 RETURN JUMPDEST PUSH2 0xF9 PUSH2 0x4D7 JUMP JUMPDEST PUSH1 0x40 MLOAD PUSH2 0x106 SWAP2 SWAP1 PUSH2 0xEFC JUMP JUMPDEST PUSH1 0x40 MLOAD DUP1 SWAP2 SUB SWAP1 RETURN JUMPDEST PUSH2 0x129 PUSH1 0x4 DUP1 CALLDATASIZE SUB DUP2 ADD SWAP1 PUSH2 0x124 SWAP2 SWAP1 PUSH2 0xF17 JUMP JUMPDEST PUSH2 0x4DD JUMP JUMPDEST STOP JUMPDEST PUSH2 0x133 PUSH2 0x5C9 JUMP JUMPDEST PUSH1 0x40 MLOAD PUSH2 0x140 SWAP2 SWAP1 PUSH2 0x1006 JUMP JUMPDEST PUSH1 0x40 MLOAD DUP1 SWAP2 SUB SWAP1 RETURN JUMPDEST PUSH2 0x151 PUSH2 0x641 JUMP JUMPDEST PUSH1 0x40 MLOAD PUSH2 0x15E SWAP2 SWAP1 PUSH2 0x1069 JUMP JUMPDEST PUSH1 0x40 MLOAD DUP1 SWAP2 SUB SWAP1 RETURN JUMPDEST PUSH2 0x181 PUSH1 0x4 DUP1 CALLDATASIZE SUB DUP2 ADD SWAP1 PUSH2 0x17C SWAP2 SWAP1 PUSH2 0x11B9 JUMP JUMPDEST PUSH2 0x667 JUMP JUMPDEST STOP JUMPDEST PUSH2 0x18B PUSH2 0x7E4 JUMP JUMPDEST STOP JUMPDEST PUSH2 0x195 PUSH2 0x87B JUMP JUMPDEST STOP JUMPDEST PUSH2 0x19F PUSH2 0x932 JUMP JUMPDEST PUSH1 0x40 MLOAD PUSH2 0x1AC SWAP2 SWAP1 PUSH2 0x13F1 JUMP JUMPDEST PUSH1 0x40 MLOAD DUP1 SWAP2 SUB SWAP1 RETURN JUMPDEST PUSH2 0x1BD PUSH2 0xBE3 JUMP JUMPDEST PUSH1 0x0 PUSH1 0x5 DUP4 DUP2 SLOAD DUP2 LT PUSH2 0x1D3 JUMPI PUSH2 0x1D2 PUSH2 0x1413 JUMP JUMPDEST JUMPDEST SWAP1 PUSH1 0x0 MSTORE PUSH1 0x20 PUSH1 0x0 KECCAK256 SWAP1 PUSH1 0x5 MUL ADD SWAP1 POP DUP1 PUSH1 0x40 MLOAD DUP1 PUSH1 0xA0 ADD PUSH1 0x40 MSTORE SWAP1 DUP2 PUSH1 0x0 DUP3 ADD DUP1 SLOAD PUSH2 0x1FF SWAP1 PUSH2 0x1471 JUMP JUMPDEST DUP1 PUSH1 0x1F ADD PUSH1 0x20 DUP1 SWAP2 DIV MUL PUSH1 0x20 ADD PUSH1 0x40 MLOAD SWAP1 DUP2 ADD PUSH1 0x40 MSTORE DUP1 SWAP3 SWAP2 SWAP1 DUP2 DUP2 MSTORE PUSH1 0x20 ADD DUP3 DUP1 SLOAD PUSH2 0x22B SWAP1 PUSH2 0x1471 JUMP JUMPDEST DUP1 ISZERO PUSH2 0x278 JUMPI DUP1 PUSH1 0x1F LT PUSH2 0x24D JUMPI PUSH2 0x100 DUP1 DUP4 SLOAD DIV MUL DUP4 MSTORE SWAP2 PUSH1 0x20 ADD SWAP2 PUSH2 0x278 JUMP JUMPDEST DUP3 ADD SWAP2 SWAP1 PUSH1 0x0 MSTORE PUSH1 0x20 PUSH1 0x0 KECCAK256 SWAP1 JUMPDEST DUP2 SLOAD DUP2 MSTORE SWAP1 PUSH1 0x1 ADD SWAP1 PUSH1 0x20 ADD DUP1 DUP4 GT PUSH2 0x25B JUMPI DUP3 SWAP1 SUB PUSH1 0x1F AND DUP3 ADD SWAP2 JUMPDEST POP POP POP POP POP DUP2 MSTORE PUSH1 0x20 ADD PUSH1 0x1 DUP3 ADD DUP1 SLOAD PUSH2 0x291 SWAP1 PUSH2 0x1471 JUMP JUMPDEST DUP1 PUSH1 0x1F ADD PUSH1 0x20 DUP1 SWAP2 DIV MUL PUSH1 0x20 ADD PUSH1 0x40 MLOAD SWAP1 DUP2 ADD PUSH1 0x40 MSTORE DUP1 SWAP3 SWAP2 SWAP1 DUP2 DUP2 MSTORE PUSH1 0x20 ADD DUP3 DUP1 SLOAD PUSH2 0x2BD SWAP1 PUSH2 0x1471 JUMP JUMPDEST DUP1 ISZERO PUSH2 0x30A JUMPI DUP1 PUSH1 0x1F LT PUSH2 0x2DF JUMPI PUSH2 0x100 DUP1 DUP4 SLOAD DIV MUL DUP4 MSTORE SWAP2 PUSH1 0x20 ADD SWAP2 PUSH2 0x30A JUMP JUMPDEST DUP3 ADD SWAP2 SWAP1 PUSH1 0x0 MSTORE PUSH1 0x20 PUSH1 0x0 KECCAK256 SWAP1 JUMPDEST DUP2 SLOAD DUP2 MSTORE SWAP1 PUSH1 0x1 ADD SWAP1 PUSH1 0x20 ADD DUP1 DUP4 GT PUSH2 0x2ED JUMPI DUP3 SWAP1 SUB PUSH1 0x1F AND DUP3 ADD SWAP2 JUMPDEST POP POP POP POP POP DUP2 MSTORE PUSH1 0x20 ADD PUSH1 0x2 DUP3 ADD SLOAD DUP2 MSTORE PUSH1 0x20 ADD PUSH1 0x3 DUP3 ADD DUP1 SLOAD PUSH2 0x32D SWAP1 PUSH2 0x1471 JUMP JUMPDEST DUP1 PUSH1 0x1F ADD PUSH1 0x20 DUP1 SWAP2 DIV MUL PUSH1 0x20 ADD PUSH1 0x40 MLOAD SWAP1 DUP2 ADD PUSH1 0x40 MSTORE DUP1 SWAP3 SWAP2 SWAP1 DUP2 DUP2 MSTORE PUSH1 0x20 ADD DUP3 DUP1 SLOAD PUSH2 0x359 SWAP1 PUSH2 0x1471 JUMP JUMPDEST DUP1 ISZERO PUSH2 0x3A6 JUMPI DUP1 PUSH1 0x1F LT PUSH2 0x37B JUMPI PUSH2 0x100 DUP1 DUP4 SLOAD DIV MUL DUP4 MSTORE SWAP2 PUSH1 0x20 ADD SWAP2 PUSH2 0x3A6 JUMP JUMPDEST DUP3 ADD SWAP2 SWAP1 PUSH1 0x0 MSTORE PUSH1 0x20 PUSH1 0x0 KECCAK256 SWAP1 JUMPDEST DUP2 SLOAD DUP2 MSTORE SWAP1 PUSH1 0x1 ADD SWAP1 PUSH1 0x20 ADD DUP1 DUP4 GT PUSH2 0x389 JUMPI DUP3 SWAP1 SUB PUSH1 0x1F AND DUP3 ADD SWAP2 JUMPDEST POP POP POP POP POP DUP2 MSTORE PUSH1 0x20 ADD PUSH1 0x4 DUP3 ADD DUP1 SLOAD PUSH2 0x3BF SWAP1 PUSH2 0x1471 JUMP JUMPDEST DUP1 PUSH1 0x1F ADD PUSH1 0x20 DUP1 SWAP2 DIV MUL PUSH1 0x20 ADD PUSH1 0x40 MLOAD SWAP1 DUP2 ADD PUSH1 0x40 MSTORE DUP1 SWAP3 SWAP2 SWAP1 DUP2 DUP2 MSTORE PUSH1 0x20 ADD DUP3 DUP1 SLOAD PUSH2 0x3EB SWAP1 PUSH2 0x1471 JUMP JUMPDEST DUP1 ISZERO PUSH2 0x438 JUMPI DUP1 PUSH1 0x1F LT PUSH2 0x40D JUMPI PUSH2 0x100 DUP1 DUP4 SLOAD DIV MUL DUP4 MSTORE SWAP2 PUSH1 0x20 ADD SWAP2 PUSH2 0x438 JUMP JUMPDEST DUP3 ADD SWAP2 SWAP1 PUSH1 0x0 MSTORE PUSH1 0x20 PUSH1 0x0 KECCAK256 SWAP1 JUMPDEST DUP2 SLOAD DUP2 MSTORE SWAP1 PUSH1 0x1 ADD SWAP1 PUSH1 0x20 ADD DUP1 DUP4 GT PUSH2 0x41B JUMPI DUP3 SWAP1 SUB PUSH1 0x1F AND DUP3 ADD SWAP2 JUMPDEST POP POP POP POP POP DUP2 MSTORE POP POP SWAP2 POP POP SWAP2 SWAP1 POP JUMP JUMPDEST PUSH1 0x1 DUP1 SLOAD PUSH2 0x456 SWAP1 PUSH2 0x1471 JUMP JUMPDEST DUP1 PUSH1 0x1F ADD PUSH1 0x20 DUP1 SWAP2 DIV MUL PUSH1 0x20 ADD PUSH1 0x40 MLOAD SWAP1 DUP2 ADD PUSH1 0x40 MSTORE DUP1 SWAP3 SWAP2 SWAP1 DUP2 DUP2 MSTORE PUSH1 0x20 ADD DUP3 DUP1 SLOAD PUSH2 0x482 SWAP1 PUSH2 0x1471 JUMP JUMPDEST DUP1 ISZERO PUSH2 0x4CF JUMPI DUP1 PUSH1 0x1F LT PUSH2 0x4A4 JUMPI PUSH2 0x100 DUP1 DUP4 SLOAD DIV MUL DUP4 MSTORE SWAP2 PUSH1 0x20 ADD SWAP2 PUSH2 0x4CF JUMP JUMPDEST DUP3 ADD SWAP2 SWAP1 PUSH1 0x0 MSTORE PUSH1 0x20 PUSH1 0x0 KECCAK256 SWAP1 JUMPDEST DUP2 SLOAD DUP2 MSTORE SWAP1 PUSH1 0x1 ADD SWAP1 PUSH1 0x20 ADD DUP1 DUP4 GT PUSH2 0x4B2 JUMPI DUP3 SWAP1 SUB PUSH1 0x1F AND DUP3 ADD SWAP2 JUMPDEST POP POP POP POP POP DUP2 JUMP JUMPDEST PUSH1 0x0 SLOAD DUP2 JUMP JUMPDEST PUSH1 0x1 ISZERO ISZERO PUSH1 0x4 PUSH1 0x1 SWAP1 SLOAD SWAP1 PUSH2 0x100 EXP SWAP1 DIV PUSH1 0xFF AND ISZERO ISZERO EQ PUSH2 0x4FD JUMPI PUSH1 0x0 DUP1 REVERT JUMPDEST PUSH1 0x0 ISZERO ISZERO PUSH1 0x3 PUSH1 0x0 DUP5 DUP2 MSTORE PUSH1 0x20 ADD SWAP1 DUP2 MSTORE PUSH1 0x20 ADD PUSH1 0x0 KECCAK256 PUSH1 0x0 SWAP1 SLOAD SWAP1 PUSH2 0x100 EXP SWAP1 DIV PUSH1 0xFF AND ISZERO ISZERO EQ PUSH2 0x52E JUMPI PUSH1 0x0 DUP1 REVERT JUMPDEST PUSH1 0x0 ISZERO ISZERO PUSH1 0x4 PUSH1 0x0 SWAP1 SLOAD SWAP1 PUSH2 0x100 EXP SWAP1 DIV PUSH1 0xFF AND ISZERO ISZERO EQ PUSH2 0x54E JUMPI PUSH1 0x0 DUP1 REVERT JUMPDEST PUSH1 0x1 PUSH1 0x3 PUSH1 0x0 DUP5 DUP2 MSTORE PUSH1 0x20 ADD SWAP1 DUP2 MSTORE PUSH1 0x20 ADD PUSH1 0x0 KECCAK256 PUSH1 0x0 PUSH2 0x100 EXP DUP2 SLOAD DUP2 PUSH1 0xFF MUL NOT AND SWAP1 DUP4 ISZERO ISZERO MUL OR SWAP1 SSTORE POP PUSH1 0x6 DUP2 DUP2 SLOAD DUP2 LT PUSH2 0x58E JUMPI PUSH2 0x58D PUSH2 0x1413 JUMP JUMPDEST JUMPDEST SWAP1 PUSH1 0x0 MSTORE PUSH1 0x20 PUSH1 0x0 KECCAK256 ADD PUSH1 0x0 DUP2 SLOAD DUP1 SWAP3 SWAP2 SWAP1 PUSH2 0x5A9 SWAP1 PUSH2 0x14D2 JUMP JUMPDEST SWAP2 SWAP1 POP SSTORE POP PUSH1 0x0 DUP1 DUP2 SLOAD DUP1 SWAP3 SWAP2 SWAP1 PUSH2 0x5C0 SWAP1 PUSH2 0x14D2 JUMP JUMPDEST SWAP2 SWAP1 POP SSTORE POP POP POP JUMP JUMPDEST PUSH1 0x60 PUSH1 0x1 ISZERO ISZERO PUSH1 0x4 PUSH1 0x0 SWAP1 SLOAD SWAP1 PUSH2 0x100 EXP SWAP1 DIV PUSH1 0xFF AND ISZERO ISZERO EQ PUSH2 0x5EB JUMPI PUSH1 0x0 DUP1 REVERT JUMPDEST PUSH1 0x6 DUP1 SLOAD DUP1 PUSH1 0x20 MUL PUSH1 0x20 ADD PUSH1 0x40 MLOAD SWAP1 DUP2 ADD PUSH1 0x40 MSTORE DUP1 SWAP3 SWAP2 SWAP1 DUP2 DUP2 MSTORE PUSH1 0x20 ADD DUP3 DUP1 SLOAD DUP1 ISZERO PUSH2 0x637 JUMPI PUSH1 0x20 MUL DUP3 ADD SWAP2 SWAP1 PUSH1 0x0 MSTORE PUSH1 0x20 PUSH1 0x0 KECCAK256 SWAP1 JUMPDEST DUP2 SLOAD DUP2 MSTORE PUSH1 0x20 ADD SWAP1 PUSH1 0x1 ADD SWAP1 DUP1 DUP4 GT PUSH2 0x623 JUMPI JUMPDEST POP POP POP POP POP SWAP1 POP SWAP1 JUMP JUMPDEST PUSH1 0x2 PUSH1 0x0 SWAP1 SLOAD SWAP1 PUSH2 0x100 EXP SWAP1 DIV PUSH20 0xFFFFFFFFFFFFFFFFFFFFFFFFFFFFFFFFFFFFFFFF AND DUP2 JUMP JUMPDEST PUSH1 0x2 PUSH1 0x0 SWAP1 SLOAD SWAP1 PUSH2 0x100 EXP SWAP1 DIV PUSH20 0xFFFFFFFFFFFFFFFFFFFFFFFFFFFFFFFFFFFFFFFF AND PUSH20 0xFFFFFFFFFFFFFFFFFFFFFFFFFFFFFFFFFFFFFFFF AND CALLER PUSH20 0xFFFFFFFFFFFFFFFFFFFFFFFFFFFFFFFFFFFFFFFF AND EQ PUSH2 0x6C1 JUMPI PUSH1 0x0 DUP1 REVERT JUMPDEST PUSH1 0x4 PUSH1 0x1 SWAP1 SLOAD SWAP1 PUSH2 0x100 EXP SWAP1 DIV PUSH1 0xFF AND ISZERO PUSH2 0x6DB JUMPI PUSH1 0x0 DUP1 REVERT JUMPDEST PUSH1 0x0 PUSH1 0x40 MLOAD DUP1 PUSH1 0xA0 ADD PUSH1 0x40 MSTORE DUP1 DUP8 DUP2 MSTORE PUSH1 0x20 ADD DUP7 DUP2 MSTORE PUSH1 0x20 ADD DUP6 DUP2 MSTORE PUSH1 0x20 ADD DUP5 DUP2 MSTORE PUSH1 0x20 ADD DUP4 DUP2 MSTORE POP SWAP1 POP PUSH1 0x5 DUP2 SWAP1 DUP1 PUSH1 0x1 DUP2 SLOAD ADD DUP1 DUP3 SSTORE DUP1 SWAP2 POP POP PUSH1 0x1 SWAP1 SUB SWAP1 PUSH1 0x0 MSTORE PUSH1 0x20 PUSH1 0x0 KECCAK256 SWAP1 PUSH1 0x5 MUL ADD PUSH1 0x0 SWAP1 SWAP2 SWAP1 SWAP2 SWAP1 SWAP2 POP PUSH1 0x0 DUP3 ADD MLOAD DUP2 PUSH1 0x0 ADD SWAP1 DUP1 MLOAD SWAP1 PUSH1 0x20 ADD SWAP1 PUSH2 0x74E SWAP3 SWAP2 SWAP1 PUSH2 0xC12 JUMP JUMPDEST POP PUSH1 0x20 DUP3 ADD MLOAD DUP2 PUSH1 0x1 ADD SWAP1 DUP1 MLOAD SWAP1 PUSH1 0x20 ADD SWAP1 PUSH2 0x76B SWAP3 SWAP2 SWAP1 PUSH2 0xC12 JUMP JUMPDEST POP PUSH1 0x40 DUP3 ADD MLOAD DUP2 PUSH1 0x2 ADD SSTORE PUSH1 0x60 DUP3 ADD MLOAD DUP2 PUSH1 0x3 ADD SWAP1 DUP1 MLOAD SWAP1 PUSH1 0x20 ADD SWAP1 PUSH2 0x792 SWAP3 SWAP2 SWAP1 PUSH2 0xC12 JUMP JUMPDEST POP PUSH1 0x80 DUP3 ADD MLOAD DUP2 PUSH1 0x4 ADD SWAP1 DUP1 MLOAD SWAP1 PUSH1 0x20 ADD SWAP1 PUSH2 0x7AF SWAP3 SWAP2 SWAP1 PUSH2 0xC12 JUMP JUMPDEST POP POP POP PUSH1 0x6 PUSH1 0x0 SWAP1 DUP1 PUSH1 0x1 DUP2 SLOAD ADD DUP1 DUP3 SSTORE DUP1 SWAP2 POP POP PUSH1 0x1 SWAP1 SUB SWAP1 PUSH1 0x0 MSTORE PUSH1 0x20 PUSH1 0x0 KECCAK256 ADD PUSH1 0x0 SWAP1 SWAP2 SWAP1 SWAP2 SWAP1 SWAP2 POP SSTORE POP POP POP POP POP POP JUMP JUMPDEST PUSH1 0x2 PUSH1 0x0 SWAP1 SLOAD SWAP1 PUSH2 0x100 EXP SWAP1 DIV PUSH20 0xFFFFFFFFFFFFFFFFFFFFFFFFFFFFFFFFFFFFFFFF AND PUSH20 0xFFFFFFFFFFFFFFFFFFFFFFFFFFFFFFFFFFFFFFFF AND CALLER PUSH20 0xFFFFFFFFFFFFFFFFFFFFFFFFFFFFFFFFFFFFFFFF AND EQ PUSH2 0x83E JUMPI PUSH1 0x0 DUP1 REVERT JUMPDEST PUSH1 0x1 ISZERO ISZERO PUSH1 0x4 PUSH1 0x1 SWAP1 SLOAD SWAP1 PUSH2 0x100 EXP SWAP1 DIV PUSH1 0xFF AND ISZERO ISZERO EQ PUSH2 0x85E JUMPI PUSH1 0x0 DUP1 REVERT JUMPDEST PUSH1 0x1 PUSH1 0x4 PUSH1 0x0 PUSH2 0x100 EXP DUP2 SLOAD DUP2 PUSH1 0xFF MUL NOT AND SWAP1 DUP4 ISZERO ISZERO MUL OR SWAP1 SSTORE POP JUMP JUMPDEST PUSH1 0x2 PUSH1 0x0 SWAP1 SLOAD SWAP1 PUSH2 0x100 EXP SWAP1 DIV PUSH20 0xFFFFFFFFFFFFFFFFFFFFFFFFFFFFFFFFFFFFFFFF AND PUSH20 0xFFFFFFFFFFFFFFFFFFFFFFFFFFFFFFFFFFFFFFFF AND CALLER PUSH20 0xFFFFFFFFFFFFFFFFFFFFFFFFFFFFFFFFFFFFFFFF AND EQ PUSH2 0x8D5 JUMPI PUSH1 0x0 DUP1 REVERT JUMPDEST PUSH1 0x0 ISZERO ISZERO PUSH1 0x4 PUSH1 0x0 SWAP1 SLOAD SWAP1 PUSH2 0x100 EXP SWAP1 DIV PUSH1 0xFF AND ISZERO ISZERO EQ PUSH2 0x8F5 JUMPI PUSH1 0x0 DUP1 REVERT JUMPDEST PUSH1 0x0 ISZERO ISZERO PUSH1 0x4 PUSH1 0x1 SWAP1 SLOAD SWAP1 PUSH2 0x100 EXP SWAP1 DIV PUSH1 0xFF AND ISZERO ISZERO EQ PUSH2 0x915 JUMPI PUSH1 0x0 DUP1 REVERT JUMPDEST PUSH1 0x1 PUSH1 0x4 PUSH1 0x1 PUSH2 0x100 EXP DUP2 SLOAD DUP2 PUSH1 0xFF MUL NOT AND SWAP1 DUP4 ISZERO ISZERO MUL OR SWAP1 SSTORE POP JUMP JUMPDEST PUSH1 0x60 PUSH1 0x5 DUP1 SLOAD DUP1 PUSH1 0x20 MUL PUSH1 0x20 ADD PUSH1 0x40 MLOAD SWAP1 DUP2 ADD PUSH1 0x40 MSTORE DUP1 SWAP3 SWAP2 SWAP1 DUP2 DUP2 MSTORE PUSH1 0x20 ADD PUSH1 0x0 SWAP1 JUMPDEST DUP3 DUP3 LT ISZERO PUSH2 0xBDA JUMPI DUP4 DUP3 SWAP1 PUSH1 0x0 MSTORE PUSH1 0x20 PUSH1 0x0 KECCAK256 SWAP1 PUSH1 0x5 MUL ADD PUSH1 0x40 MLOAD DUP1 PUSH1 0xA0 ADD PUSH1 0x40 MSTORE SWAP1 DUP2 PUSH1 0x0 DUP3 ADD DUP1 SLOAD PUSH2 0x989 SWAP1 PUSH2 0x1471 JUMP JUMPDEST DUP1 PUSH1 0x1F ADD PUSH1 0x20 DUP1 SWAP2 DIV MUL PUSH1 0x20 ADD PUSH1 0x40 MLOAD SWAP1 DUP2 ADD PUSH1 0x40 MSTORE DUP1 SWAP3 SWAP2 SWAP1 DUP2 DUP2 MSTORE PUSH1 0x20 ADD DUP3 DUP1 SLOAD PUSH2 0x9B5 SWAP1 PUSH2 0x1471 JUMP JUMPDEST DUP1 ISZERO PUSH2 0xA02 JUMPI DUP1 PUSH1 0x1F LT PUSH2 0x9D7 JUMPI PUSH2 0x100 DUP1 DUP4 SLOAD DIV MUL DUP4 MSTORE SWAP2 PUSH1 0x20 ADD SWAP2 PUSH2 0xA02 JUMP JUMPDEST DUP3 ADD SWAP2 SWAP1 PUSH1 0x0 MSTORE PUSH1 0x20 PUSH1 0x0 KECCAK256 SWAP1 JUMPDEST DUP2 SLOAD DUP2 MSTORE SWAP1 PUSH1 0x1 ADD SWAP1 PUSH1 0x20 ADD DUP1 DUP4 GT PUSH2 0x9E5 JUMPI DUP3 SWAP1 SUB PUSH1 0x1F AND DUP3 ADD SWAP2 JUMPDEST POP POP POP POP POP DUP2 MSTORE PUSH1 0x20 ADD PUSH1 0x1 DUP3 ADD DUP1 SLOAD PUSH2 0xA1B SWAP1 PUSH2 0x1471 JUMP JUMPDEST DUP1 PUSH1 0x1F ADD PUSH1 0x20 DUP1 SWAP2 DIV MUL PUSH1 0x20 ADD PUSH1 0x40 MLOAD SWAP1 DUP2 ADD PUSH1 0x40 MSTORE DUP1 SWAP3 SWAP2 SWAP1 DUP2 DUP2 MSTORE PUSH1 0x20 ADD DUP3 DUP1 SLOAD PUSH2 0xA47 SWAP1 PUSH2 0x1471 JUMP JUMPDEST DUP1 ISZERO PUSH2 0xA94 JUMPI DUP1 PUSH1 0x1F LT PUSH2 0xA69 JUMPI PUSH2 0x100 DUP1 DUP4 SLOAD DIV MUL DUP4 MSTORE SWAP2 PUSH1 0x20 ADD SWAP2 PUSH2 0xA94 JUMP JUMPDEST DUP3 ADD SWAP2 SWAP1 PUSH1 0x0 MSTORE PUSH1 0x20 PUSH1 0x0 KECCAK256 SWAP1 JUMPDEST DUP2 SLOAD DUP2 MSTORE SWAP1 PUSH1 0x1 ADD SWAP1 PUSH1 0x20 ADD DUP1 DUP4 GT PUSH2 0xA77 JUMPI DUP3 SWAP1 SUB PUSH1 0x1F AND DUP3 ADD SWAP2 JUMPDEST POP POP POP POP POP DUP2 MSTORE PUSH1 0x20 ADD PUSH1 0x2 DUP3 ADD SLOAD DUP2 MSTORE PUSH1 0x20 ADD PUSH1 0x3 DUP3 ADD DUP1 SLOAD PUSH2 0xAB7 SWAP1 PUSH2 0x1471 JUMP JUMPDEST DUP1 PUSH1 0x1F ADD PUSH1 0x20 DUP1 SWAP2 DIV MUL PUSH1 0x20 ADD PUSH1 0x40 MLOAD SWAP1 DUP2 ADD PUSH1 0x40 MSTORE DUP1 SWAP3 SWAP2 SWAP1 DUP2 DUP2 MSTORE PUSH1 0x20 ADD DUP3 DUP1 SLOAD PUSH2 0xAE3 SWAP1 PUSH2 0x1471 JUMP JUMPDEST DUP1 ISZERO PUSH2 0xB30 JUMPI DUP1 PUSH1 0x1F LT PUSH2 0xB05 JUMPI PUSH2 0x100 DUP1 DUP4 SLOAD DIV MUL DUP4 MSTORE SWAP2 PUSH1 0x20 ADD SWAP2 PUSH2 0xB30 JUMP JUMPDEST DUP3 ADD SWAP2 SWAP1 PUSH1 0x0 MSTORE PUSH1 0x20 PUSH1 0x0 KECCAK256 SWAP1 JUMPDEST DUP2 SLOAD DUP2 MSTORE SWAP1 PUSH1 0x1 ADD SWAP1 PUSH1 0x20 ADD DUP1 DUP4 GT PUSH2 0xB13 JUMPI DUP3 SWAP1 SUB PUSH1 0x1F AND DUP3 ADD SWAP2 JUMPDEST POP POP POP POP POP DUP2 MSTORE PUSH1 0x20 ADD PUSH1 0x4 DUP3 ADD DUP1 SLOAD PUSH2 0xB49 SWAP1 PUSH2 0x1471 JUMP JUMPDEST DUP1 PUSH1 0x1F ADD PUSH1 0x20 DUP1 SWAP2 DIV MUL PUSH1 0x20 ADD PUSH1 0x40 MLOAD SWAP1 DUP2 ADD PUSH1 0x40 MSTORE DUP1 SWAP3 SWAP2 SWAP1 DUP2 DUP2 MSTORE PUSH1 0x20 ADD DUP3 DUP1 SLOAD PUSH2 0xB75 SWAP1 PUSH2 0x1471 JUMP JUMPDEST DUP1 ISZERO PUSH2 0xBC2 JUMPI DUP1 PUSH1 0x1F LT PUSH2 0xB97 JUMPI PUSH2 0x100 DUP1 DUP4 SLOAD DIV MUL DUP4 MSTORE SWAP2 PUSH1 0x20 ADD SWAP2 PUSH2 0xBC2 JUMP JUMPDEST DUP3 ADD SWAP2 SWAP1 PUSH1 0x0 MSTORE PUSH1 0x20 PUSH1 0x0 KECCAK256 SWAP1 JUMPDEST DUP2 SLOAD DUP2 MSTORE SWAP1 PUSH1 0x1 ADD SWAP1 PUSH1 0x20 ADD DUP1 DUP4 GT PUSH2 0xBA5 JUMPI DUP3 SWAP1 SUB PUSH1 0x1F AND DUP3 ADD SWAP2 JUMPDEST POP POP POP POP POP DUP2 MSTORE POP POP DUP2 MSTORE PUSH1 0x20 ADD SWAP1 PUSH1 0x1 ADD SWAP1 PUSH2 0x956 JUMP JUMPDEST POP POP POP POP SWAP1 POP SWAP1 JUMP JUMPDEST PUSH1 0x40 MLOAD DUP1 PUSH1 0xA0 ADD PUSH1 0x40 MSTORE DUP1 PUSH1 0x60 DUP2 MSTORE PUSH1 0x20 ADD PUSH1 0x60 DUP2 MSTORE PUSH1 0x20 ADD PUSH1 0x0 DUP2 MSTORE PUSH1 0x20 ADD PUSH1 0x60 DUP2 MSTORE PUSH1 0x20 ADD PUSH1 0x60 DUP2 MSTORE POP SWAP1 JUMP JUMPDEST DUP3 DUP1 SLOAD PUSH2 0xC1E SWAP1 PUSH2 0x1471 JUMP JUMPDEST SWAP1 PUSH1 0x0 MSTORE PUSH1 0x20 PUSH1 0x0 KECCAK256 SWAP1 PUSH1 0x1F ADD PUSH1 0x20 SWAP1 DIV DUP2 ADD SWAP3 DUP3 PUSH2 0xC40 JUMPI PUSH1 0x0 DUP6 SSTORE PUSH2 0xC87 JUMP JUMPDEST DUP3 PUSH1 0x1F LT PUSH2 0xC59 JUMPI DUP1 MLOAD PUSH1 0xFF NOT AND DUP4 DUP1 ADD OR DUP6 SSTORE PUSH2 0xC87 JUMP JUMPDEST DUP3 DUP1 ADD PUSH1 0x1 ADD DUP6 SSTORE DUP3 ISZERO PUSH2 0xC87 JUMPI SWAP2 DUP3 ADD JUMPDEST DUP3 DUP2 GT ISZERO PUSH2 0xC86 JUMPI DUP3 MLOAD DUP3 SSTORE SWAP2 PUSH1 0x20 ADD SWAP2 SWAP1 PUSH1 0x1 ADD SWAP1 PUSH2 0xC6B JUMP JUMPDEST JUMPDEST POP SWAP1 POP PUSH2 0xC94 SWAP2 SWAP1 PUSH2 0xC98 JUMP JUMPDEST POP SWAP1 JUMP JUMPDEST JUMPDEST DUP1 DUP3 GT ISZERO PUSH2 0xCB1 JUMPI PUSH1 0x0 DUP2 PUSH1 0x0 SWAP1 SSTORE POP PUSH1 0x1 ADD PUSH2 0xC99 JUMP JUMPDEST POP SWAP1 JUMP JUMPDEST PUSH1 0x0 PUSH1 0x40 MLOAD SWAP1 POP SWAP1 JUMP JUMPDEST PUSH1 0x0 DUP1 REVERT JUMPDEST PUSH1 0x0 DUP1 REVERT JUMPDEST PUSH1 0x0 DUP2 SWAP1 POP SWAP2 SWAP1 POP JUMP JUMPDEST PUSH2 0xCDC DUP2 PUSH2 0xCC9 JUMP JUMPDEST DUP2 EQ PUSH2 0xCE7 JUMPI PUSH1 0x0 DUP1 REVERT JUMPDEST POP JUMP JUMPDEST PUSH1 0x0 DUP2 CALLDATALOAD SWAP1 POP PUSH2 0xCF9 DUP2 PUSH2 0xCD3 JUMP JUMPDEST SWAP3 SWAP2 POP POP JUMP JUMPDEST PUSH1 0x0 PUSH1 0x20 DUP3 DUP5 SUB SLT ISZERO PUSH2 0xD15 JUMPI PUSH2 0xD14 PUSH2 0xCBF JUMP JUMPDEST JUMPDEST PUSH1 0x0 PUSH2 0xD23 DUP5 DUP3 DUP6 ADD PUSH2 0xCEA JUMP JUMPDEST SWAP2 POP POP SWAP3 SWAP2 POP POP JUMP JUMPDEST PUSH1 0x0 DUP2 MLOAD SWAP1 POP SWAP2 SWAP1 POP JUMP JUMPDEST PUSH1 0x0 DUP3 DUP3 MSTORE PUSH1 0x20 DUP3 ADD SWAP1 POP SWAP3 SWAP2 POP POP JUMP JUMPDEST PUSH1 0x0 JUMPDEST DUP4 DUP2 LT ISZERO PUSH2 0xD66 JUMPI DUP1 DUP3 ADD MLOAD DUP2 DUP5 ADD MSTORE PUSH1 0x20 DUP2 ADD SWAP1 POP PUSH2 0xD4B JUMP JUMPDEST DUP4 DUP2 GT ISZERO PUSH2 0xD75 JUMPI PUSH1 0x0 DUP5 DUP5 ADD MSTORE JUMPDEST POP POP POP POP JUMP JUMPDEST PUSH1 0x0 PUSH1 0x1F NOT PUSH1 0x1F DUP4 ADD AND SWAP1 POP SWAP2 SWAP1 POP JUMP JUMPDEST PUSH1 0x0 PUSH2 0xD97 DUP3 PUSH2 0xD2C JUMP JUMPDEST PUSH2 0xDA1 DUP2 DUP6 PUSH2 0xD37 JUMP JUMPDEST SWAP4 POP PUSH2 0xDB1 DUP2 DUP6 PUSH1 0x20 DUP7 ADD PUSH2 0xD48 JUMP JUMPDEST PUSH2 0xDBA DUP2 PUSH2 0xD7B JUMP JUMPDEST DUP5 ADD SWAP2 POP POP SWAP3 SWAP2 POP POP JUMP JUMPDEST PUSH2 0xDCE DUP2 PUSH2 0xCC9 JUMP JUMPDEST DUP3 MSTORE POP POP JUMP JUMPDEST PUSH1 0x0 PUSH1 0xA0 DUP4 ADD PUSH1 0x0 DUP4 ADD MLOAD DUP5 DUP3 SUB PUSH1 0x0 DUP7 ADD MSTORE PUSH2 0xDF1 DUP3 DUP3 PUSH2 0xD8C JUMP JUMPDEST SWAP2 POP POP PUSH1 0x20 DUP4 ADD MLOAD DUP5 DUP3 SUB PUSH1 0x20 DUP7 ADD MSTORE PUSH2 0xE0B DUP3 DUP3 PUSH2 0xD8C JUMP JUMPDEST SWAP2 POP POP PUSH1 0x40 DUP4 ADD MLOAD PUSH2 0xE20 PUSH1 0x40 DUP7 ADD DUP3 PUSH2 0xDC5 JUMP JUMPDEST POP PUSH1 0x60 DUP4 ADD MLOAD DUP5 DUP3 SUB PUSH1 0x60 DUP7 ADD MSTORE PUSH2 0xE38 DUP3 DUP3 PUSH2 0xD8C JUMP JUMPDEST SWAP2 POP POP PUSH1 0x80 DUP4 ADD MLOAD DUP5 DUP3 SUB PUSH1 0x80 DUP7 ADD MSTORE PUSH2 0xE52 DUP3 DUP3 PUSH2 0xD8C JUMP JUMPDEST SWAP2 POP POP DUP1 SWAP2 POP POP SWAP3 SWAP2 POP POP JUMP JUMPDEST PUSH1 0x0 PUSH1 0x20 DUP3 ADD SWAP1 POP DUP2 DUP2 SUB PUSH1 0x0 DUP4 ADD MSTORE PUSH2 0xE79 DUP2 DUP5 PUSH2 0xDD4 JUMP JUMPDEST SWAP1 POP SWAP3 SWAP2 POP POP JUMP JUMPDEST PUSH1 0x0 DUP3 DUP3 MSTORE PUSH1 0x20 DUP3 ADD SWAP1 POP SWAP3 SWAP2 POP POP JUMP JUMPDEST PUSH1 0x0 PUSH2 0xE9D DUP3 PUSH2 0xD2C JUMP JUMPDEST PUSH2 0xEA7 DUP2 DUP6 PUSH2 0xE81 JUMP JUMPDEST SWAP4 POP PUSH2 0xEB7 DUP2 DUP6 PUSH1 0x20 DUP7 ADD PUSH2 0xD48 JUMP JUMPDEST PUSH2 0xEC0 DUP2 PUSH2 0xD7B JUMP JUMPDEST DUP5 ADD SWAP2 POP POP SWAP3 SWAP2 POP POP JUMP JUMPDEST PUSH1 0x0 PUSH1 0x20 DUP3 ADD SWAP1 POP DUP2 DUP2 SUB PUSH1 0x0 DUP4 ADD MSTORE PUSH2 0xEE5 DUP2 DUP5 PUSH2 0xE92 JUMP JUMPDEST SWAP1 POP SWAP3 SWAP2 POP POP JUMP JUMPDEST PUSH2 0xEF6 DUP2 PUSH2 0xCC9 JUMP JUMPDEST DUP3 MSTORE POP POP JUMP JUMPDEST PUSH1 0x0 PUSH1 0x20 DUP3 ADD SWAP1 POP PUSH2 0xF11 PUSH1 0x0 DUP4 ADD DUP5 PUSH2 0xEED JUMP JUMPDEST SWAP3 SWAP2 POP POP JUMP JUMPDEST PUSH1 0x0 DUP1 PUSH1 0x40 DUP4 DUP6 SUB SLT ISZERO PUSH2 0xF2E JUMPI PUSH2 0xF2D PUSH2 0xCBF JUMP JUMPDEST JUMPDEST PUSH1 0x0 PUSH2 0xF3C DUP6 DUP3 DUP7 ADD PUSH2 0xCEA JUMP JUMPDEST SWAP3 POP POP PUSH1 0x20 PUSH2 0xF4D DUP6 DUP3 DUP7 ADD PUSH2 0xCEA JUMP JUMPDEST SWAP2 POP POP SWAP3 POP SWAP3 SWAP1 POP JUMP JUMPDEST PUSH1 0x0 DUP2 MLOAD SWAP1 POP SWAP2 SWAP1 POP JUMP JUMPDEST PUSH1 0x0 DUP3 DUP3 MSTORE PUSH1 0x20 DUP3 ADD SWAP1 POP SWAP3 SWAP2 POP POP JUMP JUMPDEST PUSH1 0x0 DUP2 SWAP1 POP PUSH1 0x20 DUP3 ADD SWAP1 POP SWAP2 SWAP1 POP JUMP JUMPDEST PUSH1 0x0 PUSH2 0xF8F DUP4 DUP4 PUSH2 0xDC5 JUMP JUMPDEST PUSH1 0x20 DUP4 ADD SWAP1 POP SWAP3 SWAP2 POP POP JUMP JUMPDEST PUSH1 0x0 PUSH1 0x20 DUP3 ADD SWAP1 POP SWAP2 SWAP1 POP JUMP JUMPDEST PUSH1 0x0 PUSH2 0xFB3 DUP3 PUSH2 0xF57 JUMP JUMPDEST PUSH2 0xFBD DUP2 DUP6 PUSH2 0xF62 JUMP JUMPDEST SWAP4 POP PUSH2 0xFC8 DUP4 PUSH2 0xF73 JUMP JUMPDEST DUP1 PUSH1 0x0 JUMPDEST DUP4 DUP2 LT ISZERO PUSH2 0xFF9 JUMPI DUP2 MLOAD PUSH2 0xFE0 DUP9 DUP3 PUSH2 0xF83 JUMP JUMPDEST SWAP8 POP PUSH2 0xFEB DUP4 PUSH2 0xF9B JUMP JUMPDEST SWAP3 POP POP PUSH1 0x1 DUP2 ADD SWAP1 POP PUSH2 0xFCC JUMP JUMPDEST POP DUP6 SWAP4 POP POP POP POP SWAP3 SWAP2 POP POP JUMP JUMPDEST PUSH1 0x0 PUSH1 0x20 DUP3 ADD SWAP1 POP DUP2 DUP2 SUB PUSH1 0x0 DUP4 ADD MSTORE PUSH2 0x1020 DUP2 DUP5 PUSH2 0xFA8 JUMP JUMPDEST SWAP1 POP SWAP3 SWAP2 POP POP JUMP JUMPDEST PUSH1 0x0 PUSH20 0xFFFFFFFFFFFFFFFFFFFFFFFFFFFFFFFFFFFFFFFF DUP3 AND SWAP1 POP SWAP2 SWAP1 POP JUMP JUMPDEST PUSH1 0x0 PUSH2 0x1053 DUP3 PUSH2 0x1028 JUMP JUMPDEST SWAP1 POP SWAP2 SWAP1 POP JUMP JUMPDEST PUSH2 0x1063 DUP2 PUSH2 0x1048 JUMP JUMPDEST DUP3 MSTORE POP POP JUMP JUMPDEST PUSH1 0x0 PUSH1 0x20 DUP3 ADD SWAP1 POP PUSH2 0x107E PUSH1 0x0 DUP4 ADD DUP5 PUSH2 0x105A JUMP JUMPDEST SWAP3 SWAP2 POP POP JUMP JUMPDEST PUSH1 0x0 DUP1 REVERT JUMPDEST PUSH1 0x0 DUP1 REVERT JUMPDEST PUSH32 0x4E487B7100000000000000000000000000000000000000000000000000000000 PUSH1 0x0 MSTORE PUSH1 0x41 PUSH1 0x4 MSTORE PUSH1 0x24 PUSH1 0x0 REVERT JUMPDEST PUSH2 0x10C6 DUP3 PUSH2 0xD7B JUMP JUMPDEST DUP2 ADD DUP2 DUP2 LT PUSH8 0xFFFFFFFFFFFFFFFF DUP3 GT OR ISZERO PUSH2 0x10E5 JUMPI PUSH2 0x10E4 PUSH2 0x108E JUMP JUMPDEST JUMPDEST DUP1 PUSH1 0x40 MSTORE POP POP POP JUMP JUMPDEST PUSH1 0x0 PUSH2 0x10F8 PUSH2 0xCB5 JUMP JUMPDEST SWAP1 POP PUSH2 0x1104 DUP3 DUP3 PUSH2 0x10BD JUMP JUMPDEST SWAP2 SWAP1 POP JUMP JUMPDEST PUSH1 0x0 PUSH8 0xFFFFFFFFFFFFFFFF DUP3 GT ISZERO PUSH2 0x1124 JUMPI PUSH2 0x1123 PUSH2 0x108E JUMP JUMPDEST JUMPDEST PUSH2 0x112D DUP3 PUSH2 0xD7B JUMP JUMPDEST SWAP1 POP PUSH1 0x20 DUP2 ADD SWAP1 POP SWAP2 SWAP1 POP JUMP JUMPDEST DUP3 DUP2 DUP4 CALLDATACOPY PUSH1 0x0 DUP4 DUP4 ADD MSTORE POP POP POP JUMP JUMPDEST PUSH1 0x0 PUSH2 0x115C PUSH2 0x1157 DUP5 PUSH2 0x1109 JUMP JUMPDEST PUSH2 0x10EE JUMP JUMPDEST SWAP1 POP DUP3 DUP2 MSTORE PUSH1 0x20 DUP2 ADD DUP5 DUP5 DUP5 ADD GT ISZERO PUSH2 0x1178 JUMPI PUSH2 0x1177 PUSH2 0x1089 JUMP JUMPDEST JUMPDEST PUSH2 0x1183 DUP5 DUP3 DUP6 PUSH2 0x113A JUMP JUMPDEST POP SWAP4 SWAP3 POP POP POP JUMP JUMPDEST PUSH1 0x0 DUP3 PUSH1 0x1F DUP4 ADD SLT PUSH2 0x11A0 JUMPI PUSH2 0x119F PUSH2 0x1084 JUMP JUMPDEST JUMPDEST DUP2 CALLDATALOAD PUSH2 0x11B0 DUP5 DUP3 PUSH1 0x20 DUP7 ADD PUSH2 0x1149 JUMP JUMPDEST SWAP2 POP POP SWAP3 SWAP2 POP POP JUMP JUMPDEST PUSH1 0x0 DUP1 PUSH1 0x0 DUP1 PUSH1 0x0 PUSH1 0xA0 DUP7 DUP9 SUB SLT ISZERO PUSH2 0x11D5 JUMPI PUSH2 0x11D4 PUSH2 0xCBF JUMP JUMPDEST JUMPDEST PUSH1 0x0 DUP7 ADD CALLDATALOAD PUSH8 0xFFFFFFFFFFFFFFFF DUP2 GT ISZERO PUSH2 0x11F3 JUMPI PUSH2 0x11F2 PUSH2 0xCC4 JUMP JUMPDEST JUMPDEST PUSH2 0x11FF DUP9 DUP3 DUP10 ADD PUSH2 0x118B JUMP JUMPDEST SWAP6 POP POP PUSH1 0x20 DUP7 ADD CALLDATALOAD PUSH8 0xFFFFFFFFFFFFFFFF DUP2 GT ISZERO PUSH2 0x1220 JUMPI PUSH2 0x121F PUSH2 0xCC4 JUMP JUMPDEST JUMPDEST PUSH2 0x122C DUP9 DUP3 DUP10 ADD PUSH2 0x118B JUMP JUMPDEST SWAP5 POP POP PUSH1 0x40 PUSH2 0x123D DUP9 DUP3 DUP10 ADD PUSH2 0xCEA JUMP JUMPDEST SWAP4 POP POP PUSH1 0x60 DUP7 ADD CALLDATALOAD PUSH8 0xFFFFFFFFFFFFFFFF DUP2 GT ISZERO PUSH2 0x125E JUMPI PUSH2 0x125D PUSH2 0xCC4 JUMP JUMPDEST JUMPDEST PUSH2 0x126A DUP9 DUP3 DUP10 ADD PUSH2 0x118B JUMP JUMPDEST SWAP3 POP POP PUSH1 0x80 DUP7 ADD CALLDATALOAD PUSH8 0xFFFFFFFFFFFFFFFF DUP2 GT ISZERO PUSH2 0x128B JUMPI PUSH2 0x128A PUSH2 0xCC4 JUMP JUMPDEST JUMPDEST PUSH2 0x1297 DUP9 DUP3 DUP10 ADD PUSH2 0x118B JUMP JUMPDEST SWAP2 POP POP SWAP3 SWAP6 POP SWAP3 SWAP6 SWAP1 SWAP4 POP JUMP JUMPDEST PUSH1 0x0 DUP2 MLOAD SWAP1 POP SWAP2 SWAP1 POP JUMP JUMPDEST PUSH1 0x0 DUP3 DUP3 MSTORE PUSH1 0x20 DUP3 ADD SWAP1 POP SWAP3 SWAP2 POP POP JUMP JUMPDEST PUSH1 0x0 DUP2 SWAP1 POP PUSH1 0x20 DUP3 ADD SWAP1 POP SWAP2 SWAP1 POP JUMP JUMPDEST PUSH1 0x0 PUSH1 0xA0 DUP4 ADD PUSH1 0x0 DUP4 ADD MLOAD DUP5 DUP3 SUB PUSH1 0x0 DUP7 ADD MSTORE PUSH2 0x12ED DUP3 DUP3 PUSH2 0xD8C JUMP JUMPDEST SWAP2 POP POP PUSH1 0x20 DUP4 ADD MLOAD DUP5 DUP3 SUB PUSH1 0x20 DUP7 ADD MSTORE PUSH2 0x1307 DUP3 DUP3 PUSH2 0xD8C JUMP JUMPDEST SWAP2 POP POP PUSH1 0x40 DUP4 ADD MLOAD PUSH2 0x131C PUSH1 0x40 DUP7 ADD DUP3 PUSH2 0xDC5 JUMP JUMPDEST POP PUSH1 0x60 DUP4 ADD MLOAD DUP5 DUP3 SUB PUSH1 0x60 DUP7 ADD MSTORE PUSH2 0x1334 DUP3 DUP3 PUSH2 0xD8C JUMP JUMPDEST SWAP2 POP POP PUSH1 0x80 DUP4 ADD MLOAD DUP5 DUP3 SUB PUSH1 0x80 DUP7 ADD MSTORE PUSH2 0x134E DUP3 DUP3 PUSH2 0xD8C JUMP JUMPDEST SWAP2 POP POP DUP1 SWAP2 POP POP SWAP3 SWAP2 POP POP JUMP JUMPDEST PUSH1 0x0 PUSH2 0x1367 DUP4 DUP4 PUSH2 0x12D0 JUMP JUMPDEST SWAP1 POP SWAP3 SWAP2 POP POP JUMP JUMPDEST PUSH1 0x0 PUSH1 0x20 DUP3 ADD SWAP1 POP SWAP2 SWAP1 POP JUMP JUMPDEST PUSH1 0x0 PUSH2 0x1387 DUP3 PUSH2 0x12A4 JUMP JUMPDEST PUSH2 0x1391 DUP2 DUP6 PUSH2 0x12AF JUMP JUMPDEST SWAP4 POP DUP4 PUSH1 0x20 DUP3 MUL DUP6 ADD PUSH2 0x13A3 DUP6 PUSH2 0x12C0 JUMP JUMPDEST DUP1 PUSH1 0x0 JUMPDEST DUP6 DUP2 LT ISZERO PUSH2 0x13DF JUMPI DUP5 DUP5 SUB DUP10 MSTORE DUP2 MLOAD PUSH2 0x13C0 DUP6 DUP3 PUSH2 0x135B JUMP JUMPDEST SWAP5 POP PUSH2 0x13CB DUP4 PUSH2 0x136F JUMP JUMPDEST SWAP3 POP PUSH1 0x20 DUP11 ADD SWAP10 POP POP PUSH1 0x1 DUP2 ADD SWAP1 POP PUSH2 0x13A7 JUMP JUMPDEST POP DUP3 SWAP8 POP DUP8 SWAP6 POP POP POP POP POP POP SWAP3 SWAP2 POP POP JUMP JUMPDEST PUSH1 0x0 PUSH1 0x20 DUP3 ADD SWAP1 POP DUP2 DUP2 SUB PUSH1 0x0 DUP4 ADD MSTORE PUSH2 0x140B DUP2 DUP5 PUSH2 0x137C JUMP JUMPDEST SWAP1 POP SWAP3 SWAP2 POP POP JUMP JUMPDEST PUSH32 0x4E487B7100000000000000000000000000000000000000000000000000000000 PUSH1 0x0 MSTORE PUSH1 0x32 PUSH1 0x4 MSTORE PUSH1 0x24 PUSH1 0x0 REVERT JUMPDEST PUSH32 0x4E487B7100000000000000000000000000000000000000000000000000000000 PUSH1 0x0 MSTORE PUSH1 0x22 PUSH1 0x4 MSTORE PUSH1 0x24 PUSH1 0x0 REVERT JUMPDEST PUSH1 0x0 PUSH1 0x2 DUP3 DIV SWAP1 POP PUSH1 0x1 DUP3 AND DUP1 PUSH2 0x1489 JUMPI PUSH1 0x7F DUP3 AND SWAP2 POP JUMPDEST PUSH1 0x20 DUP3 LT DUP2 EQ ISZERO PUSH2 0x149D JUMPI PUSH2 0x149C PUSH2 0x1442 JUMP JUMPDEST JUMPDEST POP SWAP2 SWAP1 POP JUMP JUMPDEST PUSH32 0x4E487B7100000000000000000000000000000000000000000000000000000000 PUSH1 0x0 MSTORE PUSH1 0x11 PUSH1 0x4 MSTORE PUSH1 0x24 PUSH1 0x0 REVERT JUMPDEST PUSH1 0x0 PUSH2 0x14DD DUP3 PUSH2 0xCC9 JUMP JUMPDEST SWAP2 POP PUSH32 0xFFFFFFFFFFFFFFFFFFFFFFFFFFFFFFFFFFFFFFFFFFFFFFFFFFFFFFFFFFFFFFFF DUP3 EQ ISZERO PUSH2 0x1510 JUMPI PUSH2 0x150F PUSH2 0x14A3 JUMP JUMPDEST JUMPDEST PUSH1 0x1 DUP3 ADD SWAP1 POP SWAP2 SWAP1 POP JUMP INVALID LOG2 PUSH5 0x6970667358 0x22 SLT KECCAK256 0xC1 0xCE 0x5E CODESIZE SELFBALANCE ADDRESS MSIZE 0xDF SMOD JUMPI 0xBF DUP9 ISZERO 0xDE 0xB6 0x28 SMOD PUSH29 0xC9AE8E3DA765E115541C0A018C8264736F6C634300080A0033A2646970 PUSH7 0x73582212207EF0 0xAA RETURN 0xCE 0xC4 LOG1 0xD8 DUP14 PUSH13 0x89912346F6720941206BBCB9D RETURNDATASIZE 0xFC MOD PUSH32 0x415B59734A64736F6C634300080A003300000000000000000000000000000000 "},"gasEstimates":{"creation":{"codeDepositCost":"1811400","executionCost":"1912","totalCost":"1813312"},"external":{"createElection(string,string)":"infinite","getElections()":"infinite"}},"methodIdentifiers":{"createElection(string,string)":"bd27eca0","getElections()":"9f3a7f52"}},"storageLayout":{"storage":[{"astId":13,"contract":"Election.sol:ElectionFactory","label":"list","offset":0,"slot":"0","type":"t_array(t_struct(ElectionMeta)9_storage)dyn_storage"}],"types":{"t_address":{"encoding":"inplace","label":"address","numberOfBytes":"20"},"t_array(t_struct(ElectionMeta)9_storage)dyn_storage":{"base":"t_struct(ElectionMeta)9_storage","encoding":"dynamic_array","label":"struct ElectionFactory.ElectionMeta[]","numberOfBytes":"32"},"t_string_storage":{"encoding":"bytes","label":"string","numberOfBytes":"32"},"t_struct(ElectionMeta)9_storage":{"encoding":"inplace","label":"struct ElectionFactory.ElectionMeta","members":[{"astId":4,"contract":"Election.sol:ElectionFactory","label":"add","offset":0,"slot":"0","type":"t_address"},{"astId":6,"contract":"Election.sol:ElectionFactory","label":"name","offset":0,"slot":"1","type":"t_string_storage"},{"astId":8,"contract":"Election.sol:ElectionFactory","label":"manager","offset":0,"slot":"2","type":"t_string_storage"}],"numberOfBytes":"96"}}},"userdoc":{"kind":"user","methods":{},"version":1}}