{"abi":[{"inputs":[{"internalType":"address","name":"sender","type":"address"},{"internalType":"string","name":"n","type":"string"},{"internalType":"uint256","name":"time","type":"uint256"}],"stateMutability":"nonpayable","type":"constructor"},{"inputs":[{"internalType":"string","name":"partyName","type":"string"},{"internalType":"string","name":"leaderName","type":"string"},{"internalType":"uint256","name":"membersCount","type":"uint256"},{"internalType":"string","name":"region","type":"string"},{"internalType":"string","name":"image","type":"string"}],"name":"addParty","outputs":[],"stateMutability":"nonpayable","type":"function"},{"inputs":[{"internalType":"uint256","name":"aadhaar","type":"uint256"},{"internalType":"uint256","name":"partyIndex","type":"uint256"}],"name":"castVote","outputs":[],"stateMutability":"nonpayable","type":"function"},{"inputs":[],"name":"createdAt","outputs":[{"internalType":"uint256","name":"","type":"uint256"}],"stateMutability":"view","type":"function"},{"inputs":[],"name":"endAt","outputs":[{"internalType":"uint256","name":"","type":"uint256"}],"stateMutability":"view","type":"function"},{"inputs":[],"name":"endElection","outputs":[],"stateMutability":"nonpayable","type":"function"},{"inputs":[],"name":"getParties","outputs":[{"components":[{"internalType":"string","name":"name","type":"string"},{"internalType":"string","name":"leaderName","type":"string"},{"internalType":"uint256","name":"membersCount","type":"uint256"},{"internalType":"string","name":"region","type":"string"},{"internalType":"string","name":"image","type":"string"}],"internalType":"struct Election.Party[]","name":"","type":"tuple[]"}],"stateMutability":"view","type":"function"},{"inputs":[{"internalType":"uint256","name":"partyIndex","type":"uint256"}],"name":"getPartyDetails","outputs":[{"components":[{"internalType":"string","name":"name","type":"string"},{"internalType":"string","name":"leaderName","type":"string"},{"internalType":"uint256","name":"membersCount","type":"uint256"},{"internalType":"string","name":"region","type":"string"},{"internalType":"string","name":"image","type":"string"}],"internalType":"struct Election.Party","name":"","type":"tuple"}],"stateMutability":"view","type":"function"},{"inputs":[],"name":"getResults","outputs":[{"internalType":"uint256[]","name":"","type":"uint256[]"}],"stateMutability":"view","type":"function"},{"inputs":[],"name":"manager","outputs":[{"internalType":"address","name":"","type":"address"}],"stateMutability":"view","type":"function"},{"inputs":[],"name":"name","outputs":[{"internalType":"string","name":"","type":"string"}],"stateMutability":"view","type":"function"},{"inputs":[{"internalType":"uint256","name":"time","type":"uint256"},{"internalType":"uint256","name":"willEndAt","type":"uint256"}],"name":"startElection","outputs":[],"stateMutability":"nonpayable","type":"function"},{"inputs":[],"name":"startedAt","outputs":[{"internalType":"uint256","name":"","type":"uint256"}],"stateMutability":"view","type":"function"},{"inputs":[],"name":"totalVotes","outputs":[{"internalType":"uint256","name":"","type":"uint256"}],"stateMutability":"view","type":"function"}],"devdoc":{"kind":"dev","methods":{},"version":1},"evm":{"assembly":"    /* \"Election.sol\":702:3102  contract Election{... */\n  mstore(0x40, 0x80)\n    /* \"Election.sol\":1084:1347  constructor(address sender, string memory n, uint time){... */\n  callvalue\n  dup1\n  iszero\n  tag_1\n  jumpi\n  0x00\n  dup1\n  revert\ntag_1:\n  pop\n  mload(0x40)\n  sub(codesize, bytecodeSize)\n  dup1\n  bytecodeSize\n  dup4\n  codecopy\n  dup2\n  dup2\n  add\n  0x40\n  mstore\n  dup2\n  add\n  swap1\n  tag_2\n  swap2\n  swap1\n  tag_3\n  jump\t// in\ntag_2:\n    /* \"Election.sol\":1160:1166  sender */\n  dup3\n    /* \"Election.sol\":1150:1157  manager */\n  0x02\n  0x00\n    /* \"Election.sol\":1150:1166  manager = sender */\n  0x0100\n  exp\n  dup2\n  sload\n  dup2\n  0xffffffffffffffffffffffffffffffffffffffff\n  mul\n  not\n  and\n  swap1\n  dup4\n  0xffffffffffffffffffffffffffffffffffffffff\n  and\n  mul\n  or\n  swap1\n  sstore\n  pop\n    /* \"Election.sol\":1191:1196  false */\n  0x00\n    /* \"Election.sol\":1177:1188  isCompleted */\n  0x04\n  0x00\n    /* \"Election.sol\":1177:1196  isCompleted = false */\n  0x0100\n  exp\n  dup2\n  sload\n  dup2\n  0xff\n  mul\n  not\n  and\n  swap1\n  dup4\n  iszero\n  iszero\n  mul\n  or\n  swap1\n  sstore\n  pop\n    /* \"Election.sol\":1220:1221  0 */\n  0x00\n    /* \"Election.sol\":1207:1217  totalVotes */\n  dup1\n    /* \"Election.sol\":1207:1221  totalVotes = 0 */\n  dup2\n  swap1\n  sstore\n  pop\n    /* \"Election.sol\":1244:1249  false */\n  0x00\n    /* \"Election.sol\":1232:1241  isStarted */\n  0x04\n  0x01\n    /* \"Election.sol\":1232:1249  isStarted = false */\n  0x0100\n  exp\n  dup2\n  sload\n  dup2\n  0xff\n  mul\n  not\n  and\n  swap1\n  dup4\n  iszero\n  iszero\n  mul\n  or\n  swap1\n  sstore\n  pop\n    /* \"Election.sol\":1267:1268  n */\n  dup2\n    /* \"Election.sol\":1260:1264  name */\n  0x01\n    /* \"Election.sol\":1260:1268  name = n */\n  swap1\n  dup1\n  mload\n  swap1\n  0x20\n  add\n  swap1\n  tag_6\n  swap3\n  swap2\n  swap1\n  tag_7\n  jump\t// in\ntag_6:\n  pop\n    /* \"Election.sol\":1291:1295  time */\n  dup1\n    /* \"Election.sol\":1279:1288  createdAt */\n  0x05\n    /* \"Election.sol\":1279:1295  createdAt = time */\n  dup2\n  swap1\n  sstore\n  pop\n    /* \"Election.sol\":1318:1319  0 */\n  0x00\n    /* \"Election.sol\":1306:1315  startedAt */\n  0x06\n    /* \"Election.sol\":1306:1319  startedAt = 0 */\n  dup2\n  swap1\n  sstore\n  pop\n    /* \"Election.sol\":1338:1339  0 */\n  0x00\n    /* \"Election.sol\":1330:1335  endAt */\n  0x07\n    /* \"Election.sol\":1330:1339  endAt = 0 */\n  dup2\n  swap1\n  sstore\n  pop\n    /* \"Election.sol\":1084:1347  constructor(address sender, string memory n, uint time){... */\n  pop\n  pop\n  pop\n    /* \"Election.sol\":702:3102  contract Election{... */\n  jump(tag_8)\ntag_7:\n  dup3\n  dup1\n  sload\n  tag_9\n  swap1\n  tag_10\n  jump\t// in\ntag_9:\n  swap1\n  0x00\n  mstore\n  keccak256(0x00, 0x20)\n  swap1\n  0x1f\n  add\n  0x20\n  swap1\n  div\n  dup2\n  add\n  swap3\n  dup3\n  tag_12\n  jumpi\n  0x00\n  dup6\n  sstore\n  jump(tag_11)\ntag_12:\n  dup3\n  0x1f\n  lt\n  tag_13\n  jumpi\n  dup1\n  mload\n  not(0xff)\n  and\n  dup4\n  dup1\n  add\n  or\n  dup6\n  sstore\n  jump(tag_11)\ntag_13:\n  dup3\n  dup1\n  add\n  0x01\n  add\n  dup6\n  sstore\n  dup3\n  iszero\n  tag_11\n  jumpi\n  swap2\n  dup3\n  add\ntag_14:\n  dup3\n  dup2\n  gt\n  iszero\n  tag_15\n  jumpi\n  dup3\n  mload\n  dup3\n  sstore\n  swap2\n  0x20\n  add\n  swap2\n  swap1\n  0x01\n  add\n  swap1\n  jump(tag_14)\ntag_15:\ntag_11:\n  pop\n  swap1\n  pop\n  tag_16\n  swap2\n  swap1\n  tag_17\n  jump\t// in\ntag_16:\n  pop\n  swap1\n  jump\t// out\ntag_17:\ntag_18:\n  dup1\n  dup3\n  gt\n  iszero\n  tag_19\n  jumpi\n  0x00\n  dup2\n  0x00\n  swap1\n  sstore\n  pop\n  0x01\n  add\n  jump(tag_18)\ntag_19:\n  pop\n  swap1\n  jump\t// out\n    /* \"#utility.yul\":7:82   */\ntag_20:\n    /* \"#utility.yul\":40:46   */\n  0x00\n    /* \"#utility.yul\":73:75   */\n  0x40\n    /* \"#utility.yul\":67:76   */\n  mload\n    /* \"#utility.yul\":57:76   */\n  swap1\n  pop\n    /* \"#utility.yul\":7:82   */\n  swap1\n  jump\t// out\n    /* \"#utility.yul\":88:205   */\ntag_21:\n    /* \"#utility.yul\":197:198   */\n  0x00\n    /* \"#utility.yul\":194:195   */\n  dup1\n    /* \"#utility.yul\":187:199   */\n  revert\n    /* \"#utility.yul\":211:328   */\ntag_22:\n    /* \"#utility.yul\":320:321   */\n  0x00\n    /* \"#utility.yul\":317:318   */\n  dup1\n    /* \"#utility.yul\":310:322   */\n  revert\n    /* \"#utility.yul\":334:460   */\ntag_23:\n    /* \"#utility.yul\":371:378   */\n  0x00\n    /* \"#utility.yul\":411:453   */\n  0xffffffffffffffffffffffffffffffffffffffff\n    /* \"#utility.yul\":404:409   */\n  dup3\n    /* \"#utility.yul\":400:454   */\n  and\n    /* \"#utility.yul\":389:454   */\n  swap1\n  pop\n    /* \"#utility.yul\":334:460   */\n  swap2\n  swap1\n  pop\n  jump\t// out\n    /* \"#utility.yul\":466:562   */\ntag_24:\n    /* \"#utility.yul\":503:510   */\n  0x00\n    /* \"#utility.yul\":532:556   */\n  tag_47\n    /* \"#utility.yul\":550:555   */\n  dup3\n    /* \"#utility.yul\":532:556   */\n  tag_23\n  jump\t// in\ntag_47:\n    /* \"#utility.yul\":521:556   */\n  swap1\n  pop\n    /* \"#utility.yul\":466:562   */\n  swap2\n  swap1\n  pop\n  jump\t// out\n    /* \"#utility.yul\":568:690   */\ntag_25:\n    /* \"#utility.yul\":641:665   */\n  tag_49\n    /* \"#utility.yul\":659:664   */\n  dup2\n    /* \"#utility.yul\":641:665   */\n  tag_24\n  jump\t// in\ntag_49:\n    /* \"#utility.yul\":634:639   */\n  dup2\n    /* \"#utility.yul\":631:666   */\n  eq\n    /* \"#utility.yul\":621:684   */\n  tag_50\n  jumpi\n    /* \"#utility.yul\":680:681   */\n  0x00\n    /* \"#utility.yul\":677:678   */\n  dup1\n    /* \"#utility.yul\":670:682   */\n  revert\n    /* \"#utility.yul\":621:684   */\ntag_50:\n    /* \"#utility.yul\":568:690   */\n  pop\n  jump\t// out\n    /* \"#utility.yul\":696:839   */\ntag_26:\n    /* \"#utility.yul\":753:758   */\n  0x00\n    /* \"#utility.yul\":784:790   */\n  dup2\n    /* \"#utility.yul\":778:791   */\n  mload\n    /* \"#utility.yul\":769:791   */\n  swap1\n  pop\n    /* \"#utility.yul\":800:833   */\n  tag_52\n    /* \"#utility.yul\":827:832   */\n  dup2\n    /* \"#utility.yul\":800:833   */\n  tag_25\n  jump\t// in\ntag_52:\n    /* \"#utility.yul\":696:839   */\n  swap3\n  swap2\n  pop\n  pop\n  jump\t// out\n    /* \"#utility.yul\":845:962   */\ntag_27:\n    /* \"#utility.yul\":954:955   */\n  0x00\n    /* \"#utility.yul\":951:952   */\n  dup1\n    /* \"#utility.yul\":944:956   */\n  revert\n    /* \"#utility.yul\":968:1085   */\ntag_28:\n    /* \"#utility.yul\":1077:1078   */\n  0x00\n    /* \"#utility.yul\":1074:1075   */\n  dup1\n    /* \"#utility.yul\":1067:1079   */\n  revert\n    /* \"#utility.yul\":1091:1193   */\ntag_29:\n    /* \"#utility.yul\":1132:1138   */\n  0x00\n    /* \"#utility.yul\":1183:1185   */\n  0x1f\n    /* \"#utility.yul\":1179:1186   */\n  not\n    /* \"#utility.yul\":1174:1176   */\n  0x1f\n    /* \"#utility.yul\":1167:1172   */\n  dup4\n    /* \"#utility.yul\":1163:1177   */\n  add\n    /* \"#utility.yul\":1159:1187   */\n  and\n    /* \"#utility.yul\":1149:1187   */\n  swap1\n  pop\n    /* \"#utility.yul\":1091:1193   */\n  swap2\n  swap1\n  pop\n  jump\t// out\n    /* \"#utility.yul\":1199:1379   */\ntag_30:\n    /* \"#utility.yul\":1247:1324   */\n  0x4e487b7100000000000000000000000000000000000000000000000000000000\n    /* \"#utility.yul\":1244:1245   */\n  0x00\n    /* \"#utility.yul\":1237:1325   */\n  mstore\n    /* \"#utility.yul\":1344:1348   */\n  0x41\n    /* \"#utility.yul\":1341:1342   */\n  0x04\n    /* \"#utility.yul\":1334:1349   */\n  mstore\n    /* \"#utility.yul\":1368:1372   */\n  0x24\n    /* \"#utility.yul\":1365:1366   */\n  0x00\n    /* \"#utility.yul\":1358:1373   */\n  revert\n    /* \"#utility.yul\":1385:1666   */\ntag_31:\n    /* \"#utility.yul\":1468:1495   */\n  tag_58\n    /* \"#utility.yul\":1490:1494   */\n  dup3\n    /* \"#utility.yul\":1468:1495   */\n  tag_29\n  jump\t// in\ntag_58:\n    /* \"#utility.yul\":1460:1466   */\n  dup2\n    /* \"#utility.yul\":1456:1496   */\n  add\n    /* \"#utility.yul\":1598:1604   */\n  dup2\n    /* \"#utility.yul\":1586:1596   */\n  dup2\n    /* \"#utility.yul\":1583:1605   */\n  lt\n    /* \"#utility.yul\":1562:1580   */\n  0xffffffffffffffff\n    /* \"#utility.yul\":1550:1560   */\n  dup3\n    /* \"#utility.yul\":1547:1581   */\n  gt\n    /* \"#utility.yul\":1544:1606   */\n  or\n    /* \"#utility.yul\":1541:1629   */\n  iszero\n  tag_59\n  jumpi\n    /* \"#utility.yul\":1609:1627   */\n  tag_60\n  tag_30\n  jump\t// in\ntag_60:\n    /* \"#utility.yul\":1541:1629   */\ntag_59:\n    /* \"#utility.yul\":1649:1659   */\n  dup1\n    /* \"#utility.yul\":1645:1647   */\n  0x40\n    /* \"#utility.yul\":1638:1660   */\n  mstore\n    /* \"#utility.yul\":1428:1666   */\n  pop\n    /* \"#utility.yul\":1385:1666   */\n  pop\n  pop\n  jump\t// out\n    /* \"#utility.yul\":1672:1801   */\ntag_32:\n    /* \"#utility.yul\":1706:1712   */\n  0x00\n    /* \"#utility.yul\":1733:1753   */\n  tag_62\n  tag_20\n  jump\t// in\ntag_62:\n    /* \"#utility.yul\":1723:1753   */\n  swap1\n  pop\n    /* \"#utility.yul\":1762:1795   */\n  tag_63\n    /* \"#utility.yul\":1790:1794   */\n  dup3\n    /* \"#utility.yul\":1782:1788   */\n  dup3\n    /* \"#utility.yul\":1762:1795   */\n  tag_31\n  jump\t// in\ntag_63:\n    /* \"#utility.yul\":1672:1801   */\n  swap2\n  swap1\n  pop\n  jump\t// out\n    /* \"#utility.yul\":1807:2115   */\ntag_33:\n    /* \"#utility.yul\":1869:1873   */\n  0x00\n    /* \"#utility.yul\":1959:1977   */\n  0xffffffffffffffff\n    /* \"#utility.yul\":1951:1957   */\n  dup3\n    /* \"#utility.yul\":1948:1978   */\n  gt\n    /* \"#utility.yul\":1945:2001   */\n  iszero\n  tag_65\n  jumpi\n    /* \"#utility.yul\":1981:1999   */\n  tag_66\n  tag_30\n  jump\t// in\ntag_66:\n    /* \"#utility.yul\":1945:2001   */\ntag_65:\n    /* \"#utility.yul\":2019:2048   */\n  tag_67\n    /* \"#utility.yul\":2041:2047   */\n  dup3\n    /* \"#utility.yul\":2019:2048   */\n  tag_29\n  jump\t// in\ntag_67:\n    /* \"#utility.yul\":2011:2048   */\n  swap1\n  pop\n    /* \"#utility.yul\":2103:2107   */\n  0x20\n    /* \"#utility.yul\":2097:2101   */\n  dup2\n    /* \"#utility.yul\":2093:2108   */\n  add\n    /* \"#utility.yul\":2085:2108   */\n  swap1\n  pop\n    /* \"#utility.yul\":1807:2115   */\n  swap2\n  swap1\n  pop\n  jump\t// out\n    /* \"#utility.yul\":2121:2428   */\ntag_34:\n    /* \"#utility.yul\":2189:2190   */\n  0x00\n    /* \"#utility.yul\":2199:2312   */\ntag_69:\n    /* \"#utility.yul\":2213:2219   */\n  dup4\n    /* \"#utility.yul\":2210:2211   */\n  dup2\n    /* \"#utility.yul\":2207:2220   */\n  lt\n    /* \"#utility.yul\":2199:2312   */\n  iszero\n  tag_71\n  jumpi\n    /* \"#utility.yul\":2298:2299   */\n  dup1\n    /* \"#utility.yul\":2293:2296   */\n  dup3\n    /* \"#utility.yul\":2289:2300   */\n  add\n    /* \"#utility.yul\":2283:2301   */\n  mload\n    /* \"#utility.yul\":2279:2280   */\n  dup2\n    /* \"#utility.yul\":2274:2277   */\n  dup5\n    /* \"#utility.yul\":2270:2281   */\n  add\n    /* \"#utility.yul\":2263:2302   */\n  mstore\n    /* \"#utility.yul\":2235:2237   */\n  0x20\n    /* \"#utility.yul\":2232:2233   */\n  dup2\n    /* \"#utility.yul\":2228:2238   */\n  add\n    /* \"#utility.yul\":2223:2238   */\n  swap1\n  pop\n    /* \"#utility.yul\":2199:2312   */\n  jump(tag_69)\ntag_71:\n    /* \"#utility.yul\":2330:2336   */\n  dup4\n    /* \"#utility.yul\":2327:2328   */\n  dup2\n    /* \"#utility.yul\":2324:2337   */\n  gt\n    /* \"#utility.yul\":2321:2422   */\n  iszero\n  tag_72\n  jumpi\n    /* \"#utility.yul\":2410:2411   */\n  0x00\n    /* \"#utility.yul\":2401:2407   */\n  dup5\n    /* \"#utility.yul\":2396:2399   */\n  dup5\n    /* \"#utility.yul\":2392:2408   */\n  add\n    /* \"#utility.yul\":2385:2412   */\n  mstore\n    /* \"#utility.yul\":2321:2422   */\ntag_72:\n    /* \"#utility.yul\":2170:2428   */\n  pop\n    /* \"#utility.yul\":2121:2428   */\n  pop\n  pop\n  pop\n  jump\t// out\n    /* \"#utility.yul\":2434:2855   */\ntag_35:\n    /* \"#utility.yul\":2523:2528   */\n  0x00\n    /* \"#utility.yul\":2548:2614   */\n  tag_74\n    /* \"#utility.yul\":2564:2613   */\n  tag_75\n    /* \"#utility.yul\":2606:2612   */\n  dup5\n    /* \"#utility.yul\":2564:2613   */\n  tag_33\n  jump\t// in\ntag_75:\n    /* \"#utility.yul\":2548:2614   */\n  tag_32\n  jump\t// in\ntag_74:\n    /* \"#utility.yul\":2539:2614   */\n  swap1\n  pop\n    /* \"#utility.yul\":2637:2643   */\n  dup3\n    /* \"#utility.yul\":2630:2635   */\n  dup2\n    /* \"#utility.yul\":2623:2644   */\n  mstore\n    /* \"#utility.yul\":2675:2679   */\n  0x20\n    /* \"#utility.yul\":2668:2673   */\n  dup2\n    /* \"#utility.yul\":2664:2680   */\n  add\n    /* \"#utility.yul\":2713:2716   */\n  dup5\n    /* \"#utility.yul\":2704:2710   */\n  dup5\n    /* \"#utility.yul\":2699:2702   */\n  dup5\n    /* \"#utility.yul\":2695:2711   */\n  add\n    /* \"#utility.yul\":2692:2717   */\n  gt\n    /* \"#utility.yul\":2689:2801   */\n  iszero\n  tag_76\n  jumpi\n    /* \"#utility.yul\":2720:2799   */\n  tag_77\n  tag_28\n  jump\t// in\ntag_77:\n    /* \"#utility.yul\":2689:2801   */\ntag_76:\n    /* \"#utility.yul\":2810:2849   */\n  tag_78\n    /* \"#utility.yul\":2842:2848   */\n  dup5\n    /* \"#utility.yul\":2837:2840   */\n  dup3\n    /* \"#utility.yul\":2832:2835   */\n  dup6\n    /* \"#utility.yul\":2810:2849   */\n  tag_34\n  jump\t// in\ntag_78:\n    /* \"#utility.yul\":2529:2855   */\n  pop\n    /* \"#utility.yul\":2434:2855   */\n  swap4\n  swap3\n  pop\n  pop\n  pop\n  jump\t// out\n    /* \"#utility.yul\":2875:3230   */\ntag_36:\n    /* \"#utility.yul\":2942:2947   */\n  0x00\n    /* \"#utility.yul\":2991:2994   */\n  dup3\n    /* \"#utility.yul\":2984:2988   */\n  0x1f\n    /* \"#utility.yul\":2976:2982   */\n  dup4\n    /* \"#utility.yul\":2972:2989   */\n  add\n    /* \"#utility.yul\":2968:2995   */\n  slt\n    /* \"#utility.yul\":2958:3080   */\n  tag_80\n  jumpi\n    /* \"#utility.yul\":2999:3078   */\n  tag_81\n  tag_27\n  jump\t// in\ntag_81:\n    /* \"#utility.yul\":2958:3080   */\ntag_80:\n    /* \"#utility.yul\":3109:3115   */\n  dup2\n    /* \"#utility.yul\":3103:3116   */\n  mload\n    /* \"#utility.yul\":3134:3224   */\n  tag_82\n    /* \"#utility.yul\":3220:3223   */\n  dup5\n    /* \"#utility.yul\":3212:3218   */\n  dup3\n    /* \"#utility.yul\":3205:3209   */\n  0x20\n    /* \"#utility.yul\":3197:3203   */\n  dup7\n    /* \"#utility.yul\":3193:3210   */\n  add\n    /* \"#utility.yul\":3134:3224   */\n  tag_35\n  jump\t// in\ntag_82:\n    /* \"#utility.yul\":3125:3224   */\n  swap2\n  pop\n    /* \"#utility.yul\":2948:3230   */\n  pop\n    /* \"#utility.yul\":2875:3230   */\n  swap3\n  swap2\n  pop\n  pop\n  jump\t// out\n    /* \"#utility.yul\":3236:3313   */\ntag_37:\n    /* \"#utility.yul\":3273:3280   */\n  0x00\n    /* \"#utility.yul\":3302:3307   */\n  dup2\n    /* \"#utility.yul\":3291:3307   */\n  swap1\n  pop\n    /* \"#utility.yul\":3236:3313   */\n  swap2\n  swap1\n  pop\n  jump\t// out\n    /* \"#utility.yul\":3319:3441   */\ntag_38:\n    /* \"#utility.yul\":3392:3416   */\n  tag_85\n    /* \"#utility.yul\":3410:3415   */\n  dup2\n    /* \"#utility.yul\":3392:3416   */\n  tag_37\n  jump\t// in\ntag_85:\n    /* \"#utility.yul\":3385:3390   */\n  dup2\n    /* \"#utility.yul\":3382:3417   */\n  eq\n    /* \"#utility.yul\":3372:3435   */\n  tag_86\n  jumpi\n    /* \"#utility.yul\":3431:3432   */\n  0x00\n    /* \"#utility.yul\":3428:3429   */\n  dup1\n    /* \"#utility.yul\":3421:3433   */\n  revert\n    /* \"#utility.yul\":3372:3435   */\ntag_86:\n    /* \"#utility.yul\":3319:3441   */\n  pop\n  jump\t// out\n    /* \"#utility.yul\":3447:3590   */\ntag_39:\n    /* \"#utility.yul\":3504:3509   */\n  0x00\n    /* \"#utility.yul\":3535:3541   */\n  dup2\n    /* \"#utility.yul\":3529:3542   */\n  mload\n    /* \"#utility.yul\":3520:3542   */\n  swap1\n  pop\n    /* \"#utility.yul\":3551:3584   */\n  tag_88\n    /* \"#utility.yul\":3578:3583   */\n  dup2\n    /* \"#utility.yul\":3551:3584   */\n  tag_38\n  jump\t// in\ntag_88:\n    /* \"#utility.yul\":3447:3590   */\n  swap3\n  swap2\n  pop\n  pop\n  jump\t// out\n    /* \"#utility.yul\":3596:4432   */\ntag_3:\n    /* \"#utility.yul\":3694:3700   */\n  0x00\n    /* \"#utility.yul\":3702:3708   */\n  dup1\n    /* \"#utility.yul\":3710:3716   */\n  0x00\n    /* \"#utility.yul\":3759:3761   */\n  0x60\n    /* \"#utility.yul\":3747:3756   */\n  dup5\n    /* \"#utility.yul\":3738:3745   */\n  dup7\n    /* \"#utility.yul\":3734:3757   */\n  sub\n    /* \"#utility.yul\":3730:3762   */\n  slt\n    /* \"#utility.yul\":3727:3846   */\n  iszero\n  tag_90\n  jumpi\n    /* \"#utility.yul\":3765:3844   */\n  tag_91\n  tag_21\n  jump\t// in\ntag_91:\n    /* \"#utility.yul\":3727:3846   */\ntag_90:\n    /* \"#utility.yul\":3885:3886   */\n  0x00\n    /* \"#utility.yul\":3910:3974   */\n  tag_92\n    /* \"#utility.yul\":3966:3973   */\n  dup7\n    /* \"#utility.yul\":3957:3963   */\n  dup3\n    /* \"#utility.yul\":3946:3955   */\n  dup8\n    /* \"#utility.yul\":3942:3964   */\n  add\n    /* \"#utility.yul\":3910:3974   */\n  tag_26\n  jump\t// in\ntag_92:\n    /* \"#utility.yul\":3900:3974   */\n  swap4\n  pop\n    /* \"#utility.yul\":3856:3984   */\n  pop\n    /* \"#utility.yul\":4044:4046   */\n  0x20\n    /* \"#utility.yul\":4033:4042   */\n  dup5\n    /* \"#utility.yul\":4029:4047   */\n  add\n    /* \"#utility.yul\":4023:4048   */\n  mload\n    /* \"#utility.yul\":4075:4093   */\n  0xffffffffffffffff\n    /* \"#utility.yul\":4067:4073   */\n  dup2\n    /* \"#utility.yul\":4064:4094   */\n  gt\n    /* \"#utility.yul\":4061:4178   */\n  iszero\n  tag_93\n  jumpi\n    /* \"#utility.yul\":4097:4176   */\n  tag_94\n  tag_22\n  jump\t// in\ntag_94:\n    /* \"#utility.yul\":4061:4178   */\ntag_93:\n    /* \"#utility.yul\":4202:4276   */\n  tag_95\n    /* \"#utility.yul\":4268:4275   */\n  dup7\n    /* \"#utility.yul\":4259:4265   */\n  dup3\n    /* \"#utility.yul\":4248:4257   */\n  dup8\n    /* \"#utility.yul\":4244:4266   */\n  add\n    /* \"#utility.yul\":4202:4276   */\n  tag_36\n  jump\t// in\ntag_95:\n    /* \"#utility.yul\":4192:4276   */\n  swap3\n  pop\n    /* \"#utility.yul\":3994:4286   */\n  pop\n    /* \"#utility.yul\":4325:4327   */\n  0x40\n    /* \"#utility.yul\":4351:4415   */\n  tag_96\n    /* \"#utility.yul\":4407:4414   */\n  dup7\n    /* \"#utility.yul\":4398:4404   */\n  dup3\n    /* \"#utility.yul\":4387:4396   */\n  dup8\n    /* \"#utility.yul\":4383:4405   */\n  add\n    /* \"#utility.yul\":4351:4415   */\n  tag_39\n  jump\t// in\ntag_96:\n    /* \"#utility.yul\":4341:4415   */\n  swap2\n  pop\n    /* \"#utility.yul\":4296:4425   */\n  pop\n    /* \"#utility.yul\":3596:4432   */\n  swap3\n  pop\n  swap3\n  pop\n  swap3\n  jump\t// out\n    /* \"#utility.yul\":4438:4618   */\ntag_40:\n    /* \"#utility.yul\":4486:4563   */\n  0x4e487b7100000000000000000000000000000000000000000000000000000000\n    /* \"#utility.yul\":4483:4484   */\n  0x00\n    /* \"#utility.yul\":4476:4564   */\n  mstore\n    /* \"#utility.yul\":4583:4587   */\n  0x22\n    /* \"#utility.yul\":4580:4581   */\n  0x04\n    /* \"#utility.yul\":4573:4588   */\n  mstore\n    /* \"#utility.yul\":4607:4611   */\n  0x24\n    /* \"#utility.yul\":4604:4605   */\n  0x00\n    /* \"#utility.yul\":4597:4612   */\n  revert\n    /* \"#utility.yul\":4624:4944   */\ntag_10:\n    /* \"#utility.yul\":4668:4674   */\n  0x00\n    /* \"#utility.yul\":4705:4706   */\n  0x02\n    /* \"#utility.yul\":4699:4703   */\n  dup3\n    /* \"#utility.yul\":4695:4707   */\n  div\n    /* \"#utility.yul\":4685:4707   */\n  swap1\n  pop\n    /* \"#utility.yul\":4752:4753   */\n  0x01\n    /* \"#utility.yul\":4746:4750   */\n  dup3\n    /* \"#utility.yul\":4742:4754   */\n  and\n    /* \"#utility.yul\":4773:4791   */\n  dup1\n    /* \"#utility.yul\":4763:4844   */\n  tag_99\n  jumpi\n    /* \"#utility.yul\":4829:4833   */\n  0x7f\n    /* \"#utility.yul\":4821:4827   */\n  dup3\n    /* \"#utility.yul\":4817:4834   */\n  and\n    /* \"#utility.yul\":4807:4834   */\n  swap2\n  pop\n    /* \"#utility.yul\":4763:4844   */\ntag_99:\n    /* \"#utility.yul\":4891:4893   */\n  0x20\n    /* \"#utility.yul\":4883:4889   */\n  dup3\n    /* \"#utility.yul\":4880:4894   */\n  lt\n    /* \"#utility.yul\":4860:4878   */\n  dup2\n    /* \"#utility.yul\":4857:4895   */\n  eq\n    /* \"#utility.yul\":4854:4938   */\n  iszero\n  tag_100\n  jumpi\n    /* \"#utility.yul\":4910:4928   */\n  tag_101\n  tag_40\n  jump\t// in\ntag_101:\n    /* \"#utility.yul\":4854:4938   */\ntag_100:\n    /* \"#utility.yul\":4675:4944   */\n  pop\n    /* \"#utility.yul\":4624:4944   */\n  swap2\n  swap1\n  pop\n  jump\t// out\n    /* \"Election.sol\":702:3102  contract Election{... */\ntag_8:\n  dataSize(sub_0)\n  dup1\n  dataOffset(sub_0)\n  0x00\n  codecopy\n  0x00\n  return\nstop\n\nsub_0: assembly {\n        /* \"Election.sol\":702:3102  contract Election{... */\n      mstore(0x40, 0x80)\n      callvalue\n      dup1\n      iszero\n      tag_1\n      jumpi\n      0x00\n      dup1\n      revert\n    tag_1:\n      pop\n      jumpi(tag_2, lt(calldatasize, 0x04))\n      shr(0xe0, calldataload(0x00))\n      dup1\n      0x481c6a75\n      gt\n      tag_16\n      jumpi\n      dup1\n      0x7cc3ae8c\n      gt\n      tag_17\n      jumpi\n      dup1\n      0x7cc3ae8c\n      eq\n      tag_12\n      jumpi\n      dup1\n      0xa8311aa8\n      eq\n      tag_13\n      jumpi\n      dup1\n      0xcf09e0d0\n      eq\n      tag_14\n      jumpi\n      dup1\n      0xf21f537d\n      eq\n      tag_15\n      jumpi\n      jump(tag_2)\n    tag_17:\n      dup1\n      0x481c6a75\n      eq\n      tag_9\n      jumpi\n      dup1\n      0x56a34768\n      eq\n      tag_10\n      jumpi\n      dup1\n      0x59f78468\n      eq\n      tag_11\n      jumpi\n      jump(tag_2)\n    tag_16:\n      dup1\n      0x024789a9\n      eq\n      tag_3\n      jumpi\n      dup1\n      0x06fdde03\n      eq\n      tag_4\n      jumpi\n      dup1\n      0x0c54b463\n      eq\n      tag_5\n      jumpi\n      dup1\n      0x0d15fd77\n      eq\n      tag_6\n      jumpi\n      dup1\n      0x2c0a3f89\n      eq\n      tag_7\n      jumpi\n      dup1\n      0x4717f97c\n      eq\n      tag_8\n      jumpi\n    tag_2:\n      0x00\n      dup1\n      revert\n        /* \"Election.sol\":2432:2590  function getPartyDetails(uint partyIndex) public view returns(Party memory){... */\n    tag_3:\n      tag_18\n      0x04\n      dup1\n      calldatasize\n      sub\n      dup2\n      add\n      swap1\n      tag_19\n      swap2\n      swap1\n      tag_20\n      jump\t// in\n    tag_19:\n      tag_21\n      jump\t// in\n    tag_18:\n      mload(0x40)\n      tag_22\n      swap2\n      swap1\n      tag_23\n      jump\t// in\n    tag_22:\n      mload(0x40)\n      dup1\n      swap2\n      sub\n      swap1\n      return\n        /* \"Election.sol\":757:775  string public name */\n    tag_4:\n      tag_24\n      tag_25\n      jump\t// in\n    tag_24:\n      mload(0x40)\n      tag_26\n      swap2\n      swap1\n      tag_27\n      jump\t// in\n    tag_26:\n      mload(0x40)\n      dup1\n      swap2\n      sub\n      swap1\n      return\n        /* \"Election.sol\":2867:3099  function startElection(uint time, uint willEndAt) public restricted {... */\n    tag_5:\n      tag_28\n      0x04\n      dup1\n      calldatasize\n      sub\n      dup2\n      add\n      swap1\n      tag_29\n      swap2\n      swap1\n      tag_30\n      jump\t// in\n    tag_29:\n      tag_31\n      jump\t// in\n    tag_28:\n      stop\n        /* \"Election.sol\":728:750  uint public totalVotes */\n    tag_6:\n      tag_32\n      tag_33\n      jump\t// in\n    tag_32:\n      mload(0x40)\n      tag_34\n      swap2\n      swap1\n      tag_35\n      jump\t// in\n    tag_34:\n      mload(0x40)\n      dup1\n      swap2\n      sub\n      swap1\n      return\n        /* \"Election.sol\":2145:2420  function castVote(uint aadhaar, uint partyIndex) public {... */\n    tag_7:\n      tag_36\n      0x04\n      dup1\n      calldatasize\n      sub\n      dup2\n      add\n      swap1\n      tag_37\n      swap2\n      swap1\n      tag_30\n      jump\t// in\n    tag_37:\n      tag_38\n      jump\t// in\n    tag_36:\n      stop\n        /* \"Election.sol\":2602:2730  function getResults() public view returns(uint[] memory){... */\n    tag_8:\n      tag_39\n      tag_40\n      jump\t// in\n    tag_39:\n      mload(0x40)\n      tag_41\n      swap2\n      swap1\n      tag_42\n      jump\t// in\n    tag_41:\n      mload(0x40)\n      dup1\n      swap2\n      sub\n      swap1\n      return\n        /* \"Election.sol\":788:810  address public manager */\n    tag_9:\n      tag_43\n      tag_44\n      jump\t// in\n    tag_43:\n      mload(0x40)\n      tag_45\n      swap2\n      swap1\n      tag_46\n      jump\t// in\n    tag_45:\n      mload(0x40)\n      dup1\n      swap2\n      sub\n      swap1\n      return\n        /* \"Election.sol\":1563:2031  function addParty(string memory partyName, string memory leaderName, uint membersCount, string memory region, string memory image) public restricted{... */\n    tag_10:\n      tag_47\n      0x04\n      dup1\n      calldatasize\n      sub\n      dup2\n      add\n      swap1\n      tag_48\n      swap2\n      swap1\n      tag_49\n      jump\t// in\n    tag_48:\n      tag_50\n      jump\t// in\n    tag_47:\n      stop\n        /* \"Election.sol\":2742:2855  function endElection() public restricted {... */\n    tag_11:\n      tag_51\n      tag_52\n      jump\t// in\n    tag_51:\n      stop\n        /* \"Election.sol\":959:976  uint public endAt */\n    tag_12:\n      tag_53\n      tag_54\n      jump\t// in\n    tag_53:\n      mload(0x40)\n      tag_55\n      swap2\n      swap1\n      tag_35\n      jump\t// in\n    tag_55:\n      mload(0x40)\n      dup1\n      swap2\n      sub\n      swap1\n      return\n        /* \"Election.sol\":2043:2133  function getParties() public view returns(Party[] memory){... */\n    tag_13:\n      tag_56\n      tag_57\n      jump\t// in\n    tag_56:\n      mload(0x40)\n      tag_58\n      swap2\n      swap1\n      tag_59\n      jump\t// in\n    tag_58:\n      mload(0x40)\n      dup1\n      swap2\n      sub\n      swap1\n      return\n        /* \"Election.sol\":903:924  uint public createdAt */\n    tag_14:\n      tag_60\n      tag_61\n      jump\t// in\n    tag_60:\n      mload(0x40)\n      tag_62\n      swap2\n      swap1\n      tag_35\n      jump\t// in\n    tag_62:\n      mload(0x40)\n      dup1\n      swap2\n      sub\n      swap1\n      return\n        /* \"Election.sol\":931:952  uint public startedAt */\n    tag_15:\n      tag_63\n      tag_64\n      jump\t// in\n    tag_63:\n      mload(0x40)\n      tag_65\n      swap2\n      swap1\n      tag_35\n      jump\t// in\n    tag_65:\n      mload(0x40)\n      dup1\n      swap2\n      sub\n      swap1\n      return\n        /* \"Election.sol\":2432:2590  function getPartyDetails(uint partyIndex) public view returns(Party memory){... */\n    tag_21:\n        /* \"Election.sol\":2494:2506  Party memory */\n      tag_66\n      tag_67\n      jump\t// in\n    tag_66:\n        /* \"Election.sol\":2518:2537  Party storage party */\n      0x00\n        /* \"Election.sol\":2540:2547  parties */\n      0x08\n        /* \"Election.sol\":2548:2558  partyIndex */\n      dup4\n        /* \"Election.sol\":2540:2559  parties[partyIndex] */\n      dup2\n      sload\n      dup2\n      lt\n      tag_69\n      jumpi\n      tag_70\n      tag_71\n      jump\t// in\n    tag_70:\n    tag_69:\n      swap1\n      0x00\n      mstore\n      keccak256(0x00, 0x20)\n      swap1\n      0x05\n      mul\n      add\n        /* \"Election.sol\":2518:2559  Party storage party = parties[partyIndex] */\n      swap1\n      pop\n        /* \"Election.sol\":2577:2582  party */\n      dup1\n        /* \"Election.sol\":2570:2582  return party */\n      mload(0x40)\n      dup1\n      0xa0\n      add\n      0x40\n      mstore\n      swap1\n      dup2\n      0x00\n      dup3\n      add\n      dup1\n      sload\n      tag_73\n      swap1\n      tag_74\n      jump\t// in\n    tag_73:\n      dup1\n      0x1f\n      add\n      0x20\n      dup1\n      swap2\n      div\n      mul\n      0x20\n      add\n      mload(0x40)\n      swap1\n      dup2\n      add\n      0x40\n      mstore\n      dup1\n      swap3\n      swap2\n      swap1\n      dup2\n      dup2\n      mstore\n      0x20\n      add\n      dup3\n      dup1\n      sload\n      tag_75\n      swap1\n      tag_74\n      jump\t// in\n    tag_75:\n      dup1\n      iszero\n      tag_76\n      jumpi\n      dup1\n      0x1f\n      lt\n      tag_77\n      jumpi\n      0x0100\n      dup1\n      dup4\n      sload\n      div\n      mul\n      dup4\n      mstore\n      swap2\n      0x20\n      add\n      swap2\n      jump(tag_76)\n    tag_77:\n      dup3\n      add\n      swap2\n      swap1\n      0x00\n      mstore\n      keccak256(0x00, 0x20)\n      swap1\n    tag_78:\n      dup2\n      sload\n      dup2\n      mstore\n      swap1\n      0x01\n      add\n      swap1\n      0x20\n      add\n      dup1\n      dup4\n      gt\n      tag_78\n      jumpi\n      dup3\n      swap1\n      sub\n      0x1f\n      and\n      dup3\n      add\n      swap2\n    tag_76:\n      pop\n      pop\n      pop\n      pop\n      pop\n      dup2\n      mstore\n      0x20\n      add\n      0x01\n      dup3\n      add\n      dup1\n      sload\n      tag_79\n      swap1\n      tag_74\n      jump\t// in\n    tag_79:\n      dup1\n      0x1f\n      add\n      0x20\n      dup1\n      swap2\n      div\n      mul\n      0x20\n      add\n      mload(0x40)\n      swap1\n      dup2\n      add\n      0x40\n      mstore\n      dup1\n      swap3\n      swap2\n      swap1\n      dup2\n      dup2\n      mstore\n      0x20\n      add\n      dup3\n      dup1\n      sload\n      tag_80\n      swap1\n      tag_74\n      jump\t// in\n    tag_80:\n      dup1\n      iszero\n      tag_81\n      jumpi\n      dup1\n      0x1f\n      lt\n      tag_82\n      jumpi\n      0x0100\n      dup1\n      dup4\n      sload\n      div\n      mul\n      dup4\n      mstore\n      swap2\n      0x20\n      add\n      swap2\n      jump(tag_81)\n    tag_82:\n      dup3\n      add\n      swap2\n      swap1\n      0x00\n      mstore\n      keccak256(0x00, 0x20)\n      swap1\n    tag_83:\n      dup2\n      sload\n      dup2\n      mstore\n      swap1\n      0x01\n      add\n      swap1\n      0x20\n      add\n      dup1\n      dup4\n      gt\n      tag_83\n      jumpi\n      dup3\n      swap1\n      sub\n      0x1f\n      and\n      dup3\n      add\n      swap2\n    tag_81:\n      pop\n      pop\n      pop\n      pop\n      pop\n      dup2\n      mstore\n      0x20\n      add\n      0x02\n      dup3\n      add\n      sload\n      dup2\n      mstore\n      0x20\n      add\n      0x03\n      dup3\n      add\n      dup1\n      sload\n      tag_84\n      swap1\n      tag_74\n      jump\t// in\n    tag_84:\n      dup1\n      0x1f\n      add\n      0x20\n      dup1\n      swap2\n      div\n      mul\n      0x20\n      add\n      mload(0x40)\n      swap1\n      dup2\n      add\n      0x40\n      mstore\n      dup1\n      swap3\n      swap2\n      swap1\n      dup2\n      dup2\n      mstore\n      0x20\n      add\n      dup3\n      dup1\n      sload\n      tag_85\n      swap1\n      tag_74\n      jump\t// in\n    tag_85:\n      dup1\n      iszero\n      tag_86\n      jumpi\n      dup1\n      0x1f\n      lt\n      tag_87\n      jumpi\n      0x0100\n      dup1\n      dup4\n      sload\n      div\n      mul\n      dup4\n      mstore\n      swap2\n      0x20\n      add\n      swap2\n      jump(tag_86)\n    tag_87:\n      dup3\n      add\n      swap2\n      swap1\n      0x00\n      mstore\n      keccak256(0x00, 0x20)\n      swap1\n    tag_88:\n      dup2\n      sload\n      dup2\n      mstore\n      swap1\n      0x01\n      add\n      swap1\n      0x20\n      add\n      dup1\n      dup4\n      gt\n      tag_88\n      jumpi\n      dup3\n      swap1\n      sub\n      0x1f\n      and\n      dup3\n      add\n      swap2\n    tag_86:\n      pop\n      pop\n      pop\n      pop\n      pop\n      dup2\n      mstore\n      0x20\n      add\n      0x04\n      dup3\n      add\n      dup1\n      sload\n      tag_89\n      swap1\n      tag_74\n      jump\t// in\n    tag_89:\n      dup1\n      0x1f\n      add\n      0x20\n      dup1\n      swap2\n      div\n      mul\n      0x20\n      add\n      mload(0x40)\n      swap1\n      dup2\n      add\n      0x40\n      mstore\n      dup1\n      swap3\n      swap2\n      swap1\n      dup2\n      dup2\n      mstore\n      0x20\n      add\n      dup3\n      dup1\n      sload\n      tag_90\n      swap1\n      tag_74\n      jump\t// in\n    tag_90:\n      dup1\n      iszero\n      tag_91\n      jumpi\n      dup1\n      0x1f\n      lt\n      tag_92\n      jumpi\n      0x0100\n      dup1\n      dup4\n      sload\n      div\n      mul\n      dup4\n      mstore\n      swap2\n      0x20\n      add\n      swap2\n      jump(tag_91)\n    tag_92:\n      dup3\n      add\n      swap2\n      swap1\n      0x00\n      mstore\n      keccak256(0x00, 0x20)\n      swap1\n    tag_93:\n      dup2\n      sload\n      dup2\n      mstore\n      swap1\n      0x01\n      add\n      swap1\n      0x20\n      add\n      dup1\n      dup4\n      gt\n      tag_93\n      jumpi\n      dup3\n      swap1\n      sub\n      0x1f\n      and\n      dup3\n      add\n      swap2\n    tag_91:\n      pop\n      pop\n      pop\n      pop\n      pop\n      dup2\n      mstore\n      pop\n      pop\n      swap2\n      pop\n      pop\n        /* \"Election.sol\":2432:2590  function getPartyDetails(uint partyIndex) public view returns(Party memory){... */\n      swap2\n      swap1\n      pop\n      jump\t// out\n        /* \"Election.sol\":757:775  string public name */\n    tag_25:\n      0x01\n      dup1\n      sload\n      tag_94\n      swap1\n      tag_74\n      jump\t// in\n    tag_94:\n      dup1\n      0x1f\n      add\n      0x20\n      dup1\n      swap2\n      div\n      mul\n      0x20\n      add\n      mload(0x40)\n      swap1\n      dup2\n      add\n      0x40\n      mstore\n      dup1\n      swap3\n      swap2\n      swap1\n      dup2\n      dup2\n      mstore\n      0x20\n      add\n      dup3\n      dup1\n      sload\n      tag_95\n      swap1\n      tag_74\n      jump\t// in\n    tag_95:\n      dup1\n      iszero\n      tag_96\n      jumpi\n      dup1\n      0x1f\n      lt\n      tag_97\n      jumpi\n      0x0100\n      dup1\n      dup4\n      sload\n      div\n      mul\n      dup4\n      mstore\n      swap2\n      0x20\n      add\n      swap2\n      jump(tag_96)\n    tag_97:\n      dup3\n      add\n      swap2\n      swap1\n      0x00\n      mstore\n      keccak256(0x00, 0x20)\n      swap1\n    tag_98:\n      dup2\n      sload\n      dup2\n      mstore\n      swap1\n      0x01\n      add\n      swap1\n      0x20\n      add\n      dup1\n      dup4\n      gt\n      tag_98\n      jumpi\n      dup3\n      swap1\n      sub\n      0x1f\n      and\n      dup3\n      add\n      swap2\n    tag_96:\n      pop\n      pop\n      pop\n      pop\n      pop\n      dup2\n      jump\t// out\n        /* \"Election.sol\":2867:3099  function startElection(uint time, uint willEndAt) public restricted {... */\n    tag_31:\n        /* \"Election.sol\":1044:1051  manager */\n      0x02\n      0x00\n      swap1\n      sload\n      swap1\n      0x0100\n      exp\n      swap1\n      div\n      0xffffffffffffffffffffffffffffffffffffffff\n      and\n        /* \"Election.sol\":1030:1051  msg.sender == manager */\n      0xffffffffffffffffffffffffffffffffffffffff\n      and\n        /* \"Election.sol\":1030:1040  msg.sender */\n      caller\n        /* \"Election.sol\":1030:1051  msg.sender == manager */\n      0xffffffffffffffffffffffffffffffffffffffff\n      and\n      eq\n        /* \"Election.sol\":1022:1052  require(msg.sender == manager) */\n      tag_100\n      jumpi\n      0x00\n      dup1\n      revert\n    tag_100:\n        /* \"Election.sol\":2967:2972  false */\n      0x00\n        /* \"Election.sol\":2954:2972  isCompleted==false */\n      iszero\n      iszero\n        /* \"Election.sol\":2954:2965  isCompleted */\n      0x04\n      0x00\n      swap1\n      sload\n      swap1\n      0x0100\n      exp\n      swap1\n      div\n      0xff\n      and\n        /* \"Election.sol\":2954:2972  isCompleted==false */\n      iszero\n      iszero\n      eq\n        /* \"Election.sol\":2946:2973  require(isCompleted==false) */\n      tag_102\n      jumpi\n      0x00\n      dup1\n      revert\n    tag_102:\n        /* \"Election.sol\":3003:3008  false */\n      0x00\n        /* \"Election.sol\":2992:3008  isStarted==false */\n      iszero\n      iszero\n        /* \"Election.sol\":2992:3001  isStarted */\n      0x04\n      0x01\n      swap1\n      sload\n      swap1\n      0x0100\n      exp\n      swap1\n      div\n      0xff\n      and\n        /* \"Election.sol\":2992:3008  isStarted==false */\n      iszero\n      iszero\n      eq\n        /* \"Election.sol\":2984:3009  require(isStarted==false) */\n      tag_103\n      jumpi\n      0x00\n      dup1\n      revert\n    tag_103:\n        /* \"Election.sol\":3032:3036  true */\n      0x01\n        /* \"Election.sol\":3020:3029  isStarted */\n      0x04\n      0x01\n        /* \"Election.sol\":3020:3036  isStarted = true */\n      0x0100\n      exp\n      dup2\n      sload\n      dup2\n      0xff\n      mul\n      not\n      and\n      swap1\n      dup4\n      iszero\n      iszero\n      mul\n      or\n      swap1\n      sstore\n      pop\n        /* \"Election.sol\":3059:3063  time */\n      dup2\n        /* \"Election.sol\":3047:3056  startedAt */\n      0x06\n        /* \"Election.sol\":3047:3063  startedAt = time */\n      dup2\n      swap1\n      sstore\n      pop\n        /* \"Election.sol\":3082:3091  willEndAt */\n      dup1\n        /* \"Election.sol\":3074:3079  endAt */\n      0x07\n        /* \"Election.sol\":3074:3091  endAt = willEndAt */\n      dup2\n      swap1\n      sstore\n      pop\n        /* \"Election.sol\":2867:3099  function startElection(uint time, uint willEndAt) public restricted {... */\n      pop\n      pop\n      jump\t// out\n        /* \"Election.sol\":728:750  uint public totalVotes */\n    tag_33:\n      sload(0x00)\n      dup2\n      jump\t// out\n        /* \"Election.sol\":2145:2420  function castVote(uint aadhaar, uint partyIndex) public {... */\n    tag_38:\n        /* \"Election.sol\":2231:2235  true */\n      0x01\n        /* \"Election.sol\":2220:2235  isStarted==true */\n      iszero\n      iszero\n        /* \"Election.sol\":2220:2229  isStarted */\n      0x04\n      0x01\n      swap1\n      sload\n      swap1\n      0x0100\n      exp\n      swap1\n      div\n      0xff\n      and\n        /* \"Election.sol\":2220:2235  isStarted==true */\n      iszero\n      iszero\n      eq\n        /* \"Election.sol\":2212:2236  require(isStarted==true) */\n      tag_105\n      jumpi\n      0x00\n      dup1\n      revert\n    tag_105:\n        /* \"Election.sol\":2271:2276  false */\n      0x00\n        /* \"Election.sol\":2255:2276  voted[aadhaar]==false */\n      iszero\n      iszero\n        /* \"Election.sol\":2255:2260  voted */\n      0x03\n        /* \"Election.sol\":2255:2269  voted[aadhaar] */\n      0x00\n        /* \"Election.sol\":2261:2268  aadhaar */\n      dup5\n        /* \"Election.sol\":2255:2269  voted[aadhaar] */\n      dup2\n      mstore\n      0x20\n      add\n      swap1\n      dup2\n      mstore\n      0x20\n      add\n      0x00\n      keccak256\n      0x00\n      swap1\n      sload\n      swap1\n      0x0100\n      exp\n      swap1\n      div\n      0xff\n      and\n        /* \"Election.sol\":2255:2276  voted[aadhaar]==false */\n      iszero\n      iszero\n      eq\n        /* \"Election.sol\":2247:2277  require(voted[aadhaar]==false) */\n      tag_106\n      jumpi\n      0x00\n      dup1\n      revert\n    tag_106:\n        /* \"Election.sol\":2309:2314  false */\n      0x00\n        /* \"Election.sol\":2296:2314  isCompleted==false */\n      iszero\n      iszero\n        /* \"Election.sol\":2296:2307  isCompleted */\n      0x04\n      0x00\n      swap1\n      sload\n      swap1\n      0x0100\n      exp\n      swap1\n      div\n      0xff\n      and\n        /* \"Election.sol\":2296:2314  isCompleted==false */\n      iszero\n      iszero\n      eq\n        /* \"Election.sol\":2288:2315  require(isCompleted==false) */\n      tag_107\n      jumpi\n      0x00\n      dup1\n      revert\n    tag_107:\n        /* \"Election.sol\":2351:2355  true */\n      0x01\n        /* \"Election.sol\":2336:2341  voted */\n      0x03\n        /* \"Election.sol\":2336:2350  voted[aadhaar] */\n      0x00\n        /* \"Election.sol\":2342:2349  aadhaar */\n      dup5\n        /* \"Election.sol\":2336:2350  voted[aadhaar] */\n      dup2\n      mstore\n      0x20\n      add\n      swap1\n      dup2\n      mstore\n      0x20\n      add\n      0x00\n      keccak256\n      0x00\n        /* \"Election.sol\":2336:2355  voted[aadhaar]=true */\n      0x0100\n      exp\n      dup2\n      sload\n      dup2\n      0xff\n      mul\n      not\n      and\n      swap1\n      dup4\n      iszero\n      iszero\n      mul\n      or\n      swap1\n      sstore\n      pop\n        /* \"Election.sol\":2366:2375  voteCount */\n      0x09\n        /* \"Election.sol\":2376:2386  partyIndex */\n      dup2\n        /* \"Election.sol\":2366:2387  voteCount[partyIndex] */\n      dup2\n      sload\n      dup2\n      lt\n      tag_108\n      jumpi\n      tag_109\n      tag_71\n      jump\t// in\n    tag_109:\n    tag_108:\n      swap1\n      0x00\n      mstore\n      keccak256(0x00, 0x20)\n      add\n      0x00\n        /* \"Election.sol\":2366:2389  voteCount[partyIndex]++ */\n      dup2\n      sload\n      dup1\n      swap3\n      swap2\n      swap1\n      tag_111\n      swap1\n      tag_112\n      jump\t// in\n    tag_111:\n      swap2\n      swap1\n      pop\n      sstore\n      pop\n        /* \"Election.sol\":2400:2410  totalVotes */\n      0x00\n      dup1\n        /* \"Election.sol\":2400:2412  totalVotes++ */\n      dup2\n      sload\n      dup1\n      swap3\n      swap2\n      swap1\n      tag_113\n      swap1\n      tag_112\n      jump\t// in\n    tag_113:\n      swap2\n      swap1\n      pop\n      sstore\n      pop\n        /* \"Election.sol\":2145:2420  function castVote(uint aadhaar, uint partyIndex) public {... */\n      pop\n      pop\n      jump\t// out\n        /* \"Election.sol\":2602:2730  function getResults() public view returns(uint[] memory){... */\n    tag_40:\n        /* \"Election.sol\":2644:2657  uint[] memory */\n      0x60\n        /* \"Election.sol\":2690:2694  true */\n      0x01\n        /* \"Election.sol\":2677:2694  isCompleted==true */\n      iszero\n      iszero\n        /* \"Election.sol\":2677:2688  isCompleted */\n      0x04\n      0x00\n      swap1\n      sload\n      swap1\n      0x0100\n      exp\n      swap1\n      div\n      0xff\n      and\n        /* \"Election.sol\":2677:2694  isCompleted==true */\n      iszero\n      iszero\n      eq\n        /* \"Election.sol\":2669:2695  require(isCompleted==true) */\n      tag_115\n      jumpi\n      0x00\n      dup1\n      revert\n    tag_115:\n        /* \"Election.sol\":2713:2722  voteCount */\n      0x09\n        /* \"Election.sol\":2706:2722  return voteCount */\n      dup1\n      sload\n      dup1\n      0x20\n      mul\n      0x20\n      add\n      mload(0x40)\n      swap1\n      dup2\n      add\n      0x40\n      mstore\n      dup1\n      swap3\n      swap2\n      swap1\n      dup2\n      dup2\n      mstore\n      0x20\n      add\n      dup3\n      dup1\n      sload\n      dup1\n      iszero\n      tag_116\n      jumpi\n      0x20\n      mul\n      dup3\n      add\n      swap2\n      swap1\n      0x00\n      mstore\n      keccak256(0x00, 0x20)\n      swap1\n    tag_117:\n      dup2\n      sload\n      dup2\n      mstore\n      0x20\n      add\n      swap1\n      0x01\n      add\n      swap1\n      dup1\n      dup4\n      gt\n      tag_117\n      jumpi\n    tag_116:\n      pop\n      pop\n      pop\n      pop\n      pop\n      swap1\n      pop\n        /* \"Election.sol\":2602:2730  function getResults() public view returns(uint[] memory){... */\n      swap1\n      jump\t// out\n        /* \"Election.sol\":788:810  address public manager */\n    tag_44:\n      0x02\n      0x00\n      swap1\n      sload\n      swap1\n      0x0100\n      exp\n      swap1\n      div\n      0xffffffffffffffffffffffffffffffffffffffff\n      and\n      dup2\n      jump\t// out\n        /* \"Election.sol\":1563:2031  function addParty(string memory partyName, string memory leaderName, uint membersCount, string memory region, string memory image) public restricted{... */\n    tag_50:\n        /* \"Election.sol\":1044:1051  manager */\n      0x02\n      0x00\n      swap1\n      sload\n      swap1\n      0x0100\n      exp\n      swap1\n      div\n      0xffffffffffffffffffffffffffffffffffffffff\n      and\n        /* \"Election.sol\":1030:1051  msg.sender == manager */\n      0xffffffffffffffffffffffffffffffffffffffff\n      and\n        /* \"Election.sol\":1030:1040  msg.sender */\n      caller\n        /* \"Election.sol\":1030:1051  msg.sender == manager */\n      0xffffffffffffffffffffffffffffffffffffffff\n      and\n      eq\n        /* \"Election.sol\":1022:1052  require(msg.sender == manager) */\n      tag_119\n      jumpi\n      0x00\n      dup1\n      revert\n    tag_119:\n        /* \"Election.sol\":1731:1740  isStarted */\n      0x04\n      0x01\n      swap1\n      sload\n      swap1\n      0x0100\n      exp\n      swap1\n      div\n      0xff\n      and\n        /* \"Election.sol\":1730:1740  !isStarted */\n      iszero\n        /* \"Election.sol\":1722:1741  require(!isStarted) */\n      tag_121\n      jumpi\n      0x00\n      dup1\n      revert\n    tag_121:\n        /* \"Election.sol\":1752:1770  Party memory party */\n      0x00\n        /* \"Election.sol\":1773:1955  Party({... */\n      mload(0x40)\n      dup1\n      0xa0\n      add\n      0x40\n      mstore\n      dup1\n        /* \"Election.sol\":1800:1809  partyName */\n      dup8\n        /* \"Election.sol\":1773:1955  Party({... */\n      dup2\n      mstore\n      0x20\n      add\n        /* \"Election.sol\":1836:1846  leaderName */\n      dup7\n        /* \"Election.sol\":1773:1955  Party({... */\n      dup2\n      mstore\n      0x20\n      add\n        /* \"Election.sol\":1875:1887  membersCount */\n      dup6\n        /* \"Election.sol\":1773:1955  Party({... */\n      dup2\n      mstore\n      0x20\n      add\n        /* \"Election.sol\":1910:1916  region */\n      dup5\n        /* \"Election.sol\":1773:1955  Party({... */\n      dup2\n      mstore\n      0x20\n      add\n        /* \"Election.sol\":1938:1943  image */\n      dup4\n        /* \"Election.sol\":1773:1955  Party({... */\n      dup2\n      mstore\n      pop\n        /* \"Election.sol\":1752:1955  Party memory party = Party({... */\n      swap1\n      pop\n        /* \"Election.sol\":1976:1983  parties */\n      0x08\n        /* \"Election.sol\":1989:1994  party */\n      dup2\n        /* \"Election.sol\":1976:1995  parties.push(party) */\n      swap1\n      dup1\n      0x01\n      dup2\n      sload\n      add\n      dup1\n      dup3\n      sstore\n      dup1\n      swap2\n      pop\n      pop\n      0x01\n      swap1\n      sub\n      swap1\n      0x00\n      mstore\n      keccak256(0x00, 0x20)\n      swap1\n      0x05\n      mul\n      add\n      0x00\n      swap1\n      swap2\n      swap1\n      swap2\n      swap1\n      swap2\n      pop\n      0x00\n      dup3\n      add\n      mload\n      dup2\n      0x00\n      add\n      swap1\n      dup1\n      mload\n      swap1\n      0x20\n      add\n      swap1\n      tag_123\n      swap3\n      swap2\n      swap1\n      tag_124\n      jump\t// in\n    tag_123:\n      pop\n      0x20\n      dup3\n      add\n      mload\n      dup2\n      0x01\n      add\n      swap1\n      dup1\n      mload\n      swap1\n      0x20\n      add\n      swap1\n      tag_125\n      swap3\n      swap2\n      swap1\n      tag_124\n      jump\t// in\n    tag_125:\n      pop\n      0x40\n      dup3\n      add\n      mload\n      dup2\n      0x02\n      add\n      sstore\n      0x60\n      dup3\n      add\n      mload\n      dup2\n      0x03\n      add\n      swap1\n      dup1\n      mload\n      swap1\n      0x20\n      add\n      swap1\n      tag_126\n      swap3\n      swap2\n      swap1\n      tag_124\n      jump\t// in\n    tag_126:\n      pop\n      0x80\n      dup3\n      add\n      mload\n      dup2\n      0x04\n      add\n      swap1\n      dup1\n      mload\n      swap1\n      0x20\n      add\n      swap1\n      tag_127\n      swap3\n      swap2\n      swap1\n      tag_124\n      jump\t// in\n    tag_127:\n      pop\n      pop\n      pop\n        /* \"Election.sol\":2006:2015  voteCount */\n      0x09\n        /* \"Election.sol\":2021:2022  0 */\n      0x00\n        /* \"Election.sol\":2006:2023  voteCount.push(0) */\n      swap1\n      dup1\n      0x01\n      dup2\n      sload\n      add\n      dup1\n      dup3\n      sstore\n      dup1\n      swap2\n      pop\n      pop\n      0x01\n      swap1\n      sub\n      swap1\n      0x00\n      mstore\n      keccak256(0x00, 0x20)\n      add\n      0x00\n      swap1\n      swap2\n      swap1\n      swap2\n      swap1\n      swap2\n      pop\n      sstore\n        /* \"Election.sol\":1711:2031  {... */\n      pop\n        /* \"Election.sol\":1563:2031  function addParty(string memory partyName, string memory leaderName, uint membersCount, string memory region, string memory image) public restricted{... */\n      pop\n      pop\n      pop\n      pop\n      pop\n      jump\t// out\n        /* \"Election.sol\":2742:2855  function endElection() public restricted {... */\n    tag_52:\n        /* \"Election.sol\":1044:1051  manager */\n      0x02\n      0x00\n      swap1\n      sload\n      swap1\n      0x0100\n      exp\n      swap1\n      div\n      0xffffffffffffffffffffffffffffffffffffffff\n      and\n        /* \"Election.sol\":1030:1051  msg.sender == manager */\n      0xffffffffffffffffffffffffffffffffffffffff\n      and\n        /* \"Election.sol\":1030:1040  msg.sender */\n      caller\n        /* \"Election.sol\":1030:1051  msg.sender == manager */\n      0xffffffffffffffffffffffffffffffffffffffff\n      and\n      eq\n        /* \"Election.sol\":1022:1052  require(msg.sender == manager) */\n      tag_130\n      jumpi\n      0x00\n      dup1\n      revert\n    tag_130:\n        /* \"Election.sol\":2813:2817  true */\n      0x01\n        /* \"Election.sol\":2802:2817  isStarted==true */\n      iszero\n      iszero\n        /* \"Election.sol\":2802:2811  isStarted */\n      0x04\n      0x01\n      swap1\n      sload\n      swap1\n      0x0100\n      exp\n      swap1\n      div\n      0xff\n      and\n        /* \"Election.sol\":2802:2817  isStarted==true */\n      iszero\n      iszero\n      eq\n        /* \"Election.sol\":2794:2818  require(isStarted==true) */\n      tag_132\n      jumpi\n      0x00\n      dup1\n      revert\n    tag_132:\n        /* \"Election.sol\":2843:2847  true */\n      0x01\n        /* \"Election.sol\":2829:2840  isCompleted */\n      0x04\n      0x00\n        /* \"Election.sol\":2829:2847  isCompleted = true */\n      0x0100\n      exp\n      dup2\n      sload\n      dup2\n      0xff\n      mul\n      not\n      and\n      swap1\n      dup4\n      iszero\n      iszero\n      mul\n      or\n      swap1\n      sstore\n      pop\n        /* \"Election.sol\":2742:2855  function endElection() public restricted {... */\n      jump\t// out\n        /* \"Election.sol\":959:976  uint public endAt */\n    tag_54:\n      sload(0x07)\n      dup2\n      jump\t// out\n        /* \"Election.sol\":2043:2133  function getParties() public view returns(Party[] memory){... */\n    tag_57:\n        /* \"Election.sol\":2085:2099  Party[] memory */\n      0x60\n        /* \"Election.sol\":2118:2125  parties */\n      0x08\n        /* \"Election.sol\":2111:2125  return parties */\n      dup1\n      sload\n      dup1\n      0x20\n      mul\n      0x20\n      add\n      mload(0x40)\n      swap1\n      dup2\n      add\n      0x40\n      mstore\n      dup1\n      swap3\n      swap2\n      swap1\n      dup2\n      dup2\n      mstore\n      0x20\n      add\n      0x00\n      swap1\n    tag_134:\n      dup3\n      dup3\n      lt\n      iszero\n      tag_135\n      jumpi\n      dup4\n      dup3\n      swap1\n      0x00\n      mstore\n      keccak256(0x00, 0x20)\n      swap1\n      0x05\n      mul\n      add\n      mload(0x40)\n      dup1\n      0xa0\n      add\n      0x40\n      mstore\n      swap1\n      dup2\n      0x00\n      dup3\n      add\n      dup1\n      sload\n      tag_137\n      swap1\n      tag_74\n      jump\t// in\n    tag_137:\n      dup1\n      0x1f\n      add\n      0x20\n      dup1\n      swap2\n      div\n      mul\n      0x20\n      add\n      mload(0x40)\n      swap1\n      dup2\n      add\n      0x40\n      mstore\n      dup1\n      swap3\n      swap2\n      swap1\n      dup2\n      dup2\n      mstore\n      0x20\n      add\n      dup3\n      dup1\n      sload\n      tag_138\n      swap1\n      tag_74\n      jump\t// in\n    tag_138:\n      dup1\n      iszero\n      tag_139\n      jumpi\n      dup1\n      0x1f\n      lt\n      tag_140\n      jumpi\n      0x0100\n      dup1\n      dup4\n      sload\n      div\n      mul\n      dup4\n      mstore\n      swap2\n      0x20\n      add\n      swap2\n      jump(tag_139)\n    tag_140:\n      dup3\n      add\n      swap2\n      swap1\n      0x00\n      mstore\n      keccak256(0x00, 0x20)\n      swap1\n    tag_141:\n      dup2\n      sload\n      dup2\n      mstore\n      swap1\n      0x01\n      add\n      swap1\n      0x20\n      add\n      dup1\n      dup4\n      gt\n      tag_141\n      jumpi\n      dup3\n      swap1\n      sub\n      0x1f\n      and\n      dup3\n      add\n      swap2\n    tag_139:\n      pop\n      pop\n      pop\n      pop\n      pop\n      dup2\n      mstore\n      0x20\n      add\n      0x01\n      dup3\n      add\n      dup1\n      sload\n      tag_142\n      swap1\n      tag_74\n      jump\t// in\n    tag_142:\n      dup1\n      0x1f\n      add\n      0x20\n      dup1\n      swap2\n      div\n      mul\n      0x20\n      add\n      mload(0x40)\n      swap1\n      dup2\n      add\n      0x40\n      mstore\n      dup1\n      swap3\n      swap2\n      swap1\n      dup2\n      dup2\n      mstore\n      0x20\n      add\n      dup3\n      dup1\n      sload\n      tag_143\n      swap1\n      tag_74\n      jump\t// in\n    tag_143:\n      dup1\n      iszero\n      tag_144\n      jumpi\n      dup1\n      0x1f\n      lt\n      tag_145\n      jumpi\n      0x0100\n      dup1\n      dup4\n      sload\n      div\n      mul\n      dup4\n      mstore\n      swap2\n      0x20\n      add\n      swap2\n      jump(tag_144)\n    tag_145:\n      dup3\n      add\n      swap2\n      swap1\n      0x00\n      mstore\n      keccak256(0x00, 0x20)\n      swap1\n    tag_146:\n      dup2\n      sload\n      dup2\n      mstore\n      swap1\n      0x01\n      add\n      swap1\n      0x20\n      add\n      dup1\n      dup4\n      gt\n      tag_146\n      jumpi\n      dup3\n      swap1\n      sub\n      0x1f\n      and\n      dup3\n      add\n      swap2\n    tag_144:\n      pop\n      pop\n      pop\n      pop\n      pop\n      dup2\n      mstore\n      0x20\n      add\n      0x02\n      dup3\n      add\n      sload\n      dup2\n      mstore\n      0x20\n      add\n      0x03\n      dup3\n      add\n      dup1\n      sload\n      tag_147\n      swap1\n      tag_74\n      jump\t// in\n    tag_147:\n      dup1\n      0x1f\n      add\n      0x20\n      dup1\n      swap2\n      div\n      mul\n      0x20\n      add\n      mload(0x40)\n      swap1\n      dup2\n      add\n      0x40\n      mstore\n      dup1\n      swap3\n      swap2\n      swap1\n      dup2\n      dup2\n      mstore\n      0x20\n      add\n      dup3\n      dup1\n      sload\n      tag_148\n      swap1\n      tag_74\n      jump\t// in\n    tag_148:\n      dup1\n      iszero\n      tag_149\n      jumpi\n      dup1\n      0x1f\n      lt\n      tag_150\n      jumpi\n      0x0100\n      dup1\n      dup4\n      sload\n      div\n      mul\n      dup4\n      mstore\n      swap2\n      0x20\n      add\n      swap2\n      jump(tag_149)\n    tag_150:\n      dup3\n      add\n      swap2\n      swap1\n      0x00\n      mstore\n      keccak256(0x00, 0x20)\n      swap1\n    tag_151:\n      dup2\n      sload\n      dup2\n      mstore\n      swap1\n      0x01\n      add\n      swap1\n      0x20\n      add\n      dup1\n      dup4\n      gt\n      tag_151\n      jumpi\n      dup3\n      swap1\n      sub\n      0x1f\n      and\n      dup3\n      add\n      swap2\n    tag_149:\n      pop\n      pop\n      pop\n      pop\n      pop\n      dup2\n      mstore\n      0x20\n      add\n      0x04\n      dup3\n      add\n      dup1\n      sload\n      tag_152\n      swap1\n      tag_74\n      jump\t// in\n    tag_152:\n      dup1\n      0x1f\n      add\n      0x20\n      dup1\n      swap2\n      div\n      mul\n      0x20\n      add\n      mload(0x40)\n      swap1\n      dup2\n      add\n      0x40\n      mstore\n      dup1\n      swap3\n      swap2\n      swap1\n      dup2\n      dup2\n      mstore\n      0x20\n      add\n      dup3\n      dup1\n      sload\n      tag_153\n      swap1\n      tag_74\n      jump\t// in\n    tag_153:\n      dup1\n      iszero\n      tag_154\n      jumpi\n      dup1\n      0x1f\n      lt\n      tag_155\n      jumpi\n      0x0100\n      dup1\n      dup4\n      sload\n      div\n      mul\n      dup4\n      mstore\n      swap2\n      0x20\n      add\n      swap2\n      jump(tag_154)\n    tag_155:\n      dup3\n      add\n      swap2\n      swap1\n      0x00\n      mstore\n      keccak256(0x00, 0x20)\n      swap1\n    tag_156:\n      dup2\n      sload\n      dup2\n      mstore\n      swap1\n      0x01\n      add\n      swap1\n      0x20\n      add\n      dup1\n      dup4\n      gt\n      tag_156\n      jumpi\n      dup3\n      swap1\n      sub\n      0x1f\n      and\n      dup3\n      add\n      swap2\n    tag_154:\n      pop\n      pop\n      pop\n      pop\n      pop\n      dup2\n      mstore\n      pop\n      pop\n      dup2\n      mstore\n      0x20\n      add\n      swap1\n      0x01\n      add\n      swap1\n      jump(tag_134)\n    tag_135:\n      pop\n      pop\n      pop\n      pop\n      swap1\n      pop\n        /* \"Election.sol\":2043:2133  function getParties() public view returns(Party[] memory){... */\n      swap1\n      jump\t// out\n        /* \"Election.sol\":903:924  uint public createdAt */\n    tag_61:\n      sload(0x05)\n      dup2\n      jump\t// out\n        /* \"Election.sol\":931:952  uint public startedAt */\n    tag_64:\n      sload(0x06)\n      dup2\n      jump\t// out\n    tag_67:\n      mload(0x40)\n      dup1\n      0xa0\n      add\n      0x40\n      mstore\n      dup1\n      0x60\n      dup2\n      mstore\n      0x20\n      add\n      0x60\n      dup2\n      mstore\n      0x20\n      add\n      0x00\n      dup2\n      mstore\n      0x20\n      add\n      0x60\n      dup2\n      mstore\n      0x20\n      add\n      0x60\n      dup2\n      mstore\n      pop\n      swap1\n      jump\t// out\n    tag_124:\n      dup3\n      dup1\n      sload\n      tag_157\n      swap1\n      tag_74\n      jump\t// in\n    tag_157:\n      swap1\n      0x00\n      mstore\n      keccak256(0x00, 0x20)\n      swap1\n      0x1f\n      add\n      0x20\n      swap1\n      div\n      dup2\n      add\n      swap3\n      dup3\n      tag_159\n      jumpi\n      0x00\n      dup6\n      sstore\n      jump(tag_158)\n    tag_159:\n      dup3\n      0x1f\n      lt\n      tag_160\n      jumpi\n      dup1\n      mload\n      not(0xff)\n      and\n      dup4\n      dup1\n      add\n      or\n      dup6\n      sstore\n      jump(tag_158)\n    tag_160:\n      dup3\n      dup1\n      add\n      0x01\n      add\n      dup6\n      sstore\n      dup3\n      iszero\n      tag_158\n      jumpi\n      swap2\n      dup3\n      add\n    tag_161:\n      dup3\n      dup2\n      gt\n      iszero\n      tag_162\n      jumpi\n      dup3\n      mload\n      dup3\n      sstore\n      swap2\n      0x20\n      add\n      swap2\n      swap1\n      0x01\n      add\n      swap1\n      jump(tag_161)\n    tag_162:\n    tag_158:\n      pop\n      swap1\n      pop\n      tag_163\n      swap2\n      swap1\n      tag_164\n      jump\t// in\n    tag_163:\n      pop\n      swap1\n      jump\t// out\n    tag_164:\n    tag_165:\n      dup1\n      dup3\n      gt\n      iszero\n      tag_166\n      jumpi\n      0x00\n      dup2\n      0x00\n      swap1\n      sstore\n      pop\n      0x01\n      add\n      jump(tag_165)\n    tag_166:\n      pop\n      swap1\n      jump\t// out\n        /* \"#utility.yul\":7:82   */\n    tag_167:\n        /* \"#utility.yul\":40:46   */\n      0x00\n        /* \"#utility.yul\":73:75   */\n      0x40\n        /* \"#utility.yul\":67:76   */\n      mload\n        /* \"#utility.yul\":57:76   */\n      swap1\n      pop\n        /* \"#utility.yul\":7:82   */\n      swap1\n      jump\t// out\n        /* \"#utility.yul\":88:205   */\n    tag_168:\n        /* \"#utility.yul\":197:198   */\n      0x00\n        /* \"#utility.yul\":194:195   */\n      dup1\n        /* \"#utility.yul\":187:199   */\n      revert\n        /* \"#utility.yul\":211:328   */\n    tag_169:\n        /* \"#utility.yul\":320:321   */\n      0x00\n        /* \"#utility.yul\":317:318   */\n      dup1\n        /* \"#utility.yul\":310:322   */\n      revert\n        /* \"#utility.yul\":334:411   */\n    tag_170:\n        /* \"#utility.yul\":371:378   */\n      0x00\n        /* \"#utility.yul\":400:405   */\n      dup2\n        /* \"#utility.yul\":389:405   */\n      swap1\n      pop\n        /* \"#utility.yul\":334:411   */\n      swap2\n      swap1\n      pop\n      jump\t// out\n        /* \"#utility.yul\":417:539   */\n    tag_171:\n        /* \"#utility.yul\":490:514   */\n      tag_216\n        /* \"#utility.yul\":508:513   */\n      dup2\n        /* \"#utility.yul\":490:514   */\n      tag_170\n      jump\t// in\n    tag_216:\n        /* \"#utility.yul\":483:488   */\n      dup2\n        /* \"#utility.yul\":480:515   */\n      eq\n        /* \"#utility.yul\":470:533   */\n      tag_217\n      jumpi\n        /* \"#utility.yul\":529:530   */\n      0x00\n        /* \"#utility.yul\":526:527   */\n      dup1\n        /* \"#utility.yul\":519:531   */\n      revert\n        /* \"#utility.yul\":470:533   */\n    tag_217:\n        /* \"#utility.yul\":417:539   */\n      pop\n      jump\t// out\n        /* \"#utility.yul\":545:684   */\n    tag_172:\n        /* \"#utility.yul\":591:596   */\n      0x00\n        /* \"#utility.yul\":629:635   */\n      dup2\n        /* \"#utility.yul\":616:636   */\n      calldataload\n        /* \"#utility.yul\":607:636   */\n      swap1\n      pop\n        /* \"#utility.yul\":645:678   */\n      tag_219\n        /* \"#utility.yul\":672:677   */\n      dup2\n        /* \"#utility.yul\":645:678   */\n      tag_171\n      jump\t// in\n    tag_219:\n        /* \"#utility.yul\":545:684   */\n      swap3\n      swap2\n      pop\n      pop\n      jump\t// out\n        /* \"#utility.yul\":690:1019   */\n    tag_20:\n        /* \"#utility.yul\":749:755   */\n      0x00\n        /* \"#utility.yul\":798:800   */\n      0x20\n        /* \"#utility.yul\":786:795   */\n      dup3\n        /* \"#utility.yul\":777:784   */\n      dup5\n        /* \"#utility.yul\":773:796   */\n      sub\n        /* \"#utility.yul\":769:801   */\n      slt\n        /* \"#utility.yul\":766:885   */\n      iszero\n      tag_221\n      jumpi\n        /* \"#utility.yul\":804:883   */\n      tag_222\n      tag_168\n      jump\t// in\n    tag_222:\n        /* \"#utility.yul\":766:885   */\n    tag_221:\n        /* \"#utility.yul\":924:925   */\n      0x00\n        /* \"#utility.yul\":949:1002   */\n      tag_223\n        /* \"#utility.yul\":994:1001   */\n      dup5\n        /* \"#utility.yul\":985:991   */\n      dup3\n        /* \"#utility.yul\":974:983   */\n      dup6\n        /* \"#utility.yul\":970:992   */\n      add\n        /* \"#utility.yul\":949:1002   */\n      tag_172\n      jump\t// in\n    tag_223:\n        /* \"#utility.yul\":939:1002   */\n      swap2\n      pop\n        /* \"#utility.yul\":895:1012   */\n      pop\n        /* \"#utility.yul\":690:1019   */\n      swap3\n      swap2\n      pop\n      pop\n      jump\t// out\n        /* \"#utility.yul\":1025:1124   */\n    tag_173:\n        /* \"#utility.yul\":1077:1083   */\n      0x00\n        /* \"#utility.yul\":1111:1116   */\n      dup2\n        /* \"#utility.yul\":1105:1117   */\n      mload\n        /* \"#utility.yul\":1095:1117   */\n      swap1\n      pop\n        /* \"#utility.yul\":1025:1124   */\n      swap2\n      swap1\n      pop\n      jump\t// out\n        /* \"#utility.yul\":1130:1289   */\n    tag_174:\n        /* \"#utility.yul\":1204:1215   */\n      0x00\n        /* \"#utility.yul\":1238:1244   */\n      dup3\n        /* \"#utility.yul\":1233:1236   */\n      dup3\n        /* \"#utility.yul\":1226:1245   */\n      mstore\n        /* \"#utility.yul\":1278:1282   */\n      0x20\n        /* \"#utility.yul\":1273:1276   */\n      dup3\n        /* \"#utility.yul\":1269:1283   */\n      add\n        /* \"#utility.yul\":1254:1283   */\n      swap1\n      pop\n        /* \"#utility.yul\":1130:1289   */\n      swap3\n      swap2\n      pop\n      pop\n      jump\t// out\n        /* \"#utility.yul\":1295:1602   */\n    tag_175:\n        /* \"#utility.yul\":1363:1364   */\n      0x00\n        /* \"#utility.yul\":1373:1486   */\n    tag_227:\n        /* \"#utility.yul\":1387:1393   */\n      dup4\n        /* \"#utility.yul\":1384:1385   */\n      dup2\n        /* \"#utility.yul\":1381:1394   */\n      lt\n        /* \"#utility.yul\":1373:1486   */\n      iszero\n      tag_229\n      jumpi\n        /* \"#utility.yul\":1472:1473   */\n      dup1\n        /* \"#utility.yul\":1467:1470   */\n      dup3\n        /* \"#utility.yul\":1463:1474   */\n      add\n        /* \"#utility.yul\":1457:1475   */\n      mload\n        /* \"#utility.yul\":1453:1454   */\n      dup2\n        /* \"#utility.yul\":1448:1451   */\n      dup5\n        /* \"#utility.yul\":1444:1455   */\n      add\n        /* \"#utility.yul\":1437:1476   */\n      mstore\n        /* \"#utility.yul\":1409:1411   */\n      0x20\n        /* \"#utility.yul\":1406:1407   */\n      dup2\n        /* \"#utility.yul\":1402:1412   */\n      add\n        /* \"#utility.yul\":1397:1412   */\n      swap1\n      pop\n        /* \"#utility.yul\":1373:1486   */\n      jump(tag_227)\n    tag_229:\n        /* \"#utility.yul\":1504:1510   */\n      dup4\n        /* \"#utility.yul\":1501:1502   */\n      dup2\n        /* \"#utility.yul\":1498:1511   */\n      gt\n        /* \"#utility.yul\":1495:1596   */\n      iszero\n      tag_230\n      jumpi\n        /* \"#utility.yul\":1584:1585   */\n      0x00\n        /* \"#utility.yul\":1575:1581   */\n      dup5\n        /* \"#utility.yul\":1570:1573   */\n      dup5\n        /* \"#utility.yul\":1566:1582   */\n      add\n        /* \"#utility.yul\":1559:1586   */\n      mstore\n        /* \"#utility.yul\":1495:1596   */\n    tag_230:\n        /* \"#utility.yul\":1344:1602   */\n      pop\n        /* \"#utility.yul\":1295:1602   */\n      pop\n      pop\n      pop\n      jump\t// out\n        /* \"#utility.yul\":1608:1710   */\n    tag_176:\n        /* \"#utility.yul\":1649:1655   */\n      0x00\n        /* \"#utility.yul\":1700:1702   */\n      0x1f\n        /* \"#utility.yul\":1696:1703   */\n      not\n        /* \"#utility.yul\":1691:1693   */\n      0x1f\n        /* \"#utility.yul\":1684:1689   */\n      dup4\n        /* \"#utility.yul\":1680:1694   */\n      add\n        /* \"#utility.yul\":1676:1704   */\n      and\n        /* \"#utility.yul\":1666:1704   */\n      swap1\n      pop\n        /* \"#utility.yul\":1608:1710   */\n      swap2\n      swap1\n      pop\n      jump\t// out\n        /* \"#utility.yul\":1716:2060   */\n    tag_177:\n        /* \"#utility.yul\":1794:1797   */\n      0x00\n        /* \"#utility.yul\":1822:1861   */\n      tag_233\n        /* \"#utility.yul\":1855:1860   */\n      dup3\n        /* \"#utility.yul\":1822:1861   */\n      tag_173\n      jump\t// in\n    tag_233:\n        /* \"#utility.yul\":1877:1938   */\n      tag_234\n        /* \"#utility.yul\":1931:1937   */\n      dup2\n        /* \"#utility.yul\":1926:1929   */\n      dup6\n        /* \"#utility.yul\":1877:1938   */\n      tag_174\n      jump\t// in\n    tag_234:\n        /* \"#utility.yul\":1870:1938   */\n      swap4\n      pop\n        /* \"#utility.yul\":1947:1999   */\n      tag_235\n        /* \"#utility.yul\":1992:1998   */\n      dup2\n        /* \"#utility.yul\":1987:1990   */\n      dup6\n        /* \"#utility.yul\":1980:1984   */\n      0x20\n        /* \"#utility.yul\":1973:1978   */\n      dup7\n        /* \"#utility.yul\":1969:1985   */\n      add\n        /* \"#utility.yul\":1947:1999   */\n      tag_175\n      jump\t// in\n    tag_235:\n        /* \"#utility.yul\":2024:2053   */\n      tag_236\n        /* \"#utility.yul\":2046:2052   */\n      dup2\n        /* \"#utility.yul\":2024:2053   */\n      tag_176\n      jump\t// in\n    tag_236:\n        /* \"#utility.yul\":2019:2022   */\n      dup5\n        /* \"#utility.yul\":2015:2054   */\n      add\n        /* \"#utility.yul\":2008:2054   */\n      swap2\n      pop\n        /* \"#utility.yul\":1798:2060   */\n      pop\n        /* \"#utility.yul\":1716:2060   */\n      swap3\n      swap2\n      pop\n      pop\n      jump\t// out\n        /* \"#utility.yul\":2066:2174   */\n    tag_178:\n        /* \"#utility.yul\":2143:2167   */\n      tag_238\n        /* \"#utility.yul\":2161:2166   */\n      dup2\n        /* \"#utility.yul\":2143:2167   */\n      tag_170\n      jump\t// in\n    tag_238:\n        /* \"#utility.yul\":2138:2141   */\n      dup3\n        /* \"#utility.yul\":2131:2168   */\n      mstore\n        /* \"#utility.yul\":2066:2174   */\n      pop\n      pop\n      jump\t// out\n        /* \"#utility.yul\":2234:3586   */\n    tag_179:\n        /* \"#utility.yul\":2347:2350   */\n      0x00\n        /* \"#utility.yul\":2383:2387   */\n      0xa0\n        /* \"#utility.yul\":2378:2381   */\n      dup4\n        /* \"#utility.yul\":2374:2388   */\n      add\n        /* \"#utility.yul\":2470:2474   */\n      0x00\n        /* \"#utility.yul\":2463:2468   */\n      dup4\n        /* \"#utility.yul\":2459:2475   */\n      add\n        /* \"#utility.yul\":2453:2476   */\n      mload\n        /* \"#utility.yul\":2523:2526   */\n      dup5\n        /* \"#utility.yul\":2517:2521   */\n      dup3\n        /* \"#utility.yul\":2513:2527   */\n      sub\n        /* \"#utility.yul\":2506:2510   */\n      0x00\n        /* \"#utility.yul\":2501:2504   */\n      dup7\n        /* \"#utility.yul\":2497:2511   */\n      add\n        /* \"#utility.yul\":2490:2528   */\n      mstore\n        /* \"#utility.yul\":2549:2622   */\n      tag_240\n        /* \"#utility.yul\":2617:2621   */\n      dup3\n        /* \"#utility.yul\":2603:2615   */\n      dup3\n        /* \"#utility.yul\":2549:2622   */\n      tag_177\n      jump\t// in\n    tag_240:\n        /* \"#utility.yul\":2541:2622   */\n      swap2\n      pop\n        /* \"#utility.yul\":2398:2633   */\n      pop\n        /* \"#utility.yul\":2721:2725   */\n      0x20\n        /* \"#utility.yul\":2714:2719   */\n      dup4\n        /* \"#utility.yul\":2710:2726   */\n      add\n        /* \"#utility.yul\":2704:2727   */\n      mload\n        /* \"#utility.yul\":2774:2777   */\n      dup5\n        /* \"#utility.yul\":2768:2772   */\n      dup3\n        /* \"#utility.yul\":2764:2778   */\n      sub\n        /* \"#utility.yul\":2757:2761   */\n      0x20\n        /* \"#utility.yul\":2752:2755   */\n      dup7\n        /* \"#utility.yul\":2748:2762   */\n      add\n        /* \"#utility.yul\":2741:2779   */\n      mstore\n        /* \"#utility.yul\":2800:2873   */\n      tag_241\n        /* \"#utility.yul\":2868:2872   */\n      dup3\n        /* \"#utility.yul\":2854:2866   */\n      dup3\n        /* \"#utility.yul\":2800:2873   */\n      tag_177\n      jump\t// in\n    tag_241:\n        /* \"#utility.yul\":2792:2873   */\n      swap2\n      pop\n        /* \"#utility.yul\":2643:2884   */\n      pop\n        /* \"#utility.yul\":2974:2978   */\n      0x40\n        /* \"#utility.yul\":2967:2972   */\n      dup4\n        /* \"#utility.yul\":2963:2979   */\n      add\n        /* \"#utility.yul\":2957:2980   */\n      mload\n        /* \"#utility.yul\":2993:3056   */\n      tag_242\n        /* \"#utility.yul\":3050:3054   */\n      0x40\n        /* \"#utility.yul\":3045:3048   */\n      dup7\n        /* \"#utility.yul\":3041:3055   */\n      add\n        /* \"#utility.yul\":3027:3039   */\n      dup3\n        /* \"#utility.yul\":2993:3056   */\n      tag_178\n      jump\t// in\n    tag_242:\n        /* \"#utility.yul\":2894:3066   */\n      pop\n        /* \"#utility.yul\":3150:3154   */\n      0x60\n        /* \"#utility.yul\":3143:3148   */\n      dup4\n        /* \"#utility.yul\":3139:3155   */\n      add\n        /* \"#utility.yul\":3133:3156   */\n      mload\n        /* \"#utility.yul\":3203:3206   */\n      dup5\n        /* \"#utility.yul\":3197:3201   */\n      dup3\n        /* \"#utility.yul\":3193:3207   */\n      sub\n        /* \"#utility.yul\":3186:3190   */\n      0x60\n        /* \"#utility.yul\":3181:3184   */\n      dup7\n        /* \"#utility.yul\":3177:3191   */\n      add\n        /* \"#utility.yul\":3170:3208   */\n      mstore\n        /* \"#utility.yul\":3229:3302   */\n      tag_243\n        /* \"#utility.yul\":3297:3301   */\n      dup3\n        /* \"#utility.yul\":3283:3295   */\n      dup3\n        /* \"#utility.yul\":3229:3302   */\n      tag_177\n      jump\t// in\n    tag_243:\n        /* \"#utility.yul\":3221:3302   */\n      swap2\n      pop\n        /* \"#utility.yul\":3076:3313   */\n      pop\n        /* \"#utility.yul\":3396:3400   */\n      0x80\n        /* \"#utility.yul\":3389:3394   */\n      dup4\n        /* \"#utility.yul\":3385:3401   */\n      add\n        /* \"#utility.yul\":3379:3402   */\n      mload\n        /* \"#utility.yul\":3449:3452   */\n      dup5\n        /* \"#utility.yul\":3443:3447   */\n      dup3\n        /* \"#utility.yul\":3439:3453   */\n      sub\n        /* \"#utility.yul\":3432:3436   */\n      0x80\n        /* \"#utility.yul\":3427:3430   */\n      dup7\n        /* \"#utility.yul\":3423:3437   */\n      add\n        /* \"#utility.yul\":3416:3454   */\n      mstore\n        /* \"#utility.yul\":3475:3548   */\n      tag_244\n        /* \"#utility.yul\":3543:3547   */\n      dup3\n        /* \"#utility.yul\":3529:3541   */\n      dup3\n        /* \"#utility.yul\":3475:3548   */\n      tag_177\n      jump\t// in\n    tag_244:\n        /* \"#utility.yul\":3467:3548   */\n      swap2\n      pop\n        /* \"#utility.yul\":3323:3559   */\n      pop\n        /* \"#utility.yul\":3576:3580   */\n      dup1\n        /* \"#utility.yul\":3569:3580   */\n      swap2\n      pop\n        /* \"#utility.yul\":2352:3586   */\n      pop\n        /* \"#utility.yul\":2234:3586   */\n      swap3\n      swap2\n      pop\n      pop\n      jump\t// out\n        /* \"#utility.yul\":3592:3953   */\n    tag_23:\n        /* \"#utility.yul\":3729:3733   */\n      0x00\n        /* \"#utility.yul\":3767:3769   */\n      0x20\n        /* \"#utility.yul\":3756:3765   */\n      dup3\n        /* \"#utility.yul\":3752:3770   */\n      add\n        /* \"#utility.yul\":3744:3770   */\n      swap1\n      pop\n        /* \"#utility.yul\":3816:3825   */\n      dup2\n        /* \"#utility.yul\":3810:3814   */\n      dup2\n        /* \"#utility.yul\":3806:3826   */\n      sub\n        /* \"#utility.yul\":3802:3803   */\n      0x00\n        /* \"#utility.yul\":3791:3800   */\n      dup4\n        /* \"#utility.yul\":3787:3804   */\n      add\n        /* \"#utility.yul\":3780:3827   */\n      mstore\n        /* \"#utility.yul\":3844:3946   */\n      tag_246\n        /* \"#utility.yul\":3941:3945   */\n      dup2\n        /* \"#utility.yul\":3932:3938   */\n      dup5\n        /* \"#utility.yul\":3844:3946   */\n      tag_179\n      jump\t// in\n    tag_246:\n        /* \"#utility.yul\":3836:3946   */\n      swap1\n      pop\n        /* \"#utility.yul\":3592:3953   */\n      swap3\n      swap2\n      pop\n      pop\n      jump\t// out\n        /* \"#utility.yul\":3959:4128   */\n    tag_180:\n        /* \"#utility.yul\":4043:4054   */\n      0x00\n        /* \"#utility.yul\":4077:4083   */\n      dup3\n        /* \"#utility.yul\":4072:4075   */\n      dup3\n        /* \"#utility.yul\":4065:4084   */\n      mstore\n        /* \"#utility.yul\":4117:4121   */\n      0x20\n        /* \"#utility.yul\":4112:4115   */\n      dup3\n        /* \"#utility.yul\":4108:4122   */\n      add\n        /* \"#utility.yul\":4093:4122   */\n      swap1\n      pop\n        /* \"#utility.yul\":3959:4128   */\n      swap3\n      swap2\n      pop\n      pop\n      jump\t// out\n        /* \"#utility.yul\":4134:4498   */\n    tag_181:\n        /* \"#utility.yul\":4222:4225   */\n      0x00\n        /* \"#utility.yul\":4250:4289   */\n      tag_249\n        /* \"#utility.yul\":4283:4288   */\n      dup3\n        /* \"#utility.yul\":4250:4289   */\n      tag_173\n      jump\t// in\n    tag_249:\n        /* \"#utility.yul\":4305:4376   */\n      tag_250\n        /* \"#utility.yul\":4369:4375   */\n      dup2\n        /* \"#utility.yul\":4364:4367   */\n      dup6\n        /* \"#utility.yul\":4305:4376   */\n      tag_180\n      jump\t// in\n    tag_250:\n        /* \"#utility.yul\":4298:4376   */\n      swap4\n      pop\n        /* \"#utility.yul\":4385:4437   */\n      tag_251\n        /* \"#utility.yul\":4430:4436   */\n      dup2\n        /* \"#utility.yul\":4425:4428   */\n      dup6\n        /* \"#utility.yul\":4418:4422   */\n      0x20\n        /* \"#utility.yul\":4411:4416   */\n      dup7\n        /* \"#utility.yul\":4407:4423   */\n      add\n        /* \"#utility.yul\":4385:4437   */\n      tag_175\n      jump\t// in\n    tag_251:\n        /* \"#utility.yul\":4462:4491   */\n      tag_252\n        /* \"#utility.yul\":4484:4490   */\n      dup2\n        /* \"#utility.yul\":4462:4491   */\n      tag_176\n      jump\t// in\n    tag_252:\n        /* \"#utility.yul\":4457:4460   */\n      dup5\n        /* \"#utility.yul\":4453:4492   */\n      add\n        /* \"#utility.yul\":4446:4492   */\n      swap2\n      pop\n        /* \"#utility.yul\":4226:4498   */\n      pop\n        /* \"#utility.yul\":4134:4498   */\n      swap3\n      swap2\n      pop\n      pop\n      jump\t// out\n        /* \"#utility.yul\":4504:4817   */\n    tag_27:\n        /* \"#utility.yul\":4617:4621   */\n      0x00\n        /* \"#utility.yul\":4655:4657   */\n      0x20\n        /* \"#utility.yul\":4644:4653   */\n      dup3\n        /* \"#utility.yul\":4640:4658   */\n      add\n        /* \"#utility.yul\":4632:4658   */\n      swap1\n      pop\n        /* \"#utility.yul\":4704:4713   */\n      dup2\n        /* \"#utility.yul\":4698:4702   */\n      dup2\n        /* \"#utility.yul\":4694:4714   */\n      sub\n        /* \"#utility.yul\":4690:4691   */\n      0x00\n        /* \"#utility.yul\":4679:4688   */\n      dup4\n        /* \"#utility.yul\":4675:4692   */\n      add\n        /* \"#utility.yul\":4668:4715   */\n      mstore\n        /* \"#utility.yul\":4732:4810   */\n      tag_254\n        /* \"#utility.yul\":4805:4809   */\n      dup2\n        /* \"#utility.yul\":4796:4802   */\n      dup5\n        /* \"#utility.yul\":4732:4810   */\n      tag_181\n      jump\t// in\n    tag_254:\n        /* \"#utility.yul\":4724:4810   */\n      swap1\n      pop\n        /* \"#utility.yul\":4504:4817   */\n      swap3\n      swap2\n      pop\n      pop\n      jump\t// out\n        /* \"#utility.yul\":4823:5297   */\n    tag_30:\n        /* \"#utility.yul\":4891:4897   */\n      0x00\n        /* \"#utility.yul\":4899:4905   */\n      dup1\n        /* \"#utility.yul\":4948:4950   */\n      0x40\n        /* \"#utility.yul\":4936:4945   */\n      dup4\n        /* \"#utility.yul\":4927:4934   */\n      dup6\n        /* \"#utility.yul\":4923:4946   */\n      sub\n        /* \"#utility.yul\":4919:4951   */\n      slt\n        /* \"#utility.yul\":4916:5035   */\n      iszero\n      tag_256\n      jumpi\n        /* \"#utility.yul\":4954:5033   */\n      tag_257\n      tag_168\n      jump\t// in\n    tag_257:\n        /* \"#utility.yul\":4916:5035   */\n    tag_256:\n        /* \"#utility.yul\":5074:5075   */\n      0x00\n        /* \"#utility.yul\":5099:5152   */\n      tag_258\n        /* \"#utility.yul\":5144:5151   */\n      dup6\n        /* \"#utility.yul\":5135:5141   */\n      dup3\n        /* \"#utility.yul\":5124:5133   */\n      dup7\n        /* \"#utility.yul\":5120:5142   */\n      add\n        /* \"#utility.yul\":5099:5152   */\n      tag_172\n      jump\t// in\n    tag_258:\n        /* \"#utility.yul\":5089:5152   */\n      swap3\n      pop\n        /* \"#utility.yul\":5045:5162   */\n      pop\n        /* \"#utility.yul\":5201:5203   */\n      0x20\n        /* \"#utility.yul\":5227:5280   */\n      tag_259\n        /* \"#utility.yul\":5272:5279   */\n      dup6\n        /* \"#utility.yul\":5263:5269   */\n      dup3\n        /* \"#utility.yul\":5252:5261   */\n      dup7\n        /* \"#utility.yul\":5248:5270   */\n      add\n        /* \"#utility.yul\":5227:5280   */\n      tag_172\n      jump\t// in\n    tag_259:\n        /* \"#utility.yul\":5217:5280   */\n      swap2\n      pop\n        /* \"#utility.yul\":5172:5290   */\n      pop\n        /* \"#utility.yul\":4823:5297   */\n      swap3\n      pop\n      swap3\n      swap1\n      pop\n      jump\t// out\n        /* \"#utility.yul\":5303:5421   */\n    tag_182:\n        /* \"#utility.yul\":5390:5414   */\n      tag_261\n        /* \"#utility.yul\":5408:5413   */\n      dup2\n        /* \"#utility.yul\":5390:5414   */\n      tag_170\n      jump\t// in\n    tag_261:\n        /* \"#utility.yul\":5385:5388   */\n      dup3\n        /* \"#utility.yul\":5378:5415   */\n      mstore\n        /* \"#utility.yul\":5303:5421   */\n      pop\n      pop\n      jump\t// out\n        /* \"#utility.yul\":5427:5649   */\n    tag_35:\n        /* \"#utility.yul\":5520:5524   */\n      0x00\n        /* \"#utility.yul\":5558:5560   */\n      0x20\n        /* \"#utility.yul\":5547:5556   */\n      dup3\n        /* \"#utility.yul\":5543:5561   */\n      add\n        /* \"#utility.yul\":5535:5561   */\n      swap1\n      pop\n        /* \"#utility.yul\":5571:5642   */\n      tag_263\n        /* \"#utility.yul\":5639:5640   */\n      0x00\n        /* \"#utility.yul\":5628:5637   */\n      dup4\n        /* \"#utility.yul\":5624:5641   */\n      add\n        /* \"#utility.yul\":5615:5621   */\n      dup5\n        /* \"#utility.yul\":5571:5642   */\n      tag_182\n      jump\t// in\n    tag_263:\n        /* \"#utility.yul\":5427:5649   */\n      swap3\n      swap2\n      pop\n      pop\n      jump\t// out\n        /* \"#utility.yul\":5655:5769   */\n    tag_183:\n        /* \"#utility.yul\":5722:5728   */\n      0x00\n        /* \"#utility.yul\":5756:5761   */\n      dup2\n        /* \"#utility.yul\":5750:5762   */\n      mload\n        /* \"#utility.yul\":5740:5762   */\n      swap1\n      pop\n        /* \"#utility.yul\":5655:5769   */\n      swap2\n      swap1\n      pop\n      jump\t// out\n        /* \"#utility.yul\":5775:5959   */\n    tag_184:\n        /* \"#utility.yul\":5874:5885   */\n      0x00\n        /* \"#utility.yul\":5908:5914   */\n      dup3\n        /* \"#utility.yul\":5903:5906   */\n      dup3\n        /* \"#utility.yul\":5896:5915   */\n      mstore\n        /* \"#utility.yul\":5948:5952   */\n      0x20\n        /* \"#utility.yul\":5943:5946   */\n      dup3\n        /* \"#utility.yul\":5939:5953   */\n      add\n        /* \"#utility.yul\":5924:5953   */\n      swap1\n      pop\n        /* \"#utility.yul\":5775:5959   */\n      swap3\n      swap2\n      pop\n      pop\n      jump\t// out\n        /* \"#utility.yul\":5965:6097   */\n    tag_185:\n        /* \"#utility.yul\":6032:6036   */\n      0x00\n        /* \"#utility.yul\":6055:6058   */\n      dup2\n        /* \"#utility.yul\":6047:6058   */\n      swap1\n      pop\n        /* \"#utility.yul\":6085:6089   */\n      0x20\n        /* \"#utility.yul\":6080:6083   */\n      dup3\n        /* \"#utility.yul\":6076:6090   */\n      add\n        /* \"#utility.yul\":6068:6090   */\n      swap1\n      pop\n        /* \"#utility.yul\":5965:6097   */\n      swap2\n      swap1\n      pop\n      jump\t// out\n        /* \"#utility.yul\":6103:6282   */\n    tag_186:\n        /* \"#utility.yul\":6172:6182   */\n      0x00\n        /* \"#utility.yul\":6193:6239   */\n      tag_268\n        /* \"#utility.yul\":6235:6238   */\n      dup4\n        /* \"#utility.yul\":6227:6233   */\n      dup4\n        /* \"#utility.yul\":6193:6239   */\n      tag_178\n      jump\t// in\n    tag_268:\n        /* \"#utility.yul\":6271:6275   */\n      0x20\n        /* \"#utility.yul\":6266:6269   */\n      dup4\n        /* \"#utility.yul\":6262:6276   */\n      add\n        /* \"#utility.yul\":6248:6276   */\n      swap1\n      pop\n        /* \"#utility.yul\":6103:6282   */\n      swap3\n      swap2\n      pop\n      pop\n      jump\t// out\n        /* \"#utility.yul\":6288:6401   */\n    tag_187:\n        /* \"#utility.yul\":6358:6362   */\n      0x00\n        /* \"#utility.yul\":6390:6394   */\n      0x20\n        /* \"#utility.yul\":6385:6388   */\n      dup3\n        /* \"#utility.yul\":6381:6395   */\n      add\n        /* \"#utility.yul\":6373:6395   */\n      swap1\n      pop\n        /* \"#utility.yul\":6288:6401   */\n      swap2\n      swap1\n      pop\n      jump\t// out\n        /* \"#utility.yul\":6437:7169   */\n    tag_188:\n        /* \"#utility.yul\":6556:6559   */\n      0x00\n        /* \"#utility.yul\":6585:6639   */\n      tag_271\n        /* \"#utility.yul\":6633:6638   */\n      dup3\n        /* \"#utility.yul\":6585:6639   */\n      tag_183\n      jump\t// in\n    tag_271:\n        /* \"#utility.yul\":6655:6741   */\n      tag_272\n        /* \"#utility.yul\":6734:6740   */\n      dup2\n        /* \"#utility.yul\":6729:6732   */\n      dup6\n        /* \"#utility.yul\":6655:6741   */\n      tag_184\n      jump\t// in\n    tag_272:\n        /* \"#utility.yul\":6648:6741   */\n      swap4\n      pop\n        /* \"#utility.yul\":6765:6821   */\n      tag_273\n        /* \"#utility.yul\":6815:6820   */\n      dup4\n        /* \"#utility.yul\":6765:6821   */\n      tag_185\n      jump\t// in\n    tag_273:\n        /* \"#utility.yul\":6844:6851   */\n      dup1\n        /* \"#utility.yul\":6875:6876   */\n      0x00\n        /* \"#utility.yul\":6860:7144   */\n    tag_274:\n        /* \"#utility.yul\":6885:6891   */\n      dup4\n        /* \"#utility.yul\":6882:6883   */\n      dup2\n        /* \"#utility.yul\":6879:6892   */\n      lt\n        /* \"#utility.yul\":6860:7144   */\n      iszero\n      tag_276\n      jumpi\n        /* \"#utility.yul\":6961:6967   */\n      dup2\n        /* \"#utility.yul\":6955:6968   */\n      mload\n        /* \"#utility.yul\":6988:7051   */\n      tag_277\n        /* \"#utility.yul\":7047:7050   */\n      dup9\n        /* \"#utility.yul\":7032:7045   */\n      dup3\n        /* \"#utility.yul\":6988:7051   */\n      tag_186\n      jump\t// in\n    tag_277:\n        /* \"#utility.yul\":6981:7051   */\n      swap8\n      pop\n        /* \"#utility.yul\":7074:7134   */\n      tag_278\n        /* \"#utility.yul\":7127:7133   */\n      dup4\n        /* \"#utility.yul\":7074:7134   */\n      tag_187\n      jump\t// in\n    tag_278:\n        /* \"#utility.yul\":7064:7134   */\n      swap3\n      pop\n        /* \"#utility.yul\":6920:7144   */\n      pop\n        /* \"#utility.yul\":6907:6908   */\n      0x01\n        /* \"#utility.yul\":6904:6905   */\n      dup2\n        /* \"#utility.yul\":6900:6909   */\n      add\n        /* \"#utility.yul\":6895:6909   */\n      swap1\n      pop\n        /* \"#utility.yul\":6860:7144   */\n      jump(tag_274)\n    tag_276:\n        /* \"#utility.yul\":6864:6878   */\n      pop\n        /* \"#utility.yul\":7160:7163   */\n      dup6\n        /* \"#utility.yul\":7153:7163   */\n      swap4\n      pop\n        /* \"#utility.yul\":6561:7169   */\n      pop\n      pop\n      pop\n        /* \"#utility.yul\":6437:7169   */\n      swap3\n      swap2\n      pop\n      pop\n      jump\t// out\n        /* \"#utility.yul\":7175:7548   */\n    tag_42:\n        /* \"#utility.yul\":7318:7322   */\n      0x00\n        /* \"#utility.yul\":7356:7358   */\n      0x20\n        /* \"#utility.yul\":7345:7354   */\n      dup3\n        /* \"#utility.yul\":7341:7359   */\n      add\n        /* \"#utility.yul\":7333:7359   */\n      swap1\n      pop\n        /* \"#utility.yul\":7405:7414   */\n      dup2\n        /* \"#utility.yul\":7399:7403   */\n      dup2\n        /* \"#utility.yul\":7395:7415   */\n      sub\n        /* \"#utility.yul\":7391:7392   */\n      0x00\n        /* \"#utility.yul\":7380:7389   */\n      dup4\n        /* \"#utility.yul\":7376:7393   */\n      add\n        /* \"#utility.yul\":7369:7416   */\n      mstore\n        /* \"#utility.yul\":7433:7541   */\n      tag_280\n        /* \"#utility.yul\":7536:7540   */\n      dup2\n        /* \"#utility.yul\":7527:7533   */\n      dup5\n        /* \"#utility.yul\":7433:7541   */\n      tag_188\n      jump\t// in\n    tag_280:\n        /* \"#utility.yul\":7425:7541   */\n      swap1\n      pop\n        /* \"#utility.yul\":7175:7548   */\n      swap3\n      swap2\n      pop\n      pop\n      jump\t// out\n        /* \"#utility.yul\":7554:7680   */\n    tag_189:\n        /* \"#utility.yul\":7591:7598   */\n      0x00\n        /* \"#utility.yul\":7631:7673   */\n      0xffffffffffffffffffffffffffffffffffffffff\n        /* \"#utility.yul\":7624:7629   */\n      dup3\n        /* \"#utility.yul\":7620:7674   */\n      and\n        /* \"#utility.yul\":7609:7674   */\n      swap1\n      pop\n        /* \"#utility.yul\":7554:7680   */\n      swap2\n      swap1\n      pop\n      jump\t// out\n        /* \"#utility.yul\":7686:7782   */\n    tag_190:\n        /* \"#utility.yul\":7723:7730   */\n      0x00\n        /* \"#utility.yul\":7752:7776   */\n      tag_283\n        /* \"#utility.yul\":7770:7775   */\n      dup3\n        /* \"#utility.yul\":7752:7776   */\n      tag_189\n      jump\t// in\n    tag_283:\n        /* \"#utility.yul\":7741:7776   */\n      swap1\n      pop\n        /* \"#utility.yul\":7686:7782   */\n      swap2\n      swap1\n      pop\n      jump\t// out\n        /* \"#utility.yul\":7788:7906   */\n    tag_191:\n        /* \"#utility.yul\":7875:7899   */\n      tag_285\n        /* \"#utility.yul\":7893:7898   */\n      dup2\n        /* \"#utility.yul\":7875:7899   */\n      tag_190\n      jump\t// in\n    tag_285:\n        /* \"#utility.yul\":7870:7873   */\n      dup3\n        /* \"#utility.yul\":7863:7900   */\n      mstore\n        /* \"#utility.yul\":7788:7906   */\n      pop\n      pop\n      jump\t// out\n        /* \"#utility.yul\":7912:8134   */\n    tag_46:\n        /* \"#utility.yul\":8005:8009   */\n      0x00\n        /* \"#utility.yul\":8043:8045   */\n      0x20\n        /* \"#utility.yul\":8032:8041   */\n      dup3\n        /* \"#utility.yul\":8028:8046   */\n      add\n        /* \"#utility.yul\":8020:8046   */\n      swap1\n      pop\n        /* \"#utility.yul\":8056:8127   */\n      tag_287\n        /* \"#utility.yul\":8124:8125   */\n      0x00\n        /* \"#utility.yul\":8113:8122   */\n      dup4\n        /* \"#utility.yul\":8109:8126   */\n      add\n        /* \"#utility.yul\":8100:8106   */\n      dup5\n        /* \"#utility.yul\":8056:8127   */\n      tag_191\n      jump\t// in\n    tag_287:\n        /* \"#utility.yul\":7912:8134   */\n      swap3\n      swap2\n      pop\n      pop\n      jump\t// out\n        /* \"#utility.yul\":8140:8257   */\n    tag_192:\n        /* \"#utility.yul\":8249:8250   */\n      0x00\n        /* \"#utility.yul\":8246:8247   */\n      dup1\n        /* \"#utility.yul\":8239:8251   */\n      revert\n        /* \"#utility.yul\":8263:8380   */\n    tag_193:\n        /* \"#utility.yul\":8372:8373   */\n      0x00\n        /* \"#utility.yul\":8369:8370   */\n      dup1\n        /* \"#utility.yul\":8362:8374   */\n      revert\n        /* \"#utility.yul\":8386:8566   */\n    tag_194:\n        /* \"#utility.yul\":8434:8511   */\n      0x4e487b7100000000000000000000000000000000000000000000000000000000\n        /* \"#utility.yul\":8431:8432   */\n      0x00\n        /* \"#utility.yul\":8424:8512   */\n      mstore\n        /* \"#utility.yul\":8531:8535   */\n      0x41\n        /* \"#utility.yul\":8528:8529   */\n      0x04\n        /* \"#utility.yul\":8521:8536   */\n      mstore\n        /* \"#utility.yul\":8555:8559   */\n      0x24\n        /* \"#utility.yul\":8552:8553   */\n      0x00\n        /* \"#utility.yul\":8545:8560   */\n      revert\n        /* \"#utility.yul\":8572:8853   */\n    tag_195:\n        /* \"#utility.yul\":8655:8682   */\n      tag_292\n        /* \"#utility.yul\":8677:8681   */\n      dup3\n        /* \"#utility.yul\":8655:8682   */\n      tag_176\n      jump\t// in\n    tag_292:\n        /* \"#utility.yul\":8647:8653   */\n      dup2\n        /* \"#utility.yul\":8643:8683   */\n      add\n        /* \"#utility.yul\":8785:8791   */\n      dup2\n        /* \"#utility.yul\":8773:8783   */\n      dup2\n        /* \"#utility.yul\":8770:8792   */\n      lt\n        /* \"#utility.yul\":8749:8767   */\n      0xffffffffffffffff\n        /* \"#utility.yul\":8737:8747   */\n      dup3\n        /* \"#utility.yul\":8734:8768   */\n      gt\n        /* \"#utility.yul\":8731:8793   */\n      or\n        /* \"#utility.yul\":8728:8816   */\n      iszero\n      tag_293\n      jumpi\n        /* \"#utility.yul\":8796:8814   */\n      tag_294\n      tag_194\n      jump\t// in\n    tag_294:\n        /* \"#utility.yul\":8728:8816   */\n    tag_293:\n        /* \"#utility.yul\":8836:8846   */\n      dup1\n        /* \"#utility.yul\":8832:8834   */\n      0x40\n        /* \"#utility.yul\":8825:8847   */\n      mstore\n        /* \"#utility.yul\":8615:8853   */\n      pop\n        /* \"#utility.yul\":8572:8853   */\n      pop\n      pop\n      jump\t// out\n        /* \"#utility.yul\":8859:8988   */\n    tag_196:\n        /* \"#utility.yul\":8893:8899   */\n      0x00\n        /* \"#utility.yul\":8920:8940   */\n      tag_296\n      tag_167\n      jump\t// in\n    tag_296:\n        /* \"#utility.yul\":8910:8940   */\n      swap1\n      pop\n        /* \"#utility.yul\":8949:8982   */\n      tag_297\n        /* \"#utility.yul\":8977:8981   */\n      dup3\n        /* \"#utility.yul\":8969:8975   */\n      dup3\n        /* \"#utility.yul\":8949:8982   */\n      tag_195\n      jump\t// in\n    tag_297:\n        /* \"#utility.yul\":8859:8988   */\n      swap2\n      swap1\n      pop\n      jump\t// out\n        /* \"#utility.yul\":8994:9302   */\n    tag_197:\n        /* \"#utility.yul\":9056:9060   */\n      0x00\n        /* \"#utility.yul\":9146:9164   */\n      0xffffffffffffffff\n        /* \"#utility.yul\":9138:9144   */\n      dup3\n        /* \"#utility.yul\":9135:9165   */\n      gt\n        /* \"#utility.yul\":9132:9188   */\n      iszero\n      tag_299\n      jumpi\n        /* \"#utility.yul\":9168:9186   */\n      tag_300\n      tag_194\n      jump\t// in\n    tag_300:\n        /* \"#utility.yul\":9132:9188   */\n    tag_299:\n        /* \"#utility.yul\":9206:9235   */\n      tag_301\n        /* \"#utility.yul\":9228:9234   */\n      dup3\n        /* \"#utility.yul\":9206:9235   */\n      tag_176\n      jump\t// in\n    tag_301:\n        /* \"#utility.yul\":9198:9235   */\n      swap1\n      pop\n        /* \"#utility.yul\":9290:9294   */\n      0x20\n        /* \"#utility.yul\":9284:9288   */\n      dup2\n        /* \"#utility.yul\":9280:9295   */\n      add\n        /* \"#utility.yul\":9272:9295   */\n      swap1\n      pop\n        /* \"#utility.yul\":8994:9302   */\n      swap2\n      swap1\n      pop\n      jump\t// out\n        /* \"#utility.yul\":9308:9462   */\n    tag_198:\n        /* \"#utility.yul\":9392:9398   */\n      dup3\n        /* \"#utility.yul\":9387:9390   */\n      dup2\n        /* \"#utility.yul\":9382:9385   */\n      dup4\n        /* \"#utility.yul\":9369:9399   */\n      calldatacopy\n        /* \"#utility.yul\":9454:9455   */\n      0x00\n        /* \"#utility.yul\":9445:9451   */\n      dup4\n        /* \"#utility.yul\":9440:9443   */\n      dup4\n        /* \"#utility.yul\":9436:9452   */\n      add\n        /* \"#utility.yul\":9429:9456   */\n      mstore\n        /* \"#utility.yul\":9308:9462   */\n      pop\n      pop\n      pop\n      jump\t// out\n        /* \"#utility.yul\":9468:9880   */\n    tag_199:\n        /* \"#utility.yul\":9546:9551   */\n      0x00\n        /* \"#utility.yul\":9571:9637   */\n      tag_304\n        /* \"#utility.yul\":9587:9636   */\n      tag_305\n        /* \"#utility.yul\":9629:9635   */\n      dup5\n        /* \"#utility.yul\":9587:9636   */\n      tag_197\n      jump\t// in\n    tag_305:\n        /* \"#utility.yul\":9571:9637   */\n      tag_196\n      jump\t// in\n    tag_304:\n        /* \"#utility.yul\":9562:9637   */\n      swap1\n      pop\n        /* \"#utility.yul\":9660:9666   */\n      dup3\n        /* \"#utility.yul\":9653:9658   */\n      dup2\n        /* \"#utility.yul\":9646:9667   */\n      mstore\n        /* \"#utility.yul\":9698:9702   */\n      0x20\n        /* \"#utility.yul\":9691:9696   */\n      dup2\n        /* \"#utility.yul\":9687:9703   */\n      add\n        /* \"#utility.yul\":9736:9739   */\n      dup5\n        /* \"#utility.yul\":9727:9733   */\n      dup5\n        /* \"#utility.yul\":9722:9725   */\n      dup5\n        /* \"#utility.yul\":9718:9734   */\n      add\n        /* \"#utility.yul\":9715:9740   */\n      gt\n        /* \"#utility.yul\":9712:9824   */\n      iszero\n      tag_306\n      jumpi\n        /* \"#utility.yul\":9743:9822   */\n      tag_307\n      tag_193\n      jump\t// in\n    tag_307:\n        /* \"#utility.yul\":9712:9824   */\n    tag_306:\n        /* \"#utility.yul\":9833:9874   */\n      tag_308\n        /* \"#utility.yul\":9867:9873   */\n      dup5\n        /* \"#utility.yul\":9862:9865   */\n      dup3\n        /* \"#utility.yul\":9857:9860   */\n      dup6\n        /* \"#utility.yul\":9833:9874   */\n      tag_198\n      jump\t// in\n    tag_308:\n        /* \"#utility.yul\":9552:9880   */\n      pop\n        /* \"#utility.yul\":9468:9880   */\n      swap4\n      swap3\n      pop\n      pop\n      pop\n      jump\t// out\n        /* \"#utility.yul\":9900:10240   */\n    tag_200:\n        /* \"#utility.yul\":9956:9961   */\n      0x00\n        /* \"#utility.yul\":10005:10008   */\n      dup3\n        /* \"#utility.yul\":9998:10002   */\n      0x1f\n        /* \"#utility.yul\":9990:9996   */\n      dup4\n        /* \"#utility.yul\":9986:10003   */\n      add\n        /* \"#utility.yul\":9982:10009   */\n      slt\n        /* \"#utility.yul\":9972:10094   */\n      tag_310\n      jumpi\n        /* \"#utility.yul\":10013:10092   */\n      tag_311\n      tag_192\n      jump\t// in\n    tag_311:\n        /* \"#utility.yul\":9972:10094   */\n    tag_310:\n        /* \"#utility.yul\":10130:10136   */\n      dup2\n        /* \"#utility.yul\":10117:10137   */\n      calldataload\n        /* \"#utility.yul\":10155:10234   */\n      tag_312\n        /* \"#utility.yul\":10230:10233   */\n      dup5\n        /* \"#utility.yul\":10222:10228   */\n      dup3\n        /* \"#utility.yul\":10215:10219   */\n      0x20\n        /* \"#utility.yul\":10207:10213   */\n      dup7\n        /* \"#utility.yul\":10203:10220   */\n      add\n        /* \"#utility.yul\":10155:10234   */\n      tag_199\n      jump\t// in\n    tag_312:\n        /* \"#utility.yul\":10146:10234   */\n      swap2\n      pop\n        /* \"#utility.yul\":9962:10240   */\n      pop\n        /* \"#utility.yul\":9900:10240   */\n      swap3\n      swap2\n      pop\n      pop\n      jump\t// out\n        /* \"#utility.yul\":10246:11877   */\n    tag_49:\n        /* \"#utility.yul\":10381:10387   */\n      0x00\n        /* \"#utility.yul\":10389:10395   */\n      dup1\n        /* \"#utility.yul\":10397:10403   */\n      0x00\n        /* \"#utility.yul\":10405:10411   */\n      dup1\n        /* \"#utility.yul\":10413:10419   */\n      0x00\n        /* \"#utility.yul\":10462:10465   */\n      0xa0\n        /* \"#utility.yul\":10450:10459   */\n      dup7\n        /* \"#utility.yul\":10441:10448   */\n      dup9\n        /* \"#utility.yul\":10437:10460   */\n      sub\n        /* \"#utility.yul\":10433:10466   */\n      slt\n        /* \"#utility.yul\":10430:10550   */\n      iszero\n      tag_314\n      jumpi\n        /* \"#utility.yul\":10469:10548   */\n      tag_315\n      tag_168\n      jump\t// in\n    tag_315:\n        /* \"#utility.yul\":10430:10550   */\n    tag_314:\n        /* \"#utility.yul\":10617:10618   */\n      0x00\n        /* \"#utility.yul\":10606:10615   */\n      dup7\n        /* \"#utility.yul\":10602:10619   */\n      add\n        /* \"#utility.yul\":10589:10620   */\n      calldataload\n        /* \"#utility.yul\":10647:10665   */\n      0xffffffffffffffff\n        /* \"#utility.yul\":10639:10645   */\n      dup2\n        /* \"#utility.yul\":10636:10666   */\n      gt\n        /* \"#utility.yul\":10633:10750   */\n      iszero\n      tag_316\n      jumpi\n        /* \"#utility.yul\":10669:10748   */\n      tag_317\n      tag_169\n      jump\t// in\n    tag_317:\n        /* \"#utility.yul\":10633:10750   */\n    tag_316:\n        /* \"#utility.yul\":10774:10837   */\n      tag_318\n        /* \"#utility.yul\":10829:10836   */\n      dup9\n        /* \"#utility.yul\":10820:10826   */\n      dup3\n        /* \"#utility.yul\":10809:10818   */\n      dup10\n        /* \"#utility.yul\":10805:10827   */\n      add\n        /* \"#utility.yul\":10774:10837   */\n      tag_200\n      jump\t// in\n    tag_318:\n        /* \"#utility.yul\":10764:10837   */\n      swap6\n      pop\n        /* \"#utility.yul\":10560:10847   */\n      pop\n        /* \"#utility.yul\":10914:10916   */\n      0x20\n        /* \"#utility.yul\":10903:10912   */\n      dup7\n        /* \"#utility.yul\":10899:10917   */\n      add\n        /* \"#utility.yul\":10886:10918   */\n      calldataload\n        /* \"#utility.yul\":10945:10963   */\n      0xffffffffffffffff\n        /* \"#utility.yul\":10937:10943   */\n      dup2\n        /* \"#utility.yul\":10934:10964   */\n      gt\n        /* \"#utility.yul\":10931:11048   */\n      iszero\n      tag_319\n      jumpi\n        /* \"#utility.yul\":10967:11046   */\n      tag_320\n      tag_169\n      jump\t// in\n    tag_320:\n        /* \"#utility.yul\":10931:11048   */\n    tag_319:\n        /* \"#utility.yul\":11072:11135   */\n      tag_321\n        /* \"#utility.yul\":11127:11134   */\n      dup9\n        /* \"#utility.yul\":11118:11124   */\n      dup3\n        /* \"#utility.yul\":11107:11116   */\n      dup10\n        /* \"#utility.yul\":11103:11125   */\n      add\n        /* \"#utility.yul\":11072:11135   */\n      tag_200\n      jump\t// in\n    tag_321:\n        /* \"#utility.yul\":11062:11135   */\n      swap5\n      pop\n        /* \"#utility.yul\":10857:11145   */\n      pop\n        /* \"#utility.yul\":11184:11186   */\n      0x40\n        /* \"#utility.yul\":11210:11263   */\n      tag_322\n        /* \"#utility.yul\":11255:11262   */\n      dup9\n        /* \"#utility.yul\":11246:11252   */\n      dup3\n        /* \"#utility.yul\":11235:11244   */\n      dup10\n        /* \"#utility.yul\":11231:11253   */\n      add\n        /* \"#utility.yul\":11210:11263   */\n      tag_172\n      jump\t// in\n    tag_322:\n        /* \"#utility.yul\":11200:11263   */\n      swap4\n      pop\n        /* \"#utility.yul\":11155:11273   */\n      pop\n        /* \"#utility.yul\":11340:11342   */\n      0x60\n        /* \"#utility.yul\":11329:11338   */\n      dup7\n        /* \"#utility.yul\":11325:11343   */\n      add\n        /* \"#utility.yul\":11312:11344   */\n      calldataload\n        /* \"#utility.yul\":11371:11389   */\n      0xffffffffffffffff\n        /* \"#utility.yul\":11363:11369   */\n      dup2\n        /* \"#utility.yul\":11360:11390   */\n      gt\n        /* \"#utility.yul\":11357:11474   */\n      iszero\n      tag_323\n      jumpi\n        /* \"#utility.yul\":11393:11472   */\n      tag_324\n      tag_169\n      jump\t// in\n    tag_324:\n        /* \"#utility.yul\":11357:11474   */\n    tag_323:\n        /* \"#utility.yul\":11498:11561   */\n      tag_325\n        /* \"#utility.yul\":11553:11560   */\n      dup9\n        /* \"#utility.yul\":11544:11550   */\n      dup3\n        /* \"#utility.yul\":11533:11542   */\n      dup10\n        /* \"#utility.yul\":11529:11551   */\n      add\n        /* \"#utility.yul\":11498:11561   */\n      tag_200\n      jump\t// in\n    tag_325:\n        /* \"#utility.yul\":11488:11561   */\n      swap3\n      pop\n        /* \"#utility.yul\":11283:11571   */\n      pop\n        /* \"#utility.yul\":11638:11641   */\n      0x80\n        /* \"#utility.yul\":11627:11636   */\n      dup7\n        /* \"#utility.yul\":11623:11642   */\n      add\n        /* \"#utility.yul\":11610:11643   */\n      calldataload\n        /* \"#utility.yul\":11670:11688   */\n      0xffffffffffffffff\n        /* \"#utility.yul\":11662:11668   */\n      dup2\n        /* \"#utility.yul\":11659:11689   */\n      gt\n        /* \"#utility.yul\":11656:11773   */\n      iszero\n      tag_326\n      jumpi\n        /* \"#utility.yul\":11692:11771   */\n      tag_327\n      tag_169\n      jump\t// in\n    tag_327:\n        /* \"#utility.yul\":11656:11773   */\n    tag_326:\n        /* \"#utility.yul\":11797:11860   */\n      tag_328\n        /* \"#utility.yul\":11852:11859   */\n      dup9\n        /* \"#utility.yul\":11843:11849   */\n      dup3\n        /* \"#utility.yul\":11832:11841   */\n      dup10\n        /* \"#utility.yul\":11828:11850   */\n      add\n        /* \"#utility.yul\":11797:11860   */\n      tag_200\n      jump\t// in\n    tag_328:\n        /* \"#utility.yul\":11787:11860   */\n      swap2\n      pop\n        /* \"#utility.yul\":11581:11870   */\n      pop\n        /* \"#utility.yul\":10246:11877   */\n      swap3\n      swap6\n      pop\n      swap3\n      swap6\n      swap1\n      swap4\n      pop\n      jump\t// out\n        /* \"#utility.yul\":11883:12019   */\n    tag_201:\n        /* \"#utility.yul\":11972:11978   */\n      0x00\n        /* \"#utility.yul\":12006:12011   */\n      dup2\n        /* \"#utility.yul\":12000:12012   */\n      mload\n        /* \"#utility.yul\":11990:12012   */\n      swap1\n      pop\n        /* \"#utility.yul\":11883:12019   */\n      swap2\n      swap1\n      pop\n      jump\t// out\n        /* \"#utility.yul\":12025:12231   */\n    tag_202:\n        /* \"#utility.yul\":12146:12157   */\n      0x00\n        /* \"#utility.yul\":12180:12186   */\n      dup3\n        /* \"#utility.yul\":12175:12178   */\n      dup3\n        /* \"#utility.yul\":12168:12187   */\n      mstore\n        /* \"#utility.yul\":12220:12224   */\n      0x20\n        /* \"#utility.yul\":12215:12218   */\n      dup3\n        /* \"#utility.yul\":12211:12225   */\n      add\n        /* \"#utility.yul\":12196:12225   */\n      swap1\n      pop\n        /* \"#utility.yul\":12025:12231   */\n      swap3\n      swap2\n      pop\n      pop\n      jump\t// out\n        /* \"#utility.yul\":12237:12391   */\n    tag_203:\n        /* \"#utility.yul\":12326:12330   */\n      0x00\n        /* \"#utility.yul\":12349:12352   */\n      dup2\n        /* \"#utility.yul\":12341:12352   */\n      swap1\n      pop\n        /* \"#utility.yul\":12379:12383   */\n      0x20\n        /* \"#utility.yul\":12374:12377   */\n      dup3\n        /* \"#utility.yul\":12370:12384   */\n      add\n        /* \"#utility.yul\":12362:12384   */\n      swap1\n      pop\n        /* \"#utility.yul\":12237:12391   */\n      swap2\n      swap1\n      pop\n      jump\t// out\n        /* \"#utility.yul\":12451:13793   */\n    tag_204:\n        /* \"#utility.yul\":12554:12557   */\n      0x00\n        /* \"#utility.yul\":12590:12594   */\n      0xa0\n        /* \"#utility.yul\":12585:12588   */\n      dup4\n        /* \"#utility.yul\":12581:12595   */\n      add\n        /* \"#utility.yul\":12677:12681   */\n      0x00\n        /* \"#utility.yul\":12670:12675   */\n      dup4\n        /* \"#utility.yul\":12666:12682   */\n      add\n        /* \"#utility.yul\":12660:12683   */\n      mload\n        /* \"#utility.yul\":12730:12733   */\n      dup5\n        /* \"#utility.yul\":12724:12728   */\n      dup3\n        /* \"#utility.yul\":12720:12734   */\n      sub\n        /* \"#utility.yul\":12713:12717   */\n      0x00\n        /* \"#utility.yul\":12708:12711   */\n      dup7\n        /* \"#utility.yul\":12704:12718   */\n      add\n        /* \"#utility.yul\":12697:12735   */\n      mstore\n        /* \"#utility.yul\":12756:12829   */\n      tag_333\n        /* \"#utility.yul\":12824:12828   */\n      dup3\n        /* \"#utility.yul\":12810:12822   */\n      dup3\n        /* \"#utility.yul\":12756:12829   */\n      tag_177\n      jump\t// in\n    tag_333:\n        /* \"#utility.yul\":12748:12829   */\n      swap2\n      pop\n        /* \"#utility.yul\":12605:12840   */\n      pop\n        /* \"#utility.yul\":12928:12932   */\n      0x20\n        /* \"#utility.yul\":12921:12926   */\n      dup4\n        /* \"#utility.yul\":12917:12933   */\n      add\n        /* \"#utility.yul\":12911:12934   */\n      mload\n        /* \"#utility.yul\":12981:12984   */\n      dup5\n        /* \"#utility.yul\":12975:12979   */\n      dup3\n        /* \"#utility.yul\":12971:12985   */\n      sub\n        /* \"#utility.yul\":12964:12968   */\n      0x20\n        /* \"#utility.yul\":12959:12962   */\n      dup7\n        /* \"#utility.yul\":12955:12969   */\n      add\n        /* \"#utility.yul\":12948:12986   */\n      mstore\n        /* \"#utility.yul\":13007:13080   */\n      tag_334\n        /* \"#utility.yul\":13075:13079   */\n      dup3\n        /* \"#utility.yul\":13061:13073   */\n      dup3\n        /* \"#utility.yul\":13007:13080   */\n      tag_177\n      jump\t// in\n    tag_334:\n        /* \"#utility.yul\":12999:13080   */\n      swap2\n      pop\n        /* \"#utility.yul\":12850:13091   */\n      pop\n        /* \"#utility.yul\":13181:13185   */\n      0x40\n        /* \"#utility.yul\":13174:13179   */\n      dup4\n        /* \"#utility.yul\":13170:13186   */\n      add\n        /* \"#utility.yul\":13164:13187   */\n      mload\n        /* \"#utility.yul\":13200:13263   */\n      tag_335\n        /* \"#utility.yul\":13257:13261   */\n      0x40\n        /* \"#utility.yul\":13252:13255   */\n      dup7\n        /* \"#utility.yul\":13248:13262   */\n      add\n        /* \"#utility.yul\":13234:13246   */\n      dup3\n        /* \"#utility.yul\":13200:13263   */\n      tag_178\n      jump\t// in\n    tag_335:\n        /* \"#utility.yul\":13101:13273   */\n      pop\n        /* \"#utility.yul\":13357:13361   */\n      0x60\n        /* \"#utility.yul\":13350:13355   */\n      dup4\n        /* \"#utility.yul\":13346:13362   */\n      add\n        /* \"#utility.yul\":13340:13363   */\n      mload\n        /* \"#utility.yul\":13410:13413   */\n      dup5\n        /* \"#utility.yul\":13404:13408   */\n      dup3\n        /* \"#utility.yul\":13400:13414   */\n      sub\n        /* \"#utility.yul\":13393:13397   */\n      0x60\n        /* \"#utility.yul\":13388:13391   */\n      dup7\n        /* \"#utility.yul\":13384:13398   */\n      add\n        /* \"#utility.yul\":13377:13415   */\n      mstore\n        /* \"#utility.yul\":13436:13509   */\n      tag_336\n        /* \"#utility.yul\":13504:13508   */\n      dup3\n        /* \"#utility.yul\":13490:13502   */\n      dup3\n        /* \"#utility.yul\":13436:13509   */\n      tag_177\n      jump\t// in\n    tag_336:\n        /* \"#utility.yul\":13428:13509   */\n      swap2\n      pop\n        /* \"#utility.yul\":13283:13520   */\n      pop\n        /* \"#utility.yul\":13603:13607   */\n      0x80\n        /* \"#utility.yul\":13596:13601   */\n      dup4\n        /* \"#utility.yul\":13592:13608   */\n      add\n        /* \"#utility.yul\":13586:13609   */\n      mload\n        /* \"#utility.yul\":13656:13659   */\n      dup5\n        /* \"#utility.yul\":13650:13654   */\n      dup3\n        /* \"#utility.yul\":13646:13660   */\n      sub\n        /* \"#utility.yul\":13639:13643   */\n      0x80\n        /* \"#utility.yul\":13634:13637   */\n      dup7\n        /* \"#utility.yul\":13630:13644   */\n      add\n        /* \"#utility.yul\":13623:13661   */\n      mstore\n        /* \"#utility.yul\":13682:13755   */\n      tag_337\n        /* \"#utility.yul\":13750:13754   */\n      dup3\n        /* \"#utility.yul\":13736:13748   */\n      dup3\n        /* \"#utility.yul\":13682:13755   */\n      tag_177\n      jump\t// in\n    tag_337:\n        /* \"#utility.yul\":13674:13755   */\n      swap2\n      pop\n        /* \"#utility.yul\":13530:13766   */\n      pop\n        /* \"#utility.yul\":13783:13787   */\n      dup1\n        /* \"#utility.yul\":13776:13787   */\n      swap2\n      pop\n        /* \"#utility.yul\":12559:13793   */\n      pop\n        /* \"#utility.yul\":12451:13793   */\n      swap3\n      swap2\n      pop\n      pop\n      jump\t// out\n        /* \"#utility.yul\":13799:14043   */\n    tag_205:\n        /* \"#utility.yul\":13912:13922   */\n      0x00\n        /* \"#utility.yul\":13947:14037   */\n      tag_339\n        /* \"#utility.yul\":14033:14036   */\n      dup4\n        /* \"#utility.yul\":14025:14031   */\n      dup4\n        /* \"#utility.yul\":13947:14037   */\n      tag_204\n      jump\t// in\n    tag_339:\n        /* \"#utility.yul\":13933:14037   */\n      swap1\n      pop\n        /* \"#utility.yul\":13799:14043   */\n      swap3\n      swap2\n      pop\n      pop\n      jump\t// out\n        /* \"#utility.yul\":14049:14184   */\n    tag_206:\n        /* \"#utility.yul\":14141:14145   */\n      0x00\n        /* \"#utility.yul\":14173:14177   */\n      0x20\n        /* \"#utility.yul\":14168:14171   */\n      dup3\n        /* \"#utility.yul\":14164:14178   */\n      add\n        /* \"#utility.yul\":14156:14178   */\n      swap1\n      pop\n        /* \"#utility.yul\":14049:14184   */\n      swap2\n      swap1\n      pop\n      jump\t// out\n        /* \"#utility.yul\":14248:15335   */\n    tag_207:\n        /* \"#utility.yul\":14411:14414   */\n      0x00\n        /* \"#utility.yul\":14440:14516   */\n      tag_342\n        /* \"#utility.yul\":14510:14515   */\n      dup3\n        /* \"#utility.yul\":14440:14516   */\n      tag_201\n      jump\t// in\n    tag_342:\n        /* \"#utility.yul\":14532:14640   */\n      tag_343\n        /* \"#utility.yul\":14633:14639   */\n      dup2\n        /* \"#utility.yul\":14628:14631   */\n      dup6\n        /* \"#utility.yul\":14532:14640   */\n      tag_202\n      jump\t// in\n    tag_343:\n        /* \"#utility.yul\":14525:14640   */\n      swap4\n      pop\n        /* \"#utility.yul\":14666:14669   */\n      dup4\n        /* \"#utility.yul\":14711:14715   */\n      0x20\n        /* \"#utility.yul\":14703:14709   */\n      dup3\n        /* \"#utility.yul\":14699:14716   */\n      mul\n        /* \"#utility.yul\":14694:14697   */\n      dup6\n        /* \"#utility.yul\":14690:14717   */\n      add\n        /* \"#utility.yul\":14741:14819   */\n      tag_344\n        /* \"#utility.yul\":14813:14818   */\n      dup6\n        /* \"#utility.yul\":14741:14819   */\n      tag_203\n      jump\t// in\n    tag_344:\n        /* \"#utility.yul\":14842:14849   */\n      dup1\n        /* \"#utility.yul\":14873:14874   */\n      0x00\n        /* \"#utility.yul\":14858:15290   */\n    tag_345:\n        /* \"#utility.yul\":14883:14889   */\n      dup6\n        /* \"#utility.yul\":14880:14881   */\n      dup2\n        /* \"#utility.yul\":14877:14890   */\n      lt\n        /* \"#utility.yul\":14858:15290   */\n      iszero\n      tag_347\n      jumpi\n        /* \"#utility.yul\":14954:14963   */\n      dup5\n        /* \"#utility.yul\":14948:14952   */\n      dup5\n        /* \"#utility.yul\":14944:14964   */\n      sub\n        /* \"#utility.yul\":14939:14942   */\n      dup10\n        /* \"#utility.yul\":14932:14965   */\n      mstore\n        /* \"#utility.yul\":15005:15011   */\n      dup2\n        /* \"#utility.yul\":14999:15012   */\n      mload\n        /* \"#utility.yul\":15033:15141   */\n      tag_348\n        /* \"#utility.yul\":15136:15140   */\n      dup6\n        /* \"#utility.yul\":15121:15134   */\n      dup3\n        /* \"#utility.yul\":15033:15141   */\n      tag_205\n      jump\t// in\n    tag_348:\n        /* \"#utility.yul\":15025:15141   */\n      swap5\n      pop\n        /* \"#utility.yul\":15164:15246   */\n      tag_349\n        /* \"#utility.yul\":15239:15245   */\n      dup4\n        /* \"#utility.yul\":15164:15246   */\n      tag_206\n      jump\t// in\n    tag_349:\n        /* \"#utility.yul\":15154:15246   */\n      swap3\n      pop\n        /* \"#utility.yul\":15275:15279   */\n      0x20\n        /* \"#utility.yul\":15270:15273   */\n      dup11\n        /* \"#utility.yul\":15266:15280   */\n      add\n        /* \"#utility.yul\":15259:15280   */\n      swap10\n      pop\n        /* \"#utility.yul\":14918:15290   */\n      pop\n        /* \"#utility.yul\":14905:14906   */\n      0x01\n        /* \"#utility.yul\":14902:14903   */\n      dup2\n        /* \"#utility.yul\":14898:14907   */\n      add\n        /* \"#utility.yul\":14893:14907   */\n      swap1\n      pop\n        /* \"#utility.yul\":14858:15290   */\n      jump(tag_345)\n    tag_347:\n        /* \"#utility.yul\":14862:14876   */\n      pop\n        /* \"#utility.yul\":15306:15310   */\n      dup3\n        /* \"#utility.yul\":15299:15310   */\n      swap8\n      pop\n        /* \"#utility.yul\":15326:15329   */\n      dup8\n        /* \"#utility.yul\":15319:15329   */\n      swap6\n      pop\n        /* \"#utility.yul\":14416:15335   */\n      pop\n      pop\n      pop\n      pop\n      pop\n        /* \"#utility.yul\":14248:15335   */\n      swap3\n      swap2\n      pop\n      pop\n      jump\t// out\n        /* \"#utility.yul\":15341:15802   */\n    tag_59:\n        /* \"#utility.yul\":15528:15532   */\n      0x00\n        /* \"#utility.yul\":15566:15568   */\n      0x20\n        /* \"#utility.yul\":15555:15564   */\n      dup3\n        /* \"#utility.yul\":15551:15569   */\n      add\n        /* \"#utility.yul\":15543:15569   */\n      swap1\n      pop\n        /* \"#utility.yul\":15615:15624   */\n      dup2\n        /* \"#utility.yul\":15609:15613   */\n      dup2\n        /* \"#utility.yul\":15605:15625   */\n      sub\n        /* \"#utility.yul\":15601:15602   */\n      0x00\n        /* \"#utility.yul\":15590:15599   */\n      dup4\n        /* \"#utility.yul\":15586:15603   */\n      add\n        /* \"#utility.yul\":15579:15626   */\n      mstore\n        /* \"#utility.yul\":15643:15795   */\n      tag_351\n        /* \"#utility.yul\":15790:15794   */\n      dup2\n        /* \"#utility.yul\":15781:15787   */\n      dup5\n        /* \"#utility.yul\":15643:15795   */\n      tag_207\n      jump\t// in\n    tag_351:\n        /* \"#utility.yul\":15635:15795   */\n      swap1\n      pop\n        /* \"#utility.yul\":15341:15802   */\n      swap3\n      swap2\n      pop\n      pop\n      jump\t// out\n        /* \"#utility.yul\":15808:15988   */\n    tag_71:\n        /* \"#utility.yul\":15856:15933   */\n      0x4e487b7100000000000000000000000000000000000000000000000000000000\n        /* \"#utility.yul\":15853:15854   */\n      0x00\n        /* \"#utility.yul\":15846:15934   */\n      mstore\n        /* \"#utility.yul\":15953:15957   */\n      0x32\n        /* \"#utility.yul\":15950:15951   */\n      0x04\n        /* \"#utility.yul\":15943:15958   */\n      mstore\n        /* \"#utility.yul\":15977:15981   */\n      0x24\n        /* \"#utility.yul\":15974:15975   */\n      0x00\n        /* \"#utility.yul\":15967:15982   */\n      revert\n        /* \"#utility.yul\":15994:16174   */\n    tag_208:\n        /* \"#utility.yul\":16042:16119   */\n      0x4e487b7100000000000000000000000000000000000000000000000000000000\n        /* \"#utility.yul\":16039:16040   */\n      0x00\n        /* \"#utility.yul\":16032:16120   */\n      mstore\n        /* \"#utility.yul\":16139:16143   */\n      0x22\n        /* \"#utility.yul\":16136:16137   */\n      0x04\n        /* \"#utility.yul\":16129:16144   */\n      mstore\n        /* \"#utility.yul\":16163:16167   */\n      0x24\n        /* \"#utility.yul\":16160:16161   */\n      0x00\n        /* \"#utility.yul\":16153:16168   */\n      revert\n        /* \"#utility.yul\":16180:16500   */\n    tag_74:\n        /* \"#utility.yul\":16224:16230   */\n      0x00\n        /* \"#utility.yul\":16261:16262   */\n      0x02\n        /* \"#utility.yul\":16255:16259   */\n      dup3\n        /* \"#utility.yul\":16251:16263   */\n      div\n        /* \"#utility.yul\":16241:16263   */\n      swap1\n      pop\n        /* \"#utility.yul\":16308:16309   */\n      0x01\n        /* \"#utility.yul\":16302:16306   */\n      dup3\n        /* \"#utility.yul\":16298:16310   */\n      and\n        /* \"#utility.yul\":16329:16347   */\n      dup1\n        /* \"#utility.yul\":16319:16400   */\n      tag_355\n      jumpi\n        /* \"#utility.yul\":16385:16389   */\n      0x7f\n        /* \"#utility.yul\":16377:16383   */\n      dup3\n        /* \"#utility.yul\":16373:16390   */\n      and\n        /* \"#utility.yul\":16363:16390   */\n      swap2\n      pop\n        /* \"#utility.yul\":16319:16400   */\n    tag_355:\n        /* \"#utility.yul\":16447:16449   */\n      0x20\n        /* \"#utility.yul\":16439:16445   */\n      dup3\n        /* \"#utility.yul\":16436:16450   */\n      lt\n        /* \"#utility.yul\":16416:16434   */\n      dup2\n        /* \"#utility.yul\":16413:16451   */\n      eq\n        /* \"#utility.yul\":16410:16494   */\n      iszero\n      tag_356\n      jumpi\n        /* \"#utility.yul\":16466:16484   */\n      tag_357\n      tag_208\n      jump\t// in\n    tag_357:\n        /* \"#utility.yul\":16410:16494   */\n    tag_356:\n        /* \"#utility.yul\":16231:16500   */\n      pop\n        /* \"#utility.yul\":16180:16500   */\n      swap2\n      swap1\n      pop\n      jump\t// out\n        /* \"#utility.yul\":16506:16686   */\n    tag_209:\n        /* \"#utility.yul\":16554:16631   */\n      0x4e487b7100000000000000000000000000000000000000000000000000000000\n        /* \"#utility.yul\":16551:16552   */\n      0x00\n        /* \"#utility.yul\":16544:16632   */\n      mstore\n        /* \"#utility.yul\":16651:16655   */\n      0x11\n        /* \"#utility.yul\":16648:16649   */\n      0x04\n        /* \"#utility.yul\":16641:16656   */\n      mstore\n        /* \"#utility.yul\":16675:16679   */\n      0x24\n        /* \"#utility.yul\":16672:16673   */\n      0x00\n        /* \"#utility.yul\":16665:16680   */\n      revert\n        /* \"#utility.yul\":16692:16925   */\n    tag_112:\n        /* \"#utility.yul\":16731:16734   */\n      0x00\n        /* \"#utility.yul\":16754:16778   */\n      tag_360\n        /* \"#utility.yul\":16772:16777   */\n      dup3\n        /* \"#utility.yul\":16754:16778   */\n      tag_170\n      jump\t// in\n    tag_360:\n        /* \"#utility.yul\":16745:16778   */\n      swap2\n      pop\n        /* \"#utility.yul\":16800:16866   */\n      0xffffffffffffffffffffffffffffffffffffffffffffffffffffffffffffffff\n        /* \"#utility.yul\":16793:16798   */\n      dup3\n        /* \"#utility.yul\":16790:16867   */\n      eq\n        /* \"#utility.yul\":16787:16890   */\n      iszero\n      tag_361\n      jumpi\n        /* \"#utility.yul\":16870:16888   */\n      tag_362\n      tag_209\n      jump\t// in\n    tag_362:\n        /* \"#utility.yul\":16787:16890   */\n    tag_361:\n        /* \"#utility.yul\":16917:16918   */\n      0x01\n        /* \"#utility.yul\":16910:16915   */\n      dup3\n        /* \"#utility.yul\":16906:16919   */\n      add\n        /* \"#utility.yul\":16899:16919   */\n      swap1\n      pop\n        /* \"#utility.yul\":16692:16925   */\n      swap2\n      swap1\n      pop\n      jump\t// out\n\n    auxdata: 0xa264697066735822122024f06e370aec361a8555e5d06d3de2dd466b84c71906c7c76a141f42ab8c0da064736f6c634300080a0033\n}\n","bytecode":{"linkReferences":{},"object":"60806040523480156200001157600080fd5b5060405162001adb38038062001adb8339818101604052810190620000379190620003db565b82600260006101000a81548173ffffffffffffffffffffffffffffffffffffffff021916908373ffffffffffffffffffffffffffffffffffffffff1602179055506000600460006101000a81548160ff021916908315150217905550600080819055506000600460016101000a81548160ff0219169083151502179055508160019080519060200190620000cd929190620000ee565b508060058190555060006006819055506000600781905550505050620004bb565b828054620000fc9062000485565b90600052602060002090601f0160209004810192826200012057600085556200016c565b82601f106200013b57805160ff19168380011785556200016c565b828001600101855582156200016c579182015b828111156200016b5782518255916020019190600101906200014e565b5b5090506200017b91906200017f565b5090565b5b808211156200019a57600081600090555060010162000180565b5090565b6000604051905090565b600080fd5b600080fd5b600073ffffffffffffffffffffffffffffffffffffffff82169050919050565b6000620001df82620001b2565b9050919050565b620001f181620001d2565b8114620001fd57600080fd5b50565b6000815190506200021181620001e6565b92915050565b600080fd5b600080fd5b6000601f19601f8301169050919050565b7f4e487b7100000000000000000000000000000000000000000000000000000000600052604160045260246000fd5b6200026c8262000221565b810181811067ffffffffffffffff821117156200028e576200028d62000232565b5b80604052505050565b6000620002a36200019e565b9050620002b1828262000261565b919050565b600067ffffffffffffffff821115620002d457620002d362000232565b5b620002df8262000221565b9050602081019050919050565b60005b838110156200030c578082015181840152602081019050620002ef565b838111156200031c576000848401525b50505050565b6000620003396200033384620002b6565b62000297565b9050828152602081018484840111156200035857620003576200021c565b5b62000365848285620002ec565b509392505050565b600082601f83011262000385576200038462000217565b5b81516200039784826020860162000322565b91505092915050565b6000819050919050565b620003b581620003a0565b8114620003c157600080fd5b50565b600081519050620003d581620003aa565b92915050565b600080600060608486031215620003f757620003f6620001a8565b5b6000620004078682870162000200565b935050602084015167ffffffffffffffff8111156200042b576200042a620001ad565b5b62000439868287016200036d565b92505060406200044c86828701620003c4565b9150509250925092565b7f4e487b7100000000000000000000000000000000000000000000000000000000600052602260045260246000fd5b600060028204905060018216806200049e57607f821691505b60208210811415620004b557620004b462000456565b5b50919050565b61161080620004cb6000396000f3fe608060405234801561001057600080fd5b50600436106100cf5760003560e01c8063481c6a751161008c5780637cc3ae8c116100665780637cc3ae8c146101da578063a8311aa8146101f8578063cf09e0d014610216578063f21f537d14610234576100cf565b8063481c6a751461019657806356a34768146101b457806359f78468146101d0576100cf565b8063024789a9146100d457806306fdde03146101045780630c54b463146101225780630d15fd771461013e5780632c0a3f891461015c5780634717f97c14610178575b600080fd5b6100ee60048036038101906100e99190610dbe565b610252565b6040516100fb9190610f1e565b60405180910390f35b61010c6104e6565b6040516101199190610f8a565b60405180910390f35b61013c60048036038101906101379190610fac565b610574565b005b61014661063b565b6040516101539190610ffb565b60405180910390f35b61017660048036038101906101719190610fac565b610641565b005b61018061072d565b60405161018d91906110c5565b60405180910390f35b61019e6107a5565b6040516101ab9190611128565b60405180910390f35b6101ce60048036038101906101c99190611278565b6107cb565b005b6101d8610948565b005b6101e26109df565b6040516101ef9190610ffb565b60405180910390f35b6102006109e5565b60405161020d91906114b0565b60405180910390f35b61021e610c96565b60405161022b9190610ffb565b60405180910390f35b61023c610c9c565b6040516102499190610ffb565b60405180910390f35b61025a610ca2565b6000600883815481106102705761026f6114d2565b5b90600052602060002090600502019050806040518060a001604052908160008201805461029c90611530565b80601f01602080910402602001604051908101604052809291908181526020018280546102c890611530565b80156103155780601f106102ea57610100808354040283529160200191610315565b820191906000526020600020905b8154815290600101906020018083116102f857829003601f168201915b5050505050815260200160018201805461032e90611530565b80601f016020809104026020016040519081016040528092919081815260200182805461035a90611530565b80156103a75780601f1061037c576101008083540402835291602001916103a7565b820191906000526020600020905b81548152906001019060200180831161038a57829003601f168201915b50505050508152602001600282015481526020016003820180546103ca90611530565b80601f01602080910402602001604051908101604052809291908181526020018280546103f690611530565b80156104435780601f1061041857610100808354040283529160200191610443565b820191906000526020600020905b81548152906001019060200180831161042657829003601f168201915b5050505050815260200160048201805461045c90611530565b80601f016020809104026020016040519081016040528092919081815260200182805461048890611530565b80156104d55780601f106104aa576101008083540402835291602001916104d5565b820191906000526020600020905b8154815290600101906020018083116104b857829003601f168201915b505050505081525050915050919050565b600180546104f390611530565b80601f016020809104026020016040519081016040528092919081815260200182805461051f90611530565b801561056c5780601f106105415761010080835404028352916020019161056c565b820191906000526020600020905b81548152906001019060200180831161054f57829003601f168201915b505050505081565b600260009054906101000a900473ffffffffffffffffffffffffffffffffffffffff1673ffffffffffffffffffffffffffffffffffffffff163373ffffffffffffffffffffffffffffffffffffffff16146105ce57600080fd5b60001515600460009054906101000a900460ff161515146105ee57600080fd5b60001515600460019054906101000a900460ff1615151461060e57600080fd5b6001600460016101000a81548160ff02191690831515021790555081600681905550806007819055505050565b60005481565b60011515600460019054906101000a900460ff1615151461066157600080fd5b600015156003600084815260200190815260200160002060009054906101000a900460ff1615151461069257600080fd5b60001515600460009054906101000a900460ff161515146106b257600080fd5b60016003600084815260200190815260200160002060006101000a81548160ff021916908315150217905550600981815481106106f2576106f16114d2565b5b90600052602060002001600081548092919061070d90611591565b919050555060008081548092919061072490611591565b91905055505050565b606060011515600460009054906101000a900460ff1615151461074f57600080fd5b600980548060200260200160405190810160405280929190818152602001828054801561079b57602002820191906000526020600020905b815481526020019060010190808311610787575b5050505050905090565b600260009054906101000a900473ffffffffffffffffffffffffffffffffffffffff1681565b600260009054906101000a900473ffffffffffffffffffffffffffffffffffffffff1673ffffffffffffffffffffffffffffffffffffffff163373ffffffffffffffffffffffffffffffffffffffff161461082557600080fd5b600460019054906101000a900460ff161561083f57600080fd5b60006040518060a00160405280878152602001868152602001858152602001848152602001838152509050600881908060018154018082558091505060019003906000526020600020906005020160009091909190915060008201518160000190805190602001906108b2929190610cd1565b5060208201518160010190805190602001906108cf929190610cd1565b506040820151816002015560608201518160030190805190602001906108f6929190610cd1565b506080820151816004019080519060200190610913929190610cd1565b505050600960009080600181540180825580915050600190039060005260206000200160009091909190915055505050505050565b600260009054906101000a900473ffffffffffffffffffffffffffffffffffffffff1673ffffffffffffffffffffffffffffffffffffffff163373ffffffffffffffffffffffffffffffffffffffff16146109a257600080fd5b60011515600460019054906101000a900460ff161515146109c257600080fd5b6001600460006101000a81548160ff021916908315150217905550565b60075481565b60606008805480602002602001604051908101604052809291908181526020016000905b82821015610c8d57838290600052602060002090600502016040518060a0016040529081600082018054610a3c90611530565b80601f0160208091040260200160405190810160405280929190818152602001828054610a6890611530565b8015610ab55780601f10610a8a57610100808354040283529160200191610ab5565b820191906000526020600020905b815481529060010190602001808311610a9857829003601f168201915b50505050508152602001600182018054610ace90611530565b80601f0160208091040260200160405190810160405280929190818152602001828054610afa90611530565b8015610b475780601f10610b1c57610100808354040283529160200191610b47565b820191906000526020600020905b815481529060010190602001808311610b2a57829003601f168201915b5050505050815260200160028201548152602001600382018054610b6a90611530565b80601f0160208091040260200160405190810160405280929190818152602001828054610b9690611530565b8015610be35780601f10610bb857610100808354040283529160200191610be3565b820191906000526020600020905b815481529060010190602001808311610bc657829003601f168201915b50505050508152602001600482018054610bfc90611530565b80601f0160208091040260200160405190810160405280929190818152602001828054610c2890611530565b8015610c755780601f10610c4a57610100808354040283529160200191610c75565b820191906000526020600020905b815481529060010190602001808311610c5857829003601f168201915b50505050508152505081526020019060010190610a09565b50505050905090565b60055481565b60065481565b6040518060a0016040528060608152602001606081526020016000815260200160608152602001606081525090565b828054610cdd90611530565b90600052602060002090601f016020900481019282610cff5760008555610d46565b82601f10610d1857805160ff1916838001178555610d46565b82800160010185558215610d46579182015b82811115610d45578251825591602001919060010190610d2a565b5b509050610d539190610d57565b5090565b5b80821115610d70576000816000905550600101610d58565b5090565b6000604051905090565b600080fd5b600080fd5b6000819050919050565b610d9b81610d88565b8114610da657600080fd5b50565b600081359050610db881610d92565b92915050565b600060208284031215610dd457610dd3610d7e565b5b6000610de284828501610da9565b91505092915050565b600081519050919050565b600082825260208201905092915050565b60005b83811015610e25578082015181840152602081019050610e0a565b83811115610e34576000848401525b50505050565b6000601f19601f8301169050919050565b6000610e5682610deb565b610e608185610df6565b9350610e70818560208601610e07565b610e7981610e3a565b840191505092915050565b610e8d81610d88565b82525050565b600060a0830160008301518482036000860152610eb08282610e4b565b91505060208301518482036020860152610eca8282610e4b565b9150506040830151610edf6040860182610e84565b5060608301518482036060860152610ef78282610e4b565b91505060808301518482036080860152610f118282610e4b565b9150508091505092915050565b60006020820190508181036000830152610f388184610e93565b905092915050565b600082825260208201905092915050565b6000610f5c82610deb565b610f668185610f40565b9350610f76818560208601610e07565b610f7f81610e3a565b840191505092915050565b60006020820190508181036000830152610fa48184610f51565b905092915050565b60008060408385031215610fc357610fc2610d7e565b5b6000610fd185828601610da9565b9250506020610fe285828601610da9565b9150509250929050565b610ff581610d88565b82525050565b60006020820190506110106000830184610fec565b92915050565b600081519050919050565b600082825260208201905092915050565b6000819050602082019050919050565b600061104e8383610e84565b60208301905092915050565b6000602082019050919050565b600061107282611016565b61107c8185611021565b935061108783611032565b8060005b838110156110b857815161109f8882611042565b97506110aa8361105a565b92505060018101905061108b565b5085935050505092915050565b600060208201905081810360008301526110df8184611067565b905092915050565b600073ffffffffffffffffffffffffffffffffffffffff82169050919050565b6000611112826110e7565b9050919050565b61112281611107565b82525050565b600060208201905061113d6000830184611119565b92915050565b600080fd5b600080fd5b7f4e487b7100000000000000000000000000000000000000000000000000000000600052604160045260246000fd5b61118582610e3a565b810181811067ffffffffffffffff821117156111a4576111a361114d565b5b80604052505050565b60006111b7610d74565b90506111c3828261117c565b919050565b600067ffffffffffffffff8211156111e3576111e261114d565b5b6111ec82610e3a565b9050602081019050919050565b82818337600083830152505050565b600061121b611216846111c8565b6111ad565b90508281526020810184848401111561123757611236611148565b5b6112428482856111f9565b509392505050565b600082601f83011261125f5761125e611143565b5b813561126f848260208601611208565b91505092915050565b600080600080600060a0868803121561129457611293610d7e565b5b600086013567ffffffffffffffff8111156112b2576112b1610d83565b5b6112be8882890161124a565b955050602086013567ffffffffffffffff8111156112df576112de610d83565b5b6112eb8882890161124a565b94505060406112fc88828901610da9565b935050606086013567ffffffffffffffff81111561131d5761131c610d83565b5b6113298882890161124a565b925050608086013567ffffffffffffffff81111561134a57611349610d83565b5b6113568882890161124a565b9150509295509295909350565b600081519050919050565b600082825260208201905092915050565b6000819050602082019050919050565b600060a08301600083015184820360008601526113ac8282610e4b565b915050602083015184820360208601526113c68282610e4b565b91505060408301516113db6040860182610e84565b50606083015184820360608601526113f38282610e4b565b9150506080830151848203608086015261140d8282610e4b565b9150508091505092915050565b6000611426838361138f565b905092915050565b6000602082019050919050565b600061144682611363565b611450818561136e565b9350836020820285016114628561137f565b8060005b8581101561149e578484038952815161147f858261141a565b945061148a8361142e565b925060208a01995050600181019050611466565b50829750879550505050505092915050565b600060208201905081810360008301526114ca818461143b565b905092915050565b7f4e487b7100000000000000000000000000000000000000000000000000000000600052603260045260246000fd5b7f4e487b7100000000000000000000000000000000000000000000000000000000600052602260045260246000fd5b6000600282049050600182168061154857607f821691505b6020821081141561155c5761155b611501565b5b50919050565b7f4e487b7100000000000000000000000000000000000000000000000000000000600052601160045260246000fd5b600061159c82610d88565b91507fffffffffffffffffffffffffffffffffffffffffffffffffffffffffffffffff8214156115cf576115ce611562565b5b60018201905091905056fea264697066735822122024f06e370aec361a8555e5d06d3de2dd466b84c71906c7c76a141f42ab8c0da064736f6c634300080a0033","opcodes":"PUSH1 0x80 PUSH1 0x40 MSTORE CALLVALUE DUP1 ISZERO PUSH3 0x11 JUMPI PUSH1 0x0 DUP1 REVERT JUMPDEST POP PUSH1 0x40 MLOAD PUSH3 0x1ADB CODESIZE SUB DUP1 PUSH3 0x1ADB DUP4 CODECOPY DUP2 DUP2 ADD PUSH1 0x40 MSTORE DUP2 ADD SWAP1 PUSH3 0x37 SWAP2 SWAP1 PUSH3 0x3DB JUMP JUMPDEST DUP3 PUSH1 0x2 PUSH1 0x0 PUSH2 0x100 EXP DUP2 SLOAD DUP2 PUSH20 0xFFFFFFFFFFFFFFFFFFFFFFFFFFFFFFFFFFFFFFFF MUL NOT AND SWAP1 DUP4 PUSH20 0xFFFFFFFFFFFFFFFFFFFFFFFFFFFFFFFFFFFFFFFF AND MUL OR SWAP1 SSTORE POP PUSH1 0x0 PUSH1 0x4 PUSH1 0x0 PUSH2 0x100 EXP DUP2 SLOAD DUP2 PUSH1 0xFF MUL NOT AND SWAP1 DUP4 ISZERO ISZERO MUL OR SWAP1 SSTORE POP PUSH1 0x0 DUP1 DUP2 SWAP1 SSTORE POP PUSH1 0x0 PUSH1 0x4 PUSH1 0x1 PUSH2 0x100 EXP DUP2 SLOAD DUP2 PUSH1 0xFF MUL NOT AND SWAP1 DUP4 ISZERO ISZERO MUL OR SWAP1 SSTORE POP DUP2 PUSH1 0x1 SWAP1 DUP1 MLOAD SWAP1 PUSH1 0x20 ADD SWAP1 PUSH3 0xCD SWAP3 SWAP2 SWAP1 PUSH3 0xEE JUMP JUMPDEST POP DUP1 PUSH1 0x5 DUP2 SWAP1 SSTORE POP PUSH1 0x0 PUSH1 0x6 DUP2 SWAP1 SSTORE POP PUSH1 0x0 PUSH1 0x7 DUP2 SWAP1 SSTORE POP POP POP POP PUSH3 0x4BB JUMP JUMPDEST DUP3 DUP1 SLOAD PUSH3 0xFC SWAP1 PUSH3 0x485 JUMP JUMPDEST SWAP1 PUSH1 0x0 MSTORE PUSH1 0x20 PUSH1 0x0 KECCAK256 SWAP1 PUSH1 0x1F ADD PUSH1 0x20 SWAP1 DIV DUP2 ADD SWAP3 DUP3 PUSH3 0x120 JUMPI PUSH1 0x0 DUP6 SSTORE PUSH3 0x16C JUMP JUMPDEST DUP3 PUSH1 0x1F LT PUSH3 0x13B JUMPI DUP1 MLOAD PUSH1 0xFF NOT AND DUP4 DUP1 ADD OR DUP6 SSTORE PUSH3 0x16C JUMP JUMPDEST DUP3 DUP1 ADD PUSH1 0x1 ADD DUP6 SSTORE DUP3 ISZERO PUSH3 0x16C JUMPI SWAP2 DUP3 ADD JUMPDEST DUP3 DUP2 GT ISZERO PUSH3 0x16B JUMPI DUP3 MLOAD DUP3 SSTORE SWAP2 PUSH1 0x20 ADD SWAP2 SWAP1 PUSH1 0x1 ADD SWAP1 PUSH3 0x14E JUMP JUMPDEST JUMPDEST POP SWAP1 POP PUSH3 0x17B SWAP2 SWAP1 PUSH3 0x17F JUMP JUMPDEST POP SWAP1 JUMP JUMPDEST JUMPDEST DUP1 DUP3 GT ISZERO PUSH3 0x19A JUMPI PUSH1 0x0 DUP2 PUSH1 0x0 SWAP1 SSTORE POP PUSH1 0x1 ADD PUSH3 0x180 JUMP JUMPDEST POP SWAP1 JUMP JUMPDEST PUSH1 0x0 PUSH1 0x40 MLOAD SWAP1 POP SWAP1 JUMP JUMPDEST PUSH1 0x0 DUP1 REVERT JUMPDEST PUSH1 0x0 DUP1 REVERT JUMPDEST PUSH1 0x0 PUSH20 0xFFFFFFFFFFFFFFFFFFFFFFFFFFFFFFFFFFFFFFFF DUP3 AND SWAP1 POP SWAP2 SWAP1 POP JUMP JUMPDEST PUSH1 0x0 PUSH3 0x1DF DUP3 PUSH3 0x1B2 JUMP JUMPDEST SWAP1 POP SWAP2 SWAP1 POP JUMP JUMPDEST PUSH3 0x1F1 DUP2 PUSH3 0x1D2 JUMP JUMPDEST DUP2 EQ PUSH3 0x1FD JUMPI PUSH1 0x0 DUP1 REVERT JUMPDEST POP JUMP JUMPDEST PUSH1 0x0 DUP2 MLOAD SWAP1 POP PUSH3 0x211 DUP2 PUSH3 0x1E6 JUMP JUMPDEST SWAP3 SWAP2 POP POP JUMP JUMPDEST PUSH1 0x0 DUP1 REVERT JUMPDEST PUSH1 0x0 DUP1 REVERT JUMPDEST PUSH1 0x0 PUSH1 0x1F NOT PUSH1 0x1F DUP4 ADD AND SWAP1 POP SWAP2 SWAP1 POP JUMP JUMPDEST PUSH32 0x4E487B7100000000000000000000000000000000000000000000000000000000 PUSH1 0x0 MSTORE PUSH1 0x41 PUSH1 0x4 MSTORE PUSH1 0x24 PUSH1 0x0 REVERT JUMPDEST PUSH3 0x26C DUP3 PUSH3 0x221 JUMP JUMPDEST DUP2 ADD DUP2 DUP2 LT PUSH8 0xFFFFFFFFFFFFFFFF DUP3 GT OR ISZERO PUSH3 0x28E JUMPI PUSH3 0x28D PUSH3 0x232 JUMP JUMPDEST JUMPDEST DUP1 PUSH1 0x40 MSTORE POP POP POP JUMP JUMPDEST PUSH1 0x0 PUSH3 0x2A3 PUSH3 0x19E JUMP JUMPDEST SWAP1 POP PUSH3 0x2B1 DUP3 DUP3 PUSH3 0x261 JUMP JUMPDEST SWAP2 SWAP1 POP JUMP JUMPDEST PUSH1 0x0 PUSH8 0xFFFFFFFFFFFFFFFF DUP3 GT ISZERO PUSH3 0x2D4 JUMPI PUSH3 0x2D3 PUSH3 0x232 JUMP JUMPDEST JUMPDEST PUSH3 0x2DF DUP3 PUSH3 0x221 JUMP JUMPDEST SWAP1 POP PUSH1 0x20 DUP2 ADD SWAP1 POP SWAP2 SWAP1 POP JUMP JUMPDEST PUSH1 0x0 JUMPDEST DUP4 DUP2 LT ISZERO PUSH3 0x30C JUMPI DUP1 DUP3 ADD MLOAD DUP2 DUP5 ADD MSTORE PUSH1 0x20 DUP2 ADD SWAP1 POP PUSH3 0x2EF JUMP JUMPDEST DUP4 DUP2 GT ISZERO PUSH3 0x31C JUMPI PUSH1 0x0 DUP5 DUP5 ADD MSTORE JUMPDEST POP POP POP POP JUMP JUMPDEST PUSH1 0x0 PUSH3 0x339 PUSH3 0x333 DUP5 PUSH3 0x2B6 JUMP JUMPDEST PUSH3 0x297 JUMP JUMPDEST SWAP1 POP DUP3 DUP2 MSTORE PUSH1 0x20 DUP2 ADD DUP5 DUP5 DUP5 ADD GT ISZERO PUSH3 0x358 JUMPI PUSH3 0x357 PUSH3 0x21C JUMP JUMPDEST JUMPDEST PUSH3 0x365 DUP5 DUP3 DUP6 PUSH3 0x2EC JUMP JUMPDEST POP SWAP4 SWAP3 POP POP POP JUMP JUMPDEST PUSH1 0x0 DUP3 PUSH1 0x1F DUP4 ADD SLT PUSH3 0x385 JUMPI PUSH3 0x384 PUSH3 0x217 JUMP JUMPDEST JUMPDEST DUP2 MLOAD PUSH3 0x397 DUP5 DUP3 PUSH1 0x20 DUP7 ADD PUSH3 0x322 JUMP JUMPDEST SWAP2 POP POP SWAP3 SWAP2 POP POP JUMP JUMPDEST PUSH1 0x0 DUP2 SWAP1 POP SWAP2 SWAP1 POP JUMP JUMPDEST PUSH3 0x3B5 DUP2 PUSH3 0x3A0 JUMP JUMPDEST DUP2 EQ PUSH3 0x3C1 JUMPI PUSH1 0x0 DUP1 REVERT JUMPDEST POP JUMP JUMPDEST PUSH1 0x0 DUP2 MLOAD SWAP1 POP PUSH3 0x3D5 DUP2 PUSH3 0x3AA JUMP JUMPDEST SWAP3 SWAP2 POP POP JUMP JUMPDEST PUSH1 0x0 DUP1 PUSH1 0x0 PUSH1 0x60 DUP5 DUP7 SUB SLT ISZERO PUSH3 0x3F7 JUMPI PUSH3 0x3F6 PUSH3 0x1A8 JUMP JUMPDEST JUMPDEST PUSH1 0x0 PUSH3 0x407 DUP7 DUP3 DUP8 ADD PUSH3 0x200 JUMP JUMPDEST SWAP4 POP POP PUSH1 0x20 DUP5 ADD MLOAD PUSH8 0xFFFFFFFFFFFFFFFF DUP2 GT ISZERO PUSH3 0x42B JUMPI PUSH3 0x42A PUSH3 0x1AD JUMP JUMPDEST JUMPDEST PUSH3 0x439 DUP7 DUP3 DUP8 ADD PUSH3 0x36D JUMP JUMPDEST SWAP3 POP POP PUSH1 0x40 PUSH3 0x44C DUP7 DUP3 DUP8 ADD PUSH3 0x3C4 JUMP JUMPDEST SWAP2 POP POP SWAP3 POP SWAP3 POP SWAP3 JUMP JUMPDEST PUSH32 0x4E487B7100000000000000000000000000000000000000000000000000000000 PUSH1 0x0 MSTORE PUSH1 0x22 PUSH1 0x4 MSTORE PUSH1 0x24 PUSH1 0x0 REVERT JUMPDEST PUSH1 0x0 PUSH1 0x2 DUP3 DIV SWAP1 POP PUSH1 0x1 DUP3 AND DUP1 PUSH3 0x49E JUMPI PUSH1 0x7F DUP3 AND SWAP2 POP JUMPDEST PUSH1 0x20 DUP3 LT DUP2 EQ ISZERO PUSH3 0x4B5 JUMPI PUSH3 0x4B4 PUSH3 0x456 JUMP JUMPDEST JUMPDEST POP SWAP2 SWAP1 POP JUMP JUMPDEST PUSH2 0x1610 DUP1 PUSH3 0x4CB PUSH1 0x0 CODECOPY PUSH1 0x0 RETURN INVALID PUSH1 0x80 PUSH1 0x40 MSTORE CALLVALUE DUP1 ISZERO PUSH2 0x10 JUMPI PUSH1 0x0 DUP1 REVERT JUMPDEST POP PUSH1 0x4 CALLDATASIZE LT PUSH2 0xCF JUMPI PUSH1 0x0 CALLDATALOAD PUSH1 0xE0 SHR DUP1 PUSH4 0x481C6A75 GT PUSH2 0x8C JUMPI DUP1 PUSH4 0x7CC3AE8C GT PUSH2 0x66 JUMPI DUP1 PUSH4 0x7CC3AE8C EQ PUSH2 0x1DA JUMPI DUP1 PUSH4 0xA8311AA8 EQ PUSH2 0x1F8 JUMPI DUP1 PUSH4 0xCF09E0D0 EQ PUSH2 0x216 JUMPI DUP1 PUSH4 0xF21F537D EQ PUSH2 0x234 JUMPI PUSH2 0xCF JUMP JUMPDEST DUP1 PUSH4 0x481C6A75 EQ PUSH2 0x196 JUMPI DUP1 PUSH4 0x56A34768 EQ PUSH2 0x1B4 JUMPI DUP1 PUSH4 0x59F78468 EQ PUSH2 0x1D0 JUMPI PUSH2 0xCF JUMP JUMPDEST DUP1 PUSH4 0x24789A9 EQ PUSH2 0xD4 JUMPI DUP1 PUSH4 0x6FDDE03 EQ PUSH2 0x104 JUMPI DUP1 PUSH4 0xC54B463 EQ PUSH2 0x122 JUMPI DUP1 PUSH4 0xD15FD77 EQ PUSH2 0x13E JUMPI DUP1 PUSH4 0x2C0A3F89 EQ PUSH2 0x15C JUMPI DUP1 PUSH4 0x4717F97C EQ PUSH2 0x178 JUMPI JUMPDEST PUSH1 0x0 DUP1 REVERT JUMPDEST PUSH2 0xEE PUSH1 0x4 DUP1 CALLDATASIZE SUB DUP2 ADD SWAP1 PUSH2 0xE9 SWAP2 SWAP1 PUSH2 0xDBE JUMP JUMPDEST PUSH2 0x252 JUMP JUMPDEST PUSH1 0x40 MLOAD PUSH2 0xFB SWAP2 SWAP1 PUSH2 0xF1E JUMP JUMPDEST PUSH1 0x40 MLOAD DUP1 SWAP2 SUB SWAP1 RETURN JUMPDEST PUSH2 0x10C PUSH2 0x4E6 JUMP JUMPDEST PUSH1 0x40 MLOAD PUSH2 0x119 SWAP2 SWAP1 PUSH2 0xF8A JUMP JUMPDEST PUSH1 0x40 MLOAD DUP1 SWAP2 SUB SWAP1 RETURN JUMPDEST PUSH2 0x13C PUSH1 0x4 DUP1 CALLDATASIZE SUB DUP2 ADD SWAP1 PUSH2 0x137 SWAP2 SWAP1 PUSH2 0xFAC JUMP JUMPDEST PUSH2 0x574 JUMP JUMPDEST STOP JUMPDEST PUSH2 0x146 PUSH2 0x63B JUMP JUMPDEST PUSH1 0x40 MLOAD PUSH2 0x153 SWAP2 SWAP1 PUSH2 0xFFB JUMP JUMPDEST PUSH1 0x40 MLOAD DUP1 SWAP2 SUB SWAP1 RETURN JUMPDEST PUSH2 0x176 PUSH1 0x4 DUP1 CALLDATASIZE SUB DUP2 ADD SWAP1 PUSH2 0x171 SWAP2 SWAP1 PUSH2 0xFAC JUMP JUMPDEST PUSH2 0x641 JUMP JUMPDEST STOP JUMPDEST PUSH2 0x180 PUSH2 0x72D JUMP JUMPDEST PUSH1 0x40 MLOAD PUSH2 0x18D SWAP2 SWAP1 PUSH2 0x10C5 JUMP JUMPDEST PUSH1 0x40 MLOAD DUP1 SWAP2 SUB SWAP1 RETURN JUMPDEST PUSH2 0x19E PUSH2 0x7A5 JUMP JUMPDEST PUSH1 0x40 MLOAD PUSH2 0x1AB SWAP2 SWAP1 PUSH2 0x1128 JUMP JUMPDEST PUSH1 0x40 MLOAD DUP1 SWAP2 SUB SWAP1 RETURN JUMPDEST PUSH2 0x1CE PUSH1 0x4 DUP1 CALLDATASIZE SUB DUP2 ADD SWAP1 PUSH2 0x1C9 SWAP2 SWAP1 PUSH2 0x1278 JUMP JUMPDEST PUSH2 0x7CB JUMP JUMPDEST STOP JUMPDEST PUSH2 0x1D8 PUSH2 0x948 JUMP JUMPDEST STOP JUMPDEST PUSH2 0x1E2 PUSH2 0x9DF JUMP JUMPDEST PUSH1 0x40 MLOAD PUSH2 0x1EF SWAP2 SWAP1 PUSH2 0xFFB JUMP JUMPDEST PUSH1 0x40 MLOAD DUP1 SWAP2 SUB SWAP1 RETURN JUMPDEST PUSH2 0x200 PUSH2 0x9E5 JUMP JUMPDEST PUSH1 0x40 MLOAD PUSH2 0x20D SWAP2 SWAP1 PUSH2 0x14B0 JUMP JUMPDEST PUSH1 0x40 MLOAD DUP1 SWAP2 SUB SWAP1 RETURN JUMPDEST PUSH2 0x21E PUSH2 0xC96 JUMP JUMPDEST PUSH1 0x40 MLOAD PUSH2 0x22B SWAP2 SWAP1 PUSH2 0xFFB JUMP JUMPDEST PUSH1 0x40 MLOAD DUP1 SWAP2 SUB SWAP1 RETURN JUMPDEST PUSH2 0x23C PUSH2 0xC9C JUMP JUMPDEST PUSH1 0x40 MLOAD PUSH2 0x249 SWAP2 SWAP1 PUSH2 0xFFB JUMP JUMPDEST PUSH1 0x40 MLOAD DUP1 SWAP2 SUB SWAP1 RETURN JUMPDEST PUSH2 0x25A PUSH2 0xCA2 JUMP JUMPDEST PUSH1 0x0 PUSH1 0x8 DUP4 DUP2 SLOAD DUP2 LT PUSH2 0x270 JUMPI PUSH2 0x26F PUSH2 0x14D2 JUMP JUMPDEST JUMPDEST SWAP1 PUSH1 0x0 MSTORE PUSH1 0x20 PUSH1 0x0 KECCAK256 SWAP1 PUSH1 0x5 MUL ADD SWAP1 POP DUP1 PUSH1 0x40 MLOAD DUP1 PUSH1 0xA0 ADD PUSH1 0x40 MSTORE SWAP1 DUP2 PUSH1 0x0 DUP3 ADD DUP1 SLOAD PUSH2 0x29C SWAP1 PUSH2 0x1530 JUMP JUMPDEST DUP1 PUSH1 0x1F ADD PUSH1 0x20 DUP1 SWAP2 DIV MUL PUSH1 0x20 ADD PUSH1 0x40 MLOAD SWAP1 DUP2 ADD PUSH1 0x40 MSTORE DUP1 SWAP3 SWAP2 SWAP1 DUP2 DUP2 MSTORE PUSH1 0x20 ADD DUP3 DUP1 SLOAD PUSH2 0x2C8 SWAP1 PUSH2 0x1530 JUMP JUMPDEST DUP1 ISZERO PUSH2 0x315 JUMPI DUP1 PUSH1 0x1F LT PUSH2 0x2EA JUMPI PUSH2 0x100 DUP1 DUP4 SLOAD DIV MUL DUP4 MSTORE SWAP2 PUSH1 0x20 ADD SWAP2 PUSH2 0x315 JUMP JUMPDEST DUP3 ADD SWAP2 SWAP1 PUSH1 0x0 MSTORE PUSH1 0x20 PUSH1 0x0 KECCAK256 SWAP1 JUMPDEST DUP2 SLOAD DUP2 MSTORE SWAP1 PUSH1 0x1 ADD SWAP1 PUSH1 0x20 ADD DUP1 DUP4 GT PUSH2 0x2F8 JUMPI DUP3 SWAP1 SUB PUSH1 0x1F AND DUP3 ADD SWAP2 JUMPDEST POP POP POP POP POP DUP2 MSTORE PUSH1 0x20 ADD PUSH1 0x1 DUP3 ADD DUP1 SLOAD PUSH2 0x32E SWAP1 PUSH2 0x1530 JUMP JUMPDEST DUP1 PUSH1 0x1F ADD PUSH1 0x20 DUP1 SWAP2 DIV MUL PUSH1 0x20 ADD PUSH1 0x40 MLOAD SWAP1 DUP2 ADD PUSH1 0x40 MSTORE DUP1 SWAP3 SWAP2 SWAP1 DUP2 DUP2 MSTORE PUSH1 0x20 ADD DUP3 DUP1 SLOAD PUSH2 0x35A SWAP1 PUSH2 0x1530 JUMP JUMPDEST DUP1 ISZERO PUSH2 0x3A7 JUMPI DUP1 PUSH1 0x1F LT PUSH2 0x37C JUMPI PUSH2 0x100 DUP1 DUP4 SLOAD DIV MUL DUP4 MSTORE SWAP2 PUSH1 0x20 ADD SWAP2 PUSH2 0x3A7 JUMP JUMPDEST DUP3 ADD SWAP2 SWAP1 PUSH1 0x0 MSTORE PUSH1 0x20 PUSH1 0x0 KECCAK256 SWAP1 JUMPDEST DUP2 SLOAD DUP2 MSTORE SWAP1 PUSH1 0x1 ADD SWAP1 PUSH1 0x20 ADD DUP1 DUP4 GT PUSH2 0x38A JUMPI DUP3 SWAP1 SUB PUSH1 0x1F AND DUP3 ADD SWAP2 JUMPDEST POP POP POP POP POP DUP2 MSTORE PUSH1 0x20 ADD PUSH1 0x2 DUP3 ADD SLOAD DUP2 MSTORE PUSH1 0x20 ADD PUSH1 0x3 DUP3 ADD DUP1 SLOAD PUSH2 0x3CA SWAP1 PUSH2 0x1530 JUMP JUMPDEST DUP1 PUSH1 0x1F ADD PUSH1 0x20 DUP1 SWAP2 DIV MUL PUSH1 0x20 ADD PUSH1 0x40 MLOAD SWAP1 DUP2 ADD PUSH1 0x40 MSTORE DUP1 SWAP3 SWAP2 SWAP1 DUP2 DUP2 MSTORE PUSH1 0x20 ADD DUP3 DUP1 SLOAD PUSH2 0x3F6 SWAP1 PUSH2 0x1530 JUMP JUMPDEST DUP1 ISZERO PUSH2 0x443 JUMPI DUP1 PUSH1 0x1F LT PUSH2 0x418 JUMPI PUSH2 0x100 DUP1 DUP4 SLOAD DIV MUL DUP4 MSTORE SWAP2 PUSH1 0x20 ADD SWAP2 PUSH2 0x443 JUMP JUMPDEST DUP3 ADD SWAP2 SWAP1 PUSH1 0x0 MSTORE PUSH1 0x20 PUSH1 0x0 KECCAK256 SWAP1 JUMPDEST DUP2 SLOAD DUP2 MSTORE SWAP1 PUSH1 0x1 ADD SWAP1 PUSH1 0x20 ADD DUP1 DUP4 GT PUSH2 0x426 JUMPI DUP3 SWAP1 SUB PUSH1 0x1F AND DUP3 ADD SWAP2 JUMPDEST POP POP POP POP POP DUP2 MSTORE PUSH1 0x20 ADD PUSH1 0x4 DUP3 ADD DUP1 SLOAD PUSH2 0x45C SWAP1 PUSH2 0x1530 JUMP JUMPDEST DUP1 PUSH1 0x1F ADD PUSH1 0x20 DUP1 SWAP2 DIV MUL PUSH1 0x20 ADD PUSH1 0x40 MLOAD SWAP1 DUP2 ADD PUSH1 0x40 MSTORE DUP1 SWAP3 SWAP2 SWAP1 DUP2 DUP2 MSTORE PUSH1 0x20 ADD DUP3 DUP1 SLOAD PUSH2 0x488 SWAP1 PUSH2 0x1530 JUMP JUMPDEST DUP1 ISZERO PUSH2 0x4D5 JUMPI DUP1 PUSH1 0x1F LT PUSH2 0x4AA JUMPI PUSH2 0x100 DUP1 DUP4 SLOAD DIV MUL DUP4 MSTORE SWAP2 PUSH1 0x20 ADD SWAP2 PUSH2 0x4D5 JUMP JUMPDEST DUP3 ADD SWAP2 SWAP1 PUSH1 0x0 MSTORE PUSH1 0x20 PUSH1 0x0 KECCAK256 SWAP1 JUMPDEST DUP2 SLOAD DUP2 MSTORE SWAP1 PUSH1 0x1 ADD SWAP1 PUSH1 0x20 ADD DUP1 DUP4 GT PUSH2 0x4B8 JUMPI DUP3 SWAP1 SUB PUSH1 0x1F AND DUP3 ADD SWAP2 JUMPDEST POP POP POP POP POP DUP2 MSTORE POP POP SWAP2 POP POP SWAP2 SWAP1 POP JUMP JUMPDEST PUSH1 0x1 DUP1 SLOAD PUSH2 0x4F3 SWAP1 PUSH2 0x1530 JUMP JUMPDEST DUP1 PUSH1 0x1F ADD PUSH1 0x20 DUP1 SWAP2 DIV MUL PUSH1 0x20 ADD PUSH1 0x40 MLOAD SWAP1 DUP2 ADD PUSH1 0x40 MSTORE DUP1 SWAP3 SWAP2 SWAP1 DUP2 DUP2 MSTORE PUSH1 0x20 ADD DUP3 DUP1 SLOAD PUSH2 0x51F SWAP1 PUSH2 0x1530 JUMP JUMPDEST DUP1 ISZERO PUSH2 0x56C JUMPI DUP1 PUSH1 0x1F LT PUSH2 0x541 JUMPI PUSH2 0x100 DUP1 DUP4 SLOAD DIV MUL DUP4 MSTORE SWAP2 PUSH1 0x20 ADD SWAP2 PUSH2 0x56C JUMP JUMPDEST DUP3 ADD SWAP2 SWAP1 PUSH1 0x0 MSTORE PUSH1 0x20 PUSH1 0x0 KECCAK256 SWAP1 JUMPDEST DUP2 SLOAD DUP2 MSTORE SWAP1 PUSH1 0x1 ADD SWAP1 PUSH1 0x20 ADD DUP1 DUP4 GT PUSH2 0x54F JUMPI DUP3 SWAP1 SUB PUSH1 0x1F AND DUP3 ADD SWAP2 JUMPDEST POP POP POP POP POP DUP2 JUMP JUMPDEST PUSH1 0x2 PUSH1 0x0 SWAP1 SLOAD SWAP1 PUSH2 0x100 EXP SWAP1 DIV PUSH20 0xFFFFFFFFFFFFFFFFFFFFFFFFFFFFFFFFFFFFFFFF AND PUSH20 0xFFFFFFFFFFFFFFFFFFFFFFFFFFFFFFFFFFFFFFFF AND CALLER PUSH20 0xFFFFFFFFFFFFFFFFFFFFFFFFFFFFFFFFFFFFFFFF AND EQ PUSH2 0x5CE JUMPI PUSH1 0x0 DUP1 REVERT JUMPDEST PUSH1 0x0 ISZERO ISZERO PUSH1 0x4 PUSH1 0x0 SWAP1 SLOAD SWAP1 PUSH2 0x100 EXP SWAP1 DIV PUSH1 0xFF AND ISZERO ISZERO EQ PUSH2 0x5EE JUMPI PUSH1 0x0 DUP1 REVERT JUMPDEST PUSH1 0x0 ISZERO ISZERO PUSH1 0x4 PUSH1 0x1 SWAP1 SLOAD SWAP1 PUSH2 0x100 EXP SWAP1 DIV PUSH1 0xFF AND ISZERO ISZERO EQ PUSH2 0x60E JUMPI PUSH1 0x0 DUP1 REVERT JUMPDEST PUSH1 0x1 PUSH1 0x4 PUSH1 0x1 PUSH2 0x100 EXP DUP2 SLOAD DUP2 PUSH1 0xFF MUL NOT AND SWAP1 DUP4 ISZERO ISZERO MUL OR SWAP1 SSTORE POP DUP2 PUSH1 0x6 DUP2 SWAP1 SSTORE POP DUP1 PUSH1 0x7 DUP2 SWAP1 SSTORE POP POP POP JUMP JUMPDEST PUSH1 0x0 SLOAD DUP2 JUMP JUMPDEST PUSH1 0x1 ISZERO ISZERO PUSH1 0x4 PUSH1 0x1 SWAP1 SLOAD SWAP1 PUSH2 0x100 EXP SWAP1 DIV PUSH1 0xFF AND ISZERO ISZERO EQ PUSH2 0x661 JUMPI PUSH1 0x0 DUP1 REVERT JUMPDEST PUSH1 0x0 ISZERO ISZERO PUSH1 0x3 PUSH1 0x0 DUP5 DUP2 MSTORE PUSH1 0x20 ADD SWAP1 DUP2 MSTORE PUSH1 0x20 ADD PUSH1 0x0 KECCAK256 PUSH1 0x0 SWAP1 SLOAD SWAP1 PUSH2 0x100 EXP SWAP1 DIV PUSH1 0xFF AND ISZERO ISZERO EQ PUSH2 0x692 JUMPI PUSH1 0x0 DUP1 REVERT JUMPDEST PUSH1 0x0 ISZERO ISZERO PUSH1 0x4 PUSH1 0x0 SWAP1 SLOAD SWAP1 PUSH2 0x100 EXP SWAP1 DIV PUSH1 0xFF AND ISZERO ISZERO EQ PUSH2 0x6B2 JUMPI PUSH1 0x0 DUP1 REVERT JUMPDEST PUSH1 0x1 PUSH1 0x3 PUSH1 0x0 DUP5 DUP2 MSTORE PUSH1 0x20 ADD SWAP1 DUP2 MSTORE PUSH1 0x20 ADD PUSH1 0x0 KECCAK256 PUSH1 0x0 PUSH2 0x100 EXP DUP2 SLOAD DUP2 PUSH1 0xFF MUL NOT AND SWAP1 DUP4 ISZERO ISZERO MUL OR SWAP1 SSTORE POP PUSH1 0x9 DUP2 DUP2 SLOAD DUP2 LT PUSH2 0x6F2 JUMPI PUSH2 0x6F1 PUSH2 0x14D2 JUMP JUMPDEST JUMPDEST SWAP1 PUSH1 0x0 MSTORE PUSH1 0x20 PUSH1 0x0 KECCAK256 ADD PUSH1 0x0 DUP2 SLOAD DUP1 SWAP3 SWAP2 SWAP1 PUSH2 0x70D SWAP1 PUSH2 0x1591 JUMP JUMPDEST SWAP2 SWAP1 POP SSTORE POP PUSH1 0x0 DUP1 DUP2 SLOAD DUP1 SWAP3 SWAP2 SWAP1 PUSH2 0x724 SWAP1 PUSH2 0x1591 JUMP JUMPDEST SWAP2 SWAP1 POP SSTORE POP POP POP JUMP JUMPDEST PUSH1 0x60 PUSH1 0x1 ISZERO ISZERO PUSH1 0x4 PUSH1 0x0 SWAP1 SLOAD SWAP1 PUSH2 0x100 EXP SWAP1 DIV PUSH1 0xFF AND ISZERO ISZERO EQ PUSH2 0x74F JUMPI PUSH1 0x0 DUP1 REVERT JUMPDEST PUSH1 0x9 DUP1 SLOAD DUP1 PUSH1 0x20 MUL PUSH1 0x20 ADD PUSH1 0x40 MLOAD SWAP1 DUP2 ADD PUSH1 0x40 MSTORE DUP1 SWAP3 SWAP2 SWAP1 DUP2 DUP2 MSTORE PUSH1 0x20 ADD DUP3 DUP1 SLOAD DUP1 ISZERO PUSH2 0x79B JUMPI PUSH1 0x20 MUL DUP3 ADD SWAP2 SWAP1 PUSH1 0x0 MSTORE PUSH1 0x20 PUSH1 0x0 KECCAK256 SWAP1 JUMPDEST DUP2 SLOAD DUP2 MSTORE PUSH1 0x20 ADD SWAP1 PUSH1 0x1 ADD SWAP1 DUP1 DUP4 GT PUSH2 0x787 JUMPI JUMPDEST POP POP POP POP POP SWAP1 POP SWAP1 JUMP JUMPDEST PUSH1 0x2 PUSH1 0x0 SWAP1 SLOAD SWAP1 PUSH2 0x100 EXP SWAP1 DIV PUSH20 0xFFFFFFFFFFFFFFFFFFFFFFFFFFFFFFFFFFFFFFFF AND DUP2 JUMP JUMPDEST PUSH1 0x2 PUSH1 0x0 SWAP1 SLOAD SWAP1 PUSH2 0x100 EXP SWAP1 DIV PUSH20 0xFFFFFFFFFFFFFFFFFFFFFFFFFFFFFFFFFFFFFFFF AND PUSH20 0xFFFFFFFFFFFFFFFFFFFFFFFFFFFFFFFFFFFFFFFF AND CALLER PUSH20 0xFFFFFFFFFFFFFFFFFFFFFFFFFFFFFFFFFFFFFFFF AND EQ PUSH2 0x825 JUMPI PUSH1 0x0 DUP1 REVERT JUMPDEST PUSH1 0x4 PUSH1 0x1 SWAP1 SLOAD SWAP1 PUSH2 0x100 EXP SWAP1 DIV PUSH1 0xFF AND ISZERO PUSH2 0x83F JUMPI PUSH1 0x0 DUP1 REVERT JUMPDEST PUSH1 0x0 PUSH1 0x40 MLOAD DUP1 PUSH1 0xA0 ADD PUSH1 0x40 MSTORE DUP1 DUP8 DUP2 MSTORE PUSH1 0x20 ADD DUP7 DUP2 MSTORE PUSH1 0x20 ADD DUP6 DUP2 MSTORE PUSH1 0x20 ADD DUP5 DUP2 MSTORE PUSH1 0x20 ADD DUP4 DUP2 MSTORE POP SWAP1 POP PUSH1 0x8 DUP2 SWAP1 DUP1 PUSH1 0x1 DUP2 SLOAD ADD DUP1 DUP3 SSTORE DUP1 SWAP2 POP POP PUSH1 0x1 SWAP1 SUB SWAP1 PUSH1 0x0 MSTORE PUSH1 0x20 PUSH1 0x0 KECCAK256 SWAP1 PUSH1 0x5 MUL ADD PUSH1 0x0 SWAP1 SWAP2 SWAP1 SWAP2 SWAP1 SWAP2 POP PUSH1 0x0 DUP3 ADD MLOAD DUP2 PUSH1 0x0 ADD SWAP1 DUP1 MLOAD SWAP1 PUSH1 0x20 ADD SWAP1 PUSH2 0x8B2 SWAP3 SWAP2 SWAP1 PUSH2 0xCD1 JUMP JUMPDEST POP PUSH1 0x20 DUP3 ADD MLOAD DUP2 PUSH1 0x1 ADD SWAP1 DUP1 MLOAD SWAP1 PUSH1 0x20 ADD SWAP1 PUSH2 0x8CF SWAP3 SWAP2 SWAP1 PUSH2 0xCD1 JUMP JUMPDEST POP PUSH1 0x40 DUP3 ADD MLOAD DUP2 PUSH1 0x2 ADD SSTORE PUSH1 0x60 DUP3 ADD MLOAD DUP2 PUSH1 0x3 ADD SWAP1 DUP1 MLOAD SWAP1 PUSH1 0x20 ADD SWAP1 PUSH2 0x8F6 SWAP3 SWAP2 SWAP1 PUSH2 0xCD1 JUMP JUMPDEST POP PUSH1 0x80 DUP3 ADD MLOAD DUP2 PUSH1 0x4 ADD SWAP1 DUP1 MLOAD SWAP1 PUSH1 0x20 ADD SWAP1 PUSH2 0x913 SWAP3 SWAP2 SWAP1 PUSH2 0xCD1 JUMP JUMPDEST POP POP POP PUSH1 0x9 PUSH1 0x0 SWAP1 DUP1 PUSH1 0x1 DUP2 SLOAD ADD DUP1 DUP3 SSTORE DUP1 SWAP2 POP POP PUSH1 0x1 SWAP1 SUB SWAP1 PUSH1 0x0 MSTORE PUSH1 0x20 PUSH1 0x0 KECCAK256 ADD PUSH1 0x0 SWAP1 SWAP2 SWAP1 SWAP2 SWAP1 SWAP2 POP SSTORE POP POP POP POP POP POP JUMP JUMPDEST PUSH1 0x2 PUSH1 0x0 SWAP1 SLOAD SWAP1 PUSH2 0x100 EXP SWAP1 DIV PUSH20 0xFFFFFFFFFFFFFFFFFFFFFFFFFFFFFFFFFFFFFFFF AND PUSH20 0xFFFFFFFFFFFFFFFFFFFFFFFFFFFFFFFFFFFFFFFF AND CALLER PUSH20 0xFFFFFFFFFFFFFFFFFFFFFFFFFFFFFFFFFFFFFFFF AND EQ PUSH2 0x9A2 JUMPI PUSH1 0x0 DUP1 REVERT JUMPDEST PUSH1 0x1 ISZERO ISZERO PUSH1 0x4 PUSH1 0x1 SWAP1 SLOAD SWAP1 PUSH2 0x100 EXP SWAP1 DIV PUSH1 0xFF AND ISZERO ISZERO EQ PUSH2 0x9C2 JUMPI PUSH1 0x0 DUP1 REVERT JUMPDEST PUSH1 0x1 PUSH1 0x4 PUSH1 0x0 PUSH2 0x100 EXP DUP2 SLOAD DUP2 PUSH1 0xFF MUL NOT AND SWAP1 DUP4 ISZERO ISZERO MUL OR SWAP1 SSTORE POP JUMP JUMPDEST PUSH1 0x7 SLOAD DUP2 JUMP JUMPDEST PUSH1 0x60 PUSH1 0x8 DUP1 SLOAD DUP1 PUSH1 0x20 MUL PUSH1 0x20 ADD PUSH1 0x40 MLOAD SWAP1 DUP2 ADD PUSH1 0x40 MSTORE DUP1 SWAP3 SWAP2 SWAP1 DUP2 DUP2 MSTORE PUSH1 0x20 ADD PUSH1 0x0 SWAP1 JUMPDEST DUP3 DUP3 LT ISZERO PUSH2 0xC8D JUMPI DUP4 DUP3 SWAP1 PUSH1 0x0 MSTORE PUSH1 0x20 PUSH1 0x0 KECCAK256 SWAP1 PUSH1 0x5 MUL ADD PUSH1 0x40 MLOAD DUP1 PUSH1 0xA0 ADD PUSH1 0x40 MSTORE SWAP1 DUP2 PUSH1 0x0 DUP3 ADD DUP1 SLOAD PUSH2 0xA3C SWAP1 PUSH2 0x1530 JUMP JUMPDEST DUP1 PUSH1 0x1F ADD PUSH1 0x20 DUP1 SWAP2 DIV MUL PUSH1 0x20 ADD PUSH1 0x40 MLOAD SWAP1 DUP2 ADD PUSH1 0x40 MSTORE DUP1 SWAP3 SWAP2 SWAP1 DUP2 DUP2 MSTORE PUSH1 0x20 ADD DUP3 DUP1 SLOAD PUSH2 0xA68 SWAP1 PUSH2 0x1530 JUMP JUMPDEST DUP1 ISZERO PUSH2 0xAB5 JUMPI DUP1 PUSH1 0x1F LT PUSH2 0xA8A JUMPI PUSH2 0x100 DUP1 DUP4 SLOAD DIV MUL DUP4 MSTORE SWAP2 PUSH1 0x20 ADD SWAP2 PUSH2 0xAB5 JUMP JUMPDEST DUP3 ADD SWAP2 SWAP1 PUSH1 0x0 MSTORE PUSH1 0x20 PUSH1 0x0 KECCAK256 SWAP1 JUMPDEST DUP2 SLOAD DUP2 MSTORE SWAP1 PUSH1 0x1 ADD SWAP1 PUSH1 0x20 ADD DUP1 DUP4 GT PUSH2 0xA98 JUMPI DUP3 SWAP1 SUB PUSH1 0x1F AND DUP3 ADD SWAP2 JUMPDEST POP POP POP POP POP DUP2 MSTORE PUSH1 0x20 ADD PUSH1 0x1 DUP3 ADD DUP1 SLOAD PUSH2 0xACE SWAP1 PUSH2 0x1530 JUMP JUMPDEST DUP1 PUSH1 0x1F ADD PUSH1 0x20 DUP1 SWAP2 DIV MUL PUSH1 0x20 ADD PUSH1 0x40 MLOAD SWAP1 DUP2 ADD PUSH1 0x40 MSTORE DUP1 SWAP3 SWAP2 SWAP1 DUP2 DUP2 MSTORE PUSH1 0x20 ADD DUP3 DUP1 SLOAD PUSH2 0xAFA SWAP1 PUSH2 0x1530 JUMP JUMPDEST DUP1 ISZERO PUSH2 0xB47 JUMPI DUP1 PUSH1 0x1F LT PUSH2 0xB1C JUMPI PUSH2 0x100 DUP1 DUP4 SLOAD DIV MUL DUP4 MSTORE SWAP2 PUSH1 0x20 ADD SWAP2 PUSH2 0xB47 JUMP JUMPDEST DUP3 ADD SWAP2 SWAP1 PUSH1 0x0 MSTORE PUSH1 0x20 PUSH1 0x0 KECCAK256 SWAP1 JUMPDEST DUP2 SLOAD DUP2 MSTORE SWAP1 PUSH1 0x1 ADD SWAP1 PUSH1 0x20 ADD DUP1 DUP4 GT PUSH2 0xB2A JUMPI DUP3 SWAP1 SUB PUSH1 0x1F AND DUP3 ADD SWAP2 JUMPDEST POP POP POP POP POP DUP2 MSTORE PUSH1 0x20 ADD PUSH1 0x2 DUP3 ADD SLOAD DUP2 MSTORE PUSH1 0x20 ADD PUSH1 0x3 DUP3 ADD DUP1 SLOAD PUSH2 0xB6A SWAP1 PUSH2 0x1530 JUMP JUMPDEST DUP1 PUSH1 0x1F ADD PUSH1 0x20 DUP1 SWAP2 DIV MUL PUSH1 0x20 ADD PUSH1 0x40 MLOAD SWAP1 DUP2 ADD PUSH1 0x40 MSTORE DUP1 SWAP3 SWAP2 SWAP1 DUP2 DUP2 MSTORE PUSH1 0x20 ADD DUP3 DUP1 SLOAD PUSH2 0xB96 SWAP1 PUSH2 0x1530 JUMP JUMPDEST DUP1 ISZERO PUSH2 0xBE3 JUMPI DUP1 PUSH1 0x1F LT PUSH2 0xBB8 JUMPI PUSH2 0x100 DUP1 DUP4 SLOAD DIV MUL DUP4 MSTORE SWAP2 PUSH1 0x20 ADD SWAP2 PUSH2 0xBE3 JUMP JUMPDEST DUP3 ADD SWAP2 SWAP1 PUSH1 0x0 MSTORE PUSH1 0x20 PUSH1 0x0 KECCAK256 SWAP1 JUMPDEST DUP2 SLOAD DUP2 MSTORE SWAP1 PUSH1 0x1 ADD SWAP1 PUSH1 0x20 ADD DUP1 DUP4 GT PUSH2 0xBC6 JUMPI DUP3 SWAP1 SUB PUSH1 0x1F AND DUP3 ADD SWAP2 JUMPDEST POP POP POP POP POP DUP2 MSTORE PUSH1 0x20 ADD PUSH1 0x4 DUP3 ADD DUP1 SLOAD PUSH2 0xBFC SWAP1 PUSH2 0x1530 JUMP JUMPDEST DUP1 PUSH1 0x1F ADD PUSH1 0x20 DUP1 SWAP2 DIV MUL PUSH1 0x20 ADD PUSH1 0x40 MLOAD SWAP1 DUP2 ADD PUSH1 0x40 MSTORE DUP1 SWAP3 SWAP2 SWAP1 DUP2 DUP2 MSTORE PUSH1 0x20 ADD DUP3 DUP1 SLOAD PUSH2 0xC28 SWAP1 PUSH2 0x1530 JUMP JUMPDEST DUP1 ISZERO PUSH2 0xC75 JUMPI DUP1 PUSH1 0x1F LT PUSH2 0xC4A JUMPI PUSH2 0x100 DUP1 DUP4 SLOAD DIV MUL DUP4 MSTORE SWAP2 PUSH1 0x20 ADD SWAP2 PUSH2 0xC75 JUMP JUMPDEST DUP3 ADD SWAP2 SWAP1 PUSH1 0x0 MSTORE PUSH1 0x20 PUSH1 0x0 KECCAK256 SWAP1 JUMPDEST DUP2 SLOAD DUP2 MSTORE SWAP1 PUSH1 0x1 ADD SWAP1 PUSH1 0x20 ADD DUP1 DUP4 GT PUSH2 0xC58 JUMPI DUP3 SWAP1 SUB PUSH1 0x1F AND DUP3 ADD SWAP2 JUMPDEST POP POP POP POP POP DUP2 MSTORE POP POP DUP2 MSTORE PUSH1 0x20 ADD SWAP1 PUSH1 0x1 ADD SWAP1 PUSH2 0xA09 JUMP JUMPDEST POP POP POP POP SWAP1 POP SWAP1 JUMP JUMPDEST PUSH1 0x5 SLOAD DUP2 JUMP JUMPDEST PUSH1 0x6 SLOAD DUP2 JUMP JUMPDEST PUSH1 0x40 MLOAD DUP1 PUSH1 0xA0 ADD PUSH1 0x40 MSTORE DUP1 PUSH1 0x60 DUP2 MSTORE PUSH1 0x20 ADD PUSH1 0x60 DUP2 MSTORE PUSH1 0x20 ADD PUSH1 0x0 DUP2 MSTORE PUSH1 0x20 ADD PUSH1 0x60 DUP2 MSTORE PUSH1 0x20 ADD PUSH1 0x60 DUP2 MSTORE POP SWAP1 JUMP JUMPDEST DUP3 DUP1 SLOAD PUSH2 0xCDD SWAP1 PUSH2 0x1530 JUMP JUMPDEST SWAP1 PUSH1 0x0 MSTORE PUSH1 0x20 PUSH1 0x0 KECCAK256 SWAP1 PUSH1 0x1F ADD PUSH1 0x20 SWAP1 DIV DUP2 ADD SWAP3 DUP3 PUSH2 0xCFF JUMPI PUSH1 0x0 DUP6 SSTORE PUSH2 0xD46 JUMP JUMPDEST DUP3 PUSH1 0x1F LT PUSH2 0xD18 JUMPI DUP1 MLOAD PUSH1 0xFF NOT AND DUP4 DUP1 ADD OR DUP6 SSTORE PUSH2 0xD46 JUMP JUMPDEST DUP3 DUP1 ADD PUSH1 0x1 ADD DUP6 SSTORE DUP3 ISZERO PUSH2 0xD46 JUMPI SWAP2 DUP3 ADD JUMPDEST DUP3 DUP2 GT ISZERO PUSH2 0xD45 JUMPI DUP3 MLOAD DUP3 SSTORE SWAP2 PUSH1 0x20 ADD SWAP2 SWAP1 PUSH1 0x1 ADD SWAP1 PUSH2 0xD2A JUMP JUMPDEST JUMPDEST POP SWAP1 POP PUSH2 0xD53 SWAP2 SWAP1 PUSH2 0xD57 JUMP JUMPDEST POP SWAP1 JUMP JUMPDEST JUMPDEST DUP1 DUP3 GT ISZERO PUSH2 0xD70 JUMPI PUSH1 0x0 DUP2 PUSH1 0x0 SWAP1 SSTORE POP PUSH1 0x1 ADD PUSH2 0xD58 JUMP JUMPDEST POP SWAP1 JUMP JUMPDEST PUSH1 0x0 PUSH1 0x40 MLOAD SWAP1 POP SWAP1 JUMP JUMPDEST PUSH1 0x0 DUP1 REVERT JUMPDEST PUSH1 0x0 DUP1 REVERT JUMPDEST PUSH1 0x0 DUP2 SWAP1 POP SWAP2 SWAP1 POP JUMP JUMPDEST PUSH2 0xD9B DUP2 PUSH2 0xD88 JUMP JUMPDEST DUP2 EQ PUSH2 0xDA6 JUMPI PUSH1 0x0 DUP1 REVERT JUMPDEST POP JUMP JUMPDEST PUSH1 0x0 DUP2 CALLDATALOAD SWAP1 POP PUSH2 0xDB8 DUP2 PUSH2 0xD92 JUMP JUMPDEST SWAP3 SWAP2 POP POP JUMP JUMPDEST PUSH1 0x0 PUSH1 0x20 DUP3 DUP5 SUB SLT ISZERO PUSH2 0xDD4 JUMPI PUSH2 0xDD3 PUSH2 0xD7E JUMP JUMPDEST JUMPDEST PUSH1 0x0 PUSH2 0xDE2 DUP5 DUP3 DUP6 ADD PUSH2 0xDA9 JUMP JUMPDEST SWAP2 POP POP SWAP3 SWAP2 POP POP JUMP JUMPDEST PUSH1 0x0 DUP2 MLOAD SWAP1 POP SWAP2 SWAP1 POP JUMP JUMPDEST PUSH1 0x0 DUP3 DUP3 MSTORE PUSH1 0x20 DUP3 ADD SWAP1 POP SWAP3 SWAP2 POP POP JUMP JUMPDEST PUSH1 0x0 JUMPDEST DUP4 DUP2 LT ISZERO PUSH2 0xE25 JUMPI DUP1 DUP3 ADD MLOAD DUP2 DUP5 ADD MSTORE PUSH1 0x20 DUP2 ADD SWAP1 POP PUSH2 0xE0A JUMP JUMPDEST DUP4 DUP2 GT ISZERO PUSH2 0xE34 JUMPI PUSH1 0x0 DUP5 DUP5 ADD MSTORE JUMPDEST POP POP POP POP JUMP JUMPDEST PUSH1 0x0 PUSH1 0x1F NOT PUSH1 0x1F DUP4 ADD AND SWAP1 POP SWAP2 SWAP1 POP JUMP JUMPDEST PUSH1 0x0 PUSH2 0xE56 DUP3 PUSH2 0xDEB JUMP JUMPDEST PUSH2 0xE60 DUP2 DUP6 PUSH2 0xDF6 JUMP JUMPDEST SWAP4 POP PUSH2 0xE70 DUP2 DUP6 PUSH1 0x20 DUP7 ADD PUSH2 0xE07 JUMP JUMPDEST PUSH2 0xE79 DUP2 PUSH2 0xE3A JUMP JUMPDEST DUP5 ADD SWAP2 POP POP SWAP3 SWAP2 POP POP JUMP JUMPDEST PUSH2 0xE8D DUP2 PUSH2 0xD88 JUMP JUMPDEST DUP3 MSTORE POP POP JUMP JUMPDEST PUSH1 0x0 PUSH1 0xA0 DUP4 ADD PUSH1 0x0 DUP4 ADD MLOAD DUP5 DUP3 SUB PUSH1 0x0 DUP7 ADD MSTORE PUSH2 0xEB0 DUP3 DUP3 PUSH2 0xE4B JUMP JUMPDEST SWAP2 POP POP PUSH1 0x20 DUP4 ADD MLOAD DUP5 DUP3 SUB PUSH1 0x20 DUP7 ADD MSTORE PUSH2 0xECA DUP3 DUP3 PUSH2 0xE4B JUMP JUMPDEST SWAP2 POP POP PUSH1 0x40 DUP4 ADD MLOAD PUSH2 0xEDF PUSH1 0x40 DUP7 ADD DUP3 PUSH2 0xE84 JUMP JUMPDEST POP PUSH1 0x60 DUP4 ADD MLOAD DUP5 DUP3 SUB PUSH1 0x60 DUP7 ADD MSTORE PUSH2 0xEF7 DUP3 DUP3 PUSH2 0xE4B JUMP JUMPDEST SWAP2 POP POP PUSH1 0x80 DUP4 ADD MLOAD DUP5 DUP3 SUB PUSH1 0x80 DUP7 ADD MSTORE PUSH2 0xF11 DUP3 DUP3 PUSH2 0xE4B JUMP JUMPDEST SWAP2 POP POP DUP1 SWAP2 POP POP SWAP3 SWAP2 POP POP JUMP JUMPDEST PUSH1 0x0 PUSH1 0x20 DUP3 ADD SWAP1 POP DUP2 DUP2 SUB PUSH1 0x0 DUP4 ADD MSTORE PUSH2 0xF38 DUP2 DUP5 PUSH2 0xE93 JUMP JUMPDEST SWAP1 POP SWAP3 SWAP2 POP POP JUMP JUMPDEST PUSH1 0x0 DUP3 DUP3 MSTORE PUSH1 0x20 DUP3 ADD SWAP1 POP SWAP3 SWAP2 POP POP JUMP JUMPDEST PUSH1 0x0 PUSH2 0xF5C DUP3 PUSH2 0xDEB JUMP JUMPDEST PUSH2 0xF66 DUP2 DUP6 PUSH2 0xF40 JUMP JUMPDEST SWAP4 POP PUSH2 0xF76 DUP2 DUP6 PUSH1 0x20 DUP7 ADD PUSH2 0xE07 JUMP JUMPDEST PUSH2 0xF7F DUP2 PUSH2 0xE3A JUMP JUMPDEST DUP5 ADD SWAP2 POP POP SWAP3 SWAP2 POP POP JUMP JUMPDEST PUSH1 0x0 PUSH1 0x20 DUP3 ADD SWAP1 POP DUP2 DUP2 SUB PUSH1 0x0 DUP4 ADD MSTORE PUSH2 0xFA4 DUP2 DUP5 PUSH2 0xF51 JUMP JUMPDEST SWAP1 POP SWAP3 SWAP2 POP POP JUMP JUMPDEST PUSH1 0x0 DUP1 PUSH1 0x40 DUP4 DUP6 SUB SLT ISZERO PUSH2 0xFC3 JUMPI PUSH2 0xFC2 PUSH2 0xD7E JUMP JUMPDEST JUMPDEST PUSH1 0x0 PUSH2 0xFD1 DUP6 DUP3 DUP7 ADD PUSH2 0xDA9 JUMP JUMPDEST SWAP3 POP POP PUSH1 0x20 PUSH2 0xFE2 DUP6 DUP3 DUP7 ADD PUSH2 0xDA9 JUMP JUMPDEST SWAP2 POP POP SWAP3 POP SWAP3 SWAP1 POP JUMP JUMPDEST PUSH2 0xFF5 DUP2 PUSH2 0xD88 JUMP JUMPDEST DUP3 MSTORE POP POP JUMP JUMPDEST PUSH1 0x0 PUSH1 0x20 DUP3 ADD SWAP1 POP PUSH2 0x1010 PUSH1 0x0 DUP4 ADD DUP5 PUSH2 0xFEC JUMP JUMPDEST SWAP3 SWAP2 POP POP JUMP JUMPDEST PUSH1 0x0 DUP2 MLOAD SWAP1 POP SWAP2 SWAP1 POP JUMP JUMPDEST PUSH1 0x0 DUP3 DUP3 MSTORE PUSH1 0x20 DUP3 ADD SWAP1 POP SWAP3 SWAP2 POP POP JUMP JUMPDEST PUSH1 0x0 DUP2 SWAP1 POP PUSH1 0x20 DUP3 ADD SWAP1 POP SWAP2 SWAP1 POP JUMP JUMPDEST PUSH1 0x0 PUSH2 0x104E DUP4 DUP4 PUSH2 0xE84 JUMP JUMPDEST PUSH1 0x20 DUP4 ADD SWAP1 POP SWAP3 SWAP2 POP POP JUMP JUMPDEST PUSH1 0x0 PUSH1 0x20 DUP3 ADD SWAP1 POP SWAP2 SWAP1 POP JUMP JUMPDEST PUSH1 0x0 PUSH2 0x1072 DUP3 PUSH2 0x1016 JUMP JUMPDEST PUSH2 0x107C DUP2 DUP6 PUSH2 0x1021 JUMP JUMPDEST SWAP4 POP PUSH2 0x1087 DUP4 PUSH2 0x1032 JUMP JUMPDEST DUP1 PUSH1 0x0 JUMPDEST DUP4 DUP2 LT ISZERO PUSH2 0x10B8 JUMPI DUP2 MLOAD PUSH2 0x109F DUP9 DUP3 PUSH2 0x1042 JUMP JUMPDEST SWAP8 POP PUSH2 0x10AA DUP4 PUSH2 0x105A JUMP JUMPDEST SWAP3 POP POP PUSH1 0x1 DUP2 ADD SWAP1 POP PUSH2 0x108B JUMP JUMPDEST POP DUP6 SWAP4 POP POP POP POP SWAP3 SWAP2 POP POP JUMP JUMPDEST PUSH1 0x0 PUSH1 0x20 DUP3 ADD SWAP1 POP DUP2 DUP2 SUB PUSH1 0x0 DUP4 ADD MSTORE PUSH2 0x10DF DUP2 DUP5 PUSH2 0x1067 JUMP JUMPDEST SWAP1 POP SWAP3 SWAP2 POP POP JUMP JUMPDEST PUSH1 0x0 PUSH20 0xFFFFFFFFFFFFFFFFFFFFFFFFFFFFFFFFFFFFFFFF DUP3 AND SWAP1 POP SWAP2 SWAP1 POP JUMP JUMPDEST PUSH1 0x0 PUSH2 0x1112 DUP3 PUSH2 0x10E7 JUMP JUMPDEST SWAP1 POP SWAP2 SWAP1 POP JUMP JUMPDEST PUSH2 0x1122 DUP2 PUSH2 0x1107 JUMP JUMPDEST DUP3 MSTORE POP POP JUMP JUMPDEST PUSH1 0x0 PUSH1 0x20 DUP3 ADD SWAP1 POP PUSH2 0x113D PUSH1 0x0 DUP4 ADD DUP5 PUSH2 0x1119 JUMP JUMPDEST SWAP3 SWAP2 POP POP JUMP JUMPDEST PUSH1 0x0 DUP1 REVERT JUMPDEST PUSH1 0x0 DUP1 REVERT JUMPDEST PUSH32 0x4E487B7100000000000000000000000000000000000000000000000000000000 PUSH1 0x0 MSTORE PUSH1 0x41 PUSH1 0x4 MSTORE PUSH1 0x24 PUSH1 0x0 REVERT JUMPDEST PUSH2 0x1185 DUP3 PUSH2 0xE3A JUMP JUMPDEST DUP2 ADD DUP2 DUP2 LT PUSH8 0xFFFFFFFFFFFFFFFF DUP3 GT OR ISZERO PUSH2 0x11A4 JUMPI PUSH2 0x11A3 PUSH2 0x114D JUMP JUMPDEST JUMPDEST DUP1 PUSH1 0x40 MSTORE POP POP POP JUMP JUMPDEST PUSH1 0x0 PUSH2 0x11B7 PUSH2 0xD74 JUMP JUMPDEST SWAP1 POP PUSH2 0x11C3 DUP3 DUP3 PUSH2 0x117C JUMP JUMPDEST SWAP2 SWAP1 POP JUMP JUMPDEST PUSH1 0x0 PUSH8 0xFFFFFFFFFFFFFFFF DUP3 GT ISZERO PUSH2 0x11E3 JUMPI PUSH2 0x11E2 PUSH2 0x114D JUMP JUMPDEST JUMPDEST PUSH2 0x11EC DUP3 PUSH2 0xE3A JUMP JUMPDEST SWAP1 POP PUSH1 0x20 DUP2 ADD SWAP1 POP SWAP2 SWAP1 POP JUMP JUMPDEST DUP3 DUP2 DUP4 CALLDATACOPY PUSH1 0x0 DUP4 DUP4 ADD MSTORE POP POP POP JUMP JUMPDEST PUSH1 0x0 PUSH2 0x121B PUSH2 0x1216 DUP5 PUSH2 0x11C8 JUMP JUMPDEST PUSH2 0x11AD JUMP JUMPDEST SWAP1 POP DUP3 DUP2 MSTORE PUSH1 0x20 DUP2 ADD DUP5 DUP5 DUP5 ADD GT ISZERO PUSH2 0x1237 JUMPI PUSH2 0x1236 PUSH2 0x1148 JUMP JUMPDEST JUMPDEST PUSH2 0x1242 DUP5 DUP3 DUP6 PUSH2 0x11F9 JUMP JUMPDEST POP SWAP4 SWAP3 POP POP POP JUMP JUMPDEST PUSH1 0x0 DUP3 PUSH1 0x1F DUP4 ADD SLT PUSH2 0x125F JUMPI PUSH2 0x125E PUSH2 0x1143 JUMP JUMPDEST JUMPDEST DUP2 CALLDATALOAD PUSH2 0x126F DUP5 DUP3 PUSH1 0x20 DUP7 ADD PUSH2 0x1208 JUMP JUMPDEST SWAP2 POP POP SWAP3 SWAP2 POP POP JUMP JUMPDEST PUSH1 0x0 DUP1 PUSH1 0x0 DUP1 PUSH1 0x0 PUSH1 0xA0 DUP7 DUP9 SUB SLT ISZERO PUSH2 0x1294 JUMPI PUSH2 0x1293 PUSH2 0xD7E JUMP JUMPDEST JUMPDEST PUSH1 0x0 DUP7 ADD CALLDATALOAD PUSH8 0xFFFFFFFFFFFFFFFF DUP2 GT ISZERO PUSH2 0x12B2 JUMPI PUSH2 0x12B1 PUSH2 0xD83 JUMP JUMPDEST JUMPDEST PUSH2 0x12BE DUP9 DUP3 DUP10 ADD PUSH2 0x124A JUMP JUMPDEST SWAP6 POP POP PUSH1 0x20 DUP7 ADD CALLDATALOAD PUSH8 0xFFFFFFFFFFFFFFFF DUP2 GT ISZERO PUSH2 0x12DF JUMPI PUSH2 0x12DE PUSH2 0xD83 JUMP JUMPDEST JUMPDEST PUSH2 0x12EB DUP9 DUP3 DUP10 ADD PUSH2 0x124A JUMP JUMPDEST SWAP5 POP POP PUSH1 0x40 PUSH2 0x12FC DUP9 DUP3 DUP10 ADD PUSH2 0xDA9 JUMP JUMPDEST SWAP4 POP POP PUSH1 0x60 DUP7 ADD CALLDATALOAD PUSH8 0xFFFFFFFFFFFFFFFF DUP2 GT ISZERO PUSH2 0x131D JUMPI PUSH2 0x131C PUSH2 0xD83 JUMP JUMPDEST JUMPDEST PUSH2 0x1329 DUP9 DUP3 DUP10 ADD PUSH2 0x124A JUMP JUMPDEST SWAP3 POP POP PUSH1 0x80 DUP7 ADD CALLDATALOAD PUSH8 0xFFFFFFFFFFFFFFFF DUP2 GT ISZERO PUSH2 0x134A JUMPI PUSH2 0x1349 PUSH2 0xD83 JUMP JUMPDEST JUMPDEST PUSH2 0x1356 DUP9 DUP3 DUP10 ADD PUSH2 0x124A JUMP JUMPDEST SWAP2 POP POP SWAP3 SWAP6 POP SWAP3 SWAP6 SWAP1 SWAP4 POP JUMP JUMPDEST PUSH1 0x0 DUP2 MLOAD SWAP1 POP SWAP2 SWAP1 POP JUMP JUMPDEST PUSH1 0x0 DUP3 DUP3 MSTORE PUSH1 0x20 DUP3 ADD SWAP1 POP SWAP3 SWAP2 POP POP JUMP JUMPDEST PUSH1 0x0 DUP2 SWAP1 POP PUSH1 0x20 DUP3 ADD SWAP1 POP SWAP2 SWAP1 POP JUMP JUMPDEST PUSH1 0x0 PUSH1 0xA0 DUP4 ADD PUSH1 0x0 DUP4 ADD MLOAD DUP5 DUP3 SUB PUSH1 0x0 DUP7 ADD MSTORE PUSH2 0x13AC DUP3 DUP3 PUSH2 0xE4B JUMP JUMPDEST SWAP2 POP POP PUSH1 0x20 DUP4 ADD MLOAD DUP5 DUP3 SUB PUSH1 0x20 DUP7 ADD MSTORE PUSH2 0x13C6 DUP3 DUP3 PUSH2 0xE4B JUMP JUMPDEST SWAP2 POP POP PUSH1 0x40 DUP4 ADD MLOAD PUSH2 0x13DB PUSH1 0x40 DUP7 ADD DUP3 PUSH2 0xE84 JUMP JUMPDEST POP PUSH1 0x60 DUP4 ADD MLOAD DUP5 DUP3 SUB PUSH1 0x60 DUP7 ADD MSTORE PUSH2 0x13F3 DUP3 DUP3 PUSH2 0xE4B JUMP JUMPDEST SWAP2 POP POP PUSH1 0x80 DUP4 ADD MLOAD DUP5 DUP3 SUB PUSH1 0x80 DUP7 ADD MSTORE PUSH2 0x140D DUP3 DUP3 PUSH2 0xE4B JUMP JUMPDEST SWAP2 POP POP DUP1 SWAP2 POP POP SWAP3 SWAP2 POP POP JUMP JUMPDEST PUSH1 0x0 PUSH2 0x1426 DUP4 DUP4 PUSH2 0x138F JUMP JUMPDEST SWAP1 POP SWAP3 SWAP2 POP POP JUMP JUMPDEST PUSH1 0x0 PUSH1 0x20 DUP3 ADD SWAP1 POP SWAP2 SWAP1 POP JUMP JUMPDEST PUSH1 0x0 PUSH2 0x1446 DUP3 PUSH2 0x1363 JUMP JUMPDEST PUSH2 0x1450 DUP2 DUP6 PUSH2 0x136E JUMP JUMPDEST SWAP4 POP DUP4 PUSH1 0x20 DUP3 MUL DUP6 ADD PUSH2 0x1462 DUP6 PUSH2 0x137F JUMP JUMPDEST DUP1 PUSH1 0x0 JUMPDEST DUP6 DUP2 LT ISZERO PUSH2 0x149E JUMPI DUP5 DUP5 SUB DUP10 MSTORE DUP2 MLOAD PUSH2 0x147F DUP6 DUP3 PUSH2 0x141A JUMP JUMPDEST SWAP5 POP PUSH2 0x148A DUP4 PUSH2 0x142E JUMP JUMPDEST SWAP3 POP PUSH1 0x20 DUP11 ADD SWAP10 POP POP PUSH1 0x1 DUP2 ADD SWAP1 POP PUSH2 0x1466 JUMP JUMPDEST POP DUP3 SWAP8 POP DUP8 SWAP6 POP POP POP POP POP POP SWAP3 SWAP2 POP POP JUMP JUMPDEST PUSH1 0x0 PUSH1 0x20 DUP3 ADD SWAP1 POP DUP2 DUP2 SUB PUSH1 0x0 DUP4 ADD MSTORE PUSH2 0x14CA DUP2 DUP5 PUSH2 0x143B JUMP JUMPDEST SWAP1 POP SWAP3 SWAP2 POP POP JUMP JUMPDEST PUSH32 0x4E487B7100000000000000000000000000000000000000000000000000000000 PUSH1 0x0 MSTORE PUSH1 0x32 PUSH1 0x4 MSTORE PUSH1 0x24 PUSH1 0x0 REVERT JUMPDEST PUSH32 0x4E487B7100000000000000000000000000000000000000000000000000000000 PUSH1 0x0 MSTORE PUSH1 0x22 PUSH1 0x4 MSTORE PUSH1 0x24 PUSH1 0x0 REVERT JUMPDEST PUSH1 0x0 PUSH1 0x2 DUP3 DIV SWAP1 POP PUSH1 0x1 DUP3 AND DUP1 PUSH2 0x1548 JUMPI PUSH1 0x7F DUP3 AND SWAP2 POP JUMPDEST PUSH1 0x20 DUP3 LT DUP2 EQ ISZERO PUSH2 0x155C JUMPI PUSH2 0x155B PUSH2 0x1501 JUMP JUMPDEST JUMPDEST POP SWAP2 SWAP1 POP JUMP JUMPDEST PUSH32 0x4E487B7100000000000000000000000000000000000000000000000000000000 PUSH1 0x0 MSTORE PUSH1 0x11 PUSH1 0x4 MSTORE PUSH1 0x24 PUSH1 0x0 REVERT JUMPDEST PUSH1 0x0 PUSH2 0x159C DUP3 PUSH2 0xD88 JUMP JUMPDEST SWAP2 POP PUSH32 0xFFFFFFFFFFFFFFFFFFFFFFFFFFFFFFFFFFFFFFFFFFFFFFFFFFFFFFFFFFFFFFFF DUP3 EQ ISZERO PUSH2 0x15CF JUMPI PUSH2 0x15CE PUSH2 0x1562 JUMP JUMPDEST JUMPDEST PUSH1 0x1 DUP3 ADD SWAP1 POP SWAP2 SWAP1 POP JUMP INVALID LOG2 PUSH5 0x6970667358 0x22 SLT KECCAK256 0x24 CREATE PUSH15 0x370AEC361A8555E5D06D3DE2DD466B DUP5 0xC7 NOT MOD 0xC7 0xC7 PUSH11 0x141F42AB8C0DA064736F6C PUSH4 0x4300080A STOP CALLER "},"gasEstimates":{"creation":{"codeDepositCost":"1129600","executionCost":"infinite","totalCost":"infinite"},"external":{"addParty(string,string,uint256,string,string)":"infinite","castVote(uint256,uint256)":"infinite","createdAt()":"2495","endAt()":"2451","endElection()":"28869","getParties()":"infinite","getPartyDetails(uint256)":"infinite","getResults()":"infinite","manager()":"2537","name()":"infinite","startElection(uint256,uint256)":"infinite","startedAt()":"2517","totalVotes()":"2496"}},"methodIdentifiers":{"addParty(string,string,uint256,string,string)":"56a34768","castVote(uint256,uint256)":"2c0a3f89","createdAt()":"cf09e0d0","endAt()":"7cc3ae8c","endElection()":"59f78468","getParties()":"a8311aa8","getPartyDetails(uint256)":"024789a9","getResults()":"4717f97c","manager()":"481c6a75","name()":"06fdde03","startElection(uint256,uint256)":"0c54b463","startedAt()":"f21f537d","totalVotes()":"0d15fd77"}},"storageLayout":{"storage":[{"astId":66,"contract":"Election.sol:Election","label":"totalVotes","offset":0,"slot":"0","type":"t_uint256"},{"astId":68,"contract":"Election.sol:Election","label":"name","offset":0,"slot":"1","type":"t_string_storage"},{"astId":70,"contract":"Election.sol:Election","label":"manager","offset":0,"slot":"2","type":"t_address"},{"astId":74,"contract":"Election.sol:Election","label":"voted","offset":0,"slot":"3","type":"t_mapping(t_uint256,t_bool)"},{"astId":76,"contract":"Election.sol:Election","label":"isCompleted","offset":0,"slot":"4","type":"t_bool"},{"astId":78,"contract":"Election.sol:Election","label":"isStarted","offset":1,"slot":"4","type":"t_bool"},{"astId":80,"contract":"Election.sol:Election","label":"createdAt","offset":0,"slot":"5","type":"t_uint256"},{"astId":82,"contract":"Election.sol:Election","label":"startedAt","offset":0,"slot":"6","type":"t_uint256"},{"astId":84,"contract":"Election.sol:Election","label":"endAt","offset":0,"slot":"7","type":"t_uint256"},{"astId":152,"contract":"Election.sol:Election","label":"parties","offset":0,"slot":"8","type":"t_array(t_struct(Party)148_storage)dyn_storage"},{"astId":155,"contract":"Election.sol:Election","label":"voteCount","offset":0,"slot":"9","type":"t_array(t_uint256)dyn_storage"}],"types":{"t_address":{"encoding":"inplace","label":"address","numberOfBytes":"20"},"t_array(t_struct(Party)148_storage)dyn_storage":{"base":"t_struct(Party)148_storage","encoding":"dynamic_array","label":"struct Election.Party[]","numberOfBytes":"32"},"t_array(t_uint256)dyn_storage":{"base":"t_uint256","encoding":"dynamic_array","label":"uint256[]","numberOfBytes":"32"},"t_bool":{"encoding":"inplace","label":"bool","numberOfBytes":"1"},"t_mapping(t_uint256,t_bool)":{"encoding":"mapping","key":"t_uint256","label":"mapping(uint256 => bool)","numberOfBytes":"32","value":"t_bool"},"t_string_storage":{"encoding":"bytes","label":"string","numberOfBytes":"32"},"t_struct(Party)148_storage":{"encoding":"inplace","label":"struct Election.Party","members":[{"astId":139,"contract":"Election.sol:Election","label":"name","offset":0,"slot":"0","type":"t_string_storage"},{"astId":141,"contract":"Election.sol:Election","label":"leaderName","offset":0,"slot":"1","type":"t_string_storage"},{"astId":143,"contract":"Election.sol:Election","label":"membersCount","offset":0,"slot":"2","type":"t_uint256"},{"astId":145,"contract":"Election.sol:Election","label":"region","offset":0,"slot":"3","type":"t_string_storage"},{"astId":147,"contract":"Election.sol:Election","label":"image","offset":0,"slot":"4","type":"t_string_storage"}],"numberOfBytes":"160"},"t_uint256":{"encoding":"inplace","label":"uint256","numberOfBytes":"32"}}},"userdoc":{"kind":"user","methods":{},"version":1}}